:020000040800F2
:10000000A807002089010008591B0008B51800083E
:10001000551B0008AF020008A11F000800000000E7
:10002000000000000000000000000000891B000824
:10003000B3020008000000005D1B00088B1B0008D5
:10004000A3010008A3010008A3010008A301000800
:10005000A3010008A3010008A3010008A3010008F0
:10006000A3010008A3010008A3010008A3010008E0
:10007000A3010008A3010008A3010008A3010008D0
:10008000A3010008A3010008A3010008A3010008C0
:10009000A3010008A3010008A3010008A3010008B0
:1000A000A3010008A3010008A3010008A3010008A0
:1000B000A3010008FD1B0008A3010008A30100081C
:1000C000A3010008A3010008A3010008A301000880
:1000D000A3010008A3010008A3010008A301000870
:1000E000A3010008A3010008A301000800F002F822
:1000F00000F03AF80AA090E8000C82448344AAF188
:100100000107DA4501D100F02FF8AFF2090EBAE885
:100110000F0013F0010F18BFFB1A43F0010318473B
:1001200098310000B8310000103A24BF78C878C177
:10013000FAD8520724BF30C830C144BF04680C60ED
:10014000704700000023002400250026103A28BF35
:1001500078C1FBD8520728BF30C148BF0B60704739
:100160001FB51FBD10B510BD00F06CF81146FFF7AC
:10017000F7FF02F0B5FA00F08AF803B4FFF7F2FFD8
:1001800003BC00F08DF8000009488047094800478B
:10019000FEE7FEE7FEE7FEE7FEE7FEE7FEE7FEE737
:1001A000FEE7FEE704480549054A064B7047000094
:1001B000F91B0008ED000008A8010020A807002096
:1001C000A8030020A80300204FF0000200B513464A
:1001D00094469646203922BFA0E80C50A0E80C5067
:1001E000B1F12001BFF4F7AF090728BFA0E80C5018
:1001F00048BF0CC05DF804EB890028BF40F8042B11
:1002000008BF704748BF20F8022B11F0804F18BF7D
:1002100000F8012B704770477047704710B500F029
:1002200009F8006810BD10B5044600F003F804603A
:1002300010BD00000048704748010020004870478A
:10024000480100207546FFF7F9FFAE4605006946F4
:10025000534620F00700854618B020B5FFF7A2FFEF
:10026000BDE820404FF000064FF000074FF00008B7
:100270004FF0000B21F00701AC46ACE8C009ACE838
:10028000C009ACE8C009ACE8C0098D46704710B59C
:100290000446AFF300802046BDE81040FFF76DBF75
:1002A00001491820ABBEFEE726000200704700BFE0
:1002B000FEE7704772B600BFFEE7000070B5044667
:1002C00000F0A6F906462546681C10B104480078DF
:1002D000054400BF00F09CF9801BA842FAD370BD12
:1002E000100000202DE9F8470346002294466EE1F5
:1002F0004FF0010808FA02F4D1F8008008EA04007F
:10030000A0427DD1DFF8DCA2D1F80480A8EB0A0975
:10031000D0453AD014DCB8F1030F50D009DCB8F165
:10032000000F31D0B8F1010F1CD0B8F1020F49D144
:1003300020E0B8F1110F18D0B8F1120F42D11EE031
:10034000B9F5881F25D006DCB9F5803F20D0B9F576
:10035000801F37D11AE0B9F5001F18D0B9F5041F76
:1003600030D117E0D1F80CC02DE0D1F80C8008F1A5
:10037000040C28E0D1F80C8008F1080C23E0D1F837
:100380000C8008F10C0C1EE000BF00BF00BF00BFD6
:1003900000BF00BFD1F80880B8F1000F02D14FF0C4
:1003A000040C0BE0D1F80880B8F1010F03D14FF035
:1003B000080C1C6102E04FF0080C5C6103E04FF098
:1003C000000C00E000BF00BFFF2801D8984601E004
:1003D00003F104084646FF2802D84FEA820803E0EA
:1003E000A2F108084FEA88084746D6F800804FF087
:1003F0000F0909FA07F928EA09080CFA07F900E0D9
:1004000088E048EA0908C6F80080D1F8048008F0BE
:100410008058B8F1805F7DD100BFDFF8CC81D8F87B
:10042000188048F00108DFF8C091C9F81880C84664
:10043000D8F8188008F00108CDF8008000BF00BF90
:100440004FEAB9384FEA920958F829504FEA8278B2
:100450004FEA18794FF00F0808FA09F825EA08055D
:10046000DFF88881434502D14FF0000816E0DFF83D
:100470008081434502D14FF001080FE0DFF874811D
:10048000434502D14FF0020808E0DFF86C81434594
:1004900002D14FF0030801E04FF004084FEA8279DF
:1004A0004FEA197908FA09F848EA0505DFF84C819E
:1004B0004FEA920948F82950D1F8048008F48018CE
:1004C000B8F5801F0AD1DFF83881D8F8008048EAF3
:1004D0000008DFF82C91C9F8008009E0DFF82081DE
:1004E000D8F8008028EA0008DFF81491C9F80080E5
:1004F000D1F8048008F40018B8F5001F10D1DFF817
:10050000008108F10408D8F8008048EA0008DFF804
:10051000F09000E05AE009F10409C9F800800DE00C
:10052000DFF8DC8008F10408D8F8008028EA000829
:10053000DFF8CC9009F10409C9F80080D1F80480F3
:1005400008F40038B8F5003F0ED1DFF8B480A8F108
:100550000408D8F8008048EA0008DFF8A490A9F160
:100560000409C9F800800DE0DFF89480A8F10408C0
:10057000D8F8008028EA0008DFF88490A9F104097F
:10058000C9F80080D1F8048008F48038B8F5803FBD
:100590000ED1DFF86C80A8F10808D8F8008048EA8E
:1005A0000008DFF85C90A9F10809C9F800800DE0A7
:1005B000DFF84C80A8F10808D8F8008028EA000885
:1005C000DFF83C90A9F10809C9F80080521CD1F865
:1005D000008028FA02F8B8F1000F7FF489AEBDE878
:1005E000F8870000000011100010024000080140D0
:1005F000000C0140001001400014014008000140BF
:10060000080401400AB1016101E00B040361704775
:100610000148006870470000080000200348006897
:100620000349097808440149086070470800002020
:100630001000002010B50848006840F0100006497E
:100640000860032000F0A8F80F2000F007F800F081
:100650002BF8002010BD00000020024070B50446B9
:100660000E4800784FF47A71B1FBF0F00C4909683C
:10067000B1FBF0F5284600F09BFC08B1012070BDED
:10068000102C07D200222146501E00F047F80548E2
:10069000046001E00120F2E70020F0E710000020F4
:1006A000140000200C00002008B500BF114880692C
:1006B00040F001000F4988610846806900F00100A0
:1006C000009000BF00BF00BF0846C06940F08050E6
:1006D000C8610846C06900F08050009000BF00BFAC
:1006E00000BF0549486820F0E06040F000704860B5
:1006F00000BF08BD0010024000000140014608464E
:10070000002809DB00F01F0301229A4043099B00E7
:1007100003F1E023C3F8002100BF70472DE9F05F2B
:1007200080460D461646002701F050FC0746394624
:100730002A46334601F00700C0F1070ABAF1040F58
:1007400002D94FF0040A01E0C0F1070AD14600F1D6
:10075000040ABAF1070F02D24FF0000A01E0A0F13B
:10076000030AD4464FF0010A0AFA09FAAAF1010A6B
:100770000AEA020A0AFA0CFA4FF0010B0BFA0CFB18
:10078000ABF1010B0BEA030B4AEA0B04214640468E
:1007900001F024FCBDE8F09F00BF00F00702064B0B
:1007A00019684FF6FF031940044B0B4343EA02213B
:1007B000014B196000BF70470CED00E00000FA0526
:1007C00070B504460D460CB9012070BD5A4800684A
:1007D00000F00700A8420ED25748006820F007003A
:1007E0002843554908600846006800F00700A84201
:1007F00001D00120E9E7207800F0020002281DD195
:10080000207800F00400042805D14C48406840F4EA
:10081000E0604A494860207800F00800082805D1C7
:100820004648406840F46050444948604348406846
:1008300020F0F000A168084340494860207800F0AB
:10084000010078B36068012806D13C48006800F4D4
:10085000003090B90120B8E76068022806D1374817
:10086000006800F0007040B90120AEE7334800682E
:1008700000F0020008B90120A7E73048406820F0E6
:100880000300616808432D494860FFF7C1FE064632
:1008900009E0FFF7BDFE801B41F28831884202D992
:1008A000032092E707E02548406800F00C006168EB
:1008B000B0EB810FEDD12048006800F00700A8429E
:1008C0000ED91D48006820F0070028431A49086027
:1008D0000846006800F00700A84201D0012074E734
:1008E000207800F00400042807D11448406820F460
:1008F000E060E168084311494860207800F0080092
:10090000082808D10D48406820F46050216940EA69
:10091000C1000A49486000F03FF808494968C1F33E
:100920000311074A515CC840064908600648006840
:10093000FFF794FE002048E700200240001002402C
:100940007E310008140000200C00002001480068DF
:10095000704700001400002000B5FFF7F7FF0449BE
:100960004968C1F30221034A515CC84000BD000040
:10097000001002408E31000800B5FFF7E7FF044980
:100980004968C1F3C221034A515CC84000BD000060
:10099000001002408E31000870B5002100220024B2
:1009A00000230020134D696801F00C05F5B1042DFA
:1009B00002D0082D19D101E00F4819E00F4DC1F305
:1009C0008346AB5D01F4803555B10A4D6D68C5F3C2
:1009D00040450B4E725D084D5D43B5FBF2F402E0FD
:1009E000084D03FB05F4204602E000BF024800BFAB
:1009F00000BF70BD0010024000127A006C31000888
:100A00007C31000800093D00F8B504460CB901200E
:100A1000F8BD207800F00100002878D0F848406840
:100A200000F00C0004280CD0F548406800F00C00E1
:100A3000082811D1F248406800F48030B0F5803FBA
:100A40000AD1EF48006800F4003000285FD06068E9
:100A500000285CD10120DBE700BF6068B0F5803F73
:100A600006D1E748006840F48030E549086028E096
:100A7000606858B9E248006820F48030E0490860B6
:100A80000846006820F4802008601AE06068B0F52D
:100A9000A02F0BD1DA48006840F48020D8490860C4
:100AA0000846006840F4803008600AE0D4480068D6
:100AB00020F48030D24908600846006820F4802085
:100AC000086000BF606888B1FFF7A2FD054606E038
:100AD000FFF79EFD401B642801D9032098E7C84812
:100AE000006800F400300028F2D010E0FFF790FD1D
:100AF000054606E0FFF78CFD401B642801D9032062
:100B000086E7BF48006800F400300028F2D1207862
:100B100000F00200022857D1B948406800F00C00EC
:100B200050B1B748406800F00C00082818D1B4480C
:100B3000406800F4803098B9B148006800F00200C5
:100B400020B12069012801D0012061E7AC4800688C
:100B500020F0F800616940EAC100A949086033E06B
:100B60002069E8B10120A7490860FFF751FD05465B
:100B700006E0FFF74DFD401B022801D9032047E79F
:100B80009F48006800F002000028F2D09C480068EE
:100B900020F0F800616940EAC1009949086013E05B
:100BA000002098490860FFF733FD054606E0FFF78F
:100BB0002FFD401B022801D9032029E79048006837
:100BC00000F002000028F2D1207800F00800082888
:100BD0002DD1A069B8B101208B490860FFF718FD3D
:100BE000054606E0FFF714FD401B022801D903204B
:100BF0000EE78348406A00F002000028F2D001208E
:100C000000F0AEFF13E000207F490860FFF700FD11
:100C1000054606E0FFF7FCFC401B022801D9032033
:100C2000F6E67748406A00F002000028F2D120780A
:100C300000F00400042873D100277148C06900F057
:100C4000805070B900BF6E48C06940F080506C4958
:100C5000C8610846C06900F08050009000BF00BF26
:100C600001276A48006800F48070B0B967480068DE
:100C700040F4807065490860FFF7CAFC054606E04D
:100C8000FFF7C6FC401B642801D90320C0E65F487B
:100C9000006800F480700028F2D000BFE0680128EE
:100CA00006D15748006A40F001005549086227E024
:100CB000E06858B95248006A20F0010050490862C3
:100CC0000846006A20F00400086219E0E068052880
:100CD0000BD14B48006A40F00400494908620846BD
:100CE000006A40F0010008620AE04548006A20F00E
:100CF0000100434908620846006A20F004000862C7
:100D000000BFE068A0B1FFF783FC054609E0FFF7EC
:100D10007FFC401B41F28831884202D9032077E6EC
:100D200022E03748006A00F002000028EFD012E00D
:100D3000FFF76EFC054608E0FFF76AFC401B41F236
:100D40008831884201D9032062E62D48006A00F00C
:100D500002000028F0D1012F05D12948C06920F0F8
:100D600080502749C86100BFE069C8B32448406883
:100D700000F00C00082860D0E069022848D100206B
:100D800020490866FFF744FC054606E0FFF740FCF3
:100D9000401B022801D903203AE61948006800F0F8
:100DA00000700028F2D1206AB0F5803F07D11448C6
:100DB000406820F40030A168084311494860D4E934
:100DC000080108430E49496821F4741108430C498D
:100DD000486001200B490866FFF71AFC054607E04A
:100DE0003DE0FFF715FC401B022801D903200FE668
:100DF0000348006800F000700028F2D02FE00000E7
:100E00000010024000004242800442420070004054
:100E1000002014490866FFF7FBFB054606E0FFF7D4
:100E2000F7FB401B022801D90320F1E50E480068BA
:100E300000F000700028F2D111E0E069012800D133
:100E4000E6E50948466806F48031206A814204D10B
:100E500006F47011606A814201D00120D8E50020BB
:100E6000D6E50000000042420010024010B50446E2
:100E70000CB9012010BD606A38B96068B0F5827F96
:100E800000D105E00021E16102E000212161616102
:100E90000021A16294F8510028B9002084F8500084
:100EA000204600F043F8022084F8510020680068D2
:100EB00020F0400021680860A08800F48270218939
:100EC00001F404410843A18901F400610843217C35
:100ED00001F002010843217D01F001010843218B4B
:100EE00001F400710843217F01F0380108432021FB
:100EF000095D01F080010843218D01F40051084390
:100F0000216808600421A06901EA10402168486056
:100F10002068C06920F400602168C8610020606515
:100F2000012084F851000020A4E7000010B586B02D
:100F3000044600200290039004900590194920680F
:100F400088422DD100BF1848806940F4805016496E
:100F500088610846806900F48050019000BF00BF9E
:100F600000BF0846806940F0040088610846806937
:100F700000F00400019000BF00BFA02002900220FA
:100F800003900320059002A90848FFF7ABF9402021
:100F9000029000200390049002A90448FFF7A2F9F0
:100FA00006B010BD003001400010024000080140B2
:100FB00070B504462546681EB0F1807F01D301203C
:100FC0000FE0681E4FF0E02148610F214FF0FF3025
:100FD00001F004F800204FF0E0218861072008614B
:100FE000002070BD7047704730B502460B4600BF09
:100FF00092F83C00012801D1022030BD012082F886
:101000003C0000BF022082F83D0010684468106870
:10101000816824F070041868044310684460104D1F
:101020001068A8420BD01068B0F1804F07D00D4D6A
:101030001068A84203D00C4D1068A84205D121F0D9
:1010400080015868014310688160012082F83D00EA
:1010500000BF002082F83C0000BF00BFCDE70000C9
:10106000002C0140000400400008004010B5044678
:101070000CB9012010BD94F83D0028B9002084F877
:101080003C00204600F026F8022084F83D00211D97
:10109000206800F0BBFD012084F8460000BF84F802
:1010A0003E0001213F2001554020015541200155BE
:1010B00000BF00BF012084F84200432001554420B6
:1010C00001554520015500BF012084F83D00002056
:1010D000D0E7000038B504462068B0F1804F0DD14C
:1010E00000BF1448C06940F001001249C8610846B9
:1010F000C06900F00100009000BF19E00E492068AF
:10110000884215D100BF0B48C06940F00200094970
:10111000C8610846C06900F00200009000BF00BF2F
:10112000002211461D20FFF7F9FA1D20FFF7E6FA0D
:1011300038BD00000010024000040040014691F854
:101140003D00012801D001207047022081F83D00B8
:101150000868C06840F001000B68D860124B08684E
:1011600098420BD00868B0F1804F07D00F4B086849
:10117000984203D00E4B086898420CD108688068EA
:1011800000F00702062A0CD00868006840F0010051
:101190000B68186005E00868006840F001000B6803
:1011A00018600020D0E70000002C0140000400403F
:1011B000000800402DE9F04104460D46002700BF1D
:1011C00094F83C00012802D10220BDE8F081012002
:1011D00084F83C0000BF022084F83D002068866847
:1011E00026F0770626F47F46206886602868502817
:1011F00033D00CDC202850D004DC00284BD0102841
:1012000051D149E0302849D040284CD139E06028FC
:101210002DD0702807D0B0F5805F03D0B0F5005F07
:1012200041D10DE041E0D5E902136A68206800F081
:1012300040FD2068866846F077062068866034E0C6
:10124000D5E902136A68206800F033FD20688068E1
:1012500040F480402168886027E0EA686968206877
:1012600000F0F8FD5021206800F02EFD1DE0EA6836
:101270006968206800F001FE6021206800F024FD0C
:1012800013E0EA686968206800F0E4FD4021206806
:1012900000F01AFD09E000BF00BF00BF2968206808
:1012A00000F012FD01E0012700BF00BF012084F81B
:1012B0003D0000BF002084F83C0000BF384684E7B2
:1012C000704770B504462068C5682068066906F056
:1012D0000200022819D105F00200022815D1401F92
:1012E00021680861012020772068806900F00300F0
:1012F00018B12046FFF7E4FF05E0204600F0C2F8F1
:10130000204600F076F90020207706F0040004283B
:1013100019D105F00400042815D1C04321680861E3
:10132000022020772068806900F4407018B12046C0
:10133000FFF7C6FF05E0204600F0A4F8204600F0C5
:1013400058F90020207706F00800082819D105F088
:101350000800082815D1C0432168086104202077BF
:101360002068C06900F0030018B12046FFF7A8FF0D
:1013700005E0204600F086F8204600F03AF900200B
:10138000207706F01000102819D105F01000102861
:1013900015D1C04321680861082020772068C06902
:1013A00000F4407018B12046FFF78AFF05E02046A0
:1013B00000F068F8204600F01CF90020207706F0C5
:1013C000010048B105F0010030B16FF00100216863
:1013D0000861204600F078F906F08000802809D1E5
:1013E00005F08000802805D1C043216808612046AF
:1013F000FFF7F8FD06F04000402809D105F0400055
:10140000402805D1C04321680861204600F0D2F988
:1014100006F02000202809D105F02000202805D161
:10142000C043216808612046FFF7DDFD70BD000064
:1014300010B586B0044600200290039004900590F9
:101440002068B0F1804F16D100BF0C48806940F091
:1014500004000A4988610846806900F00400019090
:1014600000BF00BF0720029002200390059002A950
:101470000348FEF737FF06B010BD00000010024021
:101480000008014070472DE9F04104460D4616461C
:10149000002700BF94F83C00012802D10220BDE8DB
:1014A000F081012084F83C0000BF36B1042E1BD02F
:1014B000082E31D00C2E5ED145E02946206800F080
:1014C0000DFC2068806940F0080021688861206870
:1014D000806920F00400216888612068806929699A
:1014E00008432168886148E02946206800F026FC0E
:1014F0002068806940F40060216888612068806904
:1015000020F480602168886120688069296940EA48
:1015100001202168886130E02946206800F042FC03
:101520002068C06940F008002168C8612068C0696F
:1015300020F004002168C8612068C0692969084357
:101540002168C86119E02946206800F05FFC206826
:10155000C06940F400602168C8612068C06920F457
:1015600080602168C8612068C069296940EA01205B
:101570002168C86101E0012700BF00BF00BF002053
:1015800084F83C0000BF384689E710B504460CB922
:10159000012010BD94F83D0028B9002084F83C00DB
:1015A000204600F025F8022084F83D00211D206827
:1015B00000F02CFB012084F8460000BF84F83E00B8
:1015C00001213F200155402001554120015500BF18
:1015D00000BF012084F842004320015544200155FA
:1015E0004520015500BF012084F83D000020D0E7D0
:1015F0007047704770B504460D4615B994F83E0023
:101600000BE0042D02D13F20005D06E0082D02D141
:101610004020005D01E04120005D012801D0012053
:1016200070BD1DB9022084F83E000EE0042D03D1E8
:1016300002213F20015508E0082D03D1022140205E
:10164000015502E00221412001550122294620686E
:1016500000F01EFB19492068884201D1012000E0FA
:10166000002028B12068406C40F4004021684864A4
:101670001249206888420BD02068B0F1804F07D013
:101680000F492068884203D00E49206888420CD157
:101690002068806800F00706062E0CD020680068DD
:1016A00040F001002168086005E02068006840F013
:1016B0000100216808600020B2E70000002C014012
:1016C00000040040000800402DE9F04786B0814644
:1016D0003049D9F80000884259D12F480068401C91
:1016E0002D4908602D480068401C2C4908602A4894
:1016F0000068642802D10020274908602648006855
:10170000632802D10020244908602348006801F0C2
:10171000ADFA0746224A234B01F0BCFACDE900019D
:1017200001F006F80022204BCDE9020101F050F84B
:10173000054600221D4B01F0ADFACDE9040101F090
:101740004FFA82461548006801F090FA144A154B8A
:10175000CDE9000101F09EFACDE9020100F072FF2F
:1017600005460022104B01F033F8074600220F4BCC
:1017700001F090FACDE9040101F032FA04460C4878
:101780000068C0F834A00A4909688C6300BF06B03D
:10179000BDE8F087000400400000002004000020A5
:1017A000981826AEBE15B03F0000F03F00407F40C5
:1017B00070000020704710B504460CB9012010BD20
:1017C000A06900B100E000BF94F8410028B90020F2
:1017D00084F84000204600F029F8242084F84100D5
:1017E0002068C06820F400502168C860204600F0DE
:1017F00059FB2068006920F4904021680861206846
:10180000406920F02A00216848612068C06840F4DF
:1018100000502168C86000206064202084F84100E6
:1018200084F842000020606300BFC8E710B586B0AE
:101830000446002002900390049005901A49206805
:1018400088422ED100BF1948806940F48040174972
:1018500088610846806900F48040019000BF00BFA5
:1018600000BF0846806940F004008861084680692E
:1018700000F00400019000BF00BF48150290022054
:1018800003900320059002A90948FEF72BFD4FF4B1
:101890008060029000200390049002A90448FEF7A3
:1018A00021FD06B010BD00000038014000100240CC
:1018B0000008014000BFFEE700B585B000200190A0
:1018C00002900390049000BF3248806940F01000FD
:1018D000304988610846806900F01000009000BF20
:1018E00000BF00BF0846806940F0200088610846BC
:1018F000806900F02000009000BF00BF00BF0846D4
:10190000806940F0040088610846806900F00400A6
:10191000009000BF00BF00BF0846806940F008008B
:1019200088610846806900F00800009000BF00BF91
:1019300000224FF400511848FEF764FE00224FF4D5
:1019400040411648FEF75EFE4FF400500190012022
:10195000029002200390049001A90F48FEF7C2FCF8
:1019600043F60740019000200290039001A90B4824
:10197000FEF7B8FC4FF44040019001200290002097
:1019800003900220049001A90448FEF7ABFC05B0C7
:1019900000BD00000010024000100140000C01409A
:1019A00010B50F480F4908604FF48270486000215D
:1019B0000C488160C160022101610121416149023D
:1019C00081610821C16100210162416281620A21B5
:1019D000C162FFF74BFA08B1FEF76CFC10BD0000C6
:1019E000003001401800002000B58DB000200990A3
:1019F0000A900B900C90079008901C216846FEF707
:101A0000E3FB4FF080402949086000204860002136
:101A10002648816040F2E731C160002101618021E8
:101A20008161FFF723FB08B1FEF744FC4FF48050BF
:101A3000099009A91D48FFF7BDFB08B1FEF73AFC64
:101A40001A48FFF7A2FD08B1FEF734FC002007900A
:101A5000089007A91548FFF7C7FA08B1FEF72AFC56
:101A60006020009000200190029004200490002249
:101A700069460E48FFF707FD08B1FEF71BFC002082
:101A80000490042269460948FFF7FDFC08B1FEF7FF
:101A900011FC082269460548FFF7F5FC08B1FEF77E
:101AA00009FC0248FFF7C4FC0DB000BD7000002027
:101AB00000B587B000200390049005900690019037
:101AC00002901448144908602320486000211248FD
:101AD00081606321C160002101618161FFF7C6FA65
:101AE00008B1FEF7E7FB4FF48050039003A90A48C2
:101AF000FFF760FB08B1FEF7DDFB002001900290CC
:101B000001A90548FFF770FA08B1FEF7D3FB07B04B
:101B100000BD000000040040B800002010B50B48D4
:101B20000B4908604FF4E1304860002108488160AB
:101B3000C16001610C21416100218161C161FFF738
:101B40003AFE08B1FEF7B6FB10BD000000380140B8
:101B50000001002000BFFEE700BFFEE77047000065
:101B600008B508490968C9084FF47A72B1FBF2F167
:101B70004143009100BF00BF00994A1E0092002916
:101B8000F9D108BD14000020704710B5FEF746FDDE
:101B900010BD00B58FB0282105A8FEF715FB142154
:101BA0006846FEF711FB0120059000040690002016
:101BB00007900120099002200C90C1030D914FF471
:101BC000E0110E9105A8FEF71FFF08B1FEF772FBAA
:101BD0000F20009002200190002002904FF48060BE
:101BE00003900020049002216846FEF7E9FD08B149
:101BF000FEF760FB0FB000BD7047000010B5024853
:101C0000FFF75FFB10BD0000B800002010B50268B0
:101C10001C4B984208D0B0F1804F05D01A4B984227
:101C200002D01A4B984203D122F070024B681A433B
:101C3000144B984208D0B0F1804F05D0124B984217
:101C400002D0124B984203D122F44072CB681A435F
:101C500022F080034C6943EA040202608B68C3628D
:101C60000B688362074B984201D10B690363012320
:101C70004361036903F001031BB1036923F001030E
:101C8000036110BD002C014000040040000800402A
:101C900030B501F01F05012404FA05F3046A9C43E2
:101CA0000462046A01F01F0502FA05F52C43046280
:101CB00030BD30B50C46816821F47F4142EA0325EE
:101CC00025432943816030BD0A46816821F07001B7
:101CD00042F00703194381607047000030B5026A83
:101CE000056A25F0010505624368846924F07004E3
:101CF00024F003040D682C4322F002028D682A436D
:101D00000D4DA84206D100BF22F00802CD682A433B
:101D100022F00402084DA84207D123F4807323F473
:101D200000734D692B438D692B43436084614D687B
:101D30004563026230BD0000002C014030B5026AEC
:101D4000056A25F0100505624368846924F4E044BF
:101D500024F440740D6844EA052422F020028D68C2
:101D600042EA05120E4DA84207D100BF22F08002C0
:101D7000CD6842EA051222F04002094DA84209D17D
:101D800023F4806323F400634D6943EA85038D697E
:101D900043EA8503436084614D688563026230BD18
:101DA000002C014030B5026A056A25F48075056291
:101DB0004368C46924F0700424F003040D682C43C4
:101DC00022F400728D6842EA05220F4DA84207D125
:101DD00000BF22F40062CD6842EA052222F480624C
:101DE000094DA84209D123F4805323F400534D69CF
:101DF00043EA05138D6943EA05134360C4614D68E6
:101E0000C563026230BD0000002C014030B5036A9A
:101E1000056A25F4805505624468C26922F4E042EF
:101E200022F440720D6842EA052223F400538D68C3
:101E300043EA0533064DA84204D124F480444D6999
:101E400044EA85144460C2614D680564036230BD94
:101E5000002C014030B50B461446026A056A25F095
:101E600001050562816921F0F00141EA041122F0C7
:101E70000A021A438161026230BD30B50B46144636
:101E8000026A056A25F010050562816921F4704136
:101E900041EA043122F0A00242EA031281610262A7
:101EA00030BD000070B504462168096921F4405135
:101EB000E2681143226811612269A16811436269D5
:101EC00041EA02052168C96841F20C629143294345
:101ED0002268D1602168496921F44071A2691143E7
:101EE000226851612D4A2168914202D1FEF744FDDA
:101EF00001E0FEF731FD00EBC00101EB001162686B
:101F00009200B1FBF2F100EBC00202EB0012636839
:101F10009B00B2FBF3F26423B2FBF3F202EBC203C9
:101F200003EB0212A1EB8201322202EB01116422C7
:101F3000B1FBF2F101F0F00100EBC00202EB001284
:101F400063689B00B2FBF3F26423B2FBF3F201EB94
:101F5000021200EBC00101EB001163689B00B1FBB2
:101F6000F3F100EBC00303EB00136668B600B3FBAC
:101F7000F6F36426B3FBF6F303EBC30606EB031399
:101F8000A1EB8301322303EB01116423B1FBF3F1D5
:101F900001F00F0111442268916070BD00380140CA
:101FA00000BFFEE7490050EAC12018BF04204A0DD7
:101FB00018BF40F0010040F2FF72B2EB515F08BF62
:101FC00040F00200012808BF052070470248006861
:101FD000C0F30220704700000CED00E010B50028AF
:101FE00004DB0A07130E054A135406E00A07140E11
:101FF000034A00F00F031B1FD45410BD00E400E09F
:1020000018ED00E02DE9F74F144694B00021C4E923
:1020100002111599079121F00045C9498D4206DC4E
:102020001599C4E9000117B00020BDE8F08FC5493B
:10203000DFF814A3A9423CDD0799C44E0029C44F20
:10204000C44A1599534619DD00F02EFF554506D0B8
:10205000C14AC24B00F028FFC4E900010AE04FF07A
:10206000D352BE4B00F020FF32463B4600F01CFF2F
:10207000C4E9000117B00120BDE8F08F00F0A8FB13
:10208000554506D0B44AB54B00F0A2FBC4E90001A7
:102090000AE04FF0D352B14B00F09AFB32463B4678
:1020A00000F096FBC4E9000117B04FF0FF30BDE827
:1020B000F08FAB49A942159978DB21F000418346A6
:1020C0008846A84AA84B00F0E5FD0022A74B00F087
:1020D0007FFB00F085FD099000F0B1FD06460F463C
:1020E0009C4A534600F0D6FD43465A4600F0D0FEC7
:1020F00080468A46984A994B3046394600F0CAFDD8
:102100002A0D01250B924246534600F0C1FE032DD5
:10211000C4E9000139D00B98C1F30A51401A05EB0C
:1021200045111139814230DA9148C346784400EBB9
:102130000510CDF80CA00C90D0E9002330463946AC
:1021400000F0A8FD02460B460491069058460399FC
:1021500000F0AAFE80468A4602460B46584603997E
:1021600000F0A2FE049B069A00F09EFE83460C98A7
:1021700003913946D0E90223304600F08BFD5A46E0
:10218000039B00F091FE6D1CBDE707980028A2BFDD
:10219000099817B0BDE8F08F616881F00041616077
:1021A000099817B04042BDE8F08FFFE784461598C4
:1021B000C1F31301C0F30A50A0F2F5304FEA6018E2
:1021C00000F01F06C6F12000139000200690079033
:1021D00041F4801E05206D4676B1664A08EB000189
:1021E0007A4452F8213002EB8101B3404A681399D6
:1021F00022FA01F1194305E05F4908EB0002794436
:1022000051F82210A1FB0E27A1FB0C131A449A428D
:1022100034BF0123002303EB070A05EB8003D3E956
:1022200001B70F448F4234BF0121002193448B44F6
:1022300011B1934502D903E0934501D2012100E099
:102240000021C3E901B7514445F82010011EA0F157
:102250000100C1DC0298059F00F10050800F129030
:102260000298DDE90356800000F0E9FC8346284629
:102270000D9100F0FBFC6FF01D0200F031FFCDE985
:102280000E01304600F0F2FC6FF03D0200F028FF36
:1022900080468A46384600F0E9FC6FF05D0200F0A7
:1022A0001FFF074642465346119100F091FADDE9BF
:1022B0000E2300F08DFA5A460D9B00F089FA002596
:1022C0000E465A4628460D9B00F0EEFDDDE90E2332
:1022D00000F0EAFD4246534600F0E6FD3A46119B07
:1022E00000F0D6FDDFF898A0244A534600F0D2FC57
:1022F00007468846234A244B3146284600F0CAFC4C
:102300003A46434600F064FA074688464FF0A84232
:1023100053463146284600F0BDFC3A46434600F09D
:1023200057FA159A12F0004F04D0129A81F000412A
:1023300052421292C4E90001129817B0BDE8F08F22
:10234000FB21E93F7CD90240FB21F93F7370032E4A
:102350008A19A33B000040543163621A61B4D03D36
:10236000FB21394183C8C96D305FE43F0000E03F85
:102370009810000014100000F60F0000182D4454AF
:10238000FB21F93D3326A611460B113C2DE9FF4DEB
:1023900021F0004807460C46B8F1795F08DA00F0F2
:1023A0001FFC002801BF0020324904B0BDE8F08DB9
:1023B0003A4623461046194600F06CFC0546024694
:1023C0002D480E460B460621784400F05DF82A465B
:1023D000334600F05FFCDDE9022382468B46384637
:1023E000214600F057FC04460F4652465B462846FD
:1023F000314600F04FFC22463B4600F055FD0746B3
:102400008A464FF0FF322846314600F069FE1B4AEB
:1024100090450ADA3A46534600F046FD04B00022E1
:10242000BDE8F04D134B00F033BD154A4245A8BF3F
:10243000A8F500154FF00004B8BF124D22462B46F8
:1024400000F032FD0646884622462B460020094908
:1024500000F02AFD04460D463A46534630464146B2
:1024600000F022FD04B022462B46BDE8F04D00F0FE
:102470000FBD00000000F03FCC0D00003333D33F10
:102480000000E93F0000D23F2DE9F0414F1E00EB74
:10249000C7010446D1E9000115461E4637F0060281
:1024A0000DD02A46334600F0F5FB7F1E04EBC70330
:1024B000D3E9002300F08CF937F00602F1D1022FA6
:1024C00025D0042F13D0062F18BFBDE8F0812A466F
:1024D000334600F0DFFBD4E90A2300F079F92A46FD
:1024E000334600F0D7FBD4E9082300F071F92A46FF
:1024F000334600F0CFFBD4E9062300F069F92A4601
:10250000334600F0C7FBD4E9042300F061F92A4602
:10251000334600F0BFFBD4E9022300F059F92A4604
:10252000334600F0B7FBD4E90023BDE8F04100F0EA
:102530004FB900002DE9FF4D054621F0004084B061
:102540000C46B0F1795F0BDA2846FFF72BFD042823
:1025500008BF00F06FF8284608B02146BDE8F08DAE
:102560002A460B46104600F095FB06460F462A46C3
:10257000234600F08FFB804626488A4632463B467B
:1025800005217844FFF780FF83461098029160B3DD
:10259000214A224B4046514600F07CFBCDE9000128
:1025A0005A4640465146029B00F074FB82468846DC
:1025B000DDE906014FF0FF3200F092FD524643463E
:1025C00000F072FC32463B4600F064FBDDE9062376
:1025D00000F06AFCDDE9002300F066FC08B02A4642
:1025E0002346BDE8F04D00F053BC0B465A4630463A
:1025F000394600F04FFB084A084B00F0E9F8424624
:10260000534600F047FB08B02A462346BDE8F04D8C
:1026100000F0DEB80A0D0000495555555555C5BFA7
:10262000012200F05DBD002213461046114600F065
:102630007FB90000024A0020110700F051BD0000E0
:1026400001FDFFFF00B5244B21F0004287B09A4204
:10265000DCBF0022134629DD204B9A4208D140B945
:102660004FF00100FDF7DFFDFFF7DDFF07B000BD14
:1026700003DBFFF7D5FF07B000BD02AAFFF7C2FCDE
:1026800010F0030104BF0DF1080C9CE80F000DD001
:10269000012001290ED0022914D00DF1080C009060
:1026A0009CE80F00FFF746FF07B000BDFFF76EFE86
:1026B00007B000BD0DF1080C00909CE80F00FFF77B
:1026C00039FF05E00DF1080C9CE80F00FFF75EFEF6
:1026D00007B081F0004100BDFB21E93F0000F07F21
:1026E000FDF7A8FFFFF755FAFFF7E6F8FFF77CF9CB
:1026F000FFF714FAFFF754F9FFF7DAF900210A4857
:10270000FEF778FF04210848FEF774FF0748FEF73C
:1027100015FD08E0002403E06420FDF7CFFD6434DC
:10272000B4F57A7FF8DBF5E770000020B8000020F0
:1027300000B5254B21F0004287B09A4203DC00220D
:10274000134600922BE0214B9A4208D140B94FF03A
:102750000100FDF768FDFFF766FF07B000BD03DB72
:10276000FFF75EFF07B000BD02AAFFF74BFC10F0B9
:1027700003014FF001000DD0012914D002291AD015
:102780000DF1080C9CE80F00FFF700FE07B081F088
:10279000004100BD0DF1080C00909CE80F00FFF710
:1027A000C9FE07B000BD0DF1080C9CE80F00FFF753
:1027B000EDFD07B000BD0DF1080C00909CE80F0086
:1027C000FFF7B8FEE2E70000FB21E93F0000F07FE1
:1027D00010B591EA030F48BF83F0004300F16C830A
:1027E000841A71EB030C05D2121943EB0C03001B86
:1027F00061EB0C01DFF824E14FEA1154A4EB135C08
:102800001EEA430F18BF9EEA445F73D023EA0E030B
:10281000DCF1200E21EA045143F4801332D322FA72
:102820000CFE10EB0E0023FA0CFE41EB0E01CCF176
:10283000200E03FA0EFE10EB0E0051F10001B1F56F
:10284000801FCCF1200E32D201EB045112FA0EF2AD
:10285000BDE8104058BF7047401C38BF5FEA4202D5
:1028600018BF7047002814BF20F0010041F100019B
:102870004FEA410313F5001F38BF7047A1F1C04173
:1028800000F000BB012A43EB0302ACF1200CDCF1A9
:102890001F0E32BF4FF0000E23FA0CF310EB0300B3
:1028A00041EB0451B4EB115FD0D0A1EB045101F521
:1028B000801149085FEA300001EB04510ED350F15A
:1028C000000038BF12FA0EFE08D1BDE81040C9E77B
:1028D000401C38BF5FEA4202CAD1C3E7BDE81040DE
:1028E0004FEA410313F5001F38BF7047A1F1C04103
:1028F00000F0C8BA9EEA445F08D011EA5E0FBDE856
:10290000104004BF01F0004100207047BDE81040B6
:1029100070B500F069FA00BF64FBBE3E0000E0FF46
:1029200002494FF0000000F0A9BB00BF0000F87F93
:102930002DE9C04130B4DFF8A0C23CEA111418BF41
:102940003CEA131400F0EC8081EA03051CEA111440
:1029500044EAD57418BF1CEA131500F0C780A4EB35
:1029600005044FF0004545EAC12145EAC32341EA89
:10297000505143EA525304F17F74994204F50034F4
:102980004FEAC0204FEAC22208BF904200F09C806C
:102990004FEA13650FF24016765D4FEA134506FBCA
:1029A00005F7C7F1807706FB07F74FEAD737A7FB94
:1029B00003687642C8F58038A7FB06CE38BFA8F179
:1029C000010807FB08E64FF0000EA6FB028CE6FBB1
:1029D00003CEDCF1000CCEF1004E38BFAEF1010E9B
:1029E000A6FB0C584FF000074FF00005E6FB0E87E2
:1029F000A1FB08C6A0FB07CE16EB0E0645F10005AD
:102A0000E1FB076515F1E04E7EBFA4F580345FEA77
:102A100046066D4116F1800745F100054FEA17277C
:102A20004FEA066647EA0567A6F1DE46B6F1805F23
:102A30004FEA15251FD9384624F0010C05EBC47167
:102A4000BCF1FE6F01EB0C1102D8F0BCBDE80081B7
:102A500024425CBF01F5801E9EEAC47F02D4F0BC14
:102A6000BDE80081244238D4F0BCA1F1C041BDE8EA
:102A7000004100F007BA4FEAD22242EA43524FEA3D
:102A8000D323A7FB02864FEAD02040EA415007FB40
:102A900003661EEA0E0F4FEAD12105FB026658BFFE
:102AA000A6EB0056B6EB00564FEA520E4EEAC37E36
:102AB00018EB0E0E56EB530EBDD518EB02085E4117
:102AC0007F1C55F10005B6E74FF480154FF0000765
:102AD0004FF000064FF00008ADE7F0BC4FF00000EB
:102AE00001F1C04101F00041BDE8008111EA0C1F75
:102AF0000CEA131500D00CE013EA0C1F00F025803F
:102B00004FF00000F0BC81EA030101F00041BDE894
:102B10000081F0BCBDE8004181EA030100F0B2B9D8
:102B2000F0BCBDE8004170B500F05EF9097EFC3EE6
:102B300000F007B881EA03014FF0000001F0004106
:102B4000704781EA030100F09DB9F0BCBDE8004187
:102B50004FF0000021497047FFFDFBF9F7F5F4F253
:102B6000F0EEEDEBE9E8E6E4E3E1E0DEDDDBDAD828
:102B7000D7D5D4D3D1D0CFCDCCCBCAC8C7C6C5C486
:102B8000C2C1C0BFBEBDBCBBBAB9B8B7B6B5B4B39D
:102B9000B2B1B0AFAEADACABAAA9A8A8A7A6A5A488
:102BA000A3A3A2A1A09F9F9E9D9C9C9B9A9999984C
:102BB0009797969595949393929191908F8F8E8EEF
:102BC0008D8C8C8B8B8A898988888787868585847C
:102BD00084838382828181800000FF070000F87F68
:102BE0004FEA41034FEA5353A3F58063D3F11E0329
:102BF000C8BFD3F1210C0CDD4FF0004242EAC122E4
:102C000042EA505232FA03FC8CEAE17CACEBE17010
:102C10007047102BC4BF0020704703F5787CBCF1CF
:102C2000FF3F04D06FF0004282EA2100704770B588
:102C300000F0DAF84992248000207047F2E710F0A3
:102C4000004248BF4042B0FA80F310FA03F10AD0C4
:102C5000C3F11D0303F580634FEA415002EB0352B9
:102C600002EBD12170474FF000007047B0FA80F3BB
:102C700010FA03F10AD0C3F11D0303F580634FEA94
:102C800041504FEA035202EBD12170474FF0000050
:102C900070470000DFF848C170B51CEA111E1EBF66
:102CA0001CEA13159EEA0C0F95EA0C0F00F06F80DA
:102CB00081EA030423EA4C134EEAD47E21EA4C1144
:102CC00041F4801143F48013AE44A1FB024CA0FBFD
:102CD0000365AEF17F7E361955EB0C05A1FB034C65
:102CE0004CF10003A0FB021C16EB0C06654153F1EE
:102CF0000003094218BF46F0010613F4007F0BD110
:102D00004FEA03314FEA0530340341EA155140EAF6
:102D100016506FF003020AE04FEAC3214FEAC520C4
:102D2000F40241EA555140EA56506FF0020202EBBC
:102D30002E4201EB025585EACE710AD05FEA440CBF
:102D400018BF24F0004450F1000041F1000120EAD6
:102D5000D47040F2FE7C624500D270BDA84214BF20
:102D60004FF080444FF04044002E08BF0024BEF1D5
:102D7000806FA8BFA1F1C041BDE8704080F28280A1
:102D80004FF0000001F1C04101F0004170479EEAA0
:102D90000C0F0CEA131518BF95EA0C0F06D04FF074
:102DA000000081EA030E0EF0004170BD00F01CF837
:102DB0008900013E00F007B800F009B84FEA430C63
:102DC0005FEA5C5C08D081EA030100F05BB84FEA7F
:102DD000410C5FEA5C5CF6D14FF00000014970479E
:102DE0000000FF070000F87F0EF1020E2EF0030E28
:102DF0005EF8046B364205D4012A43EB030515F552
:102E0000001F12D8012841EB010C1CF5001F0CD843
:102E10000ED14FEAD17C15F5001F0CEB4C0C0CF1D8
:102E2000020C08BF4CEBD37C04E04FF0080C01E02F
:102E30004FEAD37C0CEB4C0526FA05F606F00706A4
:102E4000B6F1040C06D20EEB860CBDE870404CF0D7
:102E5000010C6047DFE80CF0090B02024FF0004163
:102E60004FF00000A1F5002170BD19461046012861
:102E700051EB010418BFD4F5001484BF002001F009
:102E8000004170BD0808A0F500114FEA31017047FC
:102E900091EA030F10B581F000413FF5A1AC83F03A
:102EA000004300F009B8000010B591EA030F48BFD5
:102EB00083F000433FF594AC841A71EB030C07D206
:102EC00012198CF0004C43EB0C03001B61EB0C015E
:102ED000DFF8A4E14FEA1154A4EB135C1EEA430FA0
:102EE00018BF9EEA445F00F0B08023EA6E035242AE
:102EF00021EA0451C3EB6E0338BF5B1EDCF1200EE8
:102F000025D322FA0CFE10EB0E0043FA0CFE41EB27
:102F10000E01CCF1200E03FA0EFE10EB0E0051F163
:102F20000001CCF1200E29D412FA0EF201EB04516B
:102F3000BDE8104058BF7047401C1CBFB2F1004FA5
:102F4000704700280CBF491C20F00100704712EBAD
:102F5000020E43EB030218BF4FF0010E4EEA42028D
:102F6000ACF1200CDCF11E0E54D943FA0CFE10EB30
:102F70000E0051F1FF31CCF11E0ED5D50EF1010E30
:102F800012FA0EFE404141EB010101EB445C5FEAA5
:102F90005C5C10D910EBDE7001EB045138BFBEF160
:102FA000004FBDE8104018BF704700280CBF491CF7
:102FB00020F00100704730D24FEAD42C11F50011F7
:102FC00024F400641BD0B1FA81F20B3AA41AA41EB7
:102FD000D2F12003914030FA03F31943904001EB02
:102FE000CC71002C01EB0451BDE81040A8BF704724
:102FF00001F1C0414FF0000001F000417047B0FA0C
:1030000080F310FA03F100D110BDE41A173C480513
:10301000C90AE4E701EB045110BD491001EB04516A
:10302000BDE810404FEA300002E04FF00001704769
:103030004A0008BF0042F8D0B2F5001F28BF704711
:1030400001F000414FF0000070479EEA445F07D056
:1030500011EA5E0FBDE8104004BF00210020704758
:10306000BDE8104070B5FFF7BFFE00BF40DFF63E81
:1030700083F00041104670470000E0FF0CF00F03A2
:10308000092B08BF082000F059800A2B0BD0082B11
:1030900018BF704708BF1CF0400F0AD04FF0000067
:1030A0004FF0000170471CF0400F18BF4FF0004078
:1030B00070471CF0100F08D020F0704300F07F42E2
:1030C00042EAD3014FEA4370704700F0604021F0BC
:1030D0007F4242EA000201F07F4040EA727070478E
:1030E0004FF0FF0C4CF4E06C1CEA11531CBF9CEA3F
:1030F000030C9445C2BFDA4201EB02517047002B2A
:103100000DD0BCF1000F0FD0002A01F00041A4BF88
:1031100041F0E04141F07F614FF00000704701F065
:1031200000414FF00000704750EA01334FF09B0C14
:1031300018BF4CF0806C7FF4F3AB70471CF4801F19
:1031400011D01CF4E02F03D06FEACC314900704756
:103150004FF04050EFF3008222F0704242EA00024A
:1031600082F3008870474FF00000704702030405A7
:10317000060708090A0B0C0D0E0F101001020000C3
:103180000000000000000102030406070809000017
:1031900000000102030400004C5555555555A53F4C
:1031A0007751C1166CC156BF9015CB19A001FA3EDC
:1031B000AD529C804F7E92BEC4B1B4BD9EEE213E06
:1031C000D43888BEE9FAA8BD00004054FB21F93F7D
:1031D0003163621A61B4D03D0000601A61B4D03D21
:1031E0007370032E8A19A33B0000002E8A19A33B9B
:1031F000C14920259A837B390000000000000000AF
:103200006E83F9A22915444ED15727FCC0DD34F551
:10321000999562DB4190433CAB6351FE61C5BBDED7
:103220003A6E24B7E0D24D42EA2E49061C92D109EB
:103230001CEB1DFE3EA729B1F53582E88444BB2E68
:1032400026709CE9417E5FB439D69139F4395383B5
:103250008B5F849C3B28F9BDFF97F81F0F9805DE14
:103260008B112FEF1F6D0A5ACF7E366DB709CB2712
:10327000663F464F2DEA5F9EC7BA27757BF1E5EBA7
:10328000F739073DEA92528AB15FFB6B085D8D1FEB
:10329000A6F810111111813FD561C119A0012ABFF3
:1032A0007DFEB157E31DC73EEB9C2B8AE6E55ABE77
:1032B0007CD5CF5A3AD9E53DD8320008000000202D
:1032C0001800000028010008F03200081800002053
:1032D000900700004401000800000000000000000A
:1032E00000000000100000000100000000127A0041
:04000005080000ED02
:00000001FF
