:020000040800F2
:10000000F84D0020D1010008E91A00084518000841
:10001000E51A0008D7020008311F000800000000A0
:10002000000000000000000000000000191B000894
:10003000DB02000800000000ED1A00081B1B00088E
:10004000EB010008EB010008EB010008EB010008E0
:10005000EB010008EB010008EB010008EB010008D0
:10006000EB010008EB010008EB010008EB010008C0
:10007000EB010008EB010008EB010008EB010008B0
:10008000EB010008EB010008EB010008EB010008A0
:10009000EB010008EB010008EB010008EB01000890
:1000A000EB010008EB010008EB010008EB01000880
:1000B000EB0100088D1B0008EB010008EB010008B4
:1000C000EB010008EB010008EB010008EB01000860
:1000D000EB010008EB010008EB010008EB01000850
:1000E000EB010008EB010008EB01000800F002F84A
:1000F00000F05EF80AA090E8000C82448344AAF164
:100100000107DA4501D100F053F8AFF2090EBAE861
:100110000F0013F0010F18BFFB1A43F0010318473B
:10012000C81E0000E81E000010F8013B0A4413F04E
:10013000030408BF10F8014B1D1108BF10F8015B44
:10014000641E05D010F8016B641E01F8016BF9D133
:10015000002D15D010F8014B03F00C030C2BA1EB74
:1001600004040ABF10F8013BA4EB8314A4EB03249E
:1001700005F1010314F8016B5B1E01F8016BF9D561
:10018000914238BF10F8013BD1D3704700230024BF
:1001900000250026103A28BF78C1FBD8520728BF97
:1001A00030C148BF0B6070471FB51FBD10B510BDF3
:1001B00000F058F81146FFF7F7FF01F0D7FE00F006
:1001C00076F803B4FFF7F2FF03BC00F07DF80000FF
:1001D0000948804709480047FEE7FEE7FEE7FEE7DB
:1001E000FEE7FEE7FEE7FEE7FEE7FEE70448054917
:1001F000054A064B70470000891B0008ED00000807
:10020000F8470020F84D0020F8490020F849002068
:100210004FF0000200B5134694469646203922BF9F
:10022000A0E80C50A0E80C50B1F12001BFF4F7AFEA
:10023000090728BFA0E80C5048BF0CC05DF804EBCC
:10024000890028BF40F8042B08BF704748BF20F83A
:10025000022B11F0804F18BF00F8012B7047704738
:1002600070477047754600F02BF8AE4605006946AA
:10027000534620F00700854618B020B5FFF7B6FFBB
:10028000BDE820404FF000064FF000074FF0000897
:100290004FF0000B21F00701AC46ACE8C009ACE818
:1002A000C009ACE8C009ACE8C0098D46704710B57C
:1002B0000446AFF300802046BDE81040FFF781BF41
:1002C000004870479447002001491820ABBEFEE764
:1002D00026000200704700BFFEE7704772B600BFFD
:1002E000FEE7000070B5044600F0A6F90646254674
:1002F000681C10B104480078054400BF00F09CF968
:10030000801BA842FAD370BD5C4600202DE9F84757
:100310000346002294466EE14FF0010808FA02F409
:10032000D1F8008008EA0400A0427DD1DFF8DCA209
:10033000D1F80480A8EB0A09D0453AD014DCB8F112
:10034000030F50D009DCB8F1000F31D0B8F1010F24
:100350001CD0B8F1020F49D120E0B8F1110F18D02C
:10036000B8F1120F42D11EE0B9F5881F25D006DC86
:10037000B9F5803F20D0B9F5801F37D11AE0B9F523
:10038000001F18D0B9F5041F30D117E0D1F80CC008
:100390002DE0D1F80C8008F1040C28E0D1F80C8095
:1003A00008F1080C23E0D1F80C8008F10C0C1EE0D9
:1003B00000BF00BF00BF00BF00BF00BFD1F8088072
:1003C000B8F1000F02D14FF0040C0BE0D1F8088017
:1003D000B8F1010F03D14FF0080C1C6102E04FF09F
:1003E000080C5C6103E04FF0000C00E000BF00BFB0
:1003F000FF2801D8984601E003F104084646FF288B
:1004000002D84FEA820803E0A2F108084FEA880800
:100410004746D6F800804FF00F0909FA07F928EA95
:1004200009080CFA07F900E088E048EA0908C6F86C
:100430000080D1F8048008F08058B8F1805F7DD149
:1004400000BFDFF8CC81D8F8188048F00108DFF849
:10045000C091C9F81880C846D8F8188008F001087B
:10046000CDF8008000BF00BF4FEAB9384FEA9209CB
:1004700058F829504FEA82784FEA18794FF00F0860
:1004800008FA09F825EA0805DFF88881434502D112
:100490004FF0000816E0DFF88081434502D14FF0AD
:1004A00001080FE0DFF87481434502D14FF00208E4
:1004B00008E0DFF86C81434502D14FF0030801E00A
:1004C0004FF004084FEA82794FEA197908FA09F8DF
:1004D00048EA0505DFF84C814FEA920948F82950AF
:1004E000D1F8048008F48018B8F5801F0AD1DFF82D
:1004F0003881D8F8008048EA0008DFF82C91C9F864
:10050000008009E0DFF82081D8F8008028EA0008A0
:10051000DFF81491C9F80080D1F8048008F40018BD
:10052000B8F5001F10D1DFF8008108F10408D8F8F1
:10053000008048EA0008DFF8F09000E05AE009F196
:100540000409C9F800800DE0DFF8DC8008F1040838
:10055000D8F8008028EA0008DFF8CC9009F10409F7
:10056000C9F80080D1F8048008F40038B8F5003FDD
:100570000ED1DFF8B480A8F10408D8F8008048EA6A
:100580000008DFF8A490A9F10409C9F800800DE083
:10059000DFF89480A8F10408D8F8008028EA000861
:1005A000DFF88490A9F10409C9F80080D1F804802B
:1005B00008F48038B8F5803F0ED1DFF86C80A8F1E0
:1005C0000808D8F8008048EA0008DFF85C90A9F134
:1005D0000809C9F800800DE0DFF84C80A8F1080890
:1005E000D8F8008028EA0008DFF83C90A9F1080953
:1005F000C9F80080521CD1F8008028FA02F8B8F13E
:10060000000F7FF489AEBDE8F887000000001110EC
:100610000010024000080140000C014000100140A1
:100620000014014008000140080401400AB10161C2
:1006300001E00B0403617047014800687047000047
:1006400054460020034800680349097808440149DA
:1006500008607047544600205C46002010B50848EA
:10066000006840F0100006490860032000F0A8F878
:100670000F2000F007F800F02BF8002010BD00005C
:100680000020024070B504460E4800784FF47A719D
:10069000B1FBF0F00C490968B1FBF0F5284600F019
:1006A0009BFC08B1012070BD102C07D2002221460E
:1006B000501E00F047F80548046001E00120F2E711
:1006C0000020F0E75C4600206046002058460020ED
:1006D00008B500BF1148806940F001000F498861EA
:1006E0000846806900F00100009000BF00BF00BF15
:1006F0000846C06940F08050C8610846C06900F0F3
:100700008050009000BF00BF00BF0549486820F03E
:10071000E06040F00070486000BF08BD001002407B
:100720000000014001460846002809DB00F01F03D5
:1007300001229A4043099B0003F1E023C3F8002102
:1007400000BF70472DE9F05F80460D461646002732
:1007500001F0F0FB074639462A46334601F0070010
:10076000C0F1070ABAF1040F02D94FF0040A01E000
:10077000C0F1070AD14600F1040ABAF1070F02D20C
:100780004FF0000A01E0A0F1030AD4464FF0010A3D
:100790000AFA09FAAAF1010A0AEA020A0AFA0CFAA2
:1007A0004FF0010B0BFA0CFBABF1010B0BEA030B47
:1007B0004AEA0B042146404601F0C4FBBDE8F09F25
:1007C00000BF00F00702064B19684FF6FF031940FF
:1007D000044B0B4343EA0221014B196000BF7047F1
:1007E0000CED00E00000FA0570B504460D460CB9AA
:1007F000012070BD5A48006800F00700A8420ED2E0
:100800005748006820F0070028435549086008460B
:10081000006800F00700A84201D00120E9E7207835
:1008200000F0020002281DD1207800F00400042806
:1008300005D14C48406840F4E0604A49486020785F
:1008400000F00800082805D14648406840F4605090
:10085000444948604348406820F0F000A1680843DC
:1008600040494860207800F0010078B360680128B2
:1008700006D13C48006800F4003090B90120B8E788
:100880006068022806D13748006800F0007040B95F
:100890000120AEE73348006800F0020008B90120EB
:1008A000A7E73048406820F00300616808432D49FD
:1008B0004860FFF7C1FE064609E0FFF7BDFE801B5A
:1008C00041F28831884202D9032092E707E02548A7
:1008D000406800F00C006168B0EB810FEDD120485A
:1008E000006800F00700A8420ED91D48006820F0FB
:1008F000070028431A4908600846006800F007000E
:10090000A84201D0012074E7207800F004000428F8
:1009100007D11448406820F4E060E16808431149B9
:100920004860207800F00800082808D10D48406889
:1009300020F46050216940EAC1000A49486000F093
:100940003FF808494968C1F30311074A515CC840A0
:100950000649086006480068FFF794FE002048E753
:100960000020024000100240CE1F00086046002018
:10097000584600200148006870470000604600208B
:1009800000B5FFF7F7FF04494968C1F30221034AA4
:10099000515CC84000BD000000100240DE1F00088E
:1009A00000B5FFF7E7FF04494968C1F3C221034AD4
:1009B000515CC84000BD000000100240DE1F00086E
:1009C00070B500210022002400230020134D696827
:1009D00001F00C05F5B1042D02D0082D19D101E06C
:1009E0000F4819E00F4DC1F38346AB5D01F480352C
:1009F00055B10A4D6D68C5F340450B4E725D084D0B
:100A00005D43B5FBF2F402E0084D03FB05F420461C
:100A100002E000BF024800BF00BF70BD00100240EE
:100A200000127A00BC1F0008CC1F000800093D001E
:100A3000F8B504460CB90120F8BD207800F001009B
:100A4000002878D0F848406800F00C0004280CD04A
:100A5000F548406800F00C00082811D1F2484068C1
:100A600000F48030B0F5803F0AD1EF48006800F410
:100A7000003000285FD0606800285CD10120DBE7EF
:100A800000BF6068B0F5803F06D1E748006840F4D9
:100A90008030E549086028E0606858B9E24800689D
:100AA00020F48030E04908600846006820F4802087
:100AB00008601AE06068B0F5A02F0BD1DA48006832
:100AC00040F48020D84908600846006840F480302F
:100AD00008600AE0D448006820F48030D2490860F9
:100AE0000846006820F48020086000BF606888B174
:100AF000FFF7A2FD054606E0FFF79EFD401B6428B8
:100B000001D9032098E7C848006800F400300028A5
:100B1000F2D010E0FFF790FD054606E0FFF78CFDF0
:100B2000401B642801D9032086E7BF48006800F411
:100B300000300028F2D1207800F00200022857D1BE
:100B4000B948406800F00C0050B1B748406800F068
:100B50000C00082818D1B448406800F4803098B9D7
:100B6000B148006800F0020020B12069012801D0DE
:100B7000012061E7AC48006820F0F800616940EAB4
:100B8000C100A949086033E02069E8B10120A74904
:100B90000860FFF751FD054606E0FFF74DFD401BDD
:100BA000022801D9032047E79F48006800F00200AF
:100BB0000028F2D09C48006820F0F800616940EA03
:100BC000C1009949086013E0002098490860FFF7C8
:100BD00033FD054606E0FFF72FFD401B022801D933
:100BE000032029E79048006800F002000028F2D1B5
:100BF000207800F0080008282DD1A069B8B10120A4
:100C00008B490860FFF718FD054606E0FFF714FD65
:100C1000401B022801D903200EE78348406A00F0F8
:100C200002000028F2D0012000F062FF13E0002053
:100C30007F490860FFF700FD054606E0FFF7FCFC72
:100C4000401B022801D90320F6E67748406A00F0ED
:100C500002000028F2D1207800F00400042873D1AB
:100C600000277148C06900F0805070B900BF6E481D
:100C7000C06940F080506C49C8610846C06900F006
:100C80008050009000BF00BF01276A48006800F450
:100C90008070B0B96748006840F4807065490860AA
:100CA000FFF7CAFC054606E0FFF7C6FC401B6428B8
:100CB00001D90320C0E65F48006800F48070002876
:100CC000F2D000BFE068012806D15748006A40F022
:100CD00001005549086227E0E06858B95248006AA7
:100CE00020F00100504908620846006A20F0040024
:100CF000086219E0E06805280BD14B48006A40F013
:100D00000400494908620846006A40F00100086290
:100D10000AE04548006A20F001004349086208469D
:100D2000006A20F00400086200BFE068A0B1FFF78D
:100D300083FC054609E0FFF77FFC401B41F2883148
:100D4000884202D9032077E622E03748006A00F0A3
:100D500002000028EFD012E0FFF76EFC054608E025
:100D6000FFF76AFC401B41F28831884201D9032019
:100D700062E62D48006A00F002000028F0D1012F41
:100D800005D12948C06920F080502749C86100BFBB
:100D9000E069C8B32448406800F00C00082860D01F
:100DA000E069022848D1002020490866FFF744FC8A
:100DB000054606E0FFF740FC401B022801D903204E
:100DC0003AE61948006800F000700028F2D1206A65
:100DD000B0F5803F07D11448406820F40030A16886
:100DE000084311494860D4E9080108430E4949689D
:100DF00021F4741108430C49486001200B4908662E
:100E0000FFF71AFC054607E03DE0FFF715FC401B25
:100E1000022801D903200FE60348006800F00070A3
:100E20000028F2D02FE000000010024000004242F3
:100E30008004424200700040002014490866FFF719
:100E4000FBFB054606E0FFF7F7FB401B022801D934
:100E50000320F1E50E48006800F000700028F2D190
:100E600011E0E069012800D1E6E50948466806F48A
:100E70008031206A814204D106F47011606A814297
:100E800001D00120D8E50020D6E500000000424254
:100E90000010024010B504460CB9012010BD606A74
:100EA00038B96068B0F5827F00D105E00021E161CA
:100EB00002E00021216161610021A16294F85100EA
:100EC00028B9002084F85000204600F043F80220A2
:100ED00084F851002068006820F040002168086014
:100EE000A08800F48270218901F404410843A1899B
:100EF00001F400610843217C01F002010843217DD7
:100F000001F001010843218B01F400710843217FA6
:100F100001F0380108432021095D01F080010843F8
:100F2000218D01F400510843216808600421A06963
:100F300001EA1040216848602068C06920F4006020
:100F40002168C86100206065012084F851000020FC
:100F5000A4E7000010B586B004460020029003907C
:100F6000049005901949206888422DD100BF184887
:100F7000806940F48050164988610846806900F411
:100F80008050019000BF00BF00BF0846806940F05C
:100F9000040088610846806900F00400019000BFE9
:100FA00000BFA0200290022003900320059002A918
:100FB0000848FFF7ABF9402002900020039004900E
:100FC00002A90448FFF7A2F906B010BD00300140A5
:100FD000001002400008014070B504462546681E16
:100FE000B0F1807F01D301200FE0681E4FF0E021B7
:100FF00048610F214FF0FF3000F0A4FF00204FF0B8
:10100000E021886107200861002070BD70477047AB
:1010100030B502460B4600BF92F83C00012801D1D2
:10102000022030BD012082F83C0000BF022082F87F
:101030003D00106844681068816824F070041868E6
:10104000044310684460104D1068A8420BD010682B
:10105000B0F1804F07D00D4D1068A84203D00C4D61
:101060001068A84205D121F080015868014310683A
:101070008160012082F83D0000BF002082F83C0022
:1010800000BF00BFCDE70000002C0140000400407D
:101090000008004010B504460CB9012010BD94F8BA
:1010A0003D0028B9002084F83C00204600F026F8D6
:1010B000022084F83D00211D206800F06FFD012012
:1010C00084F8460000BF84F83E0001213F2001550E
:1010D000402001554120015500BF00BF012084F888
:1010E000420043200155442001554520015500BFD1
:1010F000012084F83D000020D0E7000038B5044608
:101100002068B0F1804F0DD100BF1448C06940F095
:1011100001001249C8610846C06900F00100009052
:1011200000BF19E00E492068884215D100BF0B4866
:10113000C06940F002000949C8610846C06900F072
:101140000200009000BF00BF002211461D20FFF7E3
:10115000F9FA1D20FFF7E6FA38BD00000010024042
:1011600000040040014691F83D00012801D0012013
:101170007047022081F83D000868C06840F0010017
:101180000B68D860124B086898420BD00868B0F121
:10119000804F07D00F4B0868984203D00E4B086869
:1011A00098420CD10868806800F00702062A0CD02B
:1011B0000868006840F001000B68186005E00868E6
:1011C000006840F001000B6818600020D0E70000C4
:1011D000002C014000040040000800402DE9F041CF
:1011E00004460D46002700BF94F83C00012802D1B8
:1011F0000220BDE8F081012084F83C0000BF0220FD
:1012000084F83D002068866826F0770626F47F463D
:10121000206886602868502833D00CDC202850D005
:1012200004DC00284BD0102851D149E0302849D0A7
:1012300040284CD139E060282DD0702807D0B0F577
:10124000805F03D0B0F5005F41D10DE041E0D5E90A
:1012500002136A68206800F0F4FC2068866846F093
:1012600077062068866034E0D5E902136A68206852
:1012700000F0E7FC2068806840F4804021688860C6
:1012800027E0EA686968206800F0ACFD502120681A
:1012900000F0E2FC1DE0EA686968206800F0B5FD36
:1012A0006021206800F0D8FC13E0EA6869682068D3
:1012B00000F098FD4021206800F0CEFC09E000BF5E
:1012C00000BF00BF2968206800F0C6FC01E00127CC
:1012D00000BF00BF012084F83D0000BF002084F85B
:1012E0003C0000BF384684E7704770B5044620686C
:1012F000C5682068066906F00200022819D105F0C9
:101300000200022815D1401F2168086101202077C2
:101310002068806900F0030018B12046FFF7E4FF61
:1013200005E0204600F0C2F8204600F076F90020E3
:10133000207706F00400042819D105F004000428E1
:1013400015D1C04321680861022020772068806998
:1013500000F4407018B12046FFF7C6FF05E02046B4
:1013600000F0A4F8204600F058F90020207706F09D
:101370000800082819D105F00800082815D1C04335
:1013800021680861042020772068C06900F003000C
:1013900018B12046FFF7A8FF05E0204600F086F8C8
:1013A000204600F03AF90020207706F010001028BF
:1013B00019D105F01000102815D1C043216808612B
:1013C000082020772068C06900F4407018B12046DA
:1013D000FFF78AFF05E0204600F068F8204600F09D
:1013E0001CF90020207706F0010048B105F001004B
:1013F00030B16FF0010021680861204600F078F9F3
:1014000006F08000802809D105F08000802805D1F1
:10141000C043216808612046FFF7F8FD06F0400050
:10142000402809D105F04000402805D1C04321687B
:101430000861204600F086F906F02000202809D136
:1014400005F02000202805D1C0432168086120460E
:10145000FFF7DDFD70BD000010B586B0044600202A
:1014600002900390049005902068B0F1804F16D14F
:1014700000BF0C48806940F004000A4988610846B2
:10148000806900F00400019000BF00BF07200290B7
:1014900002200390059002A90348FEF737FF06B02B
:1014A00010BD0000001002400008014070472DE907
:1014B000F04104460D461646002700BF94F83C0054
:1014C000012802D10220BDE8F081012084F83C000F
:1014D00000BF36B1042E1BD0082E31D00C2E5ED1A9
:1014E00045E02946206800F0C1FB2068806940F093
:1014F0000800216888612068806920F00400216864
:10150000886120688069296908432168886148E00A
:101510002946206800F0DAFB2068806940F400600A
:10152000216888612068806920F480602168886172
:1015300020688069296940EA01202168886130E0DB
:101540002946206800F0F6FB2068C06940F00800DA
:101550002168C8612068C06920F004002168C86162
:101560002068C069296908432168C86119E02946D3
:10157000206800F013FC2068C06940F40060216816
:10158000C8612068C06920F480602168C861206853
:10159000C069296940EA01202168C86101E001278A
:1015A00000BF00BF00BF002084F83C0000BF3846E9
:1015B00089E710B504460CB9012010BD94F83D0030
:1015C00028B9002084F83C00204600F025F80220CD
:1015D00084F83D00211D206800F0E0FA012084F825
:1015E000460000BF84F83E0001213F200155402005
:1015F00001554120015500BF00BF012084F8420081
:1016000043200155442001554520015500BF0120CC
:1016100084F83D000020D0E77047704770B504465D
:101620000D4615B994F83E000BE0042D02D13F2081
:10163000005D06E0082D02D14020005D01E0412060
:10164000005D012801D0012070BD1DB9022084F881
:101650003E000EE0042D03D102213F20015508E099
:10166000082D03D102214020015502E00221412032
:10167000015501222946206800F0D2FA1949206854
:10168000884201D1012000E0002028B12068406C90
:1016900040F40040216848641249206888420BD019
:1016A0002068B0F1804F07D00F492068884203D0EE
:1016B0000E49206888420CD12068806800F0070637
:1016C000062E0CD02068006840F0010021680860F8
:1016D00005E02068006840F00100216808600020F3
:1016E000B2E70000002C0140000400400008004068
:1016F000104A016891421CD10F490968491C0E4AE1
:1017000011601146096844F25062914202D90021E9
:10171000094A11600949084A1268895C084A126836
:101720005163064A04490968491C515C044A12681D
:1017300091637047000400405046002000000020E4
:10174000BC460020704710B504460CB9012010BDFE
:10175000A06900B100E000BF94F8410028B9002062
:1017600084F84000204600F029F8242084F8410045
:101770002068C06820F400502168C860204600F04E
:1017800059FB2068006920F49040216808612068B6
:10179000406920F02A00216848612068C06840F450
:1017A00000502168C86000206064202084F8410057
:1017B00084F842000020606300BFC8E710B586B01F
:1017C0000446002002900390049005901A49206876
:1017D00088422ED100BF1948806940F480401749E3
:1017E00088610846806900F48040019000BF00BF16
:1017F00000BF0846806940F004008861084680699F
:1018000000F00400019000BF00BF481502900220C4
:1018100003900320059002A90948FEF777FD4FF4D5
:101820008060029000200390049002A90448FEF713
:101830006DFD06B010BD00000038014000100240F0
:101840000008014000BFFEE700B585B00020019010
:1018500002900390049000BF3248806940F010006D
:10186000304988610846806900F01000009000BF90
:1018700000BF00BF0846806940F02000886108462C
:10188000806900F02000009000BF00BF00BF084644
:10189000806940F0040088610846806900F0040017
:1018A000009000BF00BF00BF0846806940F00800FC
:1018B00088610846806900F00800009000BF00BF02
:1018C00000224FF400511848FEF7B0FE00224FF4FA
:1018D00040411648FEF7AAFE4FF400500190012047
:1018E000029003900220049001A90F48FEF70EFD1C
:1018F00043F60740019000200290039001A90B4895
:10190000FEF704FD4FF440400190012002900020BA
:1019100003900220049001A90448FEF7F7FC05B0EB
:1019200000BD00000010024000100140000C01400A
:1019300010B50F480F4908604FF4827048600021CD
:101940000C488160C16002210161012141614902AD
:1019500081610821C16100210162416281620A2125
:10196000C162FFF797FA08B1FEF7B8FC10BD00009E
:10197000003001406446002000B58DB00020099081
:101980000A900B900C90079008901C216846FEF777
:101990003FFC4FF08040294908600020486000214A
:1019A00026488160FF21C1600021016180218161A1
:1019B000FFF770FB08B1FEF791FC4FF480500990DF
:1019C00009A91E48FFF70AFC08B1FEF787FC1B486F
:1019D000FFF7EFFD08B1FEF781FC002007900890AB
:1019E00007A91648FFF714FB08B1FEF777FC602043
:1019F000009000200190029004200490002269468B
:101A00000E48FFF754FD08B1FEF768FC0422694652
:101A10000A48FFF74CFD08B1FEF760FC0020049077
:101A2000082269460548FFF742FD08B1FEF756FC5B
:101A30000248FFF711FD0DB000BD0000BC460020BC
:101A400000B587B0002003900490059006900190A7
:101A5000029014481449086011204860002112487F
:101A6000816040F29A21C160002101618161FFF72C
:101A700011FB08B1FEF732FC4FF48050039003A92C
:101A80000948FFF7ABFB08B1FEF728FC00200190E6
:101A9000029001A90448FFF7BBFA08B1FEF71EFC4B
:101AA00007B000BD000400400447002010B50B48FB
:101AB0000B4908604FF4E13048600021084881601C
:101AC000C16001610C21416100218161C161FFF7A9
:101AD0003AFE08B1FEF702FC10BD000000380140DC
:101AE0004C47002000BFFEE700BFFEE77047000044
:101AF00008B508490968C9084FF47A72B1FBF2F1D8
:101B00004143009100BF00BF00994A1E0092002986
:101B1000F9D108BD60460020704710B5FEF792FD70
:101B200010BD00B58FB0282105A8FEF771FB142168
:101B30006846FEF76DFB012005900004069000202A
:101B400007900120099002200C90C1030D914FF4E1
:101B5000E0110E9105A8FEF76BFF08B1FEF7BEFB82
:101B60000F20009002200190002002904FF480602E
:101B700003900020049002216846FEF735FE08B16C
:101B8000FEF7ACFB0FB000BD7047000010B5024877
:101B9000FFF7ABFB10BD00000447002010B5026842
:101BA0001C4B984208D0B0F1804F05D01A4B984298
:101BB00002D01A4B984203D122F070024B681A43AC
:101BC000144B984208D0B0F1804F05D0124B984288
:101BD00002D0124B984203D122F44072CB681A43D0
:101BE00022F080034C6943EA040202608B68C362FE
:101BF0000B688362074B984201D10B690363012391
:101C00004361036903F001031BB1036923F001037E
:101C1000036110BD002C014000040040000800409A
:101C200030B501F01F05012404FA05F3046A9C4352
:101C30000462046A01F01F0502FA05F52C430462F0
:101C400030BD30B50C46816821F47F4142EA03255E
:101C500025432943816030BD0A46816821F0700127
:101C600042F00703194381607047000030B5026AF3
:101C7000056A25F0010505624368846924F0700453
:101C800024F003040D682C4322F002028D682A43DD
:101C90000D4DA84206D100BF22F00802CD682A43AC
:101CA00022F00402084DA84207D123F4807323F4E4
:101CB00000734D692B438D692B43436084614D68EC
:101CC0004563026230BD0000002C014030B5026A5D
:101CD000056A25F0100505624368846924F4E04430
:101CE00024F440740D6844EA052422F020028D6833
:101CF00042EA05120E4DA84207D100BF22F0800231
:101D0000CD6842EA051222F04002094DA84209D1ED
:101D100023F4806323F400634D6943EA85038D69EE
:101D200043EA8503436084614D688563026230BD88
:101D3000002C014030B5026A056A25F48075056201
:101D40004368C46924F0700424F003040D682C4334
:101D500022F400728D6842EA05220F4DA84207D195
:101D600000BF22F40062CD6842EA052222F48062BC
:101D7000094DA84209D123F4805323F400534D693F
:101D800043EA05138D6943EA05134360C4614D6856
:101D9000C563026230BD0000002C014030B5036A0B
:101DA000056A25F4805505624468C26922F4E04260
:101DB00022F440720D6842EA052223F400538D6834
:101DC00043EA0533064DA84204D124F480444D690A
:101DD00044EA85144460C2614D680564036230BD05
:101DE000002C014030B50B461446026A056A25F006
:101DF00001050562816921F0F00141EA041122F038
:101E00000A021A438161026230BD30B50B461446A6
:101E1000026A056A25F010050562816921F47041A6
:101E200041EA043122F0A00242EA03128161026217
:101E300030BD000070B504462168096921F44051A5
:101E4000E2681143226811612269A1681143626945
:101E500041EA02052168C96841F20C6291432943B5
:101E60002268D1602168496921F44071A269114357
:101E7000226851612D4A2168914202D1FEF790FDFE
:101E800001E0FEF77DFD00EBC00101EB001162688F
:101E90009200B1FBF2F100EBC00202EB00126368AA
:101EA0009B00B2FBF3F26423B2FBF3F202EBC2033A
:101EB00003EB0212A1EB8201322202EB0111642238
:101EC000B1FBF2F101F0F00100EBC00202EB0012F5
:101ED00063689B00B2FBF3F26423B2FBF3F201EB05
:101EE000021200EBC00101EB001163689B00B1FB23
:101EF000F3F100EBC00303EB00136668B600B3FB1D
:101F0000F6F36426B3FBF6F303EBC30606EB031309
:101F1000A1EB8301322303EB01116423B1FBF3F145
:101F200001F00F0111442268916070BD003801403A
:101F300000BFFEE702480068C0F3022070470000BF
:101F40000CED00E010B5002804DB0A07130E054A6B
:101F5000135406E00A07140E034A00F00F031B1F78
:101F6000D45410BD00E400E018ED00E0FEF776FB6D
:101F7000FFF7D7FDFFF768FCFFF7FEFCFFF796FDC4
:101F8000FFF7D6FCFFF75CFD00210A48FFF746FB90
:101F900004210848FFF742FB0748FFF7E3F808E091
:101FA000002403E06420FEF79DF96434B4F57A7FE1
:101FB000F8DBF5E7BC4600200447002002030405D7
:101FC000060708090A0B0C0D0E0F10100102000085
:101FD00000000000000001020304060708090000D9
:101FE0000000010203040000082000080000002097
:101FF000644600002801000864630008644600206D
:10200000940700008C01000873807F0210DA808141
:1020100084847A6D6B7888959D9D948470625C60F1
:1020200068737D878F949595928F8A8682807D795B
:1020300075706D6D7174777979797A7E858C9191EF
:102040008F8B8988898A888583807D7B7A7A797667
:10205000716C6B6D71777C8084888B8C8C888076BA
:102060006E6F7987939893898384888E95989589E4
:10207000786A666B7277766F655E5C62707F8B8F55
:102080008D8B8D8E8E8E8F90939494928577757CA8
:1020900082837E756C67686D737D868985827F78A3
:1020A0006E68696F798899A8B1AFA290817C7E80B3
:1020B0007F7B766E645E606467696F7880878D90E1
:1020C0008E8987888C939B9E9889796C686E7880BE
:1020D000807C797A7D7D7F7F7A6D64667181949C46
:1020E0009C999793908E8D8B11B0202B8781725C79
:1020F0004A4A5A6D7F89877D6E636574899DA8A160
:102100008B756C718498A5ABA89C87726768707C8E
:102110008891958D7F75E2142573685F606D829458
:10212000A1A9A8A09487796E66615F646F787972BF
:102130006B666466728395A2A6A19486810310CF14
:102140009496938E8881776D696C71787F837F75A3
:102150006D6C6F767D84868584868B92989D9A8D32
:102160007E7777797F86867C706663656A6D6C6A38
:102170006B727C888F928F857A777E89939FA496E5
:10218000847E83898B8A867E756F7179848C8E8B31
:10219000837C7366595A6A7C8B98A1A19C968E8821
:1021A000837B71645B5B636D777B79736B696F7A3B
:1021B00086929A998F898C9296979794908A817536
:1021C0006B696E757D88908E8271666161677484BB
:1021D0008E908D8985858A8F908F9295938F867743
:1021E0006354536274818681715F5A6575879499CF
:1021F00094887B757B89999F9B8A78748090999944
:102200008F7B67616C7E8D94918B83786E69C61825
:10221000ED777E8790959797938E8A87847D705D02
:1022200051515964717D8485807977797E858F9A43
:10223000A1A19B938E8D8B8783807C77747479802A
:102240008484817A6F625A5E6E808D949594928DAB
:10225000858183898D90928E857A706A686B72769B
:1022600077746D6662656F7A889498938D8B8E8E85
:10227000877B767D8186929EA19781695D62758D4F
:102280009DA0988975635D626D777A78787F8E9B63
:10229000A19F968D857B757575726C656061686FA1
:1022A000727274767B828A939A9A9186838A96A2B6
:1022B000A59D9080706669738087867D746F717448
:1022C0007574737374767C858F979996918E8C89CB
:1022D000868585827A716D6D6F717272716F6E6DA8
:1022E0006C717D8D98999183746B6F7E90A5ACA075
:1022F0008D8483807A75767D8384807D7E2A105DCF
:102300007D7E818079706B6D74808F9CA2A1988B8B
:10231000837D7974695C5459636A72797E80807FA9
:102320007F848D95969290949B9F9A8C7A6B646B28
:102330007C909FA090735C575E6A79868B867C72D6
:10234000707782909998928E8C8883807E7C7C8036
:10235000807A70696663646D777E81836B10287EF6
:102360007E7F8188909594938F81716E7C8C9594FB
:102370008C7E706C75838E918C80746F72777B7B92
:102380007D7C787781907B100994806C60606469B3
:102390006FD1101E7475737070767E8997A09B8FB5
:1023A0008686898F989D9B9185796F696A747D7FF8
:1023B0007DB6182D7C78716969727F8E989A9386A4
:1023C0007B79828D959793887A6E66666D777F802C
:1023D00076675D5E687683909A9C95877A7478813B
:1023E00086101192847979828A8A837A75777C83C0
:1023F000888A88E3201C757273767A7E82878F962E
:102400009891867C767577797A776F645E626B7463
:102410007CB7101681858B91928E8B8B8D8F8F8ED2
:10242000898079787B8083827B261412787A7A7B04
:102430007E7D7D818486888A8A87828182FE180ECD
:102440007D7A7775747677787977737275ED1F80FA
:10245000871004140F85878A8C8C87817C7A7D8411
:102460008A8B866A140981868B8D88807875CC1C4E
:102470001B878781766E6B6F777F85888986837EE1
:102480007A75706F747B8285827D7ABC03180583B0
:10249000878A89431013888B8E8F8C857D76757A19
:1024A0008084858482807F7E1E100A787B7F838370
:1024B000807B76722F1C05898C89840D041C06751F
:1024C000787F85867E0410067B7774777E3C11DCEE
:1024D00010127A7A7E848886817E7E8081828181D4
:1024E0007F7E80D01406827E7B797B9119B51004A3
:1024F0007B7C7CC510047B7A7C99180987837D7B63
:102500007D717485AF1C157D6861687686959D9E8A
:10251000999084776D6765666B7176B90314138C37
:102520009BA6ABAAA092827569646A5852667980AC
:102530008181178086921C0C9C958B7D6E676A74D6
:102540007F888B0405182A87898A8B88837970682D
:10255000635E5E65595F76868A8A8B8E939BA4AB99
:10256000ACA69A8D837B76747473716F6D6E717681
:102570002114197F7C78736F6B6A686E74686F8240
:102580008E9194979B9FA4A7A9A8A3E410117B7395
:102590006D6A6A6B6C6B6B6C6F73777A7B7A2910E0
:1025A000096A6A676D6C5E677E7318139FA0A1A2AB
:1025B000A5A9AAA7A1978B80787373757574E11488
:1025C0002A7073767775706B67666566636A675D98
:1025D0006A7F8C92979A9C9FA4A9ADACA89F958A7C
:1025E000817B7877767472717273BE2023777470F2
:1025F0006D6A686666646B665F70838E93979A9E59
:10260000A2A6A8A9A6A0978F87807A7673706EA3DA
:102610001D4105100D7B76706B69686869696F6490
:102620005DA41012959A9DA0A2A4A6A6A49D948C28
:10263000847E79787854177575F41C0F7877736EEB
:102640006B6967666463695E5E733804139899CD3D
:10265000100DA9AAA8A2998E857E7A7877757A102E
:102660001575787B7C79756F6B6867656564666CDA
:1026700062667B8C94281C0B9DA1A5A8A8A49C93A2
:102680008A82020318087572706F7173766013790D
:10269000747B181A6667666A6E60657A8890969988
:1026A0009C9FA2A4A5A4A19B958D867E796B117891
:1026B00011791015797674716D6A69666663676859
:1026C0005D677C898F94989BCD100AA9A9A69E94DA
:1026D00089817A77F51C047374779306167826112E
:1026E000F510106565626969606E848F9397999C97
:1026F000A0A5F518109F968E87837E7B78726D6AF1
:102700006B6E7377D81C1B79726C6766666969712A
:102710006C616E828C90969A9EA1A4A6A7A59F97A5
:102720008F3F0615461E7153042275A4100478735A
:102730006DF5100C67666F665E6C7F8A90979D28BA
:1027400011CC10069E968E857FF51DBD0310047278
:10275000767A27140575726E6A47141868676F6574
:102760006375878E93999EA2A3A5A5A49F98928D29
:1027700088827C3C28096C6E71757A7876751F1C8E
:1027800018716F6C6A696B5C5D748A949A9EA09EE6
:102790009D9EA0A1A09A928AAD033E76E4041B758B
:1027A00079111C087976726C68636327041C0563D1
:1027B00069809099071C0F96979CA2A8AAA5998B4F
:1027C000807A78797C8C0311011778769F217B10B1
:1027D0001F6666666C70646B7F8D9296999EA3A748
:1027E000A6A29C96918D8A86807B7874707073CB3C
:1027F00011271B706F731C156A6E6D736F616A7F92
:102800008D949BA0A3A2A1A1A2A0998FF0071DEB7C
:1028100003180C7973707174787C7A76706D9728D0
:102820000F6F6F6F696D675C6D85959A9C9A9916AD
:10283000240DA19B948E8A857F7974717075431CD9
:10284000087069676D7579764C04165B4C18117DBC
:10285000939A9896969A9DA1A2A3A29C938B841377
:102860001E783B081E782708100C6F74797C7A71EB
:10287000676261656B351F7787090315C21C0AA162
:10288000A3A4A29A928B847D62081B7776391C21BF
:102890007C776F665F616A737B7E796F686B5B5B69
:1028A000738C999C9B9A9B9C9F9F9F9D96908C89D3
:1028B00040041C06767170767A7E041C216E6B6C67
:1028C00071736E6A68696B72796B6974808B96A19B
:1028D000ABADA69E9895939293928B7E749E0418AE
:1028E000187B7C78706C6C6F707273716B696C6E36
:1028F0006D71726666778D9C891C09A39B93929576
:10290000979895AD03117A1DAE031E6E5A031D5F95
:10291000031C0671747474728D051C0A78737983B4
:102920008C90918F8E0A0617A2A4993804877E791D
:102930008C2C097977726A6460656F0A0719CA1C62
:1029400007766F6971808E8C061C1B928C88898D2E
:10295000949A998E7F7471747E8789867D7067677B
:102960006D7072757B6709140B82818382786E6E3D
:1029700076818A8F1C0582838A92AE052E84020896
:102980001E85F6082C057E77706D7C061D45081D9A
:1029900057091C09797268636773838FC7081C081D
:1029A0008C8D8C89898987CF041C0F7F7F838073EE
:1029B0006A6A6F77808888848178061C0B7E8281A2
:1029C0007E787474777B812F051F8382BF051C0579
:1029D000948F867DAA032C067C82827D7C710414F0
:1029E000097170717A8B969997D81C117A6B5E5F1A
:1029F000738992939593897A6E6B7078820810062A
:102A00008C8C8C8A85981D4D051019806F5E5C6AD0
:102A1000788693958C83786D676B7787919390898F
:102A200086888C7E29B51C10787C7B7166676C73F8
:102A3000787D838382838789081C0A9184776B63FE
:102A4000636D7F94A1041C149C958E887F77726FB0
:102A50006F706F6C696866656A717CDF0814058841
:102A600088909BB0180A99928F83746F74787B005A
:102A70001C066C707B888E0603100A7A7066606490
:102A80006E77818B661C1B92989C9EA1A196867581
:102A9000685E5C5F63666A6B6B676A7888969EA007
:102AA0009D60072D7308167EBE1C296F747A7E8088
:102AB0007D726D727E878D8F8C827F7C7B7F868A14
:102AC0008F8D8C8D8E8F8F8F8A7F72676263666D1C
:102AD00071716D44041DD407128B151C0D919193D7
:102AE000939396988C7F7B7E7F3E061C13767C8624
:102AF0008E93928D83776A5F5D66717B8082842D71
:102B0000091C16929492908B837A736D6865676541
:102B10006465676A727A80860304140D9DA09F9C89
:102B200099938B827D797D829914046D696DCC3C7B
:102B3000048D8C8332081C107B838C8F8C8B8A8B4A
:102B40008F918D88847F7A4C031D4B031DEF0311F9
:102B5000F51C13848A8D887D73788897A3A9A8A211
:102B6000917B70747D5A0B14136E6B7179869194FE
:102B70008D8077706B6B6D6F727882172C069E9AC2
:102B800092867D95061007756D676461617C1C15E2
:102B90006C717B8A95999DA09E9A97958F857F7E73
:102BA00081858583EB081010727980838582776B2D
:102BB0006468758591928B191E82AD0A1E916C070F
:102BC0001C0D8179716B65656B71757775735A032F
:102BD0001D5E0811EF1E97980A1E8D3E0410078097
:102BE000898C887B6C351F86971208112A2DA90ABB
:102BF0001C067C7C7D848C9F0A1C059C948A814CDD
:102C0000083C21636164686B70777976706A6C77D1
:102C10008898A5A7A39C97918C8A8A857E767070E8
:102C2000777E8276071C0573737679370716802FB7
:102C30001C068D877F7B7F180C241A948A7B6C621C
:102C40006067737F8581756761646B7685939996FC
:102C5000908B8788131C0E85828789847D7671729C
:102C6000787F868B2D082D2F0A1D35062C0C787841
:102C70007D868C91979A978D817B051C04696A707B
:102C80009E06100F706C6A6C727D88929A9D9B9A5A
:102C900097947B1E889E093C0579787A7907041DF4
:102CA000B7031F7B7D76081C098687898886848206
:102CB0008238082C068885817D771D071DE8092C40
:102CC0000474757AC70918087F80858D979B98F8DA
:102CD0001C197E7B808B908A7D716A6C747E8990D2
:102CE000918E83776C656971787E930B1D170B1736
:102CF00091903C1E7B75081DAB0C1D6E071C046C6F
:102D00006F723E0A15C41C0894979A9895918D0885
:102D1000031C067F7A747578EE0A1C04807D78485F
:102D2000061E767608100589898583011287081C9E
:102D300004817D7B2C091F75727B0A2C04747476C8
:102D40002D072D82082004868D905A1F8882B60395
:102D50001808847C737072777E032C078C89827CC0
:102D60007570C10A1C04818489860C1C0C8D8B84AF
:102D70007F7D7B7773716D6C1E031C0F686C7073A5
:102D800079828B90949697989896630D128D2F1E4A
:102D900076F00A1DC7031D49041DFD041C057E8233
:102DA0008486D00A3C04868887610D180579797B72
:102DB0007DF0167647154A1DCE0418077D8185875C
:102DC0008689CE1C0793948D837E7FA50B28087778
:102DD0006F6C6D737B839313867F441006797B7FC2
:102DE0008183251006858785817E7B1C057574721D
:102DF00072E60720056C6D7175F518088F91929435
:102E0000939290C515701F787554081008787D7FCF
:102E10007E7F83867711C91C0583817F7C7E061C9B
:102E2000057576797C46092C0582807C78010A1F1D
:102E300079755A071D120A1C0C85878C9092929105
:102E40008C8685821609100A797877787B7E828550
:102E500089E61E8896051E7721081D310A1DF0059A
:102E60001C047A7A7DCC041C058788858264081945
:102E700004100576777A7F3D1DE209138E8A992129
:102E80006711661005767A8082781E85EE092DED31
:102E900009196F1E72F406113E113D1C07898D8EB3
:102EA0008B8986EC031E79FA07114E15EB1E889C60
:102EB0000A2F8D8977034F767688052F7C81750ED2
:102EC00025A11D9D0E12798F1DD40A1B7C803419FB
:102ED0008D1C1081818D918C84715B50576A7F901D
:102EE0009A9E580D16832A1C046A6B6F8F051DE08D
:102EF0000B1C079B9E9B96908836082C0679605782
:102F00006773510C2A77DF10089594908D8A857D20
:102F10008410047E8182011285C41D7F0A1C136EF9
:102F20006763676E60667B88888686878B949DA4BE
:102F3000A7BB091D1B051F787669091DE7082D52DF
:102F4000051C0581807B75B00B1C076C767E707646
:102F5000879E041C0C8C8E939DA5ABABA7A0988D6F
:102F6000F90519751F706EEE072C056A6E73784DA2
:102F7000081C0C6665656F72677387919192F903FF
:102F80001C0FA2A6AAAAA6A29D958D847C77767313
:102F90004805180467696D151E6D820E1C0F5F666B
:102FA0006A78776C768387878B929AA1BB091C0A13
:102FB000A8A59F9A948D857D75B00611011D030407
:102FC0001E76A30F1C046C6A6774081C0668617285
:102FD000868F590F1C0E95979CA3A9ABAAA39A8F15
:102FE00083786FEA081F787538031E6EA2081D1CCF
:102FF000091C0A6E676462685F5B7086500E1F98DA
:103000009A19091808A9A8A49B928880D61F827FC4
:10301000ED0E1D8B0F1D57041D370A1C19666262C9
:10302000646C64667C8C9292909092969DA6ADB1F1
:10303000ADA192847B9E031F78781B091DD9061FC2
:10304000757617091D74081D1D061C04676A7CD55A
:103050000E2C098B929BA2A8AEAEA86A091D270C64
:103060002D870A11011E73EC092C04707071260D56
:103070001C146669606C84909293909094999EA4BD
:10308000A8A5A09C971A091C0B7F766E69686B73C4
:103090007A7D7BCE0711FC1C096C686061635E6FF2
:1030A00089A0031C0C939091969CA4ABAAA1979025
:1030B0006F0D1C057B756E6BA1071D290B17756EB7
:1030C000CC1419716E6D6669655A6B8391979D9BDF
:1030D0009693969AA1A8A9A49B8F83D71D370D1C00
:1030E0000773665B5A6370680C1C1B847E73655D96
:1030F00058615D55688497A3AAA8A199918C90996D
:10310000A0A5A59B8B760E19E11C0B77726D6C6EDA
:10311000706F6E6F70070C1006696F7D776C8B1C7B
:1031200008828D97A2ABADA8920F1C04918C87E901
:10313000071D7D041D420D1D060B1E74F1081C0B9E
:103140006A6C6865666A776E6C7D60041291A21C79
:1031500004A3A8AA7C0B1C048C837D910919F22D71
:10316000F8042C04726C6440102E7B81051C1458EA
:103170005B7793A3A9A29287838690A0ADB0AB9F03
:103180008E7E67042DE4093272551DB70E1C226A2B
:10319000635F5E656E656F889BA2A59E9087868C37
:1031A00097A4AFAFA59582726D6D70757C807B73AF
:1031B000F90B1E76A808140E6E665F5E60707B7158
:1031C0007480888D94E81FA8A691091DA5081C0B82
:1031D0008D857C75716F737A7F7CCA0B1C2265614B
:1031E000637077787471696C675B6A83949B9D994F
:1031F000989BA1A4A29E9A958E847C7A7B7D807AEE
:10320000031C067E766E65618C091C0C7376746FE8
:103210006C656B6760728A710C2F9A972E0B1C0B72
:10322000A2A19D958B827A736C6817071C097E7F1B
:103230007E7C7B756B66700C100B696B6C766D65B4
:10324000768A969EED14138B919AA4ACAEA79886BD
:10325000766A676C778289877F9E1C1B6B6A6969B7
:10326000696462656D77877B70788082878D939FB4
:10327000ABAEA99F938A50051D4F033E883A0A1DA5
:10328000190D10046F6D6B2D1D710C1C096D74638D
:1032900060778D9BA602031F9A9136031DD60F2ED1
:1032A0008D730C1E79440C1404706866E61C0E7352
:1032B00076756F67636168746F78899254121D5FC9
:1032C0000A1C0A9FA09E99948F88827FFD0D1E7C08
:1032D000E5041D230C1C09766C5E5456606C7493D7
:1032E000041C158073747F8A929693929495989A91
:1032F0009A9999968B7F78CB101C118B8A8376696B
:10330000605D5E60666F797E7E79742C101C086E3D
:103310007A879094938C420D1C079B9FA09A938A66
:1033200072121D93042C0982796F645F60697517AE
:103330000A1D54101C0D73777D7F81878B8C8F90B5
:10334000898700041E92881114048E867F481D2EE2
:10335000101C057C726C6A7D082DE70D2D8704100A
:10336000127E80828688888781797A838A8E918B83
:10337000827F101C048A8E8EF20C1E77540A1D2741
:103380000B1DCC081DCE0F11041C067A797B7B7BAC
:1033900083131E838C081D4107138786381E8517EB
:1033A000051D5C031E7512061C0472747C4D102DE5
:1033B0007B0E11411C06888687827E58101E831260
:1033C0000511521F8483850F1E7EC90C1C0676745E
:1033D000767571900E178D8E0A1E7E2F071DA50F14
:1033E0002C067A6A666E7CF7091C098D7B6D666314
:1033F0006B77832C101C04948E84CA051C067C8475
:1034000085837C88091E6DAE0411D11E7EAF101D10
:103410001F07117E1D02071F87877C133D0D091CA6
:1034200007696A6B737C7F01081F878F28061E88D7
:1034300011071F757B2E0A1E916A111E88FC0F1D35
:1034400091051DA20E1C09656363666E72777F602D
:10345000071C088C9098A0A19D9A96081C057D7267
:10346000757FCD131C09665D5F697789919133097A
:103470001F716C11051C09737F88949FA6A8A77300
:103480000E2005897E75703C240A626568686B743D
:103490007A818CCE2DAD131E8B510C15211C046D21
:1034A00070776A101C04828180BA0615271DAC1142
:1034B0001DB30F1C058D92929371131F857E660DAF
:1034C0001F6D6AF60E1C0764676C707479CB101F51
:1034D0008C9107111E9091091C06897F7B838D6D4D
:1034E000101E75870D2C047A858CAE081D54141C93
:1034F00010666975828E96999A9995928C868177D5
:103500001E051C075C5D5E61676B94091F818A0A5A
:103510000F1E9BAA0C1D050A1DB5101D320F1DFEA6
:10352000071E7D0F151D75081DEB071C04717073B8
:1035300014132E8B3C083F8E8C6D10180476726D20
:10354000DA1DEA141E7592072E82CA061DC4041ED7
:103550008F67141C058276767F28072C0A79737191
:10356000757B868E928DA3121D6C0720067881894B
:1035700090937C1F948BFE051C0766625E5E5E6006
:10358000B80E1C066C757B828BF2051C0A9B9B99FE
:10359000989693908C869E1019074C077C7F8181AA
:1035A0007D78B50F1C06767A7F8488C2061C058F4D
:1035B0008E8F8B2C111D730C1D2D091DBA082D200B
:1035C000102C077C82888C8E8EA311128E981C047E
:1035D0007A7378290A1F817A38083004828A8EE348
:1035E0001D05131C04757C84A3141C0597989996DB
:1035F00017091F766E9F10200C5C5C5D61666A7215
:103600007B818A92181C06999998949132141E8095
:1036100016111D30071F7F81E50719721D76131CD7
:1036200004787C80A2031D63151D03121D290F1D44
:10363000860E15931E6C80042D2C0F1F8286570753
:10364000156D1D250A1D58121D9A0A1283F51DE7D6
:10365000082E89B7111D360A1A6C101C057D838A45
:10366000917203139892F51E70240D10066061612B
:103670006366F51C047C838D361512977A1C0597BA
:1036800095928DC7112E7C4F161F7C7F3F131539E5
:10369000177270561E7C38031D2C141E8D68142D55
:1036A000E6111D40051F716E540C1D77081D9C0806
:1036B0001E8997121E8E77161F868828142E7AD19F
:1036C000051F757363151D0D161F877FCE0F1A6DAD
:1036D0004B1D1E081DD30B1DC0071C138A81746B64
:1036E000635C5B5E6162666B6E72787D858EE60DF3
:1036F0001E99650A1D1C152DC4141DB2131DA2139D
:103700002C0A7F7F7B7770696A6D7017141E85D6CF
:10371000071F888A5C0C1D66031DD40B1D9C0A11B3
:10372000F31D7C0B1D10091D23031DD8161E8A8C4A
:10373000081C0B837B73717B8486817B77280C2F1D
:103740008A8D690B1D61051E736F0D2C0B86888D8C
:1037500093939495928B8334161C075D5C6063642D
:1037600068640A1C0678808A9499B80E2C069A968A
:10377000939392320F1E7DD40A117E1D1A111D548F
:10378000041E7428091D31101D95041C048F908E91
:103790002D0B1D65111DF7031E730A0A1D57041A10
:1037A0007E1321B91D210A1C04878280C20C1C05CE
:1037B000747880850D0421171C057F82878A7F1706
:1037C0002D76101D0A131D450D1F91909D0B1C0A8F
:1037D00079756E69676463656861081E751C032FDF
:1037E000888DE9092DEA091E8D6B161E82C30A1DFC
:1037F000AE041E82C6061D61121D650915561D8682
:10380000043C057A7C8285B5131DE9131D52091607
:1038100078191D01101D0D0A1E8890031E84D213F5
:103820001D2E131DE308112C1E7F280E1D8B0B1D52
:10383000F2121D7B0C1D090B1E761E0318058A87CC
:10384000837F411D6A0721D21C04707373210E19F6
:10385000161D4D142E87BE0915C71F7E81300A1E06
:1038600093230B1DB20F1D810C1D87131E79B20E01
:103870001DE70F1E7816143D230A1D58072D8218C8
:103880001E8419062C0587868381510F1F8180882D
:10389000031E7EF70A1C0481817A21072E72770E9F
:1038A0001404898C8B851E87CF1414057479828645
:1038B000961E81F90516811A181F817E7C7D6F7214
:1038C000858D8B8575605A647487969D9C999189C6
:1038D000827D746C67696E76221E96180817949321
:1038E000222C0A796C664941576A757E5D141E82E6
:1038F000100E140F96989690867A6D6A6F79848F61
:103900009797A11D6E0A240B7A746E69615E5F4DF4
:10391000536EE31C058F93989D43111C04A0968859
:10392000DC0A1D83124D25031E7AAC031C0B817A21
:1039300070686561676C606A660A2DED101EA443AD
:10394000111C099E9B9892897E72684D0E2F6A7198
:1039500033121D23091D8F161C0A6C6C686C6A5D7E
:10396000697D893B0B1C0C98A5B0B6B8B5AC9F948B
:10397000897FF3071E71D9032D2B131D72111D4F63
:10398000081D50081C0E676D66566073818B959DEF
:10399000A1A6AACD131FA39DB0071C0482746921A0
:1039A0000E2F737A0B0E1D6C111D7A051C096366B0
:1039B000666F675E6D8089061C0698989AA0A8506D
:1039C000081C059E92877D55151D6A091DCE081598
:1039D000DF1D5D081C04736E69FB0319141F7686D6
:1039E0008B0A1E99D9121D3C0A1EA184052D401177
:1039F0002DBE091E77E6051C0F7F776E6866676926
:103A00006A69676859596FB4041C04989FA3AE1281
:103A10001C049C9C9B190D1D0F031C097C746D6775
:103A2000676B717A49191E7896111C115B5E62688A
:103A30006F666C808E918F8F93999FA6C3141C061E
:103A40009C948C867FA6121D20141D8C062F6F72ED
:103A5000AA0C1D930E1C0A6A666763525A728692FC
:103A600001131C08A1A0A0A1A3A29D0B051F807893
:103A7000F0081F74760F122D9D081D69111C0D7022
:103A800067635F66675E6A7E8A8B8A230E1C0AA262
:103A9000AEB6B7B0A29181757F031DB1152D761416
:103AA0001D06121271F51D7B081C076A736D606B91
:103AB0007CF5081C079DA5A7A8A7A599091E90300D
:103AC000161D7B132F6E6C2D0B3C047A7E7C210619
:103AD0001C086564646D655D6E3F112C09939397B6
:103AE0009CA4AAAEAD15153C057D736F6FCA131F5C
:103AF0007673F50E1F726ECE051C096663626B63EA
:103B000062768A041210079899989CA3A6531C0603
:103B1000948A7F766F2F123DFE032404847C71CD3E
:103B20004C096566676B73656478CE031C0A9C9FBD
:103B3000A3A39F98918B8568161DA00D1C07757116
:103B40006B646773A7131DD50B1C0C6C66606167F3
:103B50005C61788B969DFB101C089B9B9E9D9995A4
:103B600095A5081E81DE111DF0161DD0061C047ED1
:103B7000786F1B141C0D68696A676B6D60687E8EB8
:103B8000949790051C049BA0A6E0151F8C816E19CC
:103B90001DA6161E7D1E181D320F1E714A191D947A
:103BA0000A1C16716B6D6A5B667D8F999E9E9E9C4A
:103BB0009B9E9F9E99938E8704081DF6131D840B70
:103BC0001D81131D83171E703C0B140B686A676EF2
:103BD000695C677D8D97C01FA3A149101C08959251
:103BE000918D8780791D051F737AD4031C08807D11
:103BF000736B686664E81010086875736B78899059
:103C0000011C0B9599A0A6A8A39A938C84F7131D69
:103C1000F8041DDB061D95052F786FC114166AC2C6
:103C200018096F6762748C979A9A651F9EA28F1508
:103C30003F948D031A1D98051DA11914057C817DE3
:103C4000746D2F6264130A1C0569627186E10F1F8F
:103C50009A9A45093C08A19F9C98928A820F0E1D52
:103C6000790C1C04727377B4161E6FAE161E685A58
:103C7000121C046C697998091D33161DF6111F9EDC
:103C80009A5A0B1F868072051D68101D3B152F7BED
:103C90007C060C1C0B65636467676F7970728162C8
:103CA000071C0594979DA427171F9A904D0C1DA6DD
:103CB0000E1E7C60151D27191E748D072E6A321783
:103CC0001E6DD40C1C056D717F8D9B141C059C9B77
:103CD0009D9F81031E930A1B1D2C131C0479767370
:103CE000C5051C046C7175350B2C066E6D6F6F71FC
:103CF000260D2D19191D3D152D0C061C04989791A4
:103D0000FC121C047E7C78DF091E74EF142276A856
:103D10002DDC0F1D760A15853F81885C121E93C429
:103D20001915E92D8B181D00041F7575ED181E7BE4
:103D30000A0B2D8F191DC2151D01191DAB182DD28F
:103D40000A1C048A8F91D01C2F8B87B6182E7A59A3
:103D5000191DB60F2DC2081F8082AC12197116747E
:103D60005B2D950F1C0484889098141D380E1E80BE
:103D7000DA182E76EB141DE6041D650F1C047F80F7
:103D800081751A11DE2F7C7BFD0E1D9D061D161CF4
:103D90001C058C8D8881D0181D210711961F7979FB
:103DA000F80F3D8D0621652C07817E75655F6ADB06
:103DB000131C0D93897E716D73797D848B8E8C714C
:103DC000051D0D081D36091DD6162D8B161E79BA38
:103DD000051DD4101D3E051D98192D87051C088D45
:103DE0008B867F7D7F7B45171D8A121F6E73890826
:103DF0001404918F8D302D650F11F71E7CAD051FBA
:103E00008C8DD5101D95081D49081C046E6C671318
:103E1000191F6C7235101C048C939724031C049793
:103E200096947D151F7E7205131D6C1D1C0E656317
:103E30006D7B8890928C8178736B66BB0D1D6F0BC8
:103E40001C099BA2A6A7A39A948C29071C056C6544
:103E5000615E6B092C05656E7579560F1E979A1277
:103E60001D49093F857F310F1D72101D98111F8557
:103E700086DD0A3D99191DD3102E8851041D880A2C
:103E80001D3F1A1E771C0C1DEC0B1C0460646A5548
:103E90001D238186BB2E915D071004918B7FE81C4A
:103EA0000988877F736D717A838F0A1E8935151D86
:103EB000BC041C066C757F8891C80E299E1C04806A
:103EC0007A749B0A117B113E1D090D1C05858E9489
:103ED00096EE081E95BB0A1E8A1E1A193E1D1F105B
:103EE0002E815C1A15C015CE1E741C1B1E87690915
:103EF0001E8C5C061E85DA0A1F746FE40C2D8A1E68
:103F00001F777AF00B1C04868B8EC2091DA5111C2D
:103F1000088E8B8076767E8374131E70E81D1C05D8
:103F2000858E8F8A99061D55191C0669727D8993A5
:103F300096161C049E978EEF1A1D4E08136360F5AB
:103F40001C046368707F071D6A091D19191E962DD0
:103F50001F1D33102DEE102D7F1A1DB10619C31E23
:103F60007703051DF5051D1B071DBB0718058E8C66
:103F70008A835E1C0974706E6B6767676A08091E26
:103F80007F9D061E8CE30919291E8F43131D85167C
:103F90001E85A2071E7DA80E1DE411128BE31D1ABB
:103FA0000417686F021E968E171F9994F90B1C0A4E
:103FB000796F67615D5D5F5F6187171D7B151D9E72
:103FC0000C1D281E2E92B00B1F898369092E7AD2F0
:103FD0001C19471DAE1B1D42121D88071DDF071E41
:103FE0008AB21111011E8776081D480F1C056565F0
:103FF000686B540F19B41E84CB11128D7E1D3408CA
:104000001DD4151DE5071C0688847D7776421C1D8E
:104010008C0A1C05847B72687A0B1C05768089915A
:10402000B60426986F1C0A7C76716A635D5C5B5DE2
:10403000AC1E1E809A0A1D54041DDA124C0596947B
:10404000918AC00D1E80A90C2DA10A1DF6182D23E2
:10405000201D441C1DE70C15721F92923F0D1D215F
:104060000A1C05696B6B6E39192E757A0B1D931539
:104070001E91B71F1E8A620D1C047F7673DE191D08
:10408000430A1E7201151D0A1219B81E79240A1955
:104090008B2F848EE6141D721E227DB73407615E5D
:1040A0005E5F6670AD1F838AB9151FA1A0FC071D56
:1040B000C112167E441E84F10C1D41061DDD031D38
:1040C000D60F1D65202DDE1C1DFF092F85835B1C6F
:1040D0001F7E79C11715A91E77E2151D950E1D3F8C
:1040E0000D1E8988081E82B01C1E8749141C04847A
:1040F000807960141DA6131D41051F7F773D182C84
:10410000056E747E88B2202D9D0A1E8685141F714F
:104110006C112015351D3A1B1C08747B848F999DEA
:104120009C5C0A19C11E8F79081D02091B8581C478
:104130001E6F7B0A2C047F8688D6091C08767F8830
:104140008F94928B650C1F7A7CC91215ED1E70F846
:104150001A1DFE0D1D000B1DAA131D280C2D9013FA
:104160001C0F847B74778287837B726D6E757E886B
:10417000C2161804897C71EA1F858DE5061D0C1D89
:104180001DF509138B891E14046A6263361E70AB19
:104190000B1E7D270C1E8B8C162DF0111DCA1F2D9A
:1041A00084072F7A7ECC0A1DE61E1E7B8D0E1DDE37
:1041B0000B2D8A132DCB151F8482ED091DAA091D15
:1041C000F90F1D721D1D2B131E763A1D1D63141D44
:1041D000D31D1C058C908E86F3133D6F092D46135D
:1041E0002D06043D980C2F786FD7211D69171D3AB5
:1041F000032E7A181D2D830E2D04111DCD17115F6E
:104200001DEC201C07909190898380EF1E1E829DDB
:10421000151DA4151E7E360E1F858756141E77A306
:10422000052DC70A1DE1161DEF0C1A86682C0682A3
:104230007B777880550A153D1E77AD041DDC041C84
:10424000067C797C8385341D140682776F6A6CA2A4
:104250001D6A151A8E012D311E1D8A0A1D7B171D20
:104260008C062E7A88151D6A0B1C0C8A87797A7F3A
:104270007B6F666D7E8A741F1F7F7BAE191E720274
:10428000161F858AB6201F96910D0B2C047E746D27
:10429000D5181F8284D31C1D8A181DEE191C0E7898
:1042A0007E8691A3AD9C96A0A59B867270181DF189
:1042B0000F18047B7168321E62B3161C05919BA314
:1042C000A8A71D1E9BFA192DD91C1DC4071C086622
:1042D0006363656C747D0E0B1C0C8D8C938D8590C7
:1042E0009EA0958575A6071C1375808380786C5EEB
:1042F00056555D6A7A8997A4ABADAB95091F968C2C
:10430000A80F1D311A1E70541D1C075C5D626B7571
:104310007F20181C098C8C7D7B8893959005211F2C
:104320006B6C770C1DC40A1D421B2C05727A84909D
:104330006C1A1C06A6A0989189BD051F807A1612DA
:104340001C065D58555457EC111C0D767D868D98D2
:10435000968A8C949792884C1815591D340A1E6FB2
:10436000E70D19311C0793979B9EA0A26A084D3E4A
:104370000B2E720B141C056265696C44181E75EDDA
:104380000C1D11071D64141E84E41E1DA9121B833D
:104390007E931D6A1A1A778C2C0AA2A9ABACACAA20
:1043A000A49D95C6051E714A051C04625E5C1C0432
:1043B0001E645D13180F838994938688908F867B83
:1043C000716A696E022D3C0E1D3C1C2C0D7A828C8C
:1043D00099A5ACAFAFA6998F878C1F1C17847E76EA
:1043E0006D645B565250535B657079838B90958AF0
:1043F000848C9439122D871F152F1DC0041D720E39
:104400001C0681888E969E34091DB6141D29241D14
:10441000661F1C0478726BCD181DBE072DE3141C9B
:104420000A7B83868E8F8383898A6F1D1DE9101D09
:10443000550F1E741B122D170F2C0A8A919AA3AACE
:10444000AEB1B0AAAD031D45233C0668646362604B
:10445000B2051F7176E6061E8771071C068E9591C0
:10446000857A96072E75C5061DD5151D05201DDEFE
:10447000221E972F142FA9A9D01C1D8B04440A714A
:104480006A66625B5656575A471E8BBB1A1C098DCB
:10449000959892867B726E6E1A2DFE0611D91DBDFF
:1044A000223C048D959D7F1D1F968E180825271D83
:1044B000A9211C10626263676C7276797E84879092
:1044C000887F853C111E8097111F767B82161E7295
:1044D00064131F747A1F161DDB0A1C06ACACA9A35B
:1044E0009BDD0A1D0E041C086E67625D5A5B5D2C25
:1044F000131E7218141D0D1A24057E7E8991101D3D
:1045000012081DDD1C1D7A161D2E171DF3211C0817
:104510009B9D9D9D9E9D9DD8081DE71A1D410334BE
:104520000768625C59585A7D1E8037161C058E82BA
:104530008792740C1DBA151E73E6152D19151D9161
:10454000211C0D848C959EA6A8A5A39F9B95905E8B
:104550000D1D55091D141A1C055E5F6367D31C1DD4
:1045600050031D31211C057D7C878DA91A1D581F04
:104570001DEE091D351F1C066E71777D84B71D1D4C
:104580004D1F1FAAA8981C1C07948E898279716EF2
:104590000F18045D5B5D241D7C0C1D82211DFE1C1B
:1045A0001D72222E89C0041E6F700B1D4C0B1E76CF
:1045B00055031C0A8A9199A1A5A4A29F9B15071FC8
:1045C0008C86DE0B136E696D1F5C5F2B0F2D2A0F1F
:1045D0001C088B8F93857E878F550F2F7A744C2301
:1045E0001DC91F2D8C031C0A838D969FA8ACABA5FB
:1045F0009D2C1925471D341A1DD71F1E63960C1EAE
:10460000724E061D900D2C078C87787C878B80144A
:104610002DA3143DE40B1D0B10140C898F96A0A73D
:10462000ABACA9A49F9BB41D89161E67B1051F5C86
:104630005CCA252D72241E8533241E85B9081E8B65
:10464000F3161E7291191D77191DAE041E7F331FBC
:1046500019FA1E9F571C1DEC241E8BD5212D841486
:10466000280565636061581D2A062D99191D3405BA
:104670002E8AD31E2D16191D5B181DE6213E85AD11
:104680000D1C049B9C9B1414128E361E849B0F2DB4
:10469000F4182DEC1211C81D2F051DDB0A1D321256
:1046A0002D0D221DBD041D96062E847D041D401C6B
:1046B0002C058D8E9191E5111D0F071C048A8882AF
:1046C00032031D56161DA0051DC1051D051F1D0425
:1046D000191DC7091D25271D171F1DE8232D88102B
:1046E000138B8A361DDD0E1E8786262D97131D0916
:1046F000191D8A221DBD231E7110171D8E1315D77B
:104700002D0C271D53101D10232D45111DBF191EE3
:104710007C92221E8279061D520F2D25262DA5136F
:104720001DD41D1DB2201DC7181DDA203E770B1C9D
:104730002D9C1F1D9D081287011D8B191C0E84873F
:10474000887D747176818C94948777410E1F737B7A
:104750005C1A1F91954F0C1D7C043D99111D9A20E8
:104760001DF90C1A6C431E8071142D9B0F1E897845
:10477000141D371A1C0486837CB4231D39271D554C
:104780000A2D2F0B1D54081E7EAA091D16182D4632
:10479000131C04847F79E5132D48041D451B2E75D9
:1047A00041231DB6271C068E8C807D86C01B1F836F
:1047B000793E241C058C929089541D1D6F041C06A3
:1047C00068727D8790A11D1F9E9AFA091D74032EA1
:1047D00069F5061E6FB90F1DE8052F88892B082E75
:1047E0008DB7063D2E201D8A041DCF161D1E0F1CE1
:1047F000058185898E7C201E9AE0121E919B251DC5
:10480000A41E1DD8251F6D6D67222E6E9F0E1D4D97
:104810001E1DBA101C0C808B9390877A72737C8754
:104820008E6F0A1E7DFB242DD1261F979F7C211C95
:1048300004A39B9063251C086B65626364656687AF
:104840000C2DD2162DCE101DC1031DD3071DF5064C
:104850001D561A1D7E051D2C1A2D73212D2A051E8D
:1048600098770310069B9A9997928D1DBF181C0488
:1048700064646620071D8E101D0D2215F31C047D37
:104880007C8142081D5E071D56071C078E928F878C
:104890007E7564131E7724131C05969DA2A2671EC5
:1048A0001DC4062D4D081DBA1E2D08221D0D271DE5
:1048B000A2132D89121DF8132D0D1B1DA9151DF511
:1048C0001F1D2C0A1E7676051E8E89141297DB1D7D
:1048D00083083E8B01211DC20F1D92141E684712D2
:1048E0001D9C131D25113C057A7376838A171D7D47
:1048F0000A1E8BD6151DB10F1DAE031C047E878EBC
:10490000970D1D7E171C099891877C736A625EA7BC
:10491000031C06666A6F7374EC0B1D7F1F1D8A1FD4
:104920001D01251D8A081D520E2D900619452D8A40
:10493000132DA3101C069A9D9E9C98E4091D840CBF
:104940002DA4131DA2231DBD191E6478281DE51B6F
:104950001D3E251F808992161F807BEF031D70115D
:104960001D3B1A1D171D1D76251C04898E98492292
:104970001EA1A11A1C077D756F686466631715BABE
:104980001E6832211D5D1C1D461B2A8BC61DF20AA6
:104990001DEF101D88221D7C261D4B071D7E091C46
:1049A0000592999D98021E1D4A0C1E880628251303
:1049B0001DB41A1DEB231E69D21A1F848AB11E1D55
:1049C000151E1DA80C1D93041D620D1D09201D023E
:1049D0001C1D84081404858B95B61C04A39B8F733F
:1049E000032DE6191D51041C065F5B585D696811B3
:1049F0001F888CD8161E8416081C0784898F938EF6
:104A000084401F1E6BE01531181E93D3153E928211
:104A10001F1D21062D2A241D1C0E1F707371041EDC
:104A200073B40C1D25171C057378849033091D423F
:104A3000121D62161D9B0B1F78703B1F1D0D031C62
:104A4000049AA0A3F0042D84141C0C877F71666067
:104A50005C5A5D646C72BB151D4D0D2D1C201E90A3
:104A60001D2A2DF8091DDA121D11231E7A6F121648
:104A70007C881DD40C1D27081E96370A1DC0162DD4
:104A800088171A6B571D1B041D4A071D7D031C0642
:104A90007D7A717584C41E1C058E847A73F4131D8F
:104AA00097041D370F1E78B80C1C07868E99A1A39A
:104AB0009F15232DA3151D4F041B6B64933D3906D1
:104AC0001E7C71042F8789EF0A1DAF0A1F8985821A
:104AD000141C046B6A6DB8151E80CA261D050B2DAB
:104AE00050101E96F60F2D4D132E7B19212D4315B8
:104AF0002F6E74900D1D97211E7B69031F8B82E919
:104B00000D1D800715F21DD3131E80BE041C058DDC
:104B10008B8C913A0B1DBA0B1D43121C0971655FFA
:104B20005F5F62696DFD141DC9112D8B1D1DCB0CBE
:104B30001C059596948ED00F1DC62725AF2D2E13DC
:104B40001685C81D321515AF1DBD171DF21D2F840A
:104B50007C141B1D65201D711F1E75E50D1F7179CD
:104B6000D0201DA5281D84181DF20B1E8BDD231FD0
:104B7000808130131D110A1D411E1E92F6041DD0A6
:104B8000171E7E40202D4E261D140E1E6BCE231E9A
:104B900081572711FC1E8180081D36242C08847E35
:104BA000787370747C5D051F8E8B192012710C1048
:104BB000048B93961B1D15073271D41F7C7DE4175F
:104BC0001DCC191DA90B1C07868E9495938DA118D9
:104BD0001DFA271D06291D7E0B1DDE181F858BB1B2
:104BE000091D671E1D280B1D06191E88040B1E7843
:104BF000D3272D7A1615542D3F071D9C041E918234
:104C0000171A84571F777FDE091C108475615A605C
:104C10007084949C9D9B958C80758F052F70746417
:104C2000161C089796A09981848A0D133C05626032
:104C3000636C11221D071E2D1A1E1C0E84888D9771
:104C4000A1A7A9A39992716873821D1C0662606571
:104C5000707A24151D291E2D30101D34171C0E8C42
:104C600097A0A6A39D908E7B67707773B10C1F5F92
:104C70006487171DF51E2DEB141DBE1E2F9198C0C5
:104C8000131EA0362C1C0C78757F7D71675D5859FA
:104C9000616CC7061D3B0C1D0D041D080E3C1092D7
:104CA0009AA2A5A6A4A29DA08A7477756C63E50D4F
:104CB0001DB30A2D9B1F1C0481828391121DB21B00
:104CC0001C09A6A19D94928A706E731B1D120D1B68
:104CD0005E64CF2DB01F1C047D8288850E197E1F57
:104CE000989D43241C0BA38974746F635A55575DB8
:104CF0001F1B2D681A1DA00D1DF8101C0680889121
:104D00009BA2D1121C09938D7D656871726D8B0415
:104D10001E69E8232DE4191D10121F8186A50B1DA5
:104D2000C71A1E9BDE101C0790766C73746B5817A5
:104D30001C0462676EFC172D76091D1E102C048062
:104D4000878F3B051C06A39F9496887B092C0A72CB
:104D5000665C585A616C7882F2081E73BC1A1D801A
:104D6000033D17121EA0F6101C046E676F3A281D33
:104D70006D141D611E1DDD292DE61F200486878A06
:104D8000C31FA7A8771C1C058D77636823211DC44A
:104D9000141C04666A716D071DCF2A19A21C057FB9
:104DA000848B93731B1C0C9E9D928F886C6972720E
:104DB0006D698419166E851D6F291DF11C2E80F8F2
:104DC0002C3C0D9CA0A09E9B958A8971606A717392
:104DD000281DD2031D81052DDB181DBF211E8AEF62
:104DE0001D1C0A9C9EA0A49D9D8F6F6AB71D1E6905
:104DF0008B121F676E74091DF6101DC30A1F818771
:104E0000921F1DEE0A1C069F99919074342D1D82ED
:104E1000121D7E041D2B1F2D4B111DBD121C058460
:104E20008990975F102C0AA4A09D918F7D62666D7A
:104E300069241D1D061E6FA921115E2D95241D07D5
:104E40000D1DEC0F1F9A9D53121C046C626AB22D4B
:104E50002D302E1B767DF21DB32A1D5D2A2E8E8BE2
:104E6000171E99C6101C068C8C765E622C1F3E673E
:104E70007A1C1DC21B2DE81F1D040E1C108E959B55
:104E8000A0A09B999B938F896C666C6C13241DC7A3
:104E9000151E704F152E7C721B1DF9201E91680681
:104EA0001C089A9A9E9B919075FA151D18053D480D
:104EB0002211A02D67042E80D1251C10A0A29F993D
:104EC00097978B8A8165646B6E6C68790519262EBD
:104ED000774A201E8419041E8FA6121F9E99F01A6D
:104EE0002C058D8E75655F131DAD171DBF261E76B3
:104EF000A52A2D5D1711C21C04979CA17F1D2C07AC
:104F0000958B8B7B6063611E1D8B1E2DE80D2D9391
:104F10002C11822E8B69161C059F999593A0051C58
:104F2000076B646E726F6A78111DC0182DA12B1D5E
:104F3000F3211D50091C0C93999DA19C9898978E64
:104F40008F793F111D6F221D2B232D541F1D8A0D9C
:104F50001DB20D2F858A5B091C0A9C989798928F29
:104F600086686200281E6BD01A11C219431C04788F
:104F70007A7FFB241A94651DB3141C0994908888C9
:104F8000705F687027283D88201D2A2C1DE92F1D81
:104F900064121C0791959DA0A4A006281C078F8D64
:104FA0008366656D782715A61DE3111DE6231A7427
:104FB000671C05868D959E48031D53232C078E85FF
:104FC000876F606764051F6E7157132DB30425E367
:104FD0002DEF271C04999A969B102C0688887C68D4
:104FE000691508166C471D47042D640915251DF722
:104FF0002C1D191B1E93F5181C04858676072E1D83
:10500000E4073D3A102DC6251D96181DF82F1F9157
:10501000943C101E8B2F2C1DF12D1D3C2A1D2A2483
:105020003D6E2A1E773B0C1D47052DB1261D660DD2
:105030002D34241E8880051E7B6E181D92222D366D
:10504000232DFE182D55251DB606298F1D94111DE3
:105050003C0D1E7B741A2D2E091D2A061DB62C1917
:105060002B2E7F492C1D57053D72272E7F30111D99
:10507000E1041E788E0E1DCA132DBD091D88071D63
:10508000512C1DA9131DED212F84865B2C2D961408
:105090002E7983271DFE0E26798B11E81D25192EEA
:1050A000875E142DA01D1D7D201E86A7291D892C1D
:1050B00011411DBA131DDC151D75031E7E32031D23
:1050C00082111C168C8979686973818E9694887711
:1050D000675D5F666F7B868C8F9E232D5F0A1D63E5
:1050E000311E869F0B1F6868B6212D17241D93144F
:1050F0001DBA231D121C2D24192D94031D57141D98
:10510000E2061D4B191DEB141D22201E77590D3C84
:1051100005989FA09DF8151F837C9A0C1D200A1DE1
:1051200048221D28041DD61919C01C1E8D90888583
:105130008C979891806F6C77848D908B8174696166
:1051400059595F677181909AA0150C1DC0041DAD5F
:105150000D3C0478706924161F6C73340A1E985035
:10516000151D3B301E78BA062DD81E1D780A1DACC1
:105170002C2D28061D12262DEA301C04A1A29E719A
:10518000112DD70A1D68121D710B15EF2D38141D36
:1051900050301E7FF1121DA42E1C0B9182736B6A7E
:1051A0006F7E8E918D47122D140C1C0486909616DE
:1051B000172C05A0A2A098E6301C0A736B635958FF
:1051C0005B5D64710809115F3D291F1D082A1D0ED2
:1051D0000C2E77D7051E86C32D1D2B0D1E76AF23F3
:1051E0002F8F91DE0B1DFE161E8F632C1DE51D2ECD
:1051F0006F91231D460C1D63271D78241C077874AE
:105200006D73818F5E181C06746C6B74801A281D78
:105210001D0C1DD0251C0A7B85909AA5A8A5A199D7
:10522000251C1DE92C1D63131D34162D682D2F6FB1
:1052300074382E1D5E1B1F8B825F241E7970151D16
:105240004D2E1DBB182DCE1C2D601D1C0C8E8D945B
:10525000989C9FA1A19A8E8353072D2B0419C71DDB
:105260006D062DD7111C04757D7B56261E8AED0C0C
:105270001D500D1C06879195928A982D1E6F920DD8
:105280001C0587919CA5C3231DCE221C05847D741B
:105290006A5F042DA1041C056C6E757C91091D28A4
:1052A0000C1A83771D7F1F1DB91F1DC407280471A9
:1052B0006A6BD52F8386DD1E1F97976C331D56337F
:1052C000168BF31E8584141C046A6461E3191F683D
:1052D0006F44271C048A8E86770C2E84C50D1C040F
:1052E00072798632331D400A1C1275706E707A878F
:1052F0008F9AA5ABAAA7A2988D8078092E1E673C2D
:105300002D1D6C2D2C056A70787D6E091D19291DC7
:10531000DD251E7E232A1E8072142E7B912D1D6A90
:10532000321F7E86EB2B1D8B0D1D412C1F948FFE93
:10533000091E7DAF241D9C081E6912252DD9221D32
:1053400023181C057B7479872B271C0480746BDB66
:10535000141DB2271D8903180482756B0B128C6E05
:105360001C08ADACA3998B7D72A6221E602E0E1D6B
:10537000801F1D99042D531C1D9E061DFF0F1D80AF
:105380001C1D2A301D73161DF5061D2F032D7105DA
:105390001E9510181E99CE031F8B850C301C057EA0
:1053A0007B767101101DAD091D6B0F2DC42E1E786B
:1053B000661C1008909C998E7D706AEA2F84875F26
:1053C000081D561C140788919698989B7C1C0C9F6E
:1053D0009D978F8275675E595A5E9F2D2D501B1CBD
:1053E000047B7E84F1081E8CB4251C047A81870D11
:1053F0000C1D68281D8D1F1DDC041D08131D7A2F30
:105400002DFD091DC7202D0F131D243315161E68F1
:1054100060052E7122031D6C1D1C0771686B798855
:1054200091F51E1E83C4263DFA032D6C2B1DED1134
:105430002D0C271C0A94959695938E85786EF40C06
:105440001C095E5C5E626A717A84A3262DAE0D1E15
:10545000841E0D2D331E2E7BDE0C1DB7131E75D042
:105460000711341D0F251D95162C0B959496958EBE
:10547000867B6C6160181010047E7F79E21C056CDD
:105480007076819B1D1C077F8B8E887E78660C1D35
:10549000E3071D0A151E7BE2161DFF1B11331D2E8F
:1054A0002F1D591B1C04887C73FA292D1B2F15B343
:1054B0002E7F491A2DEE201D670E4DD8211E7E5BD2
:1054C000272D32042DF2262DE62A1D97171D1915BA
:1054D0001D160E1DE8262D30241C06726F696569A5
:1054E00003143DB5131E7B1F0D2DF5132D212C1D0F
:1054F0006D111DAC071DFF261DF20A1D8F2C1A8B86
:10550000052E7F782C1D74142D8C2F1DCC2D1DB0D5
:105510001E1DFD231E834B181E8262312DD20E2DBF
:1055200032052E7F270B1E901A1C1D71322C046B26
:105530007681CC2C1E8FA00E29D81DA10C1E807642
:10554000141C04676A6DBA321C04808586C0151D60
:1055500089291D8B221E82C50E1E88720E15272DCD
:10556000D1272D220F1D0C071DD91B2DCF0E1E7C00
:10557000FE092DDF1F1E7FF3151F85853F0F1DA41C
:10558000351F7C8110191F757DFD131C0C8B7A67EC
:10559000646D7B8C9BA3A39C110D2C0571676160CE
:1055A000CE081D91031C048E978F38211F847A3CEE
:1055B0002F1E6A68161D5D211E78DF051DEB211D5B
:1055C0005C0A1E99212F1C0E97929378707B7C7435
:1055D0006A605C5F69202E2D98242D84082D80340C
:1055E0001C04959CA4D1251C079B86696B6E6B6B74
:1055F000361F6066CA0D2DD5211DBD081D9D343D89
:10560000D92F1FA4A3F4272C0C76737B776D6357D7
:1056100052545D662F031D5F281D5C191C0484898C
:105620009213141C07AAA9A49A9B85BC141DA3134A
:105630001C04595A5FEB0E15942D23371DA9031F27
:10564000939A8B311FA09F5F351C0B6A69706F693D
:10565000645E5E61696F031D6E321D01092C068157
:1056600084878E96A02E1C089E9B94988172764407
:105670000A11401E66A6351E86B5151D412D1DEC6E
:10568000031DA43111C31C05A0979689ED101D665A
:10569000054E63D01015EC3DE5291DA50A1E9D663B
:1056A0000A1DCB301F907362091E6B09351C046202
:1056B000676DC7141DB4101E7BA4131C057E879252
:1056C0009B532F1D660A1F978755081C0570655D43
:1056D0005CC70A1DFB19192C21E41E8758132D4A9B
:1056E0002F1A9DE51C056D697271C71E1D01212EC3
:1056F0006E45242D650C1C097E83888F969CA2A381
:105700003F0D2C0B8F907B686F716B636062C409D7
:105710001D70183D850C1DC90D1E92370E1C04A06E
:105720009D99B0351C086B6D7672686262771E1D9C
:1057300067231DB6182D6E1C1D00081C0F949FA515
:10574000A7A5A39D918E73636C6E6A0E262C0665C9
:10575000666D767C11341DE52F1DA60F1C048A96FC
:10576000A01C1D1C0A9B8F8F856E737A756C231786
:105770001E6232133D2A221D70241DA4091292823A
:105780001409A19D938A8B736B75651E64E80A1DCD
:10579000301211622D0E251D66181E9143091D4BF6
:1057A000241C048F9082282B1E6CEA0E3F686C1517
:1057B000141DDC241D34251D4B0B1F989F5E1C1CE3
:1057C000049A918A01091E6C440A1E6715232DF361
:1057D0000E1D33201DDF2C1DB70F1404939BA12336
:1057E0001C0996888976636A6F6C64241F6B691440
:1057F000193D32201D041D1E8592121C069B9C998A
:1058000096949C2C176C6A241DF9181D512F1DEDC0
:10581000242D99192DCC0E1D860A1DFE2D10059ADA
:10582000948B8CE31E701C051D431211821DE7072B
:105830001DBC211C087A7D8589939DA472133C08A8
:1058400095898A8166676F4F2C1F6B6E37231D4FBA
:10585000221D74171DF52C1DC90B2C0BA39D9895AB
:105860008F878870656DA2091D69312E700C2C1D03
:10587000590D1D9B2A1DAB0C1C049C9F9DFA231CDB
:10588000048A8E80571F1D0D1E1D6E123A75C41D91
:1058900063201E7928042D3C1E1E9DB0261C068503
:1058A00083686572C70D1DB42C11821D83072DCD31
:1058B000341D52391691A51D1B13140591888C793E
:1058C000DE1DF7161D56152D020F1D7A2B1D3F15D7
:1058D0002E82CA0B1E9F811D1E96692B1D8A121DCA
:1058E000FF231DB5321D613619421DED0C1D281315
:1058F0001B8E92C91DE5091C058F888970AA0B2D86
:1059000064231E6DB6042D1B361D5A2621211A99BB
:10591000051D9E241C078F8D8063656E2C1C1F6CDB
:105920006B840D2D60092D05131D72101DEE251CB5
:105930000B9C9994908984856C616C56311E72859C
:10594000291D9A131D920D21401D562D1D37081D2E
:1059500051053C078F86877C696DFA292D511F1DE3
:10596000AC112DED1C1D74131D551B2E934E191DCE
:10597000342C1C057872777785271D1C2A1D37204B
:105980001D85342D590F1DAD031F9492213A1C041F
:105990008E8B86F2251DEA171D27201DC50C1D1AAA
:1059A0001F2D690B1D7C251C068689909491932AD6
:1059B0001E8CCB123E709F331D381D4DC70B1D250D
:1059C0001E1DF10B1D71071E866B071D8C191D0F07
:1059D000052D70231D8E081D5E142D0E0F1DA82E83
:1059E0001DA1182C047E7F7CCD2C1D42271E782CF7
:1059F00016199A1DD9361D84312D30072D30051DFD
:105A000044071E7D18102DF3221A855B1D050D1D00
:105A1000CB312DE90C1D6D092DA5171D370A1DD899
:105A2000121DB92C1D87271D5B1B19181DDE132D98
:105A3000DB281D7E311C04726A6BCE0A2E82430A5B
:105A40001E8975331D141221881DC5361C0B7A6DF5
:105A50006D7786939D9D8A7613271E72540F2DDBDA
:105A6000051E893F142F8382BA341DE1281D6B3334
:105A70001D1F301DC8031F9594981D2D771E2D6F77
:105A8000392D1A1F1C047B838A27151D0D382C0401
:105A900066666ECB301DBC0F1C048E8C87102D1ECD
:105AA00090E9261E7EC5371D4C041F6F77B7121D67
:105AB00032311F857BAF231C04797A8648381C0C51
:105AC0008D7B717077858A89827264CC031E6EE04B
:105AD0002C1E905D071E921F311DAF2D1C04827A73
