:020000040800F2
:100000004808002089010008BD1E0008491B00089F
:10001000B91E0008AF0200084523000800000000D8
:10002000000000000000000000000000ED1E0008BD
:10003000B302000800000000C11E0008EF1E000807
:10004000A3010008A3010008A3010008A301000800
:10005000A3010008A3010008A3010008A3010008F0
:10006000A3010008A3010008A3010008A3010008E0
:10007000A3010008A3010008A3010008A3010008D0
:10008000A3010008A3010008A3010008A3010008C0
:10009000A3010008A3010008A3010008A3010008B0
:1000A000A3010008A3010008A3010008A3010008A0
:1000B000A3010008611F0008A3010008A3010008B4
:1000C000A3010008A3010008A3010008A301000880
:1000D000A3010008A3010008A3010008A301000870
:1000E000A3010008A3010008A301000800F002F822
:1000F00000F03AF80AA090E8000C82448344AAF188
:100100000107DA4501D100F02FF8AFF2090EBAE885
:100110000F0013F0010F18BFFB1A43F0010318473B
:10012000103C0000303C0000103A24BF78C878C171
:10013000FAD8520724BF30C830C144BF04680C60ED
:10014000704700000023002400250026103A28BF35
:1001500078C1FBD8520728BF30C148BF0B60704739
:100160001FB51FBD10B510BD00F06CF81146FFF7AC
:10017000F7FF02F08FF900F08AF803B4FFF7F2FFFF
:1001800003BC00F08DF8000009488047094800478B
:10019000FEE7FEE7FEE7FEE7FEE7FEE7FEE7FEE737
:1001A000FEE7FEE704480549054A064B7047000094
:1001B0005D1F0008ED0000084802002048080020EC
:1001C00048040020480400204FF0000200B5134608
:1001D00094469646203922BFA0E80C50A0E80C5067
:1001E000B1F12001BFF4F7AF090728BFA0E80C5018
:1001F00048BF0CC05DF804EB890028BF40F8042B11
:1002000008BF704748BF20F8022B11F0804F18BF7D
:1002100000F8012B704770477047704710B500F029
:1002200009F8006810BD10B5044600F003F804603A
:1002300010BD000000487047E401002000487047EE
:10024000E40100207546FFF7F9FFAE460500694658
:10025000534620F00700854618B020B5FFF7A2FFEF
:10026000BDE820404FF000064FF000074FF00008B7
:100270004FF0000B21F00701AC46ACE8C009ACE838
:10028000C009ACE8C009ACE8C0098D46704710B59C
:100290000446AFF300802046BDE81040FFF76DBF75
:1002A00001491820ABBEFEE726000200704700BFE0
:1002B000FEE7704772B600BFFEE730B504460D4654
:1002C00000222946204600F001F830BDF0B5034673
:1002D000012500241148407A01281CDC00200F4E23
:1002E000767A0E4FB8553846467A001D40F82630CB
:1002F000001F467A083082553E46707A461C7E7250
:10030000044604F1300008703A2048702F208870AD
:100310000020C87000252846F0BD0000D80100204C
:1003200070B5044600F0A6F906462546681C10B1D3
:1003300004480078054400BF00F09CF9801BA842E7
:10034000FAD370BD380000202DE9F847034600229B
:1003500094466EE14FF0010808FA02F4D1F80080EB
:1003600008EA0400A0427DD1DFF8DCA2D1F80480C5
:10037000A8EB0A09D0453AD014DCB8F1030F50D0ED
:1003800009DCB8F1000F31D0B8F1010F1CD0B8F181
:10039000020F49D120E0B8F1110F18D0B8F1120FB7
:1003A00042D11EE0B9F5881F25D006DCB9F5803FA3
:1003B00020D0B9F5801F37D11AE0B9F5001F18D049
:1003C000B9F5041F30D117E0D1F80CC02DE0D1F8F9
:1003D0000C8008F1040C28E0D1F80C8008F1080C1E
:1003E00023E0D1F80C8008F10C0C1EE000BF00BF28
:1003F00000BF00BF00BF00BFD1F80880B8F1000FF8
:1004000002D14FF0040C0BE0D1F80880B8F1010FD5
:1004100003D14FF0080C1C6102E04FF0080C5C6146
:1004200003E04FF0000C00E000BF00BFFF2801D840
:10043000984601E003F104084646FF2802D84FEA37
:10044000820803E0A2F108084FEA88084746D6F878
:1004500000804FF00F0909FA07F928EA09080CFA99
:1004600007F900E088E048EA0908C6F80080D1F8FA
:10047000048008F08058B8F1805F7DD100BFDFF8BC
:10048000CC81D8F8188048F00108DFF8C091C9F88D
:100490001880C846D8F8188008F00108CDF8008008
:1004A00000BF00BF4FEAB9384FEA920958F8295007
:1004B0004FEA82784FEA18794FF00F0808FA09F8E6
:1004C00025EA0805DFF88881434502D14FF000088E
:1004D00016E0DFF88081434502D14FF001080FE0BC
:1004E000DFF87481434502D14FF0020808E0DFF8DD
:1004F0006C81434502D14FF0030801E04FF004083E
:100500004FEA82794FEA197908FA09F848EA0505AD
:10051000DFF84C814FEA920948F82950D1F804805D
:1005200008F48018B8F5801F0AD1DFF83881D8F8B0
:10053000008048EA0008DFF82C91C9F8008009E043
:10054000DFF82081D8F8008028EA0008DFF814914D
:10055000C9F80080D1F8048008F40018B8F5001F2D
:1005600010D1DFF8008108F10408D8F8008048EACB
:100570000008DFF8F09000E05AE009F10409C9F83A
:1005800000800DE0DFF8DC8008F10408D8F8008076
:1005900028EA0008DFF8CC9009F10409C9F80080C6
:1005A000D1F8048008F40038B8F5003F0ED1DFF828
:1005B000B480A8F10408D8F8008048EA0008DFF801
:1005C000A490A9F10409C9F800800DE0DFF8948037
:1005D000A8F10408D8F8008028EA0008DFF8849021
:1005E000A9F10409C9F80080D1F8048008F4803822
:1005F000B8F5803F0ED1DFF86C80A8F10808D8F874
:10060000008048EA0008DFF85C90A9F10809C9F801
:1006100000800DE0DFF84C80A8F10808D8F80080D1
:1006200028EA0008DFF83C90A9F10809C9F8008021
:10063000521CD1F8008028FA02F8B8F1000F7FF4BC
:1006400089AEBDE8F88700000000111000100240DC
:1006500000080140000C014000100140001401405E
:1006600008000140080401400AB1016101E00B04E7
:1006700003617047014800687047000030000020A7
:100680000348006803490978084401490860704735
:10069000300000203800002010B50848006840F005
:1006A000100006490860032000F0A8F80F2000F0B1
:1006B00007F800F02BF8002010BD000000200240D9
:1006C00070B504460E4800784FF47A71B1FBF0F033
:1006D0000C490968B1FBF0F5284600F09BFC08B115
:1006E000012070BD102C07D200222146501E00F0C0
:1006F00047F80548046001E00120F2E70020F0E738
:10070000380000203C0000203400002008B500BF65
:100710001148806940F001000F49886108468069EE
:1007200000F00100009000BF00BF00BF0846C06994
:1007300040F08050C8610846C06900F080500090C9
:1007400000BF00BF00BF0549486820F0E06040F0EE
:100750000070486000BF08BD00100240000001406A
:1007600001460846002809DB00F01F0301229A40D9
:1007700043099B0003F1E023C3F8002100BF704749
:100780002DE9F05F80460D461646002701F0F0FD8A
:10079000074639462A46334601F00700C0F1070AEA
:1007A000BAF1040F02D94FF0040A01E0C0F1070AC0
:1007B000D14600F1040ABAF1070F02D24FF0000A45
:1007C00001E0A0F1030AD4464FF0010A0AFA09FA3F
:1007D000AAF1010A0AEA020A0AFA0CFA4FF0010B1E
:1007E0000BFA0CFBABF1010B0BEA030B4AEA0B040F
:1007F0002146404601F0C4FDBDE8F09F00BF00F077
:100800000702064B19684FF6FF031940044B0B43D0
:1008100043EA0221014B196000BF70470CED00E074
:100820000000FA0570B504460D460CB9012070BDF4
:100830005A48006800F00700A8420ED257480068E6
:1008400020F007002843554908600846006800F07A
:100850000700A84201D00120E9E7207800F002005B
:1008600002281DD1207800F00400042805D14C484E
:10087000406840F4E0604A494860207800F0080091
:10088000082805D14648406840F460504449486013
:100890004348406820F0F000A168084340494860A0
:1008A000207800F0010078B36068012806D13C4848
:1008B000006800F4003090B90120B8E760680228B1
:1008C00006D13748006800F0007040B90120AEE75B
:1008D0003348006800F0020008B90120A7E730485B
:1008E000406820F00300616808432D494860FFF725
:1008F000C1FE064609E0FFF7BDFE801B41F28831CC
:10090000884202D9032092E707E02548406800F0BA
:100910000C006168B0EB810FEDD12048006800F059
:100920000700A8420ED91D48006820F007002843A0
:100930001A4908600846006800F00700A84201D084
:10094000012074E7207800F00400042807D114483F
:10095000406820F4E060E16808431149486020786D
:1009600000F00800082808D10D48406820F46050C5
:10097000216940EAC1000A49486000F03FF808498F
:100980004968C1F30311074A515CC8400649086031
:1009900006480068FFF794FE002048E70020024068
:1009A00000100240823C00083C000020340000207F
:1009B00001480068704700003C00002000B5FFF7C8
:1009C000F7FF04494968C1F30221034A515CC8405A
:1009D00000BD000000100240923C000800B5FFF787
:1009E000E7FF04494968C1F3C221034A515CC8408A
:1009F00000BD000000100240923C000870B50021CC
:100A00000022002400230020134D696801F00C052A
:100A1000F5B1042D02D0082D19D101E00F4819E0DD
:100A20000F4DC1F38346AB5D01F4803555B10A4DDE
:100A30006D68C5F340450B4E725D084D5D43B5FBD7
:100A4000F2F402E0084D03FB05F4204602E000BF8B
:100A5000024800BF00BF70BD0010024000127A00C3
:100A6000703C0008803C000800093D00F8B50446D1
:100A70000CB90120F8BD207800F00100002878D0E2
:100A8000F848406800F00C0004280CD0F548406895
:100A900000F00C00082811D1F248406800F48030C2
:100AA000B0F5803F0AD1EF48006800F4003000281C
:100AB0005FD0606800285CD10120DBE700BF606880
:100AC000B0F5803F06D1E748006840F48030E54942
:100AD000086028E0606858B9E248006820F4803077
:100AE000E04908600846006820F4802008601AE0A9
:100AF0006068B0F5A02F0BD1DA48006840F4802080
:100B0000D84908600846006840F4803008600AE070
:100B1000D448006820F48030D24908600846006854
:100B200020F48020086000BF606888B1FFF7A2FD54
:100B3000054606E0FFF79EFD401B642801D903200F
:100B400098E7C848006800F400300028F2D010E0B0
:100B5000FFF790FD054606E0FFF78CFD401B64287B
:100B600001D9032086E7BF48006800F40030002860
:100B7000F2D1207800F00200022857D1B94840682D
:100B800000F00C0050B1B748406800F00C00082895
:100B900018D1B448406800F4803098B9B148006872
:100BA00000F0020020B12069012801D0012061E796
:100BB000AC48006820F0F800616940EAC100A9492A
:100BC000086033E02069E8B10120A7490860FFF719
:100BD00051FD054606E0FFF74DFD401B022801D9F7
:100BE000032047E79F48006800F002000028F2D089
:100BF0009C48006820F0F800616940EAC10099490A
:100C0000086013E0002098490860FFF733FD0546AF
:100C100006E0FFF72FFD401B022801D9032029E73A
:100C20009048006800F002000028F2D1207800F01F
:100C3000080008282DD1A069B8B101208B490860AF
:100C4000FFF718FD054606E0FFF714FD401B0228DC
:100C500001D903200EE78348406A00F00200002813
:100C6000F2D0012001F02EF913E000207F49086046
:100C7000FFF700FD054606E0FFF7FCFC401B0228DD
:100C800001D90320F6E67748406A00F00200002808
:100C9000F2D1207800F00400042873D100277148B5
:100CA000C06900F0805070B900BF6E48C06940F064
:100CB00080506C49C8610846C06900F080500090BF
:100CC00000BF00BF01276A48006800F48070B0B917
:100CD0006748006840F4807065490860FFF7CAFC07
:100CE000054606E0FFF7C6FC401B642801D9032037
:100CF000C0E65F48006800F480700028F2D000BFB2
:100D0000E068012806D15748006A40F001005549C3
:100D1000086227E0E06858B95248006A20F00100F4
:100D2000504908620846006A20F00400086219E091
:100D3000E06805280BD14B48006A40F0040049499F
:100D400008620846006A40F0010008620AE045486F
:100D5000006A20F00100434908620846006A20F05A
:100D60000400086200BFE068A0B1FFF783FC0546FD
:100D700009E0FFF77FFC401B41F28831884202D92D
:100D8000032077E622E03748006A00F002000028DE
:100D9000EFD012E0FFF76EFC054608E0FFF76AFCB3
:100DA000401B41F28831884201D9032062E62D4878
:100DB000006A00F002000028F0D1012F05D1294877
:100DC000C06920F080502749C86100BFE069C8B3FE
:100DD0002448406800F00C00082860D0E069022830
:100DE00048D1002020490866FFF744FC054606E08C
:100DF000FFF740FC401B022801D903203AE61948BE
:100E0000006800F000700028F2D1206AB0F5803F41
:100E100007D11448406820F40030A1680843114904
:100E20004860D4E9080108430E49496821F4741167
:100E300008430C49486001200B490866FFF71AFC7B
:100E4000054607E03DE0FFF715FC401B022801D9ED
:100E500003200FE60348006800F000700028F2D07D
:100E60002FE0000000100240000042428004424295
:100E700000700040002014490866FFF7FBFB0546A0
:100E800006E0FFF7F7FB401B022801D90320F1E53C
:100E90000E48006800F000700028F2D111E0E0690F
:100EA000012800D1E6E50948466806F48031206A49
:100EB000814204D106F47011606A814201D00120A0
:100EC000D8E50020D6E500000000424200100240B4
:100ED00010B504460CB9012010BD606A38B96068CD
:100EE000B0F5827F00D105E00021E16102E0002140
:100EF000216161610021A16294F8510028B90020AC
:100F000084F85000204600F043F8022084F8510095
:100F10002068006820F0400021680860A08800F484
:100F20008270218901F404410843A18901F4006120
:100F30000843217C01F002010843217D01F00101F9
:100F40000843218B01F400710843217F01F038012F
:100F500008432021095D01F080010843218D01F43F
:100F600000510843216808600421A06901EA10408B
:100F7000216848602068C06920F400602168C86169
:100F800000206065012084F851000020A4E70000E3
:100F900010B586B00446002002900390049005909E
:100FA0001949206888422DD100BF1848806940F453
:100FB0008050164988610846806900F4805001908D
:100FC00000BF00BF00BF0846806940F00400886190
:100FD0000846806900F00400019000BF00BFA02017
:100FE0000290022003900320059002A90848FFF711
:100FF000ABF94020029000200390049002A904481D
:10100000FFF7A2F906B010BD003001400010024009
:101010000008014070B504462546681EB0F1807F87
:1010200001D301200FE0681E4FF0E02148610F213D
:101030004FF0FF3001F0A4F900204FF0E02188616B
:1010400007200861002070BD7047704730B5024628
:101050000B4600BF92F83C00012801D1022030BDB0
:10106000012082F83C0000BF022082F83D00106899
:1010700044681068816824F070041868044310689C
:101080004460104D1068A8420BD01068B0F1804F3A
:1010900007D00D4D1068A84203D00C4D1068A8422F
:1010A00005D121F08001586801431068816001205A
:1010B00082F83D0000BF002082F83C0000BF00BF66
:1010C000CDE70000002C0140000400400008004073
:1010D00010B504460CB9012010BD94F83D0028B9A4
:1010E000002084F83C00204600F026F8022084F816
:1010F0003D00211D206800F03BFF012084F84600E0
:1011000000BF84F83E0001213F20015540200155D9
:101110004120015500BF00BF012084F84200432058
:101120000155442001554520015500BF012084F898
:101130003D000020D0E7000038B504462068B0F13B
:10114000804F0DD100BF1448C06940F00100124922
:10115000C8610846C06900F00100009000BF19E0B6
:101160000E492068884215D100BF0B48C06940F085
:1011700002000949C8610846C06900F002000090F9
:1011800000BF00BF002211461D20FFF7F9FA1D2005
:10119000FFF7E6FA38BD00000010024000040040EE
:1011A000014691F83D00012801D00120704702203E
:1011B00081F83D000868C06840F001000B68D86005
:1011C000124B086898420BD00868B0F1804F07D0E6
:1011D0000F4B0868984203D00E4B086898420CD118
:1011E0000868806800F00702062A0CD008680068CA
:1011F00040F001000B68186005E00868006840F0E6
:1012000001000B6818600020D0E70000002C0140AE
:1012100000040040000800402DE9F04104460D465E
:10122000002700BF94F83C00012802D10220BDE84D
:10123000F081012084F83C0000BF022084F83D00CA
:101240002068866826F0770626F47F462068866048
:101250002868502833D00CDC202850D004DC00282B
:101260004BD0102851D149E0302849D040284CD1EA
:1012700039E060282DD0702807D0B0F5805F03D00A
:10128000B0F5005F41D10DE041E0D5E902136A6895
:10129000206800F0C0FE2068866846F07706206867
:1012A000866034E0D5E902136A68206800F0B3FE76
:1012B0002068806840F480402168886027E0EA6800
:1012C0006968206800F078FF5021206800F0AEFEC9
:1012D0001DE0EA686968206800F081FF60212068ED
:1012E00000F0A4FE13E0EA686968206800F064FF7B
:1012F0004021206800F09AFE09E000BF00BF00BF57
:101300002968206800F092FE01E0012700BF00BFBD
:10131000012084F83D0000BF002084F83C0000BF9D
:10132000384684E72DE9F04104460D4614B9012002
:10133000BDE8F08194F83D0028B9002084F83C0015
:10134000204600F051F8022084F83D0020688068B3
:1013500044F20701884321688860211D206800F05D
:1013600007FE2068D0F80880206886692068076A30
:10137000286840EA080840F203308643A969A86853
:1013800040EA0120064340F60C4086434FF2F0004D
:101390008643E969E86840EA0120064328690001BC
:1013A000296A40EA0130064327F022076969686824
:1013B00040EA011007432068C0F808802068866171
:1013C00020680762012084F8460084F83E0001216D
:1013D0003F200155012084F842004320015501209F
:1013E00084F83D000020A3E710B586B00446002035
:1013F000029003900490059015492068884224D1FA
:1014000000BF1448C06940F004001249C861084692
:10141000C06900F00400019000BF00BF00BF084693
:10142000806940F0080088610846806900F0080083
:10143000019000BF00BFC020029000200390012057
:10144000049002A90448FEF77FFF06B010BD00001B
:101450000008004000100240000C01402DE9F0435C
:1014600004460D4694F83E603F20075D94F84280A4
:10147000432010F804906DB9012E02D1B8F1010F8C
:1014800002D00120BDE8F083022084F83E0084F8F9
:10149000420025E0042D0CD1012F02D1B9F1010F3A
:1014A00001D00120EEE702213F20015543200155E4
:1014B00016E0012E07D1012F05D1B8F1010F02D19D
:1014C000B9F1010F01D00120DCE7022084F83E00D1
:1014D00002213F200155022084F84200432001559B
:1014E00015B1042D0CD105E001220021206800F087
:1014F00081FD10E001220421206800F07BFD0AE05C
:1015000001220021206800F075FD012204212068DD
:1015100000F070FD00BF00BF2068006840F00100CF
:10152000216808600020ADE7704770B50446206868
:10153000C5682068066906F00200022819D105F086
:101540000200022815D1401F216808610120207780
:101550002068806900F0030018B12046FFF7E4FF1F
:1015600005E0204600F0C2F8204600F076F90020A1
:10157000207706F00400042819D105F0040004289F
:1015800015D1C04321680861022020772068806956
:1015900000F4407018B12046FFF7C6FF05E0204672
:1015A00000F0A4F8204600F058F90020207706F05B
:1015B0000800082819D105F00800082815D1C043F3
:1015C00021680861042020772068C06900F00300CA
:1015D00018B12046FFF7A8FF05E0204600F086F886
:1015E000204600F03AF90020207706F0100010287D
:1015F00019D105F01000102815D1C04321680861E9
:10160000082020772068C06900F4407018B1204697
:10161000FFF78AFF05E0204600F068F8204600F05A
:101620001CF90020207706F0010048B105F0010008
:1016300030B16FF0010021680861204600F0C6F962
:1016400006F08000802809D105F08000802805D1AF
:10165000C043216808612046FFF7F6FC06F0400011
:10166000402809D105F04000402805D1C043216839
:101670000861204600F0E8F906F02000202809D192
:1016800005F02000202805D1C043216808612046CC
:10169000FFF7DBFC70BD000010B586B004460020EB
:1016A00002900390049005902068B0F1804F16D10D
:1016B00000BF0C48806940F004000A498861084670
:1016C000806900F00400019000BF00BF0720029075
:1016D00002200390059002A90348FEF735FE06B0EC
:1016E00010BD0000001002400008014070472DE9C5
:1016F000F04104460D461646002700BF94F83C0012
:10170000012802D10220BDE8F081012084F83C00CC
:1017100000BF36B1042E1BD0082E31D00C2E5ED166
:1017200045E02946206800F08BFC2068806940F085
:101730000800216888612068806920F00400216821
:10174000886120688069296908432168886148E0C8
:101750002946206800F0A4FC2068806940F40060FD
:10176000216888612068806920F480602168886130
:1017700020688069296940EA01202168886130E099
:101780002946206800F0C0FC2068C06940F00800CD
:101790002168C8612068C06920F004002168C86120
:1017A0002068C069296908432168C86119E0294691
:1017B000206800F0DDFC2068C06940F4006021680A
:1017C000C8612068C06920F480602168C861206811
:1017D000C069296940EA01202168C86101E0012748
:1017E00000BF00BF00BF002084F83C0000BF3846A7
:1017F00089E710B504460CB9012010BD94F83D00EE
:1018000028B9002084F83C00204600F025F802208A
:1018100084F83D00211D206800F0AAFB012084F817
:10182000460000BF84F83E0001213F2001554020C2
:1018300001554120015500BF00BF012084F842003E
:1018400043200155442001554520015500BF01208A
:1018500084F83D000020D0E77047704770B504461B
:101860000D4615B994F83E000BE0042D02D13F203F
:10187000005D06E0082D02D14020005D01E041201E
:10188000005D012801D0012070BD1DB9022084F83F
:101890003E000EE0042D03D102213F20015508E057
:1018A000082D03D102214020015502E002214120F0
:1018B000015501222946206800F09CFB1949206847
:1018C000884201D1012000E0002028B12068406C4E
:1018D00040F40040216848641249206888420BD0D7
:1018E0002068B0F1804F07D00F492068884203D0AC
:1018F0000E49206888420CD12068806800F00706F5
:10190000062E0CD02068006840F0010021680860B5
:1019100005E02068006840F00100216808600020B0
:10192000B2E70000002C0140000400400008004025
:1019300030B504460D4600222946206800F05AFBC7
:1019400021492068884201D1012000E0002090B1A7
:1019500000BF2068006A41F21111084050B92068A8
:10196000006A8910084028B92068406C20F40040C3
:101970002168486400BF00BF2068006A41F211116D
:10198000084050B92068006A8910084028B92068CA
:10199000006820F001002168086000BF1DB9012027
:1019A00084F83E000EE0042D03D101213F200155B3
:1019B00008E0082D03D101214020015502E001215A
:1019C00041200155002030BD002C01400146194A3C
:1019D000086890422CD1184A1288521C12B2164B39
:1019E0001A801A461288022A01D100221A80134A4C
:1019F0001268526A02F5967210B2114A0E4BB3F990
:101A00000030D25C42434FF4FA7392FBF3F20D4B79
:101A10001B685A630A4A084BB3F90030D25C424350
:101A20004FF4FA7392FBF3F2064B1B689A6300BF04
:101A300070470000000400402E00002048010020F4
:101A40002C000020B8000020704710B504460CB9E7
:101A5000012010BDA06900B100E000BF94F8410072
:101A600028B9002084F84000204600F029F82420FE
:101A700084F841002068C06820F400502168C860E4
:101A8000204600F0C1FB2068006920F490402168E6
:101A900008612068406920F02A00216848612068B8
:101AA000C06840F400502168C860002060642020B5
:101AB00084F8410084F842000020606300BFC8E75A
:101AC00010B586B004460020029003900490059063
:101AD0001A49206888422ED100BF1948806940F415
:101AE0008040174988610846806900F48040019071
:101AF00000BF00BF00BF0846806940F00400886155
:101B00000846806900F00400019000BF00BF48153E
:101B10000290022003900320059002A90948FEF7D5
:101B200013FC4FF48060029000200390049002A9FF
:101B30000448FEF709FC06B010BD00000038014063
:101B4000001002400008014000BFFEE710B5034945
:101B50000348FEF7B2FB0349087010BD590000208E
:101B6000440000205800002000B585B000200190FE
:101B700002900390049000BF3F48806940F010003D
:101B80003D4988610846806900F01000009000BF60
:101B900000BF00BF0846806940F020008861084609
:101BA000806900F02000009000BF00BF00BF084621
:101BB000806940F0040088610846806900F00400F4
:101BC000009000BF00BF00BF0846806940F00800D9
:101BD00088610846806900F00800009000BF00BFDF
:101BE00000224FF400512548FEF73EFD0122082156
:101BF0002348FEF739FD00224FF440412148FEF70B
:101C000033FD4FF40050019001200290002003901A
:101C10000220049001A91948FEF796FB08200190C4
:101C20000120029003900220049001A91448FEF7BD
:101C30008BFB03200190002002900120039001A95A
:101C40001048FEF781FB43F604400190002002900B
:101C5000039001A90B48FEF777FB4FF44040019039
:101C600001200290002003900220049001A9054861
:101C7000FEF76AFB05B000BD0010024000100140F5
:101C800000080140000C014010B50E480E490860E4
:101C90004FF48270486000210B488160C16001618F
:101CA00041614FF4007181613821C16100210162FD
:101CB000416281620A21C162FFF70AF908B1FEF7A9
:101CC000F9FA10BD003001406000002000B58DB071
:101CD000002009900A900B900C90079008901C210E
:101CE0006846FEF771FA4FF08040294908600020ED
:101CF0004860002126488160FF21C1600021016108
:101D000080218161FFF7E4F908B1FEF7D3FA4FF4BF
:101D10008050099009A91E48FFF77EFA08B1FEF726
:101D2000C9FA1B48FFF765FD08B1FEF7C3FA0020AA
:101D30000790089007A91648FFF788F908B1FEF741
:101D4000B9FA6020009000200190029004200490D5
:101D5000002269460E48FFF7CAFC08B1FEF7AAFA4E
:101D6000042269460A48FFF7C2FC08B1FEF7A2FA4E
:101D700000200490082269460548FFF7B8FC08B126
:101D8000FEF798FA0248FFF787FC0DB000BD00008F
:101D9000B800002000B587B00020039004900590A3
:101DA0000690019002901448144908601120486080
:101DB00000211248816040F29A21C1600021016136
:101DC0008161FFF785F908B1FEF774FA4FF480508E
:101DD000039003A90948FFF71FFA08B1FEF76AFA52
:101DE00000200190029001A90448FFF72FF908B1E3
:101DF000FEF760FA07B000BD0004004000010020BB
:101E000000B58BB0242102A8FEF7DEF90020009077
:101E100001901948194908600020486000211748BE
:101E200081604FF6FF71C160002101618161032073
:101E300002900020039001200490002005900F20C4
:101E400006900020079001200890002009900F20A4
:101E50000A9002A90948FFF765FA08B1FEF72AFAC5
:101E600000200090019069460448FFF7EFF808B1A0
:101E7000FEF720FA0BB000BD00080040480100202A
:101E800010B50B480B4908604FF4E1304860002161
:101E900008488160C16001610C21416100218161BC
:101EA000C161FFF7D2FD08B1FEF704FA10BD0000D2
:101EB000003801409001002000BFFEE700BFFEE7B0
:101EC0007047000008B508490968C9084FF47A72DC
:101ED000B1FBF2F14143009100BF00BF00994A1EDF
:101EE00000920029F9D108BD3C000020704710B5D0
:101EF000FEF7C6FB10BD00B58FB0282105A8FEF780
:101F000063F914216846FEF75FF90120059000048B
:101F10000690002007900120099002200C90C10338
:101F20000D914FF4E0110E9105A8FEF79FFD08B149
:101F3000FEF7C0F90F2000900220019000200290CF
:101F40004FF4806003900020049002216846FEF761
:101F500069FC08B1FEF7AEF90FB000BD7047000094
:101F600010B50248FFF7E1FA10BD000000010020A3
:101F700010B502681C4B984208D0B0F1804F05D0D4
:101F80001A4B984202D01A4B984203D122F07002A9
:101F90004B681A43144B984208D0B0F1804F05D0DB
:101FA000124B984202D0124B984203D122F4407255
:101FB000CB681A4322F080034C6943EA04020260B2
:101FC0008B68C3620B688362074B984201D10B692F
:101FD000036301234361036903F001031BB1036938
:101FE00023F00103036110BD002C014000040040F8
:101FF0000008004030B501F01F05012404FA05F384
:10200000046A9C430462046A01F01F0502FA05F5A4
:102010002C43046230BD30B50C46816821F47F4109
:1020200042EA032525432943816030BD0A46816881
:1020300021F0700142F007031943816070470000EE
:1020400030B5026A056A25F00105056243688469B6
:1020500024F0700424F003040D682C4322F00202E3
:102060008D682A430D4DA84206D100BF22F0080218
:10207000CD682A4322F00402084DA84207D123F478
:10208000807323F400734D692B438D692B434360A8
:1020900084614D684563026230BD0000002C014040
:1020A00030B5026A056A25F0100505624368846947
:1020B00024F4E04424F440740D6844EA052422F03A
:1020C00020028D6842EA05120E4DA84207D100BFDA
:1020D00022F08002CD6842EA051222F04002094D4A
:1020E000A84209D123F4806323F400634D6943EAD5
:1020F00085038D6943EA8503436084614D68856388
:10210000026230BD002C014030B5026A056A25F438
:10211000807505624368C46924F0700424F00304E8
:102120000D682C4322F400728D6842EA05220F4D9F
:10213000A84207D100BF22F40062CD6842EA05221E
:1021400022F48062094DA84209D123F4805323F47C
:1021500000534D6943EA05138D6943EA0513436053
:10216000C4614D68C563026230BD0000002C0140AF
:1021700030B5036A056A25F4805505624468C26972
:1021800022F4E04222F440720D6842EA052223F470
:1021900000538D6843EA0533064DA84204D124F468
:1021A00080444D6944EA85144460C2614D68056409
:1021B000036230BD002C014030B50B461446026A64
:1021C000056A25F001050562816921F0F00141EA07
:1021D000041122F00A021A438161026230BD30B557
:1021E0000B461446026A056A25F0100505628169EE
:1021F00021F4704141EA043122F0A00242EA0312C4
:102200008161026230BD000070B504462168096931
:1022100021F44051E2681143226811612269A168EA
:102220001143626941EA02052168C96841F20C6202
:10223000914329432268D1602168496921F44071A2
:10224000A2691143226851612D4A2168914202D14D
:10225000FEF7C4FB01E0FEF7B1FB00EBC00101EBB0
:10226000001162689200B1FBF2F100EBC00202EBD8
:10227000001263689B00B2FBF3F26423B2FBF3F23B
:1022800002EBC20303EB0212A1EB8201322202EB4A
:1022900001116422B1FBF2F101F0F00100EBC00288
:1022A00002EB001263689B00B2FBF3F26423B2FB03
:1022B000F3F201EB021200EBC00101EB00116368C5
:1022C0009B00B1FBF3F100EBC00303EB0013666866
:1022D000B600B3FBF6F36426B3FBF6F303EBC306D9
:1022E00006EB0313A1EB8301322303EB01116423FB
:1022F000B1FBF3F101F00F0111442268916070BD50
:102300000038014001460120024A10701046007852
:10231000704700004000002010B50346012010BDAA
:1023200010B50446002010BD01460120024A10707D
:1023300010460078704700004000002010B50446A9
:10234000002010BD00BFFEE7490050EAC12018BFC1
:1023500004204A0D18BF40F0010040F2FF72B2EBBA
:10236000515F08BF40F00200012808BF05207047F8
:1023700002480068C0F30220704700000CED00E046
:1023800010B5002804DB0A07130E054A135406E0B3
:102390000A07140E034A00F00F031B1FD45410BD8C
:1023A00000E400E018ED00E02DE9F0414F1E00EBE5
:1023B000C7010446D1E9000115461E4637F0060262
:1023C0000DD02A46334601F0CBF87F1E04EBC7033D
:1023D000D3E9002300F02EFE37F00602F1D1022FE0
:1023E00025D0042F13D0062F18BFBDE8F0812A4650
:1023F000334601F0B5F8D4E90A2300F01BFE2A4663
:10240000334601F0ADF8D4E9082300F013FE2A4664
:10241000334601F0A5F8D4E9062300F00BFE2A4666
:10242000334601F09DF8D4E9042300F003FE2A4668
:10243000334601F095F8D4E9022300F0FBFD2A466B
:10244000334601F08DF8D4E90023BDE8F04100F0F7
:10245000F1BD0000002213461046014900F0A6BE5F
:102460000000F03F00F0E6BD002213461046114682
:1024700000F09CBE40F2013200204FF0E04101F03C
:10248000B1BB0000024A0020110701F0ABBB000005
:1024900001FDFFFF88B0FEF7FFF8FFF72CFDFFF707
:1024A00063FBFFF713FCFFF7EBFCFFF7EDFBFFF718
:1024B0004DFBFFF7A5FCFFF76DFC00214848FFF737
:1024C000CDF904214648FFF7C9F94648FEF768FEF2
:1024D0003C214548FEF7C2FF81E0444800682028BF
:1024E00002D1002041490860414840490968405CE8
:1024F000404908600846006800F0DFFF804600227F
:102500003D4B01F053FA00223C4BCDE9000100F0B5
:102510004DFE02460B46CDE9020100204FF08041FE
:1025200000F076F806460022354B01F019F800223B
:102530004FF08043CDE9040101F012F80446002277
:102540004FF0804300F032FECDE9060100F086FF37
:102550002C4908600846006800F0AFFF0446224698
:102560000B460020284900F021FE064600F076FFC9
:1025700082461F481D490968405C40B10021184847
:10258000FFF76CF904211648FFF768F907E000210E
:102590001348FFF7CDF904211148FFF7C9F900BF2F
:1025A00010480068C0F82CA00E48C0F80CA000BF6E
:1025B0000E480068401C0D49086001225103134871
:1025C000FEF752F89620FDF7ABFE00224FF40051C3
:1025D0000E48FEF749F89620FDF7A2FE00BF7CE703
:1025E000B800002000010020480100200400002065
:1025F0000C0000200800002000405140000028404E
:1026000000807B400000002080842E4100100140AB
:102610002DE9F04D1D460C4698B0174621F00041BB
:1026200023F00043002814BF4FF0010C4FF0000CC2
:102630000CEB440CFE4A0CEB02064FEA620C6645BA
:102640002BD33E0018BF012606EB45061644F94A77
:10265000964222D3F84A53EA070C02D0944205D19D
:1026600048B918B000201146BDE8F08D002808BF19
:102670004FF0000C01D04FF0010C0CEB440212F5AE
:10268000001F0AD8002F14BF4FF0010C4FF0000CB0
:102690000CEB450212F5001F07D918B03A462B463D
:1026A0002146BDE8F04DFFF7DDBE0022DFF88CA328
:1026B000002CB8BF534526DADFF884C36345A8BFB2
:1026C000022220DADFF870C39C451CDCDFF874C3FB
:1026D0000CEB235CBCF1140F08DDCCF1340627FAB7
:1026E00006FC0CFA06F6BE420DD108E05FB9CCF14B
:1026F000140623FA06FC0CFA06F69E4203D10CF0EF
:102700000102C2F1020251EA000C19D1002D17DAC0
:10271000002C18BF022A01D0012A07D00220FDF7A1
:1027200082FD18B0BDE8F04DFFF794BE0220FDF722
:102730007AFDFFF78FFE18B081F00041BDE8F08D03
:10274000B7F1000C6CD1534525D104F1804212F54C
:10275000801201BF00280020B74918B008BFBDE8AB
:10276000F08DB548884207DC002DA1BF60462946A0
:1027700018B0BDE8F08D07E0281E05DA80F00041B2
:1027800018B06046BDE8F08DAF497944D1E9000149
:1027900018B0BDE8F08DDFF8A0C2634525D1002D4B
:1027A0001FDA19B1514512D1D8B909E0002840F01B
:1027B000EC82A24A214618B062F31E01BDE8F08DFA
:1027C0000020214618B060F31E01BDE8F08D08DA44
:1027D00018B02346BDE8F04D02460020614600F0E7
:1027E000E5BC18B02146BDE8F08D514518DAB5F1C9
:1027F000804F0DD0A5F1005CBCF1FF5C10D1B4F1AD
:10280000000C0DDB18B06146BDE8F04D00F0ECBBEC
:10281000234618B00246BDE8F04D194600F0A0BEB0
:10282000060024F0004C3BD1D9B1514533D1002CE6
:1028300006DD002DA1BF0020514618B0BDE8F08D87
:10284000002C01DD002D1BDB002C13DA002D11DB29
:10285000012A4FF0000014BF78497C4918B0BDE848
:10286000F08D022A18BF002C0AD0012A08D1002CB2
:1028700006DA0AE0002CB8BF002D11DA012A04D0D4
:10288000002018B00146BDE8F08D18B000204FF0D0
:102890000041BDE8F08DA1F14050B0F17F601AD049
:1028A000012000EBE47050EA020421D0624C521E79
:1028B0004FF0000B104304BF4FF0000B644C654811
:1028C00083427CDD644A654893421FDD884217DB02
:1028D000002D25DB37E0002C00DA4AB1022A0CBFBC
:1028E00001204FF0FF3018B0BDE8F04D00F0E5BD1D
:1028F0000120FDF798FC18B0BDE8F04DFFF7B4BD1E
:102900004D4A8A4202DC002D0ADC1CE0814202DAD8
:10291000002D18DA04E0484B994220DD002D12DD2D
:102920000220FDF780FCFFF7A5FD05460E460022BC
:1029300053465846214600F013FE18B066F31E01B8
:102940002846BDE8F08D0220FDF76DFCFFF79AFDEB
:102950000A46214618B062F31E01BDE8F08D002240
:102960003046614601F022F880460E466FF00102C3
:1029700001F038F94FF05532394B00F025FF42464F
:10298000334600F0EDFD0022364B00F01DFF82467D
:102990004246334604911046194600F0E1FD524686
:1029A000049B00F0DDFD8A4600904FF0C0422E4BA4
:1029B0004046314600F0D4FD2C4A2B4B00E027E086
:1029C000CDE906015146009800F0CAFD824601910A
:1029D000274A284B4046314600F0C2FD5246019B33
:1029E00000F0E4FF82460B4602460591DDE9060150
:1029F00000F020FBDDE9062300268846304600F083
:102A0000D5FF5246059B00F0DFFE024600F07EB97E
:102A10000020B1F5801F07DA35223046614601F00B
:102A2000E1F806466FF0340000EB215024E000008E
:102A3000FFFF1F00FFFF0F000000F03F0000F07FCE
:102A40000000404301FCFFFF9A1500000000F0FF6A
:102A50000000F0BF0000E0410000F043FFFFEF3F47
:102A60005555D53F0000E03F4715F73FFE822B65E7
:102A700044DF5DF80BAE543EA0F2FF300190C1F38D
:102A8000130040F07F6141F040510291FE498842BD
:102A9000D8BF002004DDFD498142C8BF012001DD0F
:102AA0000D9008E000200D900198401C01900298C4
:102AB000A0F5801002900299F54878440B910D9989
:102AC00000EBC100D0E900230F9330460A920B9926
:102AD00000F06CFFCDE90601DDE90A2130460F9BCD
:102AE00000F0A8FA02460B460020EA4900F05EFB1F
:102AF000059102460B460090DDE9060100F030FD2D
:102B00001490E5488A464FF000087844029900681E
:102B100012904FF0005040EA61010D980F9B01EBBD
:102B2000804000F5002109910A9A129800F03EFFBA
:102B300032460B9B00F048FE4246534600F010FD23
:102B40000646029140465146099B129A00F008FD44
:102B5000DDE9062300F038FE3246029B00F026FF36
:102B6000059B009A00F0FCFC0091149A04905346D7
:102B70001046194600F0F4FC06460246C7480B46CC
:102B8000029106217844FFF70FFCCDE90510029B66
:102B900032461046194600F0E3FCDDE9053200F04C
:102BA000DFFC05910646534640461946149A00F04C
:102BB00041FA009B049A00F0D3FC3246059B00F0DA
:102BC00039FACDE90510424653461046194600F041
:102BD000C7FC0022B24B02910A9000F02BFADDE90B
:102BE000053200F027FA0E464246AD4B404600F053
:102BF000DDFE029B0A9A00F0D9FEDDE9053200F005
:102C0000E3FD424602910A9033461046514600F0D9
:102C1000A7FCCDE906015346149A02990A9800F0E0
:102C20009FFC8A460290334642460099049800F081
:102C300097FC5346029A00F0FDF982460B46024685
:102C40000591DDE9060100F0F5F9DDE90623002034
:102C50008846064600F0AAFE5246059B00F0B4FDE9
:102C6000824609914FF060428E4B3046414600F05B
:102C700077FC049006918C4A8A4B5046099900F0E3
:102C80006FFC82460291894A894B3046414600F0EA
:102C900067FC5246029B00F0CDF9864B7B440D9AAF
:102CA00003EBC203D3E9002300F0C4F90E900791AF
:102CB000019800F002FC0591DDE9061382460E9AA8
:102CC000049800F0B7F97C4A7A440D9B02EBC303E9
:102CD000D3E900230093029200F0ACF95246059B21
:102CE00000F0A8F90026884652463046059B00F0C1
:102CF0005DFE009B029A00F059FE069B049A00F0CC
:102D000055FE079B0E9A00F05FFD024600200B4621
:102D100002903846294600F023FC824601912B465A
:102D200038461946029A00F041FE3246434600F00A
:102D300017FC5246019B00F07DF907468A46324651
:102D400043462946029800F00BFC05460E463A46DB
:102D5000534600F06FF9594A8846914221DBA8EBAF
:102D6000020353EA000210D12A46334600F01EFE49
:102D7000CDE90401524A534B3846514600F05AF906
:102D8000DDE9042300F0EAFC21D20220FDF74BFA32
:102D9000FFF770FB0A46214618B062F31E01BDE83A
:102DA000F08D494B28F000429A4210D3474A08EB75
:102DB000020353EA00027FF4C6AD2A46334600F010
:102DC000F5FD3A46534600F0C9FC7FF6BCAD002243
:102DD000019228F000403E493E4A01EB20518242D8
:102DE00023DA481C4FF4801121FA00F040443A4A9B
:102DF000C0F30A517A44394BA1F2FF31CB4020EAAB
:102E00000303C0F3130040F48010C1F11401C84063
:102E100012680190B8F1000FBCBF404201902846F3
:102E2000314600F0C3FD05460E462A463346384675
:102E3000514600F0FFF84FF000084246284B40464C
:102E4000059100F08DFBCDE90601264A264B404650
:102E5000059900F085FB009102902A4633464046D2
:102E6000059900F0A3FD3A46534600F0ADFC1F4A19
:102E70001F4B00F075FB009B029A00F0DBF8074641
:102E8000884602460B4635E08E9803007AB60B0062
:102E9000E21100000000F03F1A120000481100008B
:102EA0000000084009C7EE3FFD033ADCF5015B1462
:102EB000E02F3EBE20100000E40F00000000904014
:102EC000FE822B654715973C00CC904000346F3F45
:102ED00001FCFFFF0000E03F300F0000FFFF0F008C
:102EE000432EE63F396CA80C615C20BEEF39FAFE38
:102EF000422EE63FDDE9060100F09CF8DDE90623FD
:102F000005460E4600F052FD3A46434600F05CFC92
:102F10000F462A46334600901046194600F020FB23
:102F2000824602462E4888460B4605217844FFF724
:102F30003BFA5246434600F013FB2A46334600F064
:102F400043FC80468A463B4628463146009A00F0BC
:102F500007FB3B46009A00F06DF8069100900022B6
:102F60004FF080434046514600F020FD0F460C9044
:102F7000424653462846314600F0F2FA3B460C9A48
:102F800000F014F9069B009A00F010FD2A46334623
:102F900000F00CFD0022134B00F016FC05460198D2
:102FA0000E4601EB00510815002810DC284631467A
:102FB000019A00F017FEFFF7C7F9042808BFFFF7D2
:102FC00061FA28463146019A00F00CFE05460B4690
:102FD00018B02A4658462146BDE8F04D00F0C0BA68
:102FE000D00D00000000F03F2DE9F04106460F46ED
:102FF00000F0F6FB041E0D4618BF0120284320F008
:103000000040C0F17F6000F1E040C00F0ED0301CE6
:1030100018BF0120384320F00040C0F17F6000F16C
:10302000E040C00F04BF0120FDF7FDF8204629460F
:10303000BDE8F08110B591EA030F48BF83F000436B
:1030400000F1BC84841A71EB030C05D2121943EB16
:103050000C03001B61EB0C01DFF824E14FEA115473
:10306000A4EB135C1EEA430F18BF9EEA445F73D0C3
:1030700023EA0E03DCF1200E21EA045143F480130D
:1030800032D322FA0CFE10EB0E0023FA0CFE41EBB9
:103090000E01CCF1200E03FA0EFE10EB0E0051F1E2
:1030A0000001B1F5801FCCF1200E32D201EB0451AA
:1030B00012FA0EF2BDE8104058BF7047401C38BFEE
:1030C0005FEA420218BF7047002814BF20F00100D9
:1030D00041F100014FEA410313F5001F38BF70476B
:1030E000A1F1C04100F034BB012A43EB0302ACF173
:1030F000200CDCF11F0E32BF4FF0000E23FA0CF350
:1031000010EB030041EB0451B4EB115FD0D0A1EB05
:10311000045101F5801149085FEA300001EB0451C8
:103120000ED350F1000038BF12FA0EFE08D1BDE8F0
:103130001040C9E7401C38BF5FEA4202CAD1C3E76A
:10314000BDE810404FEA410313F5001F38BF704738
:10315000A1F1C04100F0FCBA9EEA445F08D011EA38
:103160005E0FBDE8104004BF01F000410020704731
:10317000BDE8104070B500F09DFA00BF64FBBE3E94
:103180000000E0FF02494FF0000000F0F9BC00BF72
:103190000000F87F491058BFC1F140415B1058BF93
:1031A000C3F140438B42EFF3008070472DE9C041EB
:1031B00030B4DFF8A0C23CEA111418BF3CEA131483
:1031C00000F0EC8081EA03051CEA111444EAD5748E
:1031D00018BF1CEA131500F0C780A4EB05044FF0DC
:1031E000004545EAC12145EAC32341EA505143EA7B
:1031F000525304F17F74994204F500344FEAC02021
:103200004FEAC22208BF904200F09C804FEA13654B
:103210000FF24016765D4FEA134506FB05F7C7F13E
:10322000807706FB07F74FEAD737A7FB036876429C
:10323000C8F58038A7FB06CE38BFA8F1010807FB08
:1032400008E64FF0000EA6FB028CE6FB03CEDCF195
:10325000000CCEF1004E38BFAEF1010EA6FB0C58AB
:103260004FF000074FF00005E6FB0E87A1FB08C6F4
:10327000A0FB07CE16EB0E0645F10005E1FB076546
:1032800015F1E04E7EBFA4F580345FEA46066D413D
:1032900016F1800745F100054FEA17274FEA066649
:1032A00047EA0567A6F1DE46B6F1805F4FEA1525CD
:1032B0001FD9384624F0010C05EBC471BCF1FE6F38
:1032C00001EB0C1102D8F0BCBDE8008124425CBFC8
:1032D00001F5801E9EEAC47F02D4F0BCBDE80081E7
:1032E000244238D4F0BCA1F1C041BDE8004100F057
:1032F0002FBA4FEAD22242EA43524FEAD323A7FB26
:1033000002864FEAD02040EA415007FB03661EEADE
:103310000E0F4FEAD12105FB026658BFA6EB0056FF
:10332000B6EB00564FEA520E4EEAC37E18EB0E0E75
:1033300056EB530EBDD518EB02085E417F1C55F1CC
:103340000005B6E74FF480154FF000074FF0000678
:103350004FF00008ADE7F0BC4FF0000001F1C041B4
:1033600001F00041BDE8008111EA0C1F0CEA1315C1
:1033700000D00CE013EA0C1F00F025804FF0000095
:10338000F0BC81EA030101F00041BDE80081F0BC1E
:10339000BDE8004181EA030100F0DAB9F0BCBDE804
:1033A000004170B500F086F9097EFC3E00F007B8D8
:1033B00081EA03014FF0000001F00041704781EA0B
:1033C000030100F0C5B9F0BCBDE800414FF00000BA
:1033D00021497047FFFDFBF9F7F5F4F2F0EEEDEB54
:1033E000E9E8E6E4E3E1E0DEDDDBDAD8D7D5D4D303
:1033F000D1D0CFCDCCCBCAC8C7C6C5C4C2C1C0BF4F
:10340000BEBDBCBBBAB9B8B7B6B5B4B3B2B1B0AF54
:10341000AEADACABAAA9A8A8A7A6A5A4A3A3A2A138
:10342000A09F9F9E9D9C9C9B9A99999897979695F3
:1034300095949393929191908F8F8E8E8D8C8C8B8F
:103440008B8A898988888787868585848483838217
:10345000828181800000FF070000F87F4FEA41036E
:103460004FEA5353A3F58063D3F11E03C8BFD3F1D2
:10347000210C0CDD4FF0004242EAC12242EA5052D8
:1034800032FA03FC8CEAE17CACEBE1707047102B64
:10349000C4BF0020704703F5787CBCF1FF3F04D027
:1034A0006FF0004282EA2100704770B500F002F927
:1034B0004992248000207047F2E710F0004248BF94
:1034C0004042B0FA80F310FA03F10AD0C3F11D03B1
:1034D00003F580634FEA415002EB035202EBD12126
:1034E00070474FF00000704751EA030C17D41CF5E9
:1034F000801F58BFBCF5801F00F10680994218BF9D
:10350000704708BF9042704707D711F5801F58BF1A
:1035100013F5801F19D499427047894270471CF5F2
:10352000801F08D5BCF5801FF7D58B4218BF7047A8
:1035300008BF824270474FF4001C1CEB410F38BF9C
:103540001CEB430F01D28B42704770B500F0B2F80C
:10355000922449004FF000514FF08053FFF71ABEFC
:10356000DFF848C170B51CEA111E1EBF1CEA131516
:103570009EEA0C0F95EA0C0F00F06F8081EA0304BD
:1035800023EA4C134EEAD47E21EA4C1141F4801117
:1035900043F48013AE44A1FB024CA0FB0365AEF1E3
:1035A0007F7E361955EB0C05A1FB034C4CF1000353
:1035B000A0FB021C16EB0C06654153F10003094207
:1035C00018BF46F0010613F4007F0BD14FEA033118
:1035D0004FEA0530340341EA155140EA16506FF0C6
:1035E00003020AE04FEAC3214FEAC520F40241EA90
:1035F000555140EA56506FF0020202EB2E4201EBA9
:10360000025585EACE710AD05FEA440C18BF24F057
:10361000004450F1000041F1000120EAD47040F272
:10362000FE7C624500D270BDA84214BF4FF08044BA
:103630004FF04044002E08BF0024BEF1806FA8BFA9
:10364000A1F1C041BDE8704080F282804FF00000DF
:1036500001F1C04101F0004170479EEA0C0F0CEAF5
:10366000131518BF95EA0C0F06D04FF0000081EA41
:10367000030E0EF0004170BD00F01CF88900013E01
:1036800000F007B800F009B84FEA430C5FEA5C5C51
:1036900008D081EA030100F05BB84FEA410C5FEA11
:1036A0005C5CF6D14FF00000014970470000FF0755
:1036B0000000F87F0EF1020E2EF0030E5EF8046B90
:1036C000364205D4012A43EB030515F5001F12D835
:1036D000012841EB010C1CF5001F0CD80ED14FEA5C
:1036E000D17C15F5001F0CEB4C0C0CF1020C08BF43
:1036F0004CEBD37C04E04FF0080C01E04FEAD37CA4
:103700000CEB4C0526FA05F606F00706B6F1040C9C
:1037100006D20EEB860CBDE870404CF0010C604701
:10372000DFE80CF0090B02024FF000414FF00000FF
:10373000A1F5002170BD19461046012851EB010486
:1037400018BFD4F5001484BF002001F0004170BD03
:103750000808A0F500114FEA3101704753EA010C47
:1037600017D41CF5801F58BFBCF5801F00F10680E0
:103770008B4218BF704708BF8242704707D713F5C6
:10378000801F58BF11F5801F19D48B4270479B4290
:1037900070471CF5801F08D5BCF5801FF7D59942EE
:1037A00018BF704708BF904270474FF4001C1CEBD5
:1037B000430F38BF1CEB410F01D2994270470FB441
:1037C0000CBC03BCFFF7C1BE91EA030F10B581F03A
:1037D00000413FF537AC83F0004300F0EFB8000044
:1037E0002DE9F04101F5801CBCF5001FC0F2C3803B
:1037F0004FEA115C21EA0C510CF1FD0C41F48011EF
:103800005FEA5C0C0CF5C07C01D3400049413DA44B
:10381000890241EA905187028E0E0A0CA45D04FBD6
:1038200004F602FB06F6C6F14046A4FB0662F60D5E
:1038300046EA422606FB06F4A4FB01235242C3F1EA
:10384000404338BF5B1EA6FB02420024E6FB032474
:10385000D20B42EA4446A6FB0623A1FB02E2A3FBED
:1038600007E4A4184FF0000252F10002E3FB01420A
:103870006442C2F1404E38BFAEF1010EA6FB0423F4
:103880004FF00002E6FB0E32A2FB03464FF00004AD
:10389000B61954F10004E2FB0264A1FB06E6A4FBA6
:1038A00007E816EB08064FF0000858F10008E4FBA3
:1038B00001687642C8F1405838BFA8F10108A2FB60
:1038C00006E4A3FB08E52D194FF0000454F10004B1
:1038D000E2FB0854A1FB05E6A7FB04E818EB060889
:1038E0004FF0000656F10006E1FB048618F12005B2
:1038F00056F10006A809A8F11B08B10908F03F0815
:10390000B8F10A0F40EA86601CD901EB0C51BDE802
:10391000F08100BFFCF5EEE8E2DDD8D3CFCBC7C322
:10392000C0BDB9B6B4B1AEACA9A7A5A3A19F9D9BDC
:103930009A9896959392908F8D8C8B89888786859F
:1039400084838281A0FB006800FB01F208EB42083F
:10395000B8EB872807D5341858EB0104D5D5401C9F
:1039600051F10001D1E7341A78EB0104CDD4401EA7
:1039700071F10001C9E75FEA4C0C5FEA9C5C0DD174
:1039800005D34FF0000001F00041BDE8F081BDE833
:10399000F04170B5FFF78EFE6DDBFFBEBDE8F04174
:1039A0004FF00000004970470000F87F10B591EA21
:1039B000030F48BF83F000433FF544AB841A71EB1B
:1039C000030C07D212198CF0004C43EB0C03001BC4
:1039D00061EB0C01DFF8A4E14FEA1154A4EB135C96
:1039E0001EEA430F18BF9EEA445F00F0B08023EA4E
:1039F0006E03524221EA0451C3EB6E0338BF5B1ED3
:103A0000DCF1200E25D322FA0CFE10EB0E0043FA57
:103A10000CFE41EB0E01CCF1200E03FA0EFE10EB72
:103A20000E0051F10001CCF1200E29D412FA0EF251
:103A300001EB0451BDE8104058BF7047401C1CBF4B
:103A4000B2F1004F704700280CBF491C20F0010064
:103A5000704712EB020E43EB030218BF4FF0010E4A
:103A60004EEA4202ACF1200CDCF11E0E54D943FAAE
:103A70000CFE10EB0E0051F1FF31CCF11E0ED5D52E
:103A80000EF1010E12FA0EFE404141EB010101EB75
:103A9000445C5FEA5C5C10D910EBDE7001EB045112
:103AA00038BFBEF1004FBDE8104018BF7047002876
:103AB0000CBF491C20F00100704730D24FEAD42CD3
:103AC00011F5001124F400641BD0B1FA81F20B3A15
:103AD000A41AA41ED2F12003914030FA03F3194333
:103AE000904001EBCC71002C01EB0451BDE810407B
:103AF000A8BF704701F1C0414FF0000001F0004144
:103B00007047B0FA80F310FA03F100D110BDE41A47
:103B1000173C4805C90AE4E701EB045110BD491000
:103B200001EB0451BDE810404FEA300002E04FF0D5
:103B3000000170474A0008BF0042F8D0B2F5001FEC
:103B400028BF704701F000414FF0000070479EEA27
:103B5000445F07D011EA5E0FBDE8104004BF0021AA
:103B600000207047BDE8104070B5FFF7A3FD00BF0F
:103B700040DFF63E83F00041104670470000E0FF52
:103B80000CF00F03092B08BF082000F059800A2B06
:103B90000BD0082B18BF704708BF1CF0400F0AD08D
:103BA0004FF000004FF0000170471CF0400F18BFAD
:103BB0004FF0004070471CF0100F08D020F0704309
:103BC00000F07F4242EAD3014FEA4370704700F0B1
:103BD000604021F07F4242EA000201F07F4040EA6B
:103BE000727070474FF0FF0C4CF4E06C1CEA1153FC
:103BF0001CBF9CEA030C9445C2BFDA4201EB0251A0
:103C00007047002B0DD0BCF1000F0FD0002A01F03F
:103C10000041A4BF41F0E04141F07F614FF000005E
:103C2000704701F000414FF00000704750EA013347
:103C30004FF09B0C18BF4CF0806C7FF4A3AA704728
:103C40001CF4801F11D01CF4E02F03D06FEACC319C
:103C5000490070474FF04050EFF3008222F070426D
:103C600042EA000282F3008870474FF0000070477C
:103C700002030405060708090A0B0C0D0E0F1010AD
:103C8000010200000000000000000102030406071A
:103C90000809000000000102030400000000000009
:103CA000000000000000F03F000000000000F83FAE
:103CB00000000000000000000000004003B8E23FE8
:103CC000000000000000000006D0CF43EBFD4C3E9A
:103CD000033333333333E33FFFAB6FDBB66DDB3F8F
:103CE0004D268F515555D53F01411DA96074D13FD7
:103CF00065DBC9934A86CD3FEF4E454A287ECA3FD1
:103D00003E5555555555C53F93BDBE166CC166BF52
:103D10002CDE25AF6A56113FF16BD2C541BDBBBE4B
:103D2000D0A4BE726937663E0000000000000000AB
:103D3000503D00080000002060000000280100083D
:103D4000B03D000860000020E807000044010008C2
:103D5000F40100000000000000000000373E373E84
:103D6000373E3739394039403940393B3B3E3B3E9D
:103D70003B3E3B3D3239323932393237005A00004E
:103D800000000000100000000100000000127A0096
:103D90000100000005230008292300082123000852
:103DA0003D23000819230008000000000000000067
:04000005080000ED02
:00000001FF
