:020000040800F2
:100000001810002039020008B5240008D123000888
:10001000B1240008D307000871290008000000007F
:10002000000000000000000000000000412900085E
:10003000D707000800000000B92400084329000881
:10004000530200085302000853020008530200083C
:10005000530200085302000853020008530200082C
:10006000530200085302000853020008530200081C
:10007000530200085302000853020008530200080C
:1000800053020008530200085302000853020008FC
:1000900053020008530200085302000853020008EC
:1000A00053020008530200085302000853020008DC
:1000B00053020008530200085302000853020008CC
:1000C00053020008530200085302000853020008BC
:1000D0005302000861290008530200085302000877
:1000E000530200085302000853020008530200089C
:1000F000530200085302000853020008530200088C
:1001000053020008052500085302000853020008A6
:10011000530200085302000853020008530200086B
:10012000530200085302000853020008530200085B
:10013000530200085302000853020008530200084B
:10014000530200085302000853020008530200083B
:10015000530200085302000853020008530200082B
:10016000530200085302000853020008530200081B
:100170005302000853020008530200080000000068
:10018000530200085302000800F002F800F045F89E
:100190000AA090E8000C82448344AAF10107DA45E2
:1001A00001D100F03AF8AFF2090EBAE80F0013F0EF
:1001B000010F18BFFB1A43F001031847DC020300CC
:1001C000FC020300103A24BF78C878C1FAD852075D
:1001D00024BF30C830C144BF04680C6070470000C1
:1001E0000023002400250026103A28BF78C1FBD840
:1001F000520728BF30C148BF0B6070471FB505F0DC
:100200003FFB00F07FF904000020002105F022FBF5
:10021000401C60601FBD10B510BD00F03DFA1146D6
:10022000FFF7ECFF05F074FA00F05BFA03B4FFF798
:10023000F2FF03BC00F05EFA094880470948004716
:10024000FEE7FEE7FEE7FEE7FEE7FEE7FEE7FEE786
:10025000FEE7FEE704480549054A064B70470000E3
:100260004D29000889010008180A002018100020F4
:10027000180C0020180C002010B500F043F9001DE8
:1002800010BD00BFD155000053EA020C00F0698098
:100290002DE9F04B4FF00006002B1FBFB3FA83F59A
:1002A00003FA05F424FA05F65E4012BF1643B2FACB
:1002B00082F502FA05F4C5F120051EBF22FA05FCFD
:1002C00044EA0C04203556EA044C4FEA144418BFA3
:1002D000641C4FF000084FF00009904271EB030CD2
:1002E00039D3002919BFB1FA81F701FA07F6B0FA3C
:1002F00080F700FA07F6C7F120071EBF20FA07FCB7
:1003000046EA0C062037B6FBF4FCA7EB0507103FC6
:1003100007F01F0BCBF120060CFA0BFB2CFA06F6AC
:1003200044BFB3460026202FA4BF5E464FF0000B0B
:100330005BEA060C08BF4FF0010B19EB0B09ABFB96
:10034000027C48EB0608C01B06FB02CC0BFB03CC6F
:1003500071EB0C01C1E70B46024641464846BDE839
:10036000F08B13B54FF000004FF00001AFF30080A9
:10037000BDE81C407047401ECAB210F8011F8A42F7
:1003800002D00029F9D10020704710B5431C02E0CB
:1003900010F8011B71B18107FAD14FF0013202C888
:1003A0008C1A8C4314EAC211F9D0C01A0A0603D081
:1003B000C01E10BDC01A10BD0A0401D0801E10BDA1
:1003C0000902FCD0401E10BD431A28BF9A4240F2D9
:1003D0009D80032A1044114440F2268010F0030F40
:1003E0001EBF11F8013D521E00F8013D10F0030F31
:1003F0007FF4F6AF11F0030300F0E080083AC0F09C
:100400000B8051F8043D083A51F804CD40F8043D02
:1004100040F804CDFFF7F3BF121D5CBF51F8043D57
:1004200040F8043DAFF30080D20724BF11F8013D2E
:1004300011F801CD48BF11F8012C24BF00F8013D8F
:1004400000F801CD48BF00F8012C704710B5203AE4
:10045000C0F00B80B1E81850203AA0E81850B1E87D
:100460001850A0E81850BFF4F5AF5FEA027C24BF33
:10047000B1E81850A0E8185044BF18C918C0BDE82A
:1004800010405FEA827C24BF51F8043B40F8043BF3
:1004900008BF7047D20728BF31F8023B48BF11F8A8
:1004A000012B28BF20F8023B48BF00F8012B704702
:1004B0004FF0000200B5134694469646203922BFFD
:1004C000A0E80C50A0E80C50B1F12001BFF4F7AF48
:1004D000090728BFA0E80C5048BF0CC05DF804EB2A
:1004E000890028BF40F8042B08BF704748BF20F898
:1004F000022B11F0804F18BF00F8012B7047704796
:100500007047704700487047D8090020032A40F21E
:10051000308010F0030C00F0158011F8013BBCF1A5
:10052000020F624498BF11F801CB00F8013B38BFBD
:1005300011F8013BA2F1040298BF00F801CB38BFCB
:1005400000F8013B11F003033FF480AF083AC0F01C
:10055000088051F8043B083A51F804CBA0E8081091
:10056000F5E7121D5CBF51F8043B40F8043BAFF3C4
:100570000080D20724BF11F8013B11F801CB48BF1E
:1005800011F8012B24BF00F8013B00F801CB48BF54
:1005900000F8012B7047431A28BF9A427FF656AFE6
:1005A000104410F0030F11441EBF11F8013D521EFC
:1005B00000F8013D10F0030F7FF4F6AF103AC0F0E1
:1005C0000A8010B531E91850103A20E91850BFF4EC
:1005D000F9AFBDE81040530724BF31E9081020E906
:1005E000081044BF51F8043D40F8043D12F0030FD9
:1005F00008BF7047D20728BF31F8023D48BF11F845
:10060000012C28BF20F8023D48BF00F8012C70479C
:1006100000487047B80900204FF0013C50F8042B07
:1006200051F8043B9A4221D1A2EB0C03934313EA05
:10063000CC1317D150F8042B51F8043B9A4215D132
:10064000A2EB0C03934313EACC130BD150F8042B09
:1006500051F8043B9A4209D1A2EB0C03934313EAED
:10066000CC13DBD04FF00000704700BFD01A01BAA6
:10067000B1FA81F101F0180122FA01F0CB40C1F189
:100680002001DBB2C0B2C01A2CFA01F3D11A914397
:1006900011EAC311E6D170477546FFF7B9FFAE46C0
:1006A00005006946534620F00700854618B020B57E
:1006B000FFF7D0FDBDE820404FF000064FF00007E7
:1006C0004FF000084FF0000B21F00701AC46ACE8FA
:1006D000C009ACE8C009ACE8C009ACE8C0098D4667
:1006E000704710B50446AFF300802046BDE81040C7
:1006F000FFF79CBD01491820ABBEFEE726000200B3
:100700007047704710B504462146024800F0CAFF02
:1007100010BD0000C406002010B5044800F0D5FF4D
:10072000042801D0012010BD0020FCE7C4060020F1
:1007300010B5002400F014F8012801D0012010BDEC
:10074000064801F0E3F8044634B94FF40061034869
:1007500000F05EFE00B101242046F0E7C406002050
:1007600008B5012000909DF8000008BD2DE9F84370
:1007700004460D4616461F464FF0000833462A46EB
:1007800021460548009701F0A1F908B14FF0010892
:100790004046BDE8F8830000C40600207047000012
:1007A0002DE9F84304460D4616461F464FF0000853
:1007B00033462A4621460548009701F0DDFA08B184
:1007C0004FF001084046BDE8F8830000C406002051
:1007D000704700BFFEE7704772B600BFFEE730B556
:1007E00004460D4600222946204600F001F830BD9F
:1007F000F0B50346012500241148407A01281CDA8F
:1008000000200F4E767A0E4FB8553846467A001DB6
:1008100040F82630001F467A083082553E46707AEE
:10082000461C7E72044604F1300008703A2048707D
:100830002F2088700020C87000252846F0BD0000D9
:10084000AC09002070B50446A56D00F071F90646AC
:1008500094F83500022808D08020606500BF002091
:1008600084F8340000BF012070BD2068006820F0CB
:100870001600216808602068406920F08000216827
:100880004861206C08B9A06C28B12068006820F08D
:100890000800216808602068006820F001002168D5
:1008A000086010E000F044F9801B05280BD92020D7
:1008B0006065032084F8350000BF002084F8340010
:1008C00000BF0320D0E72068006800F00100002886
:1008D000E8D194F85C103F208840A860012084F89B
:1008E000350000BF002084F8340000BF00BFBBE724
:1008F000014691F83500022803D080204865012088
:100900007047052081F835000868006820F0010074
:100910000A6810600020F3E770B5044600F008F99B
:1009200006462546681C10B104480078054400BFFF
:1009300000F0FEF8801BA842FAD370BD1000002022
:10094000F8B502460B460025002400200021D5E022
:10095000012606FA01F51E6806EA0504AC4274D1C8
:100960001E7906F00306012E04D01E7906F0030658
:10097000022E13D190684F000326BE40B0434F00B3
:10098000DE68BE4030439060506801268E40B04320
:100990001E79C6F300168E40304350601E7906F073
:1009A0000306032E09D0D0684F000326BE40B04393
:1009B0004F009E68BE403043D0601E7906F00306AB
:1009C000022E13D1CF0802F1200656F827004E0759
:1009D000F70E0F26BE40B0434F07FF0E1E69BE4004
:1009E0003043CF0802F1200646F8270010684F0078
:1009F0000326BE40B0431E7906F003064F00BE40FA
:100A0000304310605E6806F44036002E75D000BF9B
:100A1000002600963B4E366846F48046394F3E60CD
:100A20003E46366806F48046009600BF00BF364E4C
:100A30008F0856F827008E07370F0F26BE40B043A9
:100A4000324EB24202D1002624E056E0304EB2428D
:100A500001D101261EE02F4EB24201D1022619E03B
:100A60002D4EB24201D1032614E02C4EB24201D1E8
:100A700004260FE02A4EB24201D105260AE0294E93
:100A8000B24201D1062605E0274EB24201D1072627
:100A900000E008268F073F0FBE4030431A4E8F08F4
:100AA00046F82700214E3068A0435E6806F4803681
:100AB00006B120431D4E3060361D3068A0435E688D
:100AC00006F4003606B12043184E361D3060361D40
:100AD0003068A0435E6806F4801606B12043134ECA
:100AE00008363060361D3068A0435E6806F4001694
:100AF00006B120430D4E0C363060491C1029FFF41E
:100B000027AFF8BD443802400838014000000240D9
:100B10000004024000080240000C024000100240A5
:100B20000014024000180240001C0240003C01403A
:100B30000148006870470000080000200348006872
:100B400003490978084401490860704708000020FB
:100B50001000002010B50D48006840F400700B49EB
:100B600008600846006840F4806008600846006835
:100B700040F480700860032000F0A2F80F2000F01D
:100B800007F800F02BF8002010BD0000003C0240E8
:100B900070B504460E4800784FF47A71B1FBF0F05E
:100BA0000C490968B1FBF0F5284601F0FDF908B1E0
:100BB000012070BD102C07D200222146501E00F0EB
:100BC00041F80548046001E00120F2E70020F0E769
:100BD00010000020140000200C00002008B500BF09
:100BE000002000900E48006840F480400C490860E6
:100BF0000846006800F48040009000BF00BF00BFBE
:100C000000200090081F006840F08050091F086015
:100C10000846006800F08050009000BF00BF08BD8B
:100C20004438024001460846002809DB00F01F0353
:100C300001229A4043099B0003F1E023C3F80021FD
:100C400000BF70472DE9F05F80460D46164600272D
:100C500004F0D8F8074639462A46334601F0070023
:100C6000C0F1070ABAF1040F02D94FF0040A01E0FB
:100C7000C0F1070AD14600F1040ABAF1070F02D207
:100C80004FF0000A01E0A0F1030AD4464FF0010A38
:100C90000AFA09FAAAF1010A0AEA020A0AFA0CFA9D
:100CA0004FF0010B0BFA0CFBABF1010B0BEA030B42
:100CB0004AEA0B042146404604F090F8BDE8F09F54
:100CC00000BF00F00702064B19684FF6FF031940FA
:100CD000044B0B4343EA0221014B196000BF7047EC
:100CE0000CED00E00000FA0570B504460D460CB9A5
:100CF000012070BD5848006800F00700A84209D2E2
:100D000055490D700846006800F00700A84201D060
:100D10000120EEE7207800F0020002281DD12078A3
:100D200000F00400042805D14C48006840F4E0506D
:100D30004A490860207800F00800082805D1474893
:100D4000006840F46040454908604448006820F06D
:100D5000F000A168084341490860207800F00100D4
:100D6000A8B36068012807D13C4808380068C0F380
:100D70004040B8B90120BCE76068022802D0606832
:100D8000032807D1354808380068C0F3406048B9E7
:100D90000120AEE7314808380068C0F3400008B9C8
:100DA0000120A6E72D48006820F003006168084391
:100DB0002A490860FFF7BCFE064609E0FFF7B8FEC7
:100DC000801B41F28831884202D9032091E707E075
:100DD0002248006800F00C006168B0EB810FEDD193
:100DE0001D48006800F00700A84209D91A490D7093
:100DF0000846006800F00700A84201D0012078E70B
:100E0000207800F00400042807D11448006820F47A
:100E1000E050E168084311490860207800F00800BC
:100E2000082808D10D48006820F46040216940EA94
:100E3000C1000A49086000F03FF808490968C1F399
:100E40000311074A515CC84006490860064800681B
:100E5000FFF79EFE00204CE7003C024008380240AD
:100E6000A0580008140000200C0000200148006871
:100E7000704700001400002000B5FFF7F7FF044999
:100E80000968C1F38221034A515CC84000BD0000DB
:100E900008380240B058000800B5FFF7E7FF0449E2
:100EA0000968C1F34231034A515CC84000BD0000EB
:100EB00008380240B05800082DE9F047002400250A
:100EC0000026A1462548006800F00C0020B1042847
:100ED00005D008283AD105E0DFF8849039E0DFF842
:100EE000849036E01D48001F006800F03F041B4856
:100EF000001F006800F4800078B11A481749091FE4
:100F00000968C1F38811A0FB017001462246002345
:100F10003846FFF7B9F905460EE011480F49091F99
:100F20000968C1F38811A0FB017001462246002325
:100F30003846FFF7A9F905460848001F0068C0F3C6
:100F40000140401C4600B5FBF6F902E0DFF81090C6
:100F500000BF00BF4846BDE8F087000008380240E7
:100F60000024F40040787D01F8B504460CB9012056
:100F7000F8BD207800F00100002874D0F94800681E
:100F800000F00C0004280DD0F648006800F00C00BA
:100F9000082813D1F348001F006800F48000B0F562
:100FA000800F0BD1EF4808380068C0F3404000289C
:100FB00059D06068002856D10120D9E700BF606889
:100FC000B0F5803F08D1E7480838006840F4803029
:100FD000E449083908601EE06068B0F5A02F0DD123
:100FE000E0480838006840F48020DE49083908608D
:100FF0000846006840F4803008600CE0D9480838A2
:10100000006820F48030D749083908600846006835
:1010100020F48020086000BF606890B1FFF788FD71
:10102000054606E0FFF784FD401B642801D9032034
:101030009EE7CC4808380068C0F340400028F1D053
:1010400011E0FFF775FD054606E0FFF771FD401B57
:10105000642801D903208BE7C24808380068C0F330
:1010600040400028F1D1207800F0020002285FD132
:10107000BC48006800F00C0058B1BA48006800F0A5
:101080000C0008281CD1B748001F006800F480003D
:10109000B0B9B44808380068C0F3400020B1E06837
:1010A000012801D0012063E7AE480838006820F02D
:1010B000F800216940EAC100AA490839086037E010
:1010C000E06800B30120A8490860FFF731FD05463C
:1010D00006E0FFF72DFD401B022801D9032047E75A
:1010E000A04808380068C0F340000028F1D09D48AF
:1010F0000838006820F0F800216940EAC1009949E9
:101100000839086014E0002097490860FFF710FDD7
:10111000054606E0FFF70CFD401B022801D903201D
:1011200026E7904808380068C0F340000028F1D155
:10113000207800F0080008282CD16069A8B10120AF
:101140008A490860FFF7F4FC054606E0FFF7F0FC6B
:10115000401B022801D903200AE782486C3000684E
:10116000C0F340000028F1D014E000207F4908605F
:10117000FFF7DEFC054606E0FFF7DAFC401B02281D
:1011800001D90320F4E677486C300068C0F34000D2
:101190000028F1D1207800F00400042870D1002745
:1011A00070483830006800F0805090B900BF0020CF
:1011B00000906C483830006840F080506949383100
:1011C00008600846006800F08050009000BF00BF33
:1011D00001276748006800F48070B0B9644800686F
:1011E00040F4807062490860FFF7A2FC054606E003
:1011F000FFF79EFC401B022801D90320B8E65C489B
:10120000006800F480700028F2D000BFA0680128B8
:1012100008D154486830006840F0010051496831F5
:1012200008601DE0A06805280DD14E4868300068B0
:1012300040F004004B49683108600846006840F0FF
:10124000010008600CE047486830006820F00100A9
:101250004449683108600846006820F004000860CE
:1012600000BFA068A8B1FFF763FC054609E0FFF7DF
:101270005FFC401B41F28831884202D9032077E6A7
:1012800026E0384868300068C0F340000028EED0FF
:1012900013E0FFF74DFC054608E0FFF749FC401B53
:1012A00041F28831884201D9032061E62D48683037
:1012B0000068C0F340000028EFD1012F07D1294872
:1012C0003830006820F0805026493831086000BF6F
:1012D000A069002845D02348006800F00C000828C9
:1012E0005DD0A069022845D100201F490866FFF79C
:1012F0001FFC054606E0FFF71BFC401B022801D936
:10130000032035E6174808380068C0F3406000281D
:10131000F1D1D4E907010843616A40EA8111012251
:10132000A06AC2EB500041EA00412C20005D41EA76
:1013300000600C49091F086001200B490866FFF78F
:10134000F7FB054606E0FFF7F3FB401B022801D937
:1013500003200DE6034808380068C0F34060002809
:10136000F1D049E00838024000004742800E474271
:1013700000700040002021490866FFF7D9FB0546B0
:1013800006E0FFF7D5FB401B022801D90320EFE55B
:101390001B480068C0F340600028F2D12CE0A0692F
:1013A000012800D1E4E51648001D0668A06901285F
:1013B00020D006F48001E06981421BD106F03F0194
:1013C000206A814216D147F6C0703040616AB0EBA6
:1013D000811F0FD106F440310122A06AC2EB5000F8
:1013E000B1EB004F06D106F070612C20005DB1EB2F
:1013F000006F01D00120BBE50020B9E500004742A5
:101400000038024010B50446FFF77BF910BD00001C
:10141000F0B589B004460E460027032084F8340056
:10142000606C032820D0B6F5805F04D1A06B40F03B
:101430008050A0631CE0B6F5006F07D1204603F092
:101440006DF80546A06B2843A06311E03EB9204625
:1014500003F098F80546A06B2843A06308E0A06B52
:1014600040F00060A06303E0A06B40F08050A063F8
:10147000A06B38B1174821688863012084F83400D4
:10148000012713E060680390A0680490E06805906D
:10149000069660690790A069089006A807C88DE8BD
:1014A0000700206803A90EC901F034F84FF4007159
:1014B000206801F0ABF8054635B10648216888631D
:1014C000A06B2843A0630127012084F8340038462C
:1014D00009B0F0BDFF0540007047000010B502469E
:1014E000506E800F0870506EC0F383604870506E6D
:1014F000C0F301608870506E000CC870B2F86400D0
:10150000000A087192F864004871906E000DC8805E
:10151000906EC0F3034008726820805AC0F3C03058
:1015200048726820805AC0F3803088726820805AE0
:10153000C0F34030C8726820805AC0F3003008738E
:1015400000204873506C002836D16820805A8005EE
:10155000030DD06E43EA90700861D06EC0F3C26094
:101560000875D06EC0F302604875D06EC0F342506B
:101570008875D06EC0F38240C875D06EC0F3C2309B
:1015800008760869401C50650B7E506D03F0070318
:101590009B1C01249C4060435065087A00F00F03B7
:1015A000012098409065D2E915035B0A5843D06545
:1015B0004FF40073136621E0506C012813D16820AA
:1015C000805C8006830AD06E43EA10400861086997
:1015D000401C83025365536DD3654FF400739365CC
:1015E000936D13660AE02E4813689863906B40F081
:1015F00080509063012082F8340010BD6C20805A26
:10160000C0F3803001F8190F6C20805AC0F3C61067
:1016100048706C20805C00F07F008870106FC00FF5
:10162000C870106FC0F341700871106FC0F3826012
:101630004871106FC0F383508871106FC0F3405031
:10164000C87100200872106FC0F30040487270200B
:10165000805AC0F3C03088727020805AC0F3803046
:10166000C8727020805AC0F3403008737020805ACE
:10167000C0F3003048737020805AC0F38120887313
:101680007020805AC0F30120C8737020805CC0F3C2
:10169000460008740120487419390020ADE70000A5
:1016A000FF0540000246506C0860906C4860D06CAA
:1016B0008860106DC860506D0861906D4861D06D94
:1016C0008861106EC86100207047F8B5044600209C
:1016D00000906946204602F009FF054615B1A06B4F
:1016E0002843A0630098C0F343263046F8BD0000AD
:1016F00070B50446256B2068406BC0F3C03030B134
:1017000005F0080018B1204602F0D8FDF8E0206886
:10171000406BC0F30020002862D04FF48070216835
:1017200088632068C06B4CF23A3188432168C863F3
:101730002068C06A20F001002168C86205F0080036
:1017400038B305F0020010B905F0200050B1206850
:1017500001F0A0F806462EB1A06B3043A0632046EE
:10176000FFF7BAFE40F23A5021688863012084F8FE
:1017700034000020206305F0010010B905F00200DC
:1017800018B1204600F0EEFABAE0204600F0EFFA79
:10179000B6E005F080000028B8D005F0200050B178
:1017A000206801F077F806462EB1A06B3043A063A5
:1017B0002046FFF791FE05F001000028A6D105F0B4
:1017C00002000028A2D12068C06A20F00800216829
:1017D000C862012084F83400204600F0C8FA8FE087
:1017E0002068406BC0F3803030B105F0080018B1BC
:1017F000204602F009FE83E02068406B40F23A2167
:10180000084008B1012000E00020002878D02068BE
:10181000406BC0F3400018B1A06B40F00200A06321
:101820002068406BC0F3C00018B1A06B40F0080006
:10183000A0632068406BC0F3401018B1A06B40F06B
:101840002000A0632068406BC0F3001018B1A06BAB
:1018500040F01000A0632068406BC0F3402018B136
:10186000A06B40F00800A06340F23A7021688863E2
:101870002068C06B40F23A3188432168C863206811
:1018800001F008F8A16B0843A06305F0080040B11F
:10189000012084F83400002020632046FFF71CFE5E
:1018A0002EE005F0800000B305F0100010B905F03F
:1018B000200050B11348E16B0865E06BFFF718F8A2
:1018C00098B1E06B02F0EEFD1AE005F0010010B9EE
:1018D00005F0020050B10C48216C0865206CFFF740
:1018E00007F810B1206C02F0B9FD09E00020A063F8
:1018F000012084F83400002020632046FFF782FD99
:1019000070BD0000A54400085D44000810B5044601
:101910000CB9012010BD94F8340020B900202077C4
:10192000204600F067F8032084F83400204600F0D9
:101930000BF808B10120EDE70020A063206301202F
:1019400084F834000020E5E770B58AB00446002032
:10195000049005900690079008907620099007A8BB
:1019600007C88DE80700206804A90EC900F0D2FD61
:10197000064616B101200AB070BD00201B49086060
:10198000206800F0E1FD01201849A039C1F8A0004D
:10199000204602F02DFC05463DB1012084F83400BC
:1019A000A06B2843A0630120E5E7204602F0ABFCD2
:1019B00005463DB1012084F83400A06B2843A063A4
:1019C0000120D8E74FF40071206800F01FFE0546A3
:1019D0004DB1074821688863A06B2843A0630120AC
:1019E00084F83400C7E70020C5E70000A080254246
:1019F000FF05400010B586B00446142101A8FEF78B
:101A000057FD2E492068884255D100BF0020009024
:101A10002B48006840F400602949086008460068C7
:101A200000F40060009000BF00BF00BF00200090E5
:101A300023481438006840F0040021491439086034
:101A40000846006800F00400009000BF00BF00BF1F
:101A5000002000900846006840F008000860084632
:101A6000006800F00800009000BF00BF4FF4F8507D
:101A700001900220029001200390032004900C208A
:101A8000059001A90F48FEF75BFF0420019002209A
:101A9000029001200390032004900C20059001A9DE
:101AA0000948FEF74DFF002211463120FFF7CAF822
:101AB0003120FFF7B7F806B010BD0000002C014040
:101AC0004438024000080240000C02402DE9FF4F5C
:101AD00089B004468B469946DDF858A0FFF728F8F0
:101AE00002900B9800905D46BBF1000F07D1A06BF0
:101AF00040F00060A06301200DB0BDE8F08F94F8C5
:101B0000340001287ED10020A063009800EB090179
:101B1000E06D814205D9A06B40F00070A063012008
:101B2000EAE7032084F8340000202168C862606C72
:101B3000012802D00098400200904FF0FF3003903F
:101B40004FEA492004909020059002200690002042
:101B500007900120089003A9206800F0AEFCB9F1BD
:101B6000010F07D9022020632068009900F0B6FD1C
:101B7000804606E0012020632068009900F0CAFD3D
:101B80008046B8F1000F0DD0754821688863A06BBE
:101B900040EA0800A063012084F83400002020639C
:101BA0000120A9E7049E3AE02068406B00F4004061
:101BB000E0B1DEB10020019015E0206800F0CDFC1E
:101BC00007462F706D1C761E380A28706D1C761E15
:101BD000380C28706D1C761E380E28706D1C761E11
:101BE0000198401C019001980828E6D3FEF7A0FF59
:101BF0000299401A504502D2BAF1000F0FD158484D
:101C0000216800E0A6E08863A06B40F00040A0637C
:101C1000012084F834000020206303206CE7206852
:101C2000406B40F22A3108400028BDD02068406B4C
:101C300000F48070D0B1B9F1010F17D9606C03289E
:101C400014D0206800F026FE8046B8F1000F0DD0B9
:101C5000434821688863A06B40EA0800A063012024
:101C600084F8340000202063012045E72068406BA1
:101C700000F0080068B13A4821688863A06B40F022
:101C80000800A063012084F83400002020630120B4
:101C900032E72068406B00F0020068B130482168EC
:101CA0008863A06B40F00200A063012084F8340038
:101CB0000020206301201FE72068406B00F0200017
:101CC00068B1274821688863A06B40F02000A063BA
:101CD000012084F834000020206301200CE729E073
:101CE000206800F03AFC07462F706D1C761E380AFB
:101CF00028706D1C761E380C28706D1C761E380EF0
:101D000028706D1C761EFEF713FF0299401A50458D
:101D100002D2BAF1000F0DD1114821688863A06B7F
:101D200040F00040A063012084F8340000202063CC
:101D30000120E1E62068406B00F4001008B1002E9D
:101D4000CED140F23A5021688863012084F83400F3
:101D50000020D1E6A06B40F00050A0630120CBE64C
:101D6000FF05400010B50446FEF718FD10BD10B584
:101D70000446FEF72DFD10BD2DE9F04F89B0044655
:101D8000894693469846FEF7D3FE0290DA464D46C2
:101D9000B9F1000F07D1A06B40F00060A0630120F3
:101DA00009B0BDE8F08F94F8340001287ED10020FE
:101DB000A0630AEB0801E06D814205D9A06B40F0F9
:101DC0000070A0630120EBE7032084F834000020BA
:101DD0002168C862606C012801D04FEA4A2A4FF09E
:101DE000FF3003904FEA4820049090200590002097
:101DF000069007900120089003A9206800F05DFB81
:101E0000B8F1010F07D9202020635146206800F067
:101E10005FFD064606E0102020635146206800F072
:101E200073FD064666B15F4821688863A06B304346
:101E3000A063012084F83400002020630120AFE774
:101E4000049F43E02068406B00F4804030B32FB320
:101E5000002001901FE0287800906D1C7F1E2878DC
:101E6000009941EA002000906D1C7F1E287800999F
:101E700041EA004000906D1C7F1E2878009941EADD
:101E8000006000906D1C7F1E6946206800F07DFB9D
:101E90000198401C019001980828DCD3FEF748FE09
:101EA0000299411A1298814203D200E074E012981C
:101EB00060B93C4821688863A06B3043A06301206F
:101EC00084F8340000202063032069E72068406B19
:101ED00040F21A3108400028B4D02068406B00F46A
:101EE0008070B8B1B8F1010F14D9606C032811D01B
:101EF000206800F0CFFC064666B12A482168886356
:101F0000A06B3043A063012084F8340000202063DC
:101F1000012045E72068406B00F0080068B12148C7
:101F200021688863A06B40F00800A063012084F85A
:101F3000340000202063012032E72068406B00F06D
:101F4000020068B1174821688863A06B40F0020066
:101F5000A063012084F834000020206301201FE7E3
:101F60002068406B00F0100068B10E48216888635B
:101F7000A06B40F01000A063012084F83400002022
:101F8000206301200CE740F23A5021688863012069
:101F900084F83400002003E7A06B40F00050A063F9
:101FA0000120FDE6FF05400070B504462546681E89
:101FB000B0F1807F01D301200FE0681E4FF0E021D7
:101FC00048610F214FF0FF3002F008FF00204FF072
:101FD000E021886107200861002070BD70477047CC
:101FE0002DE9F84F0446206805682068C668206817
:101FF00047694FF00009CA4605F00F09B9F1000F13
:102000000AD105F0200038B106F0200020B12046AA
:1020100002F002FCBDE8F88FB9F1000F7CD007F0A8
:10202000010018B906F49070002875D005F0010081
:1020300030B106F4807018B1206C40F001002064CB
:1020400005F0040030B107F0010018B1206C40F039
:102050000200206405F0020030B107F0010018B161
:10206000206C40F00400206405F0080048B106F040
:10207000200010B907F0010018B1206C40F00800F2
:102080002064206C002846D005F0200028B106F01E
:10209000200010B1204602F0BFFB20684069C0F369
:1020A000801A206C00F0080010B9BAF1000F2DD092
:1020B000204602F05DFC2068406900F040004028A6
:1020C00020D100BF00BF2168143151E8001F21F06A
:1020D00040002168143141E80002002AF3D100BF1A
:1020E000A06B50B17548A16B0865A06BFEF700FCB2
:1020F00088B1A06B016D88470DE02046FFF76FFFA8
:1021000009E009E02046FFF76AFF04E02046FFF7F8
:1021100066FF002020647DE7206B012876D105F062
:102120001000002872D006F010000028FAD000BF7E
:1021300000200090206800680090206840680090AF
:1021400000BF00BF2068406900F0400040285ED119
:10215000A06B006840681FFA80F8B8F1000F54D0F7
:10216000A08D404551DDA4F82E80A06BC069B0F56C
:10217000807F43D000BF00BF21680C3151E8001FB1
:1021800021F4807021680C3141E80002002AF3D16B
:1021900000BF00BF00BF2168143151E8001F21F0CB
:1021A00001002168143141E80002002AF3D100BF88
:1021B00000BF00BF2168143151E8001F21F040002A
:1021C0002168143141E80002002AF3D100BF202029
:1021D00084F83E000020206300BF00BF21680C315E
:1021E00051E8001F21F0100021680C3141E8000285
:1021F000002AF3D100BFA06BFEF724FBA08DE28D77
:10220000801A81B22046FFF7E9FE03E740E0A08D87
:10221000E18D401A1FFA80F8E08DC0B3B8F1000FCD
:1022200035D000BF00BF21680C3151E8001F21F4F8
:10223000907021680C3141E80002002AF3D100BF00
:1022400000BF00BF2168143151E8001F21F00100D8
:102250002168143141E80002002AF3D100BF202098
:1022600084F83E000020206300BF00BF21680C31CD
:1022700051E8001F21F0100021680C3141E80002F4
:10228000002AF3D100BF41462046FFF7A7FEC1E672
:1022900005F0800030B106F0800018B1204602F051
:1022A00037FBB7E605F0400030B106F0400018B14A
:1022B000204602F093FBADE600BFABE6FD49000807
:1022C00010B504460CB9012010BDA06900B100E0B2
:1022D00000BF94F83D0028B9002084F83C00204657
:1022E00000F028F8242084F83D002068C06820F41D
:1022F00000502168C860204602F078F92068006923
:1023000020F49040216808612068406920F02A008C
:10231000216848612068C06840F400502168C860A6
:1023200000202064202084F83D0084F83E00002036
:10233000CAE7000010B586B00446142101A8FEF7D4
:10234000B7F81F492068884238D100BF00200090AC
:102350001C48006840F010001A49086008460068F0
:1023600000F01000009000BF00BF00BF00200090F0
:1023700014481438006840F001001249143908600C
:102380000846006800F00100009000BF00BF4FF455
:10239000C06001900220029000200390032004906E
:1023A0000720059001A90848FEF7CAFA0022114645
:1023B0002520FEF747FC2520FEF734FC06B010BDB3
:1023C000001001404438024000000240704770474E
:1023D00000BFFEE710B503490348FEF700FA0349C2
:1023E000087010BD030000208C5800080200002077
:1023F00008B500BF002000901548006840F00400B8
:10240000134908600846006800F00400009000BF0F
:1024100000BF00BF002000900846006840F00100A7
:1024200008600846006800F00100009000BF00BF8F
:1024300000BF002000900846006840F008000860D7
:102440000846006800F00800009000BF00BF08BD0B
:1024500030380240064807490860002048600021E3
:1024600004488160C160016141610621816170475A
:10247000002C0140C406002010B50B480B49086031
:102480004FF4E1304860002108488160C16001617B
:102490000C21416100218161C161FFF711FF08B189
:1024A000FEF79AF910BD0000001001404807002017
:1024B00000BFFEE700BFFEE7704710B502460023ED
:1024C0000868506248689062D1E9020420430C69B0
:1024D00020434C6920430343D06A20F0F70018439F
:1024E000D062002010BD01460869C0B270470146A5
:1024F000086800F003007047024602F11400431818
:102500001868704710B50248FFF7F2F810BD0000D8
:10251000C40600200FB410B504460021DDE9030213
:102520001043059A1043069A1043079A1043089ADD
:1025300010430143606847F6FF62904308436060C0
:10254000002010BC5DF814FB10B504460320206089
:102550000220FEF7E1F9002010BD0146D1F880000D
:10256000704710B50246002308689060D1E9010465
:102570002043CC6820430C6920430343D0686FF3A9
:102580000B001843D060002010BD02460868C2F856
:1025900080000020704770B586B005460C46019457
:1025A0003720029040200390002004904FF4806078
:1025B000059001A92846FFF7D4FF41F28832372160
:1025C000284602F045FA0646304606B070BD0000C7
:1025D00070B586B005460C460B4820430190292073
:1025E000029040200390002004904FF480600590FA
:1025F00001A92846FFF7B5FF284602F031FB064641
:10260000304606B070BD00000000108070B586B086
:1026100005460C46019410200290402003900020B3
:1026200004904FF48060059001A92846FFF799FFB8
:1026300041F288321021284602F00AFA0646304656
:1026400006B070BD70B586B005460C4601940620F4
:10265000029040200390002004904FF48060059089
:1026600001A92846FFF77DFF41F28832062128465E
:1026700002F0EEF90646304606B070BD30B585B0C2
:102680000446002000900190029003904FF4806077
:10269000049069462046FFF764FF204602F0B8F92F
:1026A0000546284605B030BD30B585B004464FF428
:1026B000D5700090082001904020029000200390E7
:1026C0004FF48060049069462046FFF74AFF204699
:1026D00002F04EFB0546284605B030BD70B586B009
:1026E00005460C46019412200290402003900020E1
:1026F00004904FF48060059001A92846FFF731FF50
:1027000041F288321221284602F0A2F906463046EC
:1027100006B070BD70B586B005460C460194112018
:10272000029040200390002004904FF480600590B8
:1027300001A92846FFF715FF41F2883211212846EA
:1027400002F086F90646304606B070BDF0B585B099
:10275000064614461D460094072001904020029032
:10276000002003904FF48060049069463046FFF7E4
:10277000F8FE41F288320721304602F069F9074637
:10278000384605B0F0BD30B585B004460020009055
:1027900002200190C0200290002003904FF480603E
:1027A000049069462046FFF7DCFE204602F026FA38
:1027B0000546284605B030BD70B586B005460C46C6
:1027C000019409200290C0200390002004904FF44F
:1027D0008060059001A92846FFF7C3FE284602F055
:1027E0000DFA0646304606B070BD30B585B00446D9
:1027F00000200090332001904020029000200390A0
:102800004FF48060049069462046FFF7AAFE41F22B
:1028100088323321204602F01BF90546284605B0D0
:1028200030BD70B586B005460C4601940D2002906F
:1028300040200390002004904FF48060059001A98F
:102840002846FFF78EFE41F288320D21284602F01D
:10285000FFF80646304606B070BD70B586B0054636
:102860000C4600200190032002904020039000209D
:1028700004904FF48060059001A92846FFF771FE8F
:1028800022460321284602F017FA0646304606B0D3
:1028900070BD000030B585B00446002000900C20CB
:1028A000019040200290002003904FF4806004903B
:1028B00069462046FFF755FE044A0C21204602F0E7
:1028C000C7F80546284605B030BD000000E1F50513
:1028D00070B586B005460C46019419200290402040
:1028E0000390002004904FF48060059001A92846D1
:1028F000FFF737FE41F288321921284602F0A8F886
:102900000646304606B070BD70B586B005460C462A
:1029100001941820029040200390002004904FF46E
:102920008060059001A92846FFF71BFE41F288321E
:102930001821284602F08CF80646304606B070BDD5
:10294000704710B5FEF7FAF810BD000003480068A4
:1029500040F47000014908607047000088ED00E015
:1029600010B50248FFF73CFB10BD000048070020EF
:1029700000BFFEE710B50446012006490870FDF7C8
:10298000D7FE20B9204601F07DFB024908700148BE
:10299000007810BD0100002000B593B0302107A8D9
:1029A000FDF786FD142102A8FDF782FD00BF00207F
:1029B00001902548006840F080502349086008468F
:1029C000006800F08050019000BF00BF00BF0020F1
:1029D00001901E48006840F480401C490860084689
:1029E000006800F48040019000BF00BF0220079003
:1029F00001200A9010200B9002200D9000210E91D2
:102A000008210F91A8211091022111910721129103
:102A100007A8FEF7A9FA08B1FDF7DEFE0F20029025
:102A200002200390002004904FF4A05005904FF432
:102A300080500690052102A8FEF756F908B1FDF76F
:102A4000CBFE13B000BD00004038024000700040D3
:102A500070B505462846FDF798FC064603E00021C0
:102A6000701E06462954002E05DD711E685C02F0BA
:102A700045FE0028F3D1002400E0641C285D02F02C
:102A80003DFE0028F9D1002C05DD301B421C291920
:102A90002846FDF799FC70BD2DE9F04180460C46B3
:102AA00015461E460127BB1E324629462046FDF725
:102AB0005DFE28B900BFFDF72FFE0028FBD10027DF
:102AC0003846BDE8F0810000F0B589B007460D46F4
:102AD000144601261648007800F0010010B10320CA
:102AE00009B0F0BD35B1012D06D0022D0BD0032D5C
:102AF00018D10FE0002617E001A8FDF703FE0798A4
:102B00002060002610E001A8FDF7FCFD0898208059
:102B1000002609E001A8FDF7F5FD0898400A2060AD
:102B2000002601E0042600BF00BF3046D8E70000C1
:102B3000010000202DE9F04180460C4615461E4656
:102B40000127BB1E324629462046FDF729FE28B93B
:102B500000BFFDF7E1FD0028FBD100273846BDE8A6
:102B6000F08110B50446204601F08CFA10BD00003B
:102B7000014600200BE0074A02EB001212688A426D
:102B800004D10022034B03EB00131A60401C0228FF
:102B9000F1D370478C070020F0B503460D461E6840
:102BA000D86A021D680A7789B0FBF7F400BF02CA31
:102BB00009B90020F0BD8C4200D202E0641A121D57
:102BC000F5E700BF10682044F4E70246891E9069CB
:102BD000801E884201D8002070475389D06A01FBCB
:102BE0000300F9E72DE9F34F83B0814604980068AC
:102BF0000190D9F80000D0F80CA000200646054648
:102C000000BF28466D1C01990C5C202C00DA41E0C5
:102C10002F2C01D05C2C0AD100E06D1C0198405D86
:102C20002F28FAD00198405D5C28F6D032E0FF2EC4
:102C300003D3062005B0BDE8F08FE4B2812C13DB8E
:102C4000E0B2FE2810DC28466D1C01990F5C07EBF2
:102C5000042084B2402F01DB7E2F05DD802F01DBB5
:102C6000FE2F01DD0620E5E70121204602F0B4FC3D
:102C700004460CB90620DDE7802C06DA21466FA059
:102C800000F0E4FC08B10620D4E73046761C2AF8B0
:102C90001040B6E700BF0198411904980160202C4C
:102CA00001DA042000E00020804608E0701E3AF8B7
:102CB0001040202C02D02E2C00D002E0761E002ED8
:102CC000F4D100BF00202AF816000EB90620B1E7A3
:102CD0000B22202109F1240000F0F0FD002500E086
:102CE0006D1C3AF815002028FAD03AF815002E2865
:102CF000F6D00DB148F0030800E0761E26B1701E34
:102D00003AF810002E28F8D10020074602904FF024
:102D1000080B00BF28466D1C3AF8104004B963E068
:102D2000202C03D02E2C04D1B54202D048F0030849
:102D3000F0E70298584501D2B54214D1BBF10B0F10
:102D400002D148F003084FE0B54201D048F0030833
:102D5000B54200D948E03546082002904FF00B0BF1
:102D6000B806070ED6E7802C09DB204602F072FC7D
:102D70000021009002F030FC044648F00208FF2CCD
:102D800011DDABF101000299884204D848F0030834
:102D9000CDF808B0BEE722120298411C029109F159
:102DA00024010A5419E024B1214627A000F04EFC6A
:102DB00018B15F2448F003080FE0412C04DB5A2CC3
:102DC00002DC47F0020708E0612C06DB7A2C04DC09
:102DD00047F00107A4F1200084B20298411C02913F
:102DE00009F124010C5495E700BF99F82400E52867
:102DF00002D1052089F82400BBF1080F01D1B806E3
:102E0000070E07F00C000C2803D007F0030003287E
:102E100001D148F0020808F0020058B907F0030099
:102E2000012801D148F0100807F00C00042801D156
:102E300048F0080889F82F800020FBE6222A3A3C57
:102E40003E3F7C7F000000002B2C3B3D5B5D000083
:102E50002DE9F74F8AB000210B9801600A9800F025
:102E600084FB08900898002803DA0B200DB0BDE819
:102E7000F08FB449089851F820400CB90C20F5E7C0
:102E80000B9804600C9800F0FE000C90207878B14C
:102E9000607802F001F8814609F0010040B90C9811
:102EA00020B109F0040008B10A20DFE70020DDE7C7
:102EB0000020207008986070607801F0ABFF8146B8
:102EC00009F0010008B10320D0E70C9820B109F007
:102ED000040008B10A20C9E700273946204600F05F
:102EE00031FE0546022D01D02EDA2DE0002614E039
:102EF0004FF4DF7000EB061104F134000844099030
:102F00000998007920B10998083001F042F800E0F2
:102F1000002002A941F82600761C042EE8D30026E2
:102F200006B1761E00BF02A850F8267027B13946B8
:102F3000204600F007FE00E003200546022D03DBDB
:102F4000701C06460428EED3042D01D101208DE724
:102F5000022D01DB0D2089E704F13F0000F089FC20
:102F6000B0F5007F01D00D2080E704F14A0000F0A9
:102F700080FC8046B8F1000F04D104F1580001F044
:102F800008F88046C4F81C804420005DA070A0783A
:102F9000012804D0A078022801D00D2066E7A0788F
:102FA00008FB00F84120005D6081608918B16089EC
:102FB000411E084008B10D2058E704F1450000F01B
:102FC00058FC2081207A00F00F0008B10D204DE759
:102FD00004F1470000F04DFC8246BAF1000F04D125
:102FE00004F1540000F0D5FF824604F1420000F0E5
:102FF00040FC0190019808B90D2037E70198404442
:10300000218900EB111007900798824501D20D200D
:103010002CE70798AAEB00006189B0FBF1FBBBF13C
:10302000000F01D10D2021E703254FF6F5708345F0
:1030300000D8022540F6F570834500D801250BF134
:103040000200A06127620198384460620798384402
:10305000E062032D13D104F15E0000F00AFC08B118
:103060000D2003E7208908B10D20FFE604F1600080
:1030700000F08FFFA062A0698000069014E0208914
:1030800008B90D20F2E6606A4044A062022D02D128
:10309000A069400007E0207E00F00100A16901EB7B
:1030A000410100EB51000690E169069800F2FF1023
:1030B000B1EB502F01D20D20D8E64FF0FF30606108
:1030C000206180202071032D2CD104F1640000F0D8
:1030D000D0FB012826D1791C204600F0F3F808BB6C
:1030E0000020207104F2322000F0C3FB4AF6552183
:1030F000884217D104F1340000F04BFF1249884296
:1031000010D104F5067000F044FF1049884209D13F
:1031100004F5077000F03DFF606104F5087000F0F1
:1031200038FF206125700A480088401C80B2084999
:103130000880E0800748E0602046FFF719FD002086
:1031400094E6000018000020525261417272416101
:103150001C000020AC0700202DE9F3410446264660
:10316000D6F8008002E00198401C01900198007898
:103170002F28F8D0019800785C28F4D00020B060A7
:1031800001980078202808D280212F2001550021A5
:10319000204600F0B1FA05462BE000BF01A9204609
:1031A000FFF720FD054605B122E0204600F068FD4E
:1031B00005462F20075D35B1042D03D107F004002B
:1031C00000B9052514E007F0040000B110E0B07963
:1031D00000F0100008B905250AE0A08AC0F3080233
:1031E00008F134001118404600F0C0FEB060D5E789
:1031F00000BF2846BDE8FC812DE9FF4F83B007469C
:1032000091461E460B223846049900F04AFB052ED3
:1032100019D9B04612E039F802BB00250CE0584637
:1032200068F35F0080464FEA6B0B08F4803010B102
:10323000234888EA00086D1C102DF0D3B9F800006F
:103240000028E8D14646072500BF06F00F0000F130
:10325000300ABAF1390F03DD0AF1070000F0FF0A66
:1032600028466D1E01A901F800A03609002EECD1F8
:103270007E20485500240BE0385D812807DB385D4F
:10328000FE2804DC681EA04200D106E0641C641C19
:10329000AC4202D2385D2028EED100BF00BF082D1D
:1032A00004D228466D1C01A9095C00E020212046BB
:1032B000641C3954082CF2D307B0BDE8F08F00002D
:1032C0002110010070B504460D460026206BA8426F
:1032D00010D0204600F010F806465EB96078012351
:1032E0002A4604F1340101F0BFFD10B14FF0FF3563
:1032F00001262563304670BD2DE9F04104460027C4
:10330000E078F8B1256B607801232A4604F1340196
:1033100001F0D0FD08B1012714E00020E070606AE0
:10332000281AE16988420DD2A67809E0E0690544CF
:10333000607801232A4604F1340101F0BBFD761EBA
:10334000022EF3D23846BDE8F0812DE9F0478246DF
:103350008946DAF80040B9F1000F06D1276917B1A4
:10336000A069B84215D8012713E04946504600F03D
:1033700010FA0646022E02D20120BDE8F087701C2A
:1033800008B93046F9E7A069B04201D93046F4E700
:103390004F463D4600BF6D1CA069A84204D80225D7
:1033A000BD4201D90020E8E72946504600F0F1F976
:1033B000064606B909E0012E01D0701C08B9304656
:1033C000DBE7BD42E7D10020D7E700BF4FF0FF3277
:1033D0002946204600F07BFA8046B8F1000F08D15C
:1033E000B9F1000F05D02A464946204600F06FFA91
:1033F0008046B8F1000F0DD12561D4E90510801E7B
:10340000814202D86069401E6061207940F001006D
:10341000207107E0B8F1010F02D14FF0FF3000E05A
:10342000012005462846A8E72DE9FE4F04462668F8
:103430002F20005D00F0A00010B10620BDE8FE8F37
:103440004FF0000901E009F10109F06830F81900B6
:103450000028F8D10C2204F12401684600F021FA7A
:103460009DF80B0000F0010028B340212F200155EA
:103470004FF001080EE04346694604F12400F2686B
:10348000FFF7BAFE204600F0FBFB054605B104E05D
:1034900008F10108B8F1640FEDD300BFB8F1640F73
:1034A00001D10720CAE7042D01D02846C6E79DF8C0
:1034B0000B102F2001559DF80B0000F0020030B1D9
:1034C00009F10C000D21B0FBF1F0401C00E00120DF
:1034D00007463946204600F0A4FD05464DBB781E40
:1034E000071E26D06069A0EB4711204600F004F9C2
:1034F0000546F5B904F1240000F0CCFA824600BF7D
:103500003046E169FFF7DEFE054605B110E0FAB28C
:10351000216A5346F06800F077FA0120F07000212C
:10352000204600F02BFC054615B9781E071EE7D192
:1035300000BFC5B93046E169FFF7C4FE054695B93D
:1035400020220021206A00F0B9F90B2204F12401A5
:10355000206A00F0A6F92F20005D00F01800216A13
:1035600008730120F070284668E770B502464FF0F6
:10357000FF301568DDB1116800E0491C0D78202D81
:1035800002D30D783A2DF8D10D783A2D0ED114686A
:1035900014F8015BA5F130030A2B06D28C4204D14A
:1035A0001BB918464D1C2946156070BD002000BF90
:1035B000FBE72DE9F04781460E4617464FF000081D
:1035C000D9F80040022E02D3A069B04202D80220EE
:1035D000BDE8F08767B100BF4FF0FF3239462046A3
:1035E00000F075F98046B8F1000F01D04046EFE7D2
:1035F00000BF3146484600F0CCF8054605B922E048
:10360000012D01D10220E3E7681C08B90120DFE7A2
:1036100000223146204600F05AF98046B8F1000FEA
:1036200001D04046D4E7D4E90510801E814206D27D
:103630006069401C6061207940F0010020712E46D5
:10364000A069B042D5D800BF0020C1E7024600E023
:10365000521C107810B110788842F9D11078704758
:103660002DE9F04780460C4604F11A0000F001F9FC
:1036700010B10020BDE8F087207800F03F00401E28
:1036800000EB800101EBC0054FF00109002621E0AD
:103690001849895D081900F0ECF80746B9F1000FE8
:1036A00011D0FF2D0BD2384601F0D4FF82462946B7
:1036B0006D1C38F8110001F0CDFF824501D00020CB
:1036C000D8E7B94605E04FF6FF70874201D00020E9
:1036D000D0E7761C0D2EDBD3207800F0400038B107
:1036E000B9F1000F04D038F8150008B10020C1E787
:1036F0000120BFE7B85800082DE9F04104460D4607
:103700002668B5F5001F02D205F01F0010B1022097
:10371000BDE8F0816561A7681FB93078032800DB38
:10372000B76A47B93089B0EB551F01D80220EFE7DF
:10373000B06AE0611CE070894FEA402811E0394628
:10374000204600F026F80746781C08B90120DFE77C
:10375000022F02D3B069B84201D80220D8E7A5EB06
:1037600008054545EBD239463046FFF72EFAE061B1
:10377000A761E06908B90220CAE7E06900EB5520BB
:10378000E061C5F3080106F134000844206200201E
:10379000BEE72DE9F04781460C46D9F80050022CCF
:1037A00002D3A869A04202D84FF001085EE04FF0B2
:1037B000FF382878012804D002282CD0032851D1C2
:1037C0003CE0264606EB5606686A00EB5621284682
:1037D000FFF778FD00B148E03046761CC0F30801E1
:1037E00005F13400475C686A00EB56212846FFF774
:1037F00069FD00B139E0C6F3080105F13400405C11
:1038000047EA002704F0010008B1380901E0C7F3D6
:103810000B00804629E0686A00EB14212846FFF778
:1038200051FD00B121E040F2FF1101EA440205F12F
:103830003401501800F01DF8804616E0686A00EB6D
:10384000D4112846FFF73EFD00B10EE040F2FF1113
:1038500001EA840205F13401501800F09AFB20F0CF
:10386000704802E04FF0010800BF00BF4046BDE8CD
:10387000F087014648780A7842EA00207047F0B5A0
:1038800003461D460C46002000BF15F8017B14F8C6
:1038900001CBA7EB0C00561E321E01D00028F4D03D
:1038A000F0BD30B503460C463AB100BF14F8015BD9
:1038B00003F8015B551E2A1EF8D130BD10B5034632
:1038C00000BF03F8011B541E221EFAD110BD2DE9C2
:1038D000F04704460D4616464FF00209022D74D3F8
:1038E000A069A84271D92078012804D0022849D0C3
:1038F00003280DD15EE02F4607EB5707606A00EB07
:1039000057212046FFF7DEFC8146B9F1000F00D0B9
:1039100075E038467F1CC0F3080104F1340001EB68
:10392000000805F0010028B1F1B298F8000061F339
:103930001F1000E0304688F800000120E070606A47
:1039400000EB57212046FFF7BDFC8146B9F1000F7F
:1039500000D054E0C7F3080104F1340001EB000883
:1039600005F0010010B1C6F3071006E098F800005A
:1039700000F0F000C6F30321084388F8000001209E
:10398000E0703CE0606A00EB15212046FFF79AFCEE
:103990008146B9F1000F00D031E0B1B240F2FF1220
:1039A00002EA450304F13402981800F06DF8012092
:1039B000E07024E0606A00EBD5112046FFF782FC3E
:1039C0008146B9F1000F01D019E019E040F2FF1172
:1039D00001EA850204F13401501800F0DAFA66F3C6
:1039E0001B00064640F2FF1101EA850204F1340192
:1039F0005018314600F0EBFA0120E07000BF00BF24
:103A00004846BDE8F08700002DE9F04707460C4620
:103A10001546984684F80D800F20E0720020207330
:103A2000002104F11A0000F02FF8681E00EB80015D
:103A300001EBC00900200646824600BF4FF6FF702A
:103A4000864204D0484609F1010937F810600D4953
:103A500011F80A100819314600F016F80EB94FF6A1
:103A6000FF760AF1010082460D28E7D34FF6FF707A
:103A7000864202D037F8190008B945F04005257094
:103A8000BDE8F087B858000800F8011B091200F8DB
:103A9000011B704730B5014600200B2200BF4310C8
:103AA00003EBC01411F8015B6319D8B2531E1A1E40
:103AB000F5D130BD70B504462046FFF71DFC054624
:103AC000002D38D1207803282ED1207901282BD140
:103AD0004202002104F13400FFF7F0FE4AF65521BE
:103AE00004F23220FFF7D0FF144904F1340000F053
:103AF0006EFA134904F5067000F069FA04F50770D0
:103B0000616900F064FA04F50870216900F05FFA59
:103B1000206A401C20636078012304F13401226B89
:103B200001F0C8F90020207160780022114601F0F0
:103B300087F900B10125284670BD0000525261414D
:103B40007272416170B504460D460020E070401E5F
:103B5000206329462046FFF7B5FB08B1042070BD5D
:103B600004F23220FFF785FE4AF65521884201D043
:103B70000320F4E794F83400E92807D094F83400DF
:103B8000EB2817D13620005D902813D104F16A008C
:103B900000F0FFF920F07F400749884201D1002062
:103BA000DDE704F1860000F0F4F90449884201D110
:103BB0000020D4E70220D2E7464154004641543366
:103BC00030B502460B460020044601461CE01A4868
:103BD00000EB01100068A8B1174800EB0110006865
:103BE0001568A8420FD1144800EB01104068956891
:103BF000A84208D1104800EB011080685569A8421E
:103C000001D103E00124491C0229E0D300BF0229AD
:103C100006D10CB9022B01D1002030BD1220FCE7E7
:103C200033B9054800EB01108089B0F5807F01D1E0
:103C30001020F2E70020F0E78C07002010B50246C4
:103C4000531E1A46022B17D20C4B03EB0213998911
:103C5000B1F5807F00D10021002901DD4B1E99B212
:103C6000064B03EB0213998121B90023034C04EBAB
:103C700002142360002000E0022010BD8C07002009
:103C80002DE9F0470446D4F800A000212046FFF7B4
:103C900033FD064616B13046BDE8F0874FF0FF0809
:103CA000C1464FF0FF30206300BF5046E169FFF787
:103CB00009FB064606B15EE0206A05780DB90426C8
:103CC00059E0206AC07A00F03F07A771E52D04D0C3
:103CD00007F0080038B10F2F05D04FF0FF084FF064
:103CE000FF30206340E00F2F22D12F20005D00F035
:103CF000400098BB05F0400038B1206A90F80D9064
:103D000005F0BF05A8466069206345450CD1206ACF
:103D1000407B484508D1216ADAF80C00FFF7A0FC87
:103D200010B1A8F1010000E0FF2000F0FF081BE047
:103D3000B8F1000F05D1206AFFF7ACFE484500D16D
:103D400019E02F20005D00F0010040B90B2204F1C2
:103D50002401206AFFF793FD08B90CE004E04FF05E
:103D6000FF084FF0FF3020630021204600F006F8E6
:103D70000646002E99D000BF30468DE72DE9F0476A
:103D8000044689462568606900F12007E06910B1A2
:103D9000B7F5001F02D30420BDE8F087C7F3080081
:103DA000002868D1E069401CE061A06938B9288921
:103DB000B0EB571F5FD80020E0610420ECE7688972
:103DC000401E00EA5720002855D12046A169FFF780
:103DD000E0FC0646012E01D80220DDE7701C08B980
:103DE0000120D9E7A869B0423FD8B9F1000F03D14B
:103DF0000020E0610420CFE72046A169FFF7A5FA83
:103E000006460EB90720C7E7012E01D10220C3E7FD
:103E1000701C08B90120BFE72846FFF76DFA08B10A
:103E20000120B9E74FF40072002105F13400FFF7DB
:103E300045FD4FF0000831462846FEF7C6FE2863D0
:103E40000CE00120E8702846FFF756FA08B101207F
:103E5000A2E708F10108286B401C286368894045E7
:103E6000EFD8286BA0EB08002863A66131462846EE
:103E7000FEF7ABFEE0616761C7F3080105F13400AE
:103E800008442062002087E7002100E0491C022945
:103E900005D2064800EB011000680028F6D102297F
:103EA00001D0012070470020FCE700008C070020B3
:103EB00010B502460B46002116E02B4800EB01101E
:103EC00000681468A0420ED1274800EB011040683A
:103ED0009468A04207D1244800EB0110806854691F
:103EE000A04200D102E0491C0229E6D300BF02290A
:103EF00022D1002100E0491C022905D21A4800EB1A
:103F0000011000680028F6D1022901D1002010BD5F
:103F1000154C04EB011410682060134C04EB0114E1
:103F200090686060104C04EB01145069A0600020A0
:103F30000D4C04EB0114A08133B10B4800EB0110D0
:103F4000808908B10020E2E713B14FF4807004E0EB
:103F5000054800EB01108089401C034C04EB011460
:103F6000A081481CD3E700008C07002070B50546EF
:103F70000C4604F11A00FFF77CFC0646287803285B
:103F800005D104F11400FFF774FC46EA0046304600
:103F900070BD0146C8788A7842EA00204A7842EA31
:103FA00000200A7842EA0020704770B506460C46A9
:103FB0001546A9B204F11A00FFF766FD3078032810
:103FC00004D1290C04F11400FFF75EFD70BD00F868
:103FD000011B090A00F8011B090A00F8011B090A64
:103FE00000F8011B704770B504460D4609268CB1D8
:103FF000206878B12068007860B1A0882168C988FD
:10400000884207D12168487800F046FF00F001009F
:1040100000B900260EB9206800E000202860304674
:1040200070BD2DE9F04104460E46D4F80080002111
:104030002046FFF761FB0546EDB9002700BF40466B
:10404000E169FFF73FF9054605B113E0206A007802
:10405000E52802D0206A007820B9781C0746B042D3
:1040600001D107E0002701212046FFF787FE054622
:10407000002DE4D000BF042D00D107252846BDE85F
:10408000F081000010B50446012007490870FCF7D4
:1040900043FB28B90448007820F001000249087069
:1040A0000148007810BD0000010000202DE9F04318
:1040B00089B004460F46FCF73BFD81464FF00008EF
:1040C0000020019002903E4608212068FEF79EFAEB
:1040D00005461DB1284609B0BDE8F0835022125BA9
:1040E00011042068FEF757FA05460DB12846F2E79D
:1040F0004FF0FF30039008200490302005900220FC
:104100000690002007900120089003A92068FEF780
:10411000D4F92068FEF769FB05460DB12846DAE7B9
:104120001CE02068406B00F4001040B12068FEF7EE
:1041300014FA01A941F8280008F1010805E02068F7
:10414000406B00F4005000B90EE0FCF7F1FCA0EB6E
:104150000900401C10B94FF00040BCE72068406BDC
:1041600000F02A000028DCD000BF2068406B00F07F
:10417000080018B1082021688863ACE72068406B0C
:1041800000F0020018B1022021688863A3E72068CC
:10419000406B00F0200018B12020216888639AE766
:1041A00040F23A502168886302980006029901F4AF
:1041B0007F4140EA0120029901F47F0140EA112089
:1041C000029940EA11603060361D0198000601999D
:1041D00001F47F4140EA0120019901F47F0140EAA6
:1041E0001120019940EA11603060002073E700005F
:1041F000F8B5044600200090002600272068FEF74E
:104200003DFA05460DB12846F8BD2068FEF74CFA88
:10421000054645B10021A1642068FEF72FFA054646
:104220001DB12846F0E70121A164A06C012808D146
:1042300000212068FEF7AFF9054615B14FF0805018
:10424000E2E71DE000212068FEF7A5F905460DB163
:104250002846D9E718492068FEF7BAF9054615B18E
:104260004FF08050D0E700212068FEF745F9064660
:10427000012080EAD67080F001070098401C009071
:104280004FF6FF710098884201D2002FDAD04FF626
:10429000FF710098884202D34FF08070B4E706F0B7
:1042A0008040B0F1804F02D10120606401E0002025
:1042B00060640020A8E70000000010C12DE9F04173
:1042C0000546AC6AEF6AE7B14FF0000814E02868D1
:1042D000FEF743F906462670641C7F1E300A2070E4
:1042E000641C7F1E300C2070641C7F1E300E2070FA
:1042F000641C7F1E08F10108B8F1080FE7D3AC6217
:10430000EF62BDE8F08130B58FB004460120039024
:104310002068FEF7ECF818B94FF080600FB030BDA0
:10432000606C03281BD02068FEF72DFA05460DB1FE
:104330002846F3E700212068FEF7DEF860670421D5
:104340002068FEF7D9F8A06708212068FEF7D4F8A6
:10435000E0670C212068FEF7CFF880210851606CDF
:10436000032807D003A92068FEF777FA05460DB1A8
:104370002846D3E7606C032820D0BDF80C102165D7
:104380005022125B11042068FEF716FA05460DB1A3
:104390002846C3E700212068FEF7AEF860660421D6
:1043A0002068FEF7A9F8A06608212068FEF7A4F8A7
:1043B000E0660C212068FEF79FF820670421206842
:1043C000FEF79AF8010DE16404A92046FDF786F88E
:1043D00010B14FF08050A1E75020005B01040A4665
:1043E00000232068FEF7B2F905460DB1284695E78F
:1043F000D4E90412A069CDE90012029094E80F00FC
:10440000FEF788F8002089E7F8B505462C6A6E6A41
:104410001EB300271DE020780090641C761E2078D3
:10442000009941EA00200090641C761E20780099D3
:1044300041EA00400090641C761E2078009941EA11
:1044400000600090641C761E69462868FEF79DF89F
:104450007F1C082FDFD32C626E62F8BD70B5054655
:10446000AC6B40F23A50216888632046FDF72DF985
:104470000646012084F8340000202063062E01D077
:10448000052E05D12068FEF705FAA16B0843A0634D
:10449000A06B18B92046FCF7B5FF02E02046FDF7F7
:1044A0001BF870BD70B50546AC6B40F23A50216800
:1044B00088632046FDF709F90646012084F8340098
:1044C00000202063062E01D0052E05D12068FEF7BE
:1044D000E1F9A16B0843A063A06B18B92046FCF773
:1044E00091FF02E02046FCF7F7FF70BD70B504466F
:1044F0000D4615B94FF0006070BD5022125B1104DB
:104500002068FEF78EF906460EB13046F4E700212A
:104510002068FDF7F1FF28600020EDE77CB5044638
:1045200000200090019000212068FDF7E5FF00F0D9
:104530000070B0F1007F02D14FF400607CBD69468D
:104540002046FFF7B3FD05460DB12846F6E7019872
:1045500000F4802098B15022125B11042068FEF70D
:104560001AF805460DB12846E8E702212068FEF753
:1045700069F805460DB12846E0E70020DEE74FF078
:104580008060DBE77CB504460020009001900021AC
:104590002068FDF7B1FF00F00070B0F1007F02D19C
:1045A0004FF400607CBD69462046FFF77FFD05465D
:1045B0000DB12846F6E7019800F4803098B15022FA
:1045C000125B11042068FDF7E6FF05460DB1284691
:1045D000E8E700212068FEF735F805460DB12846CA
:1045E000E0E70020DEE74FF08060DBE72DE9F84FE1
:1045F00004462068006920F44050E16808432168BF
:1046000008612169A068084361690843E1690843BA
:1046100000902068C06849F20C6188430099084303
:104620002168C8602068406920F44070A16908438F
:104630002168486176492068884203D0754920681E
:10464000884203D1FCF728FC814602E0FCF714FC09
:104650008146E069B0F5004F6CD102206168A0FB93
:10466000015003461920A9FB007001462A4638462E
:10467000FBF70AFE6421B0FBF1F04FEA001A0220BA
:104680006168A0FB01510B461920A9FB00712A4665
:104690003846FBF7F9FD834602206168A0FB015014
:1046A00003461920A9FB00712A463846FBF7ECFDAA
:1046B0006421B0FBF1F000EBC00101EB0010ABEBAB
:1046C0008000322101EBC0006421B0FBF1F000F06A
:1046D000F8000AEB400A02206168A0FB0150034683
:1046E0001920A9FB007001462A463846FBF7CCFD8D
:1046F000834602206168A0FB015003461920A9FBF4
:1047000000712A463846FBF7BFFD6421B0FBF1F08B
:1047100000EBC00101EB0010ABEB8000322101EB9C
:10472000C0006421B0FBF1F000F0070050442168A4
:1047300088606AE004206168A0FB015003461920EC
:10474000A9FB007001462A463846FBF79DFD8246CC
:1047500004206168A0FB015003461920A9FB0070EA
:1047600001462A463846FBF78FFD6421B0FBF1F085
:1047700000EBC00101EB0010AAEB8000322101EB3D
:1047800000106421B0FBF1F000F0F00A0420616831
:10479000A0FB017003461920A9FB00513A462846A8
:1047A000FBF772FD6421B0FBF1F00AEB001A042064
:1047B0006168A0FB01510B461920A9FB00712A4634
:1047C0003846FBF761FD834604206168A0FB015079
:1047D00003461920A9FB007001462A463846FBF71C
:1047E00053FD6421B0FBF1F000EBC00101EB0010C0
:1047F000ABEB8000322101EB00106421B0FBF1F043
:1048000000F00F00504421688860BDE8F88F000078
:104810000010014000140140F8B5044694F83E0031
:10482000222873D1A068B0F5805F0CD1206950B9FF
:104830000025A66A20684068C0F308003080A06A9E
:10484000801CA06215E0A56A0026A068B0F5805F14
:1048500003D0A06828B9206918B92068406828707A
:1048600004E02068406800F07F002870A06A401CC7
:10487000A062E08D401E80B2E085002844D120680F
:10488000C06820F020002168C8602068C06820F45B
:1048900080702168C8602068406920F001002168AC
:1048A0004861202084F83E00206B012826D100209A
:1048B000206300BF00BF21680C3151E8001F21F0C8
:1048C000100021680C3141E80002002AF3D100BF3A
:1048D0002068006800F0100010280AD100BF0020F6
:1048E000009020680068009020684068009000BF39
:1048F00000BFA18D2046FDF771FB02E02046FDF7C9
:1049000065FD0020F8BD01E00020FBE70220F9E78B
:10491000014691F83D00212828D18868B0F5805FD4
:104920000BD1086948B90A6A1088C0F308000B68FF
:104930005860086A801C086205E00B6A581C08620F
:1049400018780B685860C88C401E80B2C88458B96B
:104950000868C06820F080000B68D8600868C068EC
:1049600040F040000B68D860002070470220FCE750
:1049700000BF00BF02680C3252E8002F22F4907191
:1049800002680C3242E80013002BF3D100BF00BFD5
:1049900000BF0268143252E8002F22F001010268C1
:1049A000143242E80013002BF3D100BF016B012940
:1049B0000ED100BF00BF02680C3252E8002F22F077
:1049C000100102680C3242E80013002BF3D100BF43
:1049D000202180F83E1000210163704710B5044685
:1049E0002068C06820F040002168C860202084F85A
:1049F0003D002046FDF7EBFC002010BD70B50546DC
:104A0000AC6B0020E085E0842046FDF7E8FA70BD3D
:104A100001460E480068C0084FF47A73B0FBF3F00B
:104A200041F2883300FB03F200BF101EA2F1010225
:104A300002D14FF000407047486B00F08000002822
:104A4000F3D0C52088630020F5E7000014000020A3
:104A50002DE9F04305460F46904666480068C008B9
:104A60004FF47A71B0FBF1F000FB08F900BFB9F127
:104A70000000A9F1010903D14FF00040BDE8F08327
:104A80006E6B06F045000028F1D006F400600028A7
:104A9000EDD1686B00F0040010B10420A863EDE7CD
:104AA000686B00F0010010B10120A863E6E7C520A3
:104AB000A8632846FDF717FDB84201D00120DDE7C5
:104AC00000212846FDF718FD04464B48204008B950
:104AD0000020D3E704F00040B0F1004F02D14FF0C6
:104AE0000070CBE704F08040B0F1804F01D140204E
:104AF000C4E704F00050B0F1005F01D18020BDE7B1
:104B000004F08050B0F1805F02D14FF48070B5E7BF
:104B100004F00060B0F1006F02D14FF40070ADE717
:104B200004F08060B0F1806F02D14FF48060A5E79F
:104B300004F08070B0F1807F02D14FF400609DE7F7
:104B400004F40000B0F5000F02D14FF4805095E757
:104B500004F48000B0F5800F02D14FF400508DE7CF
:104B600004F40010B0F5001F02D14FF4804085E737
:104B700004F48010B0F5801F02D14FF400407DE7AF
:104B800004F48020B0F5802F02D14FF4003075E797
:104B900004F40030B0F5003F02D14FF480206DE7FF
:104BA00004F48030B0F5803F02D14FF4002065E777
:104BB00004F40040B0F5004F02D14FF480105DE7DF
:104BC00004F48040B0F5804F02D14FF4001055E757
:104BD00004F40050B0F5005F02D14FF480004DE7BF
:104BE00004F00800082801D1000547E74FF48030A1
:104BF00044E700001400002008E0FFFD10B5014666
:104C000016480068C0084FF47A74B0FBF4F041F223
:104C1000883400FB04F300BF181EA3F1010302D186
:104C20004FF0004010BD4A6B02F045000028F3D061
:104C300002F400600028EFD1486B00F0040010B1CE
:104C400004208863EEE7486B00F0010010B10120FA
:104C50008863E7E7C52088630020E3E714000020AD
:104C600010B5014613480068C0084FF47A74B0FBD1
:104C7000F4F041F2883400FB04F300BF181EA3F1E6
:104C8000010302D14FF0004010BD4A6B02F0450015
:104C90000028F3D002F400600028EFD1486B00F048
:104CA000040010B104208863EEE7C520886300206B
:104CB000EAE70000140000202DE9F04304460F4607
:104CC00090462A480068C0084FF47A71B0FBF1F0B2
:104CD00041F2883100FB01F900BFB9F10000A9F1F0
:104CE000010903D14FF00040BDE8F083666B06F088
:104CF00045000028F1D006F400600028EDD1606B7B
:104D000000F0040010B10420A063EDE7606B00F038
:104D1000010010B10120A063E6E72046FDF7E3FBA8
:104D2000B84201D00120DFE7C520A0630021204662
:104D3000FDF7E2FB054605F4604020B9280CA8F811
:104D400000000020D0E705F48040B0F5804F02D18C
:104D50004FF40050C8E705F40040B0F5004F02D111
:104D60004FF48050C0E74FF48030BDE714000020BE
:104D700010B5014618480068C0084FF47A74B0FBBB
:104D8000F4F041F2883400FB04F300BF181EA3F1D5
:104D9000010302D14FF0004010BD4A6B02F0450004
:104DA0000028F3D002F400600028EFD1486B00F037
:104DB000040010B104208863EEE7486B00F00100A6
:104DC00010B101208863E7E7486B00F0400008B1AC
:104DD000402088630020DFE71400002010B5002881
:104DE00004DB0A07130E054A135406E00A07140EE3
:104DF000034A00F00F031B1FD45410BD00E400E071
:104E000018ED00E002480068C0F30220704700007F
:104E10000CED00E070B5044600250848005D58B967
:104E200001200649085501F10802105D0A1D52F8DB
:104E30002420116888470546284670BDAC0900202B
:104E40002DE9F04104460D4616460649085D091F46
:104E500051F8241032460B692946984707463846D0
:104E6000BDE8F081B40900202DE9F04104460D466B
:104E700016461F460749085D091F51F824103B4696
:104E80003246D1F808C02946E04780464046BDE892
:104E9000F0810000B409002070B50446044A105D9A
:104EA000121F52F82420516888470546284670BDD5
:104EB000B40900202DE9F04104460D4616461F4670
:104EC0000749085D091F51F824103B463246D1F8C6
:104ED0000CC02946E04780464046BDE8F08100000E
:104EE000B409002038B50546284600F02FFA0446DC
:104EF00064B969462846FFF776F8044634B928694C
:104F0000FEF79CFE04460CB900202860204638BD00
:104F1000F7B582B016460398019001A8FEF725FB6D
:104F20000546002D02DA0B2005B0F0BD0F4850F801
:104F3000254024B12046FDF71BFE0020207002987A
:104F400010B10020029908700849029841F8250024
:104F5000029808B1012E01D00020E5E7002202A945
:104F600003A8FDF775FF07463846DDE71800002067
:104F70002DE9F74F90B0044616461CB9092013B02E
:104F8000BDE8F08F06F03F06324602A911A8FDF7F2
:104F90005FFF0546002D79D10298039003A811996F
:104FA000FEF7DAF805468DB99DF83B0000F0800069
:104FB00008B106250AE026F0010008B1012000E052
:104FC0000020014603A8FEF7FBFD054606F01C0085
:104FD00000285CD06DB1042D08D1FEF755FF18B143
:104FE00003A8FEF721FA00E01220054646F0080665
:104FF0000AE09DF8120000F0110008B1072503E057
:1050000006F0040000B10825002D51D106F008007B
:1050100000284DD000F070FB01900B9901F10E00BB
:105020000199FEF7D4FF0B9901F116000199FEF7E3
:10503000CEFF20200B99C8720B990298FEF796FFBD
:10504000814600220B990298FEF7AFFF0B9901F100
:105050001C000021FEF7BBFF01200299C870B9F1C6
:10506000000F25D00298006B01900022494603A84A
:10507000FEF79FFA0546DDB9DDE90110FEF722F9DA
:105080000546A9F101000299086111E075E07DB9BA
:105090009DF8120000F0100008B1042508E006F0A9
:1050A000020028B19DF8120000F0010000B10725B0
:1050B000BDB906F0080008B146F040060298006B42
:1050C00060620B98A06226F0010008B1012000E0A8
:1050D0000020014603A8FEF7EBFE2061206900B91D
:1050E0000225002D57D10B990298FEF73FFFA060D3
:1050F0000B9901F11C00FEF74CFFE0600020E0621C
:10510000029820600298C088A080267500206075F3
:105110002062A0614FF40072002104F13000FEF71C
:10512000CDFB06F0200040B3E06830B3E068A0613A
:10513000029840894FEA402AA768D4F80C800CE016
:1051400039462046FEF725FB0746012F00D80225E9
:10515000781C00B90125A8EB0A080DB9D045EFD895
:10516000E76155B9C8F3080038B139460298FDF730
:105170002CFDB0F1000B01D102250CE00BEB582007
:105180002062226A02994878012304F13001FFF776
:105190006BFE00B101250DB1002020602846EEE62F
:1051A0002DE9FF4F85B0044615469A46DDF818B044
:1051B0000020CAF8000003A92046FEF714FF04905F
:1051C000049810B9607D049018B1049809B0BDE846
:1051D000F08F207D00F0010008B90720F6E7A169F3
:1051E000E068401A01900198854200D9019DA8E02D
:1051F000208BC0F30800002874D103984089401E1A
:10520000A16900EA5129B9F1000F1FD1A06910B9B5
:10521000A06802900CE0E06A28B12046A169FDF781
:10522000BBFC029004E02046E169FEF7B2FA02906E
:105230000298022802D202206075C7E70298401C3B
:1052400010B901206075C1E70298E061E169039837
:10525000FDF7BBFC064616B902206075B6E74E4462
:105260004FEA5528B8F1000F29D009EB080003993F
:105270004989884203D903984089A0EB090803991A
:105280004878434632465946FFF7EEFD10B10120FB
:1052900060759BE7207D00F0800068B1206A801B6C
:1052A000404509D2216A891B0BEB41204FF4007263
:1052B00004F13001FEF7F5FA4FEA482737E0206A9B
:1052C000B04220D0207D00F0800080B1226A039996
:1052D0004878012304F13001FFF7ECFD18B10120FB
:1052E000607573E710E0207D00F07F002075039962
:1052F00048780123324604F13001FFF7B5FD10B1C3
:105300000120607562E72662208BC0F30800C0F5BB
:105310000077AF4200D92F46208BC0F3080204F17A
:10532000300011183A465846FEF7BBFA00BFBB449E
:10533000A0693844A061DAF800003844CAF80000D7
:10534000ED1B002D7FF454AF00203FE7F8B5044675
:1053500069462046FEF747FE0646002E44D1207DD2
:1053600000F0400000283FD0207D00F0800070B1A8
:10537000226A00994878012304F13001FFF79AFD71
:1053800008B10120F8BD207D00F07F00207500F0FD
:10539000B3F90746616A0098FDF794FF06461EBB05
:1053A000A56AE87A40F02000E8722946A2682068E1
:1053B000FEF7FBFD05F11C00E168FEF708FE39462B
:1053C00005F11600FEF703FE002105F11200FEF7BD
:1053D0005BFB01200099C8700098FEF76BFB064646
:1053E000207D00F0BF0020753046CBE72DE9FF4F50
:1053F00083B0044615469B46049800900020CBF8E5
:10540000000001A92046FEF7EEFD0290029810B9B7
:10541000607D029018B1029807B0BDE8F08F207D42
:1054200000F0020008B90720F6E7A0692844A16946
:10543000884202D2A069C0F1FF35C3E0208BC0F3DF
:10544000080000287DD101984089401EA16900EA2A
:10545000512ABAF1000F26D1A06938B9A76897B9C7
:1054600000212046FDF771FF07460CE0E06A28B1F5
:105470002046A169FDF790FB074604E02046E1695C
:10548000FDF763FF074607B99FE0012F02D1022015
:105490006075C1E7781C10B901206075BCE7E76151
:1054A000A06800B9A760207D00F0800078B1226A72
:1054B00001994878012304F13001FFF7FBFC10B19A
:1054C00001206075A8E7207D00F07F002075E1696C
:1054D0000198FDF77AFB064616B9022060759BE736
:1054E00056444FEA5529B9F1000F2BD00AEB0900B9
:1054F00001994989884203D901984089A0EB0A099A
:10550000019948784B4632460099FFF7D3FC10B119
:105510000120607580E7206A801B48450ED2206A12
:10552000801B009A02EB40214FF4007204F130001E
:10553000FEF7B7F9207D00F07F0020754FEA49287B
:105540002BE013E0206AB0420FD0E168A0698842E6
:105550000BD2019948780123324604F13001FFF75C
:1055600083FC10B10120607556E72662208BC0F3E2
:105570000800C0F50078A84500D9A846218BC1F3E2
:10558000080204F13001501842460099FEF789F9EB
:10559000207D40F08000207500BF009840440090BE
:1055A000A0694044A061E168A069884201D9A0696E
:1055B00000E0E068E060DBF800004044CBF8000069
:1055C000A5EB0805002D7FF439AF00BF207D40F02A
:1055D0004000207500201FE72DE9F04102460F46EC
:1055E000802A01DA10462FE01FB1184B45F22056F1
:1055F00002E0174B45F220560025102416E0A6EBDA
:10560000050C0CEBDC7805EB68014FEA410C33F834
:105610001CC0944500D10BE04FEA410C33F81CC08C
:10562000944501DA0D4600E00E46641E002CE6D1DA
:1056300000BF34B14FF0010C0CEB410C33F81CC02F
:1056400001E04FF0000C6046BDE8F08166AD010856
:10565000E258000830B5B0F5805F01DA244D00E073
:10566000244D294600BF31F8022B0AB1904200DADE
:105670003CE031F8023B1C12DBB2D518854230DD2C
:10568000092C2CD2DFE804F005090F13171B1F2388
:105690002700851A31F8150021E0851A05F001056B
:1056A000451BA8B21BE0A0F11005A8B217E0A0F1BD
:1056B0002005A8B213E0A0F13005A8B20FE0A0F1D8
:1056C0001A05A8B20BE000F10805A8B207E0A0F1A6
:1056D0005005A8B203E0A0F5E355A8B200BF00BF93
:1056E00004E0002CBFD101EB4301BCE700BF30BD9B
:1056F000EA010308DC0303080020704710B50446E4
:10570000FAF7BAFD0068005D00F0010010BD00006E
:1057100088B0FBF71FFAFDF73FF9FCF769FEFCF7CD
:1057200099FEFCF757FEFCF7A7FE012237A1384887
:10573000FFF7EEFB374908700846007808B1FBF721
:105740004BF80A2234A13748FFF712FC31490870A0
:1057500008460078A0B9182233A102A8FAF776FE0D
:1057600002A8FAF712FE064601AB324602A92D48FE
:10577000FFF73CFE274908702A48FFF7B3FB00BF3C
:1057800001222FA12748FFF7F3FB224908700846A2
:10579000007870B907AB40F2FF122D492148FFF79E
:1057A000FFFC00202A49079A88541E48FFF79AFBFD
:1057B00001E0FBF711F8264D24E00A273946284678
:1057C000FAF7D9FD044600BF0CB10020207028462E
:1057D000FAF7DBFD18B904B915E0651C12E028469C
:1057E000FAF7D3FD064636B1701E285C0D2802D1AB
:1057F0000021701E29542846FDF72AF904B902E059
:10580000651C00BFD9E700BF00BFFEE70000000035
:105810002000002000000020746578742E747874D5
:10582000000000005402002048656C6C6F20535447
:105830004D333246343239205344494F210D0A004A
:10584000636F6D6D616E64732E7478740000000078
:105850008404002010B500290AD00878002807D059
:1058600005487844FAF7D8FE002801D0002010BD82
:105870000248784410BD000056AC02004EAC020055
:105880004FF04070E1EE100A7047000075290008E3
:10589000632B0008992A0008352B0008C92A000844
:1058A00000000000000000000102030406070809D0
:1058B000000000000102030401030507090E101295
:1058C0001416181C1E000100040010004000000106
:1058D0000002000001000200040008001000200087
:1058E0000000A400E8A1A700ECA1A800A7A1B000B7
:1058F000E3A1B100C0A1B700A4A1D700C1A1E000FD
:10590000A4A8E100A2A8E800A8A8E900A6A8EA00C7
:10591000BAA8EC00ACA8ED00AAA8F200B0A8F30069
:10592000AEA8F700C2A1F900B4A8FA00B2A8FC0022
:10593000B9A80101A1A81301A5A81B01A7A82B01C3
:10594000A9A84401BDA84801BEA84D01ADA86B019E
:10595000B1A8CE01A3A8D001ABA8D201AFA8D401B1
:10596000B3A8D601B5A8D801B6A8DA01B7A8DC015A
:10597000B8A85102BBA86102C0A8C702A6A1C9026B
:10598000A5A1CA0240A8CB0241A8D90242A891030E
:10599000A1A69203A2A69303A3A69403A4A695038B
:1059A000A5A69603A6A69703A7A69803A8A699035B
:1059B000A9A69A03AAA69B03ABA69C03ACA69D032B
:1059C000ADA69E03AEA69F03AFA6A003B0A6A103FB
:1059D000B1A6A303B2A6A403B3A6A503B4A6A603C7
:1059E000B5A6A703B6A6A803B7A6A903B8A6B10390
:1059F000C1A6B203C2A6B303C3A6B403C4A6B5032B
:105A0000C5A6B603C6A6B703C7A6B803C8A6B903FA
:105A1000C9A6BA03CAA6BB03CBA6BC03CCA6BD03CA
:105A2000CDA6BE03CEA6BF03CFA6C003D0A6C1039A
:105A3000D1A6C303D2A6C403D3A6C503D4A6C60366
:105A4000D5A6C703D6A6C803D7A6C903D8A60104FE
:105A5000A7A71004A1A71104A2A71204A3A71304C7
:105A6000A4A71404A5A71504A6A71604A8A717049D
:105A7000A9A71804AAA71904ABA71A04ACA71B046A
:105A8000ADA71C04AEA71D04AFA71E04B0A71F043A
:105A9000B1A72004B2A72104B3A72204B4A723040A
:105AA000B5A72404B6A72504B7A72604B8A72704DA
:105AB000B9A72804BAA72904BBA72A04BCA72B04AA
:105AC000BDA72C04BEA72D04BFA72E04C0A72F047A
:105AD000C1A73004D1A73104D2A73204D3A733041D
