:020000040800F2
:10000000E80600204D020008AF170008031700089B
:10001000AD170008E3040008451B000800000000BD
:10002000000000000000000000000000B3170008FE
:100030001D05000800000000B1170008B5170008F2
:1000400067020008670200086702000867020008EC
:1000500067020008670200086702000867020008DC
:1000600067020008670200086702000867020008CC
:1000700067020008670200086702000867020008BC
:1000800067020008670200086702000867020008AC
:10009000670200086702000867020008670200089C
:1000A000670200086702000867020008670200088C
:1000B000670200086702000867020008670200087C
:1000C000670200086702000867020008670200086C
:1000D00067020008391B0008670200086702000871
:1000E000670200086702000867020008670200084C
:1000F000670200086702000867020008670200083C
:10010000670200086702000867020008670200082B
:10011000670200086702000867020008670200081B
:10012000670200086702000867020008670200080B
:1001300067020008670200086702000867020008FB
:1001400067020008670200086702000867020008EB
:1001500067020008670200086702000867020008DB
:1001600067020008670200086702000867020008CB
:10017000670200086702000867020008000000002C
:1001800067020008670200086702000867020008AB
:10019000670200086702000867020008670200089B
:1001A00067020008670200086702000800F002F812
:1001B00000F03CF80AA090E8000C82448344AAF1C5
:1001C0000107DA4501D100F031F8AFF2090EBAE8C3
:1001D0000F0013F0010F18BFFB1A43F0010318477B
:1001E000081A0000281A0000103A24BF78C878C105
:1001F000FAD8520724BF30C830C144BF04680C602D
:10020000704700000023002400250026103A28BF74
:1002100078C1FBD8520728BF30C148BF0B60704778
:100220001FB501F0CFFC1FBD10B510BD00F020F9C7
:100230001146FFF7F5FF01F097FC00F03EF903B41B
:10024000FFF7F2FF03BC00F045F9000009488047C2
:1002500009480047FEE7FEE7FEE7FEE7FEE7FEE7A8
:10026000FEE7FEE7FEE7FEE704480549054A064BC0
:100270007047000055180008AD010008E800002094
:10028000E8060020E8020020E802002053EA020C01
:1002900000F069802DE9F04B4FF00006002B1FBFE6
:1002A000B3FA83F503FA05F424FA05F65E4012BFAB
:1002B0001643B2FA82F502FA05F4C5F120051EBF15
:1002C00022FA05FC44EA0C04203556EA044C4FEAB5
:1002D000144418BF641C4FF000084FF0000990420E
:1002E00071EB030C39D3002919BFB1FA81F701FA78
:1002F00007F6B0FA80F700FA07F6C7F120071EBF2D
:1003000020FA07FC46EA0C062037B6FBF4FCA7EB04
:100310000507103F07F01F0BCBF120060CFA0BFB73
:100320002CFA06F644BFB3460026202FA4BF5E4633
:100330004FF0000B5BEA060C08BF4FF0010B19EB06
:100340000B09ABFB027C48EB0608C01B06FB02CC8A
:100350000BFB03CC71EB0C01C1E70B460246414697
:100360004846BDE8F08B13B54FF000004FF0000198
:10037000AFF30080BDE81C40704710B5431C02E09D
:1003800010F8011B71B18107FAD14FF0013202C898
:100390008C1A8C4314EAC211F9D0C01A0A0603D091
:1003A000C01E10BDC01A10BD0A0401D0801E10BDB1
:1003B0000902FCD0401E10BD10B5203AC0F00B80E1
:1003C000B1E81850203AA0E81850B1E81850A0E859
:1003D0001850BFF4F5AF5FEA027C24BFB1E81850B3
:1003E000A0E8185044BF18C918C0BDE810405FEA23
:1003F000827C24BF51F8043B40F8043B08BF70479F
:10040000D20728BF31F8023B48BF11F8012B28BFA3
:1004100020F8023B48BF00F8012B70474FF0000264
:1004200000B5134694469646203922BFA0E80C50EA
:10043000A0E80C50B1F12001BFF4F7AF090728BFC5
:10044000A0E80C5048BF0CC05DF804EB890028BF41
:1004500040F8042B08BF704748BF20F8022B11F06A
:10046000804F18BF00F8012B7047704770477047E6
:10047000754600F02BF8AE4605006946534620F05D
:100480000700854618B020B5FFF7EEFEBDE8204016
:100490004FF000064FF000074FF000084FF0000B40
:1004A00021F00701AC46ACE8C009ACE8C009ACE8F3
:1004B000C009ACE8C0098D46704710B50446AFF3DB
:1004C00000802046BDE81040FFF7B9BE00487047E5
:1004D0008400002001491820ABBEFEE72600020080
:1004E0007047FEE700B587B04FF4FF71009100211F
:1004F000019108220291CDE903128DF814100246F1
:1005000006AB6946044800F061F8002801D072B6D5
:10051000FEE707B000BD000014000020704772B66F
:10052000FEE7000000B58BB02C2207A16846FFF75C
:1005300043FF6846FFF721FF82B2642369460D48F6
:1005400001F08EF80BB000BD2D3E20526563656949
:10055000766564202730272C20657865637574697B
:100560006E672046756E6374696F6E20422E2E2E64
:100570000D0A00003C00002000B58BB02C2207A122
:100580006846FFF719FF6846FFF7F7FE82B264235B
:1005900069460D4801F064F80BB000BD2D3E2052B5
:1005A00065636569766564202731272C2065786549
:1005B000637574696E672046756E6374696F6E202B
:1005C000412E2E2E0D0A00003C000020F0B590F8C0
:1005D00020500468A468012D05D0022D03D0416A83
:1005E00041F480214DE014F0406F01D1E50045D584
:1005F000C4F301640125A5401D608D684FF4C073EC
:100600009DB1CE6835434E6845EAC605066803EBE2
:100610000417F5514FF4C275076805EB04150E6910
:100620007E51097D012905D009E00E88CD6845EA93
:100630004655EBE701684E5946F480764E511179E4
:10064000D2F805504FF4C67641EA0521056806EB5D
:100650000416A9511178D2F801204FF4C47541EA6B
:100660000221026805EB04155151006803EB0411E7
:10067000425842F0010242500020F0BD416A41F46C
:10068000001141620120F0BD70B5040003D094F860
:10069000200010B104E0012070BD204600F082F877
:1006A0002068016841F00101016000F065FA05462B
:1006B000052604E000F060FA401B0A2811D82068E3
:1006C0004068C007F6D02068016821F0020101608F
:1006D00000F052FA05460BE000F04EFA401B0A28E3
:1006E00006D9606A40F40030606284F82060D2E786
:1006F000206840688007EFD4207E012820680168C8
:100700003DD021F080010160607E012820680168F1
:1007100038D021F040010160A07E012820680168E6
:1007200033D021F020010160E07E012820680168BB
:100730002ED041F010010160207F0128206801685F
:1007400029D021F008010160607F0128206801683C
:1007500024D021F004010160D4E902010843D4E966
:100760000412114308436168491E08432168C861A7
:1007700000206062012084F82000002070BD41F05C
:100780008001C0E741F04001C5E741F02001CAE720
:1007900021F01001CFE741F00801D4E741F0040156
:1007A000D9E7000010B586B0044614216846FFF76B
:1007B00035FE14492068884221D11348002102687F
:1007C00042F000720260006800F0007005900E4870
:1007D0001038026842F001020260006800F0010077
:1007E00005904FF4C05000900220CDE90101032094
:1007F0000390092004906946044800F0A3F806B06D
:1008000010BD00000064004040380240000002407B
:1008100070B5044690F82000012804D0606A40F4C6
:100820000020606218E0022084F82000206801683F
:1008300021F00101016000F09FF905460EE000BFC4
:1008400000F09AF9401B0A2808D9606A40F4003089
:100850006062052084F82000012070BD2068406897
:10086000C007EDD1606270BD2DE9F0410446876D8F
:1008700000F082F9064694F835000025022806D0DB
:100880008020606584F834500120BDE8F081206844
:10089000016821F0160101602068416921F08001A2
:1008A0004161206C08B9A06C20B12068016821F07A
:1008B000080101602068016821F0010101600CE07D
:1008C00000F05AF9801B052807D920206065032015
:1008D00084F8350084F83450D7E720680068C007F2
:1008E000EED194F85C103F208840B860012084F875
:1008F000350084F834500020C7E790F835100229FD
:1009000003D08021416501207047052180F8351012
:100910000068016821F001010160002070470000BB
:1009200070B5044600F028F90546601C02D0044862
:100930000078044400F020F9401BA042FAD370BDB7
:10094000040000202DE9F84FDFF8F8A1002201246F
:1009500003254FF00F090AF1040BAAF1040E00BFA2
:100960000B6804FA02F63340B34270D10F7907F0F6
:100970000307012F01D0022F16D187684FEA4208E2
:1009800005FA08FC27EA0C07D1F80CC00CFA08FCA1
:100990004CEA070CC0F808C04768B7430E79C6F3A5
:1009A000001696403E4346600E79F643B6070AD0DD
:1009B000C7684FEA420C05FA0CF6B7438E6806FA90
:1009C0000CF63E43C6600E7906F00306022E10D1E7
:1009D000D60800EB8608D8F8206057074FEAD76C96
:1009E00009FA0CF7BE430F6907FA0CF73743C8F84A
:1009F000207006684FEA420C05FA0CF7BE430F79E7
:100A000007F0030707FA0CF7374307604E6816F440
:100A1000403F1CD04C4E376847F4804737603668FB
:100A200022F0030706F480460096484E07EB060CBA
:100A3000DCF8086897073F0F09FA07F826EA080666
:100A4000DFF80C81404503D14FF0000841E072E02F
:100A5000DFF80081404502D14FF0010839E0DFF8AE
:100A6000F880404502D14FF0020832E0DFF8EC8018
:100A7000404502D14FF003082BE0DFF8E480404509
:100A800002D14FF0040824E0DFF8D880404502D1BD
:100A90004FF005081DE0DFF8D080404502D14FF04F
:100AA000060816E0DFF8C480404502D14FF0070881
:100AB0000FE0DFF8BC80404502D14FF0080808E0A5
:100AC000DFF8B080404502D14FF0090801E04FF057
:100AD0000A0808FA07F848EA0608CCF80888DAF89D
:100AE00000605746D1F804C09E435FEACC2C00D585
:100AF0001E433E60DBF800605F46D1F804C09E43B1
:100B00005FEA8C2C00D51E433E60DEF8006077461D
:100B1000D1F804C09E435FEA8C3C00D51E433E6082
:100B2000084F083F3E68D1F804C09E435FEACC3CC2
:100B300000D51E433E60521C102AFFF411AFBDE8E1
:100B4000F88F0000083C014044380240003001406A
:100B5000000002400004024000080240000C024075
:100B6000001002400014024000180240001C024025
:100B700000200240002402400148806870470000C5
:100B800004000020024881680278114481607047A7
:100B9000040000200B4810B5016841F400710160A9
:100BA000016841F480610160016841F48071016075
:100BB000032000F06FF80F2000F006F800F024F892
:100BC000002010BD003C024070B50D4D04464FF4AE
:100BD0007A712878B1FBF0F00A490968B1FBF0F0AE
:100BE00000F044FB48B9102C07D200222146501EC9
:100BF00000F030F800206C6070BD012070BD000076
:100C000004000020100000200A4808B5016841F4E3
:100C100080410160006800F4804000900548001F9A
:100C2000016841F080510160006800F08050009040
:100C300008BD000044380240002809DB00F01F0214
:100C4000012191404009800000F1E020C0F800112E
:100C500070470000F0B40E4B1B680C46C3F3022330
:100C6000C3F10705042D00D90425191D072901D258
:100C7000002300E0DB1E012606FA05F1491E214093
:100C800099409E40761E16403143F0BC00F05BBF99
:100C90000CED00E0064900F0070208684FF6FF037C
:100CA000184040EA0220034A1043086070470000E1
:100CB0000CED00E00000FA052DE9F8431748016843
:100CC00041F0805101600068154F00F0805001260E
:100CD00000903E64FFF750FF05464FF47A78114CC0
:100CE00005E000BFFFF748FF401B40450DD8606896
:100CF000C003F7D57E64FFF73FFF0546464607E091
:100D0000FFF73AFF401BB04202D90320BDE8F88349
:100D100060688003F4D50020F8E700004038024006
:100D200000000E42007000402DE9F0470E4605001D
:100D300065D0DFF81481D8F80000F7B200F00F009A
:100D4000B04207D288F80070D8F8000000F00F0019
:100D5000B04254D128683D4C810712D5400703D5D5
:100D6000206840F4E05020602878000703D5206810
:100D700040F4604020602068A96820F0F00008433B
:100D800020602878C0072DD03049686808390128CC
:100D900012D0022813D0032811D00968890700292E
:100DA0002DDA216821F0030101432160FFF7E4FE01
:100DB000814641F2883A0EE009688903EFE7096845
:100DC0008901ECE7FFF7D8FEA0EB0901514502D9F4
:100DD0000320BDE8F0872068696800F00C00B0EBE4
:100DE000810FEFD1D8F80010404601F00F01B14259
:100DF00007D90770006800F00F00B04201D0012051
:100E0000E7E72878400705D52068E96820F4E05036
:100E1000084320602878000706D52068296920F457
:100E2000604040EAC100206000F038F82168084ABC
:100E3000C1F30311515CC8400649086006480068C8
:100E4000FFF7C2FE0020C4E7003C02400838024021
:100E5000CE1B0008100000200800002004480549AF
:100E600000680968044AC1F38221515CC840704798
:100E70001000002008380240DE1B00080448054925
:100E800000680968044AC1F34231515CC8407047A8
:100E90001000002008380240DE1B0008154810B57D
:100EA000006810F00C02144813D01449042A0FD023
:100EB000082A0ED10F4C241F2268236802F03F023B
:100EC0005B0207D52068C0F38810A0FB010106E093
:100ED000084610BD2168C1F38811A1FB0001002361
:100EE000FFF7D4F92168C1F30141491C4900B0FB67
:100EF000F1F010BD083802400024F40040787D0174
:100F00002DE9F84F04006ED02078DFF84C93C0072D
:100F1000A9F104054AD009F104000168C1F3810177
:100F2000012908D00068C0F3810002280AD1D9F84D
:100F30000000400206D52868800337D56068002885
:100F4000E1D033E06068B0F5803F10D0B0F5A02F5D
:100F5000286810D020F480302860286820F4802091
:100F600028606068A8B1FFF707FE06460DE0286814
:100F700040F48030F4E740F480202860F7E700BFB9
:100F8000FFF7FAFD801B642873D828688003F7D523
:100F90000CE0FFF7F1FD064605E000BFFFF7ECFDB2
:100FA000801B6428F0D828688003F7D42078DFF805
:100FB000AC8280074FF0000A3ED5A748001D0168AB
:100FC00011F00C0F08D00068C0F3810002280BD18B
:100FD000D9F80000400207D42868800716D5E068D9
:100FE000012800D112E033E1E068B8B10120C8F86F
:100FF0000000FFF7C1FD064605E000BFFFF7BCFD9E
:10100000801B0228C0D828688007F7D52868216986
:1010100020F0F80040EAC10028600DE0C8F800A008
:10102000FFF7AAFD064604E0FFF7A6FD801B022895
:101030001FD828688007F7D42078000722D5864F6C
:1010400087486169703771B101210160FFF794FD34
:10105000064604E0FFF790FD801B022809D8386897
:101060008007F7D50EE0C0F800A0FFF785FD064623
:1010700005E082E0FFF780FD801B02287DD83868FC
:101080008007F7D42078400768D5DFF8CCB1002777
:101090000BF13C0BDBF80000C0000BD4DBF80010B8
:1010A00041F08051CBF80010DBF80000012700F080
:1010B000805000906B4E3068C00510D4306840F40A
:1010C00080703060FFF758FD009005E0FFF754FD99
:1010D0000099401A022850D83068C005F6D55E4EF7
:1010E000A0686C3601280FD00528306810D020F099
:1010F00001003060306820F004003060A068B8B1B2
:10110000FFF73AFD00900FE0306840F00100F4E78F
:1011100040F004003060F7E7FFF72EFD0099411A18
:1011200041F28830814266D830688007F4D50EE0FD
:10113000FFF722FD009007E0FFF71EFD0099411A1E
:1011400041F28830814256D830688007F4D42FB1FC
:10115000DBF8001021F08051CBF80010A069C8B373
:101160003D49091D0968C1F3810102294AD00228BD
:10117000504607D0C8F8600000E03CE0FFF7FCFCF8
:1011800004463BE04746C8F86000FFF7F5FC06461A
:1011900005E000BFFFF7F0FC801B02282BD8286871
:1011A0008001F7D4D4E907010843A16A2E4A49080F
:1011B00002EB0141626A41EA8211084394F82C1063
:1011C00040EA0161C9F8001001203866FFF7D4FC3D
:1011D000044606E03EE000BFFFF7CEFC001B0228FD
:1011E00009D828688001F7D534E000BFFFF7C4FCB8
:1011F000001B022802D90320BDE8F88F286880016F
:10120000F4D427E00128F7D0D9F80000E26900F40F
:10121000800191421CD1226A00F03F01914217D116
:1012200047F6C071626A0140B1EB821F10D1A26A19
:101230004FF0FF3300F4403103EB5202B1EB024FA9
:1012400006D194F82C1000F07060B0EB016F01D063
:101250000120D1E70020CFE70438024000004742D8
:10126000800E4742007000400000FFFF10B5401E96
:10127000B0F1807F01D3012010BD4FF0E024606108
:101280000F21601700F05FFC0020A06107202061A3
:10129000002010BD70477047F8B501680446086823
:1012A000CA684B6910F00F0F4FF0000559D003F0DA
:1012B000010602F49077374365D0C10705D0D10508
:1012C00003D5616C41F001016164410705D5D9077F
:1012D00003D0616C41F002016164810705D5D90733
:1012E00003D0616C41F004016164010707D502F08D
:1012F0002001314303D0616C41F008016164616CED
:1013000000293AD0800604D5900602D5204600F088
:10131000D7FA20684069616CC0F38010090700D4D7
:1013200060B3204600F0A5FA20684069400621D548
:101330002068143050E8001F21F0400140E80012FE
:10134000002AF5D1E06BA8B172490165E06BFFF7A7
:10135000D4FA002811D0E06B016D01B0BDE8F04077
:10136000084783060FD593060DD52046BDE8F84003
:1013700000F0A6BA2046FFF78EFFF8BD2046FFF723
:101380008AFF6564F8BD266B2023012E7ED1C60638
:101390007CD5D6067AD508684868009048694FF031
:1013A000020640064DD5E26B106840684FF4807726
:1013B0000004000C3AD0A18D814237D9E085D06974
:1013C000B8422DD020680C3050E8001F21F4807105
:1013D00040E80012002AF5D12068143050E8001FC0
:1013E00021F0010140E80012002AF5D120681430F4
:1013F00050E8001F21F0400140E80012002AF5D11A
:1014000084F84230256320680C3050E8001F21F03A
:10141000100140E80012002AF5D1E06BFFF724FA32
:101420006663A08DE18D401A81B206E0A18D8142F4
:10143000A8D1D069B842A5D166632046FFF72AFF3C
:10144000F8BDA08DE18D401A81B2E08D0028F7D063
:101450000029F5D020680C3050E8002F22F490725B
:1014600040E80027002FF5D12068143050E8002F05
:1014700022F0010240E80027002FF5D184F8423025
:10148000256320680C3050E8002F00E006E022F0D1
:10149000100240E80023002BF3D1CDE705062BD541
:1014A000150629D594F841002128C9D1A068B0F5C6
:1014B000805F01D12069B0B1206A411C216221689E
:1014C00000784860E08C401E0004000CE084B7D136
:1014D0002068C16821F08001C1602068C16841F0C6
:1014E0004001C160F8BD206A0088C0F30800486070
:1014F000206A801C2062E5E74006F3D55006F1D54E
:10150000CA68204622F04002CA6084F8413000F0E8
:10151000F7F8F8BD6518000870B5040004D094F819
:101520004100002510B106E0012070BD84F8405054
:10153000204600F023F8242084F841002068C16888
:1015400021F40051C160204600F01CFA20680169B6
:1015500021F4904101612068416921F02A01416133
:101560002068C16841F40051C1606564202084F89E
:10157000410084F842006563002070BD10B586B05C
:10158000044614216846FEF749FF1849206888423E
:1015900029D117480021026842F010020260006859
:1015A00000F01000059012481438026842F0010261
:1015B0000260006800F0010005904FF4C0600090E8
:1015C0000220CDE901010320039007200490694621
:1015D0000848FFF7B7F9002211462520FFF73AFB2C
:1015E0002520FFF729FB06B010BD000000100140C8
:1015F000443802400000024090F84230202B01D0D5
:101600000220704721B11AB10023036300F040BAF1
:101610000120704710B500680E49884218D10E4865
:101620000078312802D0302803D004E0FEF7A4FF70
:1016300001E0FEF777FFFF2301220749074800F08A
:101640000FF8BDE81040012203490448FFF7D4BF5A
:1016500010BD000000100140000000203C000020F0
:101660002DE9F843044690F84100984616460D4689
:10167000202802D00220BDE8F88385B17EB1002089
:101680006064212084F84100FFF776FAA684814641
:10169000E684A0682027B0F5805F02D003E0012037
:1016A000E9E7206910B12E4600250EE000260CE087
:1016B0008021204600F007FAA8B9C6B116F8010B40
:1016C00021684860E08C401EE084E08C4B464FF07F
:1016D0000002CDF800800028EAD14FF040012046FA
:1016E00000F0F1F940B184F841700320C3E735F808
:1016F000020BC0F30800E3E784F841700020BAE76A
:101700007047FEE70F4810B50D49016005214160A3
:1017100000214FF480228160C0E90312D2004261AF
:10172000017641768176C17601774177FEF7ACFF8D
:10173000002803D0BDE81040FEF7F1BE10BD000048
:101740000064004014000020094808B5016841F019
:1017500080010160016801F080010091016841F0A1
:1017600001010160006800F00100009008BD000068
:10177000303802400C4810B50A4901604FF4E1319D
:101780004160002181600C22C160C0E904128161C6
:10179000C161FFF7C1FE002803D0BDE81040FEF78D
:1017A000BEBE10BD001001403C000020FEE7FEE779
:1017B00070477047FFF7E6B970B592B030216846C0
:1017C000FEF72CFE14210CA8FEF728FE1F4800256A
:1017D000016841F080510160006800F08050119074
:1017E0001B48016841F4404101600068022400F494
:1017F0004040119001200090000401908001CDE94B
:1018000006400F260896D820CDE9090404200B9045
:101810006846FFF775FB08B172B6FEE7FFF74CFAB2
:1018200008B172B6FEE74FF4A050CDE90E504FF468
:101830008050CDE90C64109005210CA8FFF774FAD4
:10184000002801D072B6FEE712B070BD40380240E9
:10185000007000400248016841F470010160704767
:1018600088ED00E010B5806B0021C185FFF713FD06
:1018700010BD01680C3151E8002F22F4907241E84C
:101880000023002BF5D10168143151E8002F22F01C
:10189000010241E80023002BF5D1016B012909D198
:1018A00001680C3151E8002F22F0100241E80023BA
:1018B000002BF5D1202180F84210002101637047F0
:1018C00008B590F84210222901D0022008BD826894
:1018D0004FF480539A4201D1016921B1816A9A4241
:1018E0001BD04AB10AE00268816A5268C2F308025A
:1018F0000A80816A891C08E0026972B10268526834
:1019000002F07F020A70816A491C8162C18D491E02
:101910000904090CC18503D01BE002685268F1E795
:101920000168CA6822F02002CA600168CA6822F40D
:101930008072CA6001684A6922F001024A6120216E
:1019400080F8421000214163026B012A03D0FFF7A7
:1019500061FE002008BD016301680C3151E8002FD1
:1019600022F0100241E80023002BF5D101680A683B
:10197000D20602D50A6849680091818DFFF78AFC7A
:10198000E7E7000070B5044600680169E26821F4E9
:101990004051114301612169A068E269084361690E
:1019A000114308432168CA6849F20C639A43024311
:1019B000CA6020684169A26921F440711143416104
:1019C00031492068884202D03049884202D1FFF76D
:1019D00055FA01E0FFF742FAE26900231921642574
:1019E0003226B2F5004F626828D0A0FB0101930FA8
:1019F0009200FEF74BFC0146B0FBF5F06FF01802C9
:101A0000504301EB800006EB0010B0FBF5F000F056
:101A1000F002B1FBF5F002EB0012B1FBF5F06FF054
:101A20001803584301EB800006EB0010B0FBF5F003
:101A300000F00F0021681044886070BDA0FB010118
:101A400092185B41FEF722FC0146B0FBF5F0020163
:101A5000B1FBF5F06FF01803584301EB800006EB83
:101A6000C000B0FBF5F000F0F80002EB4002B1FB63
:101A7000F5F0584301EB800006EBC000B0FBF5F039
:101A800000F00700D6E700000010014000140140FC
:101A900081628285C28500214164222180F8421042
:101AA000016921B10168CA6842F48072CA600168A4
:101AB0004A6942F001024A610068C16841F02001B0
:101AC000C160002070472DE9F843984617460D463F
:101AD0000446089E24E0701C22D0FFF74DF8A0EBCE
:101AE0000800B0421AD8CEB12068C168490717D59E
:101AF000802D15D0402D13D00168C94309070FD49C
:101B000001680025406800902046FFF7B2FE0820DB
:101B1000606484F840500120BDE8F8830320FBE7AF
:101B20002068006835EA000004D00020B842D2D016
:101B30000020F1E70120F9E70148FFF7ADBB000005
:101B40003C000020FEE70907090E002804DB00F135
:101B5000E02080F80014704700F00F0000F1E02052
:101B600080F8141D704700001CB5FFF713F8FFF74D
:101B700023FEFFF7E9FDFFF7FDFDFFF7C3FD01229F
:101B80000B490C48FFF738FD0B48FEF741FE08B142
:101B900072B6FEE74FF47A7408A1D1E90001CDE9ED
:101BA00000016846FEF79EFC2046FEF7B9FEF3E70B
:101BB000000000203C0000201400002011223344CB
:101BC000556677884FF04070E1EE100A70470000CC
:101BD00000000000000001020304060708090000DD
:101BE0000000010203040000081C0008000000209F
:101BF00014000000E80100081C1C0008140000206C
:101C0000D4060000040200080000000001000000EB
:0C1C100010000000000000000024F400A0
:04000005080001AD41
:00000001FF
