:020000040800F2
:10000000B806002055020008BB1100085111000875
:10001000B91100087F0600083F1400080000000026
:10002000000000000000000000000000BF110008F8
:100030008106000800000000BD110008C111000881
:100040006F0200086F0200086F0200086F020008CC
:100050006F0200086F0200086F0200086F020008BC
:100060006F0200086F0200086F0200086F020008AC
:100070006F0200086F0200086F0200086F0200089C
:100080006F0200086F0200086F0200086F0200088C
:100090006F0200086F0200086F0200086F0200087C
:1000A0006F0200086F0200086F0200086F0200086C
:1000B0006F0200086F0200086F0200086F0200085C
:1000C0006F0200086F0200086F0200086F0200084C
:1000D0006F0200086F0200086F0200086F0200083C
:1000E0006F0200086F0200086F0200086F0200082C
:1000F0006F0200086F0200086F0200086F0200081C
:100100006F0200086F0200086F0200086F0200080B
:100110006F0200086F0200086F0200086F020008FB
:100120006F0200086F0200086F0200086F020008EB
:100130006F0200086F0200086F0200086F020008DB
:100140006F0200086F0200086F0200086F020008CB
:100150006F0200086F0200086F0200086F020008BB
:100160006F0200086F0200086F0200086F020008AB
:100170006F0200086F0200086F0200080000000014
:100180006F0200086F0200086F0200086F0200088B
:100190006F0200086F0200086F0200086F0200087B
:1001A0006F0200086F0200086F02000800F002F8FA
:1001B00000F041F80AA090E8000C82448344AAF1C0
:1001C0000107DA4501D100F036F8AFF2090EBAE8BE
:1001D0000F0013F0010F18BFFB1A43F0010318477B
:1001E000FC1200001C130000103A24BF78C878C12C
:1001F000FAD8520724BF30C830C144BF04680C602D
:10020000704700000023002400250026103A28BF74
:1002100078C1FBD8520728BF30C148BF0B60704778
:10022000642900F0F780002070471FB501F044F901
:100230001FBD10B510BD00F0E8F91146FFF7F5FF3E
:1002400001F00EF900F006FA03B4FFF7F2FF03BC69
:1002500000F00EFA0948804709480047FEE7FEE72C
:10026000FEE7FEE7FEE7FEE7FEE7FEE7FEE7FEE766
:1002700004480549054A064B704700006112000812
:10028000AD010008B8000020B8060020B802002028
:10029000B802002053EA020C00F069802DE9F04B0F
:1002A0004FF00006002B1FBFB3FA83F503FA05F4E5
:1002B00024FA05F65E4012BF1643B2FA82F502FA3E
:1002C00005F4C5F120051EBF22FA05FC44EA0C0422
:1002D000203556EA044C4FEA144418BF641C4FF012
:1002E00000084FF00009904271EB030C39D300294C
:1002F00019BFB1FA81F701FA07F6B0FA80F700FAF0
:1003000007F6C7F120071EBF20FA07FC46EA0C06D5
:100310002037B6FBF4FCA7EB0507103F07F01F0BD7
:10032000CBF120060CFA0BFB2CFA06F644BFB346C1
:100330000026202FA4BF5E464FF0000B5BEA060CA0
:1003400008BF4FF0010B19EB0B09ABFB027C48EB2C
:100350000608C01B06FB02CC0BFB03CC71EB0C01A7
:10036000C1E70B46024641464846BDE8F08B13B54F
:100370004FF000004FF00001AFF30080BDE81C40DB
:10038000704700000FB41CB5074B06AA7B446946B2
:100390000090059800F021F90020694600F030F93E
:1003A0001CBC5DF814FB0000710200002DE9F04157
:1003B0000E460446002020622046E168884730B39C
:1003C000252805D0D4E901219047206A401CF2E796
:1003D000E168204600278847050018D0A5F14100B4
:1003E000192802D820354FF40067324629462046A6
:1003F0002760FFF715FF40B1012804D0F61D26F055
:1004000007060836D8E7361DD6E72846DAE7206A19
:10041000BDE8F0812DE9F0410646002410687529F9
:10042000314616A510D0AFF30080002802DA404212
:1004300013A507E031688A0701D512A502E0490734
:1004400004D511A5012401E0AFF3008000210A22A8
:1004500006F1240709E0B0FBF2FCB0FBF2F302FB6B
:100460001C00303078541846491C0028F3D123462C
:100470002A463046BDE8F04100F051B800000000C7
:100480002D0000002B0000002000000010B5431CD0
:1004900002E010F8011B71B18107FAD14FF001326F
:1004A00002C88C1A8C4314EAC211F9D0C01A0A0689
:1004B00003D0C01E10BDC01A10BD0A0401D0801E9A
:1004C00010BD0902FCD0401E10BD4FF0000200B567
:1004D000134694469646203922BFA0E80C50A0E867
:1004E0000C50B1F12001BFF4F7AF090728BFA0E815
:1004F0000C5048BF0CC05DF804EB890028BF40F8E1
:10050000042B08BF704748BF20F8022B11F0804F22
:1005100018BF00F8012B70477047704770472DE9EE
:10052000F0470D4699469246044600F124080168BA
:10053000880604D5E06921F01001216000E0012067
:10054000A84201DD471B00E00027A1697A1902EBF0
:100550000900081AA0612078C00602D42046AFF333
:100560000080002608E0D4E901211AF8060090472F
:10057000206A401C761C20624E45F4DB2078C006C1
:100580000AD52046AFF3008006E0D4E901213020EF
:100590009047206A401C2062381EA7F10107F4DC56
:1005A00007E0D4E9012118F805009047206A401CB3
:1005B0002062281EA5F10105F3DC2046AFF3008080
:1005C0002078000602D50220BDE8F0870120FBE775
:1005D00001694A1C02610878704700B58FB0CDE907
:1005E00001310021059105497944CDE903101146F7
:1005F0006846FFF7DBFE0FB000BD0000E5FFFFFF20
:100600000A6802F8010B0A607047754600F02CF882
:10061000AE4605006946534620F00700854618B0EF
:1006200020B5FFF725FEBDE820404FF000064FF053
:1006300000074FF000084FF0000B21F00701AC4617
:10064000ACE8C009ACE8C009ACE8C009ACE8C00936
:100650008D46704710B50446AFF300802046BDE8D4
:100660001040FFF7F1BD000000487047580000201F
:1006700001491820ABBEFEE7260002007047FEE7E6
:10068000704772B6FEE7000070B5044600F028F926
:100690000546601C02D004480078044400F020F9AC
:1006A000401BA042FAD370BD000000202DE9F84F96
:1006B000DFF8F8A10022012403254FF00F090AF109
:1006C000040BAAF1040E00BF0B6804FA02F63340D3
:1006D000B34270D10F7907F00307012F01D0022F29
:1006E00016D187684FEA420805FA08FC27EA0C078A
:1006F000D1F80CC00CFA08FC4CEA070CC0F808C092
:100700004768B7430E79C6F3001696403E434660ED
:100710000E79F643B6070AD0C7684FEA420C05FACD
:100720000CF6B7438E6806FA0CF63E43C6600E79A7
:1007300006F00306022E10D1D60800EB8608D8F882
:10074000206057074FEAD76C09FA0CF7BE430F69D0
:1007500007FA0CF73743C8F8207006684FEA420CD6
:1007600005FA0CF7BE430F7907F0030707FA0CF7F9
:10077000374307604E6816F4403F1CD04C4E376834
:1007800047F480473760366822F0030706F4804656
:100790000096484E07EB060CDCF8086897073F0FF9
:1007A00009FA07F826EA0806DFF80C81404503D16C
:1007B0004FF0000841E072E0DFF80081404502D1CF
:1007C0004FF0010839E0DFF8F880404502D14FF0E2
:1007D000020832E0DFF8EC80404502D14FF0030818
:1007E0002BE0DFF8E480404502D14FF0040824E01C
:1007F000DFF8D880404502D14FF005081DE0DFF852
:10080000D080404502D14FF0060816E0DFF8C480E2
:10081000404502D14FF007080FE0DFF8BC804045AB
:1008200002D14FF0080808E0DFF8B080404502D15F
:100830004FF0090801E04FF00A0808FA07F848EA03
:100840000608CCF80888DAF800605746D1F804C0EA
:100850009E435FEACC2C00D51E433E60DBF800606F
:100860005F46D1F804C09E435FEA8C2C00D51E433E
:100870003E60DEF800607746D1F804C09E435FEA30
:100880008C3C00D51E433E60084F083F3E68D1F8BF
:1008900004C09E435FEACC3C00D51E433E60521C20
:1008A000102AFFF411AFBDE8F88F0000083C0140AA
:1008B0004438024000300140000002400004024081
:1008C00000080240000C02400010024000140240E8
:1008D00000180240001C0240002002400024024098
:1008E00001488068704700000000002002488168CD
:1008F0000278114481607047000000200B4810B559
:10090000016841F400710160016841F48061016097
:10091000016841F480710160032000F061F80F204C
:1009200000F006F800F024F8002010BD003C024062
:1009300070B50D4D04464FF47A712878B1FBF0F094
:100940000A490968B1FBF0F000F036FB48B9102CF9
:1009500007D200222146501E00F022F800206C60D1
:1009600070BD012070BD0000000000200C000020C0
:100970000A4808B5016841F480410160006800F44C
:10098000804000900548001F016841F080510160DF
:10099000006800F08050009008BD0000443802401C
:1009A000F0B40E4B1B680C46C3F30223C3F10705DA
:1009B000042D00D90425191D072901D2002300E0C8
:1009C000DB1E012606FA05F1491E214099409E4092
:1009D000761E16403143F0BC00F032BD0CED00E055
:1009E000064900F0070208684FF6FF03184040EA86
:1009F0000220034A10430860704700000CED00E03D
:100A00000000FA052DE9F8431748016841F08051CC
:100A100001600068154F00F08050012600903E6490
:100A2000FFF75EFF05464FF47A78114C05E000BFF2
:100A3000FFF756FF401B40450DD86068C003F7D54F
:100A40007E64FFF74DFF0546464607E0FFF748FF87
:100A5000401BB04202D90320BDE8F88360688003E0
:100A6000F4D50020F8E700004038024000000E42B4
:100A7000007000402DE9F0470E46050065D0DFF814
:100A80001481D8F80000F7B200F00F00B04207D28E
:100A900088F80070D8F8000000F00F00B04254D180
:100AA00028683D4C810712D5400703D5206840F4E3
:100AB000E05020602878000703D5206840F46040AB
:100AC00020602068A96820F0F000084320602878A2
:100AD000C0072DD0304968680839012812D0022893
:100AE00013D0032811D00968890700292DDA21685D
:100AF00021F0030101432160FFF7F2FE814641F23C
:100B0000883A0EE009688903EFE709688901ECE794
:100B1000FFF7E6FEA0EB0901514502D90320BDE82D
:100B2000F0872068696800F00C00B0EB810FEFD10E
:100B3000D8F80010404601F00F01B14207D9077004
:100B4000006800F00F00B04201D00120E7E72878EC
:100B5000400705D52068E96820F4E050084320608C
:100B60002878000706D52068296920F4604040EA0B
:100B7000C100206000F038F82168084AC1F3031171
:100B8000515CC8400649086006480068FFF7D0FE7F
:100B90000020C4E7003C024008380240C2140008AC
:100BA0000C00002004000020044805490068096882
:100BB000044AC1F38221515CC84070470C000020F8
:100BC00008380240D2140008044805490068096842
:100BD000044AC1F34231515CC84070470C00002008
:100BE00008380240D2140008154810B5006810F00B
:100BF0000C02144813D01449042A0FD0082A0ED12D
:100C00000F4C241F2268236802F03F025B0207D5C5
:100C10002068C0F38810A0FB010106E0084610BD63
:100C20002168C1F38811A1FB00010023FFF732FB0B
:100C30002168C1F30141491C4900B0FBF1F010BD2E
:100C4000083802400024F40040787D012DE9F84F77
:100C500004006ED02078DFF84C93C007A9F104059A
:100C60004AD009F104000168C1F38101012908D0CB
:100C70000068C0F3810002280AD1D9F800004002C0
:100C800006D52868800337D560680028E1D033E0B6
:100C90006068B0F5803F10D0B0F5A02F286810D064
:100CA00020F480302860286820F480202860606864
:100CB000A8B1FFF715FE06460DE0286840F4803025
:100CC000F4E740F480202860F7E700BFFFF708FE54
:100CD000801B642873D828688003F7D50CE0FFF7E1
:100CE000FFFD064605E000BFFFF7FAFD801B642804
:100CF000F0D828688003F7D42078DFF8AC8280072A
:100D00004FF0000A3ED5A748001D016811F00C0FF6
:100D100008D00068C0F3810002280BD1D9F8000088
:100D2000400207D42868800716D5E068012800D162
:100D300012E033E1E068B8B10120C8F80000FFF725
:100D4000CFFD064605E000BFFFF7CAFD801B022865
:100D5000C0D828688007F7D52868216920F0F800F6
:100D600040EAC10028600DE0C8F800A0FFF7B8FD18
:100D7000064604E0FFF7B4FD801B02281FD8286850
:100D80008007F7D42078000722D5864F874861690D
:100D9000703771B101210160FFF7A2FD064604E042
:100DA000FFF79EFD801B022809D838688007F7D519
:100DB0000EE0C0F800A0FFF793FD064605E082E0D4
:100DC000FFF78EFD801B02287DD838688007F7D496
:100DD0002078400768D5DFF8CCB100270BF13C0B39
:100DE000DBF80000C0000BD4DBF8001041F08051AC
:100DF000CBF80010DBF80000012700F080500090D5
:100E00006B4E3068C00510D4306840F4807030609C
:100E1000FFF766FD009005E0FFF762FD0099401ABC
:100E2000022850D83068C005F6D55E4EA0686C36F2
:100E300001280FD00528306810D020F00100306064
:100E4000306820F004003060A068B8B1FFF748FDBA
:100E500000900FE0306840F00100F4E740F004003B
:100E60003060F7E7FFF73CFD0099411A41F2883006
:100E7000814266D830688007F4D50EE0FFF730FD78
:100E8000009007E0FFF72CFD0099411A41F28830ED
:100E9000814256D830688007F4D42FB1DBF80010B7
:100EA00021F08051CBF80010A069C8B33D49091D5D
:100EB0000968C1F3810102294AD00228504607D0AF
:100EC000C8F8600000E03CE0FFF70AFD04463BE0A4
:100ED0004746C8F86000FFF703FD064605E000BF7F
:100EE000FFF7FEFC801B02282BD828688001F7D46E
:100EF000D4E907010843A16A2E4A490802EB0141DF
:100F0000626A41EA8211084394F82C1040EA0161B8
:100F1000C9F8001001203866FFF7E2FC044606E03D
:100F20003EE000BFFFF7DCFC001B022809D8286860
:100F30008001F7D534E000BFFFF7D2FC001B022888
:100F400002D90320BDE8F88F28688001F4D427E097
:100F50000128F7D0D9F80000E26900F4800191423D
:100F60001CD1226A00F03F01914217D147F6C071AF
:100F7000626A0140B1EB821F10D1A26A4FF0FF33C9
:100F800000F4403103EB5202B1EB024F06D194F86A
:100F90002C1000F07060B0EB016F01D00120D1E7A0
:100FA0000020CFE70438024000004742800E47424D
:100FB000007000400000FFFF10B5401EB0F1807FC0
:100FC00001D3012010BD4FF0E02460610F216017B4
:100FD00000F036FA0020A06107202061002010BD3B
:100FE00070B5040004D094F84100002510B106E06B
:100FF000012070BD84F84050204600F023F82420E2
:1010000084F841002068C16821F40051C160204685
:1010100000F056F92068016921F4904101612068CF
:10102000416921F02A0141612068C16841F4005101
:10103000C1606564202084F8410084F84200656343
:10104000002070BD10B586B0044614216846FFF735
:101050003CFA14492068884221D1134800210268D3
:1010600042F010020260006800F0100005900E4887
:101070001438026842F001020260006800F00100CA
:1010800005904FF4C06000900220CDE901010320DB
:1010900003900720049069460448FFF707FB06B059
:1010A00010BD000000100140443802400000024022
:1010B0002DE9F843044690F84100984616460D463F
:1010C000202802D00220BDE8F88385B17EB100203F
:1010D0006064212084F84100FFF702FCA684814669
:1010E000E684A0682027B0F5805F02D003E00120ED
:1010F000E9E7206910B12E4600250EE000260CE03D
:101100008021204600F062F9A8B9C6B116F8010B9B
:1011100021684860E08C401EE084E08C4B464FF034
:101120000002CDF800800028EAD14FF040012046AF
:1011300000F04CF940B184F841700320C3E735F862
:10114000020BC0F30800E3E784F841700020BAE71F
:10115000FEE70000094808B5016841F08001016020
:10116000016801F080010091016841F00101016016
:10117000006800F00100009008BD00003038024017
:101180000C4810B50A4901604FF4E131416000217B
:1011900081600C22C160C0E904128161C161FFF766
:1011A0001FFF002803D0BDE81040FFF76ABA10BD4A
:1011B0000010014010000020FEE7FEE77047704776
:1011C000FFF794BB70B592B030216846FFF77DF908
:1011D00014210CA8FFF779F91F480025016841F098
:1011E00080510160006800F0805011901B48016838
:1011F00041F4404101600068022400F44040119035
:1012000001200090000401908001CDE906400F26E6
:101210000896D820CDE9090404200B906846FFF712
:1012200015FD08B172B6FEE7FFF7ECFB08B172B628
:10123000FEE74FF4A050CDE90E504FF48050CDE9B9
:101240000C64109005210CA8FFF714FC002801D0B5
:1012500072B6FEE712B070BD403802400070004028
:101260000248016841F470010160704788ED00E0B8
:1012700001680C3151E8002F22F4907241E80023FC
:10128000002BF5D10168143151E8002F22F0010242
:1012900041E80023002BF5D1016B012909D1016838
:1012A0000C3151E8002F22F0100241E80023002BFE
:1012B000F5D1202180F84210002101637047000021
:1012C00070B5044600680169E26821F44051114399
:1012D00001612169A068E26908436169114308431B
:1012E0002168CA6849F20C639A430243CA602068C5
:1012F0004169A26921F4407111434161314920687B
:10130000884202D03049884202D1FFF75DFC01E0FB
:10131000FFF74AFCE2690023192164253226B2F561
:10132000004F626828D0A0FB0101930F9200FEF7E6
:10133000B1FF0146B0FBF5F06FF01802504301EB2E
:10134000800006EB0010B0FBF5F000F0F002B1FBFE
:10135000F5F002EB0012B1FBF5F06FF01803584303
:1013600001EB800006EB0010B0FBF5F000F00F0081
:1013700021681044886070BDA0FB010192185B4198
:10138000FEF788FF0146B0FBF5F00201B1FBF5F076
:101390006FF01803584301EB800006EBC000B0FB70
:1013A000F5F000F0F80002EB4002B1FBF5F0584315
:1013B00001EB800006EBC000B0FBF5F000F0070089
:1013C000D6E7000000100140001401402DE9F84369
:1013D000984617460D460446089E24E0701C22D00D
:1013E000FFF77EFAA0EB0800B0421AD8CEB1206811
:1013F000C168490717D5802D15D0402D13D001683D
:10140000C94309070FD401680025406800902046B1
:10141000FFF72EFF0820606484F840500120BDE8EB
:10142000F8830320FBE72068006835EA000004D059
:101430000020B842D2D00020F1E70120F9E7FEE712
:101440000907090E002804DB00F1E02080F80014F1
:10145000704700F00F0000F1E02080F8141D704785
:101460008EB0FFF74BFAFFF7ADFEFFF773FEFFF705
:1014700087FE4FF47A742046FFF706F9192207A178
:101480006846FEF77FFF6846FFF700F882B26423E4
:1014900069460848FFF70CFEEDE7000054656D70E3
:1014A000657261747572653A202564A1E3430D0A83
:1014B00000000000100000204FF04070E1EE100A24
:1014C000704700000000000000000102030406074E
:1014D000080900000000010203040000FC140008D9
:1014E0000000002010000000E80100080C150008B2
:1014F00010000020A80600000402000801000000FF
:0C15000010000000000000000024F400B7
:04000005080001AD41
:00000001FF
