:020000040800F2
:1000000000CD01208D020008694A00081D45000846
:10001000654A0008D7080008F95C000800000000E5
:1000200000000000000000000000000099560008D9
:10003000A5120008000000006D4A00089B56000849
:10004000A7020008A7020008A7020008A7020008EC
:10005000A7020008A7020008A7020008A7020008DC
:10006000B3120008A7020008A7020008A7020008B0
:10007000A7020008A7020008A7020008A7020008BC
:100080005109000861090008A7020008A70200083A
:10009000A7020008A7020008A7020008A70200089C
:1000A000A7020008A7020008A7020008A70200088C
:1000B000A702000871570008A7020008A70200085D
:1000C000A7020008A7020008A7020008A70200086C
:1000D000A7020008A7020008A7020008A70200085C
:1000E000A7120008A7020008A7020008A70200083C
:1000F000A702000881570008A7020008A70200080D
:10010000A7020008B94A0008A7020008A7020008D1
:10011000A7020008A7020008A7020008A70200081B
:10012000A7020008A7020008A7020008710900083A
:10013000A7020008A7020008A7020008A7020008FB
:10014000A7020008A7020008A7020008A7020008EB
:10015000A702000881090008A7020008A7020008FA
:10016000A7020008A7020008A7020008A7020008CB
:10017000A7020008A7020008A7020008000000006C
:10018000A7020008A702000800F002F800F06FF8CC
:100190000AA090E8000C82448344AAF10107DA45E2
:1001A00001D100F064F8AFF2090EBAE80F0013F0C5
:1001B000010F18BFFB1A43F001031847BCB400003D
:1001C000FCB400000A444FF0000C10F8013B13F09F
:1001D000070408BF10F8014B1D1108BF10F8015BA0
:1001E000641E05D010F8016B641E01F8016BF9D193
:1001F00013F0080F1EBF10F8014BAD1C0C1B09D1EA
:100200006D1E58BF01F801CBFAD505E014F8016B5B
:1002100001F8016B6D1EF9D59142D6D370470000ED
:10022000103A24BF78C878C1FAD8520724BF30C822
:1002300030C144BF04680C607047000000230024F4
:1002400000250026103A28BF78C1FBD8520728BFE6
:1002500030C148BF0B607047642900F0F780002070
:1002600070471FB509F0D6FF1FBD10B510BD00F0D7
:100270009DFA1146FFF7F5FF08F0D6FA00F0BBFA39
:1002800003B4FFF7F2FF03BC00F0BEFA0948804751
:1002900009480047FEE7FEE7FEE7FEE7FEE7FEE768
:1002A000FEE7FEE7FEE7FEE704480549054A064B80
:1002B000704700005D5700088901000800C7012051
:1002C00000CD012000C9012000C9012053EA020C21
:1002D00000F069802DE9F04B4FF00006002B1FBFA6
:1002E000B3FA83F503FA05F424FA05F65E4012BF6B
:1002F0001643B2FA82F502FA05F4C5F120051EBFD5
:1003000022FA05FC44EA0C04203556EA044C4FEA74
:10031000144418BF641C4FF000084FF000099042CD
:1003200071EB030C39D3002919BFB1FA81F701FA37
:1003300007F6B0FA80F700FA07F6C7F120071EBFEC
:1003400020FA07FC46EA0C062037B6FBF4FCA7EBC4
:100350000507103F07F01F0BCBF120060CFA0BFB33
:100360002CFA06F644BFB3460026202FA4BF5E46F3
:100370004FF0000B5BEA060C08BF4FF0010B19EBC6
:100380000B09ABFB027C48EB0608C01B06FB02CC4A
:100390000BFB03CC71EB0C01C1E70B460246414657
:1003A0004846BDE8F08B13B54FF000004FF0000158
:1003B000AFF30080BDE81C40704700000FB41CB5CF
:1003C000074B06AA7B4469460090059800F0CDF9DA
:1003D0000020694600F0DCF91CBC5DF814FB00004D
:1003E000C90300002DE9F0410E46044600202062BA
:1003F0002046E168884730B3252805D0D4E901219B
:100400009047206A401CF2E7E168204600278847B1
:10041000050018D0A5F14100192802D820354FF465
:1004200000673246294620462760FFF715FF40B196
:10043000012804D0F61D26F007060836D8E7361D39
:10044000D6E72846DAE7206ABDE8F0812DE9F041D9
:100450000646002410687529314616A510D0AFF362
:100460000080002802DA404213A507E031688A07BD
:1004700001D512A502E0490704D511A5012401E028
:10048000AFF3008000210A2206F1240709E0B0FB47
:10049000F2FCB0FBF2F302FB1C003030785418463B
:1004A000491C0028F3D123462A463046BDE8F041D6
:1004B00000F0FDB8000000002D0000002B0000003F
:1004C0002000000040EA0103024630B59B0710D12E
:1004D0004FF0013400E008C208C91D1B9D4315EA16
:1004E000C41FF8D013F0FF0102F8011B0DD01B0A46
:1004F000F8E711F8013B002B02F8013B05D011F899
:10050000013B002B02F8013BF3D130BD10B5431C79
:1005100002E010F8011B71B18107FAD14FF00132EE
:1005200002C88C1A8C4314EAC211F9D0C01A0A0608
:1005300003D0C01E10BDC01A10BD0A0401D0801E19
:1005400010BD0902FCD0401E10BD40EA010370B589
:100550009B072ED14FF00136042A2AD308C810C9B0
:100560009D1B9D43121F15EAC61517D0D8B2E1B2E4
:10057000401A50EA056110D198B2A1B2401A50EA6F
:1005800005410AD123F07F4024F07F41401A50EA10
:10059000052102D1180EA0EB146070BDA342DBD080
:1005A00018BA21BA884201D9012070BD4FF0FF303E
:1005B00070BD0AB9002070BD10F8013B11F8014B65
:1005C00063B1A3420AD1521E08D010F8013B11F8C2
:1005D000014B1BB1A34201D1521EEDD1181B70BDBE
:1005E00010B5203AC0F00B80B1E81850203AA0E8CE
:1005F0001850B1E81850A0E81850BFF4F5AF5FEA02
:10060000027C24BFB1E81850A0E8185044BF18C9B4
:1006100018C0BDE810405FEA827C24BF51F8043B5B
:1006200040F8043B08BF7047D20728BF31F8023BAF
:1006300048BF11F8012B28BF20F8023B48BF00F843
:10064000012B70474FF0000200B5134694469646C2
:10065000203922BFA0E80C50A0E80C50B1F12001D5
:10066000BFF4F7AF090728BFA0E80C5048BF0CC083
:100670005DF804EB890028BF40F8042B08BF7047E1
:1006800048BF20F8022B11F0804F18BF00F8012B53
:10069000704770477047704710B500F07FF80068EA
:1006A00010BD10B5044600F079F8046010BD2DE9C6
:1006B000F0470D4699469246044600F12408016829
:1006C000880604D5E06921F01001216000E00120D6
:1006D000A84201DD471B00E00027A1697A1902EB5F
:1006E0000900081AA0612078C00602D42046AFF3A2
:1006F0000080002608E0D4E901211AF8060090479E
:10070000206A401C761C20624E45F4DB2078C0062F
:100710000AD52046AFF3008006E0D4E9012130205D
:100720009047206A401C2062381EA7F10107F4DCC4
:1007300007E0D4E9012118F805009047206A401C21
:100740002062281EA5F10105F3DC2046AFF30080EE
:100750002078000602D50220BDE8F0870120FBE7E3
:1007600001694A1C02610878704700B58FB0CDE975
:1007700001310021059105497944CDE90310114665
:100780006846FFF72FFE0FB000BD0000E5FFFFFF3A
:100790000A6802F8010B0A607047000000487047C1
:1007A0009C8C0120004870479C8C01207546FFF707
:1007B000F9FFAE4605006946534620F0070085461E
:1007C00018B020B5FFF770FDBDE820404FF00006DF
:1007D0004FF000074FF000084FF0000B21F0070129
:1007E000AC46ACE8C009ACE8C009ACE8C009ACE86C
:1007F000C0098D46704710B50446AFF3008020460F
:10080000BDE81040FFF73CBD01491820ABBEFEE734
:10081000260002007047704710B504462146024882
:1008200002F088FA10BD000034C4012010B504485D
:1008300002F093FA042801D0012010BD0020FCE74B
:1008400034C4012010B5002400F00CF8012801D0B8
:10085000012010BD024802F0A1FB04462046F8E743
:1008600034C4012008B5012000909DF8000008BDA7
:100870002DE9F84304460D4616461F464FF0000882
:1008800033462A4621460548009702F0BFFC08B1CE
:100890004FF001084046BDE8F883000034C4012051
:1008A000704700002DE9F84304460D4616461F46E2
:1008B0004FF0000833462A4621460548009702F0CB
:1008C00001FE08B14FF001084046BDE8F883000082
:1008D00034C40120704700BFFEE770B50446A56B25
:1008E000284600F063FE0120287170BD70B50446F3
:1008F000A56B284600F020FE0120287170BD70B560
:100900000546AC6B206940F004002061204600F0F1
:100910004FFE0120207170BD70B50546AC6B20699B
:1009200040F004002061204600F008FE0120207104
:1009300070BD70B50446A56B284600F038FE70BD4A
:1009400070B50446A56B284600F0F7FD70BD0000A9
:1009500010B5024801F004F810BD000020C30120CA
:1009600010B5024800F0FCFF10BD000080C301205C
:1009700010B5024800F0F4FF10BD0000B8C401201B
:1009800010B5024800F0ECFF10BD000018C50120B2
:100990000146087810381823B0FBF3F20848805C51
:1009A000C865032A05D908686FF30900001D88652A
:1009B00003E008686FF309008865886D70470000E0
:1009C0005CB10008014600208A6A8B69CBB932B15C
:1009D000012A0DD0022A03D0032A10D10EE000BF55
:1009E000CB6A03F08073B3F1807F00D1012007E070
:1009F000CB6AB3F1C07F00D1012001E000E000BF6D
:100A000034E08B69B3F5005F1AD132B1012A07D007
:100A1000022A03D0032A11D10AE000BF01200EE010
:100A2000CB6A03F08073B3F1807F00D1012006E030
:100A3000CB6AB3F1C07F00D1012000E000BF15E018
:100A400032B1012A05D0022A04D0032A0CD103E0D6
:100A500000BF00BF012008E0CB6A03F08073B3F150
:100A6000807F00D1012000E000BF00BF704730B59B
:100A70000468246824F4802405682C60046863609A
:100A80008468402C04D10468A2600468E16003E03B
:100A90000468A1600468E26030BD000010B5002069
:100AA00008E00021C0EBC00202EB4202044B03F855
:100AB0002210401C1028F4DB00F00AF810BD0000E2
:100AC0001000012010B50446FFF7E8FF10BD00003C
:100AD0002DE9F04F2DED0C8B8FB00020DA49086026
:100AE0000E9000BF0BE0C0EBC00101EB4101D74A03
:100AF00012F8211011B101210E9102E0401C1028C2
:100B0000F1DB00BF0E9880B9002008E04FF40061CF
:100B1000CF4A22F81010CF4A22F81010401C642847
:100B2000F4DB6420C84908606CE1002467E1C4EB91
:100B3000C40000EB4000C54911F8200000B95DE198
:100B4000C4EBC40000EB4000C04901EB8000D0F8CA
:100B50004490C4EBC40000EB400001EB8000D0F8EF
:100B600048B0C4EBC40000EB400001EB8000B0F8DB
:100B70004C50C4EBC40000EB400001EB8000B0F827
:100B80004E000D9000200C9032E1C4EBC40000EB4D
:100B90004000AE4901EB8000401C0C99465C06B950
:100BA0002AE1202E11D14FF4FA606843642190FBB2
:100BB000F1F0C4EBC40101EB4101A44A02EB810155
:100BC000B1F85010084481440FE1304608F0D8FBDA
:100BD00000287DD00AAB0BAA9F4801789F48006887
:100BE00006F006F90127412E01DB5A2E03DD612EA6
:100BF00003DB7A2E01DC4FF400770B9878430B90DF
:100C00000A9878430A904FF00008D5E093480068AE
:100C100030F93800784309909048006800EBC8002C
:100C2000B0F90200784308908C48006800EBC800D7
:100C3000B0F90400784307908848006800EBC800CA
:100C4000B0F906007843069009986843642190FB48
:100C5000F1F000EB09010B986843642290FBF2F07D
:100C6000081A05900D9908984843642190FBF1F00B
:100C7000584404900798684390FBF1F000EB090199
:100C80000B98684390FBF2F0081A03900D990698B0
:100C90004843642190FBF1F0584402900599039871
:100CA000401A019004990298401A0090009808F0A8
:100CB00068FF41EC1C0B009808F063FF41EC1D0B32
:100CC00053EC1C2B08F0B0FF41EC1A0B019800E02C
:100CD0008AE008F056FF41EC1C0B019808F051FF28
:100CE00041EC1D0B53EC1C2B08F09EFF41EC1B0B41
:100CF00053EC1A2B08F002FD41EC190BB0EE490A37
:100D0000F0EE690A05F058FEB0EE408AF0EE608A17
:100D100051EC180B08F006FF052190FBF1FABAF12F
:100D2000020F01DA4FF0020A002040E0464909684C
:100D3000B1F5804F00D33CE00199414391FBFAF2B9
:100D400005991144424A404B1B6822F81310009940
:100D5000414391FBFAF2049911448AB23D493A4B5E
:100D60001B6821F813203A49374A126831F81210EB
:100D7000B1F5805F06DB40F6FF71354A324B1B68E8
:100D800022F813103349304A126831F81210B1F5C5
:100D9000805F06DB40F6FF722E492B4B1B6821F863
:100DA000132029490968491C274A1160401C5045F5
:100DB000BCDD00BF08F10108274800788045FFF638
:100DC00025AFDDE90A01401A6843642190FBF1F088
:100DD000C4EBC40101EB41011C4A02EB8101B1F8F3
:100DE00050100844814400BF00BF0C98401C0C9078
:100DF0000C984028FFF6C9AE00BF00BF641C102C41
:100E0000FFF695AE10480068C8B10021144800F004
:100E10000BFD1021124800F007FD002000900A4849
:100E20000B4A002103680E4800F062FC002000908D
:100E30000548084A10210368094800F059FC0FB022
:100E4000BDEC0C8BBDE8F08F00C00120100001202C
:100E500010000020108000200CC0012008C00120DC
:100E60000CC3012070B50446012C00DA0124FFF701
:100E700015FE1B4804804FF4FA706043642190FB18
:100E8000F1F0184908602003642190FBF1F5154842
:100E900000682844144908601248006800F5805032
:100EA000096890FBF1F01149087008460078102895
:100EB00001DD102008700D480078012802DA0120B9
:100EC0000A49087000200A49087007480068C0F500
:100ED00080500849086000200749086070BD000084
:100EE0001CC0012024C0012020C0012034C00120EA
:100EF00028C0012030C001202CC001202DE9F0477E
:100F00008146E0480078C0B9DF480078A8B90120E0
:100F1000DD49087000204864DC4800688864DC48CB
:100F20000088A1F84C00DA480088A1F84E00D948A2
:100F30000088A1F85000002048704846FFF7E6FA04
:100F40000646002796E119F807A0BAF10A0F7CD1EE
:100F5000CC480078401C40B2CA490870084690F955
:100F60000000CD49097888423ADB002421E0621C68
:100F7000C2EBC20202EB4202C34B03EB8202511CE2
:100F8000C4EBC40202EB420203EB8202501CFFF7E7
:100F900099FA601CC0EBC00000EB4000BA4911F8A0
:100FA0002000C4EBC40101EB4101B74A02F8210063
:100FB000641CB9480078401EA042D8DC0021B64825
:100FC0000078401EC0EBC00000EB4000AE4A02EBD0
:100FD00080004170B0480078401E40B2A9490870B6
:100FE0000120A84991F90010C1EBC10101EB4101B9
:100FF000A54A02F821000020A24991F90010C1EB96
:10100000C10101EB410102EB810148649D4890F967
:101010000000401CA14909684843C0F58050994927
:1010200091F90010C1EBC10101EB410102EB81011B
:10103000886497480088934991F90010C1EBC10179
:1010400001EB410102EB810100E029E0A1F84C0035
:101050008F4800888B4991F90010C1EBC10101EB69
:10106000410102EB8101A1F84E008A4800888549C0
:1010700091F90010C1EBC10101EB410102EB8101CB
:10108000A1F8500000207F4991F90010C1EBC10187
:1010900001EB410102EB8101487081490860E8E001
:1010A0007B4800884FF4FA614843642190FBF1F0DB
:1010B0007849096800EB0108794800684044B0F5B8
:1010C000805F7CDD6F480078401C40B26D4908703D
:1010D000084690F900007049097888423ADB0024FC
:1010E00021E0621CC2EBC20202EB4202664B03EB40
:1010F0008202511CC4EBC40202EB420203EB8202E7
:10110000501CFFF7DFF9601CC0EBC00000EB400093
:101110005D4911F82000C4EBC40101EB41015A4ABA
:1011200002F82100641C5C480078401EA042D8DC14
:10113000002159480078401EC0EBC00000EB400081
:10114000514A02EB8000417053480078401E40B283
:101150004C49087001204B4991F90010C1EBC101C5
:1011600001EB4101484A02F821000020454991F96C
:101170000010C1EBC10101EB410102EB81014864A8
:10118000404890F90000401C444909684843C0F5B4
:1011900080503C4991F90010C1EBC10101EB4101C4
:1011A00002EB810188643A480088364991F90010C1
:1011B000C1EBC10101EB410102EB810100E028E03C
:1011C000A1F84C00324800882E4991F90010C1EB7B
:1011D000C10101EB410102EB8101A1F84E002D4854
:1011E0000088284991F90010C1EBC10101EB4101D0
:1011F00002EB8101A1F850000020224991F9001072
:10120000C1EBC10101EB410102EB810148702449AE
:1012100008601C4991F90010C1EBC10101EB4101CB
:10122000194A02EB8101481CFFF770F905463F2D72
:101230001EDA144890F90000C0EBC00000EB40003B
:10124000114901EB8000401C00F805A000220D4868
:1012500090F90000C0EBC00000EB400001EB800003
:10126000401C691C42540E48006840440C49086008
:1012700000BF7F1CB742FFF666AEFFF729FCBDE852
:10128000F087000028C001201000012030C001209C
:101290001CC0012024C0012034C0012020C0012036
:1012A0002CC00120704710B54FF4005000F0A6FD8F
:1012B00010BD10B5042000F0A1FD10BD07E04FF4F3
:1012C0000061034800F0A2FE642000F029FDF6E76B
:1012D0000004024030B504460D460022294620464F
:1012E00000F002F830BD0000F0B5034601250024EF
:1012F0001148407A01281CDA00200F4E767A0E4FF2
:10130000B8553846467A001D40F82630001F467A08
:10131000083082553E46707A461C7E72044604F1BF
:10132000300008703A2048702F2088700020C87064
:1013300000252846F0BD0000908C012070B50446C1
:101340000CB9012070BD94F8200010B9204600F0BF
:10135000AFF82068006840F001002168086000F0E4
:1013600065FE05460DE000F061FE401B0A2808D925
:10137000606A40F400306062052084F8200001209B
:10138000E0E72068406800F001000028EBD020680A
:10139000006820F002002168086000F047FE054662
:1013A0000DE000F043FE401B0A2808D9606A40F4B3
:1013B00000306062052084F820000120C2E7206828
:1013C000406800F002000028EBD1207E012806D101
:1013D0002068006840F080002168086005E020680F
:1013E000006820F0800021680860607E012806D136
:1013F0002068006840F040002168086005E020682F
:10140000006820F0400021680860A07E012806D115
:101410002068006840F020002168086005E020682E
:10142000006820F0200021680860E07E012806D1D5
:101430002068006820F010002168086005E020683E
:10144000006840F0100021680860207F012806D164
:101450002068006840F008002168086005E0206806
:10146000006820F0080021680860607F012806D12C
:101470002068006840F004002168086005E02068EA
:10148000006820F0040021680860D4E902010843E4
:1014900021690843616908436168491E084321685E
:1014A000C86100206062012084F82000002049E724
:1014B00010B586B00446142101A8FFF7C3F81B49F4
:1014C0002068884230D100BF002000901848006892
:1014D00040F00070164908600846006800F000708F
:1014E000009000BF00BF00BF0020009010481038DF
:1014F000006840F001000E49103908600846006895
:1015000000F00100009000BF00BF4FF4C0500190F8
:1015100002200290002003900320049009200590EF
:1015200001A9044800F078FC06B010BD006400403A
:101530004038024000000240704770477047F0B5E5
:101540000346002603B109B90120F0BD00BF587958
:10155000012801D10220F8E70120587100BF0220C4
:1015600018711868046802F0100740F6FE70B84061
:101570008443D1E9000740EA070502F0100005FAAC
:1015800000F00443186804601868006802F0100C4A
:10159000C02707FA0CF7B8431F683860012018719C
:1015A00000BF0020587100BF3046CEE7704770473B
:1015B000704710B504460CB9012010BD207920B940
:1015C00000206071204600F009F802202071002000
:1015D0002061012020710020EFE7000010B586B0E7
:1015E0000446142101A8FFF72DF83B4920688842E2
:1015F00070D100BF002000903848006840F00050D3
:10160000364908600846006800F00050009000BFAE
:1016100000BF00BF0020009030481038006840F044
:1016200001002E49103908600846006800F00100EA
:10163000009000BF00BF30200190032002900020E6
:10164000039001A9264800F0E7FB264826490860D8
:101650004FF0606048604021234881600021C160F4
:101660004FF4806101614900416189008161491144
:10167000C161490201620021416200F091FA08B1A2
:10168000FFF71CFE00BF1848A060846300BF154828
:101690001830164908604FF06060486040211348D8
:1016A00081600021C1604FF48061016149004161A6
:1016B000890081614911C1614902016200214162D1
:1016C00000F06EFA08B1FFF7F9FD00BF0748E060CF
:1016D000846300BF06B010BD007400404038024073
:1016E000000002408860024020C3012080C3012026
:1016F0002DE9F04704460E4690469A46DDF82090C4
:1017000014B90120BDE8F08700BF6079012801D13C
:101710000220F7E70120607100BF0220207116BB94
:101720003B48A168C8633B48A16808643A48A1687F
:10173000C8642068006840F4805021680860B9F1EE
:10174000000F03D0B9F1040F08D103E0206800F1C5
:10175000080507E0206800F10C0503E0206800F1AF
:10176000100500BF22E02D48E168C8632C48E168FD
:1017700008642C48E168C8642068006840F0805024
:1017800021680860B9F1000F03D0B9F1040F08D146
:1017900003E0206800F1140507E0206800F1180557
:1017A00003E0206800F11C0500BF00BF6EB920688F
:1017B000006840F400502168086053462A464146BC
:1017C000A06800F063FA07460CE02068006840F06B
:1017D00000502168086053462A464146E06800F000
:1017E00055FA074600BF0020607100BF4FB920685E
:1017F000006806F01002012191400843216808604A
:1018000003E0206940F00400206138467AE70000D8
:10181000DB08000833090008FF080008ED0800088D
:10182000410900081909000870B504460D460CB9B5
:10183000012070BD2068006805F010024FF480514F
:1018400091408843216808602068006805F0100214
:10185000012191408843216808604DB9A06800F0DB
:1018600014F82068006820F400502168086008E03F
:10187000E06800F00AF82068006820F00050216855
:101880000860012020710020D3E770B50446A56DE3
:1018900000F0CCFB064694F83500022808D08020E2
:1018A000606500BF002084F8340000BF012070BDD7
:1018B0002068006820F016002168086020684069F0
:1018C00020F0800021684861206C08B9A06C28B124
:1018D0002068006820F0080021680860206800681F
:1018E00020F001002168086010E000F09FFB801BE1
:1018F00005280BD920206065032084F8350000BF3F
:10190000002084F8340000BF0320D0E7206800687E
:1019100000F001000028E8D194F85C103F208840D6
:10192000A860012084F8350000BF002084F834004E
:1019300000BF00BFBBE7014691F83500022803D085
:101940008020486501207047052081F8350008682F
:10195000006820F001000A6810600020F3E7000032
:10196000F8B50446002000908C4800684FF41651EA
:10197000B0FBF1F7A56D2E6894F85C100820884044
:10198000304098B12068006800F0040070B1206811
:10199000006820F004002168086094F85C100820BA
:1019A0008840A860606D40F00100606594F85C10AC
:1019B00001208840304068B12068406900F0800014
:1019C00040B194F85C1001208840A860606D40F040
:1019D0000200606594F85C1004208840304068B1D3
:1019E0002068006800F0020040B194F85C10042008
:1019F0008840A860606D40F00400606594F85C1059
:101A000010208840304078B32068006800F008005B
:101A100050B394F85C1010208840A86020680068DB
:101A200000F4802080B12068006800F4002028B90C
:101A3000206CC8B12046216C884715E0A06C98B195
:101A40002046A16C88470FE02068006800F4807091
:101A500028B92068006820F0080021680860206C20
:101A600010B12046216C884794F85C1020208840F3
:101A70003040002865D02068006800F01000002881
:101A80005FD094F85C1020208840A86094F835005E
:101A9000052828D12068006820F016002168086019
:101AA0002068406920F0800021684861206C08B9F6
:101AB000A06C28B12068006820F008002168086048
:101AC00094F85C103F208840A860012084F835001D
:101AD00000BF002084F8340000BF206D10B1204604
:101AE000216D8847F8BD2068006800F4802080B12F
:101AF0002068006800F4002028B9606C10B120460E
:101B0000616C88471DE0E06BD8B12046E16B8847E7
:101B100017E02068006800F4807068B920680068E9
:101B200020F0100021680860012084F8350000BF13
:101B3000002084F8340000BFE06B10B12046E16B58
:101B40008847606D38B3606D00F00100F0B105208A
:101B500084F835002068006820F0010021680860E2
:101B600000BF0098401C0090B84200D905E02068F2
:101B7000006800F001000028F3D100BF012084F8C4
:101B8000350000BF002084F8340000BFE06C10B1C5
:101B90002046E16C884700BFA4E7000004C3012091
:101BA0002DE9F0410446002500F040FA074614B93B
:101BB0000120BDE8F081606A00B100BF022084F816
:101BC000350000BF002084F8340000BF20680068A2
:101BD00020F00100216808600AE000F027FAC01B2D
:101BE000052805D920206065032084F83500E0E74A
:101BF0002068006800F001000028EED12068056828
:101C000021480540D4E901010843E16808432169FE
:101C1000084361690843A1690843E1690843216AEF
:101C200008430543606A042803D1D4E90B01084343
:101C30000543206805602068456925F00705606A4E
:101C40000543606A04280DD1A06A0543E06A48B1E3
:101C50002046FEF7B7FE28B140206065012084F8D9
:101C60003500A6E7206845612046FEF791FE06464E
:101C700094F85C103F208840B0600020606501202F
:101C800084F83500002094E73F8010F02DE9F047FC
:101C900004460D4616461F464FF00008D4F85890EB
:101CA00000BF94F83400012802D10220BDE8F0877B
:101CB000012084F8340000BF94F83500012825D1B4
:101CC000022084F83500002060653B4632462946F4
:101CD0002046FEF7CCFE94F85C103F208840C9F8FF
:101CE00008002068006840F0160021680860206C39
:101CF00028B12068006840F008002168086020686A
:101D0000006840F001002168086006E000BF002084
:101D100084F8340000BF4FF002084046C6E70000D8
:101D200070B5044600F082F906462546681C10B1DD
:101D300004480078054400BF00F078F9801BA842F1
:101D4000FAD370BD00C3012070B50446B4F5005F3E
:101D50001AD100F06BF9054622480068281A642859
:101D600011D921480078401C1F49087008460078A6
:101D7000032801D1002008701B480078022802D1F6
:101D800000201A49086000BF042C25D100F04EF94C
:101D9000054614480068281A64281CD9144800789D
:101DA000401C13490870084600780A2801DD00200D
:101DB0000870002003E000210E4A1154401C0A283C
:101DC000F9DB002003E05A210A4A1154401C08495B
:101DD00009788842F7DB00BF0748006801490860BE
:101DE00070BD00003CC0012044C001204CC0012057
:101DF00050C00120DCC2012040C0012010B50446C3
:101E000004480068204020B1024804602046FFF7E3
:101E10009BFF10BD143C0140F8B502460B4600255F
:101E2000002400200021D6E0012606FA01F51E68F4
:101E300006EA0504AC4274D11E7906F00306012EB1
:101E400004D01E7906F00306022E13D190684F00CD
:101E50000326BE40B0434F00DE68BE403043906072
:101E6000506801268E40B0431E79C6F300168E409E
:101E7000304350601E7906F00306032E09D0D06867
:101E80004F000326BE40B0434F009E68BE40304323
:101E9000D0601E7906F00306022E13D1CF0802F19E
:101EA000200656F827004E07F70E0F26BE40B04317
:101EB0004F07FF0E1E69BE403043CF0802F12006D7
:101EC00046F8270010684F000326BE40B0431E7935
:101ED00006F003064F00BE40304310605E6806F413
:101EE0004036002E76D000BF002600963C4E366865
:101EF00046F480463A4F3E603E46366806F48046D9
:101F0000009600BF00BF374E8F0856F827008E0797
:101F1000370F0F26BE40B043334EB24202D10026E7
:101F200024E057E0314EB24201D101261EE0304E8E
:101F3000B24201D1022619E02E4EB24201D103264F
:101F400014E02D4EB24201D104260FE02B4EB242D6
:101F500001D105260AE02A4EB24201D1062605E04B
:101F6000284EB24201D1072600E008268F073F0F16
:101F7000BE4030431B4E8F0846F82700224E306883
:101F8000A0435E6806F4801606B120431E4E306002
:101F9000361D3068A0435E6806F4001606B1204383
:101FA000194E361D3060184E361F3068A0435E68EB
:101FB00006F4003606B12043134E361F3060361F3C
:101FC0003068A0435E6806F4803606B120430E4EAA
:101FD000083E3060491C1029FFF426AFF8BD000010
:101FE000443802400838014000000240000402402A
:101FF00000080240000C02400010024000140240A1
:1020000000180240001C0240083C014010B5426923
:1020100021EA020302EA010443EA0443836110BD9A
:102020000AB1816101E00B048361704701480068D7
:1020300070470000F8C2012070B504460CB90120B9
:1020400070BD94F83D0028B9002084F83C0020467B
:1020500000F0DAF8242084F83D002068006820F0C1
:102060000100216808602068006840F40040216891
:1020700008602068006820F400402168086000F0D3
:10208000A9FA05465C496068884206D85B488542E3
:1020900001D2012007E0002005E05948854201D225
:1020A000012000E00020012800D1C9E75548B5FB18
:1020B000F0F62068406820F03F0030432168486017
:1020C0004D496068884201D8701C07E04FF4967053
:1020D00070434FF47A71B0FBF1F0401C2168096A3B
:1020E00021F03F0108432168086243496068884243
:1020F00014D8681E61684900B0FBF1F0401CC0F3C1
:102100000B00042801D204203DE0681E61684900EC
:10211000B0FBF1F0401CC0F30B0034E0A06838B90C
:10212000681E616801EB4101B0FBF1F0401C0AE060
:10213000681E616801EBC10202EB0111B0FBF1F016
:10214000401C40F48040C0F30B0008B901201AE0A5
:10215000A06848B9681E616801EB4101B0FBF1F06D
:10216000401CC0F30B000CE0681E616801EBC1026B
:1021700002EB0111B0FBF1F0401CC0F30B0040F486
:10218000804040F400402168C9694CF6FF729143D9
:1021900008432168C861D4E9070108432168096838
:1021A00021F0C001084321680860D4E90310084306
:1021B0002168896848F2FF329143084321688860AA
:1021C000D4E9050108432168C96821F0FF010843EB
:1021D0002168C8602068006840F00100216808603C
:1021E00000202064202084F83D000020206384F833
:1021F0003E0000BF24E70000A086010080841E008E
:1022000000093D0040420F0010B586B0044614217D
:1022100001A8FEF717FA1B49206888422FD100BF9A
:10222000002000901848006840F00200164908603D
:102230000846006800F00200009000BF00BFC02008
:1022400001901220029000200390032004900420AB
:10225000059001A90D48FFF7DFFD00BF00200090A9
:1022600009481030006840F4001007491031086038
:102270000846006800F40010009000BF00BF06B0E0
:1022800010BD0000005400403038024000040240FD
:102290000348006803490978084401490860704709
:1022A000F8C2012000C3012010B50D48006840F4B9
:1022B00000700B4908600846006840F480600860C0
:1022C0000846006840F480700860032000F0A6F81B
:1022D0000F2000F007F800F02BF8002010BD0000E0
:1022E000003C024070B504460E4800784FF47A7105
:1022F000B1FBF0F00C490968B1FBF0F5284601F09C
:10230000C5FA08B1012070BD102C07D20022214669
:10231000501E00F045F80548046001E00120F2E796
:102320000020F0E700C3012004C30120FCC201200B
:1023300008B500BF002000900E48006840F48040BF
:102340000C4908600846006800F48040009000BF17
:1023500000BF00BF00200090081F006840F08050C0
:10236000091F08600846006800F08050009000BF18
:1023700000BF08BD443802400146084600280DDB76
:1023800000BF00BF00F01F0301229A4043099B00D9
:1023900003F1E023C3F8002100BF00BF00BF704776
:1023A0002DE9F05F80460D461646002703F0BEFC7F
:1023B000074639462A46334601F00700C0F1070AAE
:1023C000BAF1040F02D94FF0040A01E0C0F1070A84
:1023D000D14600F1040ABAF1070F02D24FF0000A09
:1023E00001E0A0F1030AD4464FF0010A0AFA09FA03
:1023F000AAF1010A0AEA020A0AFA0CFA4FF0010BE2
:102400000BFA0CFBABF1010B0BEA030B4AEA0B04D2
:102410002146404603F092FCBDE8F09F00BF00F06B
:102420000702064B19684FF6FF031940044B0B4394
:1024300043EA0221014B196000BF70470CED00E038
:102440000000FA0570B504460D460CB9012070BDB8
:102450005848006800F00700A84209D255490D709D
:102460000846006800F00700A84201D00120EEE70E
:10247000207800F0020002281DD1207800F004002E
:10248000042805D14C48006840F4E0504A490860EF
:10249000207800F00800082805D14748006840F47B
:1024A0006040454908604448006820F0F000A16899
:1024B000084341490860207800F00100A8B3606833
:1024C000012807D13C4808380068C0F34040B8B93B
:1024D0000120BCE76068022802D06068032807D1A9
:1024E000354808380068C0F3406048B90120AEE7BD
:1024F000314808380068C0F3400008B90120A6E759
:102500002D48006820F00300616808432A490860EC
:10251000FFF78CFD064609E0FFF788FD801B41F2BE
:102520008831884202D9032091E707E022480068F9
:1025300000F00C006168B0EB810FEDD11D48006820
:1025400000F00700A84209D91A490D700846006832
:1025500000F00700A84201D0012078E7207800F0C1
:102560000400042807D11448006820F4E050E16812
:10257000084311490860207800F00800082808D1B5
:102580000D48006820F46040216940EAC1000A4912
:10259000086000F03FF808490968C1F30311074AD1
:1025A000515CC8400649086006480068FFF79AFE7B
:1025B00000204CE7003C02400838024064B10008AB
:1025C00004C30120FCC201200148006870470000DC
:1025D00004C3012000B5FFF7F7FF04490968C1F300
:1025E0008221034A515CC84000BD00000838024007
:1025F00074B1000800B5FFF7E7FF04490968C1F3AB
:102600004231034A515CC84000BD00000838024016
:1026100074B100082DE9F047002400250026A146EA
:102620002548006800F00C0020B1042805D00828D7
:102630003AD105E0DFF8849039E0DFF8849036E0A5
:102640001D48001F006800F03F041B48001F006881
:1026500000F4800078B11A481749091F0968C1F3CE
:102660008811A0FB01700146224600233846FDF781
:102670002DFE05460EE011480F49091F0968C1F3F8
:102680008811A0FB01700146224600233846FDF761
:102690001DFE05460848001F0068C0F30140401CAD
:1026A0004600B5FBF6F902E0DFF8109000BF00BF6E
:1026B0004846BDE8F0870000083802400024F400D6
:1026C00000127A00F8B504460CB90120F8BD207854
:1026D00000F00100002874D0F948006800F00C00F8
:1026E00004280DD0F648006800F00C00082813D12B
:1026F000F348001F006800F48000B0F5800F0BD194
:10270000EF4808380068C0F34040002859D060689E
:10271000002856D10120D9E700BF6068B0F5803F9E
:1027200008D1E7480838006840F48030E4490839A7
:1027300008601EE06068B0F5A02F0DD1E0480838B1
:10274000006840F48020DE490839086008460068C7
:1027500040F4803008600CE0D9480838006820F464
:102760008030D749083908600846006820F4802086
:10277000086000BF606890B1FFF758FC054606E0AE
:10278000FFF754FC401B642801D903209EE7CC4886
:1027900008380068C0F340400028F1D011E0FFF78E
:1027A00045FC054606E0FFF741FC401B642801D9C3
:1027B00003208BE7C24808380068C0F34040002877
:1027C000F1D1207800F0020002285FD1BC480068F7
:1027D00000F00C0058B1BA48006800F00C0008285E
:1027E0001CD1B748001F006800F48000B0B9B4489D
:1027F00008380068C0F3400020B1E068012801D02B
:10280000012063E7AE480838006820F0F80021692D
:1028100040EAC100AA490839086037E0E06800B31F
:102820000120A8490860FFF701FC054606E0FFF714
:10283000FDFB401B022801D9032047E7A0480838C8
:102840000068C0F340000028F1D09D4808380068B7
:1028500020F0F800216940EAC10099490839086070
:1028600014E0002097490860FFF7E0FB054606E00A
:10287000FFF7DCFB401B022801D9032026E7904824
:1028800008380068C0F340000028F1D1207800F03B
:10289000080008282CD16069A8B101208A49086085
:1028A000FFF7C4FB054606E0FFF7C0FB401B02280C
:1028B00001D903200AE782486C300068C0F3400069
:1028C0000028F1D014E000207F490860FFF7AEFB3C
:1028D000054606E0FFF7AAFB401B022801D90320AA
:1028E000F4E677486C300068C0F340000028F1D16E
:1028F000207800F00400042870D100277048383098
:10290000006800F0805090B900BF002000906C4833
:102910003830006840F08050694938310860084616
:10292000006800F08050009000BF00BF012767489A
:10293000006800F48070B0B96448006840F48070AA
:1029400062490860FFF772FB054606E0FFF76EFB81
:10295000401B022801D90320B8E65C48006800F457
:1029600080700028F2D000BFA068012808D1544828
:102970006830006840F001005149683108601DE08E
:10298000A06805280DD14E486830006840F004006A
:102990004B49683108600846006840F00100086053
:1029A0000CE047486830006820F001004449683175
:1029B00008600846006820F00400086000BFA068B6
:1029C000A8B1FFF733FB054609E0FFF72FFB401BDB
:1029D00041F28831884202D9032077E626E0384860
:1029E00068300068C0F340000028EED013E0FFF725
:1029F0001DFB054608E0FFF719FB401B41F288313B
:102A0000884201D9032061E62D4868300068C0F390
:102A100040000028EFD1012F07D129483830006845
:102A200020F0805026493831086000BFA069002896
:102A300045D02348006800F00C0008285DD0A0694C
:102A4000022845D100201F490866FFF7EFFA054626
:102A500006E0FFF7EBFA401B022801D9032035E618
:102A6000174808380068C0F340600028F1D1D4E965
:102A700007010843616A40EA81110122A06AC2EBA2
:102A8000500041EA00412C20005D41EA00600C4901
:102A9000091F086001200B490866FFF7C7FA0546C1
:102AA00006E0FFF7C3FA401B022801D903200DE618
:102AB000034808380068C0F340600028F1D049E0BE
:102AC0000838024000004742800E47420070004034
:102AD000002021490866FFF7A9FA054606E0FFF73E
:102AE000A5FA401B022801D90320EFE51B48006826
:102AF000C0F340600028F2D12CE0A069012800D189
:102B0000E4E51648001D0668A069012820D006F4F7
:102B10008001E06981421BD106F03F01206A8142B9
:102B200016D147F6C0703040616AB0EB811F0FD1FB
:102B300006F440310122A06AC2EB5000B1EB004F15
:102B400006D106F070612C20005DB1EB006F01D062
:102B50000120BBE50020B9E50000474200380240F3
:102B600010B50446FDF757FE10BD704710B502467C
:102B7000506E800F0870506EC0F383604870506EC6
:102B8000C0F301608870506E000CC870B2F8640029
:102B9000000A087192F864004871906E000DC880B8
:102BA000906EC0F3034008726820805AC0F3C030B2
:102BB00048726820805AC0F3803088726820805A3A
:102BC000C0F34030C8726820805AC0F300300873E8
:102BD00000204873506C002836D16820805A800548
:102BE000030DD06E43EA90700861D06EC0F3C260EE
:102BF0000875D06EC0F302604875D06EC0F34250C5
:102C00008875D06EC0F38240C875D06EC0F3C230F4
:102C100008760869401C50650B7E506D03F0070371
:102C20009B1C01249C4060435065087A00F00F0310
:102C3000012098409065D2E915035B0A5843D0659E
:102C40004FF40073136621E0506C012813D1682003
:102C5000805C8006830AD06E43EA104008610869F0
:102C6000401C83025365536DD3654FF40073936525
:102C7000936D13660AE02E4813689863906B40F0DA
:102C800080509063012082F8340010BD6C20805A7F
:102C9000C0F3803001F8190F6C20805AC0F3C610C1
:102CA00048706C20805C00F07F008870106FC00F4F
:102CB000C870106FC0F341700871106FC0F382606C
:102CC0004871106FC0F383508871106FC0F340508B
:102CD000C87100200872106FC0F300404872702065
:102CE000805AC0F3C03088727020805AC0F38030A0
:102CF000C8727020805AC0F3403008737020805A28
:102D0000C0F3003048737020805AC0F3812088736C
:102D10007020805AC0F30120C8737020805CC0F31B
:102D2000460008740120487419390020ADE70000FE
:102D3000FF0540000246506C0860906C4860D06C03
:102D40008860106DC860506D0861906D4861D06DED
:102D50008861106EC86100207047F8B504460020F5
:102D600000906946204602F0D8FB054615B1A06BDD
:102D70002843A0630098C0F343263046F8BD000006
:102D800070B50446256B2068406BC0F3C03030B18D
:102D900005F0080018B1204602F09AFBF8E0206820
:102DA000406BC0F30020002862D04FF4807021688F
:102DB00088632068C06B4CF23A3188432168C8634D
:102DC0002068C06A20F001002168C86205F0080090
:102DD00038B305F0020010B905F0200050B12068AA
:102DE00001F0F6FF06462EB1A06B3043A0632046EB
:102DF000FFF7BBFE40F23A5021688863012084F857
:102E000034000020206305F0010010B905F0020035
:102E100018B1204600F04CFBBAE0204600F04DFB14
:102E2000B6E005F080000028B8D005F0200050B1D1
:102E3000206801F0CDFF06462EB1A06B3043A063A1
:102E40002046FFF792FE05F001000028A6D105F00C
:102E500002000028A2D12068C06A20F00800216882
:102E6000C862012084F83400204600F026FB8FE081
:102E70002068406BC0F3803030B105F0080018B115
:102E8000204602F062FB83E02068406B40F23A216A
:102E9000084008B1012000E00020002878D0206818
:102EA000406BC0F3400018B1A06B40F00200A0637B
:102EB0002068406BC0F3C00018B1A06B40F0080060
:102EC000A0632068406BC0F3401018B1A06B40F0C5
:102ED0002000A0632068406BC0F3001018B1A06B05
:102EE00040F01000A0632068406BC0F3402018B190
:102EF000A06B40F00800A06340F23A70216888633C
:102F00002068C06B40F23A3188432168C86320686A
:102F100001F05EFFA16B0843A06305F0080040B11B
:102F2000012084F83400002020632046FFF71DFEB6
:102F30002EE005F0800000B305F0100010B905F098
:102F4000200050B11348E16B0865E06BFEF7F3FC1D
:102F500098B1E06B02F0B0F91AE005F0010010B989
:102F600005F0020050B10C48216C0865206CFEF79A
:102F7000E2FC10B1206C02F07BF909E00020A063B4
:102F8000012084F83400002020632046FFF7E8FD8C
:102F900070BD0000B95200087152000810B5044617
:102FA0000CB9012010BD94F8340020B9002020771E
:102FB000204600F065F8032084F83400204600F035
:102FC0000BF808B10120EDE70020A0632063012089
:102FD00084F834000020E5E730B589B004460020CD
:102FE000039004900590069007907620089006A81C
:102FF00007C88DE80700206803A90EC901F064FD29
:1030000000201D490860206801F078FD01201A4960
:10301000A039C1F8A0000220FEF782FE204602F08F
:10302000F1F9054645B1012084F83400A06B28432E
:10303000A063012009B030BD204602F061F90546C9
:103040003DB1012084F83400A06B2843A063012027
:10305000F0E74FF40071206801F0AEFD05464DB178
:10306000064821688863A06B2843A063012084F888
:103070003400DFE70020DDE7A0802542FF054000A7
:1030800010B586B00446142101A8FDF7DBFA5849B3
:10309000206888427ED100BF00200090554800681B
:1030A00040F40060534908600846006800F400607E
:1030B000009000BF00BF00BF002000904D481438B2
:1030C000006840F004004B49143908600846006865
:1030D00000F00400009000BF00BF00BF002000907F
:1030E0000846006840F0080008600846006800F0E4
:1030F0000800009000BF00BF4FF4885001900220EC
:10310000029000200390032004900C20059001A958
:103110003948FEF781FE0420019002200290002031
:103120000390032004900C20059001A93348FEF77A
:1031300073FE3348334908604FF000604860002157
:1031400030488160C1604FF4806101618900416154
:10315000890081612021C161002101620421416255
:10316000032181624FF40001C16289100163FEF7FF
:1031700017FD08B1FEF7A2F800BF2248206484635F
:1031800000BF1F484830204908604FF00060486089
:10319000402100E029E01C4881600021C1604FF41B
:1031A0008061016189004161890081612021C161E3
:1031B0000021016204214162032181624FF4000178
:1031C000C16289100163FEF7EBFC08B1FEF776F8E7
:1031D00000BF0D48E063846300BF00221146312028
:1031E000FFF7DEF83120FFF7C7F806B010BD00008A
:1031F000002C01404438024000080240000C02400C
:1032000058640240B8C4012018C501202DE9FF4FC1
:1032100089B004468B469946DDF858A0FEF706FFB4
:1032200002900B9800905D46BBF1000F07D1A06B98
:1032300040F00060A06301200DB0BDE8F08F94F86D
:10324000340001287ED10020A063009800EB090122
:10325000E06D814205D9A06B40F00070A0630120B1
:10326000EAE7032084F8340000202168C862606C1B
:10327000012802D00098400200904FF0FF300390E8
:103280004FEA4920049090200590022006900020EB
:1032900007900120089003A9206801F0E8FBB9F12C
:1032A000010F07D9022020632068009901F0D0FCAB
:1032B000804606E0012020632068009901F0E4FCCC
:1032C0008046B8F1000F0DD0784821688863A06B64
:1032D00040EA0800A063012084F834000020206345
:1032E0000120A9E7049E3AE02068406B00F400400A
:1032F000E0B1DEB10020019015E0206801F003FC90
:1033000007462F706D1C761E380A28706D1C761EBD
:10331000380C28706D1C761E380E28706D1C761EB9
:103320000198401C019001980828E6D3FEF77EFE24
:103330000299401A504502D2BAF1000F0FD15B48F2
:10334000216800E0ABE08863A06B40F00040A06320
:10335000012084F834000020206303206CE72068FB
:10336000406B40F22A3108400028BDD02068406BF5
:1033700000F48070D0B1B9F1010F17D9606C032847
:1033800014D0206801F024FD8046B8F1000F0DD064
:10339000464821688863A06B40EA0800A0630120CA
:1033A00084F8340000202063012045E72068406B4A
:1033B00000F0080020B92068406B00F4007068B18C
:1033C0003A4821688863A06B40F00800A0630120A0
:1033D00084F834000020206301202DE72068406B32
:1033E00000F0020068B1314821688863A06B40F0AA
:1033F0000200A063012084F8340000202063012033
:103400001AE72068406B00F0200068B12748216867
:103410008863A06B40F02000A063012084F8340092
:1034200000202063012007E729E0206801F06BFB02
:1034300007462F706D1C761E380A28706D1C761E8C
:10344000380C28706D1C761E380E28706D1C761E88
:10345000FEF7ECFD0299401A504502D2BAF1000F76
:103460000DD1124821688863A06B40F00040A06332
:10347000012084F83400002020630120DCE620686D
:10348000406B00F4001008B1002ECED140F23A504B
:1034900021688863012084F834000020CCE6A06B0A
:1034A00040F00050A0630120C6E60000FF05400088
:1034B00010B50446FDF7F4F910BD10B50446FDF74C
:1034C00009FA10BD2DE9F04F89B0044689469346AC
:1034D0009846FEF7ABFD0290DA464D46B9F1000F73
:1034E00007D1A06B40F00060A063012009B0BDE8E7
:1034F000F08F94F8340001287ED10020A0630AEBFD
:103500000801E06D814205D9A06B40F00070A06316
:103510000120EBE7032084F8340000202168C86212
:10352000606C012801D04FEA4A2A4FF0FF30039027
:103530004FEA4820049090200590002006900790C4
:103540000120089003A9206801F091FAB8F1010F59
:1035500007D9202020635146206801F057FC064619
:1035600006E0102020635146206801F06BFC0646FF
:1035700066B1624821688863A06B3043A063012074
:1035800084F83400002020630120AFE7049F43E06B
:103590002068406B00F4804030B32FB300200190CE
:1035A0001FE0287800906D1C7F1E2878009941EA62
:1035B000002000906D1C7F1E2878009941EA004091
:1035C00000906D1C7F1E2878009941EA00600090F1
:1035D0006D1C7F1E6946206801F0ADFA0198401C01
:1035E000019001980828DCD3FEF720FD0299411ACA
:1035F0001298814203D200E079E0129860B93F4806
:1036000021688863A06B3043A063012084F83400F4
:1036100000202063032069E72068406B40F21A31E4
:1036200008400028B4D02068406B00F48070B8B126
:10363000B8F1010F14D9606C032811D0206801F093
:10364000C7FB064666B12D4821688863A06B3043EE
:10365000A063012084F8340000202063012045E7A6
:103660002068406B00F0080020B92068406B00F42F
:10367000007068B1214821688863A06B40F00800A1
:10368000A063012084F834000020206301202DE78E
:103690002068406B00F0020068B118482168886318
:1036A000A06B40F00200A063012084F834000020E9
:1036B000206301201AE72068406B00F0100068B119
:1036C0000E4821688863A06B40F01000A0630120C1
:1036D00084F8340000202063012007E740F23A50CC
:1036E00021688863012084F834000020FEE6A06B86
:1036F00040F00050A0630120F8E60000FF05400004
:1037000010B504460CB9012010BD606A38B9606874
:10371000B0F5827F00D105E00021E16102E00021E7
:10372000216161610021A16294F8510028B9002053
:1037300084F85000204600F047F8022084F8510039
:103740002068006820F0400021680860A08800F42C
:103750008270218901F404410843A18901F40061C8
:103760000843217C01F002010843217D01F00101A1
:103770000843218B01F400710843217F01F03801D7
:1037800008432021095D01F080010843218D01F4E7
:1037900000510843216808600421A06901EA104033
:1037A00094F8241001F01001084321684860206853
:1037B000C06920F400602168C861002060650120B4
:1037C00084F8510000209FE710B586B0044614210C
:1037D00001A8FCF737FF2949206888424CD100BF77
:1037E000002000902648006840F48050244908607A
:1037F0000846006800F48050009000BF00BF00BF82
:10380000002000901E481438006840F001001C4958
:10381000143908600846006800F00100009000BFFD
:1038200000BF00BF002000900846006840F0020082
:1038300008600846006800F00200009000BF00BF6A
:10384000C0200190022002900020039003200490E9
:103850000520059001A90B48FEF7DEFA082001902B
:103860000220029000200390032004900520059080
:1038700001A90548FEF7D0FA06B010BD003001409E
:1038800044380240000002400004024070B5044683
:103890002546681EB0F1807F01D301200FE0681E2D
:1038A0004FF0E02148610F214FF0FF3002F046FA5F
:1038B00000204FF0E021886107200861002070BDE2
:1038C0007047704730B502460B4600BF92F83C0087
:1038D000012801D1022030BD012082F83C0000BF48
:1038E000022082F83D00106844681068816824F066
:1038F00070041868044310684460184D1068A842AA
:103900001BD01068B0F1804F17D0154D1068A84239
:1039100013D0144D1068A8420FD0134D1068A84260
:103920000BD0124D1068A84207D0114D1068A84264
:1039300003D0104D1068A84205D121F080015868CD
:10394000014310688160012082F83D0000BF002023
:1039500082F83C0000BF00BFBDE70000000001404E
:103960000004004000080040000C0040000401403A
:10397000004001400018004010B504460CB9012079
:1039800010BD94F83D0028B9002084F83C00204682
:1039900000F026F8022084F83D00211D206801F087
:1039A000FBFE012084F8460000BF84F83E000121A0
:1039B0003F200155402001554120015500BF00BF67
:1039C000012084F842004320015544200155452040
:1039D000015500BF012084F83D000020D0E7000021
:1039E00038B5044626492068884218D100BF002017
:1039F00000902448006840F0020022490860084610
:103A0000006800F00200009000BF00BF00221146D5
:103A10001D20FEF7C5FC1D20FEF7AEFC2FE01A4965
:103A2000206888420FD100BF002000901548006830
:103A300040F01000134908600846006800F01000CC
:103A4000009000BF1BE011492068884217D100BFD9
:103A5000002000900B48006840F48070094908601D
:103A60000846006800F48070009000BF00BF00228C
:103A700011462D20FEF794FC2D20FEF77DFC38BD6D
:103A80000004004040380240001000400020004088
:103A9000014691F83D00012801D001207047022025
:103AA00081F83D001A4B086898421BD00868B0F1B5
:103AB000804F17D0174B0868984213D0164B0868F0
:103AC00098420FD0154B086898420BD0144B0868E9
:103AD000984207D0134B0868984203D0124B0868ED
:103AE00098420CD10868806800F00702062A0CD0C2
:103AF0000868006840F001000B68186005E008687D
:103B0000006840F001000B6818600020C6E7000064
:103B1000000001400004004000080040000C00408C
:103B2000000401400040014000180040014691F8A7
:103B30003D00012801D001207047022081F83D009E
:103B40000868C06840F001000B68D8601A4B08682C
:103B500098421BD00868B0F1804F17D0174B086807
:103B6000984213D0164B086898420FD0154B08683E
:103B700098420BD0144B0868984207D0134B086842
:103B8000984203D0124B086898420CD108688068AC
:103B900000F00702062A0CD00868006840F0010017
:103BA0000B68186005E00868006840F001000B68C9
:103BB00018600020C0E70000000001400004004041
:103BC00000080040000C004000040140004001409B
:103BD000001800402DE9F04104460D46002700BFC3
:103BE00094F83C00012802D10220BDE8F0810120B8
:103BF00084F83C0000BF022084F83D0020688668FD
:103C000026F0770626F47F462068866028685028CC
:103C100033D00CDC202850D004DC00284BD01028F6
:103C200051D149E0302849D040284CD139E06028B2
:103C30002DD0702807D0B0F5805F03D0B0F5005FBD
:103C400041D10DE041E0D5E902136A68206801F036
:103C500024FE2068866846F077062068866034E097
:103C6000D5E902136A68206801F017FE20688068B1
:103C700040F480402168886027E0EA68696820682D
:103C800001F0FCFE5021206801F012FE1DE0EA6800
:103C90006968206801F005FF6021206801F008FED6
:103CA00013E0EA686968206801F0E8FE40212068B6
:103CB00001F0FEFD09E000BF00BF00BF29682068D9
:103CC00001F0F6FD01E0012700BF00BF012084F8EC
:103CD0003D0000BF002084F83C0000BF384684E768
:103CE0002DE9F04104460D4614B90120BDE8F081EC
:103CF00094F83D0028B9002084F83C00204600F0EC
:103D000053F8022084F83D002068806844F20701DF
:103D1000884321688860211D206801F03DFD2068EE
:103D2000D0F80880206886692068076A286840EA19
:103D3000080840F203308643A969A86840EA0120D8
:103D4000064340F60C4086434FF2F0008643E96993
:103D5000E86840EA0120064328690001296A40EA30
:103D60000130064327F0220727F088076969686851
:103D700040EA011007432068C0F808802068866187
:103D800020680762012084F8460084F83E00012183
:103D90003F200155012084F84200432001550120B5
:103DA00084F83D000020A1E710B586B00446142138
:103DB00001A8FCF747FC1F492068884237D100BFA3
:103DC000002000901C48006840F002001A4908607A
:103DD0000846006800F00200009000BF00BF00BF6E
:103DE0000020009014481438006840F00400124984
:103DF000143908600846006800F00400009000BF15
:103E000000BFC020019002200290012003900020FA
:103E100004900320059001A90848FDF7FDFF00224A
:103E200011462D20FEF7BCFA2D20FEF7A5FA06B0AC
:103E300010BD000000040140443802400008024068
:103E40002DE9F04304460D4694F83E603F20075D9F
:103E500094F84280432010F804906DB9012E02D1ED
:103E6000B8F1010F02D00120BDE8F083022084F8F0
:103E70003E0084F8420025E0042D0CD1012F02D130
:103E8000B9F1010F01D00120EEE702213F200155D9
:103E90004320015516E0012E07D1012F05D1B8F1BD
:103EA000010F02D1B9F1010F01D00120DCE702209E
:103EB00084F83E0002213F200155022084F8420090
:103EC0004320015515B1042D0CD105E0012200213C
:103ED000206801F0D1FC10E001220421206801F0EB
:103EE000CBFC0AE001220021206801F0C5FC012280
:103EF0000421206801F0C0FC00BF00BF20680068FA
:103F000040F00100216808600020ADE7704770B5FF
:103F100004462068C5682068066906F00200022889
:103F200019D105F00200022815D1401F216808614F
:103F3000012020772068806900F0030018B1204636
:103F4000FFF7E4FF05E0204600F0C6F8204600F049
:103F500091F90020207706F00400042819D105F01B
:103F60000400042815D1C04321680861022020778D
:103F70002068806900F4407018B12046FFF7C6FF42
:103F800005E0204600F0A8F8204600F073F9002074
:103F9000207706F00800082819D105F00800082845
:103FA00015D1C04321680861042020772068C069CA
:103FB00000F0030018B12046FFF7A8FF05E02046F7
:103FC00000F08AF8204600F055F90020207706F02E
:103FD0001000102819D105F01000102815D1C04389
:103FE00021680861082020772068C06900F44070CB
:103FF00018B12046FFF78AFF05E0204600F06CF874
:10400000204600F037F90020207706F0010048B183
:1040100005F0010030B16FF0010021680861204611
:1040200000F0B0F906F08000802809D105F080008A
:10403000802805D1C043216808612046FFF740FC75
:1040400006F04000402809D105F04000402805D185
:10405000C04321680861204600F0E0F906F0200026
:10406000202809D105F02000202805D1C04321686F
:1040700008612046FFF725FC70BD000010B586B032
:104080000446142101A8FCF7DDFA2068B0F1804F46
:104090001CD100BF002000900D48006840F00100D6
:1040A0000B4908600846006800F00100009000BF5E
:1040B00000BF042001900220029000200390049091
:1040C0000120059001A90348FDF7A6FE06B010BD2A
:1040D000303802400000024070472DE9F0410446AC
:1040E0000D461646002700BF94F83C00012802D177
:1040F0000220BDE8F081012084F83C0000BF36B109
:10410000042E1BD0082E31D00C2E5ED145E029465E
:10411000206801F0D7FB2068806940F00800216822
:1041200088612068806920F0040021688861206827
:104130008069296908432168886148E02946206828
:1041400001F0F8FB2068806940F400602168886114
:104150002068806920F48060216888612068806917
:10416000296940EA01202168886130E029462068F9
:1041700001F01EFC2068C06940F008002168C86199
:104180002068C06920F004002168C8612068C06907
:10419000296908432168C86119E02946206801F0AF
:1041A00043FC2068C06940F400602168C861206851
:1041B000C06920F480602168C8612068C0692969ED
:1041C00040EA01202168C86101E0012700BF00BF6B
:1041D00000BF002084F83C0000BF384689E710B5D6
:1041E00004460CB9012010BD94F83D0028B9002008
:1041F00084F83C00204600F025F8022084F83D00B9
:10420000211D206801F0C8FA012084F8460000BF93
:1042100084F83E0001213F200155402001554120F6
:10422000015500BF00BF012084F842004320015522
:10423000442001554520015500BF012084F83D0070
:104240000020D0E708B50168B1F1804F0FD100BF61
:10425000002100910649096841F00101044A1160FA
:104260001146096801F00101009100BF00BF08BDBF
:10427000403802407047000070B504460D4615B93D
:1042800094F83E000BE0042D02D13F20005D06E0D3
:10429000082D02D14020005D01E04120005D012891
:1042A00001D0012070BD1DB9022084F83E000EE04F
:1042B000042D03D102213F20015508E0082D03D130
:1042C00002214020015502E0022141200155012236
:1042D0002946206801F0D0FA23492068884203D09B
:1042E00022492068884201D1012000E0002028B145
:1042F0002068406C40F40040216848641A492068F6
:1043000088421BD02068B0F1804F17D01849206830
:10431000884213D01749206888420FD01649206878
:1043200088420BD011492068884207D01349206881
:10433000884203D01249206888420CD120688068E6
:1043400000F00706062E0CD02068006840F001003F
:104350002168086005E02068006840F001002168DD
:10436000086000209EE700000000014000040140BA
:104370000004004000080040000C004000400140E4
:10438000001800401D4A0168914236D11C49097845
:10439000C9B11C490968491C1A4A116011460968CB
:1043A000B1F5004F01D3002111601749154A126879
:1043B000895C164A12885143642291FBF2F1144A37
:1043C0001268D16319E013490988491C09B2114ADE
:1043D0001180114609880A2901D1002111800E4956
:1043E0000C4AB2F90020895C084A128851436422C1
:1043F00091FBF2F1064A1268D16370470004004055
:1044000064C0012058C001205005012038C001209F
:1044100078C50120F4C20120DCC20120704710B52C
:1044200004460CB9012010BDA06900B100E000BF36
:1044300094F8410028B9002084F84000204600F09C
:1044400029F8242084F841002068C06820F4005036
:104450002168C860204601F039FB2068006920F41B
:104460009040216808612068406920F02A00216896
:1044700048612068C06840F400502168C86000208E
:104480006064202084F8410084F8420000206063CA
:1044900000BFC8E710B586B00446142101A8FCF798
:1044A000D1F81B492068884230D100BF002000901D
:1044B0001848006840F01000164908600846006877
:1044C00000F01000009000BF00BF00BF002000906F
:1044D00010481438006840F001000E491439086093
:1044E0000846006800F00100009000BF00BF4FF4D4
:1044F000C0600190022002900020039003200490ED
:104500000720059001A90448FDF786FC06B010BD00
:1045100000100140443802400000024000BFFEE7A6
:1045200010B50B480B49086010204860002109486D
:104530008160C16001614161017641768176C17619
:1045400001774177FCF7FAFE08B1FCF7B7FE10BD22
:1045500000640040C88B01201CB500200090019031
:104560000E480F4908600846FDF723F808B1FCF72C
:10457000A5FE042000900020019000226946084812
:10458000FCF7DDFF08B1FCF799FE102269460448EC
:10459000FCF7D5FF08B1FCF791FE1CBD007400408C
:1045A0000CC3012008B500BF002000901E48006821
:1045B00040F480001C4908600846006800F4800050
:1045C000009000BF00BF00BF0020009008460068B8
:1045D00040F4001008600846006800F400100090E5
:1045E00000BF00BF002211461020FDF7D9FE1020A9
:1045F000FDF7C2FE002211461120FDF7D1FE112069
:10460000FDF7BAFE002211463B20FDF7C9FE3B2014
:10461000FDF7B2FE002211464520FDF7C1FE452000
:10462000FDF7AAFE08BD00003038024010B503496E
:104630000348FCF74FFE0349087010BD010000203D
:104640007CB100080000002000B587B0142102A84A
:10465000FBF7F8FF00BF002001904B48006840F0D6
:104660001000494908600846006800F010000190F9
:1046700000BF00BF00BF002001900846006840F066
:10468000040008600846006800F00400019000BFC4
:1046900000BF00BF002001900846006840F0010004
:1046A00008600846006800F00100019000BF00BFEC
:1046B00000BF002001900846006840F0020008603A
:1046C0000846006800F00200019000BF00BF00BF74
:1046D000002001900846006840F008000860084685
:1046E000006800F00800019000BF00BF0022C9145C
:1046F0002648FDF795FC042002904FF488100390A3
:104700000120049002A92248FDF786FB7820029040
:1047100000200390049002A91D48FDF77DFB4FF493
:10472000005002904FF4881003900120049002A9D9
:104730001848FDF771FB4FF4804002900020039071
:10474000049002A91348FDF767FB4FF40060029044
:104750000120039004900020059002A90B48FDF76A
:104760005BFB002211460820FDF71AFE0820FDF72A
:1047700003FE002211462820FDF712FE2820FDF737
:10478000FBFD07B000BD00003038024000040240CD
:10479000001002400008024010B50B480B490860A9
:1047A0000B484860002109488160C1604FF4804196
:1047B0000161002141618161C1610162FDF73CFC41
:1047C00008B1FCF77BFD10BD00540040E0C30120A0
:1047D000A086010010B5094809490860002048601A
:1047E000002107488160C16001614161042181614C
:1047F000FEF7D4FB08B1FCF761FD10BD002C0140B1
:1048000034C4012010B50E480E4908604FF4827080
:10481000486000210B488160C160016141614FF433
:10482000007181610021C1610162416281620A21DE
:10483000C162FEF765FF08B1FCF740FD10BD000046
:1048400000300140F08B012010B50948094908608B
:10485000532048600021074881600421C160002185
:1048600001618161FFF788F808B1FCF727FD10BDF1
:104870000020004098C6012000B589B000200790B4
:1048800008901C216846FBF7DDFE4FF08040174979
:10489000086000204860002114488160FF21C16049
:1048A000002101618161FFF79AFC08B1FCF706FD68
:1048B00000200790089007A90C48FFF703F808B1FB
:1048C000FCF7FCFC60200090002001900290049016
:1048D000082269460548FFF700FC08B1FCF7EEFC2A
:1048E0000248FFF7CBFB09B000BD000078C50120EE
:1048F00000B587B0002003900490059006900190C9
:104900000290144814490860292048600021124888
:10491000816040F2E731C160002101618161FFF7F0
:104920002BF808B1FCF7CAFC4FF48050039003A9A0
:104930000948FFF74FF908B1FCF7C0FC00200190CF
:10494000029001A90448FEF7BDFF08B1FCF7B6FCD0
:1049500007B000BD00040040C0C501201CB5002008
:10496000009001900E480F49086014204860002113
:104970000C4881600121C16000218161FEF7FCFFCC
:1049800008B1FCF79BFC20200090002001906946B4
:104990000448FEF797FF08B1FCF790FC1CBD00002F
:1049A0000010004008C6012000B58BB0242102A8E9
:1049B000FBF748FE0020009001901A481A49086051
:1049C000002048600021184881604FF6FF71C160E7
:1049D0000021016141618161032002900020039068
:1049E00001200490002005900F20069000200790E1
:1049F00001200890002009900F200A9002A90A487F
:104A0000FFF76EF908B1FCF759FC00200090019007
:104A100069460548FEF756FF08B1FCF74FFC0BB09E
:104A200000BD00000004014050C6012010B50B4835
:104A30000B4908604FF4E13048600021084881606C
:104A4000C16001610C21416100218161C161FFF7F9
:104A5000E6FC08B1FCF732FC10BD0000001001407C
:104A6000488C012000BFFEE700BFFEE7704710B58D
:104A7000024600230868506248689062D1E9020447
:104A800020430C6920434C6920430343D06A20F043
:104A9000F7001843D062002010BD01460869C0B27B
:104AA00070470146086800F003007047024602F1B3
:104AB000140043181868704710B50248FEF760F9F3
:104AC00010BD000034C401200FB410B5044600210D
:104AD000DDE903021043059A1043069A1043079A32
:104AE0001043089A10430143606847F6FF62904301
:104AF00008436060002010BC5DF814FB01460320F1
:104B00000860002070470146D1F88000704710B55A
:104B10000246002308689060D1E901042043CC6874
:104B200020430C6920430343D0686FF30B00184304
:104B3000D060002010BD02460868C2F88000002046
:104B4000704770B585B005460C460094372001903B
:104B500040200290002003904FF48060049069464A
:104B60002846FFF7D4FF41F288323721284600F06B
:104B7000A5F90646304605B070BD000070B585B099
:104B800005460C460B482043009029200190402008
:104B90000290002003904FF48060049069462846FC
:104BA000FFF7B5FF284600F091FA0646304605B0FB
:104BB00070BD00000000108070B585B005460C4641
:104BC00000941020019040200290002003904FF4A8
:104BD0008060049069462846FFF799FF41F28832C9
:104BE0001021284600F06AF90646304605B070BD2F
:104BF00030B585B0044600200090019002900390EB
:104C00004FF48060049069462046FFF780FF2046FD
:104C100000F034F90546284605B030BD30B585B002
:104C200004464FF4D5700090082001904020029077
:104C3000002003904FF48060049069462046FFF7FF
:104C400066FF204600F0CAFA0546284605B030BD8A
:104C500070B585B005460C460094122001904020A6
:104C60000290002003904FF480600490694628462B
:104C7000FFF74DFF41F288321221284600F01EF95D
:104C80000646304605B070BD70B585B005460C4689
:104C900000941120019040200290002003904FF4D6
:104CA0008060049069462846FFF731FF41F2883260
:104CB0001121284600F002F90646304605B070BDC5
:104CC000F0B585B0064614461D46009407200190B5
:104CD00040200290002003904FF4806004906946C9
:104CE0003046FFF714FF41F288320721304600F0CA
:104CF000E5F80746384605B0F0BD30B585B0044646
:104D00000020009002200190C0200290002003901B
:104D10004FF48060049069462046FFF7F8FE204675
:104D200000F0A2F90546284605B030BD70B585B043
:104D300005460C46009409200190C02002900020F6
:104D400003904FF48060049069462846FFF7DFFE29
:104D5000284600F089F90646304605B070BD70B5AA
:104D600085B005460C4600940D200190402002902D
:104D7000002003904FF48060049069462846FFF7B6
:104D8000C6FE41F288320D21284600F097F806460B
:104D9000304605B070BD70B585B005460C460020A4
:104DA00000900320019040200290002003904FF4D7
:104DB0008060049069462846FFF7A9FE2246032139
:104DC000284600F0AFF90646304605B070BD000039
:104DD00030B585B00446002000900C2001904020A2
:104DE0000290002003904FF48060049069462046B2
:104DF000FFF78DFE044A0C21204600F05FF80546BF
:104E0000284605B030BD000000E1F50570B585B05D
:104E100005460C4600941920019040200290002085
:104E200003904FF48060049069462846FFF76FFEB8
:104E300041F288321921284600F040F806463046F3
:104E400005B070BD70B585B005460C4600941820BD
:104E5000019040200290002003904FF48060049065
:104E600069462846FFF753FE41F28832182128464A
:104E700000F024F80646304605B070BD01460E48E5
:104E80000068C0084FF47A73B0FBF3F041F2883346
:104E900000FB03F200BF101EA2F1010202D14FF08D
:104EA00000407047486B00F080000028F3D0C52018
:104EB00088630020F5E7000004C301202DE9F043DA
:104EC00005460F46904666480068C0084FF47A7160
:104ED000B0FBF1F000FB08F900BFB9F10000A9F147
:104EE000010903D14FF00040BDE8F0836E6B06F07E
:104EF00045000028F1D006F400600028EDD1686B71
:104F000000F0040010B10420A863EDE7686B00F026
:104F1000010010B10120A863E6E7C520A863284678
:104F2000FFF7BBFDB84201D00120DDE70021284694
:104F3000FFF7BCFD04464B48204008B90020D3E7EA
:104F400004F00040B0F1004F02D14FF00070CBE709
:104F500004F08040B0F1804F01D14020C4E704F05C
:104F60000050B0F1005F01D18020BDE704F0805017
:104F7000B0F1805F02D14FF48070B5E704F00060BB
:104F8000B0F1006F02D14FF40070ADE704F0806023
:104F9000B0F1806F02D14FF48060A5E704F080701B
:104FA000B0F1807F02D14FF400609DE704F400006F
:104FB000B0F5000F02D14FF4805095E704F4800063
:104FC000B0F5800F02D14FF400508DE704F40010CB
:104FD000B0F5001F02D14FF4804085E704F4801043
:104FE000B0F5801F02D14FF400407DE704F480202B
:104FF000B0F5802F02D14FF4003075E704F4003093
:10500000B0F5003F02D14FF480206DE704F480300A
:10501000B0F5803F02D14FF4002065E704F4004072
:10502000B0F5004F02D14FF480105DE704F48040EA
:10503000B0F5804F02D14FF4001055E704F4005052
:10504000B0F5005F02D14FF480004DE704F0080096
:10505000082801D1000547E74FF4803044E70000FD
:1050600004C3012008E0FFFD10B5014616480068A2
:10507000C0084FF47A74B0FBF4F041F2883400FBBE
:1050800004F300BF181EA3F1010302D14FF000404A
:1050900010BD4A6B02F045000028F3D002F4006016
:1050A0000028EFD1486B00F0040010B104208863A1
:1050B000EEE7486B00F0010010B101208863E7E7DC
:1050C000C52088630020E3E704C3012010B5014632
:1050D00013480068C0084FF47A74B0FBF4F041F252
:1050E000883400FB04F300BF181EA3F1010302D1B2
:1050F0004FF0004010BD4A6B02F045000028F3D08D
:1051000002F400600028EFD1486B00F0040010B1F9
:1051100004208863EEE7C52088630020EAE70000EA
:1051200004C301202DE9F04304460F4690462A4867
:105130000068C0084FF47A71B0FBF1F041F2883199
:1051400000FB01F900BFB9F10000A9F1010903D189
:105150004FF00040BDE8F083666B06F04500002884
:10516000F1D006F400600028EDD1606B00F004007F
:1051700010B10420A063EDE7606B00F0010010B1F6
:105180000120A063E6E72046FFF787FCB84201D084
:105190000120DFE7C520A06300212046FFF786FC41
:1051A000054605F4604020B9280CA8F8000000204E
:1051B000D0E705F48040B0F5804F02D14FF40050A5
:1051C000C8E705F40040B0F5004F02D14FF480501D
:1051D000C0E74FF48030BDE704C3012010B501469D
:1051E00018480068C0084FF47A74B0FBF4F041F23C
:1051F000883400FB04F300BF181EA3F1010302D1A1
:105200004FF0004010BD4A6B02F045000028F3D07B
:1052100002F400600028EFD1486B00F0040010B1E8
:1052200004208863EEE7486B00F0010010B1012014
:105230008863E7E7486B00F0400008B140208863CE
:105240000020DFE704C3012010B504460120074910
:105250000870FBF7EBFA28B90448007820F0010049
:10526000024908700148007810BD000008C3012001
:1052700070B50546AC6B40F23A5021688863204611
:10528000FDF76BFD0646012084F834000020206302
:10529000062E01D0052E05D12068FFF799FDA16BE0
:1052A0000843A063A06B18B92046FDF759FC02E043
:1052B0002046FDF75AFC70BD70B50546AC6B40F258
:1052C0003A50216888632046FDF747FD06460120D5
:1052D00084F8340000202063062E01D0052E05D16D
:1052E0002068FFF775FDA16B0843A063A06B18B998
:1052F0002046FDF735FC02E02046FDF736FC70BD88
:1053000030B58FB00446012003902068FFF7C9FB39
:1053100018B94FF080600FB030BD606C03281BD00F
:105320002068FFF7EAFC05460DB12846F3E70021A7
:105330002068FFF7BBFB606704212068FFF7B6FB1E
:10534000A06708212068FFF7B1FBE0670C21206807
:10535000FFF7ACFB80210851606C032807D003A93C
:105360002068FFF718FD05460DB12846D3E7606CAD
:10537000032820D0BDF80C1021655022125B1104C7
:105380002068FFF7D3FC05460DB12846C3E700218E
:105390002068FFF78BFB606604212068FFF786FB1F
:1053A000A06608212068FFF781FBE0660C212068D9
:1053B000FFF77CFB206704212068FFF777FB010DD6
:1053C000E16404A92046FDF7D1FB10B14FF08050F5
:1053D000A1E75020005B01040A4600232068FFF784
:1053E0006FFC05460DB1284695E7D4E90412A06983
:1053F000CDE90012029094E80F00FFF765FB002052
:1054000089E70000F8B50446002000900026002738
:105410002068FFF7EDFB05460DB12846F8BD206872
:10542000FFF7FCFB054645B10021A1642068FFF7AA
:10543000DFFB05461DB12846F0E70121A164A06C01
:10544000012808D100212068FFF77BFB054615B134
:105450004FF08050E2E71DE000212068FFF771FB6C
:1054600005460DB12846D9E718492068FFF786FBA5
:10547000054615B14FF08050D0E700212068FFF7B6
:1054800015FB0646012080EAD67080F001070098DF
:10549000401C00904FF6FF710098884201D2002F07
:1054A000DAD04FF6FF710098884202D34FF0807037
:1054B000B4E706F08040B0F1804F02D10120606473
:1054C00001E0002060640020A8E70000000010C197
:1054D0002DE9F0410546AC6AEF6AE7B14FF00008EC
:1054E00014E02868FFF70FFB06462670641C7F1E39
:1054F000300A2070641C7F1E300C2070641C7F1EDC
:10550000300E2070641C7F1E08F10108B8F1080FEE
:10551000E7D3AC62EF62BDE8F08170B504460D469A
:1055200015B94FF0006070BD5022125B1104206865
:10553000FFF715FC06460EB13046F4E7002120685F
:10554000FFF7B4FA28600020EDE7F8B505462C6AAD
:105550006E6A1EB300271DE020780090641C761E42
:105560002078009941EA00200090641C761E207883
:10557000009941EA00400090641C761E2078009952
:1055800041EA00600090641C761E69462868FFF7B7
:10559000D2FA7F1C082FDFD32C626E62F8BD0000A8
:1055A00010B50446012006490870FBF74BF920B9F5
:1055B0002046FFF749FE024908700148007810BDF7
:1055C00008C30120F0B589B007460D4614460126F0
:1055D0001648007800F0010010B1032009B0F0BDBA
:1055E00035B1012D06D0022D0BD0032D18D10FE0BF
:1055F000002617E001A8FBF70FF9079820600026A6
:1056000010E001A8FBF708F908982080002609E0BF
:1056100001A8FBF701F90898400A2060002601E084
:10562000042600BF00BF3046D8E7000008C30120B1
:105630002DE9F04180460C4615461E460127BB1E4B
:10564000324629462046FBF713F928B900BFFBF77D
:10565000EDF80028FBD100273846BDE8F08110B5F1
:1056600004462046FFF7F0FD10BD2DE9F0418046CD
:105670000C4615461E460127BB1E324629462046CB
:10568000FBF710F928B900BFFBF7D0F80028FBD1D1
:1056900000273846BDE8F081704710B5FCF7F8FDEB
:1056A00010BD000000B593B0302107A8FAF7CAFF7B
:1056B000142102A8FAF7C6FF00BF00200190254878
:1056C000006840F08050234908600846006800F0F8
:1056D0008050019000BF00BF00BF002001901E4815
:1056E000006840F480401C4908600846006800F4E7
:1056F0008040019000BF00BF0220079001200A9067
:1057000010200B9002200D9000210E9108210F9186
:10571000A8211091022111910721129107A8FCF7ED
:10572000D1FF08B1FBF7CAFD0F20029002200390C1
:10573000002004904FF4A05005904FF48050069044
:10574000052102A8FCF77EFE08B1FBF7B7FD13B0F8
:1057500000BD00004038024000700040034800686F
:1057600040F47000014908607047000088ED00E0D7
:1057700010B50248FEF7CBFB10BD0000C0C50120EC
:1057800010B50348FEF7C3FB0248FEF7C0FB10BD8F
:1057900050C6012098C6012010B502682B4B9842D4
:1057A0000ED0B0F1804F0BD0294B984208D0294B36
:1057B000984205D0284B984202D0284B984203D1FA
:1057C00022F070024B681A43204B984220D0B0F16F
:1057D000804F1DD01E4B98421AD01E4B984217D0B6
:1057E0001D4B984214D01D4B984211D01C4B98422F
:1057F0000ED01C4B98420BD01B4B984208D01B4B31
:10580000984205D01A4B984202D01A4B984203D1C5
:1058100022F44072CB681A4322F080034C6943EAB9
:1058200004028B68C3620B688362084B984202D003
:105830000A4B984201D10B690363036843F00403E8
:10584000036001234361026010BD000000000140BD
:105850000004004000080040000C0040000401402B
:105860000040014000440140004801400018004051
:10587000001C00400020004030B501F01F0501244D
:1058800004FA05F3046A9C430462046A01F01F05EC
:1058900002FA05F52C43046230BD30B50C46816830
:1058A00021F47F4142EA032525432943816030BD2D
:1058B0000A46816821F0700142F0070319438160B4
:1058C0007047000030B5026A056A25F001050562DF
:1058D0004368846924F0700424F003040D682C43A9
:1058E00022F002028D682A43104DA84200D103E045
:1058F0000F4DA84206D100BF22F00802CD682A430E
:1059000022F00402094DA84202D0094DA84207D155
:1059100023F4807323F400734D692B438D692B436B
:10592000436084614D684563026230BD0000014000
:105930000004014030B5026A056A25F010050562D1
:105940004368846924F4E04424F440740D6844EA14
:10595000052422F020028D6842EA0512124DA84269
:1059600000D103E0114DA84207D100BF22F0800210
:10597000CD6842EA051222F040020B4DA84202D047
:105980000A4DA84209D123F4806323F400634D69D2
:1059900043EA85038D6943EA8503436084614D686A
:1059A0008563026230BD0000000001400004014038
:1059B00030B5026A056A25F4807505624368C469DA
:1059C00024F0700424F003040D682C4322F40072C8
:1059D0008D6842EA0522124DA84200D103E0114D24
:1059E000A84207D100BF22F40062CD6842EA052236
:1059F00022F480620A4DA84202D00A4DA84209D181
:105A000023F4805323F400534D6943EA05138D6951
:105A100043EA05134360C4614D68C563026230BD4B
:105A2000000001400004014030B5036A056A25F416
:105A3000805505624468C26922F4E04222F4407253
:105A40000D6842EA052223F400538D6843EA0533CA
:105A5000084DA84202D0084DA84204D124F4804445
:105A60004D6944EA85144460C2614D68056403626F
:105A700030BD0000000001400004014030B50B467D
:105A80001446026A056A25F001050562816921F064
:105A9000F00141EA041122F00A021A438161026214
:105AA00030BD30B50B461446026A056A25F0100574
:105AB0000562816921F4704141EA043122F0A002BB
:105AC00042EA03128161026230BD00002DE9F84F05
:105AD00004462068006920F44050E16808432168CA
