:020000040800F2
:1000000020EC012071030008BD8000085D78000825
:10001000B9800008190E000889A700080000000038
:100020000000000000000000000000007D02000849
:10003000312B000800000000D90200086598000874
:100040008B0300088B0300088B0300088B03000858
:100050008B0300088B0300088B0300088B03000848
:100060003F2B0008492B0008532B00088B03000886
:100070008B0300088B0300088B0300088B03000828
:10008000910E0008A10E00088B0300088B030008E6
:100090008B0300088B0300088B0300085D2B00080E
:1000A0008B0300088B0300088B0300088B030008F8
:1000B0008B030008659900088B0300088B03000878
:1000C0008B0300088B0300088B0300088B030008D8
:1000D0008B0300088B0300088B0300088B030008C8
:1000E000332B00088B0300088B0300088B030008E8
:1000F0008B030008859900088B0300088B03000818
:100100008B030008C58500088B0300088B030008DB
:100110008B0300088B0300088B0300087599000807
:100120008B0300088B0300088B030008B10E000846
:100130008B0300088B0300088B0300088B03000867
:100140008B0300088B0300088B0300088B03000857
:100150008B030008C10E00088B0300088B03000806
:100160008B0300088B0300088B0300088B03000837
:100170008B0300088B0300088B03000800000000BD
:100180008B0300088B03000800F002F800F066F80B
:100190000AA090E8000C82448344AAF10107DA45E2
:1001A00001D100F05BF8AFF2090EBAE80F0013F0CE
:1001B000010F18BFFB1A43F001031847480B010059
:1001C000780B01000A444FF0000C10F8013B13F0CB
:1001D000070408BF10F8014B1D1108BF10F8015BA0
:1001E000641E05D010F8016B641E01F8016BF9D193
:1001F00013F0080F1EBF10F8014BAD1C0C1B09D1EA
:100200006D1E58BF01F801CBFAD505E014F8016B5B
:1002100001F8016B6D1EF9D59142D6D370470000ED
:100220000023002400250026103A28BF78C1FBD8FF
:10023000520728BF30C148BF0B607047642900F0E7
:10024000BB81732900F05B84002070471FB50FF05D
:1002500065FA00F002FA1FBD10B510BD00F0BAFC3F
:100260001146FFF7F3FF0CF00FFB00F0D8FC03B4CE
:10027000FFF7F2FF03BC00F0DBFC00002C4B196819
:100280000868B0E8F04F80F30988BFF36F8F4FF034
:10029000000080F3118870470000000008480068E3
:1002A000006880F308884FF0000080F3148862B67D
:1002B00061B6BFF34F8FBFF36F8F00DF00BF00BF8A
:1002C00008ED00E0DFF80C00016841F47001016006
:1002D000704700BF88ED00E0EFF30980BFF36F8F38
:1002E000134B1A681EF0100F08BF20ED108A20E98A
:1002F000F04F106009B44FF0500080F31188BFF345
:100300004F8FBFF36F8F0DF045FE4FF0000080F36D
:10031000118809BC19680868B0E8F04F1EF0100F8A
:1003200008BFB0EC108A80F30988BFF36F8F704765
:10033000B0C30120EFF30580704700000B49D1F8EE
:1003400000C04A685CF8043B1068184442F8040B8B
:100350008C4528BFA1F1DC0C8A4228BFA1F1DC0248
:10036000C1F800C04A6020F000407047B8E50120A5
:100370000948804709480047FEE7FEE7FEE7FEE739
:10038000FEE7FEE7FEE7FEE7FEE7FEE70448054975
:10039000054A064B70470000519900088901000882
:1003A00020E6012020EC012020E8012020E80120A7
:1003B00053EA020C00F069802DE9F04B4FF0000683
:1003C000002B1FBFB3FA83F503FA05F424FA05F6F0
:1003D0005E4012BF1643B2FA82F502FA05F4C5F187
:1003E00020051EBF22FA05FC44EA0C04203556EA1B
:1003F000044C4FEA144418BF641C4FF000084FF03F
:100400000009904271EB030C39D3002919BFB1FAEE
:1004100081F701FA07F6B0FA80F700FA07F6C7F19C
:1004200020071EBF20FA07FC46EA0C062037B6FB61
:10043000F4FCA7EB0507103F07F01F0BCBF12006DC
:100440000CFA0BFB2CFA06F644BFB3460026202F0D
:10045000A4BF5E464FF0000B5BEA060C08BF4FF0EE
:10046000010B19EB0B09ABFB027C48EB0608C01B28
:1004700006FB02CC0BFB03CC71EB0C01C1E70B4676
:10048000024641464846BDE8F08B13B54FF00000E8
:100490004FF00001AFF30080BDE81C407047000042
:1004A0000FB41CB5074B06AA7B446946009005981B
:1004B00000F0F3FA0020694600F002FB1CBC5DF876
:1004C00014FB0000150600000FB41CB50C0007AAB1
:1004D000009001D02044401E074B7B4469460190A8
:1004E000069800F0DAFA002C03D06946002000F0EC
:1004F000E7FA1CBC5DF814FBED0500002DE9F041A6
:100500000E460446002020622046E168884730B34A
:10051000252805D0D4E901219047206A401CF2E744
:10052000E168204600278847050018D0A5F1410062
:10053000192802D820354FF4006732462946204654
:100540002760FFF77BFE40B1012804D0F61D26F09E
:1005500007060836D8E7361DD6E72846DAE7206AC8
:10056000BDE8F08170B50C460546012A05D0287813
:10057000800600D5EA69002302E0012305E05B1C48
:10058000934202D2E05C0028F9D1A869E618C01AAB
:10059000A861286A184428622846AFF3008004E066
:1005A000D5E9012114F8010B9047B442F8D328464D
:1005B000AFF3008070BD00002DE9F0410646002435
:1005C00010687529314616A510D0AFF300800028B9
:1005D00002DA404213A507E031688A0701D512A567
:1005E00002E0490704D511A5012401E0AFF3008022
:1005F00000210A2206F1240709E0B0FBF2FCB0FB5F
:10060000F2F302FB1C00303078541846491C0028D5
:10061000F3D123462A463046BDE8F04100F0DFB969
:10062000000000002D0000002B0000002000000052
:100630000B4910B5A1F17C020A4CC2E937123721EF
:1006400006E000EB104342F82130074B00FB03406B
:100650000B1EA1F10101F4DC10BD0120E8E7000050
:1006600058E50120E119D666CD0D010030B50546EB
:100670000B462A4613F8014B12F8010B08B1A042B1
:10068000F8D01CB1002802D06D1CF1E7284630BD1F
:1006900040EA0103024630B59B0710D14FF0013408
:1006A00000E008C208C91D1B9D4315EAC41FF8D00D
:1006B00013F0FF0102F8011B0DD01B0AF8E711F837
:1006C000013B002B02F8013B05D011F8013B002B48
:1006D00002F8013BF3D130BD10B5431C02E010F825
:1006E000011B71B18107FAD14FF0013202C88C1A97
:1006F0008C4314EAC211F9D0C01A0A0603D0C01EF6
:1007000010BDC01A10BD0A0401D0801E10BD090220
:10071000FCD0401E10BD40EA010370B59B072ED1EE
:100720004FF00136042A2AD308C810C99D1B9D43E7
:10073000121F15EAC61517D0D8B2E1B2401A50EA16
:10074000056110D198B2A1B2401A50EA05410AD110
:1007500023F07F4024F07F41401A50EA052102D166
:10076000180EA0EB146070BDA342DBD018BA21BAFA
:10077000884201D9012070BD4FF0FF3070BD0AB929
:10078000002070BD10F8013B11F8014B63B1A3428A
:100790000AD1521E08D010F8013B11F8014B1BB1D1
:1007A000A34201D1521EEDD1181B70BD032A40F2A5
:1007B000308010F0030C00F0158011F8013BBCF103
:1007C000020F624498BF11F801CB00F8013B38BF1B
:1007D00011F8013BA2F1040298BF00F801CB38BF29
:1007E00000F8013B11F0030300F06780083AC0F005
:1007F000088051F8043B083A51F804CBA0E80810EF
:10080000F5E7121D5CBF51F8043B40F8043BAFF321
:100810000080D20724BF11F8013B11F801CB48BF7B
:1008200011F8012B24BF00F8013B00F801CB48BFB1
:1008300000F8012B7047431A28BF9A427FF6B6AFE3
:10084000032A1044114440F2268010F0030F1EBF0B
:1008500011F8013D521E00F8013D10F0030F7FF426
:10086000F6AF11F0030300F06181083AC0F00B808D
:1008700051F8043D083A51F804CD40F8043D40F8E1
:1008800004CDFFF7F3BF121D5CBF51F8043D40F8E3
:10089000043DAFF30080D20724BF11F8013D11F8E9
:1008A00001CD48BF11F8012C24BF00F8013D00F82C
:1008B00001CD48BF00F8012C704710B5203AC0F0B8
:1008C0000B80B1E81850203AA0E81850B1E8185051
:1008D000A0E81850BFF4F5AF5FEA027C24BFB1E88E
:1008E0001850A0E8185044BF18C918C0BDE81040FF
:1008F0005FEA827C24BF51F8043B40F8043B08BF08
:100900007047D20728BF31F8023B48BF11F8012BCE
:1009100028BF20F8023B48BF00F8012B70474FF07A
:10092000000200B5134694469646203922BFA0E83F
:100930000C50A0E80C50B1F12001BFF4F7AF09074B
:1009400028BFA0E80C5048BF0CC05DF804EB89003C
:1009500028BF40F8042B08BF704748BF20F8022B7F
:1009600011F0804F18BF00F8012B704710B50446F6
:1009700010F0030F08BF11F0030F40F015804FF087
:10098000013E121FC0F20E8051F8043BA3EB0E0C87
:100990002CEA030C1CEACE1C08BF40F8043BF0D044
:1009A000A1F1040102F10402521E08DB11F8013B1F
:1009B000002B00F8013BF7D1114600F0E1F820468A
:1009C00010BD70477047704710B500F0FBF8006825
:1009D00010BD10B5044600F0F5F8046010BD2DE917
:1009E000F0470D4699469246044600F124080168F6
:1009F000880604D5E06921F01001216000E00120A3
:100A0000A84201DD471B00E00027A1697A1902EB2B
:100A10000900081AA0612078C00602D42046AFF36E
:100A20000080002608E0D4E901211AF8060090476A
:100A3000206A401C761C20624E45F4DB2078C006FC
:100A40000AD52046AFF3008006E0D4E9012130202A
:100A50009047206A401C2062381EA7F10107F4DC91
:100A600007E0D4E9012118F805009047206A401CEE
:100A70002062281EA5F10105F3DC2046AFF30080BB
:100A80002078000602D50220BDE8F0870120FBE7B0
:100A900001694A1C02610878704700B58FB0CDE942
:100AA00001310021059105497944CDE90310114632
:100AB0006846FFF723FD0FB000BD0000E5FFFFFF14
:100AC0000A6802F8010B0A607047D1E900239A42D4
:100AD00002D2531C0B601070704710B5436913B1FC
:100AE000AFF3008001E0FFF73DFD012010BD12785B
:100AF00000F124010A7000224A700122EDE711681A
:100B00004FF0FF32E9E7431A28BF9A427FF6D5AE8D
:100B1000104410F0030F11441EBF11F8013D521E86
:100B200000F8013D10F0030F7FF4F6AF103AC0F06B
:100B30000A8010B531E91850103A20E91850BFF476
:100B4000F9AFBDE81040530724BF31E9081020E990
:100B5000081044BF51F8043D40F8043D12F0030F63
:100B600008BF7047D20728BF31F8023D48BF11F8CF
:100B7000012C28BF20F8023D48BF00F8012C704727
:100B80004FF000020429C0F0128010F0030C3FF473
:100B9000C8AECCF1040CBCF1020F18BF00F8012B59
:100BA000A8BF20F8022BA1EB0C01FFF7BABE5FEA49
:100BB000C17C24BF00F8012B00F8012B48BF00F8CE
:100BC000012B704700487047C0E50120004870477E
:100BD000C0E501207546FFF7F9FFAE4605006946FE
:100BE000534620F00700854618B020B5FFF7CEFB2E
:100BF000BDE820404FF000064FF000074FF000081E
:100C00004FF0000B21F00701AC46ACE8C009ACE89E
:100C1000C009ACE8C009ACE8C0098D46704710B502
:100C20000446AFF300802046BDE81040FFF71FBB2D
:100C300001491820ABBEFEE7260002007047000005
:100C400008B500BF3948007800286BD038480768DD
:100C500038480068B84203D336480068C61B04E031
:100C600034480068381AC0F58046B6F5005F55D2A2
:100C70004FF480542F480068C0F58045AC422BD912
:100C80002D4800682B4A126881186B462A462B486B
:100C90000AF0CBFF80460098A84206D201202849DE
:100CA0000870002021490870CCE7621B6B4622487F
:100CB000016822480AF0B9FF8046601B009988420B
:100CC00006D901201E490870002018490870B9E7AC
:100CD000601B1849086020E017480068154A126830
:100CE00081186B46224615480AF09FFF80460098FF
:100CF000A04206D201201249087000200B4908705A
:100D0000A0E70C48006820440A49086008460068CB
:100D1000B0F5804F01D30020086000BF02200BF027
:100D200072FE02E064200BF06EFE8BE774C00120BF
:100D300068C001206CC0012060C00120D851012092
:100D4000F8C201207047000010B504462146024851
:100D500005F018FA10BD0000ECDF012010B50448C2
:100D600005F023FA042801D0012010BD0020FCE783
:100D7000ECDF012010B5002400F00CF8012801D0B0
:100D8000012010BD024805F031FB04462046F8E77B
:100D9000ECDF012008B5012000909DF8000008BD9F
:100DA0002DE9F04104460D461646002733462A46F3
:100DB0002146044805F052FC00B101273846BDE841
:100DC000F0810000ECDF012010B500220121024873
:100DD00000680BF09FFE10BD9CC301202DE9F0417F
:100DE00004460D461646002733462A462146044847
:100DF00005F0E6FC00B101273846BDE8F0810000AF
:100E0000ECDF012010B500220221024800680BF03F
:100E100081FE10BD9CC3012000BFFEE770B50446F3
:100E2000A56B284603F00EFD0120287170BD70B53A
:100E30000446A56B284603F0CBFC0120287170BD49
:100E400070B50546AC6B206940F004002061204677
:100E500003F0FAFC0120207170BD70B50546AC6B43
:100E6000206940F004002061204603F0B3FC01201B
:100E7000207170BD70B50446A56B284603F0E3FCF5
:100E800070BD70B50446A56B284603F0A2FC70BD8A
:100E900010B5024803F01CFF10BD0000D8DE012091
:100EA00010B5024803F014FF10BD000038DF012028
:100EB00010B5024803F00CFF10BD000070E00120E7
:100EC00010B5024803F004FF10BD0000D0E001207F
:100ED0000146087810381823B0FBF3F20848805C0C
:100EE000C865032A05D908686FF30900001D8865E5
:100EF00003E008686FF309008865886D704700009B
:100F000060070108014600208A6A8B69CBB932B1BB
:100F1000012A0DD0022A03D0032A10D10EE000BF0F
:100F2000CB6A03F08073B3F1807F00D1012007E02A
:100F3000CB6AB3F1C07F00D1012001E000E000BF27
:100F400034E08B69B3F5005F1AD132B1012A07D0C2
:100F5000022A03D0032A11D10AE000BF01200EE0CB
:100F6000CB6A03F08073B3F1807F00D1012006E0EB
:100F7000CB6AB3F1C07F00D1012000E000BF15E0D3
:100F800032B1012A05D0022A04D0032A0CD103E091
:100F900000BF00BF012008E0CB6A03F08073B3F10B
:100FA000807F00D1012000E000BF00BF704730B556
:100FB0000468246824F4802405682C600468636055
:100FC0008468402C04D10468A2600468E16003E0F6
:100FD0000468A1600468E26030BD000070B503469B
:100FE0000C464FF0FF3100200AE000EBC00505EB96
:100FF00000151B4E16F825500DB9014602E0401CA5
:101000002828F2DB00BF002901DA002070BD032090
:1010100001EBC10505EB0115114E06EB8505687066
:1010200001EBC10000EB0110354605EB8000436089
:1010300001EBC10000EB011005EB8000846001EBC7
:10104000C10000EB011005EB8000C260012001EB44
:10105000C10505EB011506F8250000BFD6E7000025
:1010600000000120F0B504460D464FF0FF3100208E
:101070000AE000EBC00606EB00161E4F17F82660CC
:101080000EB9014602E0401C2828F2DB00BF00290F
:1010900001DA0020F0BD012001EBC10606EB0116CC
:1010A000144F07EB8606707001EBC10000EB0110D6
:1010B0003E4606EB8000446001EBC10000EB0110EE
:1010C00006EB8000856001EBC10000EB011006EB30
:1010D0008000C26001EBC10000EB011006EB800054
:1010E0000361012001EBC10606EB011607F826009B
:1010F00000BFCFE700000120F0B504460D464FF0D9
:10110000FF3100200AE000EBC00606EB00161E4F80
:1011100017F826600EB9014602E0401C2828F2DBD1
:1011200000BF002901DA0020F0BD022001EBC1065A
:1011300006EB0116144F07EB8606707001EBC10039
:1011400000EB01103E4606EB8000446001EBC1005D
:1011500000EB011006EB8000856001EBC10000EBA5
:10116000011006EB8000C26001EBC10000EB011032
:1011700006EB80000361012001EBC10606EB0116BE
:1011800007F8260000BFCFE7000001202DE9FF4F40
:1011900083B081460E469246DDF840804FF0FF3422
:1011A00000200AE000EBC00101EB00116D4A12F8CB
:1011B000211009B9044602E0401C2828F2DB00BFD8
:1011C000002C04DA4FF0FF3007B0BDE8F08F0020AC
:1011D00004EBC40101EB0411624A02EB8101487087
:1011E00004EBC40101EB041102EB8101081D3F2255
:1011F0004946FFF7BBFB002104EBC40000EB0410E1
:10120000584A02EB800080F8431004EBC40000EB66
:101210000410114601EB8000C0F844A004EBC401A7
:1012200001EB041102EB81010698886404EBC40011
:1012300000EB0410114601EB8000A0F84C8004EB99
:10124000C40101EB041102EB81011198A1F84E00D9
:1012500004EBC40000EB0410114601EB8000A0F881
:101260005060002104EBC40000EB041002EB80008E
:10127000416504F0A7F804EBC40101EB0411394AFD
:1012800002EB810188654FF4805104EBC40000EB50
:10129000041002EB8000016600274FF0000B4AE0CB
:1012A00004EBC40000EB04102E4901EB8000001D8C
:1012B00010F80B5005B941E0202D09D14FF4FA6028
:1012C00008FB00F0642190FBF1F03044074430E06B
:1012D00028460CF055FA58B301AB02AA224801780F
:1012E0002248006809F0D8FD01200090412D01DB63
:1012F0005A2D07DD612D01DB7A2D03DD302D04DB56
:10130000392D02DC4FF40070009000990298484398
:101310000290DDE9001048430190DDE90101401A27
:1013200000FB08F0642190FBF1F03044074400BF5B
:1013300000BF0BF1010BBBF1400FB1DB00BF04EBB1
:10134000C40000EB0410074901EB8000C7650120D1
:1013500004EBC40101EB0411024A02F8210020B29F
:1013600032E70000000001200CC0012008C001206D
:1013700010B5002008E0002100EBC00202EB0012D3
:10138000044B03F82210401C2828F4DB00F04EF830
:1013900010BD0000000001200148006870470000F7
:1013A00038C0012001480068704700003CC001209F
:1013B000014800687047000040C0012070B5054634
:1013C000002426E004EBC40000EB0410134911F8DC
:1013D0002000E8B104EBC40000EB041001EB800036
:1013E0004078A8B904EBC40101EB04110B4A02EBED
:1013F0008101081D40222946FFF78DF940B904EB11
:10140000C40000EB0410054901EB8000406D70BD85
:10141000641C282CD6DB0020F9E700000000012026
:1014200010B50446FFF7A4FF10BD00002DE9F04FF2
:101430002DED048B93B0FE480078012806D100F012
:10144000EDFB13B0BDEC048BBDE8F08F0020F94933
:101450000860129000BF0BE000EBC00101EB00112F
:10146000F54A12F8211011B10121129102E0401C3D
:101470002828F1DB00BF129880B9002008E04FF463
:101480000061EE4A22F81010ED4A22F81010401CBC
:101490006428F4DB6420E74908608FE300248AE3D2
:1014A00004EBC40000EB0410E34911F8200000B97C
:1014B00080E304EBC40000EB0410DF4901EB800083
:1014C000407800287ED104EBC40000EB041001EB4F
:1014D0008000466C04EBC40000EB0411D64800EB1E
:1014E0008100806C119004EBC40000EB0411D24821
:1014F00000EB8100B0F84C7004EBC40000EB04106A
:10150000CD4901EB8000B0F84E00109004EBC40010
:1015100000EB041001EB8000406D0F9000200E9056
:1015200041E104EBC40000EB0410C34901EB80006F
:10153000001D0E99455C05B939E1202D11D14FF4FC
:10154000FA607843642190FBF1F104EBC40000EBF6
:101550000410B94A02EB8000B0F850000844064479
:101560001EE128460CF00CF900287DD00CAB0DAA2A
:10157000B4480178B448006809F08EFC4FF00108C7
:10158000412D01DB5A2D07DD612D01DB7A2D03DDB5
:10159000302D03DB392D01DC4FF400780D9800FB72
:1015A00008F00D900C9800FB08F00C90DDE90C01A0
:1015B000401A7843642190FBF1FB0F98301A0B908E
:1015C0000B9800E0F5E0584400280BDA04EBC40067
:1015D00000EB0410984901EB8000B0F8500058442B
:1015E0000644DDE00B98B0F5805F00DDDFE04FF0F2
:1015F0000009C3E09448006830F9390000FB08F0A6
:101600000A909148006800EBC900B0F9020000FBA5
:1016100008F009908C48006800EBC900B0F904009C
:1016200000FB08F008908848006800EBC900B0F99A
:10163000060000FB08F007900A987843642190FBAD
:10164000F1F081190D987843642290FBF2F0091AA9
:101650000F98081A0690109909984843642190FB46
:10166000F1F11198084400E099E00590089878435A
:10167000642190FBF1F081190D98784390FBF2F012
:10168000091A0F98081A0490109907984843642182
:1016900090FBF1F111980844039006990498401AC0
:1016A000029005990398A0EB010ADDED020AF8EE1D
:1016B000E00A20EEA01A00EE90AAF8EEE01A00EE82
:1016C00090AAF8EEE00A01EEA01AB0EE410A09F085
:1016D000FDF9BDEEC00A10EE100A052190FBF1F0F5
:1016E00001900198022801DA0220019000203FE0D9
:1016F000504B1B68B3F5804F00D33CE0029B434343
:10170000DDF804C093FBFCFC069B0CEB03010AFB19
:1017100000F3DDF804C093FBFCFC059B0CEB03021B
:10172000002900DA0021B1F5805F01DB40F6FF718E
:10173000002A00DA0022B2F5805F01DB40F6FF727A
:10174000DFF8F8C0DFF8ECE0DEF800E02CF81E105F
:10175000DFF8ECC0DFF8DCE0DEF800E02CF81E205B
:10176000344B1B685B1CDFF8CCC0CCF80030401C4D
:1017700001998842BCDD00BF09F1010931480078B8
:101780008145FFF637AF04EBC40000EB04102A4993
:1017900001EB8000B0F850005844064400BF00BF81
:1017A0000E98401C0E900E984028FFF6BAAE00BF6F
:1017B000FFE104EBC40000EB04101F4901EB8000C3
:1017C000407801287ED104EBC40000EB041001EB4B
:1017D0008000D0F8048004EBC40000EB041001EB9F
:1017E0008000D0F8089004EBC40000EB041001EB7B
:1017F0008000D0F80CA004EBC40000EB041001EB57
:101800008000D0F810B0AAEB0807ABEB090500EE9A
:10181000907AF8EEE00A20EEA01A00EE905AF8EE68
:10182000E01A00EE905AF8EEE00A01EEA01A0DE080
:1018300035C0012000C00120000001200000002070
:10184000008000200CC0012008C00120B0EE410A39
:1018500009F03CF9BDEEC00A10EE100A052190FB1C
:10186000F1F6022E00DA022600203FE0E349096883
:10187000B1F5804F00D33BE007FB00F191FBF6F19F
:101880004144DF4ADD4B1B6822F8131005FB00F1D1
:1018900091FBF6F14944DB4AD84B1B6822F8131040
:1018A000D749D64A126831F81210B1F5805F06DBCD
:1018B00040F6FF72D249D14B1B6821F81320D14961
:1018C000CE4A00E016E0126831F81210B1F5805FE0
:1018D00006DB40F6FF72CB49C84B1B6821F813208A
:1018E000C6490968491CC54A1160401CB042BDDDAB
:1018F00000BF5EE104EBC40000EB0410C24901EB41
:101900008000407802286ED104EBC40000EB041084
:1019100001EB8000466804EBC40000EB041001EB0F
:101920008000876804EBC40000EB041001EB80002A
:10193000D0F80CB004EBC40000EB041001EB800005
:10194000006911900796089706EB0B0009900A971B
:1019500006EB0B000B90119839180C910D9611980D
:1019600039180E910F961097002580E007A850F8BF
:101970003500069007A800EBC5004068059007A950
:10198000681C51F830000490681C01EBC0004068EE
:10199000039006990498A0EB010A05990398A0EB1F
:1019A000010800EE90AAF8EEE00A20EEA01A00EE80
:1019B000908AF8EEE01A00EE908AF8EEE00A01EE66
:1019C000A01AB0EE410A09F081F8BDEEC00A10EE8F
:1019D000100A052190FBF1F9B9F1020F01DA4FF07D
:1019E000020900203FE046E084490968B1F5804FD4
:1019F00000D33AE00AFB00F191FBF9F20699114499
:101A00007F4A7E4B1B6822F8131008FB00F191FB04
:101A1000F9F2059911447B4A784B1B6822F81310A0
:101A2000774A7649096832F81110B1F5805F05DB15
:101A300040F6FF71714B1B6822F8131071496F4A11
:101A4000126831F81210B1F5805F06DB40F6FF71C5
:101A50006C4A6A4B1B6822F8131068490968491CD4
:101A6000664A1160401C4845BEDD00BF6D1C042D58
:101A7000FFF67CAF9DE004EBC40000EB041062496C
:101A800001EB8000407803287ED104EBC40000EB1A
:101A9000041001EB8000D0F8048004EBC40000EBDC
:101AA000041001EB8000D0F8089004EBC40000EBB8
:101AB000041001EB8000C56828460DF030FC9FED56
:101AC000530B53EC102B0DF041FC0DF0F9FB0521ED
:101AD00090FBF1F60A2E00DA0A26002765E0474857
:101AE0000068B0F5804F00D361E000EE107AF8EEA8
:101AF000C00A00EE106AB8EEC01A80EE810ADFED6F
:101B0000450A20EE208AB0EE480A08F06FFEF0EE9B
:101B1000400A00EE105AB8EEC00A20EE800ABDEE70
:101B2000C00A10EE100A40443549344A126821F8C0
:101B30001200B0EE480A08F001FFF0EE400A00EE95
:101B4000105AB8EEC00A20EE800ABDEEC00A10EEB0
:101B5000100A48442B49294A126821F812002848E3
:101B60002649096830F81100B0F5805F06DB40F6C1
:101B7000FF702349214A126821F8120021481F49A9
:101B8000096830F8110000E013E0B0F5805F06DB73
:101B900040F6FF701B49194A126821F812001748D5
:101BA0000068401C154908607F1CB74297DD00BFE4
:101BB00000BF00BF641C282CFFF672AC0F48006801
:101BC000C8B10021144802F0E5FF1021124802F0CC
:101BD000E1FF002000900948094A002103680E48EF
:101BE00002F02AFF002000900448064A10210368F2
:101BF000094802F021FF00BF23E4000000C00120DB
:101C00000000002000800020000001201F85EB5113
:101C1000B81E1940DB0FC940C4DE01202DE9F04F8A
:101C20002DED028B93B0FE4805F022F80024FCE372
:101C300004EBC40000EB0410FA4911F8200000B9CD
:101C4000F4E304EBC40000EB0410F64901EB800060
:101C5000407800287ED104EBC40000EB041001EBB7
:101C60008000466C04EBC40000EB041001EB800024
:101C7000806C129004EBC40000EB041001EB8000B8
:101C8000B0F84C7004EBC40000EB041001EB8000D2
:101C9000B0F84E00119004EBC40000EB041001EB0F
:101CA0008000406D109000200F906EE104EBC400A6
:101CB00000EB0410DB4901EB8000001D0F99455C2F
:101CC00005B966E1202D11D14FF4FA607843642103
:101CD00090FBF1F104EBC40000EB0410D14A02EBDD
:101CE0008000B0F85000084406444BE128460BF051
:101CF00047FD00287ED00DAB0EAACB480178CB481B
:101D0000006809F0C9F84FF00108412D01DB5A2D98
:101D100007DD612D01DB7A2D03DD302D03DB392D4D
:101D200001DC4FF400780E9800FB08F00E900D983F
:101D300000FB08F00D90DDE90D10081A78436421CE
:101D400090FBF1F10C911098301A0B90DDE90B012A
:101D5000084400E01FE100280CDA04EBC40000EBAB
:101D60000410B04901EB8000B0F850100C98084402
:101D7000064407E10B98B0F5805F00DD09E14FF004
:101D80000009ECE0A948006830F9390000FB08F0D0
:101D90000A90A648006800EBC900B0F9020000FBF9
:101DA00008F00990A148006800EBC900B0F90400F0
:101DB00000FB08F008909D48006800EBC900B0F9EE
:101DC000060000FB08F007900A987843642190FB16
:101DD000F1F081190E987843642290FBF2F0091A11
:101DE0001098081A0690119909984843642190FBAD
:101DF000F1F100E0C5E01298084405900898784396
:101E0000642190FBF1F081190E98784390FBF2F079
:101E1000091A1098081A04901199079848436421E8
:101E200090FBF1F11298084403900698002801DA1B
:101E3000002006900698B0F5805F02DB40F6FF7048
:101E400006900598002801DA002005900598B0F565
:101E5000805F02DB40F6FF70059006990498401AF7
:101E6000029005990398A0EB010ADDED020AF8EE55
:101E7000E00A20EEA01A00EE90AAF8EEE01A00EEBA
:101E800090AAF8EEE00A01EEA01AB0EE410A08F0BE
:101E90001DFE6748D0ED000AF8EE600A20EE200A29
:101EA000DFED640A80EE201ABDEEC10A10EE10BA12
:101EB000BBF1020F01DA4FF0020BDDE9051040EA39
:101EC00001405D49096808625C48006850B1002023
:101ED000019002E00198401C01905849019809685E
:101EE0008842F7D3012036E0029B434393FBFBFC7F
:101EF000069B0CEB03010AFB00F393FBFBFC059B29
:101F00000CEB0302002900DA0021B1F5805F01DB50
:101F100040F6FF71002A00DA0022B2F5805F01DB93
:101F200040F6FF7241EA0243DFF80CC1DCF800C062
:101F3000CCF820306FF00103DFF8E4C0DCF800C01B
:101F4000CCF8103000BF364B1B681B6903F001034F
:101F5000002BF8D0401C5845C6DD09F10109324874
:101F600000788145FFF60EAF04EBC40000EB0410CF
:101F70002C4901EB8000B0F850100C98084406443E
:101F800000BF00BF0F98401C0F900F984028FFF62D
:101F90008DAE00BF5CE204EBC40000EB04102149ED
:101FA00001EB8000407801287DD104EBC40000EBF8
:101FB000041001EB8000476804EBC40000EB041040
:101FC00001EB8000D0F8088004EBC40000EB0410A3
:101FD00001EB8000D0F80CA004EBC40000EB04106F
:101FE00001EB8000D0F810B0AAEB0709ABEB0805B5
:101FF00000EE909AF8EEE00A20EEA01A00EE905A59
:10200000F8EEE01A00EE905AF8EEE00A01EEA01A9F
:10201000B0EE410A08F05AFD0548D0ED000A0FE085
:10202000A8E20120000001200CC0012008C001200E
:1020300040C001200000C842C4DE01203CC0012095
:10204000F8EE600A20EE200A5FED060A80EE201A04
:10205000BDEEC10A10EE106A022E00DA022647EA2F
:102060000840FE4909680862FD48006850B1002038
:10207000129002E01298401C1290F94912980968D7
:102080008842F7D301202FE009FB00F393FBF6F31E
:10209000D91905FB00F393FBF6F303EB0802B1F546
:1020A000805F03DB00E022E040F6FF71B2F5805F65
:1020B00001DB40F6FF7241EA0243DFF8A0C3DCF81F
:1020C00000C0CCF820306FF00103DFF898C3DCF8D3
:1020D00000C0CCF8103000BFE24B1B681B6903F056
:1020E0000103002BF8D0401CB042CDDDB0E104EB81
:1020F000C40000EB0410DC4901EB800040780228AA
:1021000076D104EBC40000EB041001EB80004768BB
:1021100004EBC40000EB041001EB8000D0F8088051
:1021200004EBC40000EB041001EB8000C0681290C7
:1021300004EBC40000EB041001EB80000069119077
:102140000797CDF82080129838440990CDF8288060
:10215000129838440B90119808EB00010C910D97E0
:10216000119808EB00010E910F97CDF84080079968
:102170000998401A08EE900A08990A98401A08EE41
:10218000100AF8EEE80A60EEA00AB8EEC81AF8EEF7
:10219000C81A41EE210AB0EE600A08F097FCB34875
:1021A000D0ED000AF8EE600A20EE200A5FED5F0A2B
:1021B00080EE201ABDEEC10A8DED060A06980228AF
:1021C00001DA0220069047EA0840A449096808623B
:1021D000A348006850B10020059002E00598401C1B
:1021E00005909F49059809688842F7D3002576E055
:1021F00078E007A850F835B000EBC50040680590BE
:1022000007A9681C51F830000490681C01EBC0005D
:10221000406803900498A0EB0B0A05990398A0EB83
:1022200001090DB9069E25E000EE90AAF8EEE00A3D
:1022300020EEA01A00EE909AF8EEE01A00EE909AC6
:10224000F8EEE00A01EEA01AB0EE410A08F03EFCFA
:102250008648D0ED000AF8EE600A20EE200A5FED15
:102260008B0A80EE201ABDEEC10A10EE106A022E13
:1022700000DA022601202FE00AFB00F393FBF6F3BD
:1022800003EB0B0109FB00F393FBF6FC059B0CEB46
:102290000302B1F5805F01DB40F6FF71B2F5805FAC
:1022A00001DB40F6FF7241EA0243DFF8B0C1DCF81F
:1022B00000C0CCF820306FF00103DFF8A8C1DCF8D3
:1022C00000C0CCF8103000BF664B1B681B6903F0E0
:1022D0000103002BF8D0401CB042CDDD6D1C042D55
:1022E00087DBB5E004EBC40000EB04105E4901EBB2
:1022F0008000407803287CD104EBC40000EB04107C
:1023000001EB8000D0F8049004EBC40000EB041053
:1023100001EB8000D0F808A004EBC40000EB04102F
:1023200001EB8000C56800EE105AB8EEC00ADFED80
:10233000500A60EE200A4D4890ED000AB8EE400ABF
:1023400020EE800A5FEDC50A80EE201ABDEEC10ABC
:1023500010EE106A0A2E00DA0A2609EB0508CDF8FD
:1023600048A0B8F5805F01DB40F6FF78129848EA94
:1023700000403A49096808623948006850B10020B5
:10238000119002E01198401C11903549119809688C
:102390008842F7D3012758E000EE107AF8EEC00A21
:1023A00000EE106AB8EEC01A80EE810ADFED310A45
:1023B00020EE200AB0EE408AB0EE480A08F016FA85
:1023C000F0EE400A00EE105AB8EEC00A20EE800A85
:1023D000BDEEC00A10EE100A48441190B0EE480A53
:1023E00008F0ACFAF0EE400A00EE105AB8EEC00A5F
:1023F00000E02DE020EE800ABDEEC00A10EE100ACB
:1024000000EB0A0B1198B0F5805F02DB40F6FF701D
:102410001190BBF5805F01DB40F6FF7B119840EA2D
:102420000B400E490968086201E013E011E06FF00B
:1024300001000C490968086100BF0A48006800698A
:1024400000F001000028F8D07F1CB742A4DD00BFD7
:1024500000BF641C282CFFF6EBAB0DE0C4DE0120AE
:102460003CC00120A8E201200000012040C0012062
:10247000C3F5C840DB0FC940034804F09BFC13B010
:10248000BDEC028BBDE8F08FA8E201200B4A106082
:1024900000220B4B1B689A6200EB8002142303EBB3
:1024A0008201B1F5803F01D34FF6FF7100BF044AAE
:1024B0001268D162024AD16000BF704738C0012063
:1024C000A8E2012001490860704700003CC00120DB
:1024D00000B90120014908607047000040C0012098
:1024E00010B504460A480470012C0FD10021094898
:1024F00002F050FB1021074802F04CFB0021054878
:1025000002F05BFA1021034802F057FA10BD0000F8
:1025100035C00120C4DE0120002818DB282816DA87
:1025200000EBC00202EB0012094B13F8222072B13B
:1025300000EBC00202EB001203EB8202527832B9C8
:1025400000EBC00202EB001203EB82025165704700
:102550000000012070B504460D46012C00DA01246C
:10256000FEF706FF18480480184805602003642120
:1025700090FBF1F61548006806EB800014490860EE
:102580001248006800F58050096890FBF1F011498D
:10259000087008460078282801DD282008700D48BA
:1025A0000078012802DA01200A49087000200A494F
:1025B000087007480068C0F580500849086000208E
:1025C0000749086070BD00001CC0012024C0012024
:1025D00020C0012034C0012028C0012030C00120CB
:1025E0002CC001202DE9F0478146FE48007808BB49
:1025F000FD480078F0B90120FB49087000204870C0
:102600000021F9484164F9480168F7488164F848B5
:102610000188F548A0F84C10F5480188F248A0F868
:102620004E10F448008881B2EF48A0F85010002006
:10263000ED4908714846FEF74FF806460027F4E1D9
:1026400019F807A0BAF10A0F7ED1E6480078401CBD
:1026500040B2E4490870084690F90000E64909785C
:1026600088424DDB002434E0601C00EBC00101EB2C
:102670000010DD4901EB8000407848BB002004EBEE
:10268000C40101EB0411D84A02EB81014870621CBD
:1026900002EBC20303EB0212D34B03EB8202111DC8
:1026A00004EBC40202EB041203EB8202101DFDF7DF
:1026B000EFFF601C00EBC00101EB0010CA4911F8EC
:1026C000200004EBC40101EB0411C74A02F8210009
:1026D000641CC9480078401EA042C5DC0021C648E1
:1026E0000078401E00EBC00202EB0010BE4A02EB75
:1026F00080000171C0480078401E40B2B94908709E
:102700000120B84991F9001001EBC10202EB01115F
:10271000B54A02F821000020B24991F9001001EBFE
:10272000C10202EB0111B04A02EB810148700021A5
:10273000AC4890F9000000EBC00202EB0010AA4A7E
:1027400002EB8000416400E04DE0A64890F90000F3
:10275000401CAA4909684843C0F58051A14890F936
:10276000000000EBC00202EB00109F4A02EB800069
:1027700081649F4801889B4890F9000000EBC002EB
:1027800002EB0010984A02EB8000A0F84C10984829
:102790000188944890F9000000EBC00202EB0010A1
:1027A000914A02EB8000A0F84E109248008881B256
:1027B0008C4890F9000000EBC00202EB00108A4A3E
:1027C00002EB8000A0F850100020864991F900101B
:1027D00001EBC10202EB0111834A02EB8101087196
:1027E0008749086020E1824800884FF4FA61484335
:1027F000642190FBF1F07F49096800EB01088048F3
:1028000000684044B0F5805F7EDD76480078401C6B
:1028100040B274490870084690F90000764909787A
:1028200088424DDB002434E0601C00EBC00101EB6A
:1028300000106D4901EB8000407848BB002004EB9C
:10284000C40101EB0411684A02EB81014870621C6B
:1028500002EBC20303EB0212634B03EB8202111D76
:1028600004EBC40202EB041203EB8202101DFDF71D
:102870000FFF601C00EBC00101EB00105A4911F87A
:10288000200004EBC40101EB0411574A02F82100B7
:10289000641C59480078401EA042C5DC00215648FF
:1028A0000078401E00EBC00202EB00104E4A02EB23
:1028B0008000017150480078401E40B249490870BC
:1028C0000120484991F9001001EBC10202EB01110E
:1028D000454A02F821000020424991F9001001EB1D
:1028E000C10202EB0111404A02EB81014870002154
:1028F0003C4890F9000000EBC00202EB00103A4A9D
:1029000002EB8000416400E04CE0364890F90000A2
:10291000401C3A4909684843C0F58051314890F954
:10292000000000EBC00202EB00102F4A02EB800017
:1029300081642F4801882B4890F9000000EBC00209
:1029400002EB0010284A02EB8000A0F84C10284847
:102950000188244890F9000000EBC00202EB00104F
:10296000214A02EB8000A0F84E102248008881B274
:102970001C4890F9000000EBC00202EB00101A4A5C
:1029800002EB8000A0F850100020164991F90010C9
:1029900001EBC10202EB0111134A02EB8101087144
:1029A000174908600F4991F9001001EBC10202EBD1
:1029B00001110D4A02EB8101081DFDF78DFE054650
:1029C0003F2D30DA074890F9000000EBC00101EB21
:1029D0000010054901EB8000001D00F805A0002251
:1029E00000480FE028C001200000012030C0012075
:1029F0001CC0012024C0012034C0012020C00120BF
:102A00002CC0012090F9000000EBC00101EB001088
:102A1000094901EB8000001D691C42540748006809
:102A200040440649086000BF7F1CB742FFF608AE6D
:102A3000FEF7FCFCBDE8F087000001202CC001205F
:102A400070B502F0BFFC04460025002068E000EBF2
:102A5000C00101EB0011354A12F8211000295ED0A7
:102A600000EBC00101EB001102EB81014978002964
:102A700055D100EBC00101EB001102EB8101CA6DE1
:102A800000EBC00101EB0011284B03EB8101096E43
:102A90008A4244DD00EBC00101EB00111A4602EB53
:102AA0008101896D611A322939D900EBC00101EB2E
:102AB000001102EB81018C6500EBC00101EB0011FC
:102AC00002EB8101496D1E3100EBC00202EB0012E6
:102AD00003EB8202516500EBC00101EB00111A46C5
:102AE00002EB81014A6D00EBC00101EB001103EB29
:102AF0008101C96D01F5FA718A420FDD00EBC00159
:102B000001EB00111A4602EB8101096E4A4200EB0B
:102B1000C00101EB001103EB81014A650125401C56
:102B2000282894DB0DB1FEF781FC70BD0000012068
:102B3000704710B54FF4005002F024FB10BD10B5E3
:102B4000042002F01FFB10BD10B5082002F01AFB94
:102B500010BD10B5102002F015FB10BD10B52020DF
:102B600002F010FB10BD000007E04FF400610348C5
:102B700002F018FC642002F08BFAF6E70004024031
:102B800030B504460D4600222946204600F002F8E2
:102B900030BD0000F0B50346012500241148407AFD
:102BA00001281CDA00200F4E767A0E4FB8553846B1
:102BB000467A001D40F82630001F467A08308255BC
:102BC0003E46707A461C7E72044604F1300008705E
:102BD0003A2048702F2088700020C87000252846B1
:102BE000F0BD0000A0E30120BAB006F0D5FC002043
:102BF00039902022F94931A8FDF75FFE00BF182265
:102C0000F64920312BA8FDF758FE00BF1422F349E6
:102C1000383126A8FDF751FE00BFF04A4C3207CAF2
:102C200023AB07C300BF002022902190401E2090BC
:102C30001F9000201E9000BF00BF00BFFEF798FB52
:102C400000BFE748007808B9FFF7FAFE4FF40061CB
:102C5000E44802F0A7FBE4480068406A80B21D9097
:102C6000E24909881D98401A00B21C90DF491D985E
:102C700008803998062802D107F09AFC6DE039984F
:102C8000072803D11C9807F039F966E0399808281D
:102C900003D1002007F02CFA5FE03998092803D10E
:102CA0001C9807F0E9FA58E039980A2803D1002067
:102CB00007F0B0FB51E039980E2817D11C98002876
:102CC0004BD0FEF769FB1C9908441A901A9800280B
:102CD00001DA00201A901A98B0F57A7F02DD4FF4DD
:102CE0007A701A901A98FFF7D1FB36E039980F28BE
:102CF00016D11C9888B3FEF755FB1C9908441A900E
:102D00001A98002801DA00201A901A98B0F57A7FF4
:102D100002DD4FF47A701A901A98FFF7D3FB1CE08B
:102D20003998102819D11C98B8B1FEF741FB1C99AD
:102D300001EB810100EB41001A901A980A2801DA90
:102D40000A201A901A98B0F57A7F02DD4FF47A7053
:102D50001A901A98FFF7BCFB00BF3998022833D1AC
:102D60001C98A8B1A24909881C9801EB40001A9050
:102D70001A98B0F5FA6F02DD4FF4FA601A901A98BB
:102D8000002801DA00201A9099491A98088000BF9B
:102D900098480078002816D006F028FD202296A139
:102DA0009848FDF7B8FC30B90020399006202290F1
:102DB00000201E9001E0012039904FF0FF3020905C
:102DC00000208C4908709FE03998042840D18E4833
:102DD00001681C9808448C490860084600681A90ED
:102DE000002801DB1A9801E01A9840420428EADB27
:102DF00085480068C117199000EB917080101A90F7
:102E0000824801681A980844804908607E491A98E7
:102E10000968A1EB80007C4908607C4800680028B4
:102E200002DA00207949086079480068401F774934
:102E30000968884204DA76480068401F73490860D0
:102E400072480068002802DA0020704908605BE0E0
:102E500039980E2858D039980F2855D0399810280D
:102E600052D0694801681C980844674908600846C0
:102E700000681A90002801DB1A9801E01A98404275
:102E8000042841DB60480068C117189000EB91707E
:102E900080101A901A992298084422905A491A9838
:102EA0000968A1EB80005849086000201990399802
:102EB00010B9082019901AE03998012802D03998E1
:102EC000032803D153480068199010E03998052869
:102ED00002D1062019900AE039980C2802D1052069
:102EE000199004E039980D2801D1032019902298F7
:102EF000002801DA0020229019992298884202DBEA
:102F00001998401E229000BF3998082813D14248D2
:102F1000006880B90421414802F03CFA1A901A98DE
:102F200028B93F480078012801D107F0E1F83C4971
:102F30001A98087000BF39980A2813D139480068D8
:102F400080B90421354802F025FA1A901A9828B958
:102F500035480078012801D107F05CFA32491A9807
:102F6000087000BF4FF40051304802F013FA0028F7
:102F70001DD1142009F047FD4FF400512B4802F0F9
:102F800009FA0028F4D13998082811D10520399080
:102F900000202290401E209002E00A2009F033FD1C
:102FA0004FF40051214802F0F5F90028F5D023E252
:102FB000399809283CD10520399000202290401EE4
:102FC000209002E00A2009F01EFD4FF4005117483E
:102FD00002F0E0F90028F5D00EE200000807010831
:102FE00075C001200004024060E2012070C301208E
:102FF00044C00120F8C2012077656C636F6D652EB7
:103000007761760098C6012074C3012004C30120B3
:1030100000C30120FCC2012040C301200010024077
:103020007CC3012054C301207DC30120000802405D
:1030300039980A2811D10520399000202290401E8D
:10304000209002E00A2009F0DEFC4FF40051FE4817
:1030500002F0A0F90028F5D0CEE102E00A2009F044
:10306000D2FC4FF40051F84802F094F90028F5D052
:10307000399800285ED1229858B9F4A006F0B8F922
:103080000120399000201E9022902190401E209017
:10309000B2E1229801280BD1EEA006F0A9F9012097
:1030A00039901E90002022902190401E2090A3E194
:1030B000229802280CD1E9A006F004FA03203990E6
:1030C00002201E90002022902190401E209093E12B
:1030D0002298032805D10B2039904FF0FF30209023
:1030E0008AE12298042807D10520399000202290F7
:1030F0002190401E20907FE12298052807D10C20C6
:103100003990002022902190401E209074E1229856
:103110000628A1D12022AFF22011D248FDF726FCCB
:10312000D1A005F00DF90220399001201E90801EDB
:10313000209061E139980C2830D1229840B90020C4
:1031400039900520229000202190401E209053E1CC
:103150002298012807D10D2039900020229021903B
:10316000401E209048E12298022805D10E20399077
:103170004FF0FF3020903FE12298032805D10F2027
:1031800039904FF0FF30209036E1229804288ED1FC
:10319000102039904FF0FF3020902DE139980D2804
:1031A00022D1229840B90C20399001202290002091
:1031B0002190401E20901FE12298012808D1002074
:1031C000AE490860FFF78CF94FF0FF30209013E113
:1031D0002298022884D10120A8490860FFF780F9CD
:1031E0004FF0FF30209007E139980E2808D10C20CD
:1031F00039900220229000202190401E2090FBE078
:1032000039980F2808D10C203990032022900020F3
:103210002190401E2090EFE03998102808D10C2012
:1032200039900420229000202190401E2090E3E05D
:103230003998012820D1229830B900203990229065
:103240002190401E2090D7E08D49229801EB40103C
:10325000202201461A908348FDF788FB1E9818B972
:10326000804804F0CBFF02E07E4805F069F80220B8
:103270003990C01E2090BFE03998032814D12298BD
:1032800030B90020399022902190401E2090B3E068
:103290007B49229801EB40101A9004F011FF0420A2
:1032A0003990401F2090A7E0399805284FD12298E7
:1032B00040B9002039900420229000202190401E27
:1032C000209099E02298012809D16EA006F020FAFA
:1032D00004F0BAFB06203990C01F20908CE02298A1
:1032E00002280AD169A006F013FA04F0B9FA0720FF
:1032F00039904FF0FF3020907EE0229803280AD1C9
:1033000065A006F005FA04F0E9FA082039904FF0BC
:10331000FF30209070E0229804280AD162A006F0C5
:10332000F7F904F019FB092039904FF0FF30209095
:1033300062E0229805285FD15DA006F0E9F904F06B
:1033400045FB0A2039904FF0FF30209054E0399827
:10335000022814D106F04AFA202245A14148FDF77F
:10336000DAF930B9002039900620229000201E9012
:1033700001E0012039904FF0FF3020903CE0399877
:10338000042804D103203990001F209034E039989C
:10339000062806D10520399000202290401E20905A
:1033A0002AE03998072806D105203990002022907C
:1033B000401E209020E03998082809D13E48006836
:1033C000D0B10520399000202290401E209013E0BB
:1033D0003998092809D13948006868B10520399021
:1033E00000202290401E209006E039980B2803D13F
:1033F00000203990401E209000201B900120304971
:103400000860399804280CD12E4800682E490968B4
:10341000884205D001201B902A4800682A4908608C
:1034200079E020992298884271D11F992198884289
:103430006DD1399802286AD03998062867D0399812
:10344000072864D0399841E0000802402F6D757359
:10345000696300002F766964656F00002F746578DA
:103460007400000098C601202F73797374656D2F66
:1034700077656C636F6D652E776176006CC3012094
:1034800018C40120534E414B4500000042524541B3
:103490004B4F555400000000464C415050592044B9
:1034A000524F494400000000524143494E4700003A
:1034B00052554E54494E590040C301204CC301207F
:1034C00078C3012004C3012080C3012008281ED036
:1034D000399809281BD039980A2818D039980B2810
:1034E00015D039980E2812D039980F280FD0399856
:1034F00010280CD0F848006801280CD1399805280C
:1035000005D039980C2802D039980D2803D1012014
:103510001B90F24908601B98002801F0228039981E
:10352000022802D11E980128F7D00020EC4908603B
:103530003998062802D1EB480068B8B939980728AD
:1035400002D1E948006888B93998082802D1E748CB
:10355000006858B93998092802D1E548006828B9A7
:1035600039980A2843D1E3480068A8B33998072856
:1035700007D1DD480068022803D1DFA005F004FF71
:1035800002E0DFA005F000FF3998062806D1DF48E9
:10359000DFA1026813A8FCF783FF24E0399807280D
:1035A00006D1DE48DAA1026813A8FCF779FF1AE019
:1035B0003998082806D1DA48D5A1026813A8FCF783
:1035C0006FFF10E03998092807D1D648D0A10268CA
:1035D00013A8FCF765FF06E009E0D348CCA1026818
:1035E00013A8FCF75DFF13A805F0CEFE52E0399852
:1035F00070B1399805280BD03998012808D039982E
:10360000032805D039980C2802D039980D2841D1CB
:1036100000201A901990399820B908201A9031A8E2
:1036200019901CE03998052804D106201A902BA87F
:10363000199014E039980C2804D105201A9026A876
:1036400019900CE039980D2804D103201A9023A872
:10365000199004E0B54800681A90B5481990002008
:10366000189012E018992198084417901A99179801
:10367000884200DB0CE01799199850F82100169049
:1036800005F082FE1898401C189018980528E9DB70
:1036900000BF00BFFDF76CFE39980B2876D10F20D4
:1036A000009040F6D863642211460190A1A0FDF776
:1036B0006DFD0421A24801F06DFE0246A1A1129009
:1036C00013A8FCF7EDFE0F2000904FF4486364222E
:1036D0001146019013A8FDF759FD1021984801F0FB
:1036E00059FE02469AA1129013A8FCF7D9FE0F20AA
:1036F00000904FF42F6364221146019013A8FDF748
:1037000045FD08218E4801F045FE024694A1129025
:1037100013A8FCF7C5FE0F2000904FF41663642237
:103720001146019013A8FDF731FD2021844801F0D6
:1037300031FE02468EA1129013A8FCF7B1FE0F20B5
:1037400000904FF4FA6364221146019013A8FDF72C
:103750001DFD8B4890F900208AA113A8FCF7A0FE5C
:103760000F2000904FF4AF6364221146019013A81C
:10377000FDF70CFD0A2000904FF4487364221146B7
:10378000019084A0FDF702FD10E3FFE739980E28B1
:1037900030D10F21009140F6AC53642201911146C3
:1037A00081A0FDF7F3FCFDF7F7FD024682A1129020
:1037B00013A8FCF775FE0F20009040F6C413642296
:1037C0001146019013A8FDF7E1FC0A20009040F299
:1037D000DC536422114601907AA0FDF7D7FC0A2041
:1037E00000904FF47A7364221146019069A0FDF7AE
:1037F000CDFCC9E739980F282FD1009040F6AC5383
:1038000064221146019075A0FDF7C0FCFDF7CAFDCA
:10381000024676A1129013A8FCF742FE0F200090FA
:1038200040F6C41364221146019013A8FDF7AEFCC4
:103830000A20009040F2DC5364221146019061A0FE
:10384000FDF7A4FC0A2000904FF47A73642211461D
:10385000019050A0FDF79AFC96E7399810283AD1CC
:103860000F20009040F6AC5364221146019062A0F4
:10387000FDF78CFCFDF79CFD024663A1129013A896
:10388000FCF70EFE0F20009040F6C4136422114690
:10389000019013A8FDF77AFC0A2000904FF4FA6318
:1038A0006422114601905CA0FDF770FC0A20009094
:1038B00040F2DC5364221146019042A0FDF766FC01
:1038C0000A2000904FF47A7364221146019031A0CF
:1038D000FDF75CFC58E7ABE06CC3012078C3012026
:1038E00068C3012014C301202CC3012040C3012060
:1038F0004CC3012054C30120594F552057494E0055
:1039000047414D45204F5645520000001CC3012041
:1039100053434F52453A20256400000024C3012040
:103920003CC3012048C3012050C30120FCC2012038
:1039300018C40120444542554720494E5055540073
:1039400000100240555028504532293A2025640085
:10395000444F574E28504534293A20256400000032
:103960004C45465428504533293A20256400000030
:10397000524947485428504535293A2025640000CB
:103980005DC0012047414D45204449523A202564FD
:10399000000000005B505245535320454E432054D5
:1039A0004F20455849545D004350552044524157DB
:1039B000205350454544000044454C41593A202588
:1039C000640000005B5455524E20454E4320544F36
:1039D0002041444A5553545D000000004350552097
:1039E0004A554D50204457454C4C00004457454CD7
:1039F0004C3A202564000000445241572044454E73
:103A0000534954590000000044454E534954593A13
:103A10002025642525000000283130303D4E4F52CE
:103A20004D2C203E3130303D534C4F572900000083
:103A3000399806287ED140F6FF731A4600210846C1
:103A4000FDF75AFBCC201A900020169038E01A9807
:103A5000129000EBD0704110FE4A169802EB400025
:103A600090F900201A9802FB001015901A981290F5
:103A700000EBD0704110F74A169802EB400090F925
:103A800001201A9802FB001014901A98129000EB73
:103A9000D07040100A381390139840001290139879
:103AA00040001190DDE91310401A10901598401A4B
:103AB0000F9010A90EC9FDF71FFB1698401C169019
:103AC000E549169809688842C1DB1A98169000EB00
:103AD000D0704110E14890F900201A9802FB0010C4
:103AE00019901A98169000EBD0704110DB4890F9AD
:103AF00001201A9802FB001018901A98169000EBFB
:103B0000D070401014381790DDE917100844169053
:103B10001998084415901898401A14901998401A4A
:103B2000139014A90EC9FDF79DFADDE91710401A8C
:103B3000169000E037E0199808441590189808444A
:103B400014901998401A139014A90EC9FDF78AFA17
:103B5000C348006830B30F20009040F6980300225D
:103B600064210190AFF26820FDF710FB1690AFF2D0
:103B70007021169804F0DCFCBA48BBA102680EA8BC
:103B8000FCF78EFC0F2000904FF4C86300226421E4
:103B900001900EA8FDF7FAFA0D900EA90D9804F009
:103BA000C7FC00BFF0E53998072869D140F6FF73DC
:103BB0001A4600210846FDF79FFAC8201A90AE4821
:103BC00000686423DA0018901A99FDF795FAAB485B
:103BD00040681890A94800683C2217901899FDF792
:103BE000FDF940F6B83019900020189088E00020C8
:103BF00017907EE0A249189801EBC0011798085C65
:103C0000E8B3179840021690189800EB4001C1EBFA
:103C1000C011199800EB410015904FF400701490FA
:103C2000FA201390189838B11898401E944901EB67
:103C3000C0011798085C48B9149916980844129066
:103C40000246159B19461698FDF70CFA1898042899
:103C500007D08B491898401C01EBC0011798085CED
:103C6000A0B913991598084412901499169808440D
:103C700011901399159808441090014601E035E021
:103C800095E0DDE911231698FDF7ECF9179838B1A6
:103C90007B49189801EBC0011798401E085C48B991
:103CA00013991598084403461290DDE91512104641
:103CB000FDF7D8F91798072807D07149189801EB34
:103CC000C0011798401C085C78B9139915980844EE
:103CD0001290149916980844119016980844109060
:103CE000DDE911231599FDF7BDF900BF1798401CB8
:103CF000179017980828FFF67DAF1898401C189069
:103D000018980528FFF673AF5E480068E8B35D4871
:103D10000068022811D10F20009040F6980300227D
:103D200064210190AFF23040FDF730FA0F90AFF20E
:103D300038410F9804F0FCFB11E00F20009040F692
:103D40009803002264210190AFF24C40FDF71EFA67
:103D50000F90AFF254410F9804F0EAFB00BF4A48BD
:103D600041A1026811A8FCF79BFB0F2000904FF4C3
:103D7000C86300226421019011A8FDF707FA109092
:103D800011A9109804F0D4FB10E0FFE73F4840A1D0
:103D9000026815A8FCF784FB0A20009064231A46E9
:103DA0001946019015A8FDF7F1F900BFC3E3399852
:103DB000082875D140F6FF731A4600210846FDF722
:103DC0009BF935480068502201461A904FF47A70EA
:103DD000FDF704F93048006896301A902E480068C4
:103DE0003C3019904FF4667201464FF470701A9B84
:103DF000FDF738F92848006896301A902648006880
:103E00003C3019904FF4876201464FF482601A9B50
:103E1000FDF728F900201A9061E020491A9801EB7B
:103E200000108068A8B11A9801EB00100068199082
:103E30001A9801EB0010406818904FF49670179094
:103E400040F2262016901699189808441590159857
:103E500027E041E058D6012008C301200CC301200F
:103E600014C301201CC3012053434F52453A20255F
:103E7000642020200000000020C3012048D701203A
:103E800020D701202CC3012024C3012028C30120F6
:103E90004C3A25640000000034C3012058D70120AB
:103EA0005EE0B0F5805F09DA1598C0F580500346F2
:103EB0001390179A15991998FDF71EF916991898E5
:103EC000401A14901498002805DD0021149B179ABD
:103ED0001998FDF711F900BF1A98401C1A901A980A
:103EE00003289ADBFE48006838B30F20009040F6A4
:103EF0009803002264210190AFF2FC50FDF746F9CF
:103F00001A90AFF204611A9804F012FBF548AFF270
:103F1000A801026812A8FCF7C3FA0F2000904FF422
:103F2000C86300226421019012A8FDF72FF91190B7
:103F300012A9119804F0FCFAFDE2EA48AFF2C4516C
:103F4000026817A8FCF7ACFA0F20009040F6D8637F
:103F50004FF4FA626421019017A8FDF717F9EAE21D
:103F6000399809287DD140F6FF731A46002108468A
:103F7000FDF7C2F8DC4800684FF4FA734FF496720C
:103F8000C8211A90FDF7B8F8D74800683238962350
:103F90003222FA211A90FDF7AFF8D348006800F5F5
:103FA000967096233222FA211A90FDF7A5F8CE4892
:103FB00000683238962332224FF4FA711A90FDF7D6
:103FC0009BF8C948006800F59670962332224FF49A
:103FD000FA711A90FDF790F800201A9055E0C34945
:103FE0001A9801EB00108068E0B31A9801EB0010FA
:103FF000406819901A9801EB001000684FF496730E
:104000001A4618901999FDF777F8B8491A9801EBF4
:104010000010406800F5967019901A9801EB001096
:10402000006800F5967018901A9801EB001040682F
:1040300017901A9801EB00100068169017A90EC986
:10404000FDF710F8A9491A9801EB00104068199083
:104050001A9801EB0010006800F5967018901A98F5
:1040600001E053E00EE001EB0010406800F59670AF
:1040700017901A9801EB00100068169017A90EC946
:10408000FCF7F0FF1A98401C1A901A980528A6DB36
:104090009748006838B30F20009040F6980300223C
:1040A00064210190AFF2A870FDF770F81A90AFF29A
:1040B000B0711A9804F03CFA8E48AFF254210268AD
:1040C00012A8FCF7EDF90F2000904FF4C86300220E
:1040D0006421019012A8FDF759F8119012A91198C6
:1040E00004F026FA27E28348AFF27071026817A83D
:1040F000FCF7D6F90F20009040F6AC534FF4FA626B
:104100006421019017A8FDF741F814E239980A28B4
:104110007ED140F6FF731A4600210846FCF7ECFFFB
:104120004FF4FA734FF4805219460020FCF79AFFBF
:10413000714800684FF49673C82201461A909000A7
:10414000FCF7DAFF6C480068B0F5FA7F4DD101F05A
:1041500039F9C821B0FBF1F201FB1200642803D247
:1041600000206649086002E0012064490860634855
:104170000068E0B16048006832381A905E48006814
:10418000199040F25232014610461A9BFCF76AFF22
:104190005948006832381A9057480068199040F220
:1041A000B632014610461A9BFCF75CFF1DE05248F0
:1041B000006832381A905048006819904FF45C72C9
:1041C00001464FF44D701A9BFCF74CFF4A480068BB
:1041D00032381A904848006819904FF466720146C8
:1041E0004FF475701A9BFCF73DFF00201A9018E001
:1041F0001A9800EB4000424901EB8000406868B12A
:104200001A9800EB400051F82000C823962200E0E5
:1042100048E04FF4FA711990FCF76EFF1A98401CB1
:104220001A901A980328E3DB3648006838B30F2049
:10423000009040F69803002264210190AFF64010F0
:10424000FCF7A4FF1A90AFF648111A9804F070F921
:104250002D48AFF2EC31026812A8FCF721F90F20CB
:1042600000904FF4C86300226421019012A8FCF76B
:104270008DFF119012A9119804F05AF95BE12248C0
:10428000AFF60811026817A8FCF70AF90F20009092
:1042900040F6AC534FF4FA626421019017A8FCF782
:1042A00075FF48E13998022853D10F20009040F65D
:1042B000AC5364221146019014A0FCF767FF0F2055
:1042C000009040F6B8336422114601901248FCF782
:1042D0005DFF1248028812A117A8FCF7E1F823E05D
:1042E00040C301203CC3012044C3012088D70120E2
:1042F0004CC3012048C30120D8D7012084C301202A
:10430000E4D7012054C3012050C30120504C41592F
:10431000494E473A0000000098C6012044C00120E1
:10432000564F4C3A202564000F2000904FF4FA635A
:1043300064221146019017A8FCF728FF0A2000907C
:104340004FF47A736422114601908CA0FCF71EFF93
:10435000F1E0399804282BD100201A9024E08B48F2
:1043600001681A980844199089491998096888427F
:1043700000DB1CE01A98C0EB001000EB800040F658
:10438000AC51A1EB001018901920009081490190C8
:10439000199851F82000179064223221189BFCF7DD
:1043A000F5FE1A98401C1A901A980328D7DBC2E031
:1043B00000201A9019901890399820B908201A9066
:1043C00031A819901CE03998052804D106201A90CC
:1043D0002BA8199014E039980C2804D105201A90C4
:1043E00026A819900CE039980D2804D103201A90C2
:1043F00023A8199004E0684800681A90674818904C
:10440000DDE92110884201DA22982190DDE92101BD
:10441000401D814202DB2298001F2190002017904E
:1044200083E017992198084416901A9916988842A3
:1044300000DB7EE0AF211798484340F6AC51A1EB7A
:10444000800015901998B8B31699199850F8210062
:10445000149039980C2811D1169801280ED1504883
:10446000006808B14FA000E04FA002464FA10390A2
:1044700004A8FCF715F804A8149023E039980D2837
:1044800020D11698012809D14548006830B94BA1C0
:1044900004A8FCF705F804A8149013E01698022865
:1044A00010D13F48006801280CD146A104A8FBF7B1
:1044B000F7FF04A8149005E0FFE71699189800EBA1
:1044C000411014902299169888421BD13F480068E9
:1044D00040B10F2000900190642211463CA0159B32
:1044E000FCF754FE0F20009001904FF4C872642135
:1044F000DDE91403FCF74AFE03901499039804F0D5
:1045000017F80FE00F21009101914FF4C872642158
:10451000DDE91403FCF73AFE03901499039804F0C4
:1045200007F800BF1798401C179017980528FFF64A
:1045300078AF00BF00BF3998042806D040F6FF735B
:104540001A4600210846FCF7D7FD229820902198B2
:104550001F901B9818B912480068012801D1FCF778
:1045600065FF0F480068012802D108F04CFA02E00C
:104570000A2008F048FAFEF764BB00005B50524581
:10458000535320544F2053544F505D0004C3012017
:1045900000C30120B8C60120FCC2012018C40120BC
:1045A0006CC3012043505500444D410044524157D3
:1045B000204D4F44453A202573000000444D4120D2
:1045C0005B585D00435055205B585D0078C3012067
:1045D0003E00000070B504460CB9012070BD94F88F
:1045E000200010B9204600F0AFF82068006840F0C5
:1045F00001002168086000F0E5FE05460DE000F0CE
:10460000E1FE401B0A2808D9606A40F4003060626D
:10461000052084F820000120E0E72068406800F0D1
:1046200001000028EBD02068006820F0020021681B
:10463000086000F0C7FE05460DE000F0C3FE401B19
:104640000A2808D9606A40F400306062052084F8C6
:1046500020000120C2E72068406800F00200002826
:10466000EBD1207E012806D12068006840F0800050
:104670002168086005E02068006820F0800021685B
:104680000860607E012806D12068006840F0400084
:104690002168086005E02068006820F0400021687B
:1046A0000860A07E012806D12068006840F0200044
:1046B0002168086005E02068006820F0200021687B
:1046C0000860E07E012806D12068006820F0100014
:1046D0002168086005E02068006840F0100021684B
:1046E0000860207F012806D12068006840F008009B
:1046F0002168086005E02068006820F00800216853
:104700000860607F012806D12068006840F004003E
:104710002168086005E02068006820F00400216836
:104720000860D4E90201084321690843616908432C
:104730006168491E08432168C86100206062012049
:1047400084F82000002049E710B586B00446142103
:1047500001A8FCF7E4F81B492068884230D100BF6B
:10476000002000901848006840F00070164908606A
:104770000846006800F00070009000BF00BF00BF56
:104780000020009010481038006840F001000E49E9
:10479000103908600846006800F00100009000BF72
:1047A00000BF4FF4C05001900220029000200390FF
:1047B000032004900920059001A9044800F0F0FCB2
:1047C00006B010BD006400404038024000000240C6
:1047D000704770477047F0B50346002603B109B92A
:1047E0000120F0BD00BF5879012801D10220F8E76F
:1047F0000120587100BF022018711868046802F087
:10480000100740F6FE70B8408443D1E9000740EA43
:10481000070502F0100005FA00F004431868046070
:104820001868006802F0100CC02707FA0CF7B843AC
:104830001F6838600120187100BF0020587100BF48
:104840003046CEE770477047704710B504460CB944
:10485000012010BD207920B900206071204600F0B1
:1048600009F8022020710020206101202071002021
:10487000EFE7000010B586B00446142101A8FCF74C
:104880004EF83B492068884270D100BF002000905C
:104890003848006840F00050364908600846006813
:1048A00000F00050009000BF00BF00BF002000904B
:1048B00030481038006840F001002E491039086077
:1048C0000846006800F00100009000BF00BF3020E3
:1048D0000190032002900020039001A9264800F0D7
:1048E0005FFC2648264908604FF060604860402120
:1048F000234881600021C1604FF48061016149005B
:104900004161890081614911C1614902016200214F
:10491000416200F0FDFA08B1FEF726F900BF184821
:10492000A060846300BF15481830164908604FF036
:10493000606048604021134881600021C1604FF4ED
:104940008061016149004161890081614911C16152
:10495000490201620021416200F0DAFA08B1FEF773
:1049600003F900BF0748E060846300BF06B010BDD4
:10497000007400404038024000000240886002405D
:10498000D8DE012038DF012038B504460020009031
:104990000CB9012038BD2068009029B902F1080047
:1049A000009D2844009004E002F11400009D28447A
:1049B0000090009803600020ECE710B502460AB9A9
:1049C000012010BD00BF5079012801D10220F8E775
:1049D0000120507100BF022010711068006801F0C2
:1049E00010040123A34018431368186061B91068CC
:1049F000006800F03C003C2816D11068406840F088
:104A00000100136858600FE01068006800F470132C
:104A100001F010043C20A040834205D1106840689A
:104A200040F00200136858600120107100BF0020A0
:104A3000507100BF00BFC4E72DE9F04704460E46A1
:104A400090469A46DDF8209014B90120BDE8F08721
:104A500000BF6079012801D10220F7E701206071D1
:104A600000BF0220207116BB3B48A168C8633B48C9
:104A7000A16808643A48A168C8642068006840F4E6
:104A8000805021680860B9F1000F03D0B9F1040F1C
:104A900008D103E0206800F1080507E0206800F174
:104AA0000C0503E0206800F1100500BF22E02D484E
:104AB000E168C8632C48E16808642C48E168C86470
:104AC0002068006840F0805021680860B9F1000F4C
:104AD00003D0B9F1040F08D103E0206800F11405F8
:104AE00007E0206800F1180503E0206800F11C05CC
:104AF00000BF00BF6EB92068006840F40050216814
:104B0000086053462A464146A06800F077FA0746F7
:104B10000CE02068006840F00050216808605346AF
:104B20002A464146E06800F069FA074600BF0020C7
:104B3000607100BF4FB92068006806F010020121C3
:104B4000914008432168086003E0206940F00400B8
:104B5000206138467AE700001D0E0008750E000837
:104B6000410E00082F0E0008830E00085B0E00089F
:104B700010B502460AB9012010BD1068006801F0A6
:104B800010040123A340984313681860012010719A
:104B90000020F1E770B504460D460CB9012070BD48
:104BA0002068006805F010024FF48051914088435E
:104BB000216808602068006805F01002012191401A
:104BC0008843216808604DB9A06800F014F8206897
:104BD000006820F400502168086008E0E06800F0F8
:104BE0000AF82068006820F0005021680860012061
:104BF00020710020D3E770B50446A56D00F0E2FBFC
:104C0000064694F83500022808D08020606500BF71
:104C1000002084F8340000BF012070BD20680068C7
:104C200020F01600216808602068406920F08000AC
:104C300021684861206C08B9A06C28B12068006820
:104C400020F00800216808602068006820F001005A
:104C50002168086010E000F0B5FB801B05280BD927
:104C600020206065032084F8350000BF002084F810
:104C7000340000BF0320D0E72068006800F0010086
:104C80000028E8D194F85C103F208840A8600120FB
:104C900084F8350000BF002084F8340000BF00BF56
:104CA000BBE7014691F83500022803D08020486513
:104CB00001207047052081F835000868006820F061
:104CC00001000A6810600020F3E70146486D704754
:104CD000F8B50446002000908C4800684FF4165147
:104CE000B0FBF1F7A56D2E6894F85C1008208840A1
:104CF000304098B12068006800F0040070B120686E
:104D0000006820F004002168086094F85C10082016
:104D10008840A860606D40F00100606594F85C1008
:104D200001208840304068B12068406900F0800070
:104D300040B194F85C1001208840A860606D40F09C
:104D40000200606594F85C1004208840304068B12F
:104D50002068006800F0020040B194F85C10042064
:104D60008840A860606D40F00400606594F85C10B5
:104D700010208840304078B32068006800F00800B8
:104D800050B394F85C1010208840A8602068006838
:104D900000F4802080B12068006800F4002028B969
:104DA000206CC8B12046216C884715E0A06C98B1F2
:104DB0002046A16C88470FE02068006800F48070EE
:104DC00028B92068006820F0080021680860206C7D
:104DD00010B12046216C884794F85C102020884050
:104DE0003040002865D02068006800F010000028DE
:104DF0005FD094F85C1020208840A86094F83500BB
:104E0000052828D12068006820F016002168086075
:104E10002068406920F0800021684861206C08B952
:104E2000A06C28B12068006820F0080021680860A4
:104E300094F85C103F208840A860012084F8350079
:104E400000BF002084F8340000BF206D10B1204660
:104E5000216D8847F8BD2068006800F4802080B18B
:104E60002068006800F4002028B9606C10B120466A
:104E7000616C88471DE0E06BD8B12046E16B884744
:104E800017E02068006800F4807068B92068006846
:104E900020F0100021680860012084F8350000BF70
:104EA000002084F8340000BFE06B10B12046E16BB5
:104EB0008847606D38B3606D00F00100F0B10520E7
:104EC00084F835002068006820F00100216808603F
:104ED00000BF0098401C0090B84200D905E020684F
:104EE000006800F001000028F3D100BF012084F821
:104EF000350000BF002084F8340000BFE06C10B122
:104F00002046E16C884700BFA4E7000094C301205D
:104F10002DE9F0410446002500F054FA074614B983
:104F20000120BDE8F081606A00B100BF022084F872
:104F3000350000BF002084F8340000BF20680068FE
:104F400020F00100216808600AE000F03BFAC01B75
:104F5000052805D920206065032084F83500E0E7A6
:104F60002068006800F001000028EED12068056884
:104F700021480540D4E901010843E168084321695B
:104F8000084361690843A1690843E1690843216A4C
:104F900008430543606A042803D1D4E90B010843A0
:104FA0000543206805602068456925F00705606AAB
:104FB0000543606A04280DD1A06A0543E06A48B140
:104FC0002046FBF79FFF28B140206065012084F850
:104FD0003500A6E7206845612046FBF779FF0646C5
:104FE00094F85C103F208840B0600020606501208C
:104FF00084F83500002094E73F8010F02DE9F04759
:1050000004460D4616461F464FF00008D4F8589047
:1050100000BF94F83400012802D10220BDE8F087D7
:10502000012084F8340000BF94F83500012825D110
:10503000022084F83500002060653B463246294650
:105040002046FBF7B4FF94F85C103F208840C9F875
:1050500008002068006840F0160021680860206C95
:1050600028B12068006840F00800216808602068C6
:10507000006840F001002168086006E000BF0020E1
:1050800084F8340000BF4FF002084046C6E7000035
:1050900070B5044600F096F906462546681C10B126
:1050A00004480078054400BF00F08CF9801BA8423A
:1050B000FAD370BD90C3012070B5044600F082F9A8
:1050C00005462A480068281A642800D270BD27487F
:1050D0000560B4F5005F12D125480078401C2449D2
:1050E000087008460078032801D100200870204885
:1050F0000078022837D100201E49086033E0042CD4
:1051000020D100201C4908701C480078401C1B4915
:105110000870084600780A2801DD00200870002089
:1051200003E00021164A1154401C0A28F9DB002034
:1051300003E05A21124A1154401C10490978884250
:10514000F7DB10E0102C03D101200B4908700AE0B6
:10515000082C03D102200849087004E0202C02D159
:1051600003200549087000BFB0E7000048C00120D7
:1051700050C0012058C001205DC001205CC001204A
:10518000ECC2012010B5044604480068204020B15C
:10519000024804602046FFF78FFF10BD143C014019
:1051A000F8B502460B460025002400200021D6E079
:1051B000012606FA01F51E6806EA0504AC4274D120
:1051C0001E7906F00306012E04D01E7906F00306B0
:1051D000022E13D190684F000326BE40B0434F000B
:1051E000DE68BE4030439060506801268E40B04378
:1051F0001E79C6F300168E40304350601E7906F0CB
:105200000306032E09D0D0684F000326BE40B043EA
:105210004F009E68BE403043D0601E7906F0030602
:10522000022E13D1CF0802F1200656F827004E07B0
:10523000F70E0F26BE40B0434F07FF0E1E69BE405B
:105240003043CF0802F1200646F8270010684F00CF
:105250000326BE40B0431E7906F003064F00BE4051
:10526000304310605E6806F44036002E76D000BFF2
:10527000002600963C4E366846F480463A4F3E6023
:105280003E46366806F48046009600BF00BF374EA3
:105290008F0856F827008E07370F0F26BE40B04301
:1052A000334EB24202D1002624E057E0314EB242E2
:1052B00001D101261EE0304EB24201D1022619E092
:1052C0002E4EB24201D1032614E02D4EB24201D13E
:1052D00004260FE02B4EB24201D105260AE02A4EE9
:1052E000B24201D1062605E0284EB24201D107267E
:1052F00000E008268F073F0FBE4030431B4E8F084B
:1053000046F82700224E3068A0435E6806F48016F7
:1053100006B120431E4E3060361D3068A0435E68E3
:1053200006F4001606B12043194E361D3060184EA3
:10533000361F3068A0435E6806F4003606B120438D
:10534000134E361F3060361F3068A0435E6806F487
:10535000803606B120430E4E083E3060491C1029AD
:10536000FFF426AFF8BD0000443802400838014081
:10537000000002400004024000080240000C02400D
:10538000001002400014024000180240001C0240BD
:10539000083C0140024613690B400BB1012000E0BC
:1053A0000020704710B5426921EA020302EA0104B5
:1053B00043EA0443836110BD0AB1816101E00B043B
:1053C00083617047014800687047000088C301206E
:1053D00070B504460CB9012070BD94F83D0028B9A1
:1053E000002084F83C00204600F0DAF8242084F8FD
:1053F0003D002068006820F00100216808602068F6
:10540000006840F40040216808602068006820F4CB
:1054100000402168086000F005FB05465C496068B3
:10542000884206D85B48854201D2012007E000206F
:1054300005E05948854201D2012000E00020012802
:1054400000D1C9E75548B5FBF0F62068406820F068
:105450003F003043216848604D496068884201D868
:10546000701C07E04FF4967070434FF47A71B0FBF4
:10547000F1F0401C2168096A21F03F0108432168CE
:10548000086243496068884214D8681E6168490010
:10549000B0FBF1F0401CC0F30B00042801D2042043
:1054A0003DE0681E61684900B0FBF1F0401CC0F3AC
:1054B0000B0034E0A06838B9681E616801EB410157
:1054C000B0FBF1F0401C0AE0681E616801EBC1020C
:1054D00002EB0111B0FBF1F0401C40F48040C0F33E
:1054E0000B0008B901201AE0A06848B9681E61687D
:1054F00001EB4101B0FBF1F0401CC0F30B000CE0EC
:10550000681E616801EBC10202EB0111B0FBF1F012
:10551000401CC0F30B0040F4804040F40040216880
:10552000C9694CF6FF72914308432168C861D4E908
:10553000070108432168096821F0C0010843216878
:105540000860D4E9031008432168896848F2FF32F3
:105550009143084321688860D4E905010843216824
:10556000C96821F0FF0108432168C860206800680D
:1055700040F001002168086000202064202084F8A9
:105580003D000020206384F83E0000BF24E70000B7
:10559000A086010080841E0000093D0040420F00EB
:1055A00010B586B00446142101A8FBF7B8F91B49D1
:1055B000206888422FD100BF002000901848006862
:1055C00040F00200164908600846006800F002003A
:1055D000009000BF00BFC020019012200290002068
:1055E0000390032004900420059001A90D48FFF7C3
:1055F000D7FD00BF0020009009481030006840F43B
:1056000000100749103108600846006800F40010D7
:10561000009000BF00BF06B010BD00000054004065
:10562000303802400004024003480068034909780A
:10563000084401490860704788C3012090C30120D5
:1056400010B50D48006840F400700B49086008462A
:10565000006840F4806008600846006840F480708C
:105660000860032000F0E0F80F2000F007F800F0D9
:105670005FF8002010BD0000003C02402DE9F04121
:1056800088B004460027B84600BF00200190234898
:10569000006840F02000214908600846006800F0DA
:1056A0002000019000BF00BF02A903A800F092F9FA
:1056B000069F1FB900F0B6F9054602E000F0B2F906
:1056C00045001748B5FBF0F0A0F101081548164950
:1056D000086040F2E7311448C160C0F8048000213E
:1056E00001618160816101F037FA064696B90E4882
:1056F00001F00CFB06466EB9372000F043F8102C81
:1057000007D200222146372000F050F807480460F5
:1057100000E00126304608B0BDE8F0814038024084
:1057200040420F000014004038E301208CC30120E8
:1057300008B500BF002000901148006840F4804088
:105740000F4908600846006800F48040009000BFE0
:1057500000BF00BF00200090081F006840F080508C
:10576000091F08600846006800F08050009000BFE4
:1057700000BF00220F21901E00F018F808BD0000A5
:10578000443802400146084600280DDB00BF00BF38
:1057900000F01F0301229A4043099B0003F1E0231C
:1057A000C3F8002100BF00BF00BF70472DE9F05FC4
:1057B00080460D461646002704F0FCFF0746394692
:1057C0002A46334601F00700C0F1070ABAF1040F78
:1057D00002D94FF0040A01E0C0F1070AD14600F1F6
:1057E000040ABAF1070F02D24FF0000A01E0A0F15B
:1057F000030AD4464FF0010A0AFA09FAAAF1010A8B
:105800000AEA020A0AFA0CFA4FF0010B0BFA0CFB37
:10581000ABF1010B0BEA030B4AEA0B0421464046AD
:1058200004F0D0FFBDE8F09F00BF00F00702064B78
:1058300019684FF6FF031940044B0B4343EA02215A
:10584000014B196000BF70470CED00E00000FA0545
:1058500070B504460D460CB9012070BD584800686B
:1058600000F00700A84209D255490D7008460068AB
:1058700000F00700A84201D00120EEE7207800F0F8
:10588000020002281DD1207800F00400042805D170
:105890004C48006840F4E0504A490860207800F025
:1058A0000800082805D14748006840F46040454991
:1058B00008604448006820F0F000A16808434149AE
:1058C0000860207800F00100A8B36068012807D1C3
:1058D0003C4808380068C0F34040B8B90120BCE734
:1058E0006068022802D06068032807D1354808386C
:1058F0000068C0F3406048B90120AEE7314808387D
:105900000068C0F3400008B90120A6E72D480068F0
:1059100020F00300616808432A490860FFF752FD40
:10592000064609E0FFF74EFD801B41F288318842B0
:1059300002D9032091E707E02248006800F00C003C
:105940006168B0EB810FEDD11D48006800F00700E1
:10595000A84209D91A490D700846006800F00700EE
:10596000A84201D0012078E7207800F00400042844
:1059700007D11448006820F4E050E1680843114959
:105980000860207800F00800082808D10D48006859
:1059900020F46040216940EAC1000A49086000F033
:1059A00061F808490968C1F30311074A515CC8400E
:1059B0000649086006480068FFF760FE00204CE7D3
:1059C000003C0240083802406807010894C30120E7
:1059D0008CC301200F2202600D4A126802F00302FC
:1059E00042600B4A126802F0F0028260084A1268B4
:1059F00002F4E052C260064A126802F46042D20821
:105A00000261044A126802F007020A60704700004F
:105A100008380240003C024001480068704700001E
:105A200094C3012000B5FFF7F7FF04490968C1F3EB
:105A30008221034A515CC84000BD00000838024082
:105A40007807010800B5FFF7E7FF04490968C1F3CB
:105A50004231034A515CC84000BD00000838024092
:105A6000780701082DE9F047002400250026A1460B
:105A70002548006800F00C0020B1042805D0082853
:105A80003AD105E0DFF8849039E0DFF8849036E021
:105A90001D48001F006800F03F041B48001F0068FD
:105AA00000F4800078B11A481749091F0968C1F34A
:105AB0008811A0FB01700146224600233846FAF700
:105AC00077FC05460EE011480F49091F0968C1F32C
:105AD0008811A0FB01700146224600233846FAF7E0
