:020000040800F2
:10000000C0090020310200082D280008D52500086D
:1000100029280008F7070008252C00080000000028
:10002000000000000000000000000000332800086D
:10003000110F0008000000003128000835280008D2
:100040004B0200084B0200084B0200084B0200085C
:100050004B0200084B0200084B0200084B0200084C
:100060004B0200084B0200084B0200084B0200083C
:100070004B0200084B0200084B0200084B0200082C
:100080004B0200084B0200084B0200084B0200081C
:100090004B0200084B0200084B0200084B0200080C
:1000A0004B0200084B0200084B0200084B020008FC
:1000B0004B0200084B0200084B0200084B020008EC
:1000C0004B0200084B0200084B0200084B020008DC
:1000D0004B0200084B0200084B0200084B020008CC
:1000E0004B0200084B0200084B0200084B020008BC
:1000F0004B020008092900084B0200084B020008C7
:100100004B0200084B0200084B0200084B0200089B
:100110004B0200084B0200084B0200084B0200088B
:100120004B0200084B0200084B0200084B0200087B
:100130004B0200084B0200084B0200084B0200086B
:100140004B0200084B0200084B0200084B0200085B
:100150004B0200084B0200084B0200084B0200084B
:100160004B0200084B0200084B0200084B0200083B
:100170004B0200084B0200084B0200080000000080
:100180004B0200084B02000800F002F800F041F8B2
:100190000AA090E8000C82448344AAF10107DA45E2
:1001A00001D100F036F8AFF2090EBAE80F0013F0F3
:1001B000010F18BFFB1A43F0010318471439000060
:1001C00034390000103A24BF78C878C1FAD85207F1
:1001D00024BF30C830C144BF04680C6070470000C1
:1001E0000023002400250026103A28BF78C1FBD840
:1001F000520728BF30C148BF0B607047642900F028
:10020000EB80002070471FB503F0C4F91FBD10B587
:1002100010BD00F0BBFA1146FFF7F5FF02F090FDAC
:1002200000F0D9FA03B4FFF7F2FF03BC00F0DCFAE8
:100230000948804709480047FEE7FEE7FEE7FEE77A
:10024000FEE7FEE7FEE7FEE7FEE7FEE704480549B6
:10025000054A064B70470000F52800088901000890
:10026000C0030020C0090020C0050020C0050020F8
:1002700053EA020C00F069802DE9F04B4FF00006C4
:10028000002B1FBFB3FA83F503FA05F424FA05F631
:100290005E4012BF1643B2FA82F502FA05F4C5F1C8
:1002A00020051EBF22FA05FC44EA0C04203556EA5C
:1002B000044C4FEA144418BF641C4FF000084FF080
:1002C0000009904271EB030C39D3002919BFB1FA30
:1002D00081F701FA07F6B0FA80F700FA07F6C7F1DE
:1002E00020071EBF20FA07FC46EA0C062037B6FBA3
:1002F000F4FCA7EB0507103F07F01F0BCBF120061E
:100300000CFA0BFB2CFA06F644BFB3460026202F4E
:10031000A4BF5E464FF0000B5BEA060C08BF4FF02F
:10032000010B19EB0B09ABFB027C48EB0608C01B69
:1003300006FB02CC0BFB03CC71EB0C01C1E70B46B7
:10034000024641464846BDE8F08B13B54FF0000029
:100350004FF00001AFF30080BDE81C407047000083
:100360000FB41CB5074B06AA7B446946009005985C
:1003700000F0C9F90020694600F0D8F91CBC5DF80E
:1003800014FB0000C103000070B5044685690068D5
:10039000C10601D5302600E02026C00707D070BD79
:1003A000D4E9012130469047206A401C20626D1E2E
:1003B000F6D570BD70B5044685690078C00707D1D1
:1003C00070BDD4E9012120209047206A401C2062A2
:1003D0006D1EF6D570BD00002DE9F04106460024E3
:1003E00010687529314616A510D0AFF3008000289B
:1003F00002DA404213A507E031688A0701D512A549
:1004000002E0490704D511A5012401E0AFF3008003
:1004100000210A2206F1240709E0B0FBF2FCB0FB40
:10042000F2F302FB1C00303078541846491C0028B7
:10043000F3D123462A463046BDE8F04100F004B926
:10044000000000002D0000002B0000002000000034
:100450002DE9F05F894604464FF0000ADFF824B129
:10046000FB44C0F820A02046E168884700287DD0E2
:10047000252806D0D4E901219047206A401C20623B
:10048000F1E700255F462046E168884720280646B8
:1004900007DB312E05D2B81910F8200C08B105433E
:1004A000F1E7A80701D525F00405C4F81CA0002732
:1004B000C4F818A02A2E09D0304602F00EFC38B33A
:1004C00004EB8708303EC8F8186019E059F8041B9F
:1004D000204604EB87029161E1688847012F0646B8
:1004E00018D1E069002820DA25F020051DE0D8F8B1
:1004F000180000EB800006EB40003038C8F8180008
:100500002046E1688847064602F0E7FB0028EED166
:10051000012F0AD02E2E08D12046E16888477F1C83
:100520000646022F45F02005C4DBA069002803DA47
:10053000404245F00105A061E80701D025F0100513
:10054000A6B1A6F14100192802D8203645F400656D
:100550004A463146204625604D46FFF74FFE60B1C2
:10056000012807D0ED1D25F0070000E007E000F1AD
:10057000080978E705F1040975E730467AE7206A4B
:10058000BDE8F09F583600004FF0000200B513465A
:1005900094469646203922BFA0E80C50A0E80C50A3
:1005A000B1F12001BFF4F7AF090728BFA0E80C5054
:1005B00048BF0CC05DF804EB890028BF40F8042B4D
:1005C00008BF704748BF20F8022B11F0804F18BFBA
:1005D00000F8012B704710B5044610F0030F08BF58
:1005E00011F0030F40F015804FF0013E121FC0F2D2
:1005F0000E8051F8043BA3EB0E0C2CEA030C1CEA12
:10060000CE1C08BF40F8043BF0D0A1F1040102F178
:100610000402521E08DB11F8013B002B00F8013BDD
:10062000F7D1114600F087F8204610BD704770479B
:10063000704710B500F0A2F8006810BD10B5044670
:1006400000F09CF8046010BD2DE9F0470D46994676
:100650009246044600F124080168880604D5E06942
:1006600021F01001216000E00120A84201DD471BBC
:1006700000E00027A1697A1902EB0900081AA061BD
:100680002078C00602D42046FFF77EFE002608E050
:10069000D4E901211AF806009047206A401C761C14
:1006A00020624E45F4DB2078C0060AD52046FFF7CD
:1006B0006BFE06E0D4E9012130209047206A401CFF
:1006C0002062381EA7F10107F4DC07E0D4E901211C
:1006D00018F805009047206A401C2062281EA5F1EA
:1006E0000105F3DC2046FFF765FE2078000602D501
:1006F0000220BDE8F0870120FBE7000001694A1CE9
:1007000002610878704700B58FB0CDE90131002152
:10071000059105497944CDE9031011466846FFF774
:1007200097FE0FB000BD0000E5FFFFFF0A6802F86A
:10073000010B0A6070474FF000020429C0F01280DC
:1007400010F0030C3FF422AFCCF1040CBCF1020F0B
:1007500018BF00F8012BA8BF20F8022BA1EB0C0159
:10076000FFF714BF5FEAC17C24BF00F8012B00F83B
:10077000012B48BF00F8012B70470000004870476C
:100780006003002000487047600300207546FFF7B3
:10079000F9FFAE4605006946534620F0070085463E
:1007A00018B020B5FFF752FDBDE820404FF000061D
:1007B0004FF000074FF000084FF0000B21F0070149
:1007C000AC46ACE8C009ACE8C009ACE8C009ACE88C
:1007D000C0098D46704710B50446AFF3008020462F
:1007E000BDE81040FFF71EBD01491820ABBEFEE773
:1007F00026000200704700BFFEE700002DE9FC5F05
:100800008046894615461E46DDE90C7A4FF0FF34D6
:1008100000200AE000EB800101EBC001474A12F81A
:10082000211009B9044602E0401C0828F2DB00BF91
:10083000002C02DA0020BDE8FC9F04EB840101EBF0
:10084000C4013E4A02EB8101481C1F224146FFF7CA
:10085000C2FE002104EB840000EBC400374A02EB27
:10086000800080F8201004EB840000EBC4001146E7
:1008700001EB8000456204EB840000EBC40001EB57
:100880008000866204EB840000EBC40001EB800072
:10089000878504EB840000EBC40001EB8000A0F826
:1008A0002EA004EB840000EBC40001EB8000A0F854
:1008B0003090012004EB840101EBC40102F8210017
:1008C0001F4890F90000401CA8BB60B21C4908708A
:1008D00000201C4908701C48056004EB840000EBF4
:1008E000C400114601EB8000407820B304EB840182
:1008F00001EBC40102EB8101487802F06DFAD0B13E
:100900006B4601AA114801781148006802F0ECF921
:1009100001987843642190FBF1F00B490968A1EB41
:10092000000B31B20FFA8BF000F054F85146384604
:1009300000F05AF800BF01207DE7000048000020C9
:10094000300000203100002034000020080000208A
:100950000400002010B5002008E0002100EB800218
:1009600002EBC0020D4B03F82210401C0828F4DBF8
:10097000FF200B49087000200A4908704FF40063FB
:1009800000221146084800F051FC4FF40063002299
:100990001021054800F04AFC10BD0000480000206E
:1009A000300000200E0000201002002010B5044688
:1009B00006480460FFF7CEFF0021054800F04FFC19
:1009C0001021034800F04BFC10BD00001000002077
:1009D00010020020024A1060024A116070470000B5
:1009E000180000201C00002000B9012001B90121DD
:1009F000024A1080024A1180704700001400002053
:100A0000160000202DE9F0472DED0E8B84B0044632
:100A1000FE492068884204D004B0BDEC0E8BBDE8CE
:100A2000F087FB4890F90000401C00B9F4E7F94852
:100A3000007800287ED10120F6490870F648006849
:100A4000F649097830F83170F3480068F3490978BD
:100A500000EBC100B0F80280EF480068EF49097868
:100A600000EBC100B0F80490EB480068EB4909784E
:100A700000EBC100B0F806A0E94800887843642183
:100A800090FBF1F0E74909680844E7490860E74846
:100A9000008808FB00F0642190FBF1F0E44909684C
:100AA0000844E4490860DE48008809FB00F064213E
:100AB00090FBF1F0DB4909680844DF490860DB4836
:100AC00000880AFB00F0642190FBF1F0D849096826
:100AD0000844DA490860D4480068002802DA002097
:100AE000D1490860D0480068B0F5805F03DB40F66C
:100AF000FF70CD490860D0480068002802DA002065
:100B0000CD490860CC480068B0F5805F03DB40F653
:100B1000FF70C9490860C7480068002802DA002051
:100B2000C4490860C3480068B0F5805F05DB40F643
:100B3000FF7000E06BE0BF490860C0480068002813
:100B400002DA0020BD490860BC480068B0F5805F4B
:100B500003DB40F6FF70B9490860B3480068B64946
:100B60000968451AB3480068B4490968461A30460E
:100B700002F045FA41EC1D0B304602F040FA41EC20
:100B80001E0B53EC1D2B02F051FA41EC1B0B2846B7
:100B900002F035FA41EC1D0B284602F030FA41EC28
:100BA0001E0B53EC1D2B02F041FA41EC1C0B53ECD5
:100BB0001B2B02F04FF941EC1A0BB0EE4A0AF0EE93
:100BC0006A0A02F04DF8B0EE409AF0EE609A9FED9E
:100BD0009C0B53EC102B51EC190B02F027FA41EC53
:100BE000180B02F0DFF99849088000209749088027
:100BF0008D48002211460368954800F017FB8D4888
:100C0000002210210368924800F010FB6CE181483B
:100C10000078012853D18D480088401C8B490880FA
:100C20000846008888490988884203DD02207949FE
:100C3000087059E1844800880028E7D0824800887D
:100C400082490988401A7849096848437A490968FD
:100C50007E4A128801FB02007B49098890FBF1F56E
:100C60007948008879490988401A724909684843D7
:100C700072490968754A128801FB020072490988A5
:100C800090FBF1F6002D00DA0025B5F5805F01DB61
:100C900040F6FF75002E00DA0026B6F5805F01DB16
:100CA00040F6FF762B4600221146694800F0BEFA56
:100CB000334600221021664800F0B8FA14E1554886
:100CC00000780228A2D155480078401C6149097873
:100CD00090FBF1F201FB12005049087000204D49D1
:100CE00008704E480078002890D102AB03AA5948FA
:100CF00001784948006801F0F7FFDDE90201461A72
:100D0000434890F9000000EB800101EBC00052491C
:100D100001EB8000808D7043642190FBF1F73C482B
:100D200090F9000000EB800101EBC0004A4901EBA3
:100D30008000008E384449490968084447490860E2
:100D400047480078401C464908700846007820282B
:100D50000EDA2F4890F9000000EB800101EBC00093
:100D60003D4901EB8000401C3D490978405CA0BB37
:100D7000274991F9001001F1010C4FF0FF300021DB
:100D800015E00CEB01024FEAE27802EB58784FEAEB
:100D9000E808A2EBC80303EB830202EBC302DFF80F
:100DA000B88018F822200AB1184602E0491C082928
:100DB000E7DB00BF411C89B141B2154A1170002127
:100DC000274A117000EB800101EBC001224A02EBBF
:100DD0008101496A214A116004E004E0FF210C4AC4
:100DE000117019E600BF0A4890F9000000EB80017D
:100DF00001EBC000184901EB8000401C184909783C
:100E0000455C284601F0E8FF60B32CE0002000407C
:100E1000300000200E000020040000200900002007
:100E200014000020180000202000002016000020E0
:100E30001C00002024000020280000202C0000209E
:100E4000000000000000F03F0C0000200A0000201D
:100E5000100200200800002048000020340000207C
:100E6000310000203FE0214890F9000000EB8001B4
:100E700001EBC0001E4901EB8000808D1D490880F8
:100E80001A4890F9000000EB800101EBC0001849FE
:100E900001EB8000C08D184908806B4601AA1748F5
:100EA00001781748006801F01FFF1249098801986E
:100EB0004843642190FBF1F012490988A1EB000836
:100EC0000FFA88F010490860084890F9000000EB1C
:100ED000800101EBC000064901EB8000008D00B2EB
:100EE0000A49086000BF00BF00BF95E53000002040
:100EF00048000020140000201600002008000020F8
:100F00000400002034000020180000201C000020F5
:100F1000704772B600BFFEE770B504460CB90120F9
:100F200070BD94F8200010B9204600F0AFF820689A
:100F3000006840F001002168086000F0E3FA05460F
:100F40000DE000F0DFFA401B0A2808D9606A40F47F
:100F500000306062052084F820000120E0E720686E
:100F6000406800F001000028EBD02068006820F005
:100F700002002168086000F0C5FA05460DE000F0A7
:100F8000C1FA401B0A2808D9606A40F40030606248
:100F9000052084F820000120C2E72068406800F0A6
:100FA00002000028EBD1207E012806D120680068CD
:100FB00040F080002168086005E02068006820F0AB
:100FC000800021680860607E012806D120680068E2
:100FD00040F040002168086005E02068006820F0CB
:100FE000400021680860A07E012806D120680068C2
:100FF00040F020002168086005E02068006820F0CB
:10100000200021680860E07E012806D12068006881
:1010100020F010002168086005E02068006840F0BA
:10102000100021680860207F012806D12068006830
:1010300040F008002168086005E02068006820F0A2
:10104000080021680860607F012806D120680068D8
:1010500040F004002168086005E02068006820F086
:10106000040021680860D4E90201084321690843AB
:10107000616908436168491E08432168C86100200E
:101080006062012084F82000002049E710B586B096
:101090000446142101A8FFF777FA1B49206888420B
:1010A00030D100BF002000901848006840F0007068
:1010B000164908600846006800F00070009000BF04
:1010C00000BF00BF0020009010481038006840F0BA
:1010D00001000E49103908600846006800F0010060
:1010E000009000BF00BF4FF4C0500190022002905A
:1010F00000200390032004900920059001A90448D2
:1011000000F000F906B010BD006400404038024015
:1011100000000240F0B50346002603B109B90120E2
:10112000F0BD00BF5879012801D10220F8E7012065
:10113000587100BF022018711868046802F0100787
:1011400040F6FE70B8408443D1E9000740EA070545
:1011500002F0100005FA00F00443186804601868F3
:10116000006802F0100CC02707FA0CF7B8431F689C
:1011700038600120187100BF0020587100BF304650
:10118000CEE710B504460CB9012010BD207920B976
:1011900000206071204600F009F802202071002034
:1011A0002061012020710020EFE7000010B586B01B
:1011B0000446142101A8FFF7E7F91949206888427D
:1011C0002BD100BF002000901648006840F000506E
:1011D000144908600846006800F00050009000BF05
:1011E00000BF00BF002000900E481038006840F09B
:1011F00001000C49103908600846006800F0010041
:10120000009000BF00BF302001900320029000201A
:10121000039001A9044800F075F806B010BD000065
:1012200000740040403802400000024038B50446D7
:10123000002000900CB9012038BD2068009029B929
:1012400002F10800009D2844009004E002F114001F
:10125000009D28440090009803600020ECE710B542
:1012600002460AB9012010BD00BF5079012801D102
:101270000220F8E70120507100BF022010711068B1
:10128000006801F010040123A3401843136818609C
:1012900061B91068006800F03C003C2816D1106865
:1012A000406840F00100136858600FE01068006863
:1012B00000F4701301F010043C20A040834205D1DB
:1012C0001068406840F002001368586001201071F7
:1012D00000BF0020507100BF00BFC4E770B50446D6
:1012E00000F010F906462546681C10B10448007845
:1012F000054400BF00F006F9801BA842FAD370BD78
:1013000040000020F8B502460B46002500240020CE
:101310000021D6E0012606FA01F51E6806EA05045A
:10132000AC4274D11E7906F00306012E04D01E795A
:1013300006F00306022E13D190684F000326BE402C
:10134000B0434F00DE68BE403043906050680126D5
:101350008E40B0431E79C6F300168E403043506075
:101360001E7906F00306032E09D0D0684F0003262D
:10137000BE40B0434F009E68BE403043D0601E79EF
:1013800006F00306022E13D1CF0802F1200656F80C
:1013900027004E07F70E0F26BE40B0434F07FF0E43
:1013A0001E69BE403043CF0802F1200646F82700F0
:1013B00010684F000326BE40B0431E7906F00306B6
:1013C0004F00BE40304310605E6806F44036002E89
:1013D00076D000BF002600963C4E366846F4804624
:1013E0003A4F3E603E46366806F48046009600BF9F
:1013F00000BF374E8F0856F827008E07370F0F268D
:10140000BE40B043334EB24202D1002624E057E042
:10141000314EB24201D101261EE0304EB24201D11E
:10142000022619E02E4EB24201D1032614E02D4EC1
:10143000B24201D104260FE02B4EB24201D1052663
:101440000AE02A4EB24201D1062605E0284EB242F9
:1014500001D1072600E008268F073F0FBE4030432A
:101460001B4E8F0846F82700224E3068A0435E6866
:1014700006F4801606B120431E4E3060361D3068DB
:10148000A0435E6806F4001606B12043194E361DCF
:101490003060184E361F3068A0435E6806F4003690
:1014A00006B12043134E361F3060361F3068A0430C
:1014B0005E6806F4803606B120430E4E083E30606A
:1014C000491C1029FFF426AFF8BD00004438024043
:1014D00008380140000002400004024000080240B9
:1014E000000C0240001002400014024000180240AC
:1014F000001C0240083C01400AB1816101E00B047C
:101500008361704701480068704700003800002080
:1015100070B504460CB9012070BD94F83D0028B99F
:10152000002084F83C00204600F0DAF8242084F8FB
:101530003D002068006820F00100216808602068F4
:10154000006840F40040216808602068006820F4CA
:1015500000402168086000F0A9FA05465C4960680F
:10156000884206D85B48854201D2012007E000206E
:1015700005E05948854201D2012000E00020012801
:1015800000D1C9E75548B5FBF0F62068406820F067
:101590003F003043216848604D496068884201D867
:1015A000701C07E04FF4967070434FF47A71B0FBF3
:1015B000F1F0401C2168096A21F03F0108432168CD
:1015C000086243496068884214D8681E616849000F
:1015D000B0FBF1F0401CC0F30B00042801D2042042
:1015E0003DE0681E61684900B0FBF1F0401CC0F3AB
:1015F0000B0034E0A06838B9681E616801EB410156
:10160000B0FBF1F0401C0AE0681E616801EBC1020A
:1016100002EB0111B0FBF1F0401C40F48040C0F33C
:101620000B0008B901201AE0A06848B9681E61687B
:1016300001EB4101B0FBF1F0401CC0F30B000CE0EA
:10164000681E616801EBC10202EB0111B0FBF1F011
:10165000401CC0F30B0040F4804040F4004021687F
:10166000C9694CF6FF72914308432168C861D4E907
:10167000070108432168096821F0C0010843216877
:101680000860D4E9031008432168896848F2FF32F2
:101690009143084321688860D4E905010843216823
:1016A000C96821F0FF0108432168C860206800680C
:1016B00040F001002168086000202064202084F8A8
:1016C0003D000020206384F83E0000BF24E70000B6
:1016D000A086010080841E0000093D0040420F00EA
:1016E00010B586B00446142101A8FEF74DFF1B4932
:1016F000206888422FD100BF002000901848006861
:1017000040F00200164908600846006800F0020038
:10171000009000BF00BFC020019012200290002066
:101720000390032004900420059001A90D48FFF7C1
:10173000E9FD00BF0020009009481030006840F427
:1017400000100749103108600846006800F40010D6
:10175000009000BF00BF06B010BD00000054004064
:101760003038024000040240034800680349097809
:1017700008440149086070473800002040000020FC
:1017800010B50D48006840F400700B490860084629
:10179000006840F4806008600846006840F480708B
:1017A0000860032000F0A6F80F2000F007F800F012
:1017B0002BF8002010BD0000003C024070B504462C
:1017C0000E4800784FF47A71B1FBF0F00C490968CB
:1017D000B1FBF0F5284600F0F5FC08B1012070BD22
:1017E000102C07D200222146501E00F045F8054873
:1017F000046001E00120F2E70020F0E74000002053
:10180000440000203C00002008B500BF00200090EC
:101810000E48006840F480400C49086008460068A3
:1018200000F48040009000BF00BF00BF0020009087
:10183000081F006840F08050091F086008460068D3
:1018400000F08050009000BF00BF08BD4438024047
:101850000146084600280DDB00BF00BF00F01F0353
:1018600001229A4043099B0003F1E023C3F80021C1
:1018700000BF00BF00BF70472DE9F05F80460D46F6
:101880001646002701F0D0F9074639462A46334666
:1018900001F00700C0F1070ABAF1040F02D94FF0B6
:1018A000040A01E0C0F1070AD14600F1040ABAF1C6
:1018B000070F02D24FF0000A01E0A0F1030AD4465C
:1018C0004FF0010A0AFA09FAAAF1010A0AEA020A21
:1018D0000AFA0CFA4FF0010B0BFA0CFBABF1010BFF
:1018E0000BEA030B4AEA0B042146404601F0A4F937
:1018F000BDE8F09F00BF00F00702064B19684FF6E5
:10190000FF031940044B0B4343EA0221014B1960CA
:1019100000BF70470CED00E00000FA0570B504460A
:101920000D460CB9012070BD5848006800F0070052
:10193000A84209D255490D700846006800F007001A
:10194000A84201D00120EEE7207800F00200022832
:101950001DD1207800F00400042805D14C4800680F
:1019600040F4E0504A490860207800F00800082858
:1019700005D14748006840F4604045490860444844
:10198000006820F0F000A168084341490860207811
:1019900000F00100A8B36068012807D13C4808386E
:1019A0000068C0F34040B8B90120BCE76068022875
:1019B00002D06068032807D1354808380068C0F3B2
:1019C000406048B90120AEE7314808380068C0F3EC
:1019D000400008B90120A6E72D48006820F0030068
:1019E000616808432A490860FFF78CFD064609E054
:1019F000FFF788FD801B41F28831884202D903201D
:101A000091E707E02248006800F00C006168B0EB45
:101A1000810FEDD11D48006800F00700A84209D9E8
:101A20001A490D700846006800F00700A84201D06E
:101A3000012078E7207800F00400042807D114483A
:101A4000006820F4E050E1680843114908602078FC
:101A500000F00800082808D10D48006820F4604014
:101A6000216940EAC1000A49086000F03FF80849CE
:101A70000968C1F30311074A515CC8400649086070
:101A800006480068FFF79AFE00204CE7003C024041
:101A900008380240A43A0008440000203C0000201E
:101AA00001480068704700004400002000B5FFF7BF
:101AB000F7FF04490968C1F38221034A515CC84019
:101AC00000BD000008380240B43A000800B5FFF736
:101AD000E7FF04490968C1F34231034A515CC84039
:101AE00000BD000008380240B43A00082DE9F04774
:101AF000002400250026A1462548006800F00C00BF
:101B000020B1042805D008283AD105E0DFF88490F8
:101B100039E0DFF8849036E01D48001F006800F0CF
:101B20003F041B48001F006800F4800078B11A4889
:101B30001749091F0968C1F38811A0FB017001460C
:101B4000224600233846FEF793FB05460EE0114877
:101B50000F49091F0968C1F38811A0FB01700146F4
:101B6000224600233846FEF783FB05460848001F3F
:101B70000068C0F30140401C4600B5FBF6F902E0E6
:101B8000DFF8109000BF00BF4846BDE8F0870000B6
:101B9000083802400024F40000127A00F8B5044628
:101BA0000CB90120F8BD207800F00100002874D0A5
:101BB000F948006800F00C0004280DD0F6480068D1
:101BC00000F00C00082813D1F348001F006800F44F
:101BD0008000B0F5800F0BD1EF4808380068C0F3E3
:101BE0004040002859D06068002856D10120D9E72C
:101BF00000BF6068B0F5803F08D1E748083800684A
:101C000040F48030E449083908601EE06068B0F5AF
:101C1000A02F0DD1E0480838006840F48020DE494C
:101C2000083908600846006840F4803008600CE01D
:101C3000D9480838006820F48030D749083908604E
:101C40000846006820F48020086000BF606890B1FA
:101C5000FFF758FC054606E0FFF754FC401B6428DC
:101C600001D903209EE7CC4808380068C0F3404003
:101C70000028F1D011E0FFF745FC054606E0FFF72C
:101C800041FC401B642801D903208BE7C248083877
:101C90000068C0F340400028F1D1207800F0020035
:101CA00002285FD1BC48006800F00C0058B1BA4867
:101CB000006800F00C0008281CD1B748001F00681D
:101CC00000F48000B0B9B44808380068C0F34000A0
:101CD00020B1E068012801D0012063E7AE48083850
:101CE000006820F0F800216940EAC100AA490839DB
:101CF000086037E0E06800B30120A8490860FFF7FA
:101D000001FC054606E0FFF7FDFB401B022801D958
:101D1000032047E7A04808380068C0F340000028C7
:101D2000F1D09D480838006820F0F800216940EAA9
:101D3000C10099490839086014E0002097490860FB
:101D4000FFF7E0FB054606E0FFF7DCFB401B02283F
:101D500001D9032026E7904808380068C0F3400006
:101D60000028F1D1207800F0080008282CD1606903
:101D7000A8B101208A490860FFF7C4FB054606E0C8
:101D8000FFF7C0FB401B022801D903200AE7824865
:101D90006C300068C0F340000028F1D014E000204F
:101DA0007F490860FFF7AEFB054606E0FFF7AAFB98
:101DB000401B022801D90320F4E677486C30006804
:101DC000C0F340000028F1D1207800F0040004287E
:101DD00070D1002770483830006800F0805090B90A
:101DE00000BF002000906C483830006840F0805000
:101DF0006949383108600846006800F0805000905A
:101E000000BF00BF01276748006800F48070B0B9C8
:101E10006448006840F4807062490860FFF772FB14
:101E2000054606E0FFF76EFB401B022801D90320A0
:101E3000B8E65C48006800F480700028F2D000BF6B
:101E4000A068012808D154486830006840F00100BB
:101E50005149683108601DE0A06805280DD14E4841
:101E60006830006840F004004B496831086008465B
:101E7000006840F0010008600CE0474868300068E6
:101E800020F001004449683108600846006820F0ED
:101E90000400086000BFA068A8B1FFF733FB054647
:101EA00009E0FFF72FFB401B41F28831884202D93D
:101EB000032077E626E0384868300068C0F3400029
:101EC0000028EED013E0FFF71DFB054608E0FFF702
:101ED00019FB401B41F28831884201D9032061E699
:101EE0002D4868300068C0F340000028EFD1012F72
:101EF00007D129483830006820F080502649383111
:101F0000086000BFA069002845D02348006800F0A1
:101F10000C0008285DD0A069022845D100201F4987
:101F20000866FFF7EFFA054606E0FFF7EBFA401BFD
:101F3000022801D9032035E6174808380068C0F3A5
:101F400040600028F1D1D4E907010843616A40EA02
:101F500081110122A06AC2EB500041EA00412C200D
:101F6000005D41EA00600C49091F086001200B492F
:101F70000866FFF7C7FA054606E0FFF7C3FA401BFD
:101F8000022801D903200DE6034808380068C0F391
:101F900040600028F1D049E0083802400000474284
:101FA000800E474200700040002021490866FFF77C
:101FB000A9FA054606E0FFF7A5FA401B022801D959
:101FC0000320EFE51B480068C0F340600028F2D111
:101FD0002CE0A069012800D1E4E51648001D066840
:101FE000A069012820D006F48001E06981421BD15C
:101FF00006F03F01206A814216D147F6C07030409A
:10200000616AB0EB811F0FD106F440310122A06A52
:10201000C2EB5000B1EB004F06D106F070612C20EE
:10202000005DB1EB006F01D00120BBE50020B9E5F8
:10203000000047420038024010B504460CB90120A8
:1020400010BD606A38B96068B0F5827F00D105E0E4
:102050000021E16102E00021216161610021A162B2
:1020600094F8510028B9002084F85000204600F070
:1020700047F8022084F851002068006820F04000F2
:1020800021680860A08800F48270218901F404416D
:102090000843A18901F400610843217C01F0020199
:1020A0000843217D01F001010843218B01F40071F7
:1020B0000843217F01F0380108432021095D01F028
:1020C00080010843218D01F4005108432168086014
:1020D0000421A06901EA104094F8241001F01001D5
:1020E0000843216848602068C06920F400602168C6
:1020F000C86100206065012084F8510000209FE73E
:1021000010B586B00446142101A8FEF73DFA29490E
:10211000206888424CD100BF00200090264800680B
:1021200040F48050244908600846006800F480505C
:10213000009000BF00BF00BF002000901E48143870
:10214000006840F001001C49143908600846006826
:1021500000F00100009000BF00BF00BF0020009011
:102160000846006840F0020008600846006800F079
:102170000200009000BF00BFC0200190022002902A
:1021800000200390032004900520059001A90B482E
:10219000FFF7B8F808200190022002900020039079
:1021A000032004900520059001A90548FFF7AAF82F
:1021B00006B010BD0030014044380240000002402B
:1021C0000004024070B504462546681EB0F1807FC9
:1021D00001D301200FE0681E4FF0E02148610F217C
:1021E0004FF0FF3000F028FD00204FF0E021886123
:1021F00007200861002070BD7047704710B5044685
:102200000CB9012010BD94F83D0028B9002084F8D5
:102210003C00204600F026F8022084F83D00211DF5
:10222000206800F079FB012084F8460000BF84F8A4
:102230003E0001213F20015540200155412001551C
:1022400000BF00BF012084F8420043200155442014
:1022500001554520015500BF012084F83D000020B4
:10226000D0E7000038B504460E492068884217D1EF
:1022700000BF002000900C48006840F480700A49BC
:1022800008600846006800F48070009000BF00BF3E
:10229000002211462D20FFF7EFFA2D20FFF7D8FA84
:1022A00038BD00000020004040380240014691F84F
:1022B0003D00012801D001207047022081F83D0037
:1022C0000868C06840F001000B68D8601A4B0868C5
:1022D00098421BD00868B0F1804F17D0174B0868A0
:1022E000984213D0164B086898420FD0154B0868D7
:1022F00098420BD0144B0868984207D0134B0868DB
:10230000984203D0124B086898420CD10868806844
:1023100000F00702062A0CD00868006840F00100AF
:102320000B68186005E00868006840F001000B6861
:1023300018600020C0E700000000014000040040D9
:1023400000080040000C0040000401400040014033
:1023500000180040704770B504462068C5682068C2
:10236000066906F00200022819D105F002000228D1
:1023700015D1401F216808610120207720688069FD
:1023800000F0030018B12046FFF7E4FF05E0204607
:1023900000F097F8204600F095F80020207706F02E
:1023A0000400042819D105F00400042815D1C04305
:1023B00021680861022020772068806900F440705D
:1023C00018B12046FFF7C6FF05E0204600F079F877
:1023D000204600F077F80020207706F00800082853
:1023E00019D105F00800082815D1C04321680861FB
:1023F000042020772068C06900F0030018B120464F
:10240000FFF7A8FF05E0204600F05BF8204600F04B
:1024100059F80020207706F01000102819D105F097
:102420001000102815D1C0432168086108202077CA
:102430002068C06900F4407018B12046FFF78AFF99
:1024400005E0204600F03DF8204600F03BF8002073
:10245000207706F0010048B105F0010030B16FF0BF
:10246000010021680861204600F02DF806F0800088
:10247000802809D105F08000802805D1C04321685B
:1024800008612046FFF7B8FE06F04000402809D159
:1024900005F04000402805D1C0432168086120466E
:1024A00000F017F806F02000202809D105F02000E0
:1024B000202805D1C043216808612046FFF79DFE12
:1024C00070BD7047704710B504462046FEF79AFA73
:1024D00010BD704710B504460CB9012010BDA069AD
:1024E00000B100E000BF94F8410028B9002084F852
:1024F0004000204600F02AF8242084F8410020689B
:10250000C06820F400502168C860204600F074FACA
:102510002068006920F490402168086120684069C3
:1025200020F02A00216848612068C06840F400500B
:102530002168C86000206064202084F8410084F88D
:1025400042000020606300BFC8E7000010B586B0FD
:102550000446142101A8FEF717F81B492068884299
:1025600030D100BF002000901848006840F01000F3
:10257000164908600846006800F01000009000BF8F
:1025800000BF00BF0020009010481438006840F0E1
:1025900001000E49143908600846006800F0010087
:1025A000009000BF00BF4FF4C06001900220029075
:1025B00000200390032004900720059001A90448FF
:1025C000FEF7A0FE06B010BD0010014044380240E6
:1025D0000000024000BFFEE710B50B480B49086041
:1025E00010204860002109488160C160016141619B
:1025F000017641768176C17601774177FEF78CFCD2
:1026000008B1FEF786FC10BD00640040E801002020
:102610001CB50020009001900E480F490860084644
:10262000FEF7AFFD08B1FEF774FC002000900190AA
:10263000002269460848FEF76DFD08B1FEF769FC07
:10264000102269460448FEF765FD08B1FEF761FCFB
:102650001CBD0000007400401002002000B587B0CF
:10266000142102A8FDF790FF00BF00200190304820
:10267000006840F010002E4908600846006800F02D
:102680001000019000BF00BF00BF0020019008466D
:10269000006840F0040008600846006800F004008C
:1026A000019000BF00BF00BF0020019008460068F5
:1026B00040F0010008600846006800F00100019049
:1026C00000BF00BF00BF002001900846006840F036
:1026D000020008600846006800F00200019000BF98
:1026E00000BF0022C9141348FEF706FF7C200290A9
:1026F00000200390049002A90F48FEF703FE4FF458
:10270000C040029000200390049002A90B48FEF7FD
:10271000F9FD4FF400600290012003900020049026
:10272000059002A90348FEF7EDFD07B000BD0000CB
:10273000303802400004024000100240000802400D
:1027400010B50B480B4908600B4848600021094848
:102750008160C1604FF4804101610021416181616C
:10276000C1610162FEF7D4FE08B1FEF7D2FB10BDD5
:102770000054004024020020A086010010B50E483D
:102780000E4908604FF48270486000210B48816058
:10279000C160016141614FF4007181610021C1613B
:1027A0000162416281620A21C162FFF745FC08B102
:1027B000FEF7AFFB10BD00000030014078020020A2
:1027C00010B50948094908605320486000210748AE
:1027D00081600121C160002101618161FFF70EFD6F
:1027E00008B1FEF796FB10BD00200040D00200208B
:1027F00010B50B480B4908604FF4E13048600021E8
:1028000008488160C16001610C2141610021816142
:10281000C161FFF75FFE08B1FEF77BFB10BD000052
:10282000001001401803002000BFFEE700BFFEE7D4
:102830007047704710B5FEF797FF10BD00B593B015
:10284000302107A8FDF7A0FE142102A8FDF79CFE89
:1028500000BF002001902548006840F080502349C7
:1028600008600846006800F08050019000BF00BF7B
:1028700000BF002001901E48006840F480401C49C1
:1028800008600846006800F48040019000BF00BF67
:102890000220079001200A9010200B9002200D903A
:1028A00000210E9108210F91A82110910221119170
:1028B0000421129107A8FFF771F908B1FEF729FB6F
:1028C0000F20029002200390002004904FF4A050AB
:1028D00005904FF480500690052102A8FFF71EF8DE
:1028E00008B1FEF716FB13B000BD000040380240EF
:1028F000007000400348006840F47000014908601F
:102900007047000088ED00E010B50248FFF723FD96
:1029100010BD0000D002002010B502682B4B984279
:102920000ED0B0F1804F0BD0294B984208D0294BE4
:10293000984205D0284B984202D0284B984203D1A8
:1029400022F070024B681A43204B984220D0B0F11D
:10295000804F1DD01E4B98421AD01E4B984217D064
:102960001D4B984214D01D4B984211D01C4B9842DD
:102970000ED01C4B98420BD01B4B984208D01B4BDF
:10298000984205D01A4B984202D01A4B984203D174
:1029900022F44072CB681A4322F080034C6943EA68
:1029A00004028B68C3620B688362084B984202D0B2
:1029B0000A4B984201D10B690363036843F0040397
:1029C000036001234361026010BD0000000001406C
:1029D0000004004000080040000C004000040140DA
:1029E0000040014000440140004801400018004000
:1029F000001C0040002000402DE9F84F04462068EC
:102A0000006920F44050E1680843216808612169A9
:102A1000A068084361690843E169084300902068A1
:102A2000C06849F20C618843009908432168C86076
:102A30002068406920F44070A1690843216848611A
:102A400076492068884203D075492068884203D1BE
:102A5000FFF73CF8814602E0FFF728F88146E0697D
:102A6000B0F5004F6CD102206168A0FB0150034615
:102A70001920A9FB007001462A463846FDF7F8FBED
:102A80006421B0FBF1F04FEA001A02206168A0FB5C
:102A900001510B461920A9FB00712A463846FDF763
:102AA000E7FB834602206168A0FB01500346192022
:102AB000A9FB00712A463846FDF7DAFB6421B0FB1A
:102AC000F1F000EBC00101EB0010ABEB8000322114
:102AD00001EBC0006421B0FBF1F000F0F8000AEB5C
:102AE000400A02206168A0FB015003461920A9FB9F
:102AF000007001462A463846FDF7BAFB834602209D
:102B00006168A0FB015003461920A9FB00712A4609
:102B10003846FDF7ADFB6421B0FBF1F000EBC001DE
:102B200001EB0010ABEB8000322101EBC00064210F
:102B3000B0FBF1F000F007005044216888606AE0C3
:102B400004206168A0FB015003461920A9FB007016
:102B500001462A463846FDF78BFB82460420616811
:102B6000A0FB015003461920A9FB007001462A462C
:102B70003846FDF77DFB6421B0FBF1F000EBC001AE
:102B800001EB0010AAEB8000322101EB0010642160
:102B9000B0FBF1F000F0F00A04206168A0FB0170C6
:102BA00003461920A9FB00513A462846FDF760FB71
:102BB0006421B0FBF1F00AEB001A04206168A0FB6D
:102BC00001510B461920A9FB00712A463846FDF732
:102BD0004FFB834604206168A0FB01500346192087
:102BE000A9FB007001462A463846FDF741FB6421E7
:102BF000B0FBF1F000EBC00101EB0010ABEB80008B
:102C0000322101EB00106421B0FBF1F000F00F0065
:102C1000504421688860BDE8F88F00000010014032
:102C20000014014000BFFEE702480068C0F3022024
:102C3000704700000CED00E010B5002804DB0A0727
:102C4000130E054A135406E00A07140E034A00F057
:102C50000F031B1FD45410BD00E400E018ED00E08A
:102C600000B52DED048BB0EE409AF0EE609A83B083
:102C700051EC190B00F0D8FA41EC180B18EE100AC1
:102C800018EE901A8DED008B002818BF0120084324
:102C900020F00040C0F17F6000F1E040C00F14D090
:102CA00019EE101A19EE900A8DED009B002918BF3D
:102CB0000121084320F00040C0F17F6000F1E040B6
:102CC000C00F04BF0120FDF7B9FCB0EE480A03B005
:102CD000F0EE680ABDEC048B00BD30380A2801D242
:102CE0000120704700207047F0B504460D46164697
:102CF0004FF48051002200201DE034F830708F42E4
:102D000001DA34F8301004EBC007BF888F4202DAD2
:102D100004EBC007B98834F83070974201DD34F80D
:102D2000302004EBC007BF88974202DD04EBC007E8
:102D3000BA88471CF8B2A842DFDB31601A60F0BDE8
:102D40008AB0FEF71DFDFFF779FDFFF787FCFFF75F
:102D500043FCFFF75DFCFFF7F3FCFFF70FFDFFF708
:102D600047FDFFF72DFD4FF47A70FDF71FFE154864
:102D7000FFF79CFA002423E0224613A102A8FDF7E6
:102D8000EFFAFDF7E7FD1420009040F6B83300227B
:102D9000C82101900EA0FDF731FD142000904FF4E2
:102DA0007A730022C821019002A8FDF727FD641C58
:102DB00042F20F70844200DD0024C820FEF78EFA34
:102DC000DAE70000D0020020253034640000000063
:102DD000434F554E540000000146FF22412905DBB8
:102DE0005A2903DCA1F14100C2B206E0302904DB1C
:102DF000392902DCA1F11600C2B2242A1ADA0E48DF
:102E000002700E480C4B1B7850F823000C4B1860D6
:102E10000C48094B1B78C05C0B4B187018460078A7
:102E200008B9012018700020084B1870084B187062
:102E3000012070470020FCE700000020F039000866
:102E400004000020803A000808000020090000204B
:102E50000E00002010B591EA030F48BF83F0004335
:102E600000F1B682841A71EB030C05D2121943EB00
:102E70000C03001B61EB0C01DFF824E14FEA115455
:102E8000A4EB135C1EEA430F18BF9EEA445F73D0A5
:102E900023EA0E03DCF1200E21EA045143F48013EF
:102EA00032D322FA0CFE10EB0E0023FA0CFE41EB9B
:102EB0000E01CCF1200E03FA0EFE10EB0E0051F1C4
:102EC0000001B1F5801FCCF1200E32D201EB04518C
:102ED00012FA0EF2BDE8104058BF7047401C38BFD0
:102EE0005FEA420218BF7047002814BF20F00100BB
:102EF00041F100014FEA410313F5001F38BF70474D
:102F0000A1F1C04100F08AB9012A43EB0302ACF100
:102F1000200CDCF11F0E32BF4FF0000E23FA0CF331
:102F200010EB030041EB0451B4EB115FD0D0A1EBE7
:102F3000045101F5801149085FEA300001EB0451AA
:102F40000ED350F1000038BF12FA0EFE08D1BDE8D2
:102F50001040C9E7401C38BF5FEA4202CAD1C3E74C
:102F6000BDE810404FEA410313F5001F38BF70471A
:102F7000A1F1C04100F052B99EEA445F08D011EAC5
:102F80005E0FBDE8104004BF01F000410020704713
:102F9000BDE8104070B500F0F3F800BF64FBBE3E22
:102FA0000000E0FF4FEA1153A3F58063D3F11E0345
:102FB000A8BFD3F1200C08DB4FF0004242EAC12247
:102FC00052EA505232FA03F0704709420BD4102BE8
:102FD000C4BF0020704703F5787CBCF1FF3F05D0EB
:102FE0004FF0FF3070474FF00000704770B500F0B1
:102FF000C7F800BF4992248000207047F0E710F026
:10300000004248BF4042B0FA80F310FA03F10AD000
:10301000C3F11D0303F580634FEA415002EB0352F5
:1030200002EBD12170474FF000007047DFF848C134
:1030300070B51CEA111E1EBF1CEA13159EEA0C0F88
:1030400095EA0C0F00F06F8081EA030423EA4C1329
:103050004EEAD47E21EA4C1141F4801143F48013EE
:10306000AE44A1FB024CA0FB0365AEF17F7E361996
:1030700055EB0C05A1FB034C4CF10003A0FB021C1B
:1030800016EB0C06654153F10003094218BF46F0E8
:10309000010613F4007F0BD14FEA03314FEA0530EC
:1030A000340341EA155140EA16506FF003020AE07A
:1030B0004FEAC3214FEAC520F40241EA555140EAE4
:1030C00056506FF0020202EB2E4201EB025585EAE8
:1030D000CE710AD05FEA440C18BF24F0004450F1CE
:1030E000000041F1000120EAD47040F2FE7C62450C
:1030F00000D270BDA84214BF4FF080444FF040444E
:10310000002E08BF0024BEF1806FA8BFA1F1C0410E
:10311000BDE8704080F282804FF0000001F1C041B4
:1031200001F0004170479EEA0C0F0CEA131518BF1E
:1031300095EA0C0F06D04FF0000081EA030E0EF066
:10314000004170BD00F01CF88900013E00F007B896
:1031500000F009B84FEA430C5FEA5C5C08D081EAF2
:10316000030100F05BB84FEA410C5FEA5C5CF6D10A
:103170004FF00000014970470000FF070000F87F92
:103180000EF1020E2EF0030E5EF8046B364205D4EB
:10319000012A43EB030515F5001F12D8012841EB66
:1031A000010C1CF5001F0CD80ED14FEAD17C15F58F
:1031B000001F0CEB4C0C0CF1020C08BF4CEBD37C49
:1031C00004E04FF0080C01E04FEAD37C0CEB4C0517
:1031D00026FA05F606F00706B6F1040C06D20EEB49
:1031E000860CBDE870404CF0010C6047DFE80CF045
:1031F000090B02024FF000414FF00000A1F5002141
:1032000070BD19461046012851EB010418BFD4F5D2
:10321000001484BF002001F0004170BD0808A0F533
:1032200000114FEA310170472DE9F04101F5801C92
:10323000BCF5001FC0F2A9804FEA115C21EA0C51D5
:103240000CF1FD0C41F480115FEA5C0C0CF5C07CC4
:1032500001D34000494130A4890241EA90518702DC
:103260008E0E0A0CA45D04FB04F602FB06F6C6F102
:103270004046A4FB0662F60D46EA422606FB06F42B
:10328000A4FB01235242C3F1404338BF5B1EA6FB9F
:1032900002420024E6FB0324D20B42EA4446A6FB8A
:1032A0000623A1FB02E2A3FB07E4E3FB61426442C5
:1032B000C2F1404E38BFAEF1010EA6FB04234FF021
:1032C0000002E6FB0E32A2FB03463400E2FB62641E
:1032D000A1FB06E6A4FB07E8E4FB61687642C8F1BF
:1032E000405838BFA8F10108A2FB06E4A3FB08E59B
:1032F000E2FB6854A1FB05E6A7FB04E8E1FB64865A
:1033000018F1200556F10006A809A8F11B08B1091B
:1033100008F03F08B8F10A0F40EA86601CD901EBBB
:103320000C51BDE8F08100BFFCF5EEE8E2DDD8D33A
:10333000CFCBC7C3C0BDB9B6B4B1AEACA9A7A5A326
:10334000A19F9D9B9A9896959392908F8D8C8B8937
:103350008887868584838281A0FB006800FB01F258
:1033600008EB4208B8EB872807D5341858EB01045E
:10337000D5D5401C51F10001D1E7341A78EB010496
:10338000CDD4401E71F10001C9E75FEA4C0C5FEA41
:103390009C5C0DD105D34FF0000001F00041BDE869
:1033A000F081BDE8F04170B5FFF7EAFE6DDBFFBECE
:1033B000BDE8F0414FF00000004970470000F87F81
:1033C00010B591EA030F48BF83F000433FF54AADC3
:1033D000841A71EB030C07D212198CF0004C43EBEA
:1033E0000C03001B61EB0C01DFF8A4E14FEA115460
:1033F000A4EB135C1EEA430F18BF9EEA445F00F083
:10340000B08023EA6E03524221EA0451C3EB6E03FB
:1034100038BF5B1EDCF1200E25D322FA0CFE10EB28
:103420000E0043FA0CFE41EB0E01CCF1200E03FA24
:103430000EFE10EB0E0051F10001CCF1200E29D44C
:1034400012FA0EF201EB0451BDE8104058BF70476C
:10345000401C1CBFB2F1004F704700280CBF491C34
:1034600020F00100704712EB020E43EB030218BF7D
:103470004FF0010E4EEA4202ACF1200CDCF11E0EC0
:1034800054D943FA0CFE10EB0E0051F1FF31CCF190
:103490001E0ED5D50EF1010E12FA0EFE404141EB83
:1034A000010101EB445C5FEA5C5C10D910EBDE705B
:1034B00001EB045138BFBEF1004FBDE8104018BF0A
:1034C000704700280CBF491C20F00100704730D223
:1034D0004FEAD42C11F5001124F400641BD0B1FA8A
:1034E00081F20B3AA41AA41ED2F12003914030FAC3
:1034F00003F31943904001EBCC71002C01EB045114
:10350000BDE81040A8BF704701F1C0414FF0000076
:1035100001F000417047B0FA80F310FA03F100D1D6
:1035200010BDE41A173C4805C90AE4E701EB045151
:1035300010BD491001EB0451BDE810404FEA3000C6
:1035400002E04FF0000170474A0008BF0042F8D087
:10355000B2F5001F28BF704701F000414FF0000096
:1035600070479EEA445F07D011EA5E0FBDE8104045
:1035700004BF002100207047BDE8104070B5FFF780
:10358000FFFD00BF40DFF63E83F00041104670476C
:103590000000E0FF4FF04070E1EE100A70470000BD
:1035A00000000000000800100008001000100000DB
:1035B00000040008000C00080000000000000010DB
:1035C000000000100008001000080010000C000CA3
:1035D000000C000C000800080008000800000008AB
:1035E00000080008000C0004000C000400080000A3
:1035F0000008000000000000B80BE803D00720031B
:10360000D0072003B0047805B0047805E803280A41
:10361000E803280AB004800CB004800CD007D80E50
:10362000D007D80EB80B100EB0042003B004D80E8B
:10363000B00420039808B0049808B004280AD00702
:10364000280AD0079808B80B9808B80BB004800C6B
:10365000B0042003B004D80EB0042003B80B20033C
:10366000B004FC08280AFC08B004D80EB80BD80E29
:10367000B004DF0CB0042701B004DF0CB80BDF0C82
:10368000B0040307280A0307B80BB004D0072003CF
:10369000D0072003B0047805B0047805E803280AB1
:1036A000E803280AB004800CB004800C9808D80EF7
:1036B0009808D80EB80B100EC409C409B80BC40979
:1036C000B0042003B004D80EB80B2003B80BD80EFA
:1036D000B004FC08B80BFC08D0072003F00A200354
:1036E000600920036009D80ED007D80EF00AD80E62
:1036F0007805DF0C480DDF0C6009DF0C600947041A
:1037000060094704D007EF01B0042003B004D80ECD
:10371000B80B2003B004FC08B004FC08B80BD80EAA
:10372000B004DF0CB0042701B0042701B80B270157
:10373000B004DF0CB0042701B004DF0C98082F0898
:1037400098082F08B80BDF0CB80BDF0CB80B27015B
:10375000B004DF0CB0042701B004DF0CB80B270164
:10376000B80BDF0CB80B2701D007DF0CB80B4F0BE1
:10377000B80B4F0B800CD705800CD705280AEF013A
:10378000280AEF0140067F0340067F0378052F08D3
:1037900078052F08D007DF0CB004DF0CB004270138
:1037A000B004DF0C280AB30B280AB30BB0042F08AF
:1037B000D007DF0CB80B4F0BB80B4F0B800CD705A5
:1037C000800CD705280AEF01280AEF0140067F0385
:1037D00040067F0378052F0878052F08D007DF0CF7
:1037E000C4094704800C2701B004DF0CB004270192
:1037F000B004DF0C280AB30B280AB30BB0042F085F
:10380000B0042F08B80B270100040000000C0004CE
:10381000000C00040004000C0004000C000C00105C
:103820007805DF0C480DDF0C6009DF0C600927010B
:10383000B004DF0CB0047F03B0047F0398082701B5
:1038400098082701800C7F03800C7F03800CDF0C1D
:10385000B004DF0C9808270198082701800CDF0CC2
:10386000B004DF0C400627014006270198082F0806
:1038700098082F08F00A2701F00A2701800CDF0CB6
:10388000B004DF0C800C2701800CDF0CB004270192
:10389000B004DF0C98086707800CDF0C98086707F6
:1038A0009808670798082701B004DF0C800CDF0C2C
:1038B000800CDF0CB0042701B0042701800C270125
:1038C000B004DF0CB80BDF0CB80BDF0CB80B270112
:1038D000B80B2701B0042701B0042701B004DF0CA6
:1038E0003408DF0C34082701B004DF0CB80BDF0C00
:1038F000B80BDF0CB80B0307B80B0307B0040307C2
:10390000B0040307B0042701B0042701B80B270156
:10391000B004DF0CB80BDF0CB80BDF0CB80B2701C1
:10392000B80B2701B0042701B0040307B80B030745
:10393000B004DF0CB0040307B0040307B80B03079F
:10394000B80BDF0CB80B2701B80BDF0CB004DF0C91
:10395000B004DF0CB0040307B0040307B80B03077F
:10396000B80B0307B80B2701B80B2701B0042701D8
:10397000B80BDF0CB004DF0CB004DF0CB00427017F
:10398000B0042701B80B2701B80B2701B80B0307B8
:10399000B80B0307B0040307B004DF0CB80BDF0C4F
:1039A000B80BDF0CB80B2701B004DF0CB80BDF0C31
:1039B000B80BDF0CB80B2701B80B2701B0042701A7
:1039C000B0042701B004DF0CB0040307B80B0307F1
:1039D000B80B2701B80BDF0CB80BDF0CB004DF0C01
:1039E000B004DF0CB0040307B0040307B80B0307EF
:1039F000A0350008B8350008F8350008283600085A
:103A0000503600087036000888360008C0360008B6
:103A1000D8360008F03600080837000820370008BC
:103A2000303700085037000868370008983700081A
:103A3000B0370008E83700080838000820380008C8
:103A40003038000850380008603800088038000816
:103A500090380008A8380008C0380008E03800088E
:103A6000E8380008103900083039000848390008E3
:103A70007039000898390008A8390008D0390008C2
:103A800003080605040307030303030204030603F4
:103A900007040302040204020303040105040305EE
:103AA00005020504000000000000000001020304FC
:103AB00006070809000000000102030404000008D2
:103AC00000000000000000020001000010000000E3
:103AD000F03A00080000002048000000C40100087F
:103AE000383B00084800002078090000E001000889
:103AF00000000000000000000000000000000000C6
:103B0000E803000064006400000000000000000002
:103B100000000000000000000000000000000000A5
:103B2000FF00000000000000000000001000000086
:083B3000010000000024F40074
:040000050800018965
:00000001FF
