:020000040800F2
:100000003015002079020008D94400081940000882
:10001000D54400081B0800086957000800000000CC
:10002000000000000000000000000000095100086E
:100030006511000800000000DD4400080B510008B5
:10004000930200089302000893020008930200083C
:10005000930200089302000893020008930200082C
:10006000731100089302000893020008930200082D
:10007000930200089302000893020008930200080C
:1000800093020008930200089302000893020008FC
:1000900093020008930200089302000893020008EC
:1000A00093020008930200089302000893020008DC
:1000B00093020008E151000893020008930200082F
:1000C00093020008930200089302000893020008BC
:1000D00093020008930200089302000893020008AC
:1000E00067110008930200089302000893020008B9
:1000F00093020008F15100089302000893020008DF
:1001000093020008294500089302000893020008A2
:10011000930200089302000893020008930200086B
:1001200093020008930200089302000821080008C7
:10013000930200089302000893020008930200084B
:10014000930200089302000893020008930200083B
:100150009302000831080008930200089302000887
:10016000930200089302000893020008930200081B
:1001700093020008930200089302000800000000A8
:10018000930200089302000800F002F800F065F8FE
:100190000AA090E8000C82448344AAF10107DA45E2
:1001A00001D100F05AF8AFF2090EBAE80F0013F0CF
:1001B000010F18BFFB1A43F00103184724A40000E5
:1001C00044A4000010F8013B0A4413F0030408BFE4
:1001D00010F8014B1D1108BF10F8015B641E05D01B
:1001E00010F8016B641E01F8016BF9D1002D15D0D8
:1001F00010F8014B03F00C030C2BA1EB04040ABF15
:1002000010F8013BA4EB8314A4EB032405F10103D4
:1002100014F8016B5B1E01F8016BF9D5914238BFF0
:1002200010F8013BD1D3704700230024002500269D
:10023000103A28BF78C1FBD8520728BF30C148BF49
:100240000B607047642900F0F780002070471FB5ED
:1002500009F03CFA1FBD10B510BD00F049FA114677
:10026000FFF7F5FF07F0BCFE00F067FA03B4FFF7F5
:10027000F2FF03BC00F06AFA0948804709480047CA
:10028000FEE7FEE7FEE7FEE7FEE7FEE7FEE7FEE746
:10029000FEE7FEE704480549054A064B70470000A3
:1002A000CD51000889010008300F002030150020D2
:1002B000301100203011002053EA020C00F0698058
:1002C0002DE9F04B4FF00006002B1FBFB3FA83F56A
:1002D00003FA05F424FA05F65E4012BF1643B2FA9B
:1002E00082F502FA05F4C5F120051EBF22FA05FCCD
:1002F00044EA0C04203556EA044C4FEA144418BF73
:10030000641C4FF000084FF00009904271EB030CA1
:1003100039D3002919BFB1FA81F701FA07F6B0FA0B
:1003200080F700FA07F6C7F120071EBF20FA07FC86
:1003300046EA0C062037B6FBF4FCA7EB0507103F96
:1003400007F01F0BCBF120060CFA0BFB2CFA06F67C
:1003500044BFB3460026202FA4BF5E464FF0000BDB
:100360005BEA060C08BF4FF0010B19EB0B09ABFB66
:10037000027C48EB0608C01B06FB02CC0BFB03CC3F
:1003800071EB0C01C1E70B46024641464846BDE809
:10039000F08B13B54FF000004FF00001AFF3008079
:1003A000BDE81C40704700000FB41CB5074B06AAFF
:1003B0007B4469460090059800F057F90020694693
:1003C00000F066F91CBC5DF814FB0000DD020000C3
:1003D0002DE9F0410E460446002020622046E168E7
:1003E000884730B3252805D0D4E901219047206AF9
:1003F000401CF2E7E168204600278847050018D036
:10040000A5F14100192802D820354FF40067324683
:10041000294620462760FFF715FF40B1012804D088
:10042000F61D26F007060836D8E7361DD6E728461B
:10043000DAE7206ABDE8F0812DE9F04106460024A4
:1004400010687529314616A510D0AFF3008000283A
:1004500002DA404213A507E031688A0701D512A5E8
:1004600002E0490704D511A5012401E0AFF30080A3
:1004700000210A2206F1240709E0B0FBF2FCB0FBE0
:10048000F2F302FB1C00303078541846491C002857
:10049000F3D123462A463046BDE8F04100F087B844
:1004A000000000002D0000002B00000020000000D4
:1004B00010B5431C02E010F8011B71B18107FAD19D
:1004C0004FF0013202C88C1A8C4314EAC211F9D0E1
:1004D000C01A0A0603D0C01E10BDC01A10BD0A04FF
:1004E00001D0801E10BD0902FCD0401E10BD4FF08F
:1004F000000200B5134694469646203922BFA0E874
:100500000C50A0E80C50B1F12001BFF4F7AF09077F
:1005100028BFA0E80C5048BF0CC05DF804EB890070
:1005200028BF40F8042B08BF704748BF20F8022BB3
:1005300011F0804F18BF00F8012B704710B504462A
:1005400010F0030F08BF11F0030F40F015804FF0BB
:10055000013E121FC0F20E8051F8043BA3EB0E0CBB
:100560002CEA030C1CEACE1C08BF40F8043BF0D078
:10057000A1F1040102F10402521E08DB11F8013B53
:10058000002B00F8013BF7D1114600F086F8204619
:1005900010BD70477047704710B500F0A1F80068B3
:1005A00010BD10B5044600F09BF8046010BD2DE9A5
:1005B000F0470D4699469246044600F1240801682A
:1005C000880604D5E06921F01001216000E00120D7
:1005D000A84201DD471B00E00027A1697A1902EB60
:1005E0000900081AA0612078C00602D42046AFF3A3
:1005F0000080002608E0D4E901211AF8060090479F
:10060000206A401C761C20624E45F4DB2078C00630
:100610000AD52046AFF3008006E0D4E9012130205E
:100620009047206A401C2062381EA7F10107F4DCC5
:1006300007E0D4E9012118F805009047206A401C22
:100640002062281EA5F10105F3DC2046AFF30080EF
:100650002078000602D50220BDE8F0870120FBE7E4
:1006600001694A1C02610878704700B58FB0CDE976
:1006700001310021059105497944CDE90310114666
:100680006846FFF7A5FE0FB000BD0000E5FFFFFFC5
:100690000A6802F8010B0A6070474FF00002042953
:1006A000C0F0128010F0030C3FF423AFCCF1040C27
:1006B000BCF1020F18BF00F8012BA8BF20F8022BD5
:1006C000A1EB0C01FFF715BF5FEAC17C24BF00F866
:1006D000012B00F8012B48BF00F8012B70470000E8
:1006E00000487047D00E002000487047D00E002010
:1006F0007546FFF7F9FFAE4605006946534620F000
:100700000700854618B020B5FFF7C4FDBDE82040BE
:100710004FF000064FF000074FF000084FF0000BBD
:1007200021F00701AC46ACE8C009ACE8C009ACE870
:10073000C009ACE8C0098D46704710B50446AFF358
:1007400000802046BDE81040FFF790BD0149182009
:10075000ABBEFEE7260002007047704710B50446A6
:100760002146024802F0E0F810BD0000A00B002076
:1007700010B5044802F0EBF8042801D0012010BDA8
:100780000020FCE7A00B002010B5002400F00CF8BE
:10079000012801D0012010BD024802F0F9F90446F9
:1007A0002046F8E7A00B002008B5012000909DF836
:1007B000000008BD2DE9F84304460D4616461F46C5
:1007C0004FF0000833462A4621460548009702F0BC
:1007D00017FB08B14FF001084046BDE8F883000060
:1007E000A00B0020704700002DE9F84304460D4699
:1007F00016461F464FF0000833462A462146054854
:10080000009702F059FC08B14FF001084046BDE8DE
:10081000F8830000A00B0020704700BFFEE7000037
:1008200010B5024800F0E0FE10BD0000240C0020CE
:1008300010B5024800F0D8FE10BD0000840C002066
:100840000146087810381823B0FBF3F20848805CA2
:10085000C865032A05D908686FF30900001D88657B
:1008600003E008686FF309008865886D7047000031
:10087000C2A00008014600208A6A8B69CBB932B158
:10088000012A0DD0022A03D0032A10D10EE000BFA6
:10089000CB6A03F08073B3F1807F00D1012007E0C1
:1008A000CB6AB3F1C07F00D1012001E000E000BFBE
:1008B00034E08B69B3F5005F1AD132B1012A07D059
:1008C000022A03D0032A11D10AE000BF01200EE062
:1008D000CB6A03F08073B3F1807F00D1012006E082
:1008E000CB6AB3F1C07F00D1012000E000BF15E06A
:1008F00032B1012A05D0022A04D0032A0CD103E028
:1009000000BF00BF012008E0CB6A03F08073B3F1A1
:10091000807F00D1012000E000BF00BF70470000D1
:100920002DE9FC5F81460E4617469846DDE90C5AD4
:100930004FF0FF3400200AE000EB800101EBC00122
:100940005B4A12F8211009B9044602E0401C08284D
:10095000F2DB00BF002C02DA0020BDE8FC9F04EBB4
:10096000840101EBC401524A02EB8101481C1F22A1
:100970004946FFF7E3FD002104EB840000EBC400CF
:100980004B4A02EB800080F8201004EB840000EB5F
:10099000C400114601EB8000476204EB840000EBC9
:1009A000C40001EB8000C0F8288004EB840000EB59
:1009B000C40001EB8000858504EB840000EBC400DB
:1009C00001EB8000A0F82EA004EB840000EBC40033
:1009D00001EB80000686012004EB840101EBC401D9
:1009E00002F82100334890F90000401C00285CD137
:1009F00060B23049087000202F4908702F48076006
:100A000010E04FF4FA606843642190FBF1F0304449
:100A10002A49096808442949086027480078401C89
:100A20002549087004EB840000EBC400204901EB69
:100A30008000401C20490978405C2028E1D004EB6C
:100A4000840000EBC4001A4901EB8000401C1A49E5
:100A50000978405C48B304EB840101EBC401144AFB
:100A600002EB8101491C144A1278885C07F0B6FE3B
:100A7000D8B16B4601AA124801781248006805F007
:100A8000EFFE01986843642190FBF1F00B4909687F
:100A9000A1EB000B0FFA88F10FFA8BF000F054F87D
:100AA0005146284600F05AF800BF012055E70000E3
:100AB000F802002030000020310000203400002027
:100AC000080000200400002010B5002008E00021EC
:100AD00000EB800202EBC0020D4B03F82210401C19
:100AE0000828F4DBFF200B49087000200A49087031
:100AF0004FF4006300221146084800F009FD4FF44E
:100B0000006300221021054800F002FD10BD000026
:100B1000F8020020300000200E000020380B0020DA
:100B200010B5044606480460FFF7CEFF00210548D3
:100B300000F007FD1021034800F003FD10BD000088
:100B400010000020380B0020024A1060024A116099
:100B500070470000180000201C00002000B9012090
:100B600001B90121024A1080024A11807047000039
:100B700014000020160000202DE9F0472DED0E8B0B
:100B800084B00446FA492068884204D004B0BDEC21
:100B90000E8BBDE8F087F74890F90000401C00B9C3
:100BA000F4E7F548007800287ED10120F24908706A
:100BB000F2480068F249097830F83170EF4800686F
:100BC000EF49097800EBC100B0F80280EB480068FB
:100BD000EB49097800EBC100B0F80490E7480068E1
:100BE000E749097800EBC100B0F806A0E5480088A5
:100BF0007843642190FBF1F0E34909680844E34934
:100C00000860E348008808FB00F0642190FBF1F0E5
:100C1000E04909680844E0490860DA48008809FBAF
:100C200000F0642190FBF1F0D74909680844DB49E2
:100C30000860D74800880AFB00F0642190FBF1F0BF
:100C4000D44909680844D6490860D048006800289B
:100C500002DA0020CD490860CC480068B0F5805F1A
:100C600003DB40F6FF70C9490860CC4800680028E3
:100C700002DA0020C9490860C8480068B0F5805F02
:100C800003DB40F6FF70C5490860C34800680028D0
:100C900002DA0020C0490860BF480068B0F5805FF4
:100CA00005DB40F6FF7000E06BE0BB490860BC4824
:100CB0000068002802DA0020B9490860B8480068D6
:100CC000B0F5805F03DB40F6FF70B5490860AF48C0
:100CD0000068B2490968451AAF480068B049096818
:100CE000461A304608F0A9F941EC1D0B304608F0D1
:100CF000A4F941EC1E0B53EC1D2B08F0F1F941EC6B
:100D00001B0B284608F099F941EC1D0B284608F00A
:100D100094F941EC1E0B53EC1D2B08F0E1F941EC6A
:100D20001C0B53EC1B2B07F017FF41EC1A0BB0EE1A
:100D30004A0AF0EE6A0A05F077FBB0EE409AF0EE50
:100D4000609A9FED980B53EC102B51EC190B08F0A7
:100D5000C7F941EC180B08F043F9944908800020CA
:100D6000934908808948002211460368914800F0A1
:100D7000CFFB89480022102103688E4800F0C8FB91
:100D8000DAE17D480078012853D189480088401C69
:100D9000874908800846008884490988884203DD1D
:100DA000022075490870C7E1804800880028E7D014
:100DB0007E4800887E490988401A7449096848437A
:100DC000764909687A4A128801FB02007749098846
:100DD00090FBF1F57548008875490988401A6E49FD
:100DE000096848436E490968714A128801FB02008C
:100DF0006E49098890FBF1F6002D00DA0025B5F563
:100E0000805F01DB40F6FF75002E00DA0026B6F5A4
:100E1000805F01DB40F6FF762B46002211466548D5
:100E200000F076FB334600221021624800F070FB90
:100E300082E1514800780228A2D151480078401C34
:100E40005D49097890FBF1F201FB12004C490870F2
:100E50000020494908704A480078002890D102AB28
:100E600003AA554801784548006805F0F9FCDDE91A
:100E70000201461A3F4890F9000000EB800101EBA7
:100E8000C0004E4901EB8000808D7043642190FBCF
:100E9000F1F7384890F9000000EB800101EBC00049
:100EA000464901EB8000008E3844454909680844F2
:100EB0004349086043480078401C4249087026E0D6
:100EC0002C4890F9000000EB800101EBC0003B4989
:100ED00001EB8000808D4FF4FA614843642190FB60
:100EE000F1F0244991F9001001EB810202EBC101FC
:100EF000324A02EB8101098E0844314909680844ED
:100F00002F4908602F480078401C2E4908702D4852
:100F1000007820280FDA174890F9000000EB8001D4
:100F200001EBC000254901EB8000401C25490978F0
:100F3000405C2028C4D02348007820280FDA0D48D0
:100F400090F9000000EB800101EBC0001B4901EBB0
:100F50008000401C1B490978405C00287ED105496F
:100F600091F9001001F1010C4FF0FF30002141E038
:100F700000200040300000200E000020040000206F
:100F8000090000201400002018000020200000208C
:100F9000160000201C000020240000202800002053
:100FA0002C000020000000000000F03F0C0000209A
:100FB0000A000020380B002008000020F802002062
:100FC00034000020310000200CEB01024FEAE278EF
:100FD00002EB58784FEAE808A2EBC80303EB830260
:100FE00002EBC302DFF8548118F822200AB1184638
:100FF00002E0491C0829E7DB00BF411C79B341B27C
:101000004F4A117000214F4A117000EB800101EB33
:10101000C0014A4A02EB8101496A4B4A116023E050
:1010200000EB800101EBC001444A02EB8101898D94
:101030004FF4FA625143642291FBF2F100EB80021B
:1010400002EBC0023D4B03EB8202128E11443E4A7A
:10105000126811443C4A11603A4901E017E011E07E
:101060000978491C374A117000EB800101EBC0017F
:10107000324A02EB8101491C324A1278895C2029EC
:10108000CED003E0FF212E4A11707FE500BF2C482F
:1010900090F9000000EB800101EBC000274901EB53
:1010A0008000401C27490978455C284607F096FBDC
:1010B000F0B3234890F9000000EB800101EBC00081
:1010C0001E4901EB8000808D204908801C4890F962
:1010D000000000EB800101EBC000184901EB80002B
:1010E000C08D1B4908806B4601AA1A4801781A482E
:1010F000006805F0B5FB154909880198484364214B
:1011000090FBF1F010490988A1EB00080FFA88F074
:10111000124908600A4890F9000000EB800101EBD9
:10112000C000064901EB8000008D00B20C4900E0D0
:1011300001E0086000BF00BF00BF27E5F802002003
:101140003000002031000020340000201400002076
:1011500016000020080000200400002018000020D5
:101160001C000020704710B54FF4005000F040FC08
:1011700010BD10B5042000F03BFC10BD07E04FF49B
:101180000061034800F03CFD642000F0C3FBF6E77B
:101190000004024030B504460D4600222946204690
:1011A00000F002F830BD0000F0B503460125002430
:1011B0001148407A01281CDA00200F4E767A0E4F33
:1011C000B8553846467A001D40F82630001F467A4A
:1011D000083082553E46707A461C7E72044604F101
:1011E000300008703A2048702F2088700020C870A6
:1011F00000252846F0BD0000C40E002070B504464E
:101200000CB9012070BD94F8200010B9204600F000
:10121000AFF82068006840F001002168086000F025
:10122000FFFC05460DE000F0FBFC401B0A2808D936
:10123000606A40F400306062052084F820000120DC
:10124000E0E72068406800F001000028EBD020684B
:10125000006820F002002168086000F0E1FC05460B
:101260000DE000F0DDFC401B0A2808D9606A40F45C
:1012700000306062052084F820000120C2E7206869
:10128000406800F002000028EBD1207E012806D142
:101290002068006840F080002168086005E0206850
:1012A000006820F0800021680860607E012806D177
:1012B0002068006840F040002168086005E0206870
:1012C000006820F0400021680860A07E012806D157
:1012D0002068006840F020002168086005E0206870
:1012E000006820F0200021680860E07E012806D117
:1012F0002068006820F010002168086005E0206880
:10130000006840F0100021680860207F012806D1A5
:101310002068006840F008002168086005E0206847
:10132000006820F0080021680860607F012806D16D
:101330002068006840F004002168086005E020682B
:10134000006820F0040021680860D4E90201084325
:1013500021690843616908436168491E084321689F
:10136000C86100206062012084F82000002049E765
:1013700010B586B00446142101A8FFF7B8F81B4940
:101380002068884230D100BF0020009018480068D3
:1013900040F00070164908600846006800F00070D0
:1013A000009000BF00BF00BF002000901048103820
:1013B000006840F001000E491039086008460068D6
:1013C00000F00100009000BF00BF4FF4C05001903A
:1013D0000220029000200390032004900920059031
:1013E00001A9044800F012FB06B010BD00640040E3
:1013F0004038024000000240F0B50346002603B129
:1014000009B90120F0BD00BF5879012801D102209F
:10141000F8E70120587100BF0220187118680468AD
:1014200002F0100740F6FE70B8408443D1E900078F
:1014300040EA070502F0100005FA00F004431868BE
:1014400004601868006802F0100CC02707FA0CF757
:10145000B8431F6838600120187100BF0020587120
:1014600000BF3046CEE710B504460CB9012010BDD0
:10147000207920B900206071204600F009F8022090
:10148000207100202061012020710020EFE7000082
:1014900010B586B00446142101A8FFF728F81949B1
:1014A000206888422BD100BF0020009016480068B9
:1014B00040F00050144908600846006800F00050F1
:1014C000009000BF00BF00BF002000900E48103801
:1014D000006840F001000C491039086008460068B7
:1014E00000F00100009000BF00BF302001900320F9
:1014F00002900020039001A9044800F087FA06B08A
:1015000010BD00000074004040380240000002405E
:1015100038B50446002000900CB9012038BD206881
:10152000009029B902F10800009D2844009004E0D1
:1015300002F11400009D28440090009803600020F0
:10154000ECE710B502460AB9012010BD00BF507982
:10155000012801D10220F8E70120507100BF0220CC
:1015600010711068006801F010040123A3401843B3
:101570001368186061B91068006800F03C003C28EE
:1015800016D11068406840F00100136858600FE001
:101590001068006800F4701301F010043C20A040B3
:1015A000834205D11068406840F00200136858601B
:1015B0000120107100BF0020507100BF00BFC4E7C0
:1015C000014691F83500022803D0802048650120AB
:1015D0007047052081F835000868006820F0010098
:1015E0000A6810600020F3E7F8B504460020009078
:1015F0008C4800684FF41651B0FBF1F7A56D2E68CA
:1016000094F85C1008208840304098B12068006849
:1016100000F0040070B12068006820F00400216828
:10162000086094F85C1008208840A860606D40F065
:101630000100606594F85C1001208840304068B17A
:101640002068406900F0800040B194F85C100120EF
:101650008840A860606D40F00200606594F85C10FE
:1016600004208840304068B12068006800F0020023
:1016700040B194F85C1004208840A860606D40F090
:101680000400606594F85C1010208840304078B306
:101690002068006800F0080050B394F85C10102037
:1016A0008840A8602068006800F4802080B120682D
:1016B000006800F4002028B9206CC8B12046216CD5
:1016C000884715E0A06C98B12046A16C88470FE0D0
:1016D0002068006800F4807028B92068006820F055
:1016E000080021680860206C10B12046216C8847F2
:1016F00094F85C10202088403040002865D0206895
:10170000006800F0100000285FD094F85C102020E2
:101710008840A86094F83500052828D12068006822
:1017200020F01600216808602068406920F08000E1
:1017300021684861206C08B9A06C28B12068006855
:1017400020F008002168086094F85C103F20884071
:10175000A860012084F8350000BF002084F8340020
:1017600000BF206D10B12046216D8847F8BD20686C
:10177000006800F4802080B12068006800F4002038
:1017800028B9606C10B12046616C88471DE0E06BA1
:10179000D8B12046E16B884717E02068006800F464
:1017A000807068B92068006820F010002168086027
:1017B000012084F8350000BF002084F8340000BF09
:1017C000E06B10B12046E16B8847606D38B3606D07
:1017D00000F00100F0B1052084F8350020680068B1
:1017E00020F001002168086000BF0098401C0090B4
:1017F000B84200D905E02068006800F00100002828
:10180000F3D100BF012084F8350000BF002084F828
:10181000340000BFE06C10B12046E16C884700BF87
:10182000A4E70000E40200202DE9F0410446002571
:1018300000F0F6F9074614B90120BDE8F081606AAE
:1018400000B100BF022084F8350000BF002084F8FA
:10185000340000BF2068006820F0010021680860A3
:101860000AE000F0DDF9C01B052805D920206065DD
:10187000032084F83500E0E72068006800F00100EC
:101880000028EED12068056821480540D4E901010F
:101890000843E16808432169084361690843A16975
:1018A0000843E1690843216A08430543606A042844
:1018B00003D1D4E90B010843054320680560206883
:1018C000456925F00705606A0543606A04280DD163
:1018D000A06A0543E06A48B12046FEF7CBFF28B175
:1018E00040206065012084F83500A6E72068456146
:1018F0002046FEF7A5FF064694F85C103F2088407E
:10190000B06000206065012084F83500002094E775
:101910003F8010F070B5044600F082F90646254677
:10192000681C10B104480078054400BF00F078F945
:10193000801BA842FAD370BDE002002070B50446B7
:10194000B4F5005F1AD100F06BF905462248006833
:10195000281A642811D921480078401C1F490870B2
:1019600008460078032801D1002008701B48007841
:10197000022802D100201A49086000BF042C25D19A
:1019800000F04EF9054614480068281A64281CD94E
:1019900014480078401C13490870084600780A284B
:1019A00001DD00200870002003E000210E4A1154E0
:1019B000401C0A28F9DB002003E05A210A4A11548E
:1019C000401C084909788842F7DB00BF07480068D7
:1019D0000149086070BD00003C0000204400002068
:1019E0004C00002050000020C802002040000020D1
:1019F00010B5044604480068204020B10248046045
:101A00002046FFF79BFF10BD143C0140F8B502468D
:101A10000B460025002400200021D6E0012606FA0E
:101A200001F51E6806EA0504AC4274D11E7906F081
:101A30000306012E04D01E7906F00306022E13D1F0
:101A400090684F000326BE40B0434F00DE68BE40A2
:101A500030439060506801268E40B0431E79C6F333
:101A600000168E40304350601E7906F00306032EA8
:101A700009D0D0684F000326BE40B0434F009E6897
:101A8000BE403043D0601E7906F00306022E13D10B
:101A9000CF0802F1200656F827004E07F70E0F2652
:101AA000BE40B0434F07FF0E1E69BE403043CF0813
:101AB00002F1200646F8270010684F000326BE40BA
:101AC000B0431E7906F003064F00BE40304310605D
:101AD0005E6806F44036002E76D000BF00260096E1
:101AE0003C4E366846F480463A4F3E603E46366885
:101AF00006F48046009600BF00BF374E8F0856F8A8
:101B000027008E07370F0F26BE40B043334EB24238
:101B100002D1002624E057E0314EB24201D1012625
:101B20001EE0304EB24201D1022619E02E4EB242E2
:101B300001D1032614E02D4EB24201D104260FE05C
:101B40002B4EB24201D105260AE02A4EB24201D103
:101B5000062605E0284EB24201D1072600E00826FD
:101B60008F073F0FBE4030431B4E8F0846F82700BB
:101B7000224E3068A0435E6806F4801606B120430A
:101B80001E4E3060361D3068A0435E6806F40016B5
:101B900006B12043194E361D3060184E361F30688E
:101BA000A0435E6806F4003606B12043134E361F8C
:101BB0003060361F3068A0435E6806F4803606B198
:101BC00020430E4E083E3060491C1029FFF426AF1A
:101BD000F8BD0000443802400838014000000240CF
:101BE0000004024000080240000C024000100240C5
:101BF0000014024000180240001C0240083C014052
:101C000010B5426921EA020302EA010443EA0443EF
:101C1000836110BD0AB1816101E00B0483617047EB
:101C20000148006870470000D802002070B50446E3
:101C30000CB9012070BD94F83D0028B9002084F84B
:101C40003C00204600F0DAF8242084F83D002068AB
:101C5000006820F00100216808602068006840F4F6
:101C60000040216808602068006820F40040216876
:101C7000086000F0A9FA05465C496068884206D809
:101C80005B48854201D2012007E0002005E0594869
:101C9000854201D2012000E00020012800D1C9E7DF
:101CA0005548B5FBF0F62068406820F03F0030430F
:101CB000216848604D496068884201D8701C07E07F
:101CC0004FF4967070434FF47A71B0FBF1F0401C02
:101CD0002168096A21F03F010843216808624349ED
:101CE0006068884214D8681E61684900B0FBF1F052
:101CF000401CC0F30B00042801D204203DE0681E04
:101D000061684900B0FBF1F0401CC0F30B0034E007
:101D1000A06838B9681E616801EB4101B0FBF1F0C1
:101D2000401C0AE0681E616801EBC10202EB011170
:101D3000B0FBF1F0401C40F48040C0F30B0008B948
:101D400001201AE0A06848B9681E616801EB4101F2
:101D5000B0FBF1F0401CC0F30B000CE0681E6168A2
:101D600001EBC10202EB0111B0FBF1F0401CC0F32A
:101D70000B0040F4804040F400402168C9694CF6F3
:101D8000FF72914308432168C861D4E90701084301
:101D90002168096821F0C001084321680860D4E97E
:101DA000031008432168896848F2FF3291430843D1
:101DB00021688860D4E9050108432168C96821F0D9
:101DC000FF0108432168C8602068006840F00100F6
:101DD0002168086000202064202084F83D00002055
:101DE000206384F83E0000BF24E70000A0860100C5
:101DF00080841E0000093D0040420F0010B586B0EF
:101E00000446142101A8FEF772FB1B492068884292
:101E10002FD100BF002000901848006840F0020059
:101E2000164908600846006800F00200009000BFF4
:101E300000BFC020019012200290002003900320D8
:101E400004900420059001A90D48FFF7DFFD00BFB5
:101E50000020009009481030006840F40010074945
:101E6000103108600846006800F40010009000BFC0
:101E700000BF06B010BD00000054004030380240E2
:101E800000040240034800680349097808440149F6
:101E900008607047D8020020E002002010B50D480D
:101EA000006840F400700B4908600846006840F480
:101EB000806008600846006840F480700860032075
:101EC00000F0A6F80F2000F007F800F02BF8002033
:101ED00010BD0000003C024070B504460E4800787A
:101EE0004FF47A71B1FBF0F00C490968B1FBF0F5E1
:101EF000284601F0C5FA08B1012070BD102C07D2A8
:101F000000222146501E00F045F80548046001E01B
:101F10000120F2E70020F0E7E0020020E4020020C8
:101F2000DC02002008B500BF002000900E480068C9
:101F300040F480400C4908600846006800F4804086
:101F4000009000BF00BF00BF00200090081F006885
:101F500040F08050091F08600846006800F080507B
:101F6000009000BF00BF08BD44380240014608464B
:101F700000280DDB00BF00BF00F01F0301229A40C4
:101F800043099B0003F1E023C3F8002100BF00BF19
:101F900000BF70472DE9F05F80460D4616460027CA
:101FA00003F0FCFB074639462A46334601F007009A
:101FB000C0F1070ABAF1040F02D94FF0040A01E098
:101FC000C0F1070AD14600F1040ABAF1070F02D2A4
:101FD0004FF0000A01E0A0F1030AD4464FF0010AD5
:101FE0000AFA09FAAAF1010A0AEA020A0AFA0CFA3A
:101FF0004FF0010B0BFA0CFBABF1010B0BEA030BDF
:102000004AEA0B042146404603F0D0FBBDE8F09FAE
:1020100000BF00F00702064B19684FF6FF03194096
:10202000044B0B4343EA0221014B196000BF704788
:102030000CED00E00000FA0570B504460D460CB941
:10204000012070BD5848006800F00700A84209D27E
:1020500055490D700846006800F00700A84201D0FD
:102060000120EEE7207800F0020002281DD1207840
:1020700000F00400042805D14C48006840F4E0500A
:102080004A490860207800F00800082805D1474830
:10209000006840F46040454908604448006820F00A
:1020A000F000A168084341490860207800F0010071
:1020B000A8B36068012807D13C4808380068C0F31D
:1020C0004040B8B90120BCE76068022802D06068CF
:1020D000032807D1354808380068C0F3406048B984
:1020E0000120AEE7314808380068C0F3400008B965
:1020F0000120A6E72D48006820F00300616808432E
:102100002A490860FFF78CFD064609E0FFF788FDC5
:10211000801B41F28831884202D9032091E707E011
:102120002248006800F00C006168B0EB810FEDD12F
:102130001D48006800F00700A84209D91A490D702F
:102140000846006800F00700A84201D0012078E7A7
:10215000207800F00400042807D11448006820F417
:10216000E050E168084311490860207800F0080059
:10217000082808D10D48006820F46040216940EA31
:10218000C1000A49086000F03FF808490968C1F336
:102190000311074A515CC8400649086006480068B8
:1021A000FFF79AFE00204CE7003C0240083802404E
:1021B000CAA00008E4020020DC02002001480068F8
:1021C00070470000E402002000B5FFF7F7FF044964
:1021D0000968C1F38221034A515CC84000BD000078
:1021E00008380240DAA0000800B5FFF7E7FF04490D
:1021F0000968C1F34231034A515CC84000BD000088
:1022000008380240DAA000082DE9F0470024002534
:102210000026A1462548006800F00C0020B10428E3
:1022200005D008283AD105E0DFF8849039E0DFF8DE
:10223000849036E01D48001F006800F03F041B48F2
:10224000001F006800F4800078B11A481749091F80
:102250000968C1F38811A0FB0170014622460023E2
:102260003846FEF729F805460EE011480F49091FC8
:102270000968C1F38811A0FB0170014622460023C2
:102280003846FEF719F805460848001F0068C0F3F5
:102290000140401C4600B5FBF6F902E0DFF8109063
:1022A00000BF00BF4846BDE8F08700000838024084
:1022B0000024F40000127A00F8B504460CB901209D
:1022C000F8BD207800F00100002874D0F9480068BB
:1022D00000F00C0004280DD0F648006800F00C0057
:1022E000082813D1F348001F006800F48000B0F5FF
:1022F000800F0BD1EF4808380068C0F34040002839
:1023000059D06068002856D10120D9E700BF606825
:10231000B0F5803F08D1E7480838006840F48030C5
:10232000E449083908601EE06068B0F5A02F0DD1BF
:10233000E0480838006840F48020DE490839086029
:102340000846006840F4803008600CE0D94808383E
:10235000006820F48030D7490839086008460068D2
:1023600020F48020086000BF606890B1FFF758FC3F
:10237000054606E0FFF754FC401B642801D9032002
:102380009EE7CC4808380068C0F340400028F1D0F0
:1023900011E0FFF745FC054606E0FFF741FC401B56
:1023A000642801D903208BE7C24808380068C0F3CD
:1023B00040400028F1D1207800F0020002285FD1CF
:1023C000BC48006800F00C0058B1BA48006800F042
:1023D0000C0008281CD1B748001F006800F48000DA
:1023E000B0B9B44808380068C0F3400020B1E068D4
:1023F000012801D0012063E7AE480838006820F0CA
:10240000F800216940EAC100AA490839086037E0AC
:10241000E06800B30120A8490860FFF701FC054609
:1024200006E0FFF7FDFB401B022801D9032047E728
:10243000A04808380068C0F340000028F1D09D484B
:102440000838006820F0F800216940EAC100994985
:102450000839086014E0002097490860FFF7E0FBA6
:10246000054606E0FFF7DCFB401B022801D90320EC
:1024700026E7904808380068C0F340000028F1D1F2
:10248000207800F0080008282CD16069A8B101204C
:102490008A490860FFF7C4FB054606E0FFF7C0FB6A
:1024A000401B022801D903200AE782486C300068EB
:1024B000C0F340000028F1D014E000207F490860FC
:1024C000FFF7AEFB054606E0FFF7AAFB401B02281C
:1024D00001D90320F4E677486C300068C0F340006F
:1024E0000028F1D1207800F00400042870D10027E2
:1024F00070483830006800F0805090B900BF00206C
:1025000000906C483830006840F08050694938319C
:1025100008600846006800F08050009000BF00BFCF
:1025200001276748006800F48070B0B9644800680B
:1025300040F4807062490860FFF772FB054606E0D0
:10254000FFF76EFB401B022801D90320B8E65C4868
:10255000006800F480700028F2D000BFA068012855
:1025600008D154486830006840F001005149683192
:1025700008601DE0A06805280DD14E48683000684D
:1025800040F004004B49683108600846006840F09C
:10259000010008600CE047486830006820F0010046
:1025A0004449683108600846006820F0040008606B
:1025B00000BFA068A8B1FFF733FB054609E0FFF7AD
:1025C0002FFB401B41F28831884202D9032077E675
:1025D00026E0384868300068C0F340000028EED09C
:1025E00013E0FFF71DFB054608E0FFF719FB401B52
:1025F00041F28831884201D9032061E62D486830D4
:102600000068C0F340000028EFD1012F07D129480E
:102610003830006820F0805026493831086000BF0B
:10262000A069002845D02348006800F00C00082865
:102630005DD0A069022845D100201F490866FFF738
:10264000EFFA054606E0FFF7EBFA401B022801D936
:10265000032035E6174808380068C0F340600028BA
:10266000F1D1D4E907010843616A40EA81110122EE
:10267000A06AC2EB500041EA00412C20005D41EA13
:1026800000600C49091F086001200B490866FFF72C
:10269000C7FA054606E0FFF7C3FA401B022801D936
:1026A00003200DE6034808380068C0F340600028A6
:1026B000F1D049E00838024000004742800E47420E
:1026C00000700040002021490866FFF7A9FA05467E
:1026D00006E0FFF7A5FA401B022801D90320EFE529
:1026E0001B480068C0F340600028F2D12CE0A069CC
:1026F000012800D1E4E51648001D0668A0690128FC
:1027000020D006F48001E06981421BD106F03F0130
:10271000206A814216D147F6C0703040616AB0EB42
:10272000811F0FD106F440310122A06AC2EB500094
:10273000B1EB004F06D106F070612C20005DB1EBCB
:10274000006F01D00120BBE50020B9E50000474241
:102750000038024010B50446FDF7FFFF10BD70477A
:1027600010B50246506E800F0870506EC0F3836043
:102770004870506EC0F301608870506E000CC870D5
:10278000B2F86400000A087192F864004871906E13
:10279000000DC880906EC0F3034008726820805A14
:1027A000C0F3C03048726820805AC0F3803088720D
:1027B0006820805AC0F34030C8726820805AC0F345
:1027C0000030087300204873506C002836D1682010
:1027D000805A8005030DD06E43EA90700861D06E78
:1027E000C0F3C2600875D06EC0F302604875D06E49
:1027F000C0F342508875D06EC0F38240C875D06E69
:10280000C0F3C23008760869401C50650B7E506DDD
:1028100003F007039B1C01249C4060435065087A29
:1028200000F00F03012098409065D2E915035B0A80
:102830005843D0654FF40073136621E0506C0128B3
:1028400013D16820805C8006830AD06E43EA104072
:1028500008610869401C83025365536DD3654FF4CA
:1028600000739365936D13660AE02E4813689863AE
:10287000906B40F080509063012082F8340010BDCE
:102880006C20805AC0F3803001F8190F6C20805AF8
:10289000C0F3C61048706C20805C00F07F00887028
:1028A000106FC00FC870106FC0F341700871106FC7
:1028B000C0F382604871106FC0F383508871106F4D
:1028C000C0F34050C87100200872106FC0F3004080
:1028D00048727020805AC0F3C03088727020805ACD
:1028E000C0F38030C8727020805AC0F34030087343
:1028F0007020805AC0F3003048737020805AC0F3B3
:10290000812088737020805AC0F30120C873702022
:10291000805CC0F346000874012048741939002017
:10292000ADE70000FF0540000246506C0860906C67
:102930004860D06C8860106DC860506D0861906D03
:102940004861D06D8861106EC86100207047F8B58D
:102950000446002000906946204602F016FB05461A
:1029600015B1A06B2843A0630098C0F343263046FE
:10297000F8BD000070B50446256B2068406BC0F3BD
:10298000C03030B105F0080018B1204602F0D8FA86
:10299000F8E02068406BC0F30020002862D04FF4BC
:1029A0008070216888632068C06B4CF23A3188439C
:1029B0002168C8632068C06A20F001002168C862ED
:1029C00005F0080038B305F0020010B905F020004A
:1029D00050B1206801F034FF06462EB1A06B3043A1
:1029E000A0632046FFF7BBFE40F23A50216888639F
:1029F000012084F834000020206305F0010010B9A4
:102A000005F0020018B1204600F04CFBBAE0204669
:102A100000F04DFBB6E005F080000028B8D005F0CE
:102A2000200050B1206801F00BFF06462EB1A06BCC
:102A30003043A0632046FFF792FE05F00100002816
:102A4000A6D105F002000028A2D12068C06A20F0BB
:102A500008002168C862012084F83400204600F094
:102A600026FB8FE02068406BC0F3803030B105F06A
:102A7000080018B1204602F0A0FA83E02068406BFD
:102A800040F23A21084008B1012000E0002000286F
:102A900078D02068406BC0F3400018B1A06B40F0C4
:102AA0000200A0632068406BC0F3C00018B1A06BA7
:102AB00040F00800A0632068406BC0F3401018B1DC
:102AC000A06B40F02000A0632068406BC0F30010B2
:102AD00018B1A06B40F01000A0632068406BC0F3F9
:102AE000402018B1A06B40F00800A06340F23A709B
:102AF000216888632068C06B40F23A3188432168BE
:102B0000C863206801F09CFEA16B0843A06305F038
:102B1000080040B1012084F83400002020632046E2
:102B2000FFF71DFE2EE005F0800000B305F0100059
:102B300010B905F0200050B11348E16B0865E06B57
:102B4000FEF73EFD98B1E06B02F0EEF81AE005F0FA
:102B5000010010B905F0020050B10C48216C086565
:102B6000206CFEF72DFD10B1206C02F0B9F809E0E1
:102B70000020A063012084F8340000202063204658
:102B8000FFF7E8FD70BD0000294D0008E14C00088A
:102B900010B504460CB9012010BD94F8340020B9DA
:102BA00000202077204600F065F8032084F83400E8
:102BB000204600F00BF808B10120EDE70020A063EB
:102BC0002063012084F834000020E5E730B589B0A7
:102BD000044600200390049005900690079076200C
:102BE000089006A807C88DE80700206803A90EC949
:102BF00001F0A2FC00201D490860206801F0B6FC2D
:102C000001201A49A039C1F8A0000220FEF782FE77
:102C1000204602F02FF9054645B1012084F8340022
:102C2000A06B2843A063012009B030BD204602F00C
:102C30009FF805463DB1012084F83400A06B28437D
:102C4000A0630120F0E74FF40071206801F0ECFC74
:102C500005464DB1064821688863A06B2843A063F0
:102C6000012084F83400DFE70020DDE7A080254262
:102C7000FF05400010B586B00446142101A8FDF7F9
:102C800036FC5849206888427ED100BF0020009061
:102C90005548006840F400605349086008460068E1
:102CA00000F40060009000BF00BF00BF0020009053
:102CB0004D481438006840F004004B49143908604E
:102CC0000846006800F00400009000BF00BF00BF8D
:102CD000002000900846006840F0080008600846A0
:102CE000006800F00800009000BF00BF4FF488505B
:102CF00001900220029000200390032004900C20F9
:102D0000059001A93948FEF781FE042001900220B8
:102D1000029000200390032004900C20059001A94C
:102D20003348FEF773FE3348334908604FF00060C4
:102D30004860002130488160C1604FF480610161CA
:102D400089004161890081612021C1610021016206
:102D500004214162032181624FF40001C1628910A4
:102D60000163FEF761FD08B1FEF708FA00BF2248D3
:102D70002064846300BF1F484830204908604FF03A
:102D800000604860402100E029E01C48816000218B
:102D9000C1604FF4806101618900416189008161F6
:102DA0002021C1610021016204214162032181626D
:102DB0004FF40001C16289100163FEF735FD08B1CF
:102DC000FEF7DCF900BF0D48E063846300BF00221A
:102DD00011463120FFF7DEF83120FFF7C7F806B0C3
:102DE00010BD0000002C01404438024000080240A1
:102DF000000C024058640240240C0020840C002087
:102E00002DE9FF4F89B004468B469946DDF858A05E
:102E1000FEF706FF02900B9800905D46BBF1000F95
:102E200007D1A06B40F00060A06301200DB0BDE8A9
:102E3000F08F94F8340001287ED10020A063009820
:102E400000EB0901E06D814205D9A06B40F00070F4
:102E5000A0630120EAE7032084F834000020216801
:102E6000C862606C012802D00098400200904FF0C8
:102E7000FF3003904FEA49200490902005900220F3
:102E80000690002007900120089003A9206801F017
:102E900026FBB9F1010F07D90220206320680099B1
:102EA00001F00EFC804606E00120206320680099B6
:102EB00001F022FC8046B8F1000F0DD0784821685F
:102EC0008863A06B40EA0800A063012084F8340006
:102ED000002020630120A9E7049E3AE02068406BAF
:102EE00000F40040E0B1DEB10020019015E0206860
:102EF00001F041FB07462F706D1C761E380A2870C2
:102F00006D1C761E380C28706D1C761E380E2870CD
:102F10006D1C761E0198401C019001980828E6D38C
:102F2000FEF77EFE0299401A504502D2BAF1000F18
:102F30000FD15B48216800E0ABE08863A06B40F0F4
:102F40000040A063012084F83400002020630320A7
:102F50006CE72068406B40F22A3108400028BDD061
:102F60002068406B00F48070D0B1B9F1010F17D91F
:102F7000606C032814D0206801F062FC8046B8F130
:102F8000000F0DD0464821688863A06B40EA080016
:102F9000A063012084F8340000202063012045E76D
:102FA0002068406B00F0080020B92068406B00F4F6
:102FB000007068B13A4821688863A06B40F008004F
:102FC000A063012084F834000020206301202DE755
:102FD0002068406B00F0020068B1314821688863C6
:102FE000A06B40F00200A063012084F834000020B0
:102FF000206301201AE72068406B00F0200068B1D0
:10300000274821688863A06B40F02000A06301205E
:1030100084F8340000202063012007E729E02068BD
:1030200001F0A9FA07462F706D1C761E380A287029
:103030006D1C761E380C28706D1C761E380E28709C
:103040006D1C761EFEF7ECFD0299401A504502D227
:10305000BAF1000F0DD1124821688863A06B40F0CF
:103060000040A063012084F8340000202063012088
:10307000DCE62068406B00F4001008B1002ECED1D1
:1030800040F23A5021688863012084F8340000201F
:10309000CCE6A06B40F00050A0630120C6E6000023
:1030A000FF05400010B50446FDF79CFB10BD10B5B0
:1030B0000446FDF7B1FB10BD2DE9F04F89B0044681
:1030C000894693469846FEF7ABFD0290DA464D4698
:1030D000B9F1000F07D1A06B40F00060A0630120A0
:1030E00009B0BDE8F08F94F8340001287ED10020AB
:1030F000A0630AEB0801E06D814205D9A06B40F0A6
:103100000070A0630120EBE7032084F83400002066
:103110002168C862606C012801D04FEA4A2A4FF04A
:10312000FF3003904FEA4820049090200590002043
:10313000069007900120089003A9206801F0CFF9BC
:10314000B8F1010F07D9202020635146206801F013
:1031500095FB064606E0102020635146206801F0EA
:10316000A9FB064666B1624821688863A06B3043BC
:10317000A063012084F83400002020630120AFE721
:10318000049F43E02068406B00F4804030B32FB3CD
:10319000002001901FE0287800906D1C7F1E287889
:1031A000009941EA002000906D1C7F1E287800994C
:1031B00041EA004000906D1C7F1E2878009941EA8A
:1031C000006000906D1C7F1E6946206801F0EBF9DD
:1031D0000198401C019001980828DCD3FEF720FDDF
:1031E0000299411A1298814203D200E079E01298C4
:1031F00060B93F4821688863A06B3043A063012019
:1032000084F8340000202063032069E72068406BC5
:1032100040F21A3108400028B4D02068406B00F416
:103220008070B8B1B8F1010F14D9606C032811D0C7
:10323000206801F005FB064666B12D4821688863C9
:10324000A06B3043A063012084F834000020206389
:10325000012045E72068406B00F0080020B9206895
:10326000406B00F4007068B1214821688863A06B4E
:1032700040F00800A063012084F83400002020639F
:1032800001202DE72068406B00F0020068B118486B
:1032900021688863A06B40F00200A063012084F8DD
:1032A00034000020206301201AE72068406B00F002
:1032B000100068B10E4821688863A06B40F01000D0
:1032C000A063012084F8340000202063012007E778
:1032D00040F23A5021688863012084F834000020CD
:1032E000FEE6A06B40F00050A0630120F8E600006D
:1032F000FF05400010B504460CB9012010BD606AFE
:1033000038B96068B0F5827F00D105E00021E16145
:1033100002E00021216161610021A16294F8510065
:1033200028B9002084F85000204600F047F8022019
:1033300084F851002068006820F04000216808608F
:10334000A08800F48270218901F404410843A18916
:1033500001F400610843217C01F002010843217D52
:1033600001F001010843218B01F400710843217F22
:1033700001F0380108432021095D01F08001084374
:10338000218D01F400510843216808600421A069DF
:1033900001EA104094F8241001F01001084321685C
:1033A00048602068C06920F400602168C86100207E
:1033B0006065012084F8510000209FE710B586B0B9
:1033C0000446142101A8FDF792F829492068884293
:1033D0004CD100BF002000902648006840F4805087
:1033E000244908600846006800F48050009000BF3F
:1033F00000BF00BF002000901E481438006840F055
:1034000001001C49143908600846006800F00100FA
:10341000009000BF00BF00BF002000900846006879
:1034200040F0020008600846006800F002000090CA
:1034300000BF00BFC0200190022002900020039036
:10344000032004900520059001A90B48FEF7DEFA41
:103450000820019002200290002003900320049095
:103460000520059001A90548FEF7D0FA06B010BD69
:103470000030014044380240000002400004024095
:1034800070B504462546681EB0F1807F01D3012047
:103490000FE0681E4FF0E02148610F214FF0FF3030
:1034A00002F084F900204FF0E021886107200861D4
:1034B000002070BD7047704730B502460B4600BF14
:1034C00092F83C00012801D1022030BD012082F891
:1034D0003C0000BF022082F83D001068446810687C
:1034E000816824F070041868044310684460184D23
:1034F0001068A8421BD01068B0F1804F17D0154D4E
:103500001068A84213D0144D1068A8420FD0134D74
:103510001068A8420BD0124D1068A84207D0114D78
:103520001068A84203D0104D1068A84205D121F0C0
:1035300080015868014310688160012082F83D00D5
:1035400000BF002082F83C0000BF00BFBDE70000C4
:10355000000001400004004000080040000C004052
:1035600000040140004001400018004010B504462E
:103570000CB9012010BD94F83D0028B9002084F852
:103580003C00204600F026F8022084F83D00211D72
:10359000206801F039FE012084F8460000BF84F85D
:1035A0003E0001213F200155402001554120015599
:1035B00000BF00BF012084F8420043200155442091
:1035C00001554520015500BF012084F83D00002031
:1035D000D0E7000038B504461C492068884218D15D
:1035E00000BF002000901A48006840F0020018490F
:1035F00008600846006800F00200009000BF00BFAD
:10360000002205211D20FEF7C5FC1D20FEF7AEFCA3
:103610001BE010492068884217D100BF00200090AD
:103620000B48006840F4807009490860084600684B
:1036300000F48070009000BF00BF002206212D2002
:10364000FEF7A8FC2D20FEF791FC38BD00040040D9
:103650004038024000200040014691F83D0001281A
:1036600001D001207047022081F83D000868C06841
:1036700040F001000B68D8601A4B086898421BD0D4
:103680000868B0F1804F17D0174B0868984213D0E4
:10369000164B086898420FD0154B086898420BD01B
:1036A000144B0868984207D0134B0868984203D01F
:1036B000124B086898420CD10868806800F0070235
:1036C000062A0CD00868006840F001000B681860FA
:1036D00005E00868006840F001000B6818600020F1
:1036E000C0E7000000000140000400400008004066
:1036F000000C004000040140004001400018004060
:103700002DE9F04104460D46002700BF94F83C0027
:10371000012802D10220BDE8F081012084F83C009C
:1037200000BF022084F83D002068866826F07706F6
:1037300026F47F46206886602868502833D00CDC49
:10374000202850D004DC00284BD0102851D149E06B
:10375000302849D040284CD139E060282DD070283D
:1037600007D0B0F5805F03D0B0F5005F41D10DE028
:1037700041E0D5E902136A68206801F0C6FD2068BF
:10378000866846F077062068866034E0D5E9021343
:103790006A68206801F0B9FD2068806840F48040C4
:1037A0002168886027E0EA686968206801F09EFE69
:1037B0005021206801F0B4FD1DE0EA6869682068C6
:1037C00001F0A7FE6021206801F0AAFD13E0EA687D
:1037D0006968206801F08AFE4021206801F0A0FDA0
:1037E00009E000BF00BF00BF2968206801F098FD14
:1037F00001E0012700BF00BF012084F83D0000BFA9
:10380000002084F83C0000BF384684E72DE9F041F1
:1038100004460D4614B90120BDE8F08194F83D003E
:1038200028B9002084F83C00204600F053F802201C
:1038300084F83D002068806844F2070188432168CD
:103840008860211D206801F0DFFC2068D0F8088026
:10385000206886692068076A286840EA080840F2FC
:1038600003308643A969A86840EA0120064340F670
:103870000C4086434FF2F0008643E969E86840EA6D
:103880000120064328690001296A40EA0130064305
:1038900027F0220727F088076969686840EA011065
:1038A00007432068C0F808802068866120680762A6
:1038B000012084F8460084F83E0001213F20015594
:1038C000012084F8420043200155012084F83D0086
:1038D0000020A1E710B586B00446142101A8FCF72A
:1038E00006FE1F492068884237D100BF00200090A3
:1038F0001C48006840F002001A4908600846006849
:1039000000F00200009000BF00BF00BF0020009048
:1039100014481438006840F0040012491439086053
:103920000846006800F00400009000BF00BFC020FF
:1039300001900220029001200390002004900320B7
:10394000059001A90848FEF761F8002211462D20D4
:10395000FEF720FB2D20FEF709FB06B010BD00008E
:103960000004014044380240000802402DE9F043C1
:1039700004460D4694F83E603F20075D94F842806F
:10398000432010F804906DB9012E02D1B8F1010F57
:1039900002D00120BDE8F083022084F83E0084F8C4
:1039A000420025E0042D0CD1012F02D1B9F1010F05
:1039B00001D00120EEE702213F20015543200155AF
:1039C00016E0012E07D1012F05D1B8F1010F02D168
:1039D000B9F1010F01D00120DCE7022084F83E009C
:1039E00002213F200155022084F842004320015566
:1039F00015B1042D0CD105E001220021206801F051
:103A000073FC10E001220421206801F06DFC0AE043
:103A100001220021206801F067FC012204212068B6
:103A200001F062FC00BF00BF2068006840F00100A8
:103A3000216808600020ADE7704770B50446206833
:103A4000C5682068066906F00200022819D105F051
:103A50000200022815D1401F21680861012020774B
:103A60002068806900F0030018B12046FFF7E4FFEA
:103A700005E0204600F0C6F8204600F091F900204D
:103A8000207706F00400042819D105F0040004286A
:103A900015D1C04321680861022020772068806921
:103AA00000F4407018B12046FFF7C6FF05E020463D
:103AB00000F0A8F8204600F073F90020207706F007
:103AC0000800082819D105F00800082815D1C043BE
:103AD00021680861042020772068C06900F0030095
:103AE00018B12046FFF7A8FF05E0204600F08AF84D
:103AF000204600F055F90020207706F0100010282D
:103B000019D105F01000102815D1C04321680861B3
:103B1000082020772068C06900F4407018B1204662
:103B2000FFF78AFF05E0204600F06CF8204600F021
:103B300037F90020207706F0010048B105F00100B8
:103B400030B16FF0010021680861204600F0B0F943
:103B500006F08000802809D105F08000802805D17A
:103B6000C043216808612046FFF7A4FC06F040002E
:103B7000402809D105F04000402805D1C043216804
:103B80000861204600F0C8F906F02000202809D17D
:103B900005F02000202805D1C04321680861204697
:103BA000FFF789FC70BD000010B586B004461421F3
:103BB00001A8FCF79CFC2068B0F1804F1CD100BF2D
:103BC000002000900D48006840F001000B4908609B
:103BD0000846006800F00100009000BF00BF04200C
:103BE0000190022002900020039004900120059093
:103BF00001A90348FDF70AFF06B010BD30380240A6
:103C00000000024070472DE9F04104460D4616467B
:103C1000002700BF94F83C00012802D10220BDE833
:103C2000F081012084F83C0000BF36B1042E1BD087
:103C3000082E31D00C2E5ED145E02946206801F0D7
:103C400079FB2068806940F008002168886120685D
:103C5000806920F0040021688861206880692969F2
:103C600008432168886148E02946206801F09AFBF2
:103C70002068806940F4006021688861206880695C
:103C800020F480602168886120688069296940EAA1
:103C900001202168886130E02946206801F0C0FBDE
:103CA0002068C06940F008002168C8612068C069C8
:103CB00020F004002168C8612068C06929690843B0
:103CC0002168C86119E02946206801F0E5FB2068F9
:103CD000C06940F400602168C8612068C06920F4B0
:103CE00080602168C8612068C069296940EA0120B4
:103CF0002168C86101E0012700BF00BF00BF0020AC
:103D000084F83C0000BF384689E710B504460CB97A
:103D1000012010BD94F83D0028B9002084F83C0033
:103D2000204600F025F8022084F83D00211D20687F
:103D300001F06AFA012084F8460000BF84F83E00D2
:103D400001213F200155402001554120015500BF70
:103D500000BF012084F84200432001554420015552
:103D60004520015500BF012084F83D000020D0E728
:103D700008B50168B1F1804F0FD100BF002100915B
:103D80000649096841F00101044A116011460968B9
:103D900001F00101009100BF00BF08BD40380240A2
:103DA0007047000070B504460D4615B994F83E0002
:103DB0000BE0042D02D13F20005D06E0082D02D16A
:103DC0004020005D01E04120005D012801D001207C
:103DD00070BD1DB9022084F83E000EE0042D03D111
:103DE00002213F20015508E0082D03D10221402087
:103DF000015502E002214120015501222946206897
:103E000001F072FA23492068884203D022492068D1
:103E1000884201D1012000E0002028B12068406CD8
:103E200040F40040216848641A49206888421BD049
:103E30002068B0F1804F17D018492068884213D00D
:103E40001749206888420FD01649206888420BD055
:103E500011492068884207D013492068884203D05E
:103E60001249206888420CD12068806800F007065B
:103E7000062E0CD02068006840F001002168086020
:103E800005E02068006840F001002168086000201B
:103E90009EE70000000001400004014000040040D3
:103EA00000080040000C00400040014000180040A5
:103EB00010B5044612492068884202D12046FCF71A
:103EC0005BFE10492068884219D10F480088401CC9
:103ED00000B20D490880084600880A2801D1002058
:103EE00008800A480849B1F90010405C084909886F
:103EF0004843642190FBF1F006490968C86310BD8E
:103F00000020004000040040D6020020C80200202B
:103F1000380000203C0D0020704710B504460CB955
:103F2000012010BDA06900B100E000BF94F841007D
:103F300028B9002084F84000204600F029F8242009
:103F400084F841002068C06820F400502168C860EF
:103F5000204601F0F3FA2068006920F490402168BF
:103F600008612068406920F02A00216848612068C3
:103F7000C06840F400502168C860002060642020C0
:103F800084F8410084F842000020606300BFC8E765
:103F900010B586B00446142101A8FCF7A8FA1B4905
:103FA0002068884230D100BF002000901848006887
:103FB00040F01000164908600846006800F0100044
:103FC000009000BF00BF00BF0020009010481438D0
:103FD000006840F001000E49143908600846006886
:103FE00000F00100009000BF00BF4FF4C0600190DE
:103FF00002200290002003900320049007200590E7
:1040000001A90448FDF702FD06B010BD00100140F3
:10401000443802400000024000BFFEE710B50B48E4
:104020000B49086010204860002109488160C16088
:1040300001614161017641768176C17601774177F0
:10404000FDF7DCF808B1FDF799F810BD00640040F9
:10405000100B00201CB50020009001900E480F4965
:1040600008600846FDF7FFF908B1FDF787F8002062
:1040700000900190002269460848FDF7BDF908B19B
:10408000FDF77CF8102269460448FDF7B5F908B140
:10409000FDF774F81CBD000000740040380B0020D0
:1040A00008B500BF002000900E48006840F4800072
:1040B0000C4908600846006800F48000009000BFCA
:1040C00000BF002211463B20FDF764FF3B20FDF7B7
:1040D0004DFF002211464520FDF75CFF4520FDF70E
:1040E00045FF08BD3038024010B503490348FDF7CD
:1040F00051F80349087010BDEA020020E4A000084E
:10410000E902002000B587B0142102A8FCF7EFF9FE
:1041100000BF002001904B48006840F01000494962
:1041200008600846006800F01000019000BF00BF62
:1041300000BF002001900846006840F004000860BD
:104140000846006800F00400019000BF00BF00BFF7
:10415000002001900846006840F001000860084611
:10416000006800F00100019000BF00BF00BF002008
:1041700001900846006840F00200086008460068A8
:1041800000F00200019000BF00BF00BF00200190BE
:104190000846006840F0080008600846006800F023
:1041A0000800019000BF00BF0022C9142648FDF797
:1041B00031FD042002904FF48810039001200490F8
:1041C00002A92248FDF722FC7820029000200390EB
:1041D000049002A91D48FDF719FC4FF4005002900D
:1041E0004FF4881003900120049002A91848FDF7AD
:1041F0000DFC4FF48040029000200390049002A92F
:104200001348FDF703FC4FF4006002900120039077
:1042100004900020059002A90B48FDF7F7FB00224F
:1042200011460820FDF7B6FE0820FDF79FFE00228C
:1042300011462820FDF7AEFE2820FDF797FE07B0B7
:1042400000BD00003038024000040240001002406F
:104250000008024010B50B480B4908600B48486045
:10426000002109488160C1604FF480410161002153
:1042700041618161C1610162FDF7D8FC08B1FCF7C1
:104280007DFF10BD005400404C0B0020A0860100B3
:1042900010B5094809490860002048600021074816
:1042A0008160C1600161416104218161FEF770FCA0
:1042B00008B1FCF763FF10BD002C0140A00B0020EB
:1042C00010B50E480E4908604FF482704860002116
:1042D0000B488160C160016141614FF400718161EF
:1042E0000021C1610162416281620A21C162FFF75E
:1042F00001F808B1FCF742FF10BD0000003001409A
:10430000E40C002010B509480949086053204860B2
:104310000021074881600421C160002101618161A1
:10432000FFF724F908B1FCF729FF10BD0020004079
:10433000140E002000B589B00020079008901C21C1
:104340006846FCF7D4F84FF0804017490860002019
:104350004860002114488160FF21C1600021016193
:104360008161FFF7D2FC08B1FCF708FF002007903D
:10437000089007A90C48FFF79FF808B1FCF7FEFE6C
:10438000602000900020019002900490082269466D
:104390000548FFF738FC08B1FCF7F0FE0248FFF7CC
:1043A00003FC09B000BD00003C0D002000B587B043
:1043B000002003900490059006900190029014480C
:1043C000144908602920486000211248816040F2A9
:1043D000E731C160002101618161FFF7C7F808B1D1
:1043E000FCF7CCFE4FF48050039003A90948FFF777
:1043F00087F908B1FCF7C2FE00200190029001A9E4
:104400000448FFF759F808B1FCF7B8FE07B000BD43
:1044100000040040840D002000B58BB0242102A8C8
:10442000FCF765F80020009001901A481A490860CE
:10443000002048600021184881604FF6FF71C1607C
:1044400000210161416181610320029000200390FD
:1044500001200490002005900F2006900020079076
:1044600001200890002009900F200A9002A90A4814
:10447000FFF7CCF908B1FCF781FE00200090019015
:1044800069460548FFF718F808B1FCF777FE0BB04E
:1044900000BD000000040140CC0D002010B50B4809
:1044A0000B4908604FF4E130486000210848816002
:1044B000C16001610C21416100218161C161FFF78F
:1044C0002CFD08B1FCF75AFE10BD000000100140A1
:1044D0005C0E002000BFFEE700BFFEE7704710B58E
:1044E000024600230868506248689062D1E90204DD
:1044F00020430C6920434C6920430343D06A20F0D9
:10450000F7001843D062002010BD01460869C0B210
:1045100070470146086800F003007047024602F148
:10452000140043181868704710B50248FEF722FAC5
:1045300010BD0000A00B00200FB410B504460021F0
:10454000DDE903021043059A1043069A1043079AC7
:104550001043089A10430143606847F6FF62904396
:1045600008436060002010BC5DF814FB0146032086
:104570000860002070470146D1F88000704710B5F0
:104580000246002308689060D1E901042043CC680A
:1045900020430C6920430343D0686FF30B0018439A
:1045A000D060002010BD02460868C2F880000020DC
:1045B000704770B585B005460C46009437200190D1
:1045C00040200290002003904FF4806004906946E0
:1045D0002846FFF7D4FF41F288323721284600F001
:1045E000A5F90646304605B070BD000070B585B02F
:1045F00005460C460B48204300902920019040209E
:104600000290002003904FF4806004906946284691
:10461000FFF7B5FF284600F091FA0646304605B090
:1046200070BD00000000108070B585B005460C46D6
:1046300000941020019040200290002003904FF43D
:104640008060049069462846FFF799FF41F288325E
:104650001021284600F06AF90646304605B070BDC4
:1046600030B585B004460020009001900290039080
:104670004FF48060049069462046FFF780FF204693
:1046800000F034F90546284605B030BD30B585B098
:1046900004464FF4D570009008200190402002900D
:1046A000002003904FF48060049069462046FFF795
:1046B00066FF204600F0CAFA0546284605B030BD20
:1046C00070B585B005460C4600941220019040203C
:1046D0000290002003904FF48060049069462846C1
:1046E000FFF74DFF41F288321221284600F01EF9F3
:1046F0000646304605B070BD70B585B005460C461F
:1047000000941120019040200290002003904FF46B
:104710008060049069462846FFF731FF41F28832F5
:104720001121284600F002F90646304605B070BD5A
:10473000F0B585B0064614461D460094072001904A
:1047400040200290002003904FF48060049069465E
:104750003046FFF714FF41F288320721304600F05F
:10476000E5F80746384605B0F0BD30B585B00446DB
:104770000020009002200190C020029000200390B1
:104780004FF48060049069462046FFF7F8FE20460B
:1047900000F0A2F90546284605B030BD70B585B0D9
:1047A00005460C46009409200190C020029000208C
:1047B00003904FF48060049069462846FFF7DFFEBF
:1047C000284600F089F90646304605B070BD70B540
:1047D00085B005460C4600940D20019040200290C3
:1047E000002003904FF48060049069462846FFF74C
:1047F000C6FE41F288320D21284600F097F80646A1
:10480000304605B070BD70B585B005460C46002039
:1048100000900320019040200290002003904FF46C
:104820008060049069462846FFF7A9FE22460321CE
:10483000284600F0AFF90646304605B070BD0000CE
:1048400030B585B00446002000900C200190402037
:104850000290002003904FF4806004906946204647
:10486000FFF78DFE044A0C21204600F05FF8054654
:10487000284605B030BD000000E1F50570B585B0F3
:1048800005460C460094192001904020029000201B
:1048900003904FF48060049069462846FFF76FFE4E
:1048A00041F288321921284600F040F80646304689
:1048B00005B070BD70B585B005460C460094182053
:1048C000019040200290002003904FF480600490FB
:1048D00069462846FFF753FE41F2883218212846E0
:1048E00000F024F80646304605B070BD01460E487B
:1048F0000068C0084FF47A73B0FBF3F041F28833DC
:1049000000FB03F200BF101EA2F1010202D14FF022
:1049100000407047486B00F080000028F3D0C520AD
:1049200088630020F5E70000E40200202DE9F04351
:1049300005460F46904666480068C0084FF47A71F5
:10494000B0FBF1F000FB08F900BFB9F10000A9F1DC
:10495000010903D14FF00040BDE8F0836E6B06F013
:1049600045000028F1D006F400600028EDD1686B06
:1049700000F0040010B10420A863EDE7686B00F0BC
:10498000010010B10120A863E6E7C520A86328460E
:10499000FFF7BBFDB84201D00120DDE7002128462A
:1049A000FFF7BCFD04464B48204008B90020D3E780
:1049B00004F00040B0F1004F02D14FF00070CBE79F
:1049C00004F08040B0F1804F01D14020C4E704F0F2
:1049D0000050B0F1005F01D18020BDE704F08050AD
:1049E000B0F1805F02D14FF48070B5E704F0006051
:1049F000B0F1006F02D14FF40070ADE704F08060B9
:104A0000B0F1806F02D14FF48060A5E704F08070B0
:104A1000B0F1807F02D14FF400609DE704F4000004
:104A2000B0F5000F02D14FF4805095E704F48000F8
:104A3000B0F5800F02D14FF400508DE704F4001060
:104A4000B0F5001F02D14FF4804085E704F48010D8
:104A5000B0F5801F02D14FF400407DE704F48020C0
:104A6000B0F5802F02D14FF4003075E704F4003028
:104A7000B0F5003F02D14FF480206DE704F48030A0
:104A8000B0F5803F02D14FF4002065E704F4004008
:104A9000B0F5004F02D14FF480105DE704F4804080
:104AA000B0F5804F02D14FF4001055E704F40050E8
:104AB000B0F5005F02D14FF480004DE704F008002C
:104AC000082801D1000547E74FF4803044E7000093
:104AD000E402002008E0FFFD10B50146164800681A
:104AE000C0084FF47A74B0FBF4F041F2883400FB54
:104AF00004F300BF181EA3F1010302D14FF00040E0
:104B000010BD4A6B02F045000028F3D002F40060AB
:104B10000028EFD1486B00F0040010B10420886336
:104B2000EEE7486B00F0010010B101208863E7E771
:104B3000C52088630020E3E7E402002010B50146A9
:104B400013480068C0084FF47A74B0FBF4F041F2E7
:104B5000883400FB04F300BF181EA3F1010302D147
:104B60004FF0004010BD4A6B02F045000028F3D022
:104B700002F400600028EFD1486B00F0040010B18F
:104B800004208863EEE7C52088630020EAE7000080
:104B9000E40200202DE9F04304460F4690462A48DF
:104BA0000068C0084FF47A71B0FBF1F041F288312F
:104BB00000FB01F900BFB9F10000A9F1010903D11F
:104BC0004FF00040BDE8F083666B06F0450000281A
:104BD000F1D006F400600028EDD1606B00F0040015
:104BE00010B10420A063EDE7606B00F0010010B18C
:104BF0000120A063E6E72046FFF787FCB84201D01A
:104C00000120DFE7C520A06300212046FFF786FCD6
:104C1000054605F4604020B9280CA8F800000020E3
:104C2000D0E705F48040B0F5804F02D14FF400503A
:104C3000C8E705F40040B0F5004F02D14FF48050B2
:104C4000C0E74FF48030BDE7E402002010B5014614
:104C500018480068C0084FF47A74B0FBF4F041F2D1
:104C6000883400FB04F300BF181EA3F1010302D136
:104C70004FF0004010BD4A6B02F045000028F3D011
:104C800002F400600028EFD1486B00F0040010B17E
:104C900004208863EEE7486B00F0010010B10120AA
:104CA0008863E7E7486B00F0400008B14020886364
:104CB0000020DFE7E402002010B504460120074988
:104CC0000870FBF755FD28B90448007820F0010072
:104CD000024908700148007810BD0000E802002079
:104CE00070B50546AC6B40F23A50216888632046A7
:104CF000FDF72DFE0646012084F8340000202063D5
:104D0000062E01D0052E05D12068FFF799FDA16B75
:104D10000843A063A06B18B92046FDF71BFD02E015
:104D20002046FDF71CFD70BD70B50546AC6B40F22A
:104D30003A50216888632046FDF709FE06460120A7
:104D400084F8340000202063062E01D0052E05D102
:104D50002068FFF775FDA16B0843A063A06B18B92D
:104D60002046FDF7F7FC02E02046FDF7F8FC70BD99
:104D700030B58FB00446012003902068FFF7C9FBCF
:104D800018B94FF080600FB030BD606C03281BD0A5
:104D90002068FFF7EAFC05460DB12846F3E700213D
:104DA0002068FFF7BBFB606704212068FFF7B6FBB4
:104DB000A06708212068FFF7B1FBE0670C2120689D
:104DC000FFF7ACFB80210851606C032807D003A9D2
:104DD0002068FFF718FD05460DB12846D3E7606C43
:104DE000032820D0BDF80C1021655022125B11045D
:104DF0002068FFF7D3FC05460DB12846C3E7002124
:104E00002068FFF78BFB606604212068FFF786FBB4
:104E1000A06608212068FFF781FBE0660C2120686E
:104E2000FFF77CFB206704212068FFF777FB010D6B
:104E3000E16404A92046FDF793FC10B14FF08050C7
:104E4000A1E75020005B01040A4600232068FFF719
:104E50006FFC05460DB1284695E7D4E90412A06918
:104E6000CDE90012029094E80F00FFF765FB0020E7
:104E700089E70000F8B504460020009000260027CE
:104E80002068FFF7EDFB05460DB12846F8BD206808
:104E9000FFF7FCFB054645B10021A1642068FFF740
:104EA000DFFB05461DB12846F0E70121A164A06C97
:104EB000012808D100212068FFF77BFB054615B1CA
:104EC0004FF08050E2E71DE000212068FFF771FB02
:104ED00005460DB12846D9E718492068FFF786FB3B
:104EE000054615B14FF08050D0E700212068FFF74C
:104EF00015FB0646012080EAD67080F00107009875
:104F0000401C00904FF6FF710098884201D2002F9C
:104F1000DAD04FF6FF710098884202D34FF08070CC
:104F2000B4E706F08040B0F1804F02D10120606408
:104F300001E0002060640020A8E70000000010C12C
:104F40002DE9F0410546AC6AEF6AE7B14FF0000881
:104F500014E02868FFF70FFB06462670641C7F1ECE
:104F6000300A2070641C7F1E300C2070641C7F1E71
:104F7000300E2070641C7F1E08F10108B8F1080F84
:104F8000E7D3AC62EF62BDE8F08170B504460D4630
:104F900015B94FF0006070BD5022125B11042068FB
:104FA000FFF715FC06460EB13046F4E700212068F5
:104FB000FFF7B4FA28600020EDE7F8B505462C6A43
:104FC0006E6A1EB300271DE020780090641C761ED8
:104FD0002078009941EA00200090641C761E207819
:104FE000009941EA00400090641C761E20780099E8
:104FF00041EA00600090641C761E69462868FFF74D
:10500000D2FA7F1C082FDFD32C626E62F8BD00003D
:1050100010B50446012006490870FBF7B5FB20B91E
:105020002046FFF749FE024908700148007810BD8C
:10503000E8020020F0B589B007460D461446012667
:105040001648007800F0010010B1032009B0F0BD4F
:1050500035B1012D06D0022D0BD0032D18D10FE054
:10506000002617E001A8FBF779FB079820600026CF
:1050700010E001A8FBF772FB08982080002609E0E9
:1050800001A8FBF76BFB0898400A2060002601E0AE
:10509000042600BF00BF3046D8E70000E802002029
:1050A0002DE9F04180460C4615461E460127BB1EE1
:1050B000324629462046FBF77DFB28B900BFFBF7A7
:1050C00057FB0028FBD100273846BDE8F08110B51A
:1050D00004462046FFF7F0FD10BD2DE9F041804663
:1050E0000C4615461E460127BB1E32462946204661
:1050F000FBF77AFB28B900BFFBF73AFB0028FBD18E
:1051000000273846BDE8F081704710B5FCF7BAFEBD
:1051100010BD000000B593B0302107A8FBF7E7F9F8
:10512000142102A8FBF7E3F900BF002001902548F5
:10513000006840F08050234908600846006800F08D
:105140008050019000BF00BF00BF002001901E48AA
:10515000006840F480401C4908600846006800F47C
:105160008040019000BF00BF0220079001200A90FC
:1051700010200B9002200D9000210E9108210F911C
:10518000A8211091022111910721129107A8FDF782
:1051900093F808B1FBF7F2FF0F2002900220039072
:1051A000002004904FF4A05005904FF480500690DA
:1051B000052102A8FCF740FF08B1FBF7DFFF13B0A1
:1051C00000BD000040380240007000400348006805
:1051D00040F47000014908607047000088ED00E06D
:1051E00010B50248FEF729FC10BD0000840D002018
:1051F00010B50348FEF721FC0248FEF71EFC10BD67
:10520000CC0D0020140E002010B502682B4B9842E4
:105210000ED0B0F1804F0BD0294B984208D0294BCB
:10522000984205D0284B984202D0284B984203D18F
:1052300022F070024B681A43204B984220D0B0F104
:10524000804F1DD01E4B98421AD01E4B984217D04B
:105250001D4B984214D01D4B984211D01C4B9842C4
:105260000ED01C4B98420BD01B4B984208D01B4BC6
:10527000984205D01A4B984202D01A4B984203D15B
:1052800022F44072CB681A4322F080034C6943EA4F
:1052900004028B68C3620B688362084B984202D099
:1052A0000A4B984201D10B690363036843F004037E
:1052B000036001234361026010BD00000000014053
:1052C0000004004000080040000C004000040140C1
:1052D00000400140004401400048014000180040E7
:1052E000001C00400020004030B501F01F050124E3
:1052F00004FA05F3046A9C430462046A01F01F0582
:1053000002FA05F52C43046230BD30B50C468168C5
:1053100021F47F4142EA032525432943816030BDC2
:105320000A46816821F0700142F007031943816049
:105330007047000030B5026A056A25F00105056274
:105340004368846924F0700424F003040D682C433E
:1053500022F002028D682A43104DA84200D103E0DA
:105360000F4DA84206D100BF22F00802CD682A43A3
:1053700022F00402094DA84202D0094DA84207D1EB
:1053800023F4807323F400734D692B438D692B4301
:10539000436084614D684563026230BD0000014096
:1053A0000004014030B5026A056A25F01005056267
:1053B0004368846924F4E04424F440740D6844EAAA
:1053C000052422F020028D6842EA0512124DA842FF
:1053D00000D103E0114DA84207D100BF22F08002A6
:1053E000CD6842EA051222F040020B4DA84202D0DD
:1053F0000A4DA84209D123F4806323F400634D6968
:1054000043EA85038D6943EA8503436084614D68FF
:105410008563026230BD00000000014000040140CD
:1054200030B5026A056A25F4807505624368C4696F
:1054300024F0700424F003040D682C4322F400725D
:105440008D6842EA0522124DA84200D103E0114DB9
:10545000A84207D100BF22F40062CD6842EA0522CB
:1054600022F480620A4DA84202D00A4DA84209D116
:1054700023F4805323F400534D6943EA05138D69E7
:1054800043EA05134360C4614D68C563026230BDE1
:10549000000001400004014030B5036A056A25F4AC
:1054A000805505624468C26922F4E04222F44072E9
:1054B0000D6842EA052223F400538D6843EA053360
:1054C000084DA84202D0084DA84204D124F48044DB
:1054D0004D6944EA85144460C2614D680564036205
:1054E00030BD0000000001400004014030B50B4613
:1054F0001446026A056A25F001050562816921F0FA
:10550000F00141EA041122F00A021A4381610262A9
:1055100030BD30B50B461446026A056A25F0100509
:105520000562816921F4704141EA043122F0A00250
:1055300042EA03128161026230BD00002DE9F84F9A
:1055400004462068006920F44050E168084321685F
:1055500008612169A068084361690843E16908435B
:1055600000902068C06849F20C61884300990843A4
:105570002168C8602068406920F44070A169084330
:105580002168486176492068884203D075492068BF
:10559000884203D1FCF728FE814602E0FCF714FEA6
:1055A0008146E069B0F5004F6CD102206168A0FB34
:1055B000015003461920A9FB007001462A463846CF
:1055C000FAF77AFE6421B0FBF1F04FEA001A0220EC
:1055D0006168A0FB01510B461920A9FB00712A4606
:1055E0003846FAF769FE834602206168A0FB015045
:1055F00003461920A9FB00712A463846FAF75CFEDB
:105600006421B0FBF1F000EBC00101EB0010ABEB4B
:105610008000322101EBC0006421B0FBF1F000F00A
:10562000F8000AEB400A02206168A0FB0150034623
:105630001920A9FB007001462A463846FAF73CFEBD
:10564000834602206168A0FB015003461920A9FB94
:1056500000712A463846FAF72FFE6421B0FBF1F0BC
:1056600000EBC00101EB0010ABEB8000322101EB3D
:10567000C0006421B0FBF1F000F007005044216845
:1056800088606AE004206168A0FB0150034619208D
:10569000A9FB007001462A463846FAF70DFE8246FD
:1056A00004206168A0FB015003461920A9FB00708B
:1056B00001462A463846FAF7FFFD6421B0FBF1F0B7
:1056C00000EBC00101EB0010AAEB8000322101EBDE
:1056D00000106421B0FBF1F000F0F00A04206168D2
:1056E000A0FB017003461920A9FB00513A46284649
:1056F000FAF7E2FD6421B0FBF1F00AEB001A042096
:105700006168A0FB01510B461920A9FB00712A46D4
:105710003846FAF7D1FD834604206168A0FB0150AA
:1057200003461920A9FB007001462A463846FAF7BD
:10573000C3FD6421B0FBF1F000EBC00101EB0010F0
:10574000ABEB8000322101EB00106421B0FBF1F0E3
:1057500000F00F00504421688860BDE8F88F000019
:10576000001001400014014000BFFEE703B401989F
:105770004100009850EAC12018BF04204A0D18BF0C
:1057800040F0010040F2FF72B2EB515F08BF40F001
:105790000200012808BF052002B0704702480068D7
:1057A000C0F30220704700000CED00E010B50028A7
:1057B00004DB0A07130E054A135406E00A07140E09
:1057C000034A00F00F031B1FD45410BD00E400E097
:1057D00018ED00E0000000002DE9F04D2DED040B68
:1057E0002DED0E8B96B0DDE92550279CDDF890A0BD
:1057F00025F0004624F00048BAF1000F14BF012143
:10580000002101EB4502FC4953184A1093422AD368
:10581000002814BF0123002303EB44030B44F74982
:105820008B4220D358EA00019FEDF59B76D0DFF83C
:10583000D8B35D4503D1BAF1000F05D188E0BAF1C4
:10584000000F08BF002100D0012101EB450111F537
:10585000001F08D8002814BF0121002101EB4401DA
:1058600011F5001F0BD99DED261B9DED240B16B0E5
:10587000BDEC0E8B04B0BDE8F04D00F0A9BE0027D2
:10588000002DBCBFE149884521DAE1498845A8BF20
:1058900002271CDAC3451ADCDE4901EB2851142922
:1058A00008DDC1F1340220FA02F101FA02F282426B
:1058B0000DD108E058B9C1F1140228FA02F101FA39
:1058C00002F2424503D101F00101C1F1020756EA9B
:1058D0000A0124D1002C22DA002D18BF022F01D09A
:1058E000012F0AD00220FAF75CFE16B0BDEC0E8B39
:1058F00004B0BDE8F04D00F053BE0220FAF751FEAF
:1059000000F04EFE51EC100B03F019F941EC100BB6
:1059100016B0BDEC0E8B04B0BDE8F08D18E09FED25
:10592000BEAB9FEDBF8B002871D1B848804522D116
:1059300005F1804010F5801008BFBAF1000F07D0C4
:10594000B3450ADC002CA8BF9DED260BE0DA0DE084
:10595000B0EE490AF0EE690ADAE7002C06DA9DEDAE
:10596000260B51EC100B03F0EAF86FE0AE487844D8
:1059700090ED000BCCE7D8454DD1002C48DA2EB184
:1059800086423AD1BAF1000F42D126E0BAF1000FB7
:1059900013D00220FAF705FE00F036FE8DED020B63
:1059A0009DED240B8DED000B10EE900A039961F331
:1059B0001E0003909DED020BAAE78DED02AB9DED5D
:1059C000240B1AEE901A10EE900A8DED000B61F385
:1059D0001E0003909DED020B9AE78DED028B9DED6D
:1059E000240B18EE901A10EE900A8DED000B61F367
:1059F0001E0003909DED020B8AE709DA9DED240B52
:105A000051EC190B53EC102B03F062F91EE020E06F
:105A10009DED240B7CE786421BDAB4F1804F0DD05C
:105A2000A4F10050B0F1FF5013D1002D11DB9DED1A
:105A3000240B51EC100B02F087FF07E09DED240BC7
:105A400053EC102B51EC100B00F0C2BC41EC100BCE
:105A50005EE79DED240B51EC100B01F0F7FEBAF15F
:105A6000000FCDE90E0142D19FED710B46B3A6F1B7
:105A7000E040B0F17F600CD05E4538D1002D00DAF7
:105A8000A7B3022F0CBF01204FF0FF3003F0D5FA6F
:105A9000DCE7002D01DD002C0DDA002D01DD002CEE
:105AA0001FDB002D16DA002C14DB012F08BF9FED41
:105AB000620B3FF42DAFB0EE4A0AF0EE6A0A27E718
:105AC000022F18BF002D0CD0012F0AD1002DFFF698
:105AD0001FAF06E0002DB8BF002C08DA012F3FF4FD
