:020000040800F2
:10000000480D00207102000871330008652F0008B8
:100010006D33000817070008D539000800000000FC
:10002000000000000000000000000000773300081E
:100030001D10000800000000753300087933000827
:100040008B0200088B0200088B0200088B0200085C
:100050008B0200088B0200088B0200088B0200084C
:100060002B1000088B0200088B0200088B0200088E
:100070008B0200088B0200088B0200088B0200082C
:100080008B0200088B0200088B0200088B0200081C
:100090008B0200088B0200088B0200088B0200080C
:1000A0008B0200088B0200088B0200088B020008FC
:1000B0008B0200084D3400088B0200088B020008F8
:1000C0008B0200088B0200088B0200088B020008DC
:1000D0008B0200088B0200088B0200088B020008CC
:1000E0001F1000088B0200088B0200088B0200081A
:1000F0008B0200085D3400088B0200088B020008A8
:100100008B0200088B0200088B0200088B0200089B
:100110008B0200088B0200088B0200088B0200088B
:100120008B0200088B0200088B0200088B0200087B
:100130008B0200088B0200088B0200088B0200086B
:100140008B0200088B0200088B0200088B0200085B
:100150008B0200088B0200088B0200088B0200084B
:100160008B0200088B0200088B0200088B0200083B
:100170008B0200088B0200088B02000800000000C0
:100180008B0200088B02000800F002F800F061F812
:100190000AA090E8000C82448344AAF10107DA45E2
:1001A00001D100F056F8AFF2090EBAE80F0013F0D3
:1001B000010F18BFFB1A43F0010318472C6200001F
:1001C0004C6200000A444FF0000C10F8013B13F0A1
:1001D000070408BF10F8014B1D1108BF10F8015BA0
:1001E000641E05D010F8016B641E01F8016BF9D193
:1001F00013F0080F1EBF10F8014BAD1C0C1B09D1EA
:100200006D1E58BF01F801CBFAD505E014F8016B5B
:1002100001F8016B6D1EF9D59142D6D370470000ED
:100220000023002400250026103A28BF78C1FBD8FF
:10023000520728BF30C148BF0B607047642900F0E7
:10024000F780002070471FB505F0B0FB1FBD10B54B
:1002500010BD00F02BFA1146FFF7F5FF04F060FB2C
:1002600000F049FA03B4FFF7F2FF03BC00F04CFAC8
:100270000948804709480047FEE7FEE7FEE7FEE73A
:10028000FEE7FEE7FEE7FEE7FEE7FEE70448054976
:10029000054A064B70470000393400088901000800
:1002A00048070020480D0020480900204809002088
:1002B00053EA020C00F069802DE9F04B4FF0000684
:1002C000002B1FBFB3FA83F503FA05F424FA05F6F1
:1002D0005E4012BF1643B2FA82F502FA05F4C5F188
:1002E00020051EBF22FA05FC44EA0C04203556EA1C
:1002F000044C4FEA144418BF641C4FF000084FF040
:100300000009904271EB030C39D3002919BFB1FAEF
:1003100081F701FA07F6B0FA80F700FA07F6C7F19D
:1003200020071EBF20FA07FC46EA0C062037B6FB62
:10033000F4FCA7EB0507103F07F01F0BCBF12006DD
:100340000CFA0BFB2CFA06F644BFB3460026202F0E
:10035000A4BF5E464FF0000B5BEA060C08BF4FF0EF
:10036000010B19EB0B09ABFB027C48EB0608C01B29
:1003700006FB02CC0BFB03CC71EB0C01C1E70B4677
:10038000024641464846BDE8F08B13B54FF00000E9
:100390004FF00001AFF30080BDE81C407047000043
:1003A0000FB41CB5074B06AA7B446946009005981C
:1003B00000F039F90020694600F048F91CBC5DF8EE
:1003C00014FB0000A10200002DE9F0410E46044696
:1003D000002020622046E168884730B3252805D0F8
:1003E000D4E901219047206A401CF2E7E1682046E9
:1003F00000278847050018D0A5F14100192802D828
:1004000020354FF400673246294620462760FFF723
:1004100015FF40B1012804D0F61D26F00706083666
:10042000D8E7361DD6E72846DAE7206ABDE8F0812E
:100430002DE9F0410646002410687529314616A5BD
:1004400010D0AFF30080002802DA404213A507E085
:1004500031688A0701D512A502E0490704D511A524
:10046000012401E0AFF3008000210A2206F12407F5
:1004700009E0B0FBF2FCB0FBF2F302FB1C003030F1
:1004800078541846491C0028F3D123462A463046A2
:10049000BDE8F04100F068B8000000002D00000049
:1004A0002B000000200000004FF0000200B51346B2
:1004B00094469646203922BFA0E80C50A0E80C5084
:1004C000B1F12001BFF4F7AF090728BFA0E80C5035
:1004D00048BF0CC05DF804EB890028BF40F8042B2E
:1004E00008BF704748BF20F8022B11F0804F18BF9B
:1004F00000F8012B704710B5044610F0030F08BF39
:1005000011F0030F40F015804FF0013E121FC0F2B2
:100510000E8051F8043BA3EB0E0C2CEA030C1CEAF2
:10052000CE1C08BF40F8043BF0D0A1F1040102F159
:100530000402521E08DB11F8013B002B00F8013BBE
:10054000F7D1114600F087F8204610BD704770477C
:10055000704710B500F0A2F8006810BD10B5044651
:1005600000F09CF8046010BD2DE9F0470D46994657
:100570009246044600F124080168880604D5E06923
:1005800021F01001216000E00120A84201DD471B9D
:1005900000E00027A1697A1902EB0900081AA0619E
:1005A0002078C00602D42046AFF30080002608E081
:1005B000D4E901211AF806009047206A401C761CF5
:1005C00020624E45F4DB2078C0060AD52046AFF302
:1005D000008006E0D4E9012130209047206A401CC9
:1005E0002062381EA7F10107F4DC07E0D4E90121FD
:1005F00018F805009047206A401C2062281EA5F1CB
:100600000105F3DC2046AFF300802078000602D518
:100610000220BDE8F0870120FBE7000001694A1CC9
:1006200002610878704700B58FB0CDE90131002133
:10063000059105497944CDE9031011466846FFF755
:10064000C3FE0FB000BD0000E5FFFFFF0A6802F81F
:10065000010B0A6070474FF000020429C0F01280BD
:1006600010F0030C3FF422AFCCF1040CBCF1020FEC
:1006700018BF00F8012BA8BF20F8022BA1EB0C013A
:10068000FFF714BF5FEAC17C24BF00F8012B00F81C
:10069000012B48BF00F8012B70470000004870474D
:1006A000E806002000487047E80600207546FFF77E
:1006B000F9FFAE4605006946534620F0070085461F
:1006C00018B020B5FFF7E2FDBDE820404FF000066E
:1006D0004FF000074FF000084FF0000B21F007012A
:1006E000AC46ACE8C009ACE8C009ACE8C009ACE86D
:1006F000C0098D46704710B50446AFF30080204610
:10070000BDE81040FFF7AEBD01491820ABBEFEE7C3
:1007100026000200704700BFFEE700002DE9FC5FE5
:1007200081460E4617469846DDE90C5A4FF0FF34D5
:1007300000200AE000EB800101EBC0015B4A12F8E7
:10074000211009B9044602E0401C0828F2DB00BF72
:10075000002C02DA0020BDE8FC9F04EB840101EBD1
:10076000C401524A02EB8101481C1F224946FFF78F
:10077000C2FE002104EB840000EBC4004B4A02EBF4
:10078000800080F8201004EB840000EBC4001146C8
:1007900001EB8000476204EB840000EBC40001EB36
:1007A0008000C0F8288004EB840000EBC40001EB5B
:1007B0008000858504EB840000EBC40001EB800021
:1007C000A0F82EA004EB840000EBC40001EB800035
:1007D0000686012004EB840101EBC40102F821002C
:1007E000334890F90000401C00285CD160B23049C9
:1007F000087000202F4908702F48076010E04FF460
:10080000FA606843642190FBF1F030442A4909689A
:1008100008442949086027480078401C2549087089
:1008200004EB840000EBC400204901EB8000401C75
:1008300020490978405C2028E1D004EB840000EBDB
:10084000C4001A4901EB8000401C1A490978405C39
:1008500048B304EB840101EBC401144A02EB8101AB
:10086000491C144A1278885C04F0ECF9D8B16B4644
:1008700001AA124801781248006804F019F801989A
:100880006843642190FBF1F00B490968A1EB000B70
:100890000FFA88F10FFA8BF000F054F85146284611
:1008A00000F05AF800BF012055E70000F8020020D0
:1008B00040000020410000204400002008000020EB
:1008C0000400002010B5002008E0002100EB8002A9
:1008D00002EBC0020D4B03F82210401C0828F4DB89
:1008E000FF200B49087000200A4908704FF400638C
:1008F00000221146084800F02BFD4FF4006300224F
:100900001021054800F024FD10BD0000F802002071
:10091000400000200E000020C004002010B5044656
:1009200006480460FFF7CEFF0021054800F029FDCE
:100930001021034800F025FD10BD0000100000202C
:10094000C0040020024A1060024A11607047000093
:10095000180000201C00002000B9012001B901216D
:10096000024A1080024A11807047000014000020E3
:10097000160000202DE9F0472DED0E8B84B00446C3
:10098000FE492068884204D004B0BDEC0E8BBDE85F
:10099000F087FB4890F90000401C00B9F4E7F948E3
:1009A000007800287ED10120F6490870F6480068DA
:1009B000F649097830F83170F3480068F34909784E
:1009C00000EBC100B0F80280EF480068EF490978F9
:1009D00000EBC100B0F80490EB480068EB490978DF
:1009E00000EBC100B0F806A0E94800887843642114
:1009F00090FBF1F0E74909680844E7490860E748D7
:100A0000008808FB00F0642190FBF1F0E4490968DC
:100A10000844E4490860DE48008809FB00F06421CE
:100A200090FBF1F0DB4909680844DF490860DB48C6
:100A300000880AFB00F0642190FBF1F0D8490968B6
:100A40000844DA490860D4480068002802DA002027
:100A5000D1490860D0480068B0F5805F03DB40F6FC
:100A6000FF70CD490860D0480068002802DA0020F5
:100A7000CD490860CC480068B0F5805F03DB40F6E4
:100A8000FF70C9490860C7480068002802DA0020E2
:100A9000C4490860C3480068B0F5805F05DB40F6D4
:100AA000FF7000E09DE0BF490860C0480068002872
:100AB00002DA0020BD490860BC480068B0F5805FDC
:100AC00003DB40F6FF70B9490860B3480068B649D7
:100AD0000968451AB3480068B4490968461A30469F
:100AE00004F01BFC41EC1D0B304604F016FC41ECFD
:100AF0001E0B53EC1D2B04F063FC41EC1B0B284632
:100B000004F00BFC41EC1D0B284604F006FC41EC04
:100B10001E0B53EC1D2B04F053FC41EC1C0B53EC4F
:100B20001B2B04F089F941EC1A0BB0EE4A0AF0EEE7
:100B30006A0A03F0ADFDB0EE409AF0EE609A9FEDC8
:100B40009C0B53EC102B51EC190B04F031FA41ECD7
:100B5000180B04F0B5FB9849088008460088012866
:100B600001DA012008800020944908808A48008822
:100B70000004934908608B4800880004914908608C
:100B80008D480088002818DD874800888249098838
:100B9000401A00048849098890FBF1F08A490860EE
:100BA000824800887F490988401A000482490988E0
:100BB00090FBF1F08549086004E00020824908605C
:100BC000824908607448002211460368804800F09A
:100BD000BFFB74480022102103687D4800F0B8FB79
:100BE00005E268480078012839D174480088401C23
:100BF00072490880084600886F490988884203DDE9
:100C0000022060490870F2E16D4800686E49096889
:100C100008446B4908606B4800686C4909680844DF
:100C200068490860664800680514084600680614AC
:100C3000B5F5805F01D340F6FF75B6F5805F01D34F
:100C400040F6FF762B4600221146614800F080FBFB
:100C50003346002210215E4800F07AFBC7E1494884
:100C600000780228BCD149480078401C59490978CD
:100C700090FBF1F201FB1200444908700020414949
:100C80000870424800780028AAD102AB03AA514854
:100C900001783D48006803F00BFEDDE90201461AC9
:100CA000374890F9000000EB800101EBC0004A4991
:100CB00001EB8000808D7043642190FBF1F7304898
:100CC00090F9000000EB800101EBC000424901EB0C
:100CD0008000008E38444149096808443F49086053
:100CE0003F480078401C3E49087026E0244890F9AF
:100CF000000000EB800101EBC000374901EB8000F0
:100D0000808D4FF4FA614843642190FBF1F01C4957
:100D100091F9001001EB810202EBC1012E4A02EBB6
:100D20008101098E08442D49096808442B4908604F
:100D30002B480078401C2A49087029480078202850
:100D40000FDA0F4890F9000000EB800101EBC000C2
:100D5000214901EB8000401C21490978405C202892
:100D6000C4D01F480078202844DA054890F90000D4
:100D700000EB800101EBC000174933E00020004088
:100D8000400000200E000020040000200900002088
:100D90001400002018000020200000201600002071
:100DA0001C00002024000020280000202C0000202F
:100DB00000000000000020400C0000200A0000207D
:100DC0003000002034000020380000203C000020CB
:100DD000C004002008000020F80200204400002089
:100DE0004100002001EB8000401C82490978405CF2
:100DF000002868D1804991F900104D1C4FF0FF3058
:100E0000002114E06A184FEAE27C02EB5C7C4FEAB6
:100E1000EC0CA2EBCC0303EB830202EBC302DFF882
:100E2000DCC11CF822200AB1184602E0491C08293E
:100E3000E8DB00BF411CE9B341B26F4A11700021E9
:100E40006C4A117000EB800101EBC0016B4A02EBB0
:100E50008101496A6A4A116020E000EB800101EBE0
:100E6000C001664A02EB8101898D4FF4FA62514359
:100E7000642291FBF2F100EB800202EBC0025F4BB7
:100E800003EB8202128E11445D4A126811445C4ADF
:100E9000116058490978491C564A117000EB8001CD
:100EA00001EBC001554A02EB8101491C514A1278FD
:100EB000895C00E002E02029CFD003E0FF214E4A08
:100EC000117061E500BF8FE04A48007820280EDAF3
:100ED000494890F9000000EB800101EBC000474950
:100EE00001EB8000401C43490978405C00B97CE07C
:100EF000414890F9000000EB800101EBC0003F4940
:100F000001EB8000401C3B490978455C284603F012
:100F100099FEE8B3384890F9000000EB800101EB3E
:100F2000C000364901EB8000808D36490880324888
:100F300090F9000000EB800101EBC0002F4901EBAC
:100F40008000C08D304908806B4601AA2F48017887
:100F50002F48006803F0ACFC2A49098801984843EF
:100F6000642190FBF1F026490988A1EB00080FFAF3
:100F700088F028490860204890F9000000EB8001C3
:100F800001EBC0001D4901EB8000008D00B200E0C4
:100F900002E02149086028E0174890F9000000EBC2
:100FA000800101EBC000154901EB8000808D4FF4FA
:100FB000FA614843642190FBF1F00F4991F9001068
:100FC00001EB810202EBC1010C4A02EB8101098EA7
:100FD00008440B4909680844094908600548007835
:100FE000401C0449087000BF6EE700BF00BF00BF8F
:100FF000CAE400004100002040000020F802002068
:1010000044000020140000201600002008000020EA
:1010100004000020180000201C000020704710B5BC
:101020004FF4005000F05AFA10BD10B5042000F043
:1010300055FA10BD72B600BFFEE770B504460CB994
:10104000012070BD94F8200010B9204600F0B0F8DF
:101050002068006840F001002168086000F056FB3D
:1010600005460DE000F052FB401B0A2808D9606AD3
:1010700040F400306062052084F820000120E0E7A1
:101080002068406800F001000028EBD0206800686C
:1010900020F002002168086000F038FB05460DE0F2
:1010A00000F034FB401B0A2808D9606A40F4003085
:1010B0006062052084F820000120C2E720684068B3
:1010C00000F002000028EBD1207E012806D1206824
:1010D000006840F080002168086005E02068006832
:1010E00020F0800021680860607E012806D1206819
:1010F000006840F040002168086005E02068006852
:1011000020F0400021680860A07E012806D12068F8
:10111000006840F020002168086005E02068006851
:1011200020F0200021680860E07E012806D12068B8
:10113000006820F010002168086005E02068006861
:1011400040F0100021680860207F012806D1206847
:10115000006840F008002168086005E02068006829
:1011600020F0080021680860607F012806D120680F
:10117000006840F004002168086005E0206800680D
:1011800020F0040021680860D4E9020108432169C5
:101190000843616908436168491E08432168C861C2
:1011A00000206062012084F82000002049E7000050
:1011B00010B586B00446142101A8FFF775F91B4944
:1011C0002068884230D100BF002000901848006895
:1011D00040F00070164908600846006800F0007092
:1011E000009000BF00BF00BF0020009010481038E2
:1011F000006840F001000E49103908600846006898
:1012000000F00100009000BF00BF4FF4C0500190FB
:1012100002200290002003900320049009200590F2
:1012200001A9044800F068F906B010BD0064004050
:101230004038024000000240F0B50346002603B1EA
:1012400009B90120F0BD00BF5879012801D1022061
:10125000F8E70120587100BF02201871186804686F
:1012600002F0100740F6FE70B8408443D1E9000751
:1012700040EA070502F0100005FA00F00443186880
:1012800004601868006802F0100CC02707FA0CF719
:10129000B8431F6838600120187100BF00205871E2
:1012A00000BF3046CEE710B504460CB9012010BD92
:1012B000207920B900206071204600F009F8022052
:1012C000207100202061012020710020EFE7000044
:1012D00010B586B00446142101A8FFF7E5F81949B6
:1012E000206888422BD100BF00200090164800687B
:1012F00040F00050144908600846006800F00050B3
:10130000009000BF00BF00BF002000900E481038C2
:10131000006840F001000C49103908600846006878
:1013200000F00100009000BF00BF302001900320BA
:1013300002900020039001A9044800F0DDF806B0F7
:1013400010BD000000740040403802400000024020
:1013500038B50446002000900CB9012038BD206843
:10136000009029B902F10800009D2844009004E093
:1013700002F11400009D28440090009803600020B2
:10138000ECE710B502460AB9012010BD00BF507944
:10139000012801D10220F8E70120507100BF02208E
:1013A00010711068006801F010040123A340184375
:1013B0001368186061B91068006800F03C003C28B0
:1013C00016D11068406840F00100136858600FE0C3
:1013D0001068006800F4701301F010043C20A04075
:1013E000834205D11068406840F0020013685860DD
:1013F0000120107100BF0020507100BF00BFC4E782
:1014000070B5044600F082F906462546681C10B106
:1014100004480078054400BF00F078F9801BA8421A
:10142000FAD370BDF002002070B50446B4F5005F39
:101430001AD100F06BF9054622480068281A642882
:1014400011D921480078401C1F49087008460078CF
:10145000032801D1002008701B480078022802D11F
:1014600000201A49086000BF042C25D100F04EF975
:10147000054614480068281A64281CD914480078C6
:10148000401C13490870084600780A2801DD002036
:101490000870002003E000210E4A1154401C0A2865
:1014A000F9DB002003E05A210A4A1154401C084984
:1014B00009788842F7DB00BF0748006801490860E7
:1014C00070BD00004C000020540000205C00002093
:1014D00060000020D80200205000002010B5044613
:1014E00004480068204020B1024804602046FFF70D
:1014F0009BFF10BD143C0140F8B502460B46002589
:10150000002400200021D6E0012606FA01F51E681D
:1015100006EA0504AC4274D11E7906F00306012EDA
:1015200004D01E7906F00306022E13D190684F00F6
:101530000326BE40B0434F00DE68BE40304390609B
:10154000506801268E40B0431E79C6F300168E40C7
:10155000304350601E7906F00306032E09D0D06890
:101560004F000326BE40B0434F009E68BE4030434C
:10157000D0601E7906F00306022E13D1CF0802F1C7
:10158000200656F827004E07F70E0F26BE40B04340
:101590004F07FF0E1E69BE403043CF0802F1200600
:1015A00046F8270010684F000326BE40B0431E795E
:1015B00006F003064F00BE40304310605E6806F43C
:1015C0004036002E76D000BF002600963C4E36688E
:1015D00046F480463A4F3E603E46366806F4804602
:1015E000009600BF00BF374E8F0856F827008E07C1
:1015F000370F0F26BE40B043334EB24202D1002611
:1016000024E057E0314EB24201D101261EE0304EB7
:10161000B24201D1022619E02E4EB24201D1032678
:1016200014E02D4EB24201D104260FE02B4EB242FF
:1016300001D105260AE02A4EB24201D1062605E074
:10164000284EB24201D1072600E008268F073F0F3F
:10165000BE4030431B4E8F0846F82700224E3068AC
:10166000A0435E6806F4801606B120431E4E30602B
:10167000361D3068A0435E6806F4001606B12043AC
:10168000194E361D3060184E361F3068A0435E6814
:1016900006F4003606B12043134E361F3060361F65
:1016A0003068A0435E6806F4803606B120430E4ED3
:1016B000083E3060491C1029FFF426AFF8BD000039
:1016C0004438024008380140000002400004024053
:1016D00000080240000C02400010024000140240CA
:1016E00000180240001C0240083C014010B542694D
:1016F00021EA020302EA010443EA0443836110BDC4
:101700000AB1816101E00B04836170470148006800
:1017100070470000E802002070B504460CB90120B3
:1017200070BD94F83D0028B9002084F83C002046A4
:1017300000F0DAF8242084F83D002068006820F0EA
:101740000100216808602068006840F400402168BA
:1017500008602068006820F400402168086000F0FC
:10176000A9FA05465C496068884206D85B4885420C
:1017700001D2012007E0002005E05948854201D24E
:10178000012000E00020012800D1C9E75548B5FB41
:10179000F0F62068406820F03F0030432168486040
:1017A0004D496068884201D8701C07E04FF496707C
:1017B00070434FF47A71B0FBF1F0401C2168096A64
:1017C00021F03F010843216808624349606888426C
:1017D00014D8681E61684900B0FBF1F0401CC0F3EA
:1017E0000B00042801D204203DE0681E6168490016
:1017F000B0FBF1F0401CC0F30B0034E0A06838B936
:10180000681E616801EB4101B0FBF1F0401C0AE089
:10181000681E616801EBC10202EB0111B0FBF1F03F
:10182000401C40F48040C0F30B0008B901201AE0CE
:10183000A06848B9681E616801EB4101B0FBF1F096
:10184000401CC0F30B000CE0681E616801EBC10294
:1018500002EB0111B0FBF1F0401CC0F30B0040F4AF
:10186000804040F400402168C9694CF6FF72914302
:1018700008432168C861D4E9070108432168096861
:1018800021F0C001084321680860D4E9031008432F
:101890002168896848F2FF329143084321688860D3
:1018A000D4E9050108432168C96821F0FF01084314
:1018B0002168C8602068006840F001002168086065
:1018C00000202064202084F83D000020206384F85C
:1018D0003E0000BF24E70000A086010080841E00B7
:1018E00000093D0040420F0010B586B004461421A7
:1018F00001A8FEF7D9FD1B49206888422FD100BFFF
:10190000002000901848006840F002001649086066
:101910000846006800F00200009000BF00BFC02031
:1019200001901220029000200390032004900420D4
:10193000059001A90D48FFF7DFFD00BF00200090D2
:1019400009481030006840F4001007491031086061
:101950000846006800F40010009000BF00BF06B009
:1019600010BD000000540040303802400004024026
:101970000348006803490978084401490860704732
:10198000E8020020F002002010B50D48006840F485
:1019900000700B4908600846006840F480600860E9
:1019A0000846006840F480700860032000F0A6F844
:1019B0000F2000F007F800F02BF8002010BD000009
:1019C000003C024070B504460E4800784FF47A712E
:1019D000B1FBF0F00C490968B1FBF0F5284600F0C6
:1019E000F5FC08B1012070BD102C07D20022214661
:1019F000501E00F045F80548046001E00120F2E7C0
:101A00000020F0E7F0020020F4020020EC020020A9
:101A100008B500BF002000900E48006840F48040E8
:101A20000C4908600846006800F48040009000BF40
:101A300000BF00BF00200090081F006840F08050E9
:101A4000091F08600846006800F08050009000BF41
:101A500000BF08BD443802400146084600280DDB9F
:101A600000BF00BF00F01F0301229A4043099B0002
:101A700003F1E023C3F8002100BF00BF00BF70479F
:101A80002DE9F05F80460D461646002701F0BCFFA9
:101A9000074639462A46334601F00700C0F1070AD7
:101AA000BAF1040F02D94FF0040A01E0C0F1070AAD
:101AB000D14600F1040ABAF1070F02D24FF0000A32
:101AC00001E0A0F1030AD4464FF0010A0AFA09FA2C
:101AD000AAF1010A0AEA020A0AFA0CFA4FF0010B0B
:101AE0000BFA0CFBABF1010B0BEA030B4AEA0B04FC
:101AF0002146404601F090FFBDE8F09F00BF00F096
:101B00000702064B19684FF6FF031940044B0B43BD
:101B100043EA0221014B196000BF70470CED00E061
:101B20000000FA0570B504460D460CB9012070BDE1
:101B30005848006800F00700A84209D255490D70C6
:101B40000846006800F00700A84201D00120EEE737
:101B5000207800F0020002281DD1207800F0040057
:101B6000042805D14C48006840F4E0504A49086018
:101B7000207800F00800082805D14748006840F4A4
:101B80006040454908604448006820F0F000A168C2
:101B9000084341490860207800F00100A8B360685C
:101BA000012807D13C4808380068C0F34040B8B964
:101BB0000120BCE76068022802D06068032807D1D2
:101BC000354808380068C0F3406048B90120AEE7E6
:101BD000314808380068C0F3400008B90120A6E782
:101BE0002D48006820F00300616808432A49086016
:101BF000FFF78CFD064609E0FFF788FD801B41F2E8
:101C00008831884202D9032091E707E02248006822
:101C100000F00C006168B0EB810FEDD11D48006849
:101C200000F00700A84209D91A490D70084600685B
:101C300000F00700A84201D0012078E7207800F0EA
:101C40000400042807D11448006820F4E050E1683B
:101C5000084311490860207800F00800082808D1DE
:101C60000D48006820F46040216940EAC1000A493B
:101C7000086000F03FF808490968C1F30311074AFA
:101C8000515CC8400649086006480068FFF79AFEA4
:101C900000204CE7003C0240083802403A6300084C
:101CA000F4020020EC0200200148006870470000A8
:101CB000F402002000B5FFF7F7FF04490968C1F3FB
:101CC0008221034A515CC84000BD00000838024030
:101CD0004A63000800B5FFF7E7FF04490968C1F34C
:101CE0004231034A515CC84000BD00000838024040
:101CF0004A6300082DE9F047002400250026A1468C
:101D00002548006800F00C0020B1042805D0082800
:101D10003AD105E0DFF8849039E0DFF8849036E0CE
:101D20001D48001F006800F03F041B48001F0068AA
:101D300000F4800078B11A481749091F0968C1F3F7
:101D40008811A0FB01700146224600233846FEF7A9
:101D5000AFFA05460EE011480F49091F0968C1F3A3
:101D60008811A0FB01700146224600233846FEF789
:101D70009FFA05460848001F0068C0F30140401C58
:101D80004600B5FBF6F902E0DFF8109000BF00BF97
:101D90004846BDE8F0870000083802400024F400FF
:101DA00000127A00F8B504460CB90120F8BD20787D
:101DB00000F00100002874D0F948006800F00C0021
:101DC00004280DD0F648006800F00C00082813D154
:101DD000F348001F006800F48000B0F5800F0BD1BD
:101DE000EF4808380068C0F34040002859D06068C8
:101DF000002856D10120D9E700BF6068B0F5803FC8
:101E000008D1E7480838006840F48030E4490839D0
:101E100008601EE06068B0F5A02F0DD1E0480838DA
:101E2000006840F48020DE490839086008460068F0
:101E300040F4803008600CE0D9480838006820F48D
:101E40008030D749083908600846006820F48020AF
:101E5000086000BF606890B1FFF758FC054606E0D7
:101E6000FFF754FC401B642801D903209EE7CC48AF
:101E700008380068C0F340400028F1D011E0FFF7B7
:101E800045FC054606E0FFF741FC401B642801D9EC
:101E900003208BE7C24808380068C0F340400028A0
:101EA000F1D1207800F0020002285FD1BC48006820
:101EB00000F00C0058B1BA48006800F00C00082887
:101EC0001CD1B748001F006800F48000B0B9B448C6
:101ED00008380068C0F3400020B1E068012801D054
:101EE000012063E7AE480838006820F0F800216957
:101EF00040EAC100AA490839086037E0E06800B349
:101F00000120A8490860FFF701FC054606E0FFF73D
:101F1000FDFB401B022801D9032047E7A0480838F1
:101F20000068C0F340000028F1D09D4808380068E0
:101F300020F0F800216940EAC10099490839086099
:101F400014E0002097490860FFF7E0FB054606E033
:101F5000FFF7DCFB401B022801D9032026E790484D
:101F600008380068C0F340000028F1D1207800F064
:101F7000080008282CD16069A8B101208A490860AE
:101F8000FFF7C4FB054606E0FFF7C0FB401B022835
:101F900001D903200AE782486C300068C0F3400092
:101FA0000028F1D014E000207F490860FFF7AEFB65
:101FB000054606E0FFF7AAFB401B022801D90320D3
:101FC000F4E677486C300068C0F340000028F1D197
:101FD000207800F00400042870D1002770483830C1
:101FE000006800F0805090B900BF002000906C485D
:101FF0003830006840F08050694938310860084640
:10200000006800F08050009000BF00BF01276748C3
:10201000006800F48070B0B96448006840F48070D3
:1020200062490860FFF772FB054606E0FFF76EFBAA
:10203000401B022801D90320B8E65C48006800F480
:1020400080700028F2D000BFA068012808D1544851
:102050006830006840F001005149683108601DE0B7
:10206000A06805280DD14E486830006840F0040093
:102070004B49683108600846006840F0010008607C
:102080000CE047486830006820F00100444968319E
:1020900008600846006820F00400086000BFA068DF
:1020A000A8B1FFF733FB054609E0FFF72FFB401B04
:1020B00041F28831884202D9032077E626E0384889
:1020C00068300068C0F340000028EED013E0FFF74E
:1020D0001DFB054608E0FFF719FB401B41F2883164
:1020E000884201D9032061E62D4868300068C0F3BA
:1020F00040000028EFD1012F07D12948383000686F
:1021000020F0805026493831086000BFA0690028BF
:1021100045D02348006800F00C0008285DD0A06975
:10212000022845D100201F490866FFF7EFFA05464F
:1021300006E0FFF7EBFA401B022801D9032035E641
:10214000174808380068C0F340600028F1D1D4E98E
:1021500007010843616A40EA81110122A06AC2EBCB
:10216000500041EA00412C20005D41EA00600C492A
:10217000091F086001200B490866FFF7C7FA0546EA
:1021800006E0FFF7C3FA401B022801D903200DE641
:10219000034808380068C0F340600028F1D049E0E7
:1021A0000838024000004742800E4742007000405D
:1021B000002021490866FFF7A9FA054606E0FFF767
:1021C000A5FA401B022801D90320EFE51B4800684F
:1021D000C0F340600028F2D12CE0A069012800D1B2
:1021E000E4E51648001D0668A069012820D006F421
:1021F0008001E06981421BD106F03F01206A8142E3
:1022000016D147F6C0703040616AB0EB811F0FD124
:1022100006F440310122A06AC2EB5000B1EB004F3E
:1022200006D106F070612C20005DB1EB006F01D08B
:102230000120BBE50020B9E500004742003802401C
:1022400010B504460CB9012010BD606A38B9606849
:10225000B0F5827F00D105E00021E16102E00021BC
:10226000216161610021A16294F8510028B9002028
:1022700084F85000204600F047F8022084F851000E
:102280002068006820F0400021680860A08800F401
:102290008270218901F404410843A18901F400619D
:1022A0000843217C01F002010843217D01F0010176
:1022B0000843218B01F400710843217F01F03801AC
:1022C00008432021095D01F080010843218D01F4BC
:1022D00000510843216808600421A06901EA104008
:1022E00094F8241001F01001084321684860206828
:1022F000C06920F400602168C86100206065012089
:1023000084F8510000209FE710B586B004461421E0
:1023100001A8FEF7C9F82949206888424CD100BFBE
:10232000002000902648006840F48050244908604E
:102330000846006800F48050009000BF00BF00BF56
:10234000002000901E481438006840F001001C492D
:10235000143908600846006800F00100009000BFD2
:1023600000BF00BF002000900846006840F0020057
:1023700008600846006800F00200009000BF00BF3F
:10238000C0200190022002900020039003200490BE
:102390000520059001A90B48FFF7AEF80820019031
:1023A0000220029000200390032004900520059055
:1023B00001A90548FFF7A0F806B010BD00300140A4
:1023C00044380240000002400004024070B5044658
:1023D0002546681EB0F1807F01D301200FE0681E02
:1023E0004FF0E02148610F214FF0FF3001F014FB66
:1023F00000204FF0E021886107200861002070BDB7
:102400007047704730B502460B4600BF92F83C005B
:10241000012801D1022030BD012082F83C0000BF1C
:10242000022082F83D00106844681068816824F03A
:1024300070041868044310684460184D1068A8427E
:102440001BD01068B0F1804F17D0154D1068A8420E
:1024500013D0144D1068A8420FD0134D1068A84235
:102460000BD0124D1068A84207D0114D1068A84239
:1024700003D0104D1068A84205D121F080015868A2
:10248000014310688160012082F83D0000BF0020F8
:1024900082F83C0000BF00BFBDE700000000014023
:1024A0000004004000080040000C0040000401400F
:1024B000004001400018004010B504460CB901204E
:1024C00010BD94F83D0028B9002084F83C00204657
:1024D00000F026F8022084F83D00211D206800F05D
:1024E000C9FF012084F8460000BF84F83E000121A6
:1024F0003F200155402001554120015500BF00BF3C
:10250000012084F842004320015544200155452014
:10251000015500BF012084F83D000020D0E70000F5
:1025200038B504461C492068884218D100BF0020F5
:1025300000901A48006840F00200184908600846F8
:10254000006800F00200009000BF00BF00221146AA
:102550001D20FFF795FA1D20FFF77EFA1BE01049BA
:102560002068884217D100BF002000900B48006807
:1025700040F48070094908600846006800F48070E3
:10258000009000BF00BF002211462D20FFF778FA0F
:102590002D20FFF761FA38BD0004004040380240AA
:1025A00000200040014691F83D00012801D00120A3
:1025B0007047022081F83D000868C06840F00100C3
:1025C0000B68D8601A4B086898421BD00868B0F1B5
:1025D000804F17D0174B0868984213D0164B0868E5
:1025E00098420FD0154B086898420BD0144B0868DE
:1025F000984207D0134B0868984203D0124B0868E2
:1026000098420CD10868806800F00702062A0CD0B6
:102610000868006840F001000B68186005E0086871
:10262000006840F001000B6818600020C0E700005F
:10263000000001400004004000080040000C004081
:102640000004014000400140001800402DE9F04125
:1026500004460D46002700BF94F83C00012802D133
:102660000220BDE8F081012084F83C0000BF022078
:1026700084F83D002068866826F0770626F47F46B9
:10268000206886602868502833D00CDC202850D081
:1026900004DC00284BD0102851D149E0302849D023
:1026A00040284CD139E060282DD0702807D0B0F5F3
:1026B000805F03D0B0F5005F41D10DE041E0D5E986
:1026C00002136A68206800F056FF2068866846F0AA
:1026D00077062068866034E0D5E902136A682068CE
:1026E00000F049FF2068806840F4804021688860DD
:1026F00027E0EA686968206801F02EF85021206818
:1027000000F044FF1DE0EA686968206801F037F8CE
:102710006021206800F03AFF13E0EA6869682068E9
:1027200001F01AF84021206800F030FF09E000BFF6
:1027300000BF00BF2968206800F028FF01E00127E2
:1027400000BF00BF012084F83D0000BF002084F8D6
:102750003C0000BF384684E72DE9F04104460D46B1
:1027600014B90120BDE8F08194F83D0028B900209B
:1027700084F83C00204600F053F8022084F83D0025
:102780002068806844F20701884321688860211D21
:10279000206800F06FFE2068D0F808802068866905
:1027A0002068076A286840EA080840F20330864338
:1027B000A969A86840EA0120064340F60C40864318
:1027C0004FF2F0008643E969E86840EA01200643D9
:1027D00028690001296A40EA0130064327F02207F0
:1027E00027F088076969686840EA01100743206894
:1027F000C0F808802068866120680762012084F89C
:10280000460084F83E0001213F200155012084F854
:10281000420043200155012084F83D000020A1E73B
:1028200010B586B00446142101A8FDF73DFE1F49EE
:102830002068884237D100BF002000901C48006803
:1028400040F002001A4908600846006800F00200E3
:10285000009000BF00BF00BF002000901448143853
:10286000006840F004001249143908600846006806
:1028700000F00400009000BF00BFC02001900220C3
:10288000029001200390002004900320059001A9EC
:102890000848FEF731FE002211462D20FFF7F0F820
:1028A0002D20FFF7D9F806B010BD0000000401404C
:1028B00044380240000802402DE9F04304460D462A
:1028C00094F83E603F20075D94F84280432010F862
:1028D00004906DB9012E02D1B8F1010F02D0012090
:1028E000BDE8F083022084F83E0084F8420025E031
:1028F000042D0CD1012F02D1B9F1010F01D001201B
:10290000EEE702213F2001554320015516E0012E3C
:1029100007D1012F05D1B8F1010F02D1B9F1010F93
:1029200001D00120DCE7022084F83E0002213F2094
:102930000155022084F842004320015515B1042DB1
:102940000CD105E001220021206800F003FE10E018
:1029500001220421206800F0FDFD0AE0012200218F
:10296000206800F0F7FD01220421206800F0F2FD4C
:1029700000BF00BF2068006840F0010021680860C7
:102980000020ADE7704770B504462068C568206830
:10299000066906F00200022819D105F0020002289B
:1029A00015D1401F216808610120207720688069C7
:1029B00000F0030018B12046FFF7E4FF05E02046D1
:1029C00000F0C6F8204600F091F90020207706F0CC
:1029D0000400042819D105F00400042815D1C043CF
:1029E00021680861022020772068806900F4407027
:1029F00018B12046FFF7C6FF05E0204600F0A8F812
:102A0000204600F073F90020207706F0080008281F
:102A100019D105F00800082815D1C04321680861C4
:102A2000042020772068C06900F0030018B1204618
:102A3000FFF7A8FF05E0204600F08AF8204600F0E6
:102A400055F90020207706F01000102819D105F064
:102A50001000102815D1C043216808610820207794
:102A60002068C06900F4407018B12046FFF78AFF63
:102A700005E0204600F06CF8204600F037F9002011
:102A8000207706F0010048B105F0010030B16FF089
:102A9000010021680861204600F0B0F906F08000CE
:102AA000802809D105F08000802805D1C043216825
:102AB00008612046FFF7A4FC06F04000402809D139
:102AC00005F04000402805D1C04321680861204638
:102AD00000F0C8F906F02000202809D105F02000F8
:102AE000202805D1C043216808612046FFF789FCF2
:102AF00070BD000010B586B00446142101A8FDF792
:102B0000D3FC2068B0F1804F1CD100BF00200090A2
:102B10000D48006840F001000B4908600846006855
:102B200000F00100009000BF00BF042001900220CF
:102B300002900020039004900120059001A9034811
:102B4000FEF7DAFC06B010BD30380240000002404B
:102B500070472DE9F04104460D461646002700BF98
:102B600094F83C00012802D10220BDE8F081012048
:102B700084F83C0000BF36B1042E1BD0082E31D0A3
:102B80000C2E5ED145E02946206800F009FD206842
:102B9000806940F00800216888612068806920F021
:102BA00004002168886120688069296908432168D8
:102BB000886148E02946206800F02AFD2068806985
:102BC00040F40060216888612068806920F480609A
:102BD0002168886120688069296940EA01202168AC
:102BE000886130E02946206800F050FD2068C06907
:102BF00040F008002168C8612068C06920F0040026
:102C00002168C8612068C069296908432168C861D2
:102C100019E02946206800F075FD2068C06940F47D
:102C200000602168C8612068C06920F48060216864
:102C3000C8612068C069296940EA01202168C8612B
:102C400001E0012700BF00BF00BF002084F83C0066
:102C500000BF384689E710B504460CB9012010BD05
:102C600094F83D0028B9002084F83C00204600F08C
:102C700025F8022084F83D00211D206800F0FAFBB1
:102C8000012084F8460000BF84F83E0001213F2067
:102C90000155402001554120015500BF00BF0120D2
:102CA00084F8420043200155442001554520015538
:102CB00000BF012084F83D000020D0E708B501687E
:102CC000B1F1804F0FD100BF002100910649096882
:102CD00041F00101044A11601146096801F0010147
:102CE000009100BF00BF08BD40380240704700009F
:102CF00070B504460D4615B994F83E000BE0042D5E
:102D000002D13F20005D06E0082D02D14020005D89
:102D100001E04120005D012801D0012070BD1DB9F6
:102D2000022084F83E000EE0042D03D102213F2052
:102D3000015508E0082D03D102214020015502E091
:102D400002214120015501222946206800F002FCA1
:102D500023492068884203D022492068884201D153
:102D6000012000E0002028B12068406C40F40040C1
:102D7000216848641A49206888421BD02068B0F155
:102D8000804F17D018492068884213D0174920680F
:102D900088420FD01649206888420BD0114920681C
:102DA000884207D013492068884203D0124920681E
:102DB00088420CD12068806800F00706062E0CD0EF
:102DC0002068006840F001002168086005E0206884
:102DD000006840F001002168086000209EE70000C4
:102DE00000000140000401400004004000080040D1
:102DF000000C0040004001400018004010B504469F
:102E000012492068884202D12046FDF7B3FD1049DF
:102E10002068884219D10F480088401C00B20D4933
:102E20000880084600880A2801D1002008800A4846
:102E30000849B1F90010405C0849098848436421F9
:102E400090FBF1F006490968C86310BD00200040FE
:102E500000040040E6020020D802002048000020C4
:102E600080050020704710B504460CB9012010BD44
:102E7000A06900B100E000BF94F8410028B900202B
:102E800084F84000204600F029F8242084F841000E
:102E90002068C06820F400502168C860204600F017
:102EA00083FC2068006920F4904021680861206854
:102EB000406920F02A00216848612068C06840F419
:102EC00000502168C86000206064202084F8410020
:102ED00084F842000020606300BFC8E710B586B0E8
:102EE0000446142101A8FDF7DFFA1B492068884237
:102EF00030D100BF002000901848006840F010005A
:102F0000164908600846006800F01000009000BFF5
:102F100000BF00BF0020009010481438006840F047
:102F200001000E49143908600846006800F00100ED
:102F3000009000BF00BF4FF4C060019002200290DB
:102F400000200390032004900720059001A9044865
:102F5000FEF7D2FA06B010BD00100140443802401E
:102F60000000024000BFFEE710B50B480B490860A7
:102F700010204860002109488160C1600161416101
:102F8000017641768176C17601774177FEF755F873
:102F900008B1FEF74FF810BD00640040980400200F
:102FA0001CB50020009001900E480F4908600846AB
:102FB000FEF779F908B1FEF73DF800200090019086
:102FC000002269460848FEF737F908B1FEF732F8E3
:102FD000102269460448FEF72FF908B1FEF72AF8D7
:102FE0001CBD000000740040C004002000B587B084
:102FF000142102A8FDF758FA00BF002001904348B1
:10300000006840F01000414908600846006800F080
:103010001000019000BF00BF00BF002001900846D3
:10302000006840F0040008600846006800F00400F2
:10303000019000BF00BF00BF00200190084600685B
:1030400040F0010008600846006800F001000190AF
:1030500000BF00BF00BF002001900846006840F09C
:10306000020008600846006800F00200019000BFFE
:1030700000BF0022C9142648FEF742FB042002903C
:103080004FF4881003900120049002A92148FEF714
:1030900033FA7820029000200390049002A91D4882
:1030A000FEF72AFA4FF4005002904FF48810039074
:1030B0000120049002A91848FEF71EFA4FF4804040
:1030C000029000200390049002A91348FEF714FA1E
:1030D0004FF40060029001200390049000200590BE
:1030E00002A90B48FEF708FA002211460820FEF755
:1030F000C7FC0820FEF7B0FC002211462820FEF78E
:10310000BFFC2820FEF7A8FC07B000BD3038024005
:1031100000040240001002400008024010B50B48B5
:103120000B4908600B484860002109488160C16074
:103130004FF480410161002141618161C1610162FF
:10314000FEF7EAFA08B1FDF775FF10BD0054004024
:10315000D4040020A086010010B50E480E49086076
:103160004FF48270486000210B488160C1600161AA
:1031700041614FF4007181610021C16101624162CE
:1031800081620A21C162FFF75BF808B1FDF752FFC7
:1031900010BD0000003001402805002010B509488E
:1031A00009490860532048600021074881600421D4
:1031B000C160002101618161FFF77EF908B1FDF76F
:1031C00039FF10BD002000405806002000B589B02E
:1031D0000020079008901C216846FDF765F94FF024
:1031E0008040174908600020486000211448816031
:1031F000FF21C160002101618161FFF72CFD08B151
:10320000FDF718FF00200790089007A90C48FFF76A
:10321000F9F808B1FDF70EFF602000900020019042
:1032200002900490082269460548FFF792FC08B115
:10323000FDF700FF0248FFF75DFC09B000BD00008C
:103240008005002000B587B0002003900490059011
:1032500006900190029014481449086029204860A3
:1032600000211248816040F2E731C1600021016114
:103270008161FFF721F908B1FDF7DCFE4FF48050C2
:10328000039003A90948FFF7E1F908B1FDF7D2FE61
:1032900000200190029001A90448FFF7B3F808B19B
:1032A000FDF7C8FE07B000BD00040040C8050020BF
:1032B00000B58BB0242102A8FDF7F6F8002000909D
:1032C00001901A481A4908600020486000211848F7
:1032D00081604FF6FF71C160002101614161816130
:1032E000032002900020039001200490002005900C
:1032F0000F200690002007900120089000200990E0
:103300000F200A9002A90A48FFF726FA08B1FDF734
:1033100091FE00200090019069460548FFF772F881
:1033200008B1FDF787FE0BB000BD000000040140AE
:103330001006002010B50B480B4908604FF4E1302F
:103340004860002108488160C16001610C21416131
:1033500000218161C161FFF786FD08B1FDF76AFEBA
:1033600010BD000000100140A006002000BFFEE7D5
:1033700000BFFEE77047704710B5FEF7F9FA10BDC1
:1033800000B593B0302107A8FDF78EF8142102A8EC
:10339000FDF78AF800BF002001902548006840F042
:1033A0008050234908600846006800F08050019072
:1033B00000BF00BF00BF002001901E48006840F41D
:1033C00080401C4908600846006800F48040019075
:1033D00000BF00BF0220079001200A9010200B9030
:1033E00002200D9000210E9108210F91A82110912B
:1033F000022111910421129107A8FEF7D3FC08B114
:10340000FDF718FE0F200290022003900020049088
:103410004FF4A05005904FF480500690052102A86B
:10342000FEF780FB08B1FDF705FE13B000BD0000FC
:1034300040380240007000400348006840F47000CB
:10344000014908607047000088ED00E010B50248AF
:10345000FFF799FA10BD0000C805002010B5034819
:10346000FFF791FA0248FFF78EFA10BD1006002010
:103470005806002010B502682B4B98420ED0B0F1D0
:10348000804F0BD0294B984208D0294B984205D049
:10349000284B984202D0284B984203D122F0700268
:1034A0004B681A43204B984220D0B0F1804F1DD07A
:1034B0001E4B98421AD01E4B984217D01D4B984273
:1034C00014D01D4B984211D01C4B98420ED01C4B6F
:1034D00098420BD01B4B984208D01B4B984205D00A
:1034E0001A4B984202D01A4B984203D122F44072F0
:1034F000CB681A4322F080034C6943EA04028B68CC
:10350000C3620B688362084B984202D00A4B984210
:1035100001D10B690363036843F0040303600123D3
:103520004361026010BD0000000001400004004043
:1035300000080040000C0040000401400040014031
:10354000004401400048014000180040001C0040B9
:103550000020004030B501F01F05012404FA05F3F6
:10356000046A9C430462046A01F01F0502FA05F52F
:103570002C43046230BD30B50C46816821F47F4194
:1035800042EA032525432943816030BD0A4681680C
:1035900021F0700142F00703194381607047000079
:1035A00030B5026A056A25F0010505624368846941
:1035B00024F0700424F003040D682C4322F002026E
:1035C0008D682A43104DA84200D103E00F4DA84258
:1035D00006D100BF22F00802CD682A4322F004027F
:1035E000094DA84202D0094DA84207D123F48073A7
:1035F00023F400734D692B438D692B434360846131
:103600004D684563026230BD000001400004014086
:1036100030B5026A056A25F01005056243688469C1
:1036200024F4E04424F440740D6844EA052422F0B4
:1036300020028D6842EA0512124DA84200D103E033
:10364000114DA84207D100BF22F08002CD6842EAA6
:10365000051222F040020B4DA84202D00A4DA842AA
:1036600009D123F4806323F400634D6943EA8503A1
:103670008D6943EA8503436084614D688563026216
:1036800030BD0000000001400004014030B5026A76
:10369000056A25F4807505624368C46924F07004E6
:1036A00024F003040D682C4322F400728D6842EA72
:1036B0000522124DA84200D103E0114DA84207D1C6
:1036C00000BF22F40062CD6842EA052222F4806243
:1036D0000A4DA84202D00A4DA84209D123F48053D2
:1036E00023F400534D6943EA05138D6943EA05133A
:1036F0004360C4614D68C563026230BD0000014093
:103700000004014030B5036A056A25F4805505625E
:103710004468C26922F4E04222F440720D6842EA31
:10372000052223F400538D6843EA0533084DA8426F
:1037300002D0084DA84204D124F480444D6944EAE3
:1037400085144460C2614D680564036230BD0000A9
:10375000000001400004014030B50B461446026AE7
:10376000056A25F001050562816921F0F00141EA51
:10377000041122F00A021A438161026230BD30B5A1
:103780000B461446026A056A25F010050562816938
:1037900021F4704141EA043122F0A00242EA03120E
:1037A0008161026230BD00002DE9F84F04462068B7
:1037B000006920F44050E1680843216808612169EC
:1037C000A068084361690843E169084300902068E4
:1037D000C06849F20C618843009908432168C860B9
:1037E0002068406920F44070A1690843216848615D
:1037F00076492068884203D075492068884203D101
:10380000FEF768FA814602E0FEF754FA8146E06965
:10381000B0F5004F6CD102206168A0FB0150034657
:103820001920A9FB007001462A463846FCF740FDE6
:103830006421B0FBF1F04FEA001A02206168A0FB9E
:1038400001510B461920A9FB00712A463846FCF7A6
:103850002FFD834602206168A0FB0150034619201A
:10386000A9FB00712A463846FCF722FD6421B0FB13
:10387000F1F000EBC00101EB0010ABEB8000322156
:1038800001EBC0006421B0FBF1F000F0F8000AEB9E
:10389000400A02206168A0FB015003461920A9FBE1
:1038A000007001462A463846FCF702FD8346022096
:1038B0006168A0FB015003461920A9FB00712A464C
:1038C0003846FCF7F5FC6421B0FBF1F000EBC001D9
:1038D00001EB0010ABEB8000322101EBC000642152
:1038E000B0FBF1F000F007005044216888606AE006
:1038F00004206168A0FB015003461920A9FB007059
:1039000001462A463846FCF7D3FC8246042061680B
:10391000A0FB015003461920A9FB007001462A466E
:103920003846FCF7C5FC6421B0FBF1F000EBC001A8
:1039300001EB0010AAEB8000322101EB00106421A2
:10394000B0FBF1F000F0F00A04206168A0FB017008
:1039500003461920A9FB00513A462846FCF7A8FC6B
:103960006421B0FBF1F00AEB001A04206168A0FBAF
:1039700001510B461920A9FB00712A463846FCF775
:1039800097FC834604206168A0FB01500346192080
:10399000A9FB007001462A463846FCF789FC6421E1
:1039A000B0FBF1F000EBC00101EB0010ABEB8000CD
:1039B000322101EB00106421B0FBF1F000F00F00A8
:1039C000504421688860BDE8F88F00000010014075
:1039D0000014014000BFFEE703B4019841000098C5
:1039E00050EAC12018BF04204A0D18BF40F0010062
:1039F00040F2FF72B2EB515F08BF40F002000128B5
:103A000008BF052002B0704702480068C0F30220DA
:103A1000704700000CED00E010B5002804DB0A0739
:103A2000130E054A135406E00A07140E034A00F069
:103A30000F031B1FD45410BD00E400E018ED00E09C
:103A40002DE9F04D2DED040B2DED0E8B96B0DDE93B
:103A50002550279CDDF890A025F0004624F0004872
:103A6000BAF1000F14BF0121002101EB4502FC490E
:103A700053184A1093422AD3002814BF012300236D
:103A800003EB44030B44F7498B4220D358EA00016F
:103A90009FEDF59B76D0DFF8D8B35D4503D1BAF141
:103AA000000F05D188E0BAF1000F08BF002100D057
:103AB000012101EB450111F5001F08D8002814BFB2
:103AC0000121002101EB440111F5001F0BD99DEDEF
:103AD000261B9DED240B16B0BDEC0E8B04B0BDE88B
:103AE000F04D00F0A9BE0027002DBCBFE14988457C
:103AF00021DAE1498845A8BF02271CDAC3451ADC50
:103B0000DE4901EB2851142908DDC1F1340220FA05
:103B100002F101FA02F282420DD108E058B9C1F176
:103B2000140228FA02F101FA02F2424503D101F02F
:103B30000101C1F1020756EA0A0124D1002C22DA60
:103B4000002D18BF022F01D0012F0AD00220FCF750
:103B500005FD16B0BDEC0E8B04B0BDE8F04D00F0D5
:103B600053BE0220FCF7FAFC00F04EFE51EC100BA5
:103B700001F055F941EC100B16B0BDEC0E8B04B002
:103B8000BDE8F08D18E09FEDBEAB9FEDBF8B002828
:103B900071D1B848804522D105F1804010F58010E0
:103BA00008BFBAF1000F07D0B3450ADC002CA8BF4C
:103BB0009DED260BE0DA0DE0B0EE490AF0EE690A61
:103BC000DAE7002C06DA9DED260B51EC100B01F024
:103BD00026F96FE0AE48784490ED000BCCE7D8456D
:103BE0004DD1002C48DA2EB186423AD1BAF1000FFD
:103BF00042D126E0BAF1000F13D00220FCF7AEFC50
:103C000000F036FE8DED020B9DED240B8DED000BCB
:103C100010EE900A039961F31E0003909DED020BD4
:103C2000AAE78DED02AB9DED240B1AEE901A10EE73
:103C3000900A8DED000B61F31E0003909DED020BC9
:103C40009AE78DED028B9DED240B18EE901A10EE85
:103C5000900A8DED000B61F31E0003909DED020BA9
:103C60008AE709DA9DED240B51EC190B53EC102B6C
:103C700001F09EF91EE020E09DED240B7CE78642DA
:103C80001BDAB4F1804F0DD0A4F10050B0F1FF5019
:103C900013D1002D11DB9DED240B51EC100B01F025
:103CA00087F807E09DED240B53EC102B51EC100B23
:103CB00000F0C2BC41EC100B5EE79DED240B51EC13
:103CC000100B00F021FEBAF1000FCDE90E0142D138
:103CD0009FED710B46B3A6F1E040B0F17F600CD0D0
:103CE0005E4538D1002D00DAA7B3022F0CBF0120AA
:103CF0004FF0FF3001F011FBDCE7002D01DD002C5F
:103D00000DDA002D01DD002C1FDB002D16DA002C52
:103D100014DB012F08BF9FED620B3FF42DAFB0EE17
:103D20004A0AF0EE6A0A27E7022F18BF002D0CD0CE
:103D3000012F0AD1002DFFF61FAF06E0002DB8BFFE
:103D4000002C08DA012F3FF417AFB0EE480AF0EE6E
:103D5000680A11E71BE0012000EBE57050EA07015B
:103D600015D0791EB0EE498AF0EE698A084308BF83
:103D70009FED4D8B4E480025804570DD4D494E48E6
:103D8000884514DDB0420DDB002C19DB2FE001204B
:103D9000FCF7E4FB16B0BDEC0E8B04B0BDE8F04DB3
:103DA00000F056BDB34502DC002C09DC1FE0864262
:103DB00002DA002C1BDA03E05E452BDD002C16DD59
:103DC0000220FCF7CBFB00F053FD8DED020B53EC12
:103DD0001A2B51EC180B01F0F3FACDE9000103990D
:103DE000019861F31E0003909DED020BC4E60220D2
:103DF000FCF7B4FB00F04CFD10EE901A18EE900AA0
:103E00008DED020B8DED008B61F31E0003909DED97
:103E1000020BB1E69DED0E0B53EC192B51EC100B80
:103E200001F0DAFC9FED260BCDE9080153EC102BD5
:103E30009DED080B51EC100B01F0C2FA9FED221B17
:103E400053EC112B01F0F0FB9DED081B53EC112BF3
:103E500001F0B6FA9FED1E1B53EC112B3CE08CE0F9
:103E6000FFFF1F00FFFF0F00000000000000F03FF9
:103E70000000F03F0000F07F0000404301FCFFFF26
:103E8000000000000000F07F0000000000000000C3
:103E90000628000000000000000000000000008074
:103EA000000000000000F0FF000000000000F0BF74
:103EB0000000E0410000F043FFFFEF3F0000000082
:103EC000000000000000D03F555555555555D53FD1
:103ED000000000000000E03F01F0A6FB9DED080B94
:103EE00041EC1A0B53EC102B51EC100B01F068FA5B
:103EF00053EC1A2B01F064FA41EC1A0B9FEDFE0B08
:103F000053EC102B9DED080B51EC100B01F058FAFF
:103F100041EC1B0B9FEDFA0B51EC1A0B53EC102BE1
:103F200001F04EFA41EC1A0B9FEDF70B53EC102BFE
:103F30009DED080B51EC100B01F042FA53EC1A2BDB
:103F400001F04AFC41EC1A0B51EC1B0B53EC1A2B01
:103F500000F072FF0690CDE906519DED060B53EC83
:103F60001B2B51EC100B01F037FC53EC1A2B01F01A
:103F70005BFB41EC100B00F0A1B90020B6F5801FEF
:103F80000EDA9FEDE30B53EC102B9DED0E0B51EC75
:103F9000100B01F015FACDE90E016FF034000E465A
:103FA00000EB2650A0F2FF37C6F31300DA4940F0C9
:103FB0007F6646F040568842D8BF002408DDD749C6
:103FC0008142C8BF012403DC0024A6F580167F1CB3
:103FD000D348784400EBC4000F9690ED00CB9DEDE4
:103FE0000E0B53EC1C2B51EC100B01F0F5FB9DED6F
:103FF0000E0B41EC1B0B53EC1C2B51EC100B00F087
:104000001BFF41EC100B51EC190B53EC102B00F083
:10401000CFFF41EC1D0B51EC1B0B53EC1D2B01F0A2
:10402000CFF941EC1A0BBF488DED10AB78441095D9
:1040300090ED000B4FF0005040EA660000EB84402A
:104040008DED080B00F5002009909DED080B53EC59
:104050001C2B51EC100B01F0BFFB9DED0E1B53EC24
:10406000112B01F0E1FA41EC100B53EC102B9DEDFC
:10407000100B51EC100B01F0A3F99DED080B41EC76
:104080001C0B53EC102B9DED100B51EC100B01F0A1
:1040900097F953EC1B2B01F0C7FA53EC1C2B01F0E2
:1040A0009BFB53EC1D2B01F08BF941EC1C0B53ECEB
:1040B0001A2B51EC1A0B01F083F941EC1B0B9A48B7
:1040C0000621B0EE4B0AF0EE6B0A784400F01DFBBF
:1040D000B0EE401AF0EE601AB0EE41DAF0EE61DABE
:1040E00053EC1B2B51EC1B0B01F06AF953EC1D2B0D
:1040F00001F066F99DED100B41EC1B0B53EC1A2BF4
:1041000051EC100B00F098FE53EC1C2B01F058F909
:1041100053EC1B2B00F090FE9DED100B41EC1B0BA4
:1041200053EC102B51EC100B01F04AF941EC1D0B34
:104130009FED7FEB53EC1E2B00F07EFE53EC1B2B10
:1041400000F07AFE0890CDE908519DED080B53EC84
:104150001E2B51EC100B01F03FFB53EC1D2B01F01B
:104160003BFB53EC1B2B01F05FFA9DED080B41EC80
:104170001D0B53EC102B9DED100B51EC100B01F0AF
:104180001FF941EC1B0B53EC1A2B51EC1D0B01F0EA
:1041900017F99DED080B41EC1A0B53EC102B51EC69
:1041A0001C0B01F00DF953EC1A2B00F045FE41EC0D
:1041B0001A0B51EC1B0B53EC1A2B00F03DFE0C902C
:1041C000CDE90C519DED0C0B53EC1B2B51EC100B5E
:1041D00001F002FB53EC1A2B01F026FA41EC1B0B09
:1041E0009FED550B53EC102B9DED0C0B51EC100B70
:1041F00001F0E6F841EC1A0B9FED510B51EC1B0B53
:1042000053EC102B01F0DCF841EC1B0B9FED4E0B37
:1042100053EC102B9DED0C0B51EC100B01F0D0F872
:1042200053EC1B2B00F008FE41EC100B484878447F
:1042300000EBC40090ED001B51EC100B53EC112B64
:1042400000F0FAFD41EC1B0B384601F066F8CDE9B1
:10425000080153EC1B2B51EC1A0B00F0EDFD41EC67
:10426000100B3C48784400EBC40090ED00CB51ECBF
:10427000100B53EC1C2B00F0DFFD9DED081B53ECE5
:10428000112B00F0D9FD0690CDE906519DED080BEC
:1042900053EC102B9DED060B51EC100B01F09CFA2A
:1042A00053EC1C2B01F098FA53EC1A2B01F094FA02
:1042B00053EC1B2B01F0B8F941EC100B9DED261BC4
:1042C00053EC102B8DED001B00959DED260B51EC52
:1042D000100B01F075F89DED000B41EC1A0B53EC3F
:1042E000102B9DED260B51EC100B01F075FA9DED96
:1042F000061B53EC112B2FE0000000604715F73F21
:10430000FE822B654715F73F44DF5DF80BAE543E48
:1043100000000000000040438E9803007AB60B00B6
:1043200082230000B0230000BA2200000000000039
:104330000000000000000840000000E009C7EE3F58
:10434000FD033ADC09C7EE3FF5015B14E02F3EBEEA
:10435000462100000021000001F032F853EC1A2B36
:1043600000F06AFD9DED060B41EC1A0B53EC102B8F
:104370009DED000B51EC100B01F022F8CDE90C0182
:104380009DED0C0B51EC1A0B53EC102B00F054FD6F
:10439000CDE902010C46AA498C422FDB611A084381
:1043A00018D19DED0C0B53EC102B9DED020B51EC35
:1043B000100B01F011FA41EC1B0B9FEDA30B51EC1C
:1043C0001A0B53EC102B00F037FD53EC1B2B01F0B4
:1043D000F5F82DD20220FCF7C1F800F049FA10EEF2
:1043E000901A18EE900A8DED020B8DED008B61F3A3
:1043F0001E0003909DED020BFFF7BEBB944A24F014
:104400000041914214D39349214408437FF4EFAC17
:104410009DED0C0B53EC102B9DED020B51EC100B92
:1044200001F0DAF953EC1A2B01F0C8F87FF6DFAC93
:1044300024F000408849894A002601EB205182423D
:104440002BDA481C4FF4801121FA00F02044844AF2
:10445000C0F30A517A44A1F2FF3192ED000B814A78
:104460008DED080BCA4020EA0202C0F3130040F4AD
:104470008010C1F1140120FA01F60992002CB8BF96
:1044800076429DED080B53EC102B9DED0C0B51EC7F
:10449000100B01F0A1F9CDE90C019DED0C0B51ECD5
:1044A0001A0B53EC102B00F0C7FC9FED6F0B08901C
:1044B000CDE9085153EC102B9DED080B51EC100B7E
:1044C00000F07EFF41EC1B0B9FED690B53EC102BB2
:1044D0009DED080B51EC100B00F072FF9DED0C0BE5
:1044E00041EC1C0B53EC102B9DED080B51EC100B09
:1044F00001F072F953EC1A2B01F096F89FED5E1B58
:1045000053EC112B00F05CFF53EC1C2B00F094FCDF
:1045100041EC1A0B51EC1B0B53EC1A2B00F08CFCEA
:10452000CDE902019DED020B53EC1B2B51EC100B5E
:1045300001F052F953EC1A2B01F076F89DED020BC5
:1045400041EC1A0B53EC102B51EC100B00F038FF20
:10455000CDE908014A489DED080B0521784400F09B
:10456000D4F89DED081B51EC100B53EC112B00F00F
:1045700027FF9DED021B53EC112B01F055F8CDE9FF
:1045800006019DED020B53EC1A2B51EC100B00F0C1
:1045900017FF53EC1A2B00F04FFC9FED3B0B41EC47
:1045A0001A0B53EC102B9DED060B51EC100B01F088
:1045B00013F99DED060B41EC1B0B53EC102B9DEDFD
:1045C000020B51EC100B00F0FBFE53EC1B2B00F028
:1045D000EFFC53EC1A2B01F0FFF89DED021B53EC9E
:1045E000112B01F0F9F853EC192B01F01DF8CDE96E
:1045F000020101EB065001150029C8BF039015DC2C
:104600009DED020B324651EC100B01F006FAFFF75C
:10461000E3F9042808BF00F03BF932469DED020B98
:1046200051EC100B01F0F9F9CDE902019DED020BFF
:1046300051EC180B53EC102B00F0C2FEFFF73ABB05
:104640000000904000000000FE822B654715973C5B
:1046500000CC904000346F3F01FCFFFF0000E03FC2
:10466000881F0000FFFF0F0000000000432EE63F00
:10467000396CA80C615C20BEEF39FAFE422EE63F91
:10468000581E000000000000000000000000004074
:1046900000B52DED048BB0EE409AF0EE609A83B039
:1046A00051EC190B00F0CCFF41EC180B18EE100A7E
:1046B00018EE901A8DED008B002818BF01200843DA
:1046C00020F00040C0F17F6000F1E040C00F14D046
:1046D00019EE101A19EE900A8DED009B002918BFF3
:1046E0000121084320F00040C0F17F6000F1E0406C
:1046F000C00F04BF0120FBF731FFB0EE480A03B042
:10470000F0EE680ABDEC048B00BD70B504462DEDDB
:10471000028B4D1E00EBC500B0EE408AF0EE608AC1
:1047200090ED000B35F0060017D053EC182B51EC30
:10473000100B00F045FE41EC100B6D1E04EBC500A4
:1047400090ED001B51EC100B53EC112B00F074FB9F
:1047500041EC100B35F00600E7D1022D36D0042DC8
:104760001CD0062D1CBFBDEC028B70BD53EC182B6A
:1047700051EC100B00F024FE94ED0A1B53EC112BAE
:1047800000F05AFB53EC182B00F01AFE94ED081BB6
:1047900053EC112B00F050FB41EC100B53EC182B99
:1047A00051EC100B00F00CFE94ED061B53EC112B9A
:1047B00000F042FB53EC182B00F002FE94ED040BCA
:1047C00053EC102B00F038FB41EC100B53EC182B82
:1047D00051EC100B00F0F4FD94ED021B53EC112B87
:1047E00000F02AFB53EC182B00F0EAFD94ED001BBF
:1047F00053EC112B00F020FBBDEC028B41EC100BB5
:1048000070BD0000000000009FED070B10B553ECD9
:10481000102B9FED070B51EC100B00F0C9FB41EC86
:10482000100B10BD000000000000000000000000A0
:10483000000000000000F03F10B553EC112B51ECCC
:10484000100B00F0F9FA41EC100B10BD0000000055
:104850009FED050B10B553EC102B51EC100B00F035
:10486000A7FB41EC100B10BD000000000000000091
:104870009FED050B10B553EC102B51EC100B00F015
:104880009FFD41EC100B10BD000000000000007007
:104890009FED050B10B553EC102B51EC100B00F0F5
:1048A0008FFD41EC100B10BD000000000000001057
:1048B000F0B504460D4616464FF480510022002004
:1048C0001DE034F830708F4201DA34F8301004EB18
:1048D000C007BF888F4202DA04EBC007B98834F8FA
:1048E0003070974201DD34F8302004EBC007BF88F8
:1048F000974202DD04EBC007BA88471CF8B2A84211
:10490000DFDB31601A60F0BD82B0CDE9000121F03B
:10491000004001909DED000B02B051EC100B704770
:104920002DED0E8B92B0FDF72FF8FEF729FDFEF767
:104930005DFBFEF719FBFEF733FBFEF7EFFBFEF71F
:104940000BFCFEF7F7FCFEF729FCFEF73FFCFEF739
:10495000AFFCFEF777FC4FF47A70FBF7DFFF91486E
:10496000FDF720FE08219048FEF7C2F98F48FDF7B9
:1049700019FE3C218E48FDF79FFF00BF11E14FF467
:1049800000618C48FCF7B2FE89480068406A8A4999
:1049900008800846008889490988441AB4F57A7F56
:1049A00002DC14F57A7F00DA00248348008883490A
:1049B00008808348007848B92046E11704EB9171DC
:1049C000804A128802EBA1017E4A11807C4800785F
:1049D00001280DD12046E11704EB91717A4A127833
:1049E00002EBA101784A11701046007877490860FF
:1049F00077480068B0F51C7F02D100207449086038
:104A00006F480078022808D1724871490968405CF3
:104A10006E4908600020FCF7F3FC6C48006800F069
:104A20007CFC41EC1E0B9FED6C0B53EC102B00F04B
:104A3000D3FE41EC1D0B9FED6A0B53EC102B00F0E5
:104A4000B7FA41EC1C0BB0EE4C1AF0EE6C1A9FED6D
:104A5000660BFEF7F5FFB0EE40BAF0EE60BA9FEDE0
:104A6000640B53EC102B51EC1B0B00F0A9FC41EC38
:104A70001A0B9FED610B53EC102B00F0A1FC41ECE5
:104A8000190B9FED590B53EC102B00F091FA41ECF0
:104A9000180B00F0E5FB5A4908600846006800F072
:104AA0003CFC41EC190B53EC192B9FED560B51ECD0
:104AB000100B00F07DFA41EC180B00F0D1FB05461D
:104AC00000BF3A480068C5623848C56000BF40482A
:104AD0000068401C3E490860FBF7F4FE3848007847
:104AE00048B90A20009040F2DC531A466421019034
:104AF00046A0FBF713FE32480078012809D10A20AE
:104B0000009040F2DC531A466421019042A0FBF76A
:104B100005FE2B480078022809D10A20009040F2B7
:104B2000DC531A46642101903EA0FBF7F7FD2748AD
:104B30003FA102680AA8FBF733FC224802883CA187
:104B400002A8FBF72DFC0A20009040F6B8330022A3
:104B50006421019037A0FBF7E1FD1420009040F69E
:104B6000B8331A46642101900AA8FBF7D7FD0A2042
:104B700000904FF4FA6340F2DC526421019030A0BF
:104B8000FBF7CCFD142000904FF4FA6340F6B832E6
:104B90006421019002A8FBF7C1FD4620FCF730FC20
:104BA00000BFECE65806002080050020C805002064
:104BB0001006002000040240E2020020E40200206F
:104BC00054000020480000204A000020640000201B
:104BD0005C00002068000020000000000040514000
:104BE000000000000000284000000000000000401D
:104BF0000000000000807B40000000000000244016
:104C0000580000200000000080842E41564F4C20A8
:104C10004D4F4445000000005049544348204D4F3B
:104C2000444500004D55534943204D4F4445000035
:104C3000256400004D49444920434F44450000008D
:104C4000564F4C000146FF22412905DB5A2903DC5F
:104C5000A1F14100C2B27EE0302905DB392903DC35
:104C6000A1F11600C2B276E008463B295CD012DC06
:104C7000A0F121001A286DD2DFE800F03054346230
:104C8000366C32484A3A405A3E5C466C6C6C6C6CEE
:104C90006C6C6C6C6C585D283ED010DC3F284BD09F
:104CA00006DC3C284ED03D282AD03E2852D14BE08D
:104CB000402843D05B282DD05C284BD122E07C28B3
:104CC00044D006DC5E2811D05F2813D07B2841D168
:104CD00024E07D2824D07E283CD139E0242239E00C
:104CE000252237E0262235E0272233E0282231E052
:104CF00029222FE02A222DE02B222BE02C2229E052
:104D00002D2227E02E2225E02F2223E0302221E051
:104D100031221FE032221DE033221BE0342219E051
:104D2000352217E0362215E0372213E0382211E051
:104D300039220FE03A220DE03B220BE03C2209E051
:104D40003D2207E03E2205E03F2203E0402201E051
:104D5000412200BF00BF422A1ADA0E4802700E48F4
:104D60000C4B1B7850F823000C4B18600C48094B77
:104D70001B78C05C0B4B18701846007808B90120EE
:104D800018700020084B1870084B187001207047ED
:104D90000020FCE700000020F06100080400002073
:104DA000F862000808000020090000200E00002022
:104DB00000B52DED048B83B041EC190B00F040FCE5
:104DC00041EC180B18EE100A18EE901A8DED008BBE
:104DD000002818BF0120084320F00040C0F17F6088
:104DE00000F1E040C00F14D019EE101A19EE900A2D
:104DF0008DED009B002918BF0121084320F00040E1
:104E0000C0F17F6000F1E040C00F04BF0120FBF75C
:104E1000A5FB51EC180B03B0BDEC048B00BD81F079
:104E20000041704780F00040704721F0004170471A
:104E300020F000407047000010B591EA030F48BF12
:104E400083F0004300F1D084841A71EB030C05D287
:104E5000121943EB0C03001B61EB0C01DFF824E19A
:104E60004FEA1154A4EB135C1EEA430F18BF9EEAED
:104E7000445F73D023EA0E03DCF1200E21EA0451D3
:104E800043F4801332D322FA0CFE10EB0E0023FA07
:104E90000CFE41EB0E01CCF1200E03FA0EFE10EBDE
:104EA0000E0051F10001B1F5801FCCF1200E32D27D
:104EB00001EB045112FA0EF2BDE8104058BF7047E2
:104EC000401C38BF5FEA420218BF7047002814BF79
:104ED00020F0010041F100014FEA410313F5001FEA
:104EE00038BF7047A1F1C04100F062BB012A43EB1B
:104EF0000302ACF1200CDCF11F0E32BF4FF0000EAC
:104F000023FA0CF310EB030041EB0451B4EB115FF7
:104F1000D0D0A1EB045101F5801149085FEA3000BF
:104F200001EB04510ED350F1000038BF12FA0EFE0F
:104F300008D1BDE81040C9E7401C38BF5FEA420213
:104F4000CAD1C3E7BDE810404FEA410313F5001F83
:104F500038BF7047A1F1C04100F02ABB9EEA445F10
:104F600008D011EA5E0FBDE8104004BF01F0004117
:104F700000207047BDE8104070B500F0CBFA00BFCC
:104F800064FBBE3E0000E0FF02494FF0000000F06D
:104F900012BD00BF0000F87F491058BFC1F1404169
:104FA0005B1058BFC3F140438B42EFF30080704762
:104FB0002DE9C04130B4DFF8A0C23CEA111418BF9B
:104FC0003CEA131400F0EC8081EA03051CEA11149A
:104FD00044EAD57418BF1CEA131500F0C780A4EB8F
:104FE00005044FF0004545EAC12145EAC32341EAE3
:104FF000505143EA525304F17F74994204F500344E
:105000004FEAC0204FEAC22208BF904200F09C80C5
:105010004FEA13650FF24016765D4FEA134506FB23
:1050200005F7C7F1807706FB07F74FEAD737A7FBED
:1050300003687642C8F58038A7FB06CE38BFA8F1D2
:10504000010807FB08E64FF0000EA6FB028CE6FB0A
:1050500003CEDCF1000CCEF1004E38BFAEF1010EF4
:10506000A6FB0C584FF000074FF00005E6FB0E873B
:10507000A1FB08C6A0FB07CE16EB0E0645F1000506
:10508000E1FB076515F1E04E7EBFA4F580345FEAD1
:1050900046066D4116F1800745F100054FEA1727D6
:1050A0004FEA066647EA0567A6F1DE46B6F1805F7D
:1050B0004FEA15251FD9384624F0010C05EBC471C1
:1050C000BCF1FE6F01EB0C1102D8F0BCBDE8008111
:1050D00024425CBF01F5801E9EEAC47F02D4F0BC6E
:1050E000BDE80081244238D4F0BCA1F1C041BDE844
:1050F000004100F05DBA4FEAD22242EA43524FEA41
:10510000D323A7FB02864FEAD02040EA415007FB99
:1051100003661EEA0E0F4FEAD12105FB026658BF57
:10512000A6EB0056B6EB00564FEA520E4EEAC37E8F
:1051300018EB0E0E56EB530EBDD518EB02085E4170
:105140007F1C55F10005B6E74FF480154FF00007BE
:105150004FF000064FF00008ADE7F0BC4FF0000044
:1051600001F1C04101F00041BDE8008111EA0C1FCE
:105170000CEA131500D00CE013EA0C1F00F0258098
:105180004FF00000F0BC81EA030101F00041BDE8EE
:105190000081F0BCBDE8004181EA030100F008BADB
:1051A000F0BCBDE8004170B500F0B4F9097EFC3EEA
:1051B00000F007B881EA03014FF0000001F0004160
:1051C000704781EA030100F0F3B9F0BCBDE800418B
:1051D0004FF0000021497047FFFDFBF9F7F5F4F2AD
:1051E000F0EEEDEBE9E8E6E4E3E1E0DEDDDBDAD882
:1051F000D7D5D4D3D1D0CFCDCCCBCAC8C7C6C5C4E0
:10520000C2C1C0BFBEBDBCBBBAB9B8B7B6B5B4B3F6
:10521000B2B1B0AFAEADACABAAA9A8A8A7A6A5A4E1
:10522000A3A3A2A1A09F9F9E9D9C9C9B9A999998A5
:105230009797969595949393929191908F8F8E8E48
:105240008D8C8C8B8B8A89898888878786858584D5
:1052500084838382828181800000FF070000F87FC1
:105260004FEA41034FEA5353A3F58063D3F11E0382
:10527000C8BFD3F1210C0CDD4FF0004242EAC1223D
:1052800042EA505232FA03FC8CEAE17CACEBE1706A
:105290007047102BC4BF0020704703F5787CBCF129
:1052A000FF3F04D06FF0004282EA2100704770B5E2
:1052B00000F030F94992248000207047F2E70000A6
:1052C0004FEA1153A3F58063D3F11E03A8BFD3F1B6
:1052D000200C08DB4FF0004242EAC12252EA505251
:1052E00032FA03F0704709420BD4102BC4BF0020E0
:1052F000704703F5787CBCF1FF3F05D04FF0FF30DD
:1053000070474FF00000704770B500F003F900BF20
:105310004992248000207047F0E710F0004248BF17
:105320004042B0FA80F310FA03F10AD0C3F11D0332
:1053300003F580634FEA415002EB035202EBD121A7
:1053400070474FF00000704751EA030C17D41CF56A
:10535000801F58BFBCF5801F00F10680994218BF1E
:10536000704708BF9042704707D711F5801F58BF9C
:1053700013F5801F19D499427047894270471CF574
:10538000801F08D5BCF5801FF7D58B4218BF70472A
:1053900008BF824270474FF4001C1CEB410F38BF1E
:1053A0001CEB430F01D28B42704770B500F0B2F88E
:1053B000922449004FF000514FF08053FFF7ECBDAD
:1053C000DFF848C170B51CEA111E1EBF1CEA131598
:1053D0009EEA0C0F95EA0C0F00F06F8081EA03043F
:1053E00023EA4C134EEAD47E21EA4C1141F4801199
:1053F00043F48013AE44A1FB024CA0FB0365AEF165
:105400007F7E361955EB0C05A1FB034C4CF10003D4
:10541000A0FB021C16EB0C06654153F10003094288
:1054200018BF46F0010613F4007F0BD14FEA033199
:105430004FEA0530340341EA155140EA16506FF047
:1054400003020AE04FEAC3214FEAC520F40241EA11
:10545000555140EA56506FF0020202EB2E4201EB2A
:10546000025585EACE710AD05FEA440C18BF24F0D9
:10547000004450F1000041F1000120EAD47040F2F4
:10548000FE7C624500D270BDA84214BF4FF080443C
:105490004FF04044002E08BF0024BEF1806FA8BF2B
:1054A000A1F1C041BDE8704080F282804FF0000061
:1054B00001F1C04101F0004170479EEA0C0F0CEA77
:1054C000131518BF95EA0C0F06D04FF0000081EAC3
:1054D000030E0EF0004170BD00F01CF88900013E83
:1054E00000F007B800F009B84FEA430C5FEA5C5CD3
:1054F00008D081EA030100F05BB84FEA410C5FEA93
:105500005C5CF6D14FF00000014970470000FF07D6
:105510000000F87F0EF1020E2EF0030E5EF8046B11
:10552000364205D4012A43EB030515F5001F12D8B6
:10553000012841EB010C1CF5001F0CD80ED14FEADD
:10554000D17C15F5001F0CEB4C0C0CF1020C08BFC4
:105550004CEBD37C04E04FF0080C01E04FEAD37C25
:105560000CEB4C0526FA05F606F00706B6F1040C1E
:1055700006D20EEB860CBDE870404CF0010C604783
:10558000DFE80CF0090B02024FF000414FF0000081
:10559000A1F5002170BD19461046012851EB010408
:1055A00018BFD4F5001484BF002001F0004170BD85
:1055B0000808A0F500114FEA3101704753EA010CC9
:1055C00017D41CF5801F58BFBCF5801F00F1068062
:1055D0008B4218BF704708BF8242704707D713F548
:1055E000801F58BF11F5801F19D48B4270479B4212
:1055F00070471CF5801F08D5BCF5801FF7D5994270
:1056000018BF704708BF904270474FF4001C1CEB56
:10561000430F38BF1CEB410F01D2994270470FB4C2
:105620000CBC03BCFFF7C1BE91EA030F10B581F0BB
:1056300000413FF509AC83F0004300F0D5B800000D
:105640002DE9F04101F5801CBCF5001FC0F2A980D6
:105650004FEA115C21EA0C510CF1FD0C41F4801170
:105660005FEA5C0C0CF5C07C01D34000494130A4DA
:10567000890241EA905187028E0E0A0CA45D04FB58
:1056800004F602FB06F6C6F14046A4FB0662F60DE0
:1056900046EA422606FB06F4A4FB01235242C3F16C
:1056A000404338BF5B1EA6FB02420024E6FB0324F6
:1056B000D20B42EA4446A6FB0623A1FB02E2A3FB6F
:1056C00007E4E3FB61426442C2F1404E38BFAEF1F1
:1056D000010EA6FB04234FF00002E6FB0E32A2FBF4
:1056E00003463400E2FB6264A1FB06E6A4FB07E884
:1056F000E4FB61687642C8F1405838BFA8F1010860
:10570000A2FB06E4A3FB08E5E2FB6854A1FB05E667
:10571000A7FB04E8E1FB648618F1200556F10006BA
:10572000A809A8F11B08B10908F03F08B8F10A0F51
:1057300040EA86601CD901EB0C51BDE8F08100BF46
:10574000FCF5EEE8E2DDD8D3CFCBC7C3C0BDB9B618
:10575000B4B1AEACA9A7A5A3A19F9D9B9A9896951D
:105760009392908F8D8C8B898887868584838281A4
:10577000A0FB006800FB01F208EB4208B8EB8728A9
:1057800007D5341858EB0104D5D5401C51F1000160
:10579000D1E7341A78EB0104CDD4401E71F1000139
:1057A000C9E75FEA4C0C5FEA9C5C0DD105D34FF072
:1057B000000001F00041BDE8F081BDE8F04170B5A6
:1057C000FFF7A8FE6DDBFFBEBDE8F0414FF0000023
:1057D000004970470000F87F10B591EA030F48BFF9
:1057E00083F000433FF530AB841A71EB030C07D212
:1057F00012198CF0004C43EB0C03001B61EB0C0105
:10580000DFF8A4E14FEA1154A4EB135C1EEA430F46
:1058100018BF9EEA445F00F0B08023EA6E03524254
:1058200021EA0451C3EB6E0338BF5B1EDCF1200E8E
:1058300025D322FA0CFE10EB0E0043FA0CFE41EBCE
:105840000E01CCF1200E03FA0EFE10EB0E0051F10A
:105850000001CCF1200E29D412FA0EF201EB045112
:10586000BDE8104058BF7047401C1CBFB2F1004F4C
:10587000704700280CBF491C20F00100704712EB54
:10588000020E43EB030218BF4FF0010E4EEA420234
:10589000ACF1200CDCF11E0E54D943FA0CFE10EBD7
:1058A0000E0051F1FF31CCF11E0ED5D50EF1010ED7
:1058B00012FA0EFE404141EB010101EB445C5FEA4C
:1058C0005C5C10D910EBDE7001EB045138BFBEF107
:1058D000004FBDE8104018BF704700280CBF491C9E
:1058E00020F00100704730D24FEAD42C11F500119E
:1058F00024F400641BD0B1FA81F20B3AA41AA41E5E
:10590000D2F12003914030FA03F31943904001EBA8
:10591000CC71002C01EB0451BDE81040A8BF7047CA
:1059200001F1C0414FF0000001F000417047B0FAB2
:1059300080F310FA03F100D110BDE41A173C4805BA
:10594000C90AE4E701EB045110BD491001EB045111
:10595000BDE810404FEA300002E04FF00001704710
:105960004A0008BF0042F8D0B2F5001F28BF7047B8
:1059700001F000414FF0000070479EEA445F07D0FD
:1059800011EA5E0FBDE8104004BF002100207047FF
:10599000BDE8104070B5FFF7BDFD00BF40DFF63E2B
:1059A00083F00041104670470000E0FF4FF0407068
:1059B000E1EE100A70470CF00F03092B08BF082016
:1059C00000F059800A2B0BD0082B18BF704708BF76
:1059D0001CF0400F0AD04FF000004FF0000170475C
:1059E0001CF0400F18BF4FF0004070471CF0100F24
:1059F00008D020F0704300F07F4242EAD3014FEA22
:105A00004370704700F0604021F07F4242EA00029C
:105A100001F07F4040EA727070474FF0FF0C4CF489
:105A2000E06C1CEA11531CBF9CEA030C9445C2BFF6
:105A3000DA4201EB02517047002B0DD0BCF1000F90
:105A40000FD0002A01F00041A4BF41F0E04141F035
:105A50007F614FF00000704701F000414FF00000FF
:105A6000704750EA01334FF09B0C18BF4CF0806C2C
:105A70007FF48AAA70471CF4801F11D01CF4E02F19
:105A800003D06FEACC31490070474FF04050EFF33C
:105A9000008222F0704242EA000282F300887047DE
:105AA0004FF00000704700000000000000080010E8
:105AB000000800100010000000040008000C00089E
:105AC000000000000000001000000010000800109E
:105AD00000080010000C000C000C000C000800086E
