:020000040800F2
:100000001884012055030008215B0008755500087D
:100010001D5B0008C10C0008D1750008000000003D
:100020000000000000000000000000009502000831
:10003000A91F000800000000F1020008396F000845
:100040006F0300086F0300086F0300086F030008C8
:100050006F0300086F0300086F0300086F030008B8
:10006000B71F00086F0300086F0300086F03000844
:100070006F0300086F0300086F0300086F03000898
:10008000390D0008490D00086F0300086F030008D0
:100090006F0300086F0300086F0300086F03000878
:1000A0006F0300086F0300086F0300086F03000868
:1000B0006F030008397000086F0300086F03000821
:1000C0006F0300086F0300086F0300086F03000848
:1000D0006F0300086F0300086F0300086F03000838
:1000E000AB1F00086F0300086F0300086F030008D0
:1000F0006F030008597000086F0300086F030008C1
:100100006F0300085D5E00086F0300086F030008BE
:100110006F0300086F0300086F03000849700008B0
:100120006F0300086F0300086F030008590D0008F3
:100130006F0300086F0300086F0300086F030008D7
:100140006F0300086F0300086F0300086F030008C7
:100150006F030008690D00086F0300086F030008B3
:100160006F0300086F0300086F0300086F030008A7
:100170006F0300086F0300086F0300080000000011
:100180006F0300086F03000800F002F800F072F837
:100190000AA090E8000C82448344AAF10107DA45E2
:1001A00001D100F067F8AFF2090EBAE80F0013F0C2
:1001B000010F18BFFB1A43F0010318471CE60000AB
:1001C0005CE600000A444FF0000C10F8013B13F00D
:1001D000070408BF10F8014B1D1108BF10F8015BA0
:1001E000641E05D010F8016B641E01F8016BF9D193
:1001F00013F0080F1EBF10F8014BAD1C0C1B09D1EA
:100200006D1E58BF01F801CBFAD505E014F8016B5B
:1002100001F8016B6D1EF9D59142D6D370470000ED
:10022000103A24BF78C878C1FAD8520724BF30C822
:1002300030C144BF04680C607047000000230024F4
:1002400000250026103A28BF78C1FBD8520728BFE6
:1002500030C148BF0B607047642900F08581732965
:1002600000F0BD83002070471FB50DF045F81FBD9D
:1002700010B510BD00F0E2FB1146FFF7F5FF09F0E5
:10028000A9FE00F000FC03B4FFF7F2FF03BC00F08E
:1002900003FC00002C4B19680868B0E8F04F80F3AD
:1002A0000988BFF36F8F4FF0000080F3118870470B
:1002B0000000000008480068006880F308884FF0DC
:1002C000000080F3148862B661B6BFF34F8FBFF3AE
:1002D0006F8F00DF00BF00BF08ED00E0DFF80C000B
:1002E000016841F470010160704700BF88ED00E0D3
:1002F000EFF30980BFF36F8F134B1A681EF0100FD6
:1003000008BF20ED108A20E9F04F106009B44FF0CB
:10031000500080F31188BFF34F8FBFF36F8F0BF046
:10032000D7F94FF0000080F3118809BC19680868FC
:10033000B0E8F04F1EF0100F08BFB0EC108A80F349
:100340000988BFF36F8F704744C00120EFF3058029
:10035000704700000948804709480047FEE7FEE76C
:10036000FEE7FEE7FEE7FEE7FEE7FEE7FEE7FEE765
:1003700004480549054A064B7047000025700008EF
:1003800089010008187E01201884012018800120AE
:100390001880012053EA020C00F069802DE9F04B2F
:1003A0004FF00006002B1FBFB3FA83F503FA05F4E4
:1003B00024FA05F65E4012BF1643B2FA82F502FA3D
:1003C00005F4C5F120051EBF22FA05FC44EA0C0421
:1003D000203556EA044C4FEA144418BF641C4FF011
:1003E00000084FF00009904271EB030C39D300294B
:1003F00019BFB1FA81F701FA07F6B0FA80F700FAEF
:1004000007F6C7F120071EBF20FA07FC46EA0C06D4
:100410002037B6FBF4FCA7EB0507103F07F01F0BD6
:10042000CBF120060CFA0BFB2CFA06F644BFB346C0
:100430000026202FA4BF5E464FF0000B5BEA060C9F
:1004400008BF4FF0010B19EB0B09ABFB027C48EB2B
:100450000608C01B06FB02CC0BFB03CC71EB0C01A6
:10046000C1E70B46024641464846BDE8F08B13B54E
:100470004FF000004FF00001AFF30080BDE81C40DA
:10048000704700000FB41CB5074B06AA7B446946B1
:100490000090059800F079FA0020694600F088FA8B
:1004A0001CBC5DF814FB0000210500002DE9F041A3
:1004B0000E460446002020622046E168884730B39B
:1004C000252805D0D4E901219047206A401CF2E795
:1004D000E168204600278847050018D0A5F14100B3
:1004E000192802D820354FF40067324629462046A5
:1004F0002760FFF7B1FE40B1012804D0F61D26F0B9
:1005000007060836D8E7361DD6E72846DAE7206A18
:10051000BDE8F08170B50C460546012A05D0287863
:10052000800600D5EA69002302E0012305E05B1C98
:10053000934202D2E05C0028F9D1A869E618C01AFB
:10054000A861286A184428622846AFF3008004E0B6
:10055000D5E9012114F8010B9047B442F8D328469D
:10056000AFF3008070BD00002DE9F0410646002485
:1005700010687529314616A510D0AFF30080002809
:1005800002DA404213A507E031688A0701D512A5B7
:1005900002E0490704D511A5012401E0AFF3008072
:1005A00000210A2206F1240709E0B0FBF2FCB0FBAF
:1005B000F2F302FB1C00303078541846491C002826
:1005C000F3D123462A463046BDE8F04100F07FB91A
:1005D000000000002D0000002B00000020000000A3
:1005E00030B505460B462A4613F8014B12F8010BAD
:1005F00008B1A042F8D01CB1002802D06D1CF1E770
:10060000284630BD40EA0103024630B59B0710D1B1
:100610004FF0013400E008C208C91D1B9D4315EAD4
:10062000C41FF8D013F0FF0102F8011B0DD01B0A04
:10063000F8E711F8013B002B02F8013B05D011F857
:10064000013B002B02F8013BF3D130BD10B5431C38
:1006500002E010F8011B71B18107FAD14FF00132AD
:1006600002C88C1A8C4314EAC211F9D0C01A0A06C7
:1006700003D0C01E10BDC01A10BD0A0401D0801ED8
:1006800010BD0902FCD0401E10BD40EA010370B548
:100690009B072ED14FF00136042A2AD308C810C96F
:1006A0009D1B9D43121F15EAC61517D0D8B2E1B2A3
:1006B000401A50EA056110D198B2A1B2401A50EA2E
:1006C00005410AD123F07F4024F07F41401A50EACF
:1006D000052102D1180EA0EB146070BDA342DBD03F
:1006E00018BA21BA884201D9012070BD4FF0FF30FD
:1006F00070BD0AB9002070BD10F8013B11F8014B24
:1007000063B1A3420AD1521E08D010F8013B11F880
:10071000014B1BB1A34201D1521EEDD1181B70BD7C
:10072000032A40F2308010F0030C00F0158011F81D
:10073000013BBCF1020F624498BF11F801CB00F8F5
:10074000013B38BF11F8013BA2F1040298BF00F849
:1007500001CB38BF00F8013B11F0030300F0258006
:10076000083AC0F0088051F8043B083A51F804CB2D
:10077000A0E80810F5E7121D5CBF51F8043B40F8F3
:10078000043BAFF30080D20724BF11F8013B11F8FE
:1007900001CB48BF11F8012B24BF00F8013B00F842
:1007A00001CB48BF00F8012B704710B5203AC0F0CC
:1007B0000B80B1E81850203AA0E81850B1E8185062
:1007C000A0E81850BFF4F5AF5FEA027C24BFB1E89F
:1007D0001850A0E8185044BF18C918C0BDE8104010
:1007E0005FEA827C24BF51F8043B40F8043B08BF19
:1007F0007047D20728BF31F8023B48BF11F8012BE0
:1008000028BF20F8023B48BF00F8012B70474FF08B
:10081000000200B5134694469646203922BFA0E850
:100820000C50A0E80C50B1F12001BFF4F7AF09075C
:1008300028BFA0E80C5048BF0CC05DF804EB89004D
:1008400028BF40F8042B08BF704748BF20F8022B90
:1008500011F0804F18BF00F8012B704710B5044607
:1008600010F0030F08BF11F0030F40F015804FF098
:10087000013E121FC0F20E8051F8043BA3EB0E0C98
:100880002CEA030C1CEACE1C08BF40F8043BF0D055
:10089000A1F1040102F10402521E08DB11F8013B30
:1008A000002B00F8013BF7D1114600F09CF82046E0
:1008B00010BD70477047704710B500F0B7F800687A
:1008C00010BD10B5044600F0B1F8046010BD2DE96C
:1008D000F0470D4699469246044600F12408016807
:1008E000880604D5E06921F01001216000E00120B4
:1008F000A84201DD471B00E00027A1697A1902EB3D
:100900000900081AA0612078C00602D42046AFF37F
:100910000080002608E0D4E901211AF8060090477B
:10092000206A401C761C20624E45F4DB2078C0060D
:100930000AD52046AFF3008006E0D4E9012130203B
:100940009047206A401C2062381EA7F10107F4DCA2
:1009500007E0D4E9012118F805009047206A401CFF
:100960002062281EA5F10105F3DC2046AFF30080CC
:100970002078000602D50220BDE8F0870120FBE7C1
:1009800001694A1C02610878704700B58FB0CDE953
:1009900001310021059105497944CDE90310114643
:1009A0006846FFF783FD0FB000BD0000E5FFFFFFC5
:1009B0000A6802F8010B0A60704710B5436913B169
:1009C000AFF3008001E0FFF7A5FD012010BD127814
:1009D00000F124010A7000224A700122EDE711683B
:1009E0004FF0FF32E9E74FF000020429C0F0128017
:1009F00010F0030C3FF40DAFCCF1040CBCF1020F6E
:100A000018BF00F8012BA8BF20F8022BA1EB0C01A6
:100A1000FFF7FFBE5FEAC17C24BF00F8012B00F89E
:100A2000012B48BF00F8012B7047000000487047B9
:100A3000B0C3012000487047B0C301207546FFF7DE
:100A4000F9FFAE4605006946534620F0070085468B
:100A500018B020B5FFF78CFCBDE820404FF0000631
:100A60004FF000074FF000084FF0000B21F0070196
:100A7000AC46ACE8C009ACE8C009ACE8C009ACE8D9
:100A8000C0098D46704710B50446AFF3008020467C
:100A9000BDE81040FFF7F7BB01491820ABBEFEE7E9
:100AA00026000200704700001CB500BF4A480078CD
:100AB00000287DD04948076849480068B84203D3F8
:100AC00047480068C61B04E045480068381AC0F56E
:100AD0000046B6F5804F76D24FF480544048006807
:100AE000C0F50045AC423ED93E4800683C4A126819
:100AF000811801AB2A463C4808F031FC8046019839
:100B0000A84211D22C21384808F0D7F801982A1AA7
:100B100033480068019B1844324B1B68C1186B4670
:100B2000314808F01CFC00BF621B01AB2D48016876
:100B30002D4808F014FC8046601B019988420ED9AC
:100B40002C21294808F0B9F8601B019BC21A2548DE
:100B50000068C1186B46244808F001FC00BF601B08
:100B60001F4908602EE01F4800681D4A126881185E
:100B700001AB22461C4808F0F2FB80460198A042D7
:100B800011D22C21184808F098F80198221A14481C
:100B90000068019B1844134B1B68C1186B46124830
:100BA00008F0DDFB00BF0E48006820440C4901E05E
:100BB0000DE008E0086008460068B0F5004F01D37A
:100BC0000020086000BF022009F0BBFA6EE7642035
:100BD00009F0B7FA6AE70000300000202400002086
:100BE000280000201C000020A011012070470000F8
:100BF00010B504462146024803F07CF910BD000000
:100C0000281C012010B5044803F087F9042801D0FE
:100C1000012010BD0020FCE7281C012010B5002495
:100C200000F00CF8012801D0012010BD024803F0AB
:100C300095FA04462046F8E7281C012008B5012053
:100C400000909DF8000008BD2DE9F04104460D46D6
:100C50001646002733462A462146044803F0B6FBD1
:100C600000B101273846BDE8F0810000281C0120B2
:100C700010B5002201210248006809F0E9FA10BD10
:100C8000DC0200202DE9F04104460D4616460027FF
:100C900033462A462146044803F04AFC00B10127A6
:100CA0003846BDE8F0810000281C012010B5002264
:100CB00002210248006809F0CBFA10BDDC020020D6
:100CC00000BFFEE770B50446A56B284601F07EFC28
:100CD0000120287170BD70B50446A56B284601F04F
:100CE0003BFC0120287170BD70B50546AC6B2069D6
:100CF00040F004002061204601F06AFC01202071D0
:100D000070BD70B50546AC6B206940F004002061F1
:100D1000204601F023FC0120207170BD70B504460F
:100D2000A56B284601F053FC70BD70B50446A56B59
:100D3000284601F012FC70BD10B5024801F08CFE8F
:100D400010BD0000141B012010B5024801F084FE04
:100D500010BD0000741B012010B5024801F07CFE9C
:100D600010BD0000AC1C012010B5024801F074FE5B
:100D700010BD00000C1D0120014608781038182312
:100D8000B0FBF3F20848805CC865032A05D90868FF
:100D90006FF30900001D886503E008686FF3090020
:100DA0008865886D70470000B8E1000801460020A2
:100DB0008A6A8B69CBB932B1012A0DD0022A03D0DD
:100DC000032A10D10EE000BFCB6A03F08073B3F1A9
:100DD000807F00D1012007E0CB6AB3F1C07F00D152
:100DE000012001E000E000BF34E08B69B3F5005F53
:100DF0001AD132B1012A07D0022A03D0032A11D115
:100E00000AE000BF01200EE0CB6A03F08073B3F16B
:100E1000807F00D1012006E0CB6AB3F1C07F00D112
:100E2000012000E000BF15E032B1012A05D0022AFE
:100E300004D0032A0CD103E000BF00BF012008E06A
:100E4000CB6A03F08073B3F1807F00D1012000E012
:100E500000BF00BF704730B50468246824F48024C4
:100E600005682C60046863608468402C04D10468C1
:100E7000A2600468E16003E00468A1600468E260C5
:100E800030BD00002DE9F04105460E461746984654
:100E90004FF0FF3400200AE000EBC00101EB00112D
:100EA000204A12F8211009B9044602E0401C20280B
:100EB000F2DB00BF002C02DA0020BDE8F081022046
:100EC00004EBC40101EB0411164A02EB81014870E6
:100ED00004EBC40000EB0410114601EB80004560F8
:100EE00004EBC40000EB041001EB8000866004EB0F
:100EF000C40000EB041001EB8000C76004EBC400E9
:100F000000EB041001EB8000C0F81080012004EB1E
:100F1000C40101EB041102F8210000F00DF90120D9
:100F2000CBE70000E80201202DE9FF4F83B08146A6
:100F30000E469246DDF840804FF0FF3400200AE074
:100F400000EBC00101EB00116B4A12F8211009B946
:100F5000044602E0401C2028F2DB00BF002C03DA2C
:100F6000002007B0BDE8F08F002004EBC40101EBC6
:100F70000411614A02EB8101487004EBC40101EBEA
:100F8000041102EB8101081D3F224946FFF766FC70
:100F9000002104EBC40000EB0410574A02EB800070
:100FA00080F8431004EBC40000EB0410114601EB81
:100FB0008000C0F844A004EBC40101EB041102EB73
:100FC00081010698886404EBC40000EB041011460C
:100FD00001EB8000A0F84C8004EBC40101EB04118C
:100FE00002EB81011198A1F84E0004EBC40000EB64
:100FF0000410114601EB8000A0F85060002104EBC2
:10100000C40000EB041002EB8000416502F092F88E
:1010100004EBC40101EB0411374A02EB810188653E
:101020004FF4805104EBC40000EB041002EB80008D
:10103000016600274FF0000B46E004EBC40000EB14
:1010400004102D4901EB8000001D10F80B5005B96C
:101050003DE0202D09D14FF4FA6008FB00F0642137
:1010600090FBF1F0304407442CE0284609F026FFBD
:1010700038B301AB02AA214801782148006807F083
:1010800007F901200090412D01DB5A2D03DD612D70
:1010900004DB7A2D02DC4FF4007000900099029876
:1010A00048430290DDE9001048430190DDE9010169
:1010B000401A00FB08F0642190FBF1F03044074433
:1010C00000BF00BF0BF1010BBBF1400FB5DB00BF50
:1010D00004EBC40000EB0410074901EB8000C76576
:1010E000012004EBC40101EB0411034A02F82100C2
:1010F00000F022F8012034E7E80201200CC00120B2
:1011000008C0012010B5002008E0002100EBC0025B
:1011100002EB0012044B03F82210401C2028F4DBE1
:1011200000F00AF810BD0000E802012010B50446E6
:10113000FFF7E8FF10BD00002DE9F04F2DED0C8BFF
:1011400093B00020FE490860129000BF0BE000EB56
:10115000C00101EB0011FB4A12F8211011B101216D
:10116000129102E0401C2028F1DB00BF129880B9E8
:10117000002008E04FF40061F34A22F81010F34A0F
:1011800022F81010401C6428F4DB6420EC4908604D
:10119000E8E30024E3E304EBC40000EB0410E949B6
:1011A00011F8200000B9D9E304EBC40000EB0410EF
:1011B000E44901EB8000407800287CD104EBC400B6
:1011C00000EB041001EB8000466C04EBC40000EB64
:1011D0000411DC4800EB8100806C119004EBC4002A
:1011E00000EB0410D74901EB8000B0F84C7004EB21
:1011F000C40000EB041001EB8000B0F84E0010902A
:1012000004EBC40000EB041001EB8000406D0F9074
:1012100000200E9053E104EBC40000EB0410C94918
:1012200001EB8000001D0E99455C05B94BE1202DB6
:1012300011D14FF4FA607843642190FBF1F104EB93
:10124000C40000EB0412BF4800EB8200B0F850006D
:101250000844064430E1284609F030FE00287DD0DD
:101260000CAB0DAABA480178BA48006807F010F82C
:101270004FF00108412D01DB5A2D03DD612D03DB09
:101280007A2D01DC4FF400780D9800FB08F00D90EA
:101290000C9800FB08F00C90DDE90C01401A784333
:1012A000642190FBF1FA0F98301A0B900B98504480
:1012B00000280DDA00E008E104EBC40000EB0411A3
:1012C000A04800EB8100B0F8500050440644F3E021
:1012D0000B98B0F5805F00DDF5E04FF00009D9E034
:1012E0009C48006830F9390000FB08F00A909948E2
:1012F000006800EBC900B0F9020000FB08F009909B
:101300009448006800EBC900B0F9040000FB08F045
:1013100008909048006800EBC900B0F9060000FB97
:1013200008F007900A987843642190FBF1F0811946
:101330000D987843642290FBF2F0091A0F98081A6E
:101340000690109909984843642190FBF1F1119897
:101350000844059008987843642100E0ABE090FBD6
:10136000F1F081190D98784390FBF2F0091A0F986B
:10137000081A0490109907984843642190FBF1F1F2
:1013800011980844039006990498401A0290059910
:101390000398401A019001980BF0C3FC41EC1C0B20
:1013A00001980BF0BEFC41EC1D0B53EC1C2B0BF019
:1013B000E3FC41EC1A0B02980BF0B3FC41EC1C0B64
:1013C00002980BF0AEFC41EC1D0B53EC1C2B0BF008
:1013D000D3FC41EC1B0B53EC1A2B0BF073FA41ECD2
:1013E000190BB0EE490AF0EE690A06F0F1F9B0EE19
:1013F000408AF0EE608A51EC180B0BF063FC05217B
:1014000090FBF1FBBBF1020F01DA4FF0020B002061
:101410003BE04B4B1B68B3F5804F00D337E0029B9A
:10142000434393FBFBFC069B0CEB0301019B4343F3
:1014300093FBFBFC059B0CEB0302002900DA002167
:10144000B1F5805F01DB40F6FF71002A00DA00226F
:10145000B2F5805F01DB40F6FF72DFF8ECC0DFF829
:10146000E0E0DEF800E02CF81E10DFF8E0C0DFF866
:10147000D0E0DEF800E02CF81E20314B1B685B1C2E
:10148000DFF8BCC0CCF80030401C5845C1DD00BFBF
:1014900009F101092E4800788145FFF621AF04EBE0
:1014A000C40000EB0410274901EB8000B0F85000A5
:1014B0005044064400BF00BF0E98401C0E900E988A
:1014C0004028FFF6A8AE00BF47E204EBC40000EBE3
:1014D00004101C4901EB8000407801287DD104EB09
:1014E000C40000EB041001EB8000466804EBC4006C
:1014F00000EB041001EB8000876804EBC40000EBF4
:10150000041001EB8000D0F80CA004EBC40000EB49
:10151000041001EB8000D0F810B0AAEB0608ABEB8A
:10152000070948460BF0FDFB41EC1C0B48460BF04D
:10153000F8FB53EC1C2B0BF01FFC41EC190B0BE0E0
:1015400000C00120E8020120E8020020E88200201B
:101550000CC0012008C0012040460BF0E2FB41EC2A
:101560001C0B40460BF0DDFB53EC1C2B0BF004FC7A
:1015700053EC192B0BF0A6F941EC180BB0EE480A0E
:10158000F0EE680A06F024F9B0EE40BAF0EE60BA68
:1015900051EC1B0B0BF096FB052190FBF1F5022D96
:1015A00000DA022500203FE0FE490968B1F5804FCE
:1015B00000D33BE008FB00F191FBF5F13144FA4A1E
:1015C000F84B1B6822F8131009FB00F191FBF5F1B1
:1015D0003944F64AF34B1B6800E029E022F8131067
:1015E000F149F04A126831F81210B1F5805F06DB5C
:1015F00040F6FF71EC4AEB4B1B6822F81310EB49E5
:10160000E84A126831F81210B1F5805F06DB40F647
:10161000FF71E64AE34B1B6822F81310E1490968A1
:10162000491CE04A1160401CA842BDDD00BF94E1A6
:1016300004EBC40000EB0410DD4901EB80004078AE
:1016400002287CD104EBC40000EB041001EB800005
:10165000466804EBC40000EB041001EB80008768CF
:1016600004EBC40000EB041001EB8000C068119093
:1016700004EBC40000EB041001EB80000069109043
:1016800006960797119830440890099711983044AE
:101690000A90109839180B910C96109839180D91E2
:1016A0000E960F97002599E006A850F8359000EBAC
:1016B000C500D0F804A006A9681C51F830000590B8
:1016C000681C01EBC000406804900598A0EB090B72
:1016D0000498A0EB0A00039003980BF022FB41EC66
:1016E0001C0B03980BF01DFB41EC1D0B53EC1C2B4A
:1016F0000BF042FB41EC1A0B58460BF012FB41EC8D
:101700001C0B58460BF00DFB41EC1D0B53EC1C2B36
:101710000BF032FB41EC190B53EC1A2B0BF0D2F807
:1017200041EC180BB0EE480AF0EE680A06F050F8EB
:10173000B0EE40BAF0EE60BA51EC1B0B00E051E0A5
:101740000BF0C0FA052190FBF1F8B8F1020F01DAB5
:101750004FF0020800203DE092490968B1F5804F42
:1017600000D339E00BFB00F191FBF8F149448E4ABC
:101770008C4B1B6822F813100399414391FBF8F13D
:1017800051448A4A874B1B6822F813108649854AC0
:10179000126831F81210B1F5805F06DB40F6FF7178
:1017A000814A804B1B6822F8131080497D4A1268D9
:1017B00031F81210B1F5805F06DB40F6FF717B4A0D
:1017C000784B1B6822F8131076490968491C754A42
:1017D0001160401C4045BFDD00BF6D1C042DFFF6AD
:1017E00063AFBAE004EBC40000EB0410704901EBF6
:1017F0008000407803287CD104EBC40000EB041087
:1018000001EB8000476804EBC40000EB041001EB1F
:101810008000D0F8088004EBC40000EB041001EB5A
:101820008000D0F80C9048460BF07BFA9FED610BDE
:1018300053EC102B0BF0A0FA0BF044FA052190FBAF
:10184000F1F50A2D00DA0A25002681E055480068E6
:10185000B0F5804F00D37EE028460BF062FA41ECF1
:101860001A0B30460BF05DFA41EC1B0B53EC1A2BB4
:101870000BF0D0F841EC190B9FED500B53EC102BF3
:101880000BF07AFA41EC180B48460BF04AFA41EC9F
:101890001A0BB0EE480AF0EE680A05F0D1FEB0EE81
:1018A00040BAF0EE60BA53EC1A2B51EC1B0B0BF064
:1018B00063FA41EC190B0BF005FA38443A49394AFE
:1018C000126821F8120048460BF02BFA41EC1A0B73
:1018D000B0EE480AF0EE680A05F016FFB0EE40BA26
:1018E000F0EE60BA53EC1A2B51EC1B0B0BF044FAE0
:1018F00000E032E041EC190B0BF0E4F940442B49D5
:10190000284A126821F8120027482649096830F849
:101910001100B0F5805F06DB40F6FF702249214AD6
:10192000126821F8120021481E49096830F8110098
:10193000B0F5805F06DB40F6FF701C49194A12685B
:1019400021F8120017480068401C16490860761CF0
:10195000AE427FF77BAF00BF00BF00BF641C202CEE
:10196000FFF619AC0F480068C8B10021154800F017
:10197000D5FF1021134800F0D1FF00200090094846
:10198000094A002103680F4800F01AFF0020009068
:101990000448064A102103680A4800F011FF13B0FA
:1019A00012E0000000C00120E8020020E8820020D0
:1019B000E80201201F85EB51B81E1940441741541D
:1019C000FB211940001B0120BDEC0C8BBDE8F08F02
:1019D00070B504460D46012C00DA0124FFF792FB96
:1019E00017480480174805602003642190FBF1F636
:1019F000144800683044144908601248006800F533
:101A00008050096890FBF1F0104908700846007892
:101A1000202801DD202008700C480078012802DA17
:101A200001200A490870002009490870064800682A
:101A3000C0F580500749086000200749086070BD64
:101A40001CC0012024C0012020C0012034C001207E
:101A500028C0012030C001202CC001202DE9F04712
:101A60008146FE48007808BBFD480078F0B90120A7
:101A7000FB490870002048700021F9484164F9488A
:101A80000168F7488164F8480188F548A0F84C10CF
:101A9000F5480188F248A0F84E10F448008881B259
:101AA000EF48A0F850100020ED4908714846FEF7B5
:101AB000CDFD06460027F4E119F807A0BAF10A0F98
:101AC0007ED1E6480078401C40B2E44908700846E0
:101AD00090F90000E649097888424DDB002434E0A3
:101AE000601C00EBC00101EB0010DD4901EB800040
:101AF000407848BB002004EBC40101EB0411D84A34
:101B000002EB81014870621C02EBC20303EB02127C
:101B1000D34B03EB8202111D04EBC40202EB04124F
:101B200003EB8202101DFEF76DFD601C00EBC0018F
:101B300001EB0010CA4911F8200004EBC40101EBCD
:101B40000411C74A02F82100641CC9480078401EED
:101B5000A042C5DC0021C6480078401E00EBC00250
:101B600002EB0010BE4A02EB80000171C048007811
:101B7000401E40B2B94908700120B84991F90010DF
:101B800001EBC10202EB0111B54A02F8210000206D
:101B9000B24991F9001001EBC10202EB0111B04A08
:101BA00002EB810148700021AC4890F9000000EB85
:101BB000C00202EB0010AA4A02EB8000416400E080
:101BC0004DE0A64890F90000401CAA490968484326
:101BD000C0F58051A14890F9000000EBC00202EB73
:101BE00000109F4A02EB800081649F4801889B4857
:101BF00090F9000000EBC00202EB0010984A02EBE3
:101C00008000A0F84C1098480188944890F9000092
:101C100000EBC00202EB0010914A02EB8000A0F83A
:101C20004E109248008881B28C4890F9000000EB79
:101C3000C00202EB00108A4A02EB8000A0F85010AC
:101C40000020864991F9001001EBC10202EB01115D
:101C5000834A02EB810108718749086020E18248CC
:101C600000884FF4FA614843642190FBF1F07F490A
:101C7000096800EB0108804800684044B0F5805FC7
:101C80007EDD76480078401C40B2744908700846F2
:101C900090F900007649097888424DDB002434E051
:101CA000601C00EBC00101EB00106D4901EB8000EE
:101CB000407848BB002004EBC40101EB0411684AE2
:101CC00002EB81014870621C02EBC20303EB0212BB
:101CD000634B03EB8202111D04EBC40202EB0412FE
:101CE00003EB8202101DFEF78DFC601C00EBC001AF
:101CF00001EB00105A4911F8200004EBC40101EB7C
:101D00000411574A02F82100641C59480078401E0B
:101D1000A042C5DC002156480078401E00EBC002FE
:101D200002EB00104E4A02EB80000171504800782F
:101D3000401E40B2494908700120484991F90010FD
:101D400001EBC10202EB0111454A02F8210000201B
:101D5000424991F9001001EBC10202EB0111404A26
:101D600002EB8101487000213C4890F9000000EB33
:101D7000C00202EB00103A4A02EB8000416400E02E
:101D80004CE0364890F90000401C3A490968484345
:101D9000C0F58051314890F9000000EBC00202EB21
:101DA00000102F4A02EB800081642F4801882B48E5
:101DB00090F9000000EBC00202EB0010284A02EB91
:101DC0008000A0F84C1028480188244890F90000B1
:101DD00000EBC00202EB0010214A02EB8000A0F8E9
:101DE0004E102248008881B21C4890F9000000EB98
:101DF000C00202EB00101A4A02EB8000A0F850105B
:101E00000020164991F9001001EBC10202EB01110B
:101E1000134A02EB81010871174908600F4991F9D3
:101E2000001001EBC10202EB01110D4A02EB81012E
:101E3000081DFEF70BFC05463F2D30DA074890F9E8
:101E4000000000EBC00101EB0010054901EB800030
:101E5000001D00F805A0002200480FE028C0012066
:101E6000E802012030C001201CC0012024C0012054
:101E700034C0012020C001202CC0012090F90000B6
:101E800000EBC00101EB0010094901EB8000001DCF
:101E9000691C42540748006840440649086000BF76
:101EA0007F1CB742FFF608AEFFF746F9BDE8F087A2
:101EB000E80201202CC0012070B501F03BF9044676
:101EC0000025002068E000EBC00101EB0011354A5D
:101ED00012F8211000295ED000EBC00101EB0011C7
:101EE00002EB81014978002955D100EBC00101EBDB
:101EF000001102EB8101CA6D00EBC00101EB001182
:101F0000284B03EB8101096E8A4244DD00EBC001DE
:101F100001EB00111A4602EB8101896D611A142947
:101F200039D900EBC00101EB001102EB81018C6596
:101F300000EBC00101EB001102EB8101496D323170
:101F400000EBC00202EB001203EB8202516500EBD2
:101F5000C00101EB00111A4602EB81014A6D00EB52
:101F6000C00101EB001103EB8101C96D01F5FA71AC
:101F70008A420FDD00EBC00101EB00111A4602EBB3
:101F80008101096E4A4200EBC00101EB001103EB35
:101F900081014A650125401C202894DB0DB1FFF723
:101FA000CBF870BDE8020120704710B54FF4005027
:101FB00000F0A0FF10BD10B5042000F09BFF10BD85
:101FC00007E04FF40061034801F0A4F8642000F03A
:101FD00023FFF6E70004024030B504460D46002218
:101FE0002946204600F002F830BD0000F0B5034657
:101FF000012500241148407A01281CDA00200F4EE8
:10200000767A0E4FB8553846467A001D40F826308D
:10201000001F467A083082553E46707A461C7E7212
:10202000044604F1300008703A2048702F20887070
:102030000020C87000252846F0BD0000B4C2012071
:102040008EB000251422AD4909A8FEF7AEFB00BFF3
:1020500000240027601E089007904FF0000A00BF80
:1020600000BF00BFFFF74EF800BFFFF725FF4FF49A
:102070000061A34801F04EF8A2480068406A1FFAC8
:1020800080FBA1480088ABEB00000FFA80F99E4866
:10209000A0F800B0022D08D1B9F1000F2CD09B4858
:1020A000008848449949088026E0994800684844D7
:1020B000974908600868002801DB014600E04142BA
:1020C000042919DB924B1A68D31702EB937398100B
:1020D00004448F4A1268A2EB80028D4B1A600DB93E
:1020E000052201E08B4A12681146002C00DA002418
:1020F0008C4200DB4C1E00BF4FF40051864801F0BB
:1021000001F8002852D1322008F01BF84FF400519A
:10211000814800F0F7FF002848D102E00A2008F0CB
:1021200010F84FF400517C4800F0ECFF0028F5D087
:10213000BDB954B979A004F073FD01254FF0000A30
:1021400000240027601E089030E0012C2ED175A0DD
:1021500004F066FD0125A24600240027601E0890B9
:1021600024E0012D1BD12CB9002500240027601E7E
:1021700008901BE06D4800EB441120226C48FEF7EC
:102180006DFBBAF1000F03D1694803F0CBFC02E00C
:10219000674803F057FD0225E81E089006E0022D6F
:1021A00004D104F08FFE0125A81E089008988442EF
:1021B00004D10798874201D1022D75D1022D02D199
:1021C000BAF1010F70D0FEF79DFF022D2ED10F2026
:1021D000009040F6AC5364221146019055A0FEF7E2
:1021E000A3FE0F20009040F6B83364221146019000
:1021F0004F48FEF799FE4548028851A103A8FEF713
:1022000041F90F2000904FF4FA63642211460190C7
:1022100003A8FEF789FE0A2000904FF47A73642227
:102220001146019048A0FEF77FFE59E00DB9052048
:1022300001E0384800680690BC4200DA2746B81D25
:10224000844200DB671F4FF0000844E007EB0806FC
:102250000698864200DB41E008EB4800C0EBC8105E
:1022600040F6AC51A1EB80000590A6421DD10F2095
:10227000009001906422114637A0059BFEF754FEA2
:102280001DB909A850F8260002E0284800EB4610C6
:1022900004900F20009001904FF4C8726421DDE992
:1022A0000403FEF741FE14E023E01DB909A850F82D
:1022B000260002E01D4800EB461004900F2000901D
:1022C00001904FF4C8726421DDE90403FEF72CFE8F
:1022D00000BF08F10108B8F1060FB7DB00BF00BF6F
:1022E00040F6FF731A4600210846FEF7CBFD08941E
:1022F0000797322007F025FFB7E60000A4E10008A9
:1023000000040240DCC10120C402002000000020C3
:10231000C8020020B4020020000802402F6D75732F
:10232000696300002F766964656F0000E415012081
:1023300064180120504C4159494E473A00000000B2
:10234000564F4C3A202564005B505245535320545D
:102350004F2053544F505D003E00000070B50446BE
:102360000CB9012070BD94F8200010B9204600F08F
:10237000AFF82068006840F001002168086000F0B4
:10238000D9FE05460DE000F0D5FE401B0A2808D90D
:10239000606A40F400306062052084F8200001206B
:1023A000E0E72068406800F001000028EBD02068DA
:1023B000006820F002002168086000F0BBFE0546BE
:1023C0000DE000F0B7FE401B0A2808D9606A40F40F
:1023D00000306062052084F820000120C2E72068F8
:1023E000406800F002000028EBD1207E012806D1D1
:1023F0002068006840F080002168086005E02068DF
:10240000006820F0800021680860607E012806D105
:102410002068006840F040002168086005E02068FE
:10242000006820F0400021680860A07E012806D1E5
:102430002068006840F020002168086005E02068FE
:10244000006820F0200021680860E07E012806D1A5
:102450002068006820F010002168086005E020680E
:10246000006840F0100021680860207F012806D134
:102470002068006840F008002168086005E02068D6
:10248000006820F0080021680860607F012806D1FC
:102490002068006840F004002168086005E02068BA
:1024A000006820F0040021680860D4E902010843B4
:1024B00021690843616908436168491E084321682E
:1024C000C86100206062012084F82000002049E7F4
:1024D00010B586B00446142101A8FEF798F91B49EF
:1024E0002068884230D100BF002000901848006862
:1024F00040F00070164908600846006800F000705F
:10250000009000BF00BF00BF0020009010481038AE
:10251000006840F001000E49103908600846006864
:1025200000F00100009000BF00BF4FF4C0500190C8
:1025300002200290002003900320049009200590BF
:1025400001A9044800F0E4FC06B010BD006400409E
:102550004038024000000240704770477047F0B5B5
:102560000346002603B109B90120F0BD00BF587928
:10257000012801D10220F8E70120587100BF022094
:1025800018711868046802F0100740F6FE70B84031
:102590008443D1E9000740EA070502F0100005FA7C
:1025A00000F00443186804601868006802F0100C1A
:1025B000C02707FA0CF7B8431F683860012018716C
:1025C00000BF0020587100BF3046CEE7704770470B
:1025D000704710B504460CB9012010BD207920B910
:1025E00000206071204600F009F8022020710020D0
:1025F0002061012020710020EFE7000010B586B0B7
:102600000446142101A8FEF702F93B4920688842DC
:1026100070D100BF002000903848006840F00050A2
:10262000364908600846006800F00050009000BF7E
:1026300000BF00BF0020009030481038006840F014
:1026400001002E49103908600846006800F00100BA
:10265000009000BF00BF30200190032002900020B6
:10266000039001A9264800F053FC2648264908603B
:102670004FF0606048604021234881600021C160C4
:102680004FF4806101614900416189008161491114
:10269000C161490201620021416200F0FDFA08B106
:1026A000FFF78EFC00BF1848A060846300BF154888
:1026B0001830164908604FF06060486040211348A8
:1026C00081600021C1604FF4806101614900416176
:1026D000890081614911C1614902016200214162A1
:1026E00000F0DAFA08B1FFF76BFC00BF0748E060C2
:1026F000846300BF06B010BD007400404038024043
:102700000000024088600240141B0120741B01205D
:1027100038B50446002000900CB9012038BD20686F
:10272000009029B902F10800009D2844009004E0BF
:1027300002F11400009D28440090009803600020DE
:10274000ECE710B502460AB9012010BD00BF507970
:10275000012801D10220F8E70120507100BF0220BA
:1027600010711068006801F010040123A3401843A1
:102770001368186061B91068006800F03C003C28DC
:1027800016D11068406840F00100136858600FE0EF
:102790001068006800F4701301F010043C20A040A1
:1027A000834205D11068406840F002001368586009
:1027B0000120107100BF0020507100BF00BFC4E7AE
:1027C0002DE9F04704460E4690469A46DDF82090E3
:1027D00014B90120BDE8F08700BF6079012801D15C
:1027E0000220F7E70120607100BF0220207116BBB4
:1027F0003B48A168C8633B48A16808643A48A1689F
:10280000C8642068006840F4805021680860B9F10D
:10281000000F03D0B9F1040F08D103E0206800F1E4
:10282000080507E0206800F10C0503E0206800F1CE
:10283000100500BF22E02D48E168C8632C48E1681C
:1028400008642C48E168C8642068006840F0805043
:1028500021680860B9F1000F03D0B9F1040F08D165
:1028600003E0206800F1140507E0206800F1180576
:1028700003E0206800F11C0500BF00BF6EB92068AE
:10288000006840F400502168086053462A464146DB
:10289000A06800F077FA07460CE02068006840F076
:1028A00000502168086053462A464146E06800F01F
:1028B00069FA074600BF0020607100BF4FB9206869
:1028C000006806F010020121914008432168086069
:1028D00003E0206940F00400206138467AE70000F8
:1028E000C50C00081D0D0008E90C0008D70C0008F5
:1028F0002B0D0008030D000810B502460AB901208F
:1029000010BD1068006801F010040123A340984333
:1029100013681860012010710020F1E770B50446BB
:102920000D460CB9012070BD2068006805F010024A
:102930004FF4805191408843216808602068006806
:1029400005F01002012191408843216808604DB9CB
:10295000A06800F014F82068006820F40050216896
:10296000086008E0E06800F00AF82068006820F0DD
:10297000005021680860012020710020D3E770B565
:102980000446A56D00F0D6FB064694F835000228F3
:1029900008D08020606500BF002084F8340000BFAC
:1029A000012070BD2068006820F0160021680860D2
:1029B0002068406920F0800021684861206C08B9D7
:1029C000A06C28B12068006820F008002168086029
:1029D0002068006820F001002168086010E000F025
:1029E000A9FB801B05280BD920206065032084F8F3
:1029F000350000BF002084F8340000BF0320D0E77A
:102A00002068006800F001000028E8D194F85C100C
:102A10003F208840A860012084F8350000BF0020D6
:102A200084F8340000BF00BFBBE7014691F83500D1
:102A3000022803D08020486501207047052081F8D6
:102A400035000868006820F001000A681060002066
:102A5000F3E70146486D7047F8B504460020009042
:102A60008C4800684FF41651B0FBF1F7A56D2E6845
:102A700094F85C1008208840304098B120680068C5
:102A800000F0040070B12068006820F004002168A4
:102A9000086094F85C1008208840A860606D40F0E1
:102AA0000100606594F85C1001208840304068B1F6
:102AB0002068406900F0800040B194F85C1001206B
:102AC0008840A860606D40F00200606594F85C107A
:102AD00004208840304068B12068006800F002009F
:102AE00040B194F85C1004208840A860606D40F00C
:102AF0000400606594F85C1010208840304078B382
:102B00002068006800F0080050B394F85C101020B2
:102B10008840A8602068006800F4802080B12068A8
:102B2000006800F4002028B9206CC8B12046216C50
:102B3000884715E0A06C98B12046A16C88470FE04B
:102B40002068006800F4807028B92068006820F0D0
:102B5000080021680860206C10B12046216C88476D
:102B600094F85C10202088403040002865D0206810
:102B7000006800F0100000285FD094F85C1020205E
:102B80008840A86094F83500052828D1206800689E
:102B900020F01600216808602068406920F080005D
:102BA00021684861206C08B9A06C28B120680068D1
:102BB00020F008002168086094F85C103F208840ED
:102BC000A860012084F8350000BF002084F834009C
:102BD00000BF206D10B12046216D8847F8BD2068E8
:102BE000006800F4802080B12068006800F40020B4
:102BF00028B9606C10B12046616C88471DE0E06B1D
:102C0000D8B12046E16B884717E02068006800F4DF
:102C1000807068B92068006820F0100021680860A2
:102C2000012084F8350000BF002084F8340000BF84
:102C3000E06B10B12046E16B8847606D38B3606D82
:102C400000F00100F0B1052084F83500206800682C
:102C500020F001002168086000BF0098401C00902F
:102C6000B84200D905E02068006800F001000028A3
:102C7000F3D100BF012084F8350000BF002084F8A4
:102C8000340000BFE06C10B12046E16C884700BF03
:102C9000A4E7000038C001202DE9F04104460025DA
:102CA00000F048FA074614B90120BDE8F081606AD7
:102CB00000B100BF022084F8350000BF002084F876
:102CC000340000BF2068006820F00100216808601F
:102CD0000AE000F02FFAC01B052805D92020606506
:102CE000032084F83500E0E72068006800F0010068
:102CF0000028EED12068056821480540D4E901018B
:102D00000843E16808432169084361690843A169F0
:102D10000843E1690843216A08430543606A0428BF
:102D200003D1D4E90B0108430543206805602068FE
:102D3000456925F00705606A0543606A04280DD1DE
:102D4000A06A0543E06A48B12046FEF72FF828B193
:102D500040206065012084F83500A6E720684561C1
:102D60002046FEF709F8064694F85C103F2088409C
:102D7000B06000206065012084F83500002094E7F1
:102D80003F8010F02DE9F04704460D4616461F46D9
:102D90004FF00008D4F8589000BF94F83400012890
:102DA00002D10220BDE8F087012084F8340000BF82
:102DB00094F83500012825D1022084F83500002040
:102DC00060653B46324629462046FEF744F894F8B3
:102DD0005C103F208840C9F808002068006840F077
:102DE000160021680860206C28B12068006840F057
:102DF0000800216808602068006840F00100216830
:102E0000086006E000BF002084F8340000BF4FF0E7
:102E100002084046C6E7000070B5044600F08AF993
:102E200006462546681C10B104480078054400BFDA
:102E300000F080F9801BA842FAD370BDD4020020B4
:102E400070B50446B4F5005F1AD100F073F9054679
:102E500022480068281A642811D921480078401CAB
:102E60001F49087008460078032801D10020087027
:102E70001B480078022802D100201A49086000BFD0
:102E8000042C25D100F056F9054614480068281A8C
:102E900064281CD914480078401C1349087008465F
:102EA00000780A2801DD00200870002003E00021DE
:102EB0000E4A1154401C0A28F9DB002003E05A2175
:102EC0000A4A1154401C084909788842F7DB00BFC0
:102ED000074800680149086070BD00000400002038
:102EE0000C0000201400002018000020A802002080
:102EF0000800002010B5044604480068204020B1B6
:102F0000024804602046FFF79BFF10BD143C0140BF
:102F1000F8B502460B460025002400200021D6E02B
:102F2000012606FA01F51E6806EA0504AC4274D1D2
:102F30001E7906F00306012E04D01E7906F0030662
:102F4000022E13D190684F000326BE40B0434F00BD
:102F5000DE68BE4030439060506801268E40B0432A
:102F60001E79C6F300168E40304350601E7906F07D
:102F70000306032E09D0D0684F000326BE40B0439D
:102F80004F009E68BE403043D0601E7906F00306B5
:102F9000022E13D1CF0802F1200656F827004E0763
:102FA000F70E0F26BE40B0434F07FF0E1E69BE400E
:102FB0003043CF0802F1200646F8270010684F0082
:102FC0000326BE40B0431E7906F003064F00BE4004
:102FD000304310605E6806F44036002E76D000BFA5
:102FE000002600963C4E366846F480463A4F3E60D6
:102FF0003E46366806F48046009600BF00BF374E56
:103000008F0856F827008E07370F0F26BE40B043B3
:10301000334EB24202D1002624E057E0314EB24294
:1030200001D101261EE0304EB24201D1022619E044
:103030002E4EB24201D1032614E02D4EB24201D1F0
:1030400004260FE02B4EB24201D105260AE02A4E9B
:10305000B24201D1062605E0284EB24201D1072630
:1030600000E008268F073F0FBE4030431B4E8F08FD
:1030700046F82700224E3068A0435E6806F48016AA
:1030800006B120431E4E3060361D3068A0435E6896
:1030900006F4001606B12043194E361D3060184E56
:1030A000361F3068A0435E6806F4003606B1204340
:1030B000134E361F3060361F3068A0435E6806F43A
:1030C000803606B120430E4E083E3060491C102960
:1030D000FFF426AFF8BD0000443802400838014034
:1030E000000002400004024000080240000C0240C0
:1030F000001002400014024000180240001C024070
:10310000083C0140024613690B400BB1012000E06E
:103110000020704710B5426921EA020302EA010467
:1031200043EA0443836110BD0AB1816101E00B04ED
:10313000836170470148006870470000CC0200209E
:1031400070B504460CB9012070BD94F83D0028B953
:10315000002084F83C00204600F0DAF8242084F8AF
:103160003D002068006820F00100216808602068A8
:10317000006840F40040216808602068006820F47E
:1031800000402168086000F005FB05465C49606866
:10319000884206D85B48854201D2012007E0002022
:1031A00005E05948854201D2012000E000200128B5
:1031B00000D1C9E75548B5FBF0F62068406820F01B
:1031C0003F003043216848604D496068884201D81B
:1031D000701C07E04FF4967070434FF47A71B0FBA7
:1031E000F1F0401C2168096A21F03F010843216881
:1031F000086243496068884214D8681E61684900C3
:10320000B0FBF1F0401CC0F30B00042801D20420F5
:103210003DE0681E61684900B0FBF1F0401CC0F35E
:103220000B0034E0A06838B9681E616801EB410109
:10323000B0FBF1F0401C0AE0681E616801EBC102BE
:1032400002EB0111B0FBF1F0401C40F48040C0F3F0
:103250000B0008B901201AE0A06848B9681E61682F
:1032600001EB4101B0FBF1F0401CC0F30B000CE09E
:10327000681E616801EBC10202EB0111B0FBF1F0C5
:10328000401CC0F30B0040F4804040F40040216833
:10329000C9694CF6FF72914308432168C861D4E9BB
:1032A000070108432168096821F0C001084321682B
:1032B0000860D4E9031008432168896848F2FF32A6
:1032C0009143084321688860D4E9050108432168D7
:1032D000C96821F0FF0108432168C86020680068C0
:1032E00040F001002168086000202064202084F85C
:1032F0003D000020206384F83E0000BF24E700006A
:10330000A086010080841E0000093D0040420F009D
:1033100010B586B00446142101A8FDF778FA1B49C0
:10332000206888422FD100BF002000901848006814
:1033300040F00200164908600846006800F00200EC
:10334000009000BF00BFC02001901220029000201A
:103350000390032004900420059001A90D48FFF775
:10336000D7FD00BF0020009009481030006840F4ED
:1033700000100749103108600846006800F400108A
:10338000009000BF00BF06B010BD00000054004018
:1033900030380240000402400348006803490978BD
:1033A0000844014908607047CC020020D402002084
:1033B00010B50D48006840F400700B4908600846DD
:1033C000006840F4806008600846006840F480703F
:1033D0000860032000F0E0F80F2000F007F800F08C
:1033E0005FF8002010BD0000003C02402DE9F041D4
:1033F00088B004460027B84600BF0020019023484B
:10340000006840F02000214908600846006800F08C
:103410002000019000BF00BF02A903A800F092F9AC
:10342000069F1FB900F0B6F9054602E000F0B2F9B8
:1034300045001748B5FBF0F0A0F101081548164902
:10344000086040F2E7311448C160C0F804800021F0
:1034500001618160816101F037FA064696B90E4834
:1034600001F00CFB06466EB9372000F043F8102C33
:1034700007D200222146372000F050F807480460A8
:1034800000E00126304608B0BDE8F0814038024037
:1034900040420F00001400406CC20120D002002006
:1034A00008B500BF002000901148006840F480403B
:1034B0000F4908600846006800F48040009000BF93
:1034C00000BF00BF00200090081F006840F080503F
:1034D000091F08600846006800F08050009000BF97
:1034E00000BF00220F21901E00F018F808BD000058
:1034F000443802400146084600280DDB00BF00BFEB
:1035000000F01F0301229A4043099B0003F1E023CE
:10351000C3F8002100BF00BF00BF70472DE9F05F76
:1035200080460D461646002704F06CF807463946DB
:103530002A46334601F00700C0F1070ABAF1040F2A
:1035400002D94FF0040A01E0C0F1070AD14600F1A8
:10355000040ABAF1070F02D24FF0000A01E0A0F10D
:10356000030AD4464FF0010A0AFA09FAAAF1010A3D
:103570000AEA020A0AFA0CFA4FF0010B0BFA0CFBEA
:10358000ABF1010B0BEA030B4AEA0B042146404660
:1035900004F040F8BDE8F09F00BF00F00702064BC2
:1035A00019684FF6FF031940044B0B4343EA02210D
:1035B000014B196000BF70470CED00E00000FA05F8
:1035C00070B504460D460CB9012070BD584800681E
:1035D00000F00700A84209D255490D70084600685E
:1035E00000F00700A84201D00120EEE7207800F0AB
:1035F000020002281DD1207800F00400042805D123
:103600004C48006840F4E0504A490860207800F0D7
:103610000800082805D14748006840F46040454943
:1036200008604448006820F0F000A1680843414960
:103630000860207800F00100A8B36068012807D175
:103640003C4808380068C0F34040B8B90120BCE7E6
:103650006068022802D06068032807D1354808381E
:103660000068C0F3406048B90120AEE7314808382F
:103670000068C0F3400008B90120A6E72D480068A3
:1036800020F00300616808432A490860FFF752FDF3
:10369000064609E0FFF74EFD801B41F28831884263
:1036A00002D9032091E707E02248006800F00C00EF
:1036B0006168B0EB810FEDD11D48006800F0070094
:1036C000A84209D91A490D700846006800F00700A1
:1036D000A84201D0012078E7207800F004000428F7
:1036E00007D11448006820F4E050E168084311490C
:1036F0000860207800F00800082808D10D4800680C
:1037000020F46040216940EAC1000A49086000F0E5
:1037100061F808490968C1F30311074A515CC840C0
:103720000649086006480068FFF760FE00204CE785
:10373000003C024008380240C0E1000838C00120C7
:10374000D00200200F2202600D4A126802F003022C
:1037500042600B4A126802F0F0028260084A126866
:1037600002F4E052C260064A126802F46042D208D3
:103770000261044A126802F007020A607047000002
:1037800008380240003C02400148006870470000D1
:1037900038C0012000B5FFF7F7FF04490968C1F3FD
:1037A0008221034A515CC84000BD00000838024035
:1037B000D0E1000800B5FFF7E7FF04490968C1F34D
:1037C0004231034A515CC84000BD00000838024045
:1037D000D0E100082DE9F047002400250026A1468D
:1037E0002548006800F00C0020B1042805D0082806
:1037F0003AD105E0DFF8849039E0DFF8849036E0D4
:103800001D48001F006800F03F041B48001F0068AF
:1038100000F4800078B11A481749091F0968C1F3FC
:103820008811A0FB01700146224600233846FCF7B0
:10383000B1FD05460EE011480F49091F0968C1F3A3
:103840008811A0FB01700146224600233846FCF790
:10385000A1FD05460848001F0068C0F30140401C58
:103860004600B5FBF6F902E0DFF8109000BF00BF9C
:103870004846BDE8F0870000083802400024F40004
:1038800000127A00F8B504460CB90120F8BD207882
:1038900000F00100002874D0F948006800F00C0026
:1038A00004280DD0F648006800F00C00082813D159
:1038B000F348001F006800F48000B0F5800F0BD1C2
:1038C000EF4808380068C0F34040002859D06068CD
:1038D000002856D10120D9E700BF6068B0F5803FCD
:1038E00008D1E7480838006840F48030E4490839D6
:1038F00008601EE06068B0F5A02F0DD1E0480838E0
:10390000006840F48020DE490839086008460068F5
:1039100040F4803008600CE0D9480838006820F492
:103920008030D749083908600846006820F48020B4
:10393000086000BF606890B1FFF7FCFB054606E039
:10394000FFF7F8FB401B642801D903209EE7CC4811
:1039500008380068C0F340400028F1D011E0FFF7BC
:10396000E9FB054606E0FFF7E5FB401B642801D9AB
:1039700003208BE7C24808380068C0F340400028A5
:10398000F1D1207800F0020002285FD1BC48006825
:1039900000F00C0058B1BA48006800F00C0008288C
:1039A0001CD1B748001F006800F48000B0B9B448CB
:1039B00008380068C0F3400020B1E068012801D059
:1039C000012063E7AE480838006820F0F80021695C
:1039D00040EAC100AA490839086037E0E06800B34E
:1039E0000120A8490860FFF7A5FB054606E0FFF7A0
:1039F000A1FB401B022801D9032047E7A048083853
:103A00000068C0F340000028F1D09D4808380068E5
:103A100020F0F800216940EAC1009949083908609E
:103A200014E0002097490860FFF784FB054606E094
:103A3000FFF780FB401B022801D9032026E79048AE
:103A400008380068C0F340000028F1D1207800F069
:103A5000080008282CD16069A8B101208A490860B3
:103A6000FFF768FB054606E0FFF764FB401B0228F2
:103A700001D903200AE782486C300068C0F3400097
:103A80000028F1D014E000207F490860FFF752FBC6
:103A9000054606E0FFF74EFB401B022801D9032034
:103AA000F4E677486C300068C0F340000028F1D19C
:103AB000207800F00400042870D1002770483830C6
:103AC000006800F0805090B900BF002000906C4862
:103AD0003830006840F08050694938310860084645
:103AE000006800F08050009000BF00BF01276748C9
:103AF000006800F48070B0B96448006840F48070D9
:103B000062490860FFF716FB054606E0FFF712FB67
:103B1000401B022801D90320B8E65C48006800F485
:103B200080700028F2D000BFA068012808D1544856
:103B30006830006840F001005149683108601DE0BC
:103B4000A06805280DD14E486830006840F0040098
:103B50004B49683108600846006840F00100086081
:103B60000CE047486830006820F0010044496831A3
:103B700008600846006820F00400086000BFA068E4
:103B8000A8B1FFF7D7FA054609E0FFF7D3FA401BC3
:103B900041F28831884202D9032077E626E038488E
:103BA00068300068C0F340000028EED013E0FFF753
:103BB000C1FA054608E0FFF7BDFA401B41F2883123
:103BC000884201D9032061E62D4868300068C0F3BF
:103BD00040000028EFD1012F07D129483830006874
:103BE00020F0805026493831086000BFA0690028C5
:103BF00045D02348006800F00C0008285DD0A0697B
:103C0000022845D100201F490866FFF793FA0546B0
:103C100006E0FFF78FFA401B022801D9032035E6A2
:103C2000174808380068C0F340600028F1D1D4E993
:103C300007010843616A40EA81110122A06AC2EBD0
:103C4000500041EA00412C20005D41EA00600C492F
:103C5000091F086001200B490866FFF76BFA05464B
:103C600006E0FFF767FA401B022801D903200DE6A2
:103C7000034808380068C0F340600028F1D049E0EC
:103C80000838024000004742800E47420070004062
:103C9000002021490866FFF74DFA054606E0FFF7C8
:103CA00049FA401B022801D90320EFE51B480068B0
:103CB000C0F340600028F2D12CE0A069012800D1B7
:103CC000E4E51648001D0668A069012820D006F426
:103CD0008001E06981421BD106F03F01206A8142E8
:103CE00016D147F6C0703040616AB0EB811F0FD12A
:103CF00006F440310122A06AC2EB5000B1EB004F44
:103D000006D106F070612C20005DB1EB006F01D090
:103D10000120BBE50020B9E5000047420038024021
:103D200010B50446FCF762FF10BD704710B502469F
:103D3000506E800F0870506EC0F383604870506EF4
:103D4000C0F301608870506E000CC870B2F8640057
:103D5000000A087192F864004871906E000DC880E6
:103D6000906EC0F3034008726820805AC0F3C030E0
:103D700048726820805AC0F3803088726820805A68
:103D8000C0F34030C8726820805AC0F30030087316
:103D900000204873506C002836D16820805A800576
:103DA000030DD06E43EA90700861D06EC0F3C2601C
:103DB0000875D06EC0F302604875D06EC0F34250F3
:103DC0008875D06EC0F38240C875D06EC0F3C23023
:103DD00008760869401C50650B7E506D03F00703A0
:103DE0009B1C01249C4060435065087A00F00F033F
:103DF000012098409065D2E915035B0A5843D065CD
:103E00004FF40073136621E0506C012813D1682031
:103E1000805C8006830AD06E43EA1040086108691E
:103E2000401C83025365536DD3654FF40073936553
:103E3000936D13660AE02E4813689863906B40F008
:103E400080509063012082F8340010BD6C20805AAD
:103E5000C0F3803001F8190F6C20805AC0F3C610EF
:103E600048706C20805C00F07F008870106FC00F7D
:103E7000C870106FC0F341700871106FC0F382609A
:103E80004871106FC0F383508871106FC0F34050B9
:103E9000C87100200872106FC0F300404872702093
:103EA000805AC0F3C03088727020805AC0F38030CE
:103EB000C8727020805AC0F3403008737020805A56
:103EC000C0F3003048737020805AC0F3812088739B
:103ED0007020805AC0F30120C8737020805CC0F34A
:103EE000460008740120487419390020ADE700002D
:103EF000FF0540000246506C0860906C4860D06C32
:103F00008860106DC860506D0861906D4861D06D1B
:103F10008861106EC86100207047F8B50446002023
:103F200000906946204602F044FD054615B1A06B9D
:103F30002843A0630098C0F343263046F8BD000034
:103F400070B50446256B2068406BC0F3C03030B1BB
:103F500005F0080018B1204602F006FDF8E02068E0
:103F6000406BC0F30020002862D04FF480702168BD
:103F700088632068C06B4CF23A3188432168C8637B
:103F80002068C06A20F001002168C86205F00800BE
:103F900038B305F0020010B905F0200050B12068D8
:103FA00002F0E8F806462EB1A06B3043A06320462D
:103FB000FFF7BBFE40F23A5021688863012084F885
:103FC00034000020206305F0010010B905F0020064
:103FD00018B1204600F0A2FABAE0204600F0A3FA99
:103FE000B6E005F080000028B8D005F0200050B100
:103FF000206802F0BFF806462EB1A06B3043A063E4
:104000002046FFF792FE05F001000028A6D105F03A
:1040100002000028A2D12068C06A20F008002168B0
:10402000C862012084F83400204600F07CFA8FE05A
:104030002068406BC0F3803030B105F0080018B143
:10404000204602F0CEFC83E02068406B40F23A212B
:10405000084008B1012000E00020002878D0206846
:10406000406BC0F3400018B1A06B40F00200A063A9
:104070002068406BC0F3C00018B1A06B40F008008E
:10408000A0632068406BC0F3401018B1A06B40F0F3
:104090002000A0632068406BC0F3001018B1A06B33
:1040A00040F01000A0632068406BC0F3402018B1BE
:1040B000A06B40F00800A06340F23A70216888636A
:1040C0002068C06B40F23A3188432168C863206899
:1040D00002F050F8A16B0843A06305F0080040B15E
:1040E000012084F83400002020632046FFF71DFEE5
:1040F0002EE005F0800000B305F0100010B905F0C7
:10410000200050B11348E16B0865E06BFEF78DFCB1
:1041100098B1E06B02F01DFB1AE005F0010010B948
:1041200005F0020050B10C48216C0865206CFEF7C8
:104130007CFC10B1206C02F0DFFA09E00020A063E3
:10414000012084F83400002020632046FFF7E8FDBA
:1041500070BD000053670008F966000810B50446FA
:104160000CB9012010BD94F8340020B9002020774C
:10417000204600F065F8032084F83400204600F063
:104180000BF808B10120EDE70020A06320630120B7
:1041900084F834000020E5E730B589B004460020FB
:1041A000039004900590069007907620089006A84A
:1041B00007C88DE80700206803A90EC901F056FE64
:1041C00000201D490860206801F06AFE01201A499C
:1041D000A039C1F8A0000220FEF71EFE204602F022
:1041E0005DFB054645B1012084F83400A06B2843EF
:1041F000A063012009B030BD204602F0CEFA05468A
:104200003DB1012084F83400A06B2843A063012055
:10421000F0E74FF40071206801F0A0FE05464DB1B3
:10422000064821688863A06B2843A063012084F8B6
:104230003400DFE70020DDE7A0802542FF054000D5
:1042400010B586B00446142101A8FCF7E0FA5849DD
:10425000206888427ED100BF002000905548006849
:1042600040F40060534908600846006800F40060AC
:10427000009000BF00BF00BF002000904D481438E0
:10428000006840F004004B49143908600846006893
:1042900000F00400009000BF00BF00BF00200090AD
:1042A0000846006840F0080008600846006800F012
:1042B0000800009000BF00BF4FF48850019002201A
:1042C000029000200390032004900C20059001A987
:1042D0003948FEF71DFE04200190022002900020C4
:1042E0000390032004900C20059001A93348FEF7A9
:1042F0000FFE3348334908604FF0006048600021EA
:1043000030488160C1604FF4806101618900416182
:10431000890081612021C161002101620421416283
:10432000032181624FF40001C16289100163FEF72D
:10433000B3FC08B1FDF744FE00BF2248206484634B
:1043400000BF1F484830204908604FF000604860B7
:10435000402100E029E01C4881600021C1604FF449
:104360008061016189004161890081612021C16111
:104370000021016204214162032181624FF40001A6
:10438000C16289100163FEF787FC08B1FDF718FED2
:1043900000BF0D48E063846300BF00220521312087
:1043A000FFF7BCF83120FFF7A5F806B010BD0000FC
:1043B000002C01404438024000080240000C02403A
:1043C00058640240AC1C01200C1D01202DE9F04373
:1043D00087B004460F4691461D46C8463FB9A06BBC
:1043E00040F00060A063012007B0BDE8F08394F8BE
:1043F000340001287ED10020A06308EB0501E06DA8
:10440000814205D9A06B40F00070A0630120EBE76A
:10441000032084F8340000202168C8622068C06B43
:1044200040F22A3108432168C8633848216CC863C8
:104430003748216CC8640020216C08650021206C7D
:104440008160206C0068006820F0C000216C8968E1
:104450000843216C096808606A029308226802F127
:1044600080013A46206CFEF78DFC80B12068C06B5D
:1044700020F495702168C863264821688863A06B82
:1044800040F08040A063012084F83400ACE70120B4
:1044900021490860606C012801D04FEA48284FF09C
:1044A000FF30019068020290902003900220049057
:1044B000002005900120069001A9206801F0A8FCC9
:1044C000012D07D9822020634146206801F092FD2A
:1044D000064606E0812020634146206801F0A6FDE3
:1044E000064676B10B4821688863A06B3043A06311
:1044F000012000E007E084F8340000202063012060
:1045000072E7002070E702206EE70000B166000845
:104510003D660008FF0540008C85254210B5044625
:10452000FCF7A6FB10BD10B50446FCF7BFFB10BDA1
:104530002DE9F04387B00446884691461D464F4614
:10454000B8F1000F07D1A06B40F00060A06301201C
:1045500007B0BDE8F08394F83400012874D100203E
:10456000A0637919E06D814205D9A06B40F000701D
:10457000A0630120ECE7032084F8340000202168C8
:10458000C8622068C06B40F21A2108432168C863E2
:104590003848E16BC8633848E16BC8640020E16BC0
:1045A0000865606C012800D07F02012D07D9A0208A
:1045B00020633946206801F0FBFD064606E09020A6
:1045C00020633946206801F00FFE064666B12B488D
:1045D00021688863A06B3043A063012084F8340015
:1045E000002020630120B3E7012025490860402115
:1045F000E06B8160E06B0068006820F0C000E16B58
:1046000089680843E16B0968086069028B082168C2
:1046100001F180024146E06BFEF7B4FBA8B12068CF
:10462000C06B40F21A2188432168C863134821688F
:104630008863A06B40F08040A063012084F83400C0
:1046400000202063012083E711E04FF0FF3001904C
:1046500068020290902003900020049005900120B1
:10466000069001A9206801F0D3FB002070E702202A
:104670006EE70000416700083D660008FF05400046
:104680008C85254210B504460CB9012010BD606A26
:1046900038B96068B0F5827F00D105E00021E161A2
:1046A00002E00021216161610021A16294F85100C2
:1046B00028B9002084F85000204600F047F8022076
:1046C00084F851002068006820F0400021680860EC
:1046D000A08800F48270218901F404410843A18973
:1046E00001F400610843217C01F002010843217DAF
:1046F00001F001010843218B01F400710843217F7F
:1047000001F0380108432021095D01F080010843D0
:10471000218D01F400510843216808600421A0693B
:1047200001EA104094F8241001F0100108432168B8
:1047300048602068C06920F400602168C8610020DA
:104740006065012084F8510000209FE710B586B015
:104750000446142101A8FCF75AF829492068884228
:104760004CD100BF002000902648006840F48050E3
:10477000244908600846006800F48050009000BF9B
:1047800000BF00BF002000901E481438006840F0B1
:1047900001001C49143908600846006800F0010057
:1047A000009000BF00BF00BF0020009008460068D6
:1047B00040F0020008600846006800F00200009027
:1047C00000BF00BFC0200190022002900020039093
:1047D000032004900520059001A90B48FEF798FBE3
:1047E00008200190022002900020039003200490F2
:1047F0000520059001A90548FEF78AFB06B010BD0B
:1048000000300140443802400000024000040240F1
:104810007047704730B502460B4600BF92F83C0027
:10482000012801D1022030BD012082F83C0000BFE8
:10483000022082F83D00106844681068816824F006
:1048400070041868044310684460184D1068A8424A
:104850001BD01068B0F1804F17D0154D1068A842DA
:1048600013D0144D1068A8420FD0134D1068A84201
:104870000BD0124D1068A84207D0114D1068A84205
:1048800003D0104D1068A84205D121F0800158686E
:10489000014310688160012082F83D0000BF0020C4
:1048A00082F83C0000BF00BFBDE7000000000140EF
:1048B0000004004000080040000C004000040140DB
:1048C000004001400018004010B504460CB901201A
:1048D00010BD94F83D0028B9002084F83C00204623
:1048E00000F026F8022084F83D00211D206802F027
:1048F000BFFB012084F8460000BF84F83E00012180
:104900003F200155402001554120015500BF00BF07
:10491000012084F8420043200155442001554520E0
:10492000015500BF012084F83D000020D0E70000C1
:1049300038B5044626492068884218D100BF0020B7
:1049400000902448006840F00200224908600846B0
:10495000006800F00200009000BF00BF00220521A7
:104960001D20FEF7DBFD1D20FEF7C4FD2FE01A49D8
:10497000206888420FD100BF0020009015480068D1
:1049800040F01000134908600846006800F010006D
:10499000009000BF1BE011492068884217D100BF7A
:1049A000002000900B48006840F4807009490860BE
:1049B0000846006800F48070009000BF00BF00222D
:1049C00005212D20FEF7AAFD2D20FEF793FD38BD11
:1049D0000004004040380240001000400020004029
:1049E000014691F83D00012801D0012070470220C6
:1049F00081F83D001A4B086898421BD00868B0F156
:104A0000804F17D0174B0868984213D0164B086890
:104A100098420FD0154B086898420BD0144B086889
:104A2000984207D0134B0868984203D0124B08688D
:104A300098420CD10868806800F00702062A0CD062
:104A40000868006840F001000B68186005E008681D
:104A5000006840F001000B6818600020C6E7000005
:104A6000000001400004004000080040000C00402D
:104A7000000401400040014000180040014691F848
:104A80003D00012801D001207047022081F83D003F
:104A90000868C06840F001000B68D8601A4B0868CD
:104AA00098421BD00868B0F1804F17D0174B0868A8
:104AB000984213D0164B086898420FD0154B0868DF
:104AC00098420BD0144B0868984207D0134B0868E3
:104AD000984203D0124B086898420CD1086880684D
:104AE00000F00702062A0CD00868006840F00100B8
:104AF0000B68186005E00868006840F001000B686A
:104B000018600020C0E700000000014000040040E1
:104B100000080040000C004000040140004001403B
:104B2000001800402DE9F04104460D46002700BF63
:104B300094F83C00012802D10220BDE8F081012058
:104B400084F83C0000BF022084F83D00206886689D
:104B500026F0770626F47F4620688660286850286D
:104B600033D00CDC202850D004DC00284BD0102897
:104B700051D149E0302849D040284CD139E0602853
:104B80002DD0702807D0B0F5805F03D0B0F5005F5E
:104B900041D10DE041E0D5E902136A68206802F0D6
:104BA000E8FA2068866846F077062068866034E078
:104BB000D5E902136A68206802F0DBFA2068806891
:104BC00040F480402168886027E0EA6869682068CE
:104BD00002F0C0FB5021206802F0D6FA1DE0EA681E
:104BE0006968206802F0C9FB6021206802F0CCFAF5
:104BF00013E0EA686968206802F0ACFB4021206895
:104C000002F0C2FA09E000BF00BF00BF29682068B7
:104C100002F0BAFA01E0012700BF00BF012084F8CA
:104C20003D0000BF002084F83C0000BF384684E708
:104C30002DE9F04104460D4614B90120BDE8F0818C
:104C400094F83D0028B9002084F83C00204600F08C
:104C500053F8022084F83D002068806844F2070180
:104C6000884321688860211D206802F001FA2068CD
:104C7000D0F80880206886692068076A286840EABA
:104C8000080840F203308643A969A86840EA012079
:104C9000064340F60C4086434FF2F0008643E96934
:104CA000E86840EA0120064328690001296A40EAD1
:104CB0000130064327F0220727F0880769696868F2
:104CC00040EA011007432068C0F808802068866128
:104CD00020680762012084F8460084F83E00012124
:104CE0003F200155012084F8420043200155012056
:104CF00084F83D000020A1E710B586B004461421D9
:104D000001A8FBF784FD1F492068884237D100BF06
:104D1000002000901C48006840F002001A4908601A
:104D20000846006800F00200009000BF00BF00BF0E
:104D30000020009014481438006840F00400124924
:104D4000143908600846006800F00400009000BFB5
:104D500000BFC0200190022002900120039000209B
:104D600004900320059001A90848FEF7D1F800221D
:104D700005212D20FEF7D2FB2D20FEF7BBFB06B050
:104D800010BD000000040140443802400008024009
:104D90002DE9F04304460D4694F83E603F20075D40
:104DA00094F84280432010F804906DB9012E02D18E
:104DB000B8F1010F02D00120BDE8F083022084F891
:104DC0003E0084F8420025E0042D0CD1012F02D1D1
:104DD000B9F1010F01D00120EEE702213F2001557A
:104DE0004320015516E0012E07D1012F05D1B8F15E
:104DF000010F02D1B9F1010F01D00120DCE702203F
:104E000084F83E0002213F200155022084F8420030
:104E10004320015515B1042D0CD105E001220021DC
:104E2000206802F095F910E001220421206802F0C8
:104E30008FF90AE001220021206802F089F901229D
:104E40000421206802F084F900BF00BF20680068D8
:104E500040F00100216808600020ADE7704770B5A0
:104E600004462068C5682068066906F0020002282A
:104E700019D105F00200022815D1401F21680861F0
:104E8000012020772068806900F0030018B12046D7
:104E9000FFF7E4FF05E0204600F0C6F8204600F0EA
:104EA00091F90020207706F00400042819D105F0BC
:104EB0000400042815D1C04321680861022020772E
:104EC0002068806900F4407018B12046FFF7C6FFE3
:104ED00005E0204600F0A8F8204600F073F9002015
:104EE000207706F00800082819D105F008000828E6
:104EF00015D1C04321680861042020772068C0696B
:104F000000F0030018B12046FFF7A8FF05E0204697
:104F100000F08AF8204600F055F90020207706F0CE
:104F20001000102819D105F01000102815D1C04329
:104F300021680861082020772068C06900F440706B
:104F400018B12046FFF78AFF05E0204600F06CF814
:104F5000204600F037F90020207706F0010048B124
:104F600005F0010030B16FF00100216808612046B2
:104F700000F0B0F906F08000802809D105F080002B
:104F8000802805D1C043216808612046FFF740FC16
:104F900006F04000402809D105F04000402805D126
:104FA000C04321680861204600F064FA06F0200042
:104FB000202809D105F02000202805D1C043216810
:104FC00008612046FFF725FC70BD000010B586B0D3
:104FD0000446142101A8FBF71AFC2068B0F1804FA9
:104FE0001CD100BF002000900D48006840F0010077
:104FF0000B4908600846006800F00100009000BFFF
:1050000000BF042001900220029000200390049031
:105010000120059001A90348FDF77AFF06B010BDF5
:10502000303802400000024070472DE9F04104464C
:105030000D461646002700BF94F83C00012802D117
:105040000220BDE8F081012084F83C0000BF36B1A9
:10505000042E1BD0082E31D00C2E5ED145E02946FF
:10506000206802F09BF82068806940F00800216801
:1050700088612068806920F00400216888612068C8
:105080008069296908432168886148E029462068C9
:1050900002F0BCF82068806940F4006021688861F3
:1050A0002068806920F480602168886120688069B8
:1050B000296940EA01202168886130E0294620689A
:1050C00002F0E2F82068C06940F008002168C86179
:1050D0002068C06920F004002168C8612068C069A8
:1050E000296908432168C86119E02946206802F04F
:1050F00007F92068C06940F400602168C861206831
:10510000C06920F480602168C8612068C06929698D
:1051100040EA01202168C86101E0012700BF00BF0B
:1051200000BF002084F83C0000BF384689E710B576
:1051300004460CB9012010BD94F83D0028B90020A8
:1051400084F83C00204600F025F8022084F83D0059
:10515000211D206801F08CFF012084F8460000BF6B
:1051600084F83E0001213F20015540200155412097
:10517000015500BF00BF012084F8420043200155C3
:10518000442001554520015500BF012084F83D0011
:105190000020D0E708B50168B1F1804F0FD100BF02
:1051A000002100910649096841F00101044A11609B
:1051B0001146096801F00101009100BF00BF08BD60
:1051C000403802407047000070B504460D4615B9DE
:1051D00094F83E000BE0042D02D13F20005D06E074
:1051E000082D02D14020005D01E04120005D012832
:1051F00001D0012070BD1DB9022084F83E000EE0F0
:10520000042D03D102213F20015508E0082D03D1D0
:1052100002214020015502E00221412001550122D6
:105220002946206801F094FF23492068884203D072
:1052300022492068884201D1012000E0002028B1E5
:105240002068406C40F40040216848641A49206896
:1052500088421BD02068B0F1804F17D018492068D1
:10526000884213D01749206888420FD01649206819
:1052700088420BD011492068884207D01349206822
:10528000884203D01249206888420CD12068806887
:1052900000F00706062E0CD02068006840F00100E0
:1052A0002168086005E02068006840F0010021687E
:1052B000086000209EE7000000000140000401405B
:1052C0000004004000080040000C00400040014085
:1052D000001800402DE9F04704465C4920688842E8
:1052E00001D1FEF759F85A492068884263D15948DC
:1052F000007800287ED05848007800285CD05748B5
:1053000000680830B0F5004F02D90020534908600A
:105310005348006851490968415C514802684F4848
:105320000068401C105C41EA002005B24C4801684E
:105330004A480068001D095C4948026847480068FF
:10534000401D105C41EA00200FFA80F844480168D3
:1053500042480068801D095C414802683F48006877
:10536000C01D105C41EA002006B205F50040C0F304
:10537000CF173C4800887843642190FBF1F03A490C
:105380000968C86308F50040C0F30F1906F500402E
:10539000C0F30F1A4B46002211463448FDF7B8F906
:1053A0005346002210213148FDF7B2F92B4800681E
:1053B00008302A49086047E0284A1268521C274BE7
:1053C0001A601A461268B2F5004F01D300221A6023
:1053D000224A1268921CB2F5004F02D900221F4BDC
:1053E0001A601F4A12681D4B1B68D35C1C4A156863
:1053F0001A4A00E018E01268521CAA5C43EA022232
:1054000010B200F50042C2F3CF11164A12884A4387
:10541000642392FBF3F2144B1B68DA630F4A1268A1
:10542000921C0E4B1A600FE011480088401C00B21D
:105430000F490880084600880A2801D1002008800A
:10544000002009490968C863BDE8F08700140040DE
:105450000004004030000020310000202400002023
:105460001C0000200000002004C10120001B0120BE
:10547000B2020020704710B504460CB9012010BDDF
:10548000A06900B100E000BF94F8410028B90020F5
:1054900084F84000204600F029F8242084F84100D8
:1054A0002068C06820F400502168C860204601F0E0
:1054B00079FF2068006920F4904021680861206825
:1054C000406920F02A00216848612068C06840F4E3
:1054D00000502168C86000206064202084F84100EA
:1054E00084F842000020606300BFC8E710B586B0B2
:1054F0000446142101A8FBF78AF91B492068884259
:1055000030D100BF002000901848006840F0100023
:10551000164908600846006800F01000009000BFBF
:1055200000BF00BF0020009010481438006840F011
:1055300001000E49143908600846006800F00100B7
:10554000009000BF00BF4FF4C060019002200290A5
:1055500000200390032004900720059001A904482F
:10556000FDF7D6FC06B010BD0010014044380240E3
:105570000000024000BFFEE710B50B480B49086071
:1055800010204860002109488160C16001614161CB
:10559000017641768176C17601774177FCF7DEFEB0
:1055A00008B1FCF70DFD10BD00640040D81A0120C1
:1055B0001CB50020009001900E480F490860084675
:1055C000FDF707F808B1FCF7FBFC0420009002206F
:1055D0000190002269460848FCF7C1FF08B1FCF7BA
:1055E000EFFC102269460448FCF7B9FF08B1FCF74C
:1055F000E7FC1CBD00740040001B012008B500BF83
:10560000002000901E48006840F480001C4908609B
:105610000846006800F48000009000BF00BF00BF93
:10562000002000900846006840F40010086008461A
:10563000006800F40010009000BF00BF00220521A8
:105640001020FDF76BFF1020FDF754FF002205210D
:105650001120FDF763FF1120FDF74CFF002205210B
:105660003B20FDF75BFF3B20FDF744FF00220521B7
:105670004520FDF753FF4520FDF73CFF08BD000026
:105680003038024010B503490348FCF7A5FC034934
:10569000087010BDE1020020D8E10008E0020020FF
:1056A00000B595B01C2212490EA8FBF77EF8002128
:1056B0000EA804F08BFE0F4908601C220C491C3117
:1056C00007A8FBF772F8002107A804F07FFE0A493B
:1056D00008601C22064938316846FBF766F800214D
:1056E000684604F073FE0549086015B000BD00006F
:1056F00050E10008B8020020BC020020C0020020D7
:1057000000B587B0142102A8FBF781F800BF002084
:1057100001904B48006840F0100049490860084675
:10572000006800F01000019000BF00BF00BF002023
:1057300001900846006840F00400086008460068D0
:1057400000F00400019000BF00BF00BF00200190E6
:105750000846006840F0010008600846006800F054
:105760000100019000BF00BF00BF0020019008466B
:10577000006840F0020008600846006800F002007F
:10578000019000BF00BF00BF0020019008460068E4
:1057900040F0080008600846006800F0080001902A
:1057A00000BF00BF0022C9142648FDF7BDFC04203D
:1057B00002904FF4881003900120049002A922481F
:1057C000FDF7A6FB7820029000200390049002A928
:1057D0001D48FDF79DFB4FF4005002904FF48810D8
:1057E00003900120049002A91848FDF791FB4FF4A3
:1057F0008040029000200390049002A91348FDF716
:1058000087FB4FF400600290012003900490002079
:10581000059002A90B48FDF77BFB0022052108201B
:10582000FDF77CFE0820FDF765FE002205212820FB
:10583000FDF774FE2820FDF75DFE07B000BD0000F7
:1058400030380240000402400010024000080240CC
:1058500010B50B480B4908600B4848600021094807
:105860008160C1604FF4804101610021416181612B
:10587000C1610162FDF764FC08B1FCF7A1FB10BD3A
:1058800000540040D41B0120A086010010B5094837
:105890000949086000204860002107488160C16014
:1058A0000161416104218161FEF758FC08B1FCF7F8
:1058B00087FB10BD002C0140281C012010B50E48AC
:1058C0000E4908604FF48270486000210B488160E7
:1058D000C160016141614FF4007181610021C161CA
:1058E0000162416281620A21C162FEF7CBFE08B10A
:1058F000FCF766FB10BD000000300140ACC0012089
:1059000010B509480949086053204860002107483C
:1059100081600421C160002101618161FEF7D4FF33
:1059200008B1FCF74DFB10BD0020004024C201204F
:1059300000B589B00020079008901C216846FAF74E
:1059400066FF4FF080401749086000204860002142
:105950001448816040F6FF71C160002101618161DE
:10596000FFF7E5FB08B1FCF72BFB00200790089040
:1059700007A90C48FEF74EFF08B1FCF721FB602099
:10598000009000200190029004900822694605488A
:10599000FFF74BFB08B1FCF713FB0248FFF716FBC0
:1059A00009B000BD04C1012000B587B000200390FC
:1059B00004900590069001900290144814490860E4
:1059C0002920486000211248816040F2E731C1601F
:1059D000002101618161FEF777FF08B1FCF7F0FA61
:1059E0004FF48050039003A90948FFF79BF808B1D2
:1059F000FCF7E6FA00200190029001A90448FEF7A6
:105A000009FF08B1FCF7DCFA07B000BD0004004054
:105A10004CC101201CB50020009001900E480F4998
:105A200008601420486000210C4881600121C16099
:105A300000218161FEF748FF08B1FCF7C1FA202080
:105A400000900020019069460448FEF7E3FE08B18B
:105A5000FCF7B6FA1CBD00000010004094C1012004
:105A600000B58BB0242102A8FAF7D1FE00200090E7
:105A700001901A481A49086000204860002118481F
:105A800081604FF6FF71C160002101614161816158
:105A90000320029000200390012004900020059034
:105AA0000F20069000200790012008900020099008
:105AB0000F200A9002A90A48FFF7BAF808B1FCF7CC
:105AC0007FFA00200090019069460548FEF7A2FE8B
:105AD00008B1FCF775FA0BB000BD000000040140EE
