:020000040800F2
:1000000030EB012071030008C9680008E9610008AD
:10001000C5680008150E0008698800080000000087
:100020000000000000000000000000007D02000849
:10003000A922000800000000D9020008357E00084F
:100040008B0300088B0300088B0300088B03000858
:100050008B0300088B0300088B0300088B03000848
:10006000B7220008C1220008CB2200088B03000839
:100070008B0300088B0300088B0300088B03000828
:100080008D0E00089D0E00088B0300088B030008EE
:100090008B0300088B0300088B030008D52200089F
:1000A0008B0300088B0300088B0300088B030008F8
:1000B0008B030008357F00088B0300088B030008C2
:1000C0008B0300088B0300088B0300088B030008D8
:1000D0008B0300088B0300088B0300088B030008C8
:1000E000AB2200088B0300088B0300088B03000879
:1000F0008B030008557F00088B0300088B03000862
:100100008B030008896D00088B0300088B0300082F
:100110008B0300088B0300088B030008457F000851
:100120008B0300088B0300088B030008AD0E00084A
:100130008B0300088B0300088B0300088B03000867
:100140008B0300088B0300088B0300088B03000857
:100150008B030008BD0E00088B0300088B0300080A
:100160008B0300088B0300088B0300088B03000837
:100170008B0300088B0300088B03000800000000BD
:100180008B0300088B03000800F002F800F066F80B
:100190000AA090E8000C82448344AAF10107DA45E2
:1001A00001D100F05BF8AFF2090EBAE80F0013F0CE
:1001B000010F18BFFB1A43F0010318471CF9000098
:1001C0004CF900000A444FF0000C10F8013B13F00A
:1001D000070408BF10F8014B1D1108BF10F8015BA0
:1001E000641E05D010F8016B641E01F8016BF9D193
:1001F00013F0080F1EBF10F8014BAD1C0C1B09D1EA
:100200006D1E58BF01F801CBFAD505E014F8016B5B
:1002100001F8016B6D1EF9D59142D6D370470000ED
:100220000023002400250026103A28BF78C1FBD8FF
:10023000520728BF30C148BF0B607047642900F0E7
:10024000A181732900F03984002070471FB50EF09A
:10025000A7F900F0E8F91FBD10B510BD00F098FC3B
:100260001146FFF7F3FF0BF001F800F0B6FC03B402
:10027000FFF7F2FF03BC00F0B9FC00002C4B19683B
:100280000868B0E8F04F80F30988BFF36F8F4FF034
:10029000000080F3118870470000000008480068E3
:1002A000006880F308884FF0000080F3148862B67D
:1002B00061B6BFF34F8FBFF36F8F00DF00BF00BF8A
:1002C00008ED00E0DFF80C00016841F47001016006
:1002D000704700BF88ED00E0EFF30980BFF36F8F38
:1002E000134B1A681EF0100F08BF20ED108A20E98A
:1002F000F04F106009B44FF0500080F31188BFF345
:100300004F8FBFF36F8F0CF037FB4FF0000080F37F
:10031000118809BC19680868B0E8F04F1EF0100F8A
:1003200008BFB0EC108A80F30988BFF36F8F704765
:100330006CC30120EFF30580704700000B49D1F832
:1003400000C04A685CF8043B1068184442F8040B8B
:100350008C4528BFA1F1DC0C8A4228BFA1F1DC0248
:10036000C1F800C04A6020F000407047C4E401209A
:100370000948804709480047FEE7FEE7FEE7FEE739
:10038000FEE7FEE7FEE7FEE7FEE7FEE70448054975
:10039000054A064B70470000217F000889010008CC
:1003A00030E5012030EB012030E7012030E701206B
:1003B00053EA020C00F069802DE9F04B4FF0000683
:1003C000002B1FBFB3FA83F503FA05F424FA05F6F0
:1003D0005E4012BF1643B2FA82F502FA05F4C5F187
:1003E00020051EBF22FA05FC44EA0C04203556EA1B
:1003F000044C4FEA144418BF641C4FF000084FF03F
:100400000009904271EB030C39D3002919BFB1FAEE
:1004100081F701FA07F6B0FA80F700FA07F6C7F19C
:1004200020071EBF20FA07FC46EA0C062037B6FB61
:10043000F4FCA7EB0507103F07F01F0BCBF12006DC
:100440000CFA0BFB2CFA06F644BFB3460026202F0D
:10045000A4BF5E464FF0000B5BEA060C08BF4FF0EE
:10046000010B19EB0B09ABFB027C48EB0608C01B28
:1004700006FB02CC0BFB03CC71EB0C01C1E70B4676
:10048000024641464846BDE8F08B13B54FF00000E8
:100490004FF00001AFF30080BDE81C407047000042
:1004A0000FB41CB5074B06AA7B446946009005981B
:1004B00000F0D9FA0020694600F0E8FA1CBC5DF8AB
:1004C00014FB0000E10500002DE9F0410E46044652
:1004D000002020622046E168884730B3252805D0F7
:1004E000D4E901219047206A401CF2E7E1682046E8
:1004F00000278847050018D0A5F14100192802D827
:1005000020354FF400673246294620462760FFF722
:1005100095FE40B1012804D0F61D26F007060836E6
:10052000D8E7361DD6E72846DAE7206ABDE8F0812D
:1005300070B50C460546012A05D02878800600D5FE
:10054000EA69002302E0012305E05B1C934202D22A
:10055000E05C0028F9D1A869E618C01AA861286AE9
:10056000184428622846AFF3008004E0D5E9012151
:1005700014F8010B9047B442F8D32846AFF300803B
:1005800070BD00002DE9F041064600241068752971
:10059000314616A510D0AFF30080002802DA4042A1
:1005A00013A507E031688A0701D512A502E04907C3
:1005B00004D511A5012401E0AFF3008000210A2237
:1005C00006F1240709E0B0FBF2FCB0FBF2F302FBFA
:1005D0001C00303078541846491C0028F3D12346BB
:1005E0002A463046BDE8F04100F0DFB900000000C7
:1005F0002D0000002B000000200000000B4910B56A
:10060000A1F17C020A4CC2E93712372106E000EB67
:10061000104342F82130074B00FB03400B1EA1F1B1
:100620000101F4DC10BD0120E8E7000064E40120D2
:10063000E119D666CD0D010030B505460B462A46B8
:1006400013F8014B12F8010B08B1A042F8D01CB10D
:10065000002802D06D1CF1E7284630BD40EA0103B6
:10066000024630B59B0710D14FF0013400E008C2BC
:1006700008C91D1B9D4315EAC41FF8D013F0FF01E4
:1006800002F8011B0DD01B0AF8E711F8013B002B03
:1006900002F8013B05D011F8013B002B02F8013BA9
:1006A000F3D130BD10B5431C02E010F8011B71B14D
:1006B0008107FAD14FF0013202C88C1A8C4314EA38
:1006C000C211F9D0C01A0A0603D0C01E10BDC01A4C
:1006D00010BD0A0401D0801E10BD0902FCD0401ECE
:1006E00010BD40EA010370B59B072ED14FF00136D3
:1006F000042A2AD308C810C99D1B9D43121F15EA5E
:10070000C61517D0D8B2E1B2401A50EA056110D12F
:1007100098B2A1B2401A50EA05410AD123F07F40B5
:1007200024F07F41401A50EA052102D1180EA0EBB7
:10073000146070BDA342DBD018BA21BA884201D937
:10074000012070BD4FF0FF3070BD0AB9002070BDB0
:1007500010F8013B11F8014B63B1A3420AD1521EBC
:1007600008D010F8013B11F8014B1BB1A34201D195
:10077000521EEDD1181B70BD032A40F2308010F0DC
:10078000030C00F0158011F8013BBCF1020F62442C
:1007900098BF11F801CB00F8013B38BF11F8013BBD
:1007A000A2F1040298BF00F801CB38BF00F8013B6A
:1007B00011F0030300F06780083AC0F0088051F898
:1007C000043B083A51F804CBA0E80810F5E7121DE5
:1007D0005CBF51F8043B40F8043BAFF30080D20704
:1007E00024BF11F8013B11F801CB48BF11F8012BD0
:1007F00024BF00F8013B00F801CB48BF00F8012BF3
:100800007047431A28BF9A427FF6B6AF032A1044B6
:10081000114440F2268010F0030F1EBF11F8013D75
:10082000521E00F8013D10F0030F7FF4F6AF11F0F7
:10083000030300F05981083AC0F00B8051F8043DE1
:10084000083A51F804CD40F8043D40F804CDFFF7D4
:10085000F3BF121D5CBF51F8043D40F8043DAFF3F7
:100860000080D20724BF11F8013D11F801CD48BF27
:1008700011F8012C24BF00F8013D00F801CD48BF5C
:1008800000F8012C704710B5203AC0F00B80B1E899
:100890001850203AA0E81850B1E81850A0E81850B5
:1008A000BFF4F5AF5FEA027C24BFB1E81850A0E8BE
:1008B000185044BF18C918C0BDE810405FEA827CD8
:1008C00024BF51F8043B40F8043B08BF7047D207EF
:1008D00028BF31F8023B48BF11F8012B28BF20F890
:1008E000023B48BF00F8012B70474FF0000200B5F3
:1008F000134694469646203922BFA0E80C50A0E843
:100900000C50B1F12001BFF4F7AF090728BFA0E8F0
:100910000C5048BF0CC05DF804EB890028BF40F8BC
:10092000042B08BF704748BF20F8022B11F0804FFE
:1009300018BF00F8012B704710B5044610F0030FE4
:1009400008BF11F0030F40F015804FF0013E121F59
:10095000C0F20E8051F8043BA3EB0E0C2CEA030C02
:100960001CEACE1C08BF40F8043BF0D0A1F1040102
:1009700002F10402521E08DB11F8013B002B00F8C3
:10098000013BF7D1114600F0D9F8204610BD704761
:100990007047704710B500F0F3F8006810BD10B54F
:1009A000044600F0EDF8046010BD2DE9F0470D4657
:1009B00099469246044600F124080168880604D549
:1009C000E06921F01001216000E00120A84201DD72
:1009D000471B00E00027A1697A1902EB0900081AF9
:1009E000A0612078C00602D42046AFF30080002624
:1009F00008E0D4E901211AF806009047206A401C5B
:100A0000761C20624E45F4DB2078C0060AD52046CD
:100A1000AFF3008006E0D4E9012130209047206A3E
:100A2000401C2062381EA7F10107F4DC07E0D4E97E
:100A3000012118F805009047206A401C2062281EFA
:100A4000A5F10105F3DC2046AFF300802078000615
:100A500002D50220BDE8F0870120FBE701694A1CAE
:100A600002610878704700B58FB0CDE901310021EF
:100A7000059105497944CDE9031011466846FFF711
:100A800023FD0FB000BD0000E5FFFFFF0A6802F87C
:100A9000010B0A60704710B5436913B1AFF30080D2
:100AA00001E0FFF745FD012010BD127800F124019F
:100AB0000A7000224A700122EDE711684FF0FF3200
:100AC000E9E7431A28BF9A427FF6DDAE104410F0E2
:100AD000030F11441EBF11F8013D521E00F8013DE5
:100AE00010F0030F7FF4F6AF103AC0F00A8010B593
:100AF00031E91850103A20E91850BFF4F9AFBDE8B9
:100B00001040530724BF31E9081020E9081044BF02
:100B100051F8043D40F8043D12F0030F08BF704740
:100B2000D20728BF31F8023D48BF11F8012C28BF79
:100B300020F8023D48BF00F8012C70474FF000023A
:100B40000429C0F0128010F0030C3FF4D0AECCF1B9
:100B5000040CBCF1020F18BF00F8012BA8BF20F84D
:100B6000022BA1EB0C01FFF7C2BE5FEAC17C24BFE0
:100B700000F8012B00F8012B48BF00F8012B70474B
:100B800000487047CCE4012000487047CCE40120C5
:100B90007546FFF7F9FFAE4605006946534620F05B
:100BA0000700854618B020B5FFF7F0FBBDE82040F0
:100BB0004FF000064FF000074FF000084FF0000B19
:100BC00021F00701AC46ACE8C009ACE8C009ACE8CC
:100BD000C009ACE8C0098D46704710B50446AFF3B4
:100BE00000802046BDE81040FFF741BB01491820B6
:100BF000ABBEFEE726000200704700001CB500BF38
:100C00004A48007800287DD049480768494800686C
:100C1000B84203D347480068C61B04E04548006853
:100C2000381AC0F58046B6F5005F76D24FF480548E
:100C300040480068C0F58045AC423ED93E48006857
:100C40003C4A1268811801AB2A463C4809F0D3FCA3
:100C500080460198A84211D22C21384809F079F930
:100C600001982A1A33480068019B1844324B1B68CC
:100C7000C1186B46314809F0BEFC00BF621B01ABD6
:100C80002D4801682D4809F0B6FC8046601B01998B
:100C900088420ED92C21294809F05BF9601B019B81
:100CA000C21A25480068C1186B46244809F0A3FC05
:100CB00000BF601B1F4908602EE01F4800681D4AE6
:100CC0001268811801AB22461C4809F094FC80464A
:100CD0000198A04211D22C21184809F03AF9019844
:100CE000221A14480068019B1844134B1B68C11852
:100CF0006B46124809F07FFC00BF0E480068204494
:100D00000C4901E00DE008E0086008460068B0F515
:100D1000804F01D30020086000BF02200AF065FB6D
:100D20006EE764200AF061FB6AE7000068C00120FA
:100D30005CC0012060C0012054C00120D8510120B6
:100D40007047000010B504462146024803F0FAFE41
:100D500010BD0000F8DE012010B5044803F005FFC7
:100D6000042801D0012010BD0020FCE7F8DE01209E
:100D700010B5002400F00CF8012801D0012010BDAE
:100D8000024804F013F804462046F8E7F8DE012094
:100D900008B5012000909DF8000008BD2DE9F04144
:100DA00004460D461646002733462A462146044887
:100DB00004F034F900B101273846BDE8F0810000A5
:100DC000F8DE012010B500220121024800680AF077
:100DD00093FB10BD58C301202DE9F04104460D4698
:100DE0001646002733462A462146044804F0C8F92F
:100DF00000B101273846BDE8F0810000F8DE01208F
:100E000010B500220221024800680AF075FB10BDEF
:100E100058C3012000BFFEE770B50446A56B284605
:100E200002F0F0F90120287170BD70B50446A56B81
:100E3000284602F0ADF90120287170BD70B5054655
:100E4000AC6B206940F004002061204602F0DCF920
:100E50000120207170BD70B50546AC6B206940F073
:100E600004002061204602F095F90120207170BD38
:100E700070B50446A56B284602F0C5F970BD70B583
:100E80000446A56B284602F084F970BD10B50248EF
:100E900002F0FEFB10BD0000E4DD012010B50248A9
:100EA00002F0F6FB10BD000044DE012010B5024840
:100EB00002F0EEFB10BD00007CDF012010B50248FF
:100EC00002F0E6FB10BD0000DCDF012001460878DF
:100ED00010381823B0FBF3F20848805CC865032A79
:100EE00005D908686FF30900001D886503E00868EC
:100EF0006FF309008865886D7047000078F400087A
:100F0000014600208A6A8B69CBB932B1012A0DD023
:100F1000022A03D0032A10D10EE000BFCB6A03F0EF
:100F20008073B3F1807F00D1012007E0CB6AB3F179
:100F3000C07F00D1012001E000E000BF34E08B69F8
:100F4000B3F5005F1AD132B1012A07D0022A03D0CB
:100F5000032A11D10AE000BF01200EE0CB6A03F0A2
:100F60008073B3F1807F00D1012006E0CB6AB3F13A
:100F7000C07F00D1012000E000BF15E032B1012A9E
:100F800005D0022A04D0032A0CD103E000BF00BF21
:100F9000012008E0CB6A03F08073B3F1807F00D1B9
:100FA000012000E000BF00BF704730B5046824682E
:100FB00024F4802405682C60046863608468402CF5
:100FC00004D10468A2600468E16003E00468A160E1
:100FD0000468E26030BD000070B503460C464FF077
:100FE000FF3100200AE000EBC00505EB00151B4EA9
:100FF00016F825500DB9014602E0401C2828F2DB06
:1010000000BF002901DA002070BD032001EBC105FB
:1010100005EB0115114E06EB8505687001EBC1006B
:1010200000EB0110354605EB8000436001EBC10089
:1010300000EB011005EB8000846001EBC10000EBC8
:10104000011005EB8000C260012001EBC10505EB3A
:10105000011506F8250000BFD6E7000000000120BA
:10106000F0B504460D464FF0FF3100200AE000EBDA
:10107000C00606EB00161E4F17F826600EB9014693
:1010800002E0401C2828F2DB00BF002901DA002022
:10109000F0BD012001EBC10606EB0116144F07EB72
:1010A0008606707001EBC10000EB01103E4606EBB6
:1010B0008000446001EBC10000EB011006EB8000F2
:1010C000856001EBC10000EB011006EB8000C260FF
:1010D00001EBC10000EB011006EB80000361012071
:1010E00001EBC10606EB011607F8260000BFCFE7AB
:1010F00000000120F0B504460D464FF0FF310020FE
:101100000AE000EBC00606EB00161E4F17F826603B
:101110000EB9014602E0401C2828F2DB00BF00297E
:1011200001DA0020F0BD022001EBC10606EB01163A
:10113000144F07EB8606707001EBC10000EB011045
:101140003E4606EB8000446001EBC10000EB01105D
:1011500006EB8000856001EBC10000EB011006EB9F
:101160008000C26001EBC10000EB011006EB8000C3
:101170000361012001EBC10606EB011607F826000A
:1011800000BFCFE7000001202DE9FF4F83B081466B
:101190000E469246DDF840804FF0FF3400200AE012
:1011A00000EBC00101EB00116B4A12F8211009B9E4
:1011B000044602E0401C2828F2DB00BF002C04DAC1
:1011C0004FF0FF3007B0BDE8F08F002004EBC40102
:1011D00001EB0411604A02EB8101487004EBC40189
:1011E00001EB041102EB8101081D3F224946FFF784
:1011F000A3FB002104EBC40000EB0410564A02EBF1
:10120000800080F8431004EBC40000EB041011468A
:1012100001EB8000C0F844A004EBC40101EB041111
:1012200002EB81010698886404EBC40000EB041013
:10123000114601EB8000A0F84C8004EBC40101EBE7
:10124000041102EB81011198A1F84E0004EBC400D7
:1012500000EB0410114601EB8000A0F85060002163
:1012600004EBC40000EB041002EB8000416502F0C7
:1012700089FD04EBC40101EB0411374A02EB810143
:1012800088654FF4805104EBC40000EB041002EBBE
:101290008000016600274FF0000B46E004EBC4001D
:1012A00000EB04102C4901EB8000001D10F80B50DE
:1012B00005B93DE0202D09D14FF4FA6008FB00F09C
:1012C000642190FBF1F0304407442CE028460AF0FA
:1012D00049FF38B301AB02AA2048017820480068D2
:1012E00008F022F901200090412D01DB5A2D03DD89
:1012F000612D04DB7A2D02DC4FF400700090009920
:10130000029848430290DDE9001048430190DDE96E
:101310000101401A00FB08F0642190FBF1F0304419
:10132000074400BF00BF0BF1010BBBF1400FB5DB61
:1013300000BF04EBC40000EB0410074901EB800080
:10134000C765012004EBC40101EB0411024A02F855
:10135000210020B236E70000000001200CC001206F
:1013600008C0012010B5002008E0002100EBC002F9
:1013700002EB0012044B03F82210401C2828F4DB77
:1013800000F03CF810BD00000000012070B50546DB
:10139000002426E004EBC40000EB0410134911F80C
:1013A0002000E8B104EBC40000EB041001EB800066
:1013B0004078A8B904EBC40101EB04110B4A02EB1D
:1013C0008101081D40222946FFF78BF940B904EB43
:1013D000C40000EB0410054901EB8000406D70BDB6
:1013E000641C282CD6DB0020F9E700000000012057
:1013F00010B50446FFF7B6FF10BD00002DE9F04F11
:101400002DED0C8B93B00020FE490860129000BFB8
:101410000BE000EBC00101EB0011FB4A12F82110B8
:1014200011B10121129102E0401C2828F1DB00BF1C
:10143000129880B9002008E04FF40061F34A22F8C6
:101440001010F34A22F81010401C6428F4DB6420CA
:10145000EC490860E8E30024E3E304EBC40000EB9C
:101460000410E94911F8200000B9D9E304EBC400E5
:1014700000EB0410E44901EB8000407800287CD1A7
:1014800004EBC40000EB041001EB8000466C04EB9D
:10149000C40000EB0411DC4800EB8100806C11906B
:1014A00004EBC40000EB0410D74901EB8000B0F856
:1014B0004C7004EBC40000EB041001EB8000B0F8AA
:1014C0004E00109004EBC40000EB041001EB800010
:1014D000406D0F9000200E9053E104EBC40000EB30
:1014E0000410C94901EB8000001D0E99455C05B947
:1014F0004BE1202D11D14FF4FA607843642190FB29
:10150000F1F104EBC40000EB0412BF4800EB8200D1
:10151000B0F850000844064430E128460AF022FEA4
:1015200000287DD00CAB0DAABA480178BA480068F3
:1015300007F0FAFF4FF00108412D01DB5A2D03DDC2
:10154000612D03DB7A2D01DC4FF400780D9800FB50
:1015500008F00D900C9800FB08F00C90DDE90C01F0
:10156000401A7843642190FBF1FA0F98301A0B90DF
:101570000B98504400280DDA00E008E104EBC400A9
:1015800000EB0411A04800EB8100B0F8500050447B
:101590000644F3E00B98B0F5805F00DDF5E04FF016
:1015A0000009D9E09C48006830F9390000FB08F0D8
:1015B0000A909948006800EBC900B0F9020000FBEE
:1015C00008F009909448006800EBC900B0F90400E5
:1015D00000FB08F008909048006800EBC900B0F9E3
:1015E000060000FB08F007900A987843642190FBFE
:1015F000F1F081190D987843642290FBF2F0091AFA
:101600000F98081A0690109909984843642190FB96
:10161000F1F111980844059008987843642100E09E
:10162000ABE090FBF1F081190D98784390FBF2F05C
:10163000091A0F98081A04901099079848436421D2
:1016400090FBF1F111980844039006990498401A10
:10165000029005990398401A019001980CF0B5FC8E
:1016600041EC1C0B01980CF0B0FC41EC1D0B53EC51
:101670001C2B0CF0D5FC41EC1A0B02980CF0A5FCCD
:1016800041EC1C0B02980CF0A0FC41EC1D0B53EC40
:101690001C2B0CF0C5FC41EC1B0B53EC1A2B0CF073
:1016A00065FA41EC190BB0EE490AF0EE690A07F051
:1016B000DBF9B0EE408AF0EE608A51EC180B0CF0CA
:1016C00055FC052190FBF1FBBBF1020F01DA4FF055
:1016D000020B00203BE04B4B1B68B3F5804F00D35F
:1016E00037E0029B434393FBFBFC069B0CEB03019F
:1016F000019B434393FBFBFC059B0CEB030200297E
:1017000000DA0021B1F5805F01DB40F6FF71002AAD
:1017100000DA0022B2F5805F01DB40F6FF72DFF8ED
:10172000ECC0DFF8E0E0DEF800E02CF81E10DFF897
:10173000E0C0DFF8D0E0DEF800E02CF81E20314BEE
:101740001B685B1CDFF8BCC0CCF80030401C58455F
:10175000C1DD00BF09F101092E4800788145FFF67F
:1017600021AF04EBC40000EB0410274901EB80001B
:10177000B0F850005044064400BF00BF0E98401C13
:101780000E900E984028FFF6A8AE00BF47E204EB8B
:10179000C40000EB04101C4901EB800040780128D4
:1017A0007DD104EBC40000EB041001EB800046681F
:1017B00004EBC40000EB041001EB8000876804EB2D
:1017C000C40000EB041001EB8000D0F80CA004EB87
:1017D000C40000EB041001EB8000D0F810B0AAEBBD
:1017E0000608ABEB070948460CF0EFFB41EC1C0B7D
:1017F00048460CF0EAFB53EC1C2B0CF011FC41ECBE
:10180000190B0BE000C001200000012000000020A7
:10181000008000200CC0012008C0012040460CF0D0
:10182000D4FB41EC1C0B40460CF0CFFB53EC1C2BC3
:101830000CF0F6FB53EC192B0CF098F941EC180B5B
:10184000B0EE480AF0EE680A07F00EF9B0EE40BAC2
:10185000F0EE60BA51EC1B0B0CF088FB052190FBFD
:10186000F1F5022D00DA022500203FE0FE4909686B
:10187000B1F5804F00D33BE008FB00F191FBF5F19F
:101880003144FA4AF84B1B6822F8131009FB00F1A7
:1018900091FBF5F13944F64AF34B1B6800E029E06F
:1018A00022F81310F149F04A126831F81210B1F51C
:1018B000805F06DB40F6FF71EC4AEB4B1B6822F8B9
:1018C0001310EB49E84A126831F81210B1F5805F45
:1018D00006DB40F6FF71E64AE34B1B6822F8131063
:1018E000E1490968491CE04A1160401CA842BDDD7D
:1018F00000BF94E104EBC40000EB0410DD4901EBF0
:101900008000407802287CD104EBC40000EB041076
:1019100001EB8000466804EBC40000EB041001EB0F
:101920008000876804EBC40000EB041001EB80002A
:10193000C068119004EBC40000EB041001EB8000C0
:1019400000691090069607971198304408900997FF
:10195000119830440A90109839180B910C961098F1
:1019600039180D910E960F97002599E006A850F8AA
:10197000359000EBC500D0F804A006A9681C51F80A
:1019800030000590681C01EBC00040680490059889
:10199000A0EB090B0498A0EB0A00039003980CF04D
:1019A00014FB41EC1C0B03980CF00FFB41EC1D0BDE
:1019B00053EC1C2B0CF034FB41EC1A0B58460CF08A
:1019C00004FB41EC1C0B58460CF0FFFA41EC1D0BDC
:1019D00053EC1C2B0CF024FB41EC190B53EC1A2B91
:1019E0000CF0C4F841EC180BB0EE480AF0EE680AAF
:1019F00007F03AF8B0EE40BAF0EE60BA51EC1B0BCB
:101A000000E051E00CF0B2FA052190FBF1F8B8F1DA
:101A1000020F01DA4FF0020800203DE09249096808
:101A2000B1F5804F00D339E00BFB00F191FBF8F1E9
:101A300049448E4A8C4B1B6822F81310039941438A
:101A400091FBF8F151448A4A874B1B6822F8131026
:101A50008649854A126831F81210B1F5805F06DBBD
:101A600040F6FF71814A804B1B6822F813108049B1
:101A70007D4A126831F81210B1F5805F06DB40F63E
:101A8000FF717B4A784B1B6822F81310764909686E
:101A9000491C754A1160401C4045BFDD00BF6D1CEC
:101AA000042DFFF663AFBAE004EBC40000EB0410B2
:101AB000704901EB8000407803287CD104EBC4001E
:101AC00000EB041001EB8000476804EBC40000EB5E
:101AD000041001EB8000D0F8088004EBC40000EB98
:101AE000041001EB8000D0F80C9048460CF06DFA21
:101AF0009FED610B53EC102B0CF092FA0CF036FAC0
:101B0000052190FBF1F50A2D00DA0A25002681E077
:101B100055480068B0F5804F00D37EE028460CF0B1
:101B200054FA41EC1A0B30460CF04FFA41EC1B0B07
:101B300053EC1A2B0CF0C2F841EC190B9FED500B33
:101B400053EC102B0CF06CFA41EC180B48460CF0DF
:101B50003CFA41EC1A0BB0EE480AF0EE680A06F0C7
:101B6000BBFEB0EE40BAF0EE60BA53EC1A2B51EC6B
:101B70001B0B0CF055FA41EC190B0CF0F7F938443B
:101B80003A49394A126821F8120048460CF01DFA09
:101B900041EC1A0BB0EE480AF0EE680A06F000FFBE
:101BA000B0EE40BAF0EE60BA53EC1A2B51EC1B0BBE
:101BB0000CF036FA00E032E041EC190B0CF0D6F9EB
:101BC00040442B49284A126821F812002748264928
:101BD000096830F81100B0F5805F06DB40F6FF7051
:101BE0002249214A126821F8120021481E49096839
:101BF00030F81100B0F5805F06DB40F6FF701C493D
:101C0000194A126821F8120017480068401C16494A
:101C10000860761CAE427FF77BAF00BF00BF00BFFD
:101C2000641C282CFFF619AC0F480068C8B10021CD
:101C3000154801F08FFC1021134801F08BFC0020A7
:101C400000900948094A002103680F4801F0D4FBBD
:101C5000002000900448064A102103680A4801F059
:101C6000CBFB13B012E0000000C0012000000020F8
:101C700000800020000001201F85EB51B81E194094
:101C800044174154FB211940D0DD0120BDEC0C8BE1
:101C9000BDE8F08F002818DB282816DA00EBC00218
:101CA00002EB0012094B13F8222072B100EBC002C4
:101CB00002EB001203EB8202527832B900EBC00251
:101CC00002EB001203EB8202516570470000012015
:101CD00070B504460D46012C00DA0124FFF742FBE3
:101CE00017480480174805602003642190FBF1F633
:101CF000144800683044144908601248006800F530
:101D00008050096890FBF1F010490870084600788F
:101D1000282801DD282008700C480078012802DA04
:101D200001200A4908700020094908700648006827
:101D3000C0F580500749086000200749086070BD61
:101D40001CC0012024C0012020C0012034C001207B
:101D500028C0012030C001202CC001202DE9F0470F
:101D60008146FE48007808BBFD480078F0B90120A4
:101D7000FB490870002048700021F9484164F94887
:101D80000168F7488164F8480188F548A0F84C10CC
:101D9000F5480188F248A0F84E10F448008881B256
:101DA000EF48A0F850100020ED4908714846FEF7B2
:101DB00079FC06460027F4E119F807A0BAF10A0FEA
:101DC0007ED1E6480078401C40B2E44908700846DD
:101DD00090F90000E649097888424DDB002434E0A0
:101DE000601C00EBC00101EB0010DD4901EB80003D
:101DF000407848BB002004EBC40101EB0411D84A31
:101E000002EB81014870621C02EBC20303EB021279
:101E1000D34B03EB8202111D04EBC40202EB04124C
:101E200003EB8202101DFEF719FC601C00EBC001E1
:101E300001EB0010CA4911F8200004EBC40101EBCA
:101E40000411C74A02F82100641CC9480078401EEA
:101E5000A042C5DC0021C6480078401E00EBC0024D
:101E600002EB0010BE4A02EB80000171C04800780E
:101E7000401E40B2B94908700120B84991F90010DC
:101E800001EBC10202EB0111B54A02F8210000206A
:101E9000B24991F9001001EBC10202EB0111B04A05
:101EA00002EB810148700021AC4890F9000000EB82
:101EB000C00202EB0010AA4A02EB8000416400E07D
:101EC0004DE0A64890F90000401CAA490968484323
:101ED000C0F58051A14890F9000000EBC00202EB70
:101EE00000109F4A02EB800081649F4801889B4854
:101EF00090F9000000EBC00202EB0010984A02EBE0
:101F00008000A0F84C1098480188944890F900008F
:101F100000EBC00202EB0010914A02EB8000A0F837
:101F20004E109248008881B28C4890F9000000EB76
:101F3000C00202EB00108A4A02EB8000A0F85010A9
:101F40000020864991F9001001EBC10202EB01115A
:101F5000834A02EB810108718749086020E18248C9
:101F600000884FF4FA614843642190FBF1F07F4907
:101F7000096800EB0108804800684044B0F5805FC4
:101F80007EDD76480078401C40B2744908700846EF
:101F900090F900007649097888424DDB002434E04E
:101FA000601C00EBC00101EB00106D4901EB8000EB
:101FB000407848BB002004EBC40101EB0411684ADF
:101FC00002EB81014870621C02EBC20303EB0212B8
:101FD000634B03EB8202111D04EBC40202EB0412FB
:101FE00003EB8202101DFEF739FB601C00EBC00101
:101FF00001EB00105A4911F8200004EBC40101EB79
:102000000411574A02F82100641C59480078401E08
:10201000A042C5DC002156480078401E00EBC002FB
:1020200002EB00104E4A02EB80000171504800782C
:10203000401E40B2494908700120484991F90010FA
:1020400001EBC10202EB0111454A02F82100002018
:10205000424991F9001001EBC10202EB0111404A23
:1020600002EB8101487000213C4890F9000000EB30
:10207000C00202EB00103A4A02EB8000416400E02B
:102080004CE0364890F90000401C3A490968484342
:10209000C0F58051314890F9000000EBC00202EB1E
:1020A00000102F4A02EB800081642F4801882B48E2
:1020B00090F9000000EBC00202EB0010284A02EB8E
:1020C0008000A0F84C1028480188244890F90000AE
:1020D00000EBC00202EB0010214A02EB8000A0F8E6
:1020E0004E102248008881B21C4890F9000000EB95
:1020F000C00202EB00101A4A02EB8000A0F8501058
:102100000020164991F9001001EBC10202EB011108
:10211000134A02EB81010871174908600F4991F9D0
:10212000001001EBC10202EB01110D4A02EB81012B
:10213000081DFEF7B7FA05463F2D30DA074890F93B
:10214000000000EBC00101EB0010054901EB80002D
:10215000001D00F805A0002200480FE028C0012063
:102160000000012030C001201CC0012024C001203B
:1021700034C0012020C001202CC0012090F90000B3
:1021800000EBC00101EB0010094901EB8000001DCC
:10219000691C42540748006840440649086000BF73
:1021A0007F1CB742FFF608AEFFF728F9BDE8F087BD
:1021B000000001202CC0012070B501F0E3FD0446B1
:1021C0000025002068E000EBC00101EB0011354A5A
:1021D00012F8211000295ED000EBC00101EB0011C4
:1021E00002EB81014978002955D100EBC00101EBD8
:1021F000001102EB8101CA6D00EBC00101EB00117F
:10220000284B03EB8101096E8A4244DD00EBC001DB
:1022100001EB00111A4602EB8101896D611A322926
:1022200039D900EBC00101EB001102EB81018C6593
:1022300000EBC00101EB001102EB8101496D14318B
:1022400000EBC00202EB001203EB8202516500EBCF
:10225000C00101EB00111A4602EB81014A6D00EB4F
:10226000C00101EB001103EB8101C96D01F5FA71A9
:102270008A420FDD00EBC00101EB00111A4602EBB0
:102280008101096E4A4200EBC00101EB001103EB32
:1022900081014A650125401C282894DB0DB1FFF718
:1022A000ADF870BD00000120704710B54FF400502C
:1022B00001F048FC10BD10B5042001F043FC10BD36
:1022C00010B5082001F03EFC10BD10B5102001F043
:1022D00039FC10BD10B5202001F034FC10BD000009
:1022E00007E04FF40061034801F03CFD642001F079
:1022F000AFFBF6E70004024030B504460D4600226D
:102300002946204600F002F830BD0000F0B5034633
:10231000012500241148407A01281CDA00200F4EC4
:10232000767A0E4FB8553846467A001D40F826306A
:10233000001F467A083082553E46707A461C7E72EF
:10234000044604F1300008703A2048702F2088704D
:102350000020C87000252846F0BD0000ACE2012036
:10236000A4B0002023902022FC491BA8FEF78BFA82
:1023700000BFFA4A203207CA18AB07C300BF0020CB
:1023800017901690401E159014900020139000BFD7
:1023900000BF00BFFEF7E6FF00BFF148007808B9B4
:1023A000FFF70AFF4FF40061EE4801F0DBFCEE4856
:1023B0000068406A80B21290EC4909881298401A6D
:1023C00000B21190E949129808802398062802D19A
:1023D00006F05EF905E02398072802D1119806F06F
:1023E00075F82398022819D11198002815D0E049D2
:1023F0000988119801EB40000F900F98B0F5FA6F23
:1024000002DD4FF4FA600F900F98002801DA0020E7
:102410000F900F9881B2D64801808AE02398042853
:1024200040D1D448016811980844D2490860084650
:1024300000680F90002801DB0F9801E00F984042E0
:10244000042876DBCB480068C1170E9000EB917032
:1024500080100F90C84801680F980844C64908606A
:10246000C4490F980968A1EB8001C2480160C248C5
:102470000068002802DA0020BF490860BF480068F1
:10248000801FBD490968884204DABC480068801F83
:10249000B9490860B8480068002802DA0020B64947
:1024A000086046E0B348016811980844B1490860E3
:1024B000084600680F90002801DB0F9801E00F9894
:1024C0004042042835DBAB480068C1170D9000EB93
:1024D000917080100F900F99179808441790A54994
:1024E0000F980968A1EB8000A249086000200E90B7
:1024F000239810B908200E900EE02398012802D0EE
:102500002398032803D19E4800680E9004E0239886
:10251000052801D103200E901798002801DA002029
:1025200017900E991798884202DB0E98401E17905C
:1025300000BF4FF40051934801F00CFC002824D157
:10254000322008F052FF4FF400518E4801F002FC97
:102550000028F4D102E00A2008F047FF4FF40051B0
:10256000884801F0F7FB0028F5D02398002840D1D7
:10257000179858B984A005F01DFB01202390002076
:10258000139017901690401E1590BEE017980128E2
:102590000BD17FA005F00EFB0120239013900020AB
:1025A00017901690401E1590AFE0179802280CD196
:1025B00079A005F069FB03202390022013900020EE
:1025C00017901690401E15909FE01798032805D18C
:1025D000082023904FF0FF30159096E017980428BC
:1025E000D3D105202390002017901690401E1590FF
:1025F0008BE02398012820D1179830B90020239030
:1026000017901690401E15907FE06549179801EBD2
:102610004010202201460F906248FEF78DF9139872
:1026200018B9604804F0F0F902E05E4804F07CFA62
:1026300002202390C01E159067E02398032814D130
:10264000179830B90020239017901690401E1590CF
:102650005BE05349179801EB40100F9004F036F9F6
:1026600004202390401F15904FE0239805281FD188
:10267000179840B90020239004201790002016904E
:10268000401E159041E01798012806D103F0E2FDA5
:1026900006202390C01F159037E01798022834D1E8
:1026A00003F0A4FD072023904FF0FF3015902CE09D
:1026B0002398022806D105F081FB01202390801E7B
:1026C000159022E02398042804D103202390001FB2
:1026D00015901AE02398062806D1052023900020A3
:1026E0001790401E159010E02398072806D105206A
:1026F000239000201790401E159006E0239808288C
:1027000003D100202390401E15900020109001F06E
:1027100039FB25490968401AB0F5FA7F0DD92348DD
:10272000006808B9012000E000202049086001F09D
:1027300029FB1D490860012010902398042839D1F5
:102740000D4800681A490968884252D0012010904B
:1027500009480068164908604BE000004CF4000886
:1027600069C00120000402406CE1012030C3012057
:1027700038C0012034C30120F4C20120F0C201207E
:10278000ECC20120000802402F6D757369630000E0
:102790002F766964656F00002F74657874000000FF
:1027A000D4C3012054C6012038C301203CC30120FA
:1027B00040C3012015991798884212D11499169890
:1027C00088420ED1239802280BD02398062808D0DF
:1027D0002398072805D02398082802D02398052895
:1027E00007D101201090FE49086001F0CBFAFD49A5
:1027F0000860109800287DD02398022802D11398F1
:102800000128F8D00020F84908602398062802D152
:10281000F648006828B92398072819D1F4480068B9
:10282000B0B1F4A005F092F92398062806D1F44837
:10283000F4A1026808A8FDF733FE05E0F448F1A111
:10284000026808A8FDF72CFE08A805F07FF93CE017
:10285000239840B12398052805D02398012802D059
:102860002398032831D100200F900E90239820B98F
:1028700008200F901BA80E900CE02398052804D187
:1028800003200F9018A80E9004E0E24800680F9013
:10289000E1480E9000200D9012E00D991698084422
:1028A0000C900F990C98884200DB0CE00C990E9864
:1028B00050F821000B9005F049F90D98401C0D903F
:1028C0000D980628E9DB00BF00BFFEF74BFD2398FB
:1028D000082878D10F20009040F6D8636422114672
:1028E0000190CEA0FEF750FC0421CF4801F032FA4F
:1028F000024600E01BE3CDA1079008A8FDF7D0FD3C
:102900000F2000904FF4486364221146019008A8FC
:10291000FEF73AFC1021C44801F01CFA0246C6A199
:10292000079008A8FDF7BCFD0F2000904FF42F631F
:1029300064221146019008A8FEF726FC0821BA4837
:1029400001F008FA0246C0A1079008A8FDF7A8FD0B
:102950000F2000904FF4166364221146019008A8DE
:10296000FEF712FC2021B04801F0F4F90246BAA1AA
:10297000079008A8FDF794FD0F2000904FF4FA632C
:1029800064221146019008A8FEF7FEFBB64890F9B4
:102990000020B6A108A8FDF783FD0F2000904FF49A
:1029A000AF6364221146019008A8FEF7EDFB0A20F0
:1029B00000904FF44873642211460190AFA0FEF7D7
:1029C000E3FBA4E2FFE7239806287DD140F6FF73DE
:1029D0001A4600210846FEF78DFBCC200F90002000
:1029E0000B9038E00F98079000EBD0704110A84A88
:1029F0000B9802EB400090F900200F9802FB0010AA
:102A00000A900F98079000EBD0704110A04A0B98E5
:102A100002EB400090F901200F9802FB0010099092
:102A20000F98079000EBD07040100A380890089873
:102A300040000790089840000690DDE90810401A11
:102A400005900A98401A049005A90EC9FEF752FB9A
:102A50000B98401C0B908F490B9809688842C1DB8A
:102A60000F980B9000EBD07041108B4890F900202C
:102A70000F9802FB00100E900F980B9000EBD07097
:102A80004110854890F901200F9802FB00100D902D
:102A90000F980B9000EBD070401014380C90DDE9CB
:102AA0000C1008440B900E9808440A900D98401A98
:102AB00009900E98401A089009A90EC9FEF7D0FA9D
:102AC000DDE90C10401A00E038E00B900E98084445
:102AD0000A900D98084409900E98401A089009A988
:102AE0000EC9FEF7BDFA4148006830B314210091C9
:102AF00040F698034FF47A72019164213DA0FEF7ED
:102B000043FB0B903BA10B9804F0F4F83C4863A105
:102B1000026803A8FDF7C4FC142000904FF4C863BA
:102B20004FF496626421019003A8FEF72DFB0290FA
:102B300003A9029804F0DEF800BFE8E12398072813
:102B40004DD140F6FF731A4600210846FEF7D2FA2F
:102B5000C8200F905548006800F548700D90534804
:102B600000680C900F9B64330D9A0F99FEF7C2FA20
:102B70004F4840680D904E4800683C220C900D99DB
:102B8000FEF72AFA40F6B8300E9000200D909EE035
:102B900000200C9094E047490D9801EBC0010C987F
:102BA000085CD8B10C9840020B900D9800EB4001E6
:102BB000C1EBC0110E9800EB41000A900A98F0306A
:102BC00009900B9800F5FB7008900246DDE9093189
:102BD0000A310B980A30FEF78DFA6DE06DE0B8E02F
:102BE0003CC3012038C301202CC3012004C30120B1
:102BF0001CC3012047414D45204F5645520000005F
:102C00000CC3012053434F52453A20256400000075
:102C100014C30120ECC20120D4C301204445425515
:102C20004720494E5055540000100240555028503E
:102C30004532293A20256400444F574E28504534E8
:102C4000293A2025640000004C454654285045335D
:102C5000293A20256400000052494748542850452D
:102C600035293A202564000051C0012047414D45D7
:102C7000204449523A202564000000005B50524530
:102C8000535320454E4320544F20455849545D002E
:102C900014D60120F8C20120FCC2012053434F5238
:102CA000453A2025642020200000000010C30120A8
:102CB00004D70120DCD6012000BF0C98401C0C90EA
:102CC0000C980828FFF667AF0D98401C0D900D98E2
:102CD0000528FFF65DAF9848006848B314200090BF
:102CE00040F698034FF47A7264210190AFF2FC0031
:102CF000FEF74AFA0D90AFF204110D9803F0FAFFB7
:102D00008E48AFF26801026805A8FDF7C9FB1420E0
:102D100000904FF4C8634FF496626421019005A8B7
:102D2000FEF732FA049005A9049803F0E3FF0FE0E0
:102D3000834884A102680AA8FDF7B2FB0A2000902C
:102D400064231A46194601900AA8FEF71DFA00BF2F
:102D5000DDE0239802282ED10F20009040F6AC53DE
:102D600064221146019079A0FEF70EFA0F20009020
:102D700040F6B8336422114601907748FEF704FA12
:102D80007648028876A10CA8FDF78AFB0F200090F8
:102D90004FF4FA636422114601900CA8FEF7F4F98F
:102DA0000A2000904FF47A736422114601906EA0BD
:102DB000FEF7EAF9ABE0239804282BD100200F900E
:102DC00024E06D4801680F9808440E906B490E98F6
:102DD0000968884200DB1CE00F98C0EB001000EB94
:102DE000800040F6AC51A1EBC0000D900F20009088
:102DF000634901900E9851F820000C9064224B21F9
:102E00000D9BFEF7C1F90F98401C0F900F980628F4
:102E1000D7DB7CE000200F900E90239820B908208B
:102E20000F901BA80E900CE02398052804D10320D6
:102E30000F9018A80E9004E0524800680F90524876
:102E40000E90DDE91610884201DA17981690DDE938
:102E50001601801D814202DB1798401F169000204A
:102E60000D904FE00D99169808440C900F990C980E
:102E7000884200DB49E00D9800EB4001C1EBC01037
:102E800040F6AC51A1EB80000B9017990C9888424A
:102E900020D13E48006840B10F200090019064228C
:102EA00011463BA00B9BFEF76FF90C990E9850F85A
:102EB00021000A900F20009001904FF4C872642105
:102EC000DDE90A03FEF760F90990DDE9090103F085
:102ED00011FF14E00C990E9850F821000A900F2071
:102EE000009001904FF4C8726421DDE90A03FEF7F7
:102EF0004BF90990DDE9090103F0FCFE00BF0D98D4
:102F0000401C0D900D980628ACDB00BF00BF239835
:102F1000042806D040F6FF731A4600210846FEF743
:102F2000E9F81798159016981490FEF767FA0A209A
:102F300008F05BFAFFF731BA1CC3012014C301206B
:102F400018C301204C3A256400000000504C415940
:102F5000494E473A0000000054C6012038C0012005
:102F6000564F4C3A202564005B5052455353205431
:102F70004F2053544F505D00F4C20120F0C2012095
:102F800074C60120ECC20120D4C301203CC301203F
:102F90003E00000070B504460CB9012070BD94F8E5
:102FA000200010B9204600F0AFF82068006840F01B
:102FB00001002168086000F0E5FE05460DE000F024
:102FC000E1FE401B0A2808D9606A40F400306062C4
:102FD000052084F820000120E0E72068406800F028
:102FE00001000028EBD02068006820F00200216872
:102FF000086000F0C7FE05460DE000F0C3FE401B70
:103000000A2808D9606A40F400306062052084F81C
:1030100020000120C2E72068406800F0020000287C
:10302000EBD1207E012806D12068006840F08000A6
:103030002168086005E02068006820F080002168B1
:103040000860607E012806D12068006840F04000DA
:103050002168086005E02068006820F040002168D1
:103060000860A07E012806D12068006840F020009A
:103070002168086005E02068006820F020002168D1
:103080000860E07E012806D12068006820F010006A
:103090002168086005E02068006840F010002168A1
:1030A0000860207F012806D12068006840F00800F1
:1030B0002168086005E02068006820F008002168A9
:1030C0000860607F012806D12068006840F0040095
:1030D0002168086005E02068006820F0040021688D
:1030E0000860D4E902010843216908436169084383
:1030F0006168491E08432168C861002060620120A0
:1031000084F82000002049E710B586B00446142159
:1031100001A8FDF7EAFB1B492068884230D100BFB7
:10312000002000901848006840F0007016490860C0
:103130000846006800F00070009000BF00BF00BFAC
:103140000020009010481038006840F001000E493F
:10315000103908600846006800F00100009000BFC8
:1031600000BF4FF4C0500190022002900020039055
:10317000032004900920059001A9044800F0F0FC08
:1031800006B010BD0064004040380240000002401C
:10319000704770477047F0B50346002603B109B980
:1031A0000120F0BD00BF5879012801D10220F8E7C5
:1031B0000120587100BF022018711868046802F0DD
:1031C000100740F6FE70B8408443D1E9000740EA9A
:1031D000070502F0100005FA00F0044318680460C7
:1031E0001868006802F0100CC02707FA0CF7B84303
:1031F0001F6838600120187100BF0020587100BF9F
:103200003046CEE770477047704710B504460CB99A
:10321000012010BD207920B900206071204600F007
:1032200009F8022020710020206101202071002077
:10323000EFE7000010B586B00446142101A8FDF7A1
:1032400054FB3B492068884270D100BF00200090A9
:103250003848006840F00050364908600846006869
:1032600000F00050009000BF00BF00BF00200090A1
:1032700030481038006840F001002E4910390860CD
:103280000846006800F00100009000BF00BF302039
:103290000190032002900020039001A9264800F02D
:1032A0005FFC2648264908604FF060604860402176
:1032B000234881600021C1604FF4806101614900B1
:1032C0004161890081614911C161490201620021A6
:1032D000416200F0FDFA08B1FFF702F800BF18489C
:1032E000A060846300BF15481830164908604FF08D
:1032F000606048604021134881600021C1604FF444
:103300008061016149004161890081614911C161A8
:10331000490201620021416200F0DAFA08B1FEF7C9
:10332000DFFF00BF0748E060846300BF06B010BD48
:1033300000740040403802400000024088600240B3
:10334000E4DD012044DE012038B504460020009071
:103350000CB9012038BD2068009029B902F108009D
:10336000009D2844009004E002F11400009D2844D0
:103370000090009803600020ECE710B502460AB9FF
:10338000012010BD00BF5079012801D10220F8E7CB
:103390000120507100BF022010711068006801F018
:1033A00010040123A34018431368186061B9106822
:1033B000006800F03C003C2816D11068406840F0DE
:1033C0000100136858600FE01068006800F4701383
:1033D00001F010043C20A040834205D110684068F1
:1033E00040F00200136858600120107100BF0020F7
:1033F000507100BF00BFC4E72DE9F04704460E46F8
:1034000090469A46DDF8209014B90120BDE8F08777
:1034100000BF6079012801D10220F7E70120607127
:1034200000BF0220207116BB3B48A168C8633B481F
:10343000A16808643A48A168C8642068006840F43C
:10344000805021680860B9F1000F03D0B9F1040F72
:1034500008D103E0206800F1080507E0206800F1CA
:103460000C0503E0206800F1100500BF22E02D48A4
:10347000E168C8632C48E16808642C48E168C864C6
:103480002068006840F0805021680860B9F1000FA2
:1034900003D0B9F1040F08D103E0206800F114054E
:1034A00007E0206800F1180503E0206800F11C0522
:1034B00000BF00BF6EB92068006840F4005021686A
:1034C000086053462A464146A06800F077FA07464E
:1034D0000CE02068006840F0005021680860534606
:1034E0002A464146E06800F069FA074600BF00201E
:1034F000607100BF4FB92068006806F0100201211A
:10350000914008432168086003E0206940F004000E
:10351000206138467AE70000190E0008710E000895
:103520003D0E00082B0E00087F0E0008570E000805
:1035300010B502460AB9012010BD1068006801F0FC
:1035400010040123A34098431368186001201071F0
:103550000020F1E770B504460D460CB9012070BD9E
:103560002068006805F010024FF4805191408843B4
:10357000216808602068006805F010020121914070
:103580008843216808604DB9A06800F014F82068ED
:10359000006820F400502168086008E0E06800F04E
:1035A0000AF82068006820F00050216808600120B7
:1035B00020710020D3E770B50446A56D00F0E2FB52
:1035C000064694F83500022808D08020606500BFC8
:1035D000002084F8340000BF012070BD206800681E
:1035E00020F01600216808602068406920F0800003
:1035F00021684861206C08B9A06C28B12068006877
:1036000020F00800216808602068006820F00100B0
:103610002168086010E000F0B5FB801B05280BD97D
:1036200020206065032084F8350000BF002084F866
:10363000340000BF0320D0E72068006800F00100DC
:103640000028E8D194F85C103F208840A860012051
:1036500084F8350000BF002084F8340000BF00BFAC
:10366000BBE7014691F83500022803D08020486569
:1036700001207047052081F835000868006820F0B7
:1036800001000A6810600020F3E70146486D7047AA
:10369000F8B50446002000908C4800684FF416519D
:1036A000B0FBF1F7A56D2E6894F85C1008208840F7
:1036B000304098B12068006800F0040070B12068C4
:1036C000006820F004002168086094F85C1008206D
:1036D0008840A860606D40F00100606594F85C105F
:1036E00001208840304068B12068406900F08000C7
:1036F00040B194F85C1001208840A860606D40F0F3
:103700000200606594F85C1004208840304068B185
:103710002068006800F0020040B194F85C100420BA
:103720008840A860606D40F00400606594F85C100B
:1037300010208840304078B32068006800F008000E
:1037400050B394F85C1010208840A860206800688E
:1037500000F4802080B12068006800F4002028B9BF
:10376000206CC8B12046216C884715E0A06C98B148
:103770002046A16C88470FE02068006800F4807044
:1037800028B92068006820F0080021680860206CD3
:1037900010B12046216C884794F85C1020208840A6
:1037A0003040002865D02068006800F01000002834
:1037B0005FD094F85C1020208840A86094F8350011
:1037C000052828D12068006820F0160021680860CC
:1037D0002068406920F0800021684861206C08B9A9
:1037E000A06C28B12068006820F0080021680860FB
:1037F00094F85C103F208840A860012084F83500D0
:1038000000BF002084F8340000BF206D10B12046B6
:10381000216D8847F8BD2068006800F4802080B1E1
:103820002068006800F4002028B9606C10B12046C0
:10383000616C88471DE0E06BD8B12046E16B88479A
:1038400017E02068006800F4807068B9206800689C
:1038500020F0100021680860012084F8350000BFC6
:10386000002084F8340000BFE06B10B12046E16B0B
:103870008847606D38B3606D00F00100F0B105203D
:1038800084F835002068006820F001002168086095
:1038900000BF0098401C0090B84200D905E02068A5
:1038A000006800F001000028F3D100BF012084F877
:1038B000350000BF002084F8340000BFE06C10B178
:1038C0002046E16C884700BFA4E7000050C30120F8
:1038D0002DE9F0410446002500F054FA074614B9DA
:1038E0000120BDE8F081606A00B100BF022084F8C9
:1038F000350000BF002084F8340000BF2068006855
:1039000020F00100216808600AE000F03BFAC01BCB
:10391000052805D920206065032084F83500E0E7FC
:103920002068006800F001000028EED120680568DA
:1039300021480540D4E901010843E16808432169B1
:10394000084361690843A1690843E1690843216AA2
:1039500008430543606A042803D1D4E90B010843F6
:103960000543206805602068456925F00705606A01
:103970000543606A04280DD1A06A0543E06A48B196
:103980002046FDF7BDFA28B140206065012084F88B
:103990003500A6E7206845612046FDF797FA064600
:1039A00094F85C103F208840B060002060650120E2
:1039B00084F83500002094E73F8010F02DE9F047AF
:1039C00004460D4616461F464FF00008D4F858909E
:1039D00000BF94F83400012802D10220BDE8F0872E
:1039E000012084F8340000BF94F83500012825D167
:1039F000022084F83500002060653B4632462946A7
:103A00002046FDF7D2FA94F85C103F208840C9F8B0
:103A100008002068006840F0160021680860206CEB
:103A200028B12068006840F008002168086020681C
:103A3000006840F001002168086006E000BF002037
:103A400084F8340000BF4FF002084046C6E700008B
:103A500070B5044600F096F906462546681C10B17C
:103A600004480078054400BF00F08CF9801BA84290
:103A7000FAD370BD4CC3012070B5044600F082F942
:103A800005462A480068281A642800D270BD2748D5
:103A90000560B4F5005F12D125480078401C244928
:103AA000087008460078032801D1002008702048DB
:103AB0000078022837D100201E49086033E0042C2A
:103AC00020D100201C4908701C480078401C1B496C
:103AD0000870084600780A2801DD002008700020E0
:103AE00003E00021164A1154401C0A28F9DB00208B
:103AF00003E05A21124A1154401C104909788842A7
:103B0000F7DB10E0102C03D101200B4908700AE00C
:103B1000082C03D102200849087004E0202C02D1AF
:103B200003200549087000BFB0E700003CC0012039
:103B300044C001204CC0012051C0012050C00120D0
:103B4000E0C2012010B5044604480068204020B1BE
:103B5000024804602046FFF78FFF10BD143C01406F
:103B6000F8B502460B460025002400200021D6E0CF
:103B7000012606FA01F51E6806EA0504AC4274D176
:103B80001E7906F00306012E04D01E7906F0030606
:103B9000022E13D190684F000326BE40B0434F0061
:103BA000DE68BE4030439060506801268E40B043CE
:103BB0001E79C6F300168E40304350601E7906F021
:103BC0000306032E09D0D0684F000326BE40B04341
:103BD0004F009E68BE403043D0601E7906F0030659
:103BE000022E13D1CF0802F1200656F827004E0707
:103BF000F70E0F26BE40B0434F07FF0E1E69BE40B2
:103C00003043CF0802F1200646F8270010684F0025
:103C10000326BE40B0431E7906F003064F00BE40A7
:103C2000304310605E6806F44036002E76D000BF48
:103C3000002600963C4E366846F480463A4F3E6079
:103C40003E46366806F48046009600BF00BF374EF9
:103C50008F0856F827008E07370F0F26BE40B04357
:103C6000334EB24202D1002624E057E0314EB24238
:103C700001D101261EE0304EB24201D1022619E0E8
:103C80002E4EB24201D1032614E02D4EB24201D194
:103C900004260FE02B4EB24201D105260AE02A4E3F
:103CA000B24201D1062605E0284EB24201D10726D4
:103CB00000E008268F073F0FBE4030431B4E8F08A1
:103CC00046F82700224E3068A0435E6806F480164E
:103CD00006B120431E4E3060361D3068A0435E683A
:103CE00006F4001606B12043194E361D3060184EFA
:103CF000361F3068A0435E6806F4003606B12043E4
:103D0000134E361F3060361F3068A0435E6806F4DD
:103D1000803606B120430E4E083E3060491C102903
:103D2000FFF426AFF8BD00004438024008380140D7
:103D3000000002400004024000080240000C024063
:103D4000001002400014024000180240001C024013
:103D5000083C0140024613690B400BB1012000E012
:103D60000020704710B5426921EA020302EA01040B
:103D700043EA0443836110BD0AB1816101E00B0491
:103D800083617047014800687047000044C3012008
:103D900070B504460CB9012070BD94F83D0028B9F7
:103DA000002084F83C00204600F0DAF8242084F853
:103DB0003D002068006820F001002168086020684C
:103DC000006840F40040216808602068006820F422
:103DD00000402168086000F005FB05465C4960680A
:103DE000884206D85B48854201D2012007E00020C6
:103DF00005E05948854201D2012000E00020012859
:103E000000D1C9E75548B5FBF0F62068406820F0BE
:103E10003F003043216848604D496068884201D8BE
:103E2000701C07E04FF4967070434FF47A71B0FB4A
:103E3000F1F0401C2168096A21F03F010843216824
:103E4000086243496068884214D8681E6168490066
:103E5000B0FBF1F0401CC0F30B00042801D2042099
:103E60003DE0681E61684900B0FBF1F0401CC0F302
:103E70000B0034E0A06838B9681E616801EB4101AD
:103E8000B0FBF1F0401C0AE0681E616801EBC10262
:103E900002EB0111B0FBF1F0401C40F48040C0F394
:103EA0000B0008B901201AE0A06848B9681E6168D3
:103EB00001EB4101B0FBF1F0401CC0F30B000CE042
:103EC000681E616801EBC10202EB0111B0FBF1F069
:103ED000401CC0F30B0040F4804040F400402168D7
:103EE000C9694CF6FF72914308432168C861D4E95F
:103EF000070108432168096821F0C00108432168CF
:103F00000860D4E9031008432168896848F2FF3249
:103F10009143084321688860D4E90501084321687A
:103F2000C96821F0FF0108432168C8602068006863
:103F300040F001002168086000202064202084F8FF
:103F40003D000020206384F83E0000BF24E700000D
:103F5000A086010080841E0000093D0040420F0041
:103F600010B586B00446142101A8FCF7BEFC1B491D
:103F7000206888422FD100BF0020009018480068B8
:103F800040F00200164908600846006800F0020090
:103F9000009000BF00BFC0200190122002900020BE
:103FA0000390032004900420059001A90D48FFF719
:103FB000D7FD00BF0020009009481030006840F491
:103FC00000100749103108600846006800F400102E
:103FD000009000BF00BF06B010BD000000540040BC
:103FE0003038024000040240034800680349097861
:103FF000084401490860704744C301204CC30120B4
:1040000010B50D48006840F400700B490860084680
:10401000006840F4806008600846006840F48070E2
:104020000860032000F0E0F80F2000F007F800F02F
:104030005FF8002010BD0000003C02402DE9F04177
:1040400088B004460027B84600BF002001902348EE
:10405000006840F02000214908600846006800F030
:104060002000019000BF00BF02A903A800F092F950
:10407000069F1FB900F0B6F9054602E000F0B2F95C
:1040800045001748B5FBF0F0A0F1010815481649A6
:10409000086040F2E7311448C160C0F80480002194
:1040A00001618160816101F037FA064696B90E48D8
:1040B00001F00CFB06466EB9372000F043F8102CD7
:1040C00007D200222146372000F050F8074804604C
:1040D00000E00126304608B0BDE8F08140380240DB
:1040E00040420F000014004044E2012048C3012078
:1040F00008B500BF002000901148006840F48040DF
:104100000F4908600846006800F48040009000BF36
:1041100000BF00BF00200090081F006840F08050E2
:10412000091F08600846006800F08050009000BF3A
:1041300000BF00220F21901E00F018F808BD0000FB
:10414000443802400146084600280DDB00BF00BF8E
:1041500000F01F0301229A4043099B0003F1E02372
:10416000C3F8002100BF00BF00BF70472DE9F05F1A
:1041700080460D461646002704F090FB0746394658
:104180002A46334601F00700C0F1070ABAF1040FCE
:1041900002D94FF0040A01E0C0F1070AD14600F14C
:1041A000040ABAF1070F02D24FF0000A01E0A0F1B1
:1041B000030AD4464FF0010A0AFA09FAAAF1010AE1
:1041C0000AEA020A0AFA0CFA4FF0010B0BFA0CFB8E
:1041D000ABF1010B0BEA030B4AEA0B042146404604
:1041E00004F064FBBDE8F09F00BF00F00702064B3F
:1041F00019684FF6FF031940044B0B4343EA0221B1
:10420000014B196000BF70470CED00E00000FA059B
:1042100070B504460D460CB9012070BD58480068C1
:1042200000F00700A84209D255490D700846006801
:1042300000F00700A84201D00120EEE7207800F04E
:10424000020002281DD1207800F00400042805D1C6
:104250004C48006840F4E0504A490860207800F07B
:104260000800082805D14748006840F460404549E7
:1042700008604448006820F0F000A1680843414904
:104280000860207800F00100A8B36068012807D119
:104290003C4808380068C0F34040B8B90120BCE78A
:1042A0006068022802D06068032807D135480838C2
:1042B0000068C0F3406048B90120AEE731480838D3
:1042C0000068C0F3400008B90120A6E72D48006847
:1042D00020F00300616808432A490860FFF752FD97
:1042E000064609E0FFF74EFD801B41F28831884207
:1042F00002D9032091E707E02248006800F00C0093
:104300006168B0EB810FEDD11D48006800F0070037
:10431000A84209D91A490D700846006800F0070044
:10432000A84201D0012078E7207800F0040004289A
:1043300007D11448006820F4E050E16808431149AF
:104340000860207800F00800082808D10D480068AF
:1043500020F46040216940EAC1000A49086000F089
:1043600061F808490968C1F30311074A515CC84064
:104370000649086006480068FFF760FE00204CE729
:10438000003C02400838024080F4000850C301207D
:1043900048C301200F2202600D4A126802F0030296
:1043A00042600B4A126802F0F0028260084A12680A
:1043B00002F4E052C260064A126802F46042D20877
:1043C0000261044A126802F007020A6070470000A6
:1043D00008380240003C0240014800687047000075
:1043E00050C3012000B5FFF7F7FF04490968C1F386
:1043F0008221034A515CC84000BD000008380240D9
:1044000090F4000800B5FFF7E7FF04490968C1F31D
:104410004231034A515CC84000BD000008380240E8
:1044200090F400082DE9F047002400250026A1465D
:104430002548006800F00C0020B1042805D00828A9
:104440003AD105E0DFF8849039E0DFF8849036E077
:104450001D48001F006800F03F041B48001F006853
:1044600000F4800078B11A481749091F0968C1F3A0
:104470008811A0FB01700146224600233846FBF755
:1044800097FF05460EE011480F49091F0968C1F35F
:104490008811A0FB01700146224600233846FBF735
:1044A00087FF05460848001F0068C0F30140401C14
:1044B0004600B5FBF6F902E0DFF8109000BF00BF40
:1044C0004846BDE8F0870000083802400024F400A8
:1044D00000127A00F8B504460CB90120F8BD207826
:1044E00000F00100002874D0F948006800F00C00CA
:1044F00004280DD0F648006800F00C00082813D1FD
:10450000F348001F006800F48000B0F5800F0BD165
:10451000EF4808380068C0F34040002859D0606870
:10452000002856D10120D9E700BF6068B0F5803F70
:1045300008D1E7480838006840F48030E449083979
:1045400008601EE06068B0F5A02F0DD1E048083883
:10455000006840F48020DE49083908600846006899
:1045600040F4803008600CE0D9480838006820F436
:104570008030D749083908600846006820F4802058
:10458000086000BF606890B1FFF7FCFB054606E0DD
:10459000FFF7F8FB401B642801D903209EE7CC48B5
:1045A00008380068C0F340400028F1D011E0FFF760
:1045B000E9FB054606E0FFF7E5FB401B642801D94F
:1045C00003208BE7C24808380068C0F34040002849
:1045D000F1D1207800F0020002285FD1BC480068C9
:1045E00000F00C0058B1BA48006800F00C00082830
:1045F0001CD1B748001F006800F48000B0B9B4486F
:1046000008380068C0F3400020B1E068012801D0FC
:10461000012063E7AE480838006820F0F8002169FF
:1046200040EAC100AA490839086037E0E06800B3F1
:104630000120A8490860FFF7A5FB054606E0FFF743
:10464000A1FB401B022801D9032047E7A0480838F6
:104650000068C0F340000028F1D09D480838006889
:1046600020F0F800216940EAC10099490839086042
:1046700014E0002097490860FFF784FB054606E038
:10468000FFF780FB401B022801D9032026E7904852
:1046900008380068C0F340000028F1D1207800F00D
:1046A000080008282CD16069A8B101208A49086057
:1046B000FFF768FB054606E0FFF764FB401B022896
:1046C00001D903200AE782486C300068C0F340003B
:1046D0000028F1D014E000207F490860FFF752FB6A
:1046E000054606E0FFF74EFB401B022801D90320D8
:1046F000F4E677486C300068C0F340000028F1D140
:10470000207800F00400042870D100277048383069
:10471000006800F0805090B900BF002000906C4805
:104720003830006840F080506949383108600846E8
:10473000006800F08050009000BF00BF012767486C
:10474000006800F48070B0B96448006840F480707C
:1047500062490860FFF716FB054606E0FFF712FB0B
:10476000401B022801D90320B8E65C48006800F429
:1047700080700028F2D000BFA068012808D15448FA
:104780006830006840F001005149683108601DE060
:10479000A06805280DD14E486830006840F004003C
:1047A0004B49683108600846006840F00100086025
:1047B0000CE047486830006820F001004449683147
:1047C00008600846006820F00400086000BFA06888
:1047D000A8B1FFF7D7FA054609E0FFF7D3FA401B67
:1047E00041F28831884202D9032077E626E0384832
:1047F00068300068C0F340000028EED013E0FFF7F7
:10480000C1FA054608E0FFF7BDFA401B41F28831C6
:10481000884201D9032061E62D4868300068C0F362
:1048200040000028EFD1012F07D129483830006817
:1048300020F0805026493831086000BFA069002868
:1048400045D02348006800F00C0008285DD0A0691E
:10485000022845D100201F490866FFF793FA054654
:1048600006E0FFF78FFA401B022801D9032035E646
:10487000174808380068C0F340600028F1D1D4E937
:1048800007010843616A40EA81110122A06AC2EB74
:10489000500041EA00412C20005D41EA00600C49D3
:1048A000091F086001200B490866FFF76BFA0546EF
:1048B00006E0FFF767FA401B022801D903200DE646
:1048C000034808380068C0F340600028F1D049E090
:1048D0000838024000004742800E47420070004006
:1048E000002021490866FFF74DFA054606E0FFF76C
:1048F00049FA401B022801D90320EFE51B48006854
:10490000C0F340600028F2D12CE0A069012800D15A
:10491000E4E51648001D0668A069012820D006F4C9
:104920008001E06981421BD106F03F01206A81428B
:1049300016D147F6C0703040616AB0EB811F0FD1CD
:1049400006F440310122A06AC2EB5000B1EB004FE7
:1049500006D106F070612C20005DB1EB006F01D034
:104960000120BBE50020B9E50000474200380240C5
:1049700010B50446FCF7E4F910BD704710B50246C7
:10498000506E800F0870506EC0F383604870506E98
:10499000C0F301608870506E000CC870B2F86400FB
:1049A000000A087192F864004871906E000DC8808A
:1049B000906EC0F3034008726820805AC0F3C03084
:1049C00048726820805AC0F3803088726820805A0C
:1049D000C0F34030C8726820805AC0F300300873BA
:1049E00000204873506C002836D16820805A80051A
:1049F000030DD06E43EA90700861D06EC0F3C260C0
:104A00000875D06EC0F302604875D06EC0F3425096
:104A10008875D06EC0F38240C875D06EC0F3C230C6
:104A200008760869401C50650B7E506D03F0070343
:104A30009B1C01249C4060435065087A00F00F03E2
:104A4000012098409065D2E915035B0A5843D06570
:104A50004FF40073136621E0506C012813D16820D5
:104A6000805C8006830AD06E43EA104008610869C2
:104A7000401C83025365536DD3654FF400739365F7
:104A8000936D13660AE02E4813689863906B40F0AC
:104A900080509063012082F8340010BD6C20805A51
:104AA000C0F3803001F8190F6C20805AC0F3C61093
:104AB00048706C20805C00F07F008870106FC00F21
:104AC000C870106FC0F341700871106FC0F382603E
:104AD0004871106FC0F383508871106FC0F340505D
:104AE000C87100200872106FC0F300404872702037
:104AF000805AC0F3C03088727020805AC0F3803072
:104B0000C8727020805AC0F3403008737020805AF9
:104B1000C0F3003048737020805AC0F3812088733E
:104B20007020805AC0F30120C8737020805CC0F3ED
:104B3000460008740120487419390020ADE70000D0
:104B4000FF0540000246506C0860906C4860D06CD5
:104B50008860106DC860506D0861906D4861D06DBF
:104B60008861106EC86100207047F8B504460020C7
:104B700000906946204602F0B2FE054615B1A06BD2
:104B80002843A0630098C0F343263046F8BD0000D8
:104B900070B50446256B2068406BC0F3C03030B15F
:104BA00005F0080018B1204602F074FEF8E0206815
:104BB000406BC0F30020002862D04FF48070216861
:104BC00088632068C06B4CF23A3188432168C8631F
:104BD0002068C06A20F001002168C86205F0080062
:104BE00038B305F0020010B905F0200050B120687C
:104BF00002F056FA06462EB1A06B3043A063204661
:104C0000FFF7BBFE40F23A5021688863012084F828
:104C100034000020206305F0010010B905F0020007
:104C200018B1204600F0A2FABAE0204600F0A3FA3C
:104C3000B6E005F080000028B8D005F0200050B1A3
:104C4000206802F02DFA06462EB1A06B3043A06317
:104C50002046FFF792FE05F001000028A6D105F0DE
:104C600002000028A2D12068C06A20F00800216854
:104C7000C862012084F83400204600F07CFA8FE0FE
:104C80002068406BC0F3803030B105F0080018B1E7
:104C9000204602F03CFE83E02068406B40F23A215F
:104CA000084008B1012000E00020002878D02068EA
:104CB000406BC0F3400018B1A06B40F00200A0634D
:104CC0002068406BC0F3C00018B1A06B40F0080032
:104CD000A0632068406BC0F3401018B1A06B40F097
:104CE0002000A0632068406BC0F3001018B1A06BD7
:104CF00040F01000A0632068406BC0F3402018B162
:104D0000A06B40F00800A06340F23A70216888630D
:104D10002068C06B40F23A3188432168C86320683C
:104D200002F0BEF9A16B0843A06305F0080040B192
:104D3000012084F83400002020632046FFF71DFE88
:104D40002EE005F0800000B305F0100010B905F06A
:104D5000200050B11348E16B0865E06BFEF781FC61
:104D600098B1E06B02F08BFC1AE005F0010010B97D
:104D700005F0020050B10C48216C0865206CFEF76C
:104D800070FC10B1206C02F04DFC09E00020A06323
:104D9000012084F83400002020632046FFF7E8FD5E
:104DA00070BD00007F7600082576000810B5044627
:104DB0000CB9012010BD94F8340020B900202077F0
:104DC000204600F065F8032084F83400204600F007
:104DD0000BF808B10120EDE70020A063206301205B
:104DE00084F834000020E5E730B589B0044600209F
:104DF000039004900590069007907620089006A8EE
:104E000007C88DE80700206803A90EC901F0C4FF98
:104E100000201D490860206801F0D8FF01201A49D0
:104E2000A039C1F8A0000220FEF712FE204602F0D1
:104E3000CBFC054645B1012084F83400A06B284323
:104E4000A063012009B030BD204602F03CFC0546BD
:104E50003DB1012084F83400A06B2843A0630120F9
:104E6000F0E74FF40071206802F00EF805464DB1EE
:104E7000064821688863A06B2843A063012084F85A
:104E80003400DFE70020DDE7A0802542FF05400079
:104E900010B586B00446142101A8FBF726FD584939
:104EA000206888427ED100BF0020009055480068ED
:104EB00040F40060534908600846006800F4006050
:104EC000009000BF00BF00BF002000904D48143884
:104ED000006840F004004B49143908600846006837
:104EE00000F00400009000BF00BF00BF0020009051
:104EF0000846006840F0080008600846006800F0B6
:104F00000800009000BF00BF4FF4885001900220BD
:104F1000029000200390032004900C20059001A92A
:104F20003948FEF71DFE0420019002200290002067
:104F30000390032004900C20059001A93348FEF74C
:104F40000FFE3348334908604FF00060486000218D
:104F500030488160C1604FF4806101618900416126
:104F6000890081612021C161002101620421416227
:104F7000032181624FF40001C16289100163FEF7D1
:104F8000A7FC08B1FDF7ACF900BF22482064846398
:104F900000BF1F484830204908604FF0006048605B
:104FA000402100E029E01C4881600021C1604FF4ED
:104FB0008061016189004161890081612021C161B5
:104FC0000021016204214162032181624FF400014A
:104FD000C16289100163FEF77BFC08B1FDF780F91F
:104FE00000BF0D48E063846300BF0022052131202B
:104FF000FFF7BCF83120FFF7A5F806B010BD0000A0
:10500000002C01404438024000080240000C0240DD
:10501000586402407CDF0120DCDF01202DE9F043F1
:1050200087B004460F4691461D46C8463FB9A06B5F
:1050300040F00060A063012007B0BDE8F08394F861
:10504000340001287ED10020A06308EB0501E06D4B
:10505000814205D9A06B40F00070A0630120EBE70E
:10506000032084F8340000202168C8622068C06BE7
:1050700040F22A3108432168C8633848216CC8636C
:105080003748216CC8640020216C08650021206C21
:105090008160206C0068006820F0C000216C896885
:1050A0000843216C096808606A029308226802F1CB
:1050B00080013A46206CFEF781FC80B12068C06B0D
:1050C00020F495702168C863264821688863A06B26
:1050D00040F08040A063012084F83400ACE7012058
:1050E00021490860606C012801D04FEA48284FF040
:1050F000FF300190680202909020039002200490FB
:10510000002005900120069001A9206801F016FEFC
:10511000012D07D9822020634146206801F000FF5D
:10512000064606E0812020634146206801F014FF16
:10513000064676B10B4821688863A06B3043A063B4
:10514000012000E007E084F8340000202063012003
:1051500072E7002070E702206EE70000DD750008AE
:1051600069750008FF0540008C85254210B504468E
:10517000FBF728FE10BD10B50446FBF741FE10BD3D
:105180002DE9F04387B00446884691461D464F46B8
:10519000B8F1000F07D1A06B40F00060A0630120C0
:1051A00007B0BDE8F08394F83400012874D10020E2
:1051B000A0637919E06D814205D9A06B40F00070C1
:1051C000A0630120ECE7032084F83400002021686C
:1051D000C8622068C06B40F21A2108432168C86386
:1051E0003848E16BC8633848E16BC8640020E16B64
:1051F0000865606C012800D07F02012D07D9A0202E
:1052000020633946206801F069FF064606E09020D9
:1052100020633946206801F07DFF064666B12B48C1
:1052200021688863A06B3043A063012084F83400B8
:10523000002020630120B3E70120254908604021B8
:10524000E06B8160E06B0068006820F0C000E16BFB
:1052500089680843E16B0968086069028B08216866
:1052600001F180024146E06BFEF7A8FBA8B120687F
:10527000C06B40F21A2188432168C8631348216833
:105280008863A06B40F08040A063012084F8340064
:1052900000202063012083E711E04FF0FF300190F0
:1052A0006802029090200390002004900590012055
:1052B000069001A9206801F041FD002070E702205E
:1052C0006EE700006D76000869750008FF05400074
:1052D0008C85254210B504460CB9012010BD606ACA
:1052E00038B96068B0F5827F00D105E00021E16146
:1052F00002E00021216161610021A16294F8510066
:1053000028B9002084F85000204600F047F8022019
:1053100084F851002068006820F04000216808608F
:10532000A08800F48270218901F404410843A18916
:1053300001F400610843217C01F002010843217D52
:1053400001F001010843218B01F400710843217F22
:1053500001F0380108432021095D01F08001084374
:10536000218D01F400510843216808600421A069DF
:1053700001EA104094F8241001F01001084321685C
:1053800048602068C06920F400602168C86100207E
:105390006065012084F8510000209FE710B586B0B9
:1053A0000446142101A8FBF7A0FA29492068884285
:1053B0004CD100BF002000902648006840F4805087
:1053C000244908600846006800F48050009000BF3F
:1053D00000BF00BF002000901E481438006840F055
:1053E00001001C49143908600846006800F00100FB
:1053F000009000BF00BF00BF00200090084600687A
:1054000040F0020008600846006800F002000090CA
:1054100000BF00BFC0200190022002900020039036
:10542000032004900520059001A90B48FEF798FB86
:105430000820019002200290002003900320049095
:105440000520059001A90548FEF78AFB06B010BDAE
:105450000030014044380240000002400004024095
:105460007047704730B502460B4600BF92F83C00CB
:10547000012801D1022030BD012082F83C0000BF8C
:10548000022082F83D00106844681068816824F0AA
:1054900070041868044310684460184D1068A842EE
:1054A0001BD01068B0F1804F17D0154D1068A8427E
:1054B00013D0144D1068A8420FD0134D1068A842A5
:1054C0000BD0124D1068A84207D0114D1068A842A9
:1054D00003D0104D1068A84205D121F08001586812
:1054E000014310688160012082F83D0000BF002068
:1054F00082F83C0000BF00BFBDE700000000014093
:105500000004004000080040000C0040000401407E
:10551000004001400018004010B504460CB90120BD
:1055200010BD94F83D0028B9002084F83C002046C6
:1055300000F026F8022084F83D00211D206802F0CA
:1055400015FD012084F8460000BF84F83E000121CB
:105550003F200155402001554120015500BF00BFAB
:10556000012084F842004320015544200155452084
:10557000015500BF012084F83D000020D0E7000065
:1055800038B5044626492068884218D100BF00205B
:1055900000902448006840F0020022490860084654
:1055A000006800F00200009000BF00BF002205214B
:1055B0001D20FEF7DBFD1D20FEF7C4FD2FE01A497C
:1055C000206888420FD100BF002000901548006875
:1055D00040F01000134908600846006800F0100011
:1055E000009000BF1BE011492068884217D100BF1E
:1055F000002000900B48006840F480700949086062
:105600000846006800F48070009000BF00BF0022D0
:1056100005212D20FEF7AAFD2D20FEF793FD38BDB4
:1056200000040040403802400010004000200040CC
:10563000014691F83D00012801D001207047022069
:1056400081F83D001A4B086898421BD00868B0F1F9
:10565000804F17D0174B0868984213D0164B086834
:1056600098420FD0154B086898420BD0144B08682D
:10567000984207D0134B0868984203D0124B086831
:1056800098420CD10868806800F00702062A0CD006
:105690000868006840F001000B68186005E00868C1
:1056A000006840F001000B6818600020C6E70000A9
:1056B000000001400004004000080040000C0040D1
:1056C000000401400040014000180040014691F8EC
:1056D0003D00012801D001207047022081F83D00E3
:1056E0000868C06840F001000B68D8601A4B086871
:1056F00098421BD00868B0F1804F17D0174B08684C
:10570000984213D0164B086898420FD0154B086882
:1057100098420BD0144B0868984207D0134B086886
:10572000984203D0124B086898420CD108688068F0
:1057300000F00702062A0CD00868006840F001005B
:105740000B68186005E00868006840F001000B680D
:1057500018600020C0E70000000001400004004085
:1057600000080040000C00400004014000400140DF
:10577000001800402DE9F04104460D46002700BF07
:1057800094F83C00012802D10220BDE8F0810120FC
:1057900084F83C0000BF022084F83D002068866841
:1057A00026F0770626F47F46206886602868502811
:1057B00033D00CDC202850D004DC00284BD010283B
:1057C00051D149E0302849D040284CD139E06028F7
:1057D0002DD0702807D0B0F5805F03D0B0F5005F02
:1057E00041D10DE041E0D5E902136A68206802F07A
:1057F0003EFC2068866846F077062068866034E0C4
:10580000D5E902136A68206802F031FC20688068DC
:1058100040F480402168886027E0EA686968206871
:1058200002F016FD5021206802F02CFC1DE0EA6811
:105830006968206802F01FFD6021206802F022FCE8
:1058400013E0EA686968206802F002FD40212068E0
:1058500002F018FC09E000BF00BF00BF2968206803
:1058600002F010FC01E0012700BF00BF012084F816
:105870003D0000BF002084F83C0000BF384684E7AC
:105880002DE9F04104460D4614B90120BDE8F08130
:1058900094F83D0028B9002084F83C00204600F030
:1058A00053F8022084F83D002068806844F2070124
:1058B000884321688860211D206802F057FB20681A
:1058C000D0F80880206886692068076A286840EA5E
:1058D000080840F203308643A969A86840EA01201D
:1058E000064340F60C4086434FF2F0008643E969D8
:1058F000E86840EA0120064328690001296A40EA75
:105900000130064327F0220727F088076969686895
:1059100040EA011007432068C0F8088020688661CB
:1059200020680762012084F8460084F83E000121C7
:105930003F200155012084F84200432001550120F9
:1059400084F83D000020A1E710B586B0044614217C
:1059500001A8FAF7CAFF1F492068884237D100BF63
:10596000002000901C48006840F002001A490860BE
:105970000846006800F00200009000BF00BF00BFB2
:105980000020009014481438006840F004001249C8
:10599000143908600846006800F00400009000BF59
:1059A00000BFC0200190022002900120039000203F
:1059B00004900320059001A90848FEF7D1F80022C1
:1059C00005212D20FEF7D2FB2D20FEF7BBFB06B0F4
:1059D00010BD0000000401404438024000080240AD
:1059E0002DE9F04304460D4694F83E603F20075DE4
:1059F00094F84280432010F804906DB9012E02D132
:105A0000B8F1010F02D00120BDE8F083022084F834
:105A10003E0084F8420025E0042D0CD1012F02D174
:105A2000B9F1010F01D00120EEE702213F2001551D
:105A30004320015516E0012E07D1012F05D1B8F101
:105A4000010F02D1B9F1010F01D00120DCE70220E2
:105A500084F83E0002213F200155022084F84200D4
:105A60004320015515B1042D0CD105E00122002180
:105A7000206802F0EBFA10E001220421206802F015
:105A8000E5FA0AE001220021206802F0DFFA012293
:105A90000421206802F0DAFA00BF00BF2068006825
:105AA00040F00100216808600020ADE7704770B544
:105AB00004462068C5682068066906F002000228CE
:105AC00019D105F00200022815D1401F2168086194
:105AD000012020772068806900F0030018B120467B
