:020000040800F2
:1000000058D20020710300086D6300080D5B0008E2
:1000100069630008BD0D0008398A0008000000006F
:100020000000000000000000000000007D02000849
:10003000570F000800000000D9020008157B0008D7
:100040008B0300088B0300088B0300088B03000858
:100050008B0300088B0300088B0300088B03000848
:10006000650F00086F0F0008790F00088B03000868
:100070008B0300088B0300088B0300088B03000828
:10008000C10D0008D10D00088B0300088B03000888
:100090008B0300088B0300088B030008830F000804
:1000A0008B0300088B0300088B0300088B030008F8
:1000B0008B030008157C00088B0300088B030008E5
:1000C0008B0300088B0300088B0300088B030008D8
:1000D0008B0300088B0300088B0300088B030008C8
:1000E000590F00088B0300088B0300088B030008DE
:1000F0008B030008357C00088B0300088B03000885
:100100008B030008756800088B0300088B03000848
:100110008B0300088B0300088B030008257C000874
:100120008B0300088B0300088B030008E10D000817
:100130008B0300088B0300088B0300088B03000867
:100140008B0300088B0300088B0300088B03000857
:100150008B030008F10D00088B0300088B030008D7
:100160008B0300088B0300088B0300088B03000837
:100170008B0300088B0300088B03000800000000BD
:100180008B0300088B03000800F002F800F066F80B
:100190000AA090E8000C82448344AAF10107DA45E2
:1001A00001D100F05BF8AFF2090EBAE80F0013F0CE
:1001B000010F18BFFB1A43F001031847C4D7000012
:1001C000E4D700000A444FF0000C10F8013B13F094
:1001D000070408BF10F8014B1D1108BF10F8015BA0
:1001E000641E05D010F8016B641E01F8016BF9D193
:1001F00013F0080F1EBF10F8014BAD1C0C1B09D1EA
:100200006D1E58BF01F801CBFAD505E014F8016B5B
:1002100001F8016B6D1EF9D59142D6D370470000ED
:100220000023002400250026103A28BF78C1FBD8FF
:10023000520728BF30C148BF0B607047642900F0E7
:10024000BB81732900F03184002070471FB50DF089
:1002500079F800F002FA1FBD10B510BD00F088FC5F
:100260001146FFF7F3FF0AF0D9F900F0A6FC03B43A
:10027000FFF7F2FF03BC00F0ADFC00002C4B196847
:100280000868B0E8F04F80F30988BFF36F8F4FF034
:10029000000080F3118870470000000008480068E3
:1002A000006880F308884FF0000080F3148862B67D
:1002B00061B6BFF34F8FBFF36F8F00DF00BF00BF8A
:1002C00008ED00E0DFF80C00016841F47001016006
:1002D000704700BF88ED00E0EFF30980BFF36F8F38
:1002E000134B1A681EF0100F08BF20ED108A20E98A
:1002F000F04F106009B44FF0500080F31188BFF345
:100300004F8FBFF36F8F0BF059FC4FF0000080F35D
:10031000118809BC19680868B0E8F04F1EF0100F8A
:1003200008BFB0EC108A80F30988BFF36F8F704765
:100330006C030020EFF30580704700000B49D1F8F3
:1003400000C04A685CF8043B1068184442F8040B8B
:100350008C4528BFA1F1DC0C8A4228BFA1F1DC0248
:10036000C1F800C04A6020F000407047F0CB002088
:100370000948804709480047FEE7FEE7FEE7FEE739
:10038000FEE7FEE7FEE7FEE7FEE7FEE70448054975
:10039000054A064B70470000017C000889010008EF
:1003A00058CC002058D2002058CE002058CE002033
:1003B00053EA020C00F069802DE9F04B4FF0000683
:1003C000002B1FBFB3FA83F503FA05F424FA05F6F0
:1003D0005E4012BF1643B2FA82F502FA05F4C5F187
:1003E00020051EBF22FA05FC44EA0C04203556EA1B
:1003F000044C4FEA144418BF641C4FF000084FF03F
:100400000009904271EB030C39D3002919BFB1FAEE
:1004100081F701FA07F6B0FA80F700FA07F6C7F19C
:1004200020071EBF20FA07FC46EA0C062037B6FB61
:10043000F4FCA7EB0507103F07F01F0BCBF12006DC
:100440000CFA0BFB2CFA06F644BFB3460026202F0D
:10045000A4BF5E464FF0000B5BEA060C08BF4FF0EE
:10046000010B19EB0B09ABFB027C48EB0608C01B28
:1004700006FB02CC0BFB03CC71EB0C01C1E70B4676
:10048000024641464846BDE8F08B13B54FF00000E8
:100490004FF00001AFF30080BDE81C407047000042
:1004A0000FB41CB5074B06AA7B446946009005981B
:1004B00000F0C9FA0020694600F0D8FA1CBC5DF8CB
:1004C00014FB0000C10500000FB41CB50C0007AA06
:1004D000009001D02044401E074B7B4469460190A8
:1004E000069800F0B0FA002C03D06946002000F016
:1004F000BDFA1CBC5DF814FB990500002DE9F04124
:100500000E460446002020622046E168884730B34A
:10051000252805D0D4E901219047206A401CF2E744
:10052000E168204600278847050018D0A5F1410062
:10053000192802D820354FF4006732462946204654
:100540002760FFF77BFE40B1012804D0F61D26F09E
:1005500007060836D8E7361DD6E72846DAE7206AC8
:10056000BDE8F08170B50C460546012A05D0287813
:10057000800600D5EA69002302E0012305E05B1C48
:10058000934202D2E05C0028F9D1A869E618C01AAB
:10059000A861286A184428622846AFF3008004E066
:1005A000D5E9012114F8010B9047B442F8D328464D
:1005B000AFF3008070BD00002DE9F0410646002435
:1005C00010687529314616A510D0AFF300800028B9
:1005D00002DA404213A507E031688A0701D512A567
:1005E00002E0490704D511A5012401E0AFF3008022
:1005F00000210A2206F1240709E0B0FBF2FCB0FB5F
:10060000F2F302FB1C00303078541846491C0028D5
:10061000F3D123462A463046BDE8F04100F0B5B993
:10062000000000002D0000002B0000002000000052
:100630000B4910B5A1F17C020A4CC2E937123721EF
:1006400006E000EB104342F82130074B00FB03406B
:100650000B1EA1F10101F4DC10BD0120E8E7000050
:1006600090CB0020E119D666CD0D010030B50546CE
:100670000B462A4613F8014B12F8010B08B1A042B1
:10068000F8D01CB1002802D06D1CF1E7284630BD1F
:1006900040EA0103024630B59B0710D14FF0013408
:1006A00000E008C208C91D1B9D4315EAC41FF8D00D
:1006B00013F0FF0102F8011B0DD01B0AF8E711F837
:1006C000013B002B02F8013B05D011F8013B002B48
:1006D00002F8013BF3D130BD40EA010370B59B073E
:1006E0002ED14FF00136042A2AD308C810C99D1B09
:1006F0009D43121F15EAC61517D0D8B2E1B2401AB1
:1007000050EA056110D198B2A1B2401A50EA0541F1
:100710000AD123F07F4024F07F41401A50EA05219E
:1007200002D1180EA0EB146070BDA342DBD018BA42
:1007300021BA884201D9012070BD4FF0FF3070BD51
:100740000AB9002070BD10F8013B11F8014B63B1EC
:10075000A3420AD1521E08D010F8013B11F8014BF8
:100760001BB1A34201D1521EEDD1181B70BD032A4B
:1007700040F2308010F0030C00F0158011F8013BBE
:10078000BCF1020F624498BF11F801CB00F8013BA5
:1007900038BF11F8013BA2F1040298BF00F801CB69
:1007A00038BF00F8013B11F0030300F06780083AFE
:1007B000C0F0088051F8043B083A51F804CBA0E897
:1007C0000810F5E7121D5CBF51F8043B40F8043BEC
:1007D000AFF30080D20724BF11F8013B11F801CB21
:1007E00048BF11F8012B24BF00F8013B00F801CBF2
:1007F00048BF00F8012B7047431A28BF9A427FF682
:10080000B6AF032A1044114440F2268010F0030FC3
:100810001EBF11F8013D521E00F8013D10F0030FFC
:100820007FF4F6AF11F0030300F05681083AC0F0F0
:100830000B8051F8043D083A51F804CD40F8043DCE
:1008400040F804CDFFF7F3BF121D5CBF51F8043D23
:1008500040F8043DAFF30080D20724BF11F8013DFA
:1008600011F801CD48BF11F8012C24BF00F8013D5B
:1008700000F801CD48BF00F8012C704710B5203AB0
:10088000C0F00B80B1E81850203AA0E81850B1E849
:100890001850A0E81850BFF4F5AF5FEA027C24BFFF
:1008A000B1E81850A0E8185044BF18C918C0BDE8F6
:1008B00010405FEA827C24BF51F8043B40F8043BBF
:1008C00008BF7047D20728BF31F8023B48BF11F874
:1008D000012B28BF20F8023B48BF00F8012B7047CE
:1008E0004FF0000200B5134694469646203922BFC9
:1008F000A0E80C50A0E80C50B1F12001BFF4F7AF14
:10090000090728BFA0E80C5048BF0CC05DF804EBF5
:10091000890028BF40F8042B08BF704748BF20F863
:10092000022B11F0804F18BF00F8012B704710B553
:10093000044610F0030F08BF11F0030F40F01580BC
:100940004FF0013E121FC0F20E8051F8043BA3EBA2
:100950000E0C2CEA030C1CEACE1C08BF40F8043B2A
:10096000F0D0A1F1040102F10402521E08DB11F8DB
:10097000013B002B00F8013BF7D1114600F0D6F8FF
:10098000204610BD7047704770472DE9F0470D466F
:1009900099469246044600F124080168880604D569
:1009A000E06921F01001216000E00120A84201DD92
:1009B000471B00E00027A1697A1902EB0900081A19
:1009C000A0612078C00602D42046AFF30080002644
:1009D00008E0D4E901211AF806009047206A401C7B
:1009E000761C20624E45F4DB2078C0060AD52046EE
:1009F000AFF3008006E0D4E9012130209047206A5F
:100A0000401C2062381EA7F10107F4DC07E0D4E99E
:100A1000012118F805009047206A401C2062281E1A
:100A2000A5F10105F3DC2046AFF300802078000635
:100A300002D50220BDE8F0870120FBE701694A1CCE
:100A400002610878704700B58FB0CDE9013100210F
:100A5000059105497944CDE9031011466846FFF731
:100A60004DFD0FB000BD0000E5FFFFFF0A6802F872
:100A7000010B0A607047D1E900239A4202D2531C4D
:100A80000B601070704710B5436913B1AFF300806D
:100A900001E0FFF767FD012010BD127800F124018D
:100AA0000A7000224A700122EDE711684FF0FF3210
:100AB000E9E7431A28BF9A427FF6E0AE104410F0EF
:100AC000030F11441EBF11F8013D521E00F8013DF5
:100AD00010F0030F7FF4F6AF103AC0F00A8010B5A3
:100AE00031E91850103A20E91850BFF4F9AFBDE8C9
:100AF0001040530724BF31E9081020E9081044BF13
:100B000051F8043D40F8043D12F0030F08BF704750
:100B1000D20728BF31F8023D48BF11F8012C28BF89
:100B200020F8023D48BF00F8012C70474FF000024A
:100B30000429C0F0128010F0030C3FF4D3AECCF1C6
:100B4000040CBCF1020F18BF00F8012BA8BF20F85D
:100B5000022BA1EB0C01FFF7C5BE5FEAC17C24BFED
:100B600000F8012B00F8012B48BF00F8012B70475B
:100B7000754600F02BF8AE4605006946534620F056
:100B80000700854618B020B5FFF700FCBDE82040FF
:100B90004FF000064FF000074FF000084FF0000B39
:100BA00021F00701AC46ACE8C009ACE8C009ACE8EC
:100BB000C009ACE8C0098D46704710B50446AFF3D4
:100BC00000802046BDE81040FFF751BB0048704749
:100BD000F8CB002001491820ABBEFEE7260002003A
:100BE0007047000008B500BF3948007800286BD076
:100BF0003848076838480068B84203D33648006868
:100C0000C61B04E034480068381AC0F58046B6F5C3
:100C1000005F55D24FF480542F480068C0F58045DE
:100C2000AC422BD92D4800682B4A126881186B46BC
:100C30002A462B4808F0C3FE80460098A84206D2F8
:100C4000012028490870002021490870CCE7621B68
:100C50006B4622480168224808F0B1FE8046601BBE
:100C60000099884206D901201E49087000201849C1
:100C70000870B9E7601B1849086020E01748006851
:100C8000154A126881186B462246154808F097FEEF
:100C900080460098A04206D2012012490870002028
:100CA0000B490870A0E70C48006820440A49086016
:100CB00008460068B0F5804F01D30020086000BFEF
:100CC000022009F06AFD02E0642009F066FD8BE76E
:100CD0003000002024000020280000201C000020FC
:100CE0000C460020B40200207047000010B50446F6
:100CF0002146024803F0B8FB10BD00002466002026
:100D000010B5044803F0C3FB042801D0012010BD36
:100D10000020FCE72466002010B5002400F00CF849
:100D2000012801D0012010BD024803F0D1FC044687
:100D30002046F8E72466002008B5012000909DF8C1
:100D4000000008BD2DE9F04104460D461646002777
:100D500033462A462146044803F0F2FD00B101273C
:100D60003846BDE8F08100002466002010B500225E
:100D700001210248006809F097FD10BD58030020CA
:100D80002DE9F04104460D461646002733462A4613
:100D90002146044803F086FE00B101273846BDE82D
:100DA000F08100002466002010B5002202210248D4
:100DB000006809F079FD10BD5803002000BFFEE770
:100DC00010B5024802F0F6F810BD000010650020D2
:100DD00010B5024802F0EEF810BD0000706500206A
:100DE00010B5024802F0E6F810BD0000A866002029
:100DF00010B5024802F0DEF810BD000008670020C0
:100E00000146087810381823B0FBF3F20848805CDC
:100E1000C865032A05D908686FF30900001D8865B5
:100E200003E008686FF309008865886D704700006B
:100E3000FCD30008014600208A6A8B69CBB932B125
:100E4000012A0DD0022A03D0032A10D10EE000BFE0
:100E5000CB6A03F08073B3F1807F00D1012007E0FB
:100E6000CB6AB3F1C07F00D1012001E000E000BFF8
:100E700034E08B69B3F5005F1AD132B1012A07D093
:100E8000022A03D0032A11D10AE000BF01200EE09C
:100E9000CB6A03F08073B3F1807F00D1012006E0BC
:100EA000CB6AB3F1C07F00D1012000E000BF15E0A4
:100EB00032B1012A05D0022A04D0032A0CD103E062
:100EC00000BF00BF012008E0CB6A03F08073B3F1DC
:100ED000807F00D1012000E000BF00BF704730B527
:100EE0000468246824F4802405682C600468636026
:100EF0008468402C04D10468A2600468E16003E0C7
:100F00000468A1600468E26030BD034600207047B9
:100F100010B50446002010BD10B50446002010BDD9
:100F200070B50646DDE904454FF0FF3070BD7047EF
:100F300000207047002070470020704701460020C5
:100F400070477047704770477047704770477047E9
:100F5000704770477047704710B54FF4005002F06B
:100F600083FA10BD10B5042002F07EFA10BD10B552
:100F7000082002F079FA10BD10B5102002F074FAC2
:100F800010BD10B5202002F06FFA10BD07E04FF43D
:100F90000061034802F078FB642002F0EBF9F6E709
:100FA0000004024030B504460D4600222946204682
:100FB00000F002F830BD0000F0B503460125002422
:100FC0001148407A01281CDA00200F4E767A0E4F25
:100FD000B8553846467A001D40F82630001F467A3C
:100FE000083082553E46707A461C7E72044604F1F3
:100FF000300008703A2048702F2088700020C87098
:1010000000252846F0BD0000D8690020BAB006F0DF
:101010001BFC002039902022F94931A8FFF72EFC53
:1010200000BF1822F64920312BA8FFF727FC00BF8C
:101030001422F349383126A8FFF720FC00BFF04AFC
:101040004C3207CA23AB07C300BF00202290219077
:10105000401E20901F9000201E9000BF00BF00BFC8
:10106000FFF765FF00BFE748007808B9FFF772FF98
:101070004FF40061E44802F007FBE4480068406A6E
:1010800080B21D90E24909881D98401A00B21C9058
:10109000DF491D9808803998062802D107F0E0FB47
:1010A0006DE03998072803D11C9807F07FF866E0B7
:1010B0003998082803D1002007F072F95FE03998C9
:1010C000092803D11C9807F02FFA58E039980A280C
:1010D00003D1002007F0F6FA51E039980E2817D115
:1010E0001C9800284BD0FFF723FF1C9908441A9046
:1010F0001A98002801DA00201A901A98B0F57A7F21
:1011000002DD4FF47A701A901A98FFF71CFF36E050
:1011100039980F2816D11C9888B3FFF70BFF1C993C
:1011200008441A901A98002801DA00201A901A9898
:10113000B0F57A7F02DD4FF47A701A901A98FFF7B3
:1011400003FF1CE03998102819D11C98B8B1FFF79B
:10115000F3FE1C9901EB810100EB41001A901A98F3
:101160000A2801DA0A201A901A98B0F57A7F02DD6F
:101170004FF47A701A901A98FFF7E7FE00BF39987B
:10118000022833D11C98A8B1A24909881C9801EB08
:1011900040001A901A98B0F5FA6F02DD4FF4FA6029
:1011A0001A901A98002801DA00201A9099491A9882
:1011B000088000BF98480078002816D006F06EFC22
:1011C000202296A19848FFF787FA30B9002039907D
:1011D0000620229000201E9001E0012039904FF05F
:1011E000FF30209000208C4908709FE03998042837
:1011F00040D18E4801681C9808448C490860084614
:1012000000681A90002801DB1A9801E01A98404201
:101210000428EADB85480068C117199000EB91703B
:1012200080101A90824801681A9808448049086022
:101230007E491A980968A1EB80007C4908607C48C7
:101240000068002802DA00207949086079480068BF
:10125000401F77490968884204DA76480068401FD1
:101260007349086072480068002802DA002070495B
:1012700008605BE039980E2858D039980F2855D06F
:101280003998102852D0694801681C980844674969
:101290000860084600681A90002801DB1A9801E0EF
:1012A0001A984042042841DB60480068C117189032
:1012B00000EB917080101A901A992298084422909D
:1012C0005A491A980968A1EB800058490860002023
:1012D0001990399810B9082019901AE03998012806
:1012E00002D03998032803D153480068199010E0C0
:1012F0003998052802D1062019900AE039980C285F
:1013000002D10520199004E039980D2801D103205D
:1013100019902298002801DA002022901999229829
:10132000884202DB1998401E229000BF3998082895
:1013300013D14248006880B90421414802F09CF969
:101340001A901A9828B93F480078012801D107F06F
:1013500027F83C491A98087000BF39980A2813D119
:101360003948006880B90421354802F085F91A909F
:101370001A9828B935480078012801D107F0A2F958
:1013800032491A98087000BF4FF40051304802F0FB
:1013900073F900281DD1142009F0FFF94FF4005112
:1013A0002B4802F069F90028F4D13998082811D1A6
:1013B0000520399000202290401E209002E00A2053
:1013C00009F0EBF94FF40051214802F055F90028DB
:1013D000F5D023E2399809283CD105203990002026
:1013E0002290401E209002E00A2009F0D6F94FF426
:1013F0000051174802F040F90028F5D00EE2000035
:10140000A4D30008310000200004024098680020A6
:101410002C03002000000020B402002077656C63DC
:101420006F6D652E77617600D04C00203003002070
:10143000C0020020BC020020B8020020FC020020F4
:101440000010024038030020100300203903002060
:101450000008024039980A2811D10520399000204F
:101460002290401E209002E00A2009F096F94FF4E5
:101470000051FE4802F000F90028F5D0CEE102E06C
:101480000A2009F08AF94FF40051F84802F0F4F804
:101490000028F5D0399800285ED1229858B9F4A0D8
:1014A00006F0FEF80120399000201E902290219035
:1014B000401E2090B2E1229801280BD1EEA006F048
:1014C000EFF8012039901E90002022902190401EBC
:1014D0002090A3E1229802280CD1E9A006F04AF955
:1014E0000320399002201E90002022902190401E5F
:1014F000209093E12298032805D10B2039904FF0DA
:10150000FF3020908AE12298042807D105203990E5
:10151000002022902190401E20907FE122980528F3
:1015200007D10C203990002022902190401E20905D
:1015300074E122980628A1D12022AFF22011D248CE
:10154000FFF7F5F9D1A005F053F8022039900120FA
:101550001E90801E209061E139980C2830D122988D
:1015600040B9002039900520229000202190401E93
:10157000209053E12298012807D10D2039900020B6
:1015800022902190401E209048E12298022805D107
:101590000E2039904FF0FF3020903FE12298032831
:1015A00005D10F2039904FF0FF30209036E122987E
:1015B00004288ED1102039904FF0FF3020902DE17B
:1015C00039980D2822D1229840B90C203990012059
:1015D000229000202190401E20901FE12298012897
:1015E00008D10020AE490860FFF7B0FC4FF0FF3093
:1015F000209013E12298022884D10120A849086094
:10160000FFF7A4FC4FF0FF30209007E139980E2837
:1016100008D10C2039900220229000202190401EF9
:101620002090FBE039980F2808D10C203990032036
:10163000229000202190401E2090EFE03998102841
:1016400008D10C2039900420229000202190401EC7
:101650002090E3E03998012820D1229830B9002069
:10166000399022902190401E2090D7E08D492298F9
:1016700001EB4010202201461A908348FFF757F9EA
:101680001E9818B9804804F011FF02E07E4804F06B
:10169000AFFF02203990C01E2090BFE03998032888
:1016A00014D1229830B90020399022902190401E08
:1016B0002090B3E07B49229801EB40101A9004F08F
:1016C00057FE04203990401F2090A7E03998052844
:1016D0004FD1229840B90020399004202290002058
:1016E0002190401E209099E02298012809D16EA0F7
:1016F00006F066F904F000FB06203990C01F209028
:101700008CE0229802280AD169A006F059F904F069
:10171000FFF9072039904FF0FF3020907EE02298AB
:1017200003280AD165A006F04BF904F02FFA08202F
:1017300039904FF0FF30209070E0229804280AD1B1
:1017400062A006F03DF904F05FFA092039904FF0ED
:10175000FF30209062E0229805285FD15DA006F05E
:101760002FF904F08BFA0A2039904FF0FF302090C7
:1017700054E03998022814D106F090F9202245A1AE
:101780004148FEF7A9FF30B9002039900620229089
:1017900000201E9001E0012039904FF0FF30209092
:1017A0003CE03998042804D103203990001F209090
:1017B00034E03998062806D105203990002022907F
:1017C000401E20902AE03998072806D1052039903C
:1017D00000202290401E209020E03998082809D14E
:1017E0003E480068D0B10520399000202290401E6C
:1017F000209013E03998092809D13948006868B168
:101800000520399000202290401E209006E0399853
:101810000B2803D100203990401E209000201B90FF
:10182000012030490860399804280CD12E480068FE
:101830002E490968884205D001201B902A4800687B
:101840002A49086079E020992298884271D11F992D
:10185000219888426DD1399802286AD03998062893
:1018600067D03998072864D0399841E000080240D1
:101870002F6D7573696300002F766964656F0000D2
:101880002F74657874000000D04C00202F7379739A
:1018900074656D2F77656C636F6D652E776176006B
:1018A00028030020504A0020534E414B45000000C1
:1018B000425245414B4F555400000000464C4150A8
:1018C00050592044524F49440000000052414349BE
:1018D0004E47000052554E54494E5900FC0200201C
:1018E0000803002034030020C00200203C03002035
:1018F00008281ED0399809281BD039980A2818D0F2
:1019000039980B2815D039980E2812D039980F28FD
:101910000FD0399810280CD0F848006801280CD155
:101920003998052805D039980C2802D039980D2807
:1019300003D101201B90F24908601B98002801F098
:1019400024803998022802D11E980128F7D000205F
:10195000EC4908603998062802D1EB480068B8B90C
:101960003998072802D1E948006888B939980828C9
:1019700002D1E748006858B93998092802D1E548EA
:10198000006828B939980A2843D1E3480068A8B309
:101990003998072807D1DD480068022803D1DFA065
:1019A00005F04AFE02E0DFA005F046FE3998062861
:1019B00006D1DF48DFA1026813A8FEF771FD24E01D
:1019C0003998072806D1DE48DAA1026813A8FEF785
:1019D00067FD1AE03998082806D1DA48D5A10268CF
:1019E00013A8FEF75DFD10E03998092807D1D64805
:1019F000D0A1026813A8FEF753FD06E009E0D34822
:101A0000CCA1026813A8FEF74BFD13A805F014FE45
:101A100052E0399870B1399805280BD039980128CF
:101A200008D03998032805D039980C2802D0399865
:101A30000D2841D100201A901990399820B908201A
:101A40001A9031A819901CE03998052804D1062075
:101A50001A902BA8199014E039980C2804D105206D
:101A60001A9026A819900CE039980D2804D103206B
:101A70001A9023A8199004E0B54800681A90B54858
:101A800019900020189012E0189921980844179096
:101A90001A991798884200DB0CE01799199850F8AA
:101AA0002100169005F0C8FD1898401C1890189851
:101AB0000628E9DB00BF00BFFFF739FA39980B2889
:101AC00076D10F20009040F6D86364221146019031
:101AD000A1A0FFF725FA0421A24801F0CDFD02469E
:101AE000A1A1129013A8FEF7DBFC0F2000904FF489
:101AF000486364221146019013A8FFF711FA1021E0
:101B0000984801F0B9FD02469AA1129013A8FEF779
:101B1000C7FC0F2000904FF42F6364221146019000
:101B200013A8FFF7FDF908218E4801F0A5FD024634
:101B300094A1129013A8FEF7B3FC0F2000904FF46D
:101B4000166364221146019013A8FFF7E9F92021DA
:101B5000844801F091FD02468EA1129013A8FEF771
:101B60009FFC0F2000904FF4FA636422114601900D
:101B700013A8FFF7D5F98B4890F900208AA113A884
:101B8000FEF78EFC0F2000904FF4AF6364221146E5
:101B9000019013A8FFF7C4F90A2000904FF448738E
:101BA00064221146019084A0FFF7BAF910E3FFE721
:101BB00039980E2830D10F21009140F6AC536422A1
:101BC0000191114681A0FFF7ABF9FFF7B1F9024689
:101BD00082A1129013A8FEF763FC0F20009040F63C
:101BE000C41364221146019013A8FFF799F90A2043
:101BF000009040F2DC536422114601907AA0FFF776
:101C00008FF90A2000904FF47A73642211460190F4
:101C100069A0FFF785F9C9E739980F282FD10090FF
:101C200040F6AC5364221146019075A0FFF778F995
:101C3000FFF780F9024676A1129013A8FEF730FC58
:101C40000F20009040F6C41364221146019013A89F
:101C5000FFF766F90A20009040F2DC536422114637
:101C6000019061A0FFF75CF90A2000904FF47A73AD
:101C700064221146019050A0FFF752F996E7399877
:101C800010283AD10F20009040F6AC536422114640
:101C9000019062A0FFF744F9FFF74EF9024663A1F5
:101CA000129013A8FEF7FCFB0F20009040F6C4131F
:101CB00064221146019013A8FFF732F90A20009020
:101CC0004FF4FA636422114601905CA0FFF728F9F3
:101CD0000A20009040F2DC5364221146019042A099
:101CE000FFF71EF90A2000904FF47A736422114620
:101CF000019031A0FFF714F958E7ABE0280300206A
:101D00003403002024030020D0020020E802002039
:101D1000FC0200200803002010030020594F55202A
:101D200057494E0047414D45204F5645520000004F
:101D3000D802002053434F52453A2025640000004A
:101D4000E0020020F8020020040300200C03002021
:101D5000B8020020504A0020444542554720494ED1
:101D60005055540000100240555028504532293A31
:101D700020256400444F574E28504534293A2025E9
:101D8000640000004C45465428504533293A20252C
:101D900064000000524947485428504535293A20EC
:101DA000256400001900002047414D452044495258
:101DB0003A202564000000005B50524553532045F3
:101DC0004E4320544F20455849545D004350552000
:101DD00044524157205350454544000044454C412E
:101DE000593A2025640000005B5455524E20454E60
:101DF0004320544F2041444A5553545D0000000095
:101E0000435055204A554D50204457454C4C0000F6
:101E10004457454C4C3A2025640000004452415739
:101E20002044454E534954590000000044454E5348
:101E30004954593A202564252500000028313030C6
:101E40003D4E4F524D2C203E3130303D534C4F577C
:101E500029000000399806287ED140F6FF731A4603
:101E600000210846FFF758F8CC201A900020169061
:101E700038E01A98129000EBD0704110FE4A169884
:101E800002EB400090F900201A9802FB0010159018
:101E90001A98129000EBD0704110F74A169802EB96
:101EA000400090F901201A9802FB001014901A9833
:101EB000129000EBD07040100A3813901398400035
:101EC0001290139840001190DDE91310401A109001
:101ED0001598401A0F9010A90EC9FFF71DF8169813
:101EE000401C1690E549169809688842C1DB1A988B
:101EF000169000EBD0704110E14890F900201A983C
:101F000002FB001019901A98169000EBD070411047
:101F1000DB4890F901201A9802FB001018901A98DB
:101F2000169000EBD070401014381790DDE91710B0
:101F3000084416901998084415901898401A14905F
:101F40001998401A139014A90EC9FEF7E1FFDDE9B4
:101F50001710401A169000E037E0199808441590C1
:101F60001898084414901998401A139014A90EC98F
:101F7000FEF7CEFFC348006830B30F20009040F654
:101F80009803002264210190AFF26820FEF7C8FF99
:101F90001690AFF27021169804F022FCBA48BBA14B
:101FA00002680EA8FEF77CFA0F2000904FF4C86379
:101FB0000022642101900EA8FEF7B2FF0D900EA939
:101FC0000D9804F00DFC00BFF0E53998072869D1A1
:101FD00040F6FF731A4600210846FEF79DFFC82011
:101FE0001A90AE4800686423DA0018901A99FEF738
:101FF00093FFAB4840681890A94800683C221790AE
:102000001899FEF782FF40F6B8301990002018901A
:1020100088E0002017907EE0A249189801EBC001EB
:102020001798085CE8B3179840021690189800EBD0
:102030004001C1EBC011199800EB410015904FF41D
:1020400000701490FA201390189838B11898401E18
:10205000944901EBC0011798085C48B91499169887
:10206000084412900246159B19461698FEF750FF39
:102070001898042807D08B491898401C01EBC00120
:102080001798085CA0B913991598084412901499F0
:102090001698084411901399159808441090014619
:1020A00001E035E095E0DDE911231698FEF730FFF9
:1020B000179838B17B49189801EBC0011798401E5A
:1020C000085C48B913991598084403461290DDE955
:1020D00015121046FEF71CFF1798072807D0714904
:1020E000189801EBC0011798401C085C78B9139947
:1020F000159808441290149916980844119016984F
:1021000008441090DDE911231599FEF701FF00BF87
:102110001798401C179017980828FFF67DAF18985D
:10212000401C189018980528FFF673AF5E480068A9
:10213000E8B35D480068022811D10F20009040F6F6
:102140009803002264210190AFF23040FEF7E8FED0
:102150000F90AFF238410F9804F042FB11E00F20CE
:10216000009040F69803002264210190AFF24C40A9
:10217000FEF7D6FE0F90AFF254410F9804F030FBFB
:1021800000BF4A4841A1026811A8FEF789F90F2053
:1021900000904FF4C86300226421019011A8FEF75B
:1021A000BFFE109011A9109804F01AFB10E0FFE791
:1021B0003F4840A1026815A8FEF772F90A20009076
:1021C00064231A461946019015A8FEF7A9FE00BF20
:1021D000C5E33998082875D140F6FF731A460021E7
:1021E0000846FEF799FE35480068502201461A90CD
:1021F0004FF47A70FEF789FE3048006896301A90E6
:102200002E4800683C3019904FF4667201464FF436
:1022100070701A9BFEF77CFE2848006896301A9072
:10222000264800683C3019904FF4876201464FF40D
:1022300082601A9BFEF76CFE00201A9061E0204934
:102240001A9801EB00108068A8B11A9801EB0010F1
:10225000006819901A9801EB0010406818904FF42C
:102260009670179040F226201690169918980844F8
:102270001590159827E041E0905C0020C4020020F2
:10228000C8020020D0020020D802002053434F5241
:10229000453A20256420202000000000DC020020B8
:1022A000805D0020585D0020E8020020E002002050
:1022B000E40200204C3A256400000000F0020020F7
:1022C000905D00205EE0B0F5805F09DA1598C0F5FA
:1022D000805003461390179A15991998FEF71CFE23
:1022E00016991898401A14901498002805DD0021BA
:1022F000149B179A1998FEF70FFE00BF1A98401CFE
:102300001A901A9803289ADBFE48006838B30F2009
:10231000009040F69803002264210190AFF2FC5037
:10232000FEF7FEFD1A90AFF204611A9804F058FA15
:10233000F548AFF2A801026812A8FEF7B1F80F2025
:1023400000904FF4C86300226421019012A8FEF7A8
:10235000E7FD119012A9119804F042FAFFE2EA4851
:10236000AFF2C451026817A8FEF79AF80F20009048
:1023700040F6D8634FF4FA626421019017A8FEF783
:10238000CFFDECE2399809287DD140F6FF731A465B
:1023900000210846FEF7C0FDDC4800684FF4FA73E0
:1023A0004FF49672C8211A90FEF7B6FDD748006820
:1023B000323896233222FA211A90FEF7ADFDD34827
:1023C000006800F5967096233222FA211A90FEF7E3
:1023D000A3FDCE4800683238962332224FF4FA71BA
:1023E0001A90FEF799FDC948006800F5967096238B
:1023F00032224FF4FA711A90FEF78EFD00201A90E7
:1024000055E0C3491A9801EB00108068E0B31A98B0
:1024100001EB0010406819901A9801EB0010006859
:102420004FF496731A4618901999FEF775FDB8493E
:102430001A9801EB0010406800F5967019901A98F0
:1024400001EB0010006800F5967018901A9801EBE7
:102450000010406817901A9801EB00100068169061
:1024600017A90EC9FEF754FDA9491A9801EB0010EF
:10247000406819901A9801EB0010006800F59670FA
:1024800018901A9801E053E00EE001EB001040684C
:1024900000F5967017901A9801EB001000681690DE
:1024A00017A90EC9FEF734FD1A98401C1A901A9805
:1024B0000528A6DB9748006838B30F20009040F647
:1024C0009803002264210190AFF2A870FEF728FD66
:1024D0001A90AFF2B0711A9804F082F98E48AFF2F8
:1024E0005421026812A8FDF7DBFF0F2000904FF483
:1024F000C86300226421019012A8FEF711FD11901B
:1025000012A9119804F06CF929E28348AFF27071B6
:10251000026817A8FDF7C4FF0F20009040F6AC53E7
:102520004FF4FA626421019017A8FEF7F9FC16E255
:1025300039980A287ED140F6FF731A4600210846D2
:10254000FEF7EAFC4FF4FA734FF48052194600206C
:10255000FEF7DEFC714800684FF49673C82201460E
:102560001A909000FEF7D8FC6C480068B0F5FA7F2E
:102570004DD101F099F8C821B0FBF1F201FB120036
:10258000642803D200206649086002E00120644903
:10259000086063480068E0B16048006832381A900B
:1025A0005E480068199040F25232014610461A9B6C
:1025B000FEF7AEFC5948006832381A905748006858
:1025C000199040F2B632014610461A9BFEF7A0FC65
:1025D0001DE05248006832381A905048006819903F
:1025E0004FF45C7201464FF44D701A9BFEF790FC5D
:1025F0004A48006832381A904848006819904FF4E9
:10260000667201464FF475701A9BFEF781FC00203C
:102610001A9018E01A9800EB4000424901EB800044
:10262000406868B11A9800EB400051F82000C823B8
:10263000962200E048E04FF4FA711990FEF76CFC26
:102640001A98401C1A901A980328E3DB3648006851
:1026500038B30F20009040F69803002264210190C7
:10266000AFF64010FEF75CFC1A90AFF648111A98CE
:1026700004F0B6F82D48AFF2EC31026812A8FDF76D
:102680000FFF0F2000904FF4C863002264210190D7
:1026900012A8FEF745FC119012A9119804F0A0F8B9
:1026A0005DE12248AFF60811026817A8FDF7F8FEB1
:1026B0000F20009040F6AC534FF4FA626421019071
:1026C00017A8FEF72DFC4AE13998022853D10F20B4
:1026D000009040F6AC5364221146019014A0FEF71E
:1026E0001FFC0F20009040F6B83364221146019081
:1026F0001248FEF715FC1248028812A117A8FDF730
:10270000CFFE23E0FC020020F8020020000300209E
:10271000C05D00200803002004030020105E00209C
:10272000400300201C5E0020100300200C0300204A
:10273000504C4159494E473A00000000D04C00200F
:1027400000000020564F4C3A202564000F200090D6
:102750004FF4FA6364221146019017A8FEF7E0FBDC
:102760000A2000904FF47A736422114601908DA0E4
:10277000FEF7D6FBF3E0399804282BD100201A90FD
:1027800024E08C4801681A98084419908A491998DD
:102790000968884200DB1CE01A9800EBC00101EBDD
:1027A000001040F6AC51A1EB401018901920009099
:1027B00082490190199851F8200017906422322123
:1027C000189BFEF7ADFB1A98401C1A901A98052822
:1027D000D7DBC4E000201A9019901890399820B9DE
:1027E00008201A9031A819901CE03998052804D1C6
:1027F00006201A902BA8199014E039980C2804D1BF
:1028000005201A9026A819900CE039980D2804D1BB
:1028100003201A9023A8199004E0694800681A90D0
:1028200068481890DDE92110884201DA2298219049
:10283000DDE92101801D814202DB2298401F2190A9
:102840000020179085E017992198084416901A994E
:102850001698884200DB80E0179800EB4001C1EB3E
:10286000C01040F6AC51A1EB800015901998B8B398
:102870001699199850F82100149039980C2811D104
:10288000169801280ED15048006808B14FA000E00A
:102890004FA002464FA1039004A8FDF701FE04A833
:1028A000149023E039980D2820D11698012809D1D9
:1028B0004548006830B94BA104A8FDF7F1FD04A814
:1028C000149013E01698022810D13F4800680128A0
:1028D0000CD146A104A8FDF7E3FD04A8149005E07F
:1028E000FFE71699189800EB41101490229916985A
:1028F00088421BD13F48006840B10F2000900190F2
:10290000642211463CA0159BFEF70AFB0F200090A5
:1029100001904FF4C8726421DDE91403FEF700FB57
:1029200003901499039803F05BFF0FE00F210091CF
:1029300001914FF4C8726421DDE91403FEF7F0FA47
:1029400003901499039803F04BFF00BF1798401CA5
:10295000179017980628FFF676AF00BF00BF39988A
:10296000042806D040F6FF731A4600210846FEF7F9
:10297000D3FA2298209021981F901B9818B91248DA
:102980000068012801D1FEF7DDFA0F480068012830
:1029900002D107F002FF02E00A2007F0FEFEFEF778
:1029A00062BB00005B505245535320544F20535498
:1029B0004F505D00C0020020BC020020F04C0020FF
:1029C000B8020020504A0020280300204350550040
:1029D000444D410044524157204D4F44453A202533
:1029E00073000000444D41205B585D00435055206A
:1029F0005B585D00340300203E00000070B50446C3
:102A00000CB9012070BD94F8200010B9204600F0E8
:102A1000AFF82068006840F001002168086000F00D
:102A200043FE05460DE000F03FFE401B0A2808D992
:102A3000606A40F400306062052084F820000120C4
:102A4000E0E72068406800F001000028EBD0206833
:102A5000006820F002002168086000F025FE0546AD
:102A60000DE000F021FE401B0A2808D9606A40F4FE
:102A700000306062052084F820000120C2E7206851
:102A8000406800F002000028EBD1207E012806D12A
:102A90002068006840F080002168086005E0206838
:102AA000006820F0800021680860607E012806D15F
:102AB0002068006840F040002168086005E0206858
:102AC000006820F0400021680860A07E012806D13F
:102AD0002068006840F020002168086005E0206858
:102AE000006820F0200021680860E07E012806D1FF
:102AF0002068006820F010002168086005E0206868
:102B0000006840F0100021680860207F012806D18D
:102B10002068006840F008002168086005E020682F
:102B2000006820F0080021680860607F012806D155
:102B30002068006840F004002168086005E0206813
:102B4000006820F0040021680860D4E9020108430D
:102B500021690843616908436168491E0843216887
:102B6000C86100206062012084F82000002049E74D
:102B700010B586B00446142101A8FDF7B1FE1B492B
:102B80002068884230D100BF0020009018480068BB
:102B900040F00070164908600846006800F00070B8
:102BA000009000BF00BF00BF002000901048103808
:102BB000006840F001000E491039086008460068BE
:102BC00000F00100009000BF00BF4FF4C050019022
:102BD0000220029000200390032004900920059019
:102BE00001A9044800F04EFC06B010BD006400408E
:102BF0004038024000000240F0B50346002603B111
:102C000009B90120F0BD00BF5879012801D1022087
:102C1000F8E70120587100BF022018711868046895
:102C200002F0100740F6FE70B8408443D1E9000777
:102C300040EA070502F0100005FA00F004431868A6
:102C400004601868006802F0100CC02707FA0CF73F
:102C5000B8431F6838600120187100BF0020587108
:102C600000BF3046CEE710B504460CB9012010BDB8
:102C7000207920B900206071204600F009F8022078
:102C8000207100202061012020710020EFE700006A
:102C900010B586B00446142101A8FDF721FE3B497A
:102CA0002068884270D100BF00200090384800683A
:102CB00040F00050364908600846006800F00050B7
:102CC000009000BF00BF00BF0020009030481038C7
:102CD000006840F001002E4910390860084600687D
:102CE00000F00100009000BF00BF302001900320E1
:102CF00002900020039001A9264800F0C3FB26485B
:102D0000264908604FF06060486040212348816098
:102D10000021C1604FF48061016149004161890077
:102D200081614911C161490201620021416200F0E3
:102D300061FA08B1FEF72AF900BF1848A060846361
:102D400000BF15481830164908604FF060604860B1
:102D50004021134881600021C1604FF4806101610E
:102D600049004161890081614911C16149020162E3
:102D70000021416200F03EFA08B1FEF707F900BFFA
:102D80000748E060846300BF06B010BD00740040D7
:102D90004038024000000240886002401065002078
:102DA0007065002038B50446002000900CB9012061
:102DB00038BD2068009029B902F10800009D284420
:102DC000009004E002F11400009D28440090009857
:102DD00003600020ECE710B502460AB9012010BDDF
:102DE00000BF5079012801D10220F8E7012050717D
:102DF00000BF022010711068006801F01004012368
:102E0000A34018431368186061B91068006800F0A7
:102E10003C003C2816D11068406840F0010013685F
:102E200058600FE01068006800F4701301F010049F
:102E30003C20A040834205D11068406840F0020069
:102E4000136858600120107100BF0020507100BF4E
:102E500000BFC4E710B502460AB9012010BD1068D2
:102E6000006801F010040123A34098431368186020
:102E7000012010710020F1E770B504460D460CB931
:102E8000012070BD2068006805F010024FF48051E9
:102E900091408843216808602068006805F01002AE
:102EA000012191408843216808604DB9A06800F075
:102EB00014F82068006820F400502168086008E0D9
:102EC000E06800F00AF82068006820F000502168EF
:102ED0000860012020710020D3E770B50446A56D7D
:102EE00000F0E2FB064694F83500022808D0802066
:102EF000606500BF002084F8340000BF012070BD71
:102F00002068006820F01600216808602068406989
:102F100020F0800021684861206C08B9A06C28B1BD
:102F20002068006820F008002168086020680068B8
:102F300020F001002168086010E000F0B5FB801B64
:102F400005280BD920206065032084F8350000BFD8
:102F5000002084F8340000BF0320D0E72068006818
:102F600000F001000028E8D194F85C103F20884070
:102F7000A860012084F8350000BF002084F83400E8
:102F800000BF00BFBBE7014691F83500022803D01F
:102F90008020486501207047052081F835000868C9
:102FA000006820F001000A6810600020F3E7014685
:102FB000486D7047F8B50446002000908C480068C2
:102FC0004FF41651B0FBF1F7A56D2E6894F85C1024
:102FD00008208840304098B12068006800F0040064
:102FE00070B12068006820F004002168086094F83F
:102FF0005C1008208840A860606D40F001006065AA
:1030000094F85C1001208840304068B12068406925
:1030100000F0800040B194F85C1001208840A86066
:10302000606D40F00200606594F85C1004208840F8
:10303000304068B12068006800F0020040B194F8A8
:103040005C1004208840A860606D40F0040060655A
:1030500094F85C1010208840304078B320680068F5
:1030600000F0080050B394F85C1010208840A8606D
:103070002068006800F4802080B12068006800F4B7
:10308000002028B9206CC8B12046216C884715E083
:10309000A06C98B12046A16C88470FE020680068BA
:1030A00000F4807028B92068006820F008002168CA
:1030B0000860206C10B12046216C884794F85C10A1
:1030C000202088403040002865D02068006800F04B
:1030D000100000285FD094F85C1020208840A86081
:1030E00094F83500052828D12068006820F01600E3
:1030F000216808602068406920F0800021684861EC
:10310000206C08B9A06C28B12068006820F0080085
:103110002168086094F85C103F208840A860012076
:1031200084F8350000BF002084F8340000BF206D13
:1031300010B12046216D8847F8BD2068006800F472
:10314000802080B12068006800F4002028B9606CFD
:1031500010B12046616C88471DE0E06BD8B1204675
:10316000E16B884717E02068006800F4807068B958
:103170002068006820F0100021680860012084F8B1
:10318000350000BF002084F8340000BFE06B10B1B0
:103190002046E16B8847606D38B3606D00F0010038
:1031A000F0B1052084F835002068006820F00100A7
:1031B0002168086000BF0098401C0090B84200D908
:1031C00005E02068006800F001000028F3D100BF8E
:1031D000012084F8350000BF002084F8340000BFCF
:1031E000E06C10B12046E16C884700BFA4E7000006
:1031F000500300202DE9F0410446002500F054FA68
:10320000074614B90120BDE8F081606A00B100BF33
:10321000022084F8350000BF002084F8340000BF8D
:103220002068006820F00100216808600AE000F0D2
:103230003BFAC01B052805D920206065032084F8CF
:103240003500E0E72068006800F001000028EED1BA
:103250002068056821480540D4E901010843E16878
:1032600008432169084361690843A1690843E1698A
:103270000843216A08430543606A042803D1D4E95E
:103280000B0108430543206805602068456925F067
:103290000705606A0543606A04280DD1A06A0543EA
:1032A000E06A48B12046FDF7C5FD28B140206065C1
:1032B000012084F83500A6E7206845612046FDF727
:1032C0009FFD064694F85C103F208840B0600020C7
:1032D0006065012084F83500002094E73F8010F0FD
:1032E0002DE9F04704460D4616461F464FF00008EC
:1032F000D4F8589000BF94F83400012802D102207D
:10330000BDE8F087012084F8340000BF94F8350050
:10331000012825D1022084F83500002060653B4655
:10332000324629462046FDF7DAFD94F85C103F202E
:103330008840C9F808002068006840F0160021683D
:103340000860206C28B12068006840F008002168FF
:1033500008602068006840F001002168086006E00D
:1033600000BF002084F8340000BF4FF00208404640
:10337000C6E7000070B5044600F096F906462546FB
:10338000681C10B104480078054400BF00F08CF9B7
:10339000801BA842FAD370BD4C03002070B50446D0
:1033A00000F082F905462A480068281A642800D2ED
:1033B00070BD27480560B4F5005F12D1254800783C
:1033C000401C2449087008460078032801D10020D9
:1033D000087020480078022837D100201E49086074
:1033E00033E0042C20D100201C4908701C480078D0
:1033F000401C1B490870084600780A2801DD00209F
:103400000870002003E00021164A1154401C0A28CD
:10341000F9DB002003E05A21124A1154401C1049E4
:1034200009788842F7DB10E0102C03D101200B490A
:1034300008700AE0082C03D102200849087004E053
:10344000202C02D103200549087000BFB0E700001E
:10345000040000200C0000201400002019000020AF
:1034600018000020A802002010B504460448006897
:10347000204020B1024804602046FFF78FFF10BDB6
:10348000143C0140F8B502460B46002500240020FC
:103490000021D6E0012606FA01F51E6806EA0504B9
:1034A000AC4274D11E7906F00306012E04D01E79B9
:1034B00006F00306022E13D190684F000326BE408B
:1034C000B0434F00DE68BE40304390605068012634
:1034D0008E40B0431E79C6F300168E4030435060D4
:1034E0001E7906F00306032E09D0D0684F0003268C
:1034F000BE40B0434F009E68BE403043D0601E794E
:1035000006F00306022E13D1CF0802F1200656F86A
:1035100027004E07F70E0F26BE40B0434F07FF0EA1
:103520001E69BE403043CF0802F1200646F827004E
:1035300010684F000326BE40B0431E7906F0030614
:103540004F00BE40304310605E6806F44036002EE7
:1035500076D000BF002600963C4E366846F4804682
:103560003A4F3E603E46366806F48046009600BFFD
:1035700000BF374E8F0856F827008E07370F0F26EB
:10358000BE40B043334EB24202D1002624E057E0A1
:10359000314EB24201D101261EE0304EB24201D17D
:1035A000022619E02E4EB24201D1032614E02D4E20
:1035B000B24201D104260FE02B4EB24201D10526C2
:1035C0000AE02A4EB24201D1062605E0284EB24258
:1035D00001D1072600E008268F073F0FBE40304389
:1035E0001B4E8F0846F82700224E3068A0435E68C5
:1035F00006F4801606B120431E4E3060361D30683A
:10360000A0435E6806F4001606B12043194E361D2D
:103610003060184E361F3068A0435E6806F40036EE
:1036200006B12043134E361F3060361F3068A0436A
:103630005E6806F4803606B120430E4E083E3060C8
:10364000491C1029FFF426AFF8BD000044380240A1
:103650000838014000000240000402400008024017
:10366000000C02400010024000140240001802400A
:10367000001C0240083C0140024613690B400BB19C
:10368000012000E00020704710B5426921EA0203E2
:1036900002EA010443EA0443836110BD0AB1816177
:1036A00001E00B0483617047014800687047000027
:1036B0004403002070B504460CB9012070BD94F895
:1036C0003D0028B9002084F83C00204600F0DAF8DC
:1036D000242084F83D002068006820F00100216863
:1036E00008602068006840F4004021680860206895
:1036F000006820F400402168086000F005FB0546E2
:103700005C496068884206D85B48854201D2012046
:1037100007E0002005E05948854201D2012000E081
:103720000020012800D1C9E75548B5FBF0F6206814
:10373000406820F03F003043216848604D49606890
:10374000884201D8701C07E04FF4967070434FF424
:103750007A71B0FBF1F0401C2168096A21F03F0149
:1037600008432168086243496068884214D8681E8B
:1037700061684900B0FBF1F0401CC0F30B00042865
:1037800001D204203DE0681E61684900B0FBF1F001
:10379000401CC0F30B0034E0A06838B9681E6168B3
:1037A00001EB4101B0FBF1F0401C0AE0681E6168CA
:1037B00001EBC10202EB0111B0FBF1F0401C40F43F
:1037C0008040C0F30B0008B901201AE0A06848B996
:1037D000681E616801EB4101B0FBF1F0401CC0F3D1
:1037E0000B000CE0681E616801EBC10202EB0111E5
:1037F000B0FBF1F0401CC0F30B0040F4804040F4FB
:1038000000402168C9694CF6FF7291430843216862
:10381000C861D4E9070108432168096821F0C001A3
:10382000084321680860D4E90310084321688968C7
:1038300048F2FF329143084321688860D4E90501CA
:1038400008432168C96821F0FF0108432168C86066
:103850002068006840F001002168086000202064B2
:10386000202084F83D000020206384F83E0000BF43
:1038700024E70000A086010080841E0000093D00AE
:1038800040420F0010B586B00446142101A8FDF790
:1038900027F81B49206888422FD100BF00200090E4
:1038A0001848006840F002001649086008460068A1
:1038B00000F00200009000BF00BFC0200190122065
:1038C000029000200390032004900420059001A999
:1038D0000D48FFF7D7FD00BF0020009009481030C9
:1038E000006840F40010074910310860084600687D
:1038F00000F40010009000BF00BF06B010BD000033
:103900000054004030380240000402400348006880
:1039100003490978084401490860704744030020BE
:103920004C03002010B50D48006840F400700B49AE
:1039300008600846006840F4806008600846006837
:1039400040F480700860032000F0E0F80F2000F0E1
:1039500007F800F05FF8002010BD0000003C0240B6
:103960002DE9F04188B004460027B84600BF00208A
:1039700001902348006840F0200021490860084673
:10398000006800F02000019000BF00BF02A903A85A
:1039900000F092F9069F1FB900F0B6F9054602E063
:1039A00000F0B2F945001748B5FBF0F0A0F10108AE
:1039B00015481649086040F2E7311448C160C0F864
:1039C0000480002101618160816101F037FA0646BF
:1039D00096B90E4801F00CFB06466EB9372000F090
:1039E00043F8102C07D200222146372000F050F86F
:1039F0000748046000E00126304608B0BDE8F081C9
:103A00004038024040420F0000140040706900201E
:103A10004803002008B500BF00200090114800684E
:103A200040F480400F4908600846006800F4804078
:103A3000009000BF00BF00BF00200090081F00687A
:103A400040F08050091F08600846006800F0805070
:103A5000009000BF00BF00220F21901E00F018F858
:103A600008BD0000443802400146084600280DDB2E
:103A700000BF00BF00F01F0301229A4043099B00D2
:103A800003F1E023C3F8002100BF00BF00BF70476F
:103A90002DE9F05F80460D461646002704F0CEFF64
:103AA000074639462A46334601F00700C0F1070AA7
:103AB000BAF1040F02D94FF0040A01E0C0F1070A7D
:103AC000D14600F1040ABAF1070F02D24FF0000A02
:103AD00001E0A0F1030AD4464FF0010A0AFA09FAFC
:103AE000AAF1010A0AEA020A0AFA0CFA4FF0010BDB
:103AF0000BFA0CFBABF1010B0BEA030B4AEA0B04CC
:103B00002146404604F0A2FFBDE8F09F00BF00F050
:103B10000702064B19684FF6FF031940044B0B438D
:103B200043EA0221014B196000BF70470CED00E031
:103B30000000FA0570B504460D460CB9012070BDB1
:103B40005848006800F00700A84209D255490D7096
:103B50000846006800F00700A84201D00120EEE707
:103B6000207800F0020002281DD1207800F0040027
:103B7000042805D14C48006840F4E0504A490860E8
:103B8000207800F00800082805D14748006840F474
:103B90006040454908604448006820F0F000A16892
:103BA000084341490860207800F00100A8B360682C
:103BB000012807D13C4808380068C0F34040B8B934
:103BC0000120BCE76068022802D06068032807D1A2
:103BD000354808380068C0F3406048B90120AEE7B6
:103BE000314808380068C0F3400008B90120A6E752
:103BF0002D48006820F00300616808432A490860E6
:103C0000FFF752FD064609E0FFF74EFD801B41F22B
:103C10008831884202D9032091E707E022480068F2
:103C200000F00C006168B0EB810FEDD11D48006819
:103C300000F00700A84209D91A490D70084600682B
:103C400000F00700A84201D0012078E7207800F0BA
:103C50000400042807D11448006820F4E050E1680B
:103C6000084311490860207800F00800082808D1AE
:103C70000D48006820F46040216940EAC1000A490B
:103C8000086000F061F808490968C1F30311074AA8
:103C9000515CC8400649086006480068FFF760FEAE
:103CA00000204CE7003C02400838024004D40008E1
:103CB00050030020480300200F2202600D4A1268C2
:103CC00002F0030242600B4A126802F0F0028260C6
:103CD000084A126802F4E052C260064A126802F40E
:103CE0006042D2080261044A126802F007020A60C8
:103CF0007047000008380240003C0240014800685C
:103D0000704700005003002000B5FFF7F7FF04499B
:103D10000968C1F38221034A515CC84000BD00001C
:103D20000838024014D4000800B5FFF7E7FF044943
:103D30000968C1F34231034A515CC84000BD00002C
:103D40000838024014D400082DE9F047002400256B
:103D50000026A1462548006800F00C0020B1042888
:103D600005D008283AD105E0DFF8849039E0DFF883
:103D7000849036E01D48001F006800F03F041B4897
:103D8000001F006800F4800078B11A481749091F25
:103D90000968C1F38811A0FB017001462246002387
:103DA0003846FCF705FB05460EE011480F49091F90
:103DB0000968C1F38811A0FB017001462246002367
:103DC0003846FCF7F5FA05460848001F0068C0F3BE
:103DD0000140401C4600B5FBF6F902E0DFF8109008
:103DE00000BF00BF4846BDE8F08700000838024029
:103DF0000024F40000127A00F8B504460CB9012042
:103E0000F8BD207800F00100002874D0F94800685F
:103E100000F00C0004280DD0F648006800F00C00FB
:103E2000082813D1F348001F006800F48000B0F5A3
:103E3000800F0BD1EF4808380068C0F340400028DD
:103E400059D06068002856D10120D9E700BF6068CA
:103E5000B0F5803F08D1E7480838006840F480306A
:103E6000E449083908601EE06068B0F5A02F0DD164
:103E7000E0480838006840F48020DE4908390860CE
:103E80000846006840F4803008600CE0D9480838E3
:103E9000006820F48030D749083908600846006877
:103EA00020F48020086000BF606890B1FFF7FCFB41
:103EB000054606E0FFF7F8FB401B642801D9032004
:103EC0009EE7CC4808380068C0F340400028F1D095
:103ED00011E0FFF7E9FB054606E0FFF7E5FB401BB5
:103EE000642801D903208BE7C24808380068C0F372
:103EF00040400028F1D1207800F0020002285FD174
:103F0000BC48006800F00C0058B1BA48006800F0E6
:103F10000C0008281CD1B748001F006800F480007E
:103F2000B0B9B44808380068C0F3400020B1E06878
:103F3000012801D0012063E7AE480838006820F06E
:103F4000F800216940EAC100AA490839086037E051
:103F5000E06800B30120A8490860FFF7A5FB05460B
:103F600006E0FFF7A1FB401B022801D9032047E729
:103F7000A04808380068C0F340000028F1D09D48F0
:103F80000838006820F0F800216940EAC10099492A
:103F90000839086014E0002097490860FFF784FBA7
:103FA000054606E0FFF780FB401B022801D90320ED
:103FB00026E7904808380068C0F340000028F1D197
:103FC000207800F0080008282CD16069A8B10120F1
:103FD0008A490860FFF768FB054606E0FFF764FBC7
:103FE000401B022801D903200AE782486C30006890
:103FF000C0F340000028F1D014E000207F490860A1
:10400000FFF752FB054606E0FFF74EFB401B022878
:1040100001D90320F4E677486C300068C0F3400013
:104020000028F1D1207800F00400042870D1002786
:1040300070483830006800F0805090B900BF002010
:1040400000906C483830006840F080506949383141
:1040500008600846006800F08050009000BF00BF74
:1040600001276748006800F48070B0B964480068B0
:1040700040F4807062490860FFF716FB054606E0D1
:10408000FFF712FB401B022801D90320B8E65C4869
:10409000006800F480700028F2D000BFA0680128FA
:1040A00008D154486830006840F001005149683137
:1040B00008601DE0A06805280DD14E4868300068F2
:1040C00040F004004B49683108600846006840F041
:1040D000010008600CE047486830006820F00100EB
:1040E0004449683108600846006820F00400086010
:1040F00000BFA068A8B1FFF7D7FA054609E0FFF7AF
:10410000D3FA401B41F28831884202D9032077E676
:1041100026E0384868300068C0F340000028EED040
:1041200013E0FFF7C1FA054608E0FFF7BDFA401BB0
:1041300041F28831884201D9032061E62D48683078
:104140000068C0F340000028EFD1012F07D12948B3
:104150003830006820F0805026493831086000BFB0
:10416000A069002845D02348006800F00C0008280A
:104170005DD0A069022845D100201F490866FFF7DD
:1041800093FA054606E0FFF78FFA401B022801D993
:10419000032035E6174808380068C0F3406000285F
:1041A000F1D1D4E907010843616A40EA8111012293
:1041B000A06AC2EB500041EA00412C20005D41EAB8
:1041C00000600C49091F086001200B490866FFF7D1
:1041D0006BFA054606E0FFF767FA401B022801D993
:1041E00003200DE6034808380068C0F3406000284B
:1041F000F1D049E00838024000004742800E4742B3
:1042000000700040002021490866FFF74DFA05467E
:1042100006E0FFF749FA401B022801D90320EFE529
:104220001B480068C0F340600028F2D12CE0A06970
:10423000012800D1E4E51648001D0668A0690128A0
:1042400020D006F48001E06981421BD106F03F01D5
:10425000206A814216D147F6C0703040616AB0EBE7
:10426000811F0FD106F440310122A06AC2EB500039
:10427000B1EB004F06D106F070612C20005DB1EB70
:10428000006F01D00120BBE50020B9E500004742E6
:104290000038024010B50446FCF726FD10BD7047FB
:1042A00010B50246506E800F0870506EC0F38360E8
:1042B0004870506EC0F301608870506E000CC8707A
:1042C000B2F86400000A087192F864004871906EB8
:1042D000000DC880906EC0F3034008726820805AB9
:1042E000C0F3C03048726820805AC0F380308872B2
:1042F0006820805AC0F34030C8726820805AC0F3EA
:104300000030087300204873506C002836D16820B4
:10431000805A8005030DD06E43EA90700861D06E1C
:10432000C0F3C2600875D06EC0F302604875D06EED
:10433000C0F342508875D06EC0F38240C875D06E0D
:10434000C0F3C23008760869401C50650B7E506D82
:1043500003F007039B1C01249C4060435065087ACE
:1043600000F00F03012098409065D2E915035B0A25
:104370005843D0654FF40073136621E0506C012858
:1043800013D16820805C8006830AD06E43EA104017
:1043900008610869401C83025365536DD3654FF46F
:1043A00000739365936D13660AE02E481368986353
:1043B000906B40F080509063012082F8340010BD73
:1043C0006C20805AC0F3803001F8190F6C20805A9D
:1043D000C0F3C61048706C20805C00F07F008870CD
:1043E000106FC00FC870106FC0F341700871106F6C
:1043F000C0F382604871106FC0F383508871106FF2
:10440000C0F34050C87100200872106FC0F3004024
:1044100048727020805AC0F3C03088727020805A71
:10442000C0F38030C8727020805AC0F340300873E7
:104430007020805AC0F3003048737020805AC0F357
:10444000812088737020805AC0F30120C8737020C7
:10445000805CC0F3460008740120487419390020BC
:10446000ADE70000FF0540000246506C0860906C0C
:104470004860D06C8860106DC860506D0861906DA8
:104480004861D06D8861106EC86100207047F8B532
:104490000446002000906946204602F096FF05463B
:1044A00015B1A06B2843A0630098C0F343263046A3
:1044B000F8BD000070B50446256B2068406BC0F362
:1044C000C03030B105F0080018B1204602F058FFA6
:1044D000F8E02068406BC0F30020002862D04FF461
:1044E0008070216888632068C06B4CF23A31884341
:1044F0002168C8632068C06A20F001002168C86292
:1045000005F0080038B305F0020010B905F02000EE
:1045100050B1206802F03AFB06462EB1A06B304342
:10452000A0632046FFF7BBFE40F23A502168886343
:10453000012084F834000020206305F0010010B948
:1045400005F0020018B1204600F0A2FABAE02046B9
:1045500000F0A3FAB6E005F080000028B8D005F01E
:10456000200050B1206802F011FB06462EB1A06B6E
:104570003043A0632046FFF792FE05F001000028BB
:10458000A6D105F002000028A2D12068C06A20F060
:1045900008002168C862012084F83400204600F039
:1045A0007CFA8FE02068406BC0F3803030B105F0BA
:1045B000080018B1204602F020FF83E02068406B1D
:1045C00040F23A21084008B1012000E00020002814
:1045D00078D02068406BC0F3400018B1A06B40F069
:1045E0000200A0632068406BC0F3C00018B1A06B4C
:1045F00040F00800A0632068406BC0F3401018B181
:10460000A06B40F02000A0632068406BC0F3001056
:1046100018B1A06B40F01000A0632068406BC0F39D
:10462000402018B1A06B40F00800A06340F23A703F
:10463000216888632068C06B40F23A318843216862
:10464000C863206802F0A2FAA16B0843A06305F0DA
:10465000080040B1012084F8340000202063204687
:10466000FFF71DFE2EE005F0800000B305F01000FE
:1046700010B905F0200050B11348E16B0865E06BFC
:10468000FEF781FC98B1E06B02F06FFD1AE005F0D7
:10469000010010B905F0020050B10C48216C08650A
:1046A000206CFEF770FC10B1206C02F031FD09E0C7
:1046B0000020A063012084F83400002020632046FD
:1046C000FFF7E8FD70BD00006B7100081171000874
:1046D00010B504460CB9012010BD94F8340020B97F
:1046E00000202077204600F065F8032084F834008D
:1046F000204600F00BF808B10120EDE70020A06390
:104700002063012084F834000020E5E730B589B04B
:1047100004460020039004900590069007907620B0
:10472000089006A807C88DE80700206803A90EC9ED
:1047300002F0A8F800201D490860206802F0BCF8CB
:1047400001201A49A039C1F8A0000220FEF712FE8C
:10475000204602F0AFFD054645B1012084F8340043
:10476000A06B2843A063012009B030BD204602F0B1
:1047700020FD05463DB1012084F83400A06B28439C
:10478000A0630120F0E74FF40071206802F0F2F816
:1047900005464DB1064821688863A06B2843A06395
:1047A000012084F83400DFE70020DDE7A080254207
:1047B000FF05400010B586B00446142101A8FCF79F
:1047C0008FF85849206888427ED100BF00200090B1
:1047D0005548006840F40060534908600846006886
:1047E00000F40060009000BF00BF00BF00200090F8
:1047F0004D481438006840F004004B4914390860F3
:104800000846006800F00400009000BF00BF00BF31
:10481000002000900846006840F008000860084644
:10482000006800F00800009000BF00BF4FF48850FF
:1048300001900220029000200390032004900C209D
:10484000059001A93948FEF71DFE042001900220C1
:10485000029000200390032004900C20059001A9F1
:104860003348FEF70FFE3348334908604FF00060CD
:104870004860002130488160C1604FF4806101616F
:1048800089004161890081612021C16100210162AB
:1048900004214162032181624FF40001C162891049
:1048A0000163FEF7A7FC08B1FCF770FB00BF2248CC
:1048B0002064846300BF1F484830204908604FF0DF
:1048C00000604860402100E029E01C488160002130
:1048D000C1604FF48061016189004161890081619B
:1048E0002021C16100210162042141620321816212
:1048F0004FF40001C16289100163FEF77BFC08B12F
:10490000FCF744FB00BF0D48E063846300BF002256
:1049100005213120FFF7BCF83120FFF7A5F806B0DC
:1049200010BD0000002C0140443802400008024045
:10493000000C024058640240A8660020086700206E
:104940002DE9F04387B004460F4691461D46C84600
:104950003FB9A06B40F00060A063012007B0BDE844
:10496000F08394F8340001287ED10020A06308EB86
:104970000501E06D814205D9A06B40F00070A06395
:104980000120EBE7032084F8340000202168C8628E
:104990002068C06B40F22A3108432168C863384858
:1049A000216CC8633748216CC8640020216C0865FD
:1049B0000021206C8160206C0068006820F0C0003D
:1049C000216C89680843216C096808606A029308B1
:1049D000226802F180013A46206CFEF781FC80B12A
:1049E0002068C06B20F495702168C8632648216850
:1049F0008863A06B40F08040A063012084F83400FD
:104A0000ACE7012021490860606C012801D04FEA21
:104A100048284FF0FF3001906802029090200390E8
:104A200002200490002005900120069001A9206832
:104A300001F0FAFE012D07D982202063414620684B
:104A400001F0E4FF064606E081202063414620682D
:104A500001F0F8FF064676B10B4821688863A06B29
:104A60003043A063012000E007E084F83400002018
:104A70002063012072E7002070E702206EE700004B
:104A8000C970000855700008FF0540008C8525425C
:104A900010B50446FCF76AF910BD10B50446FCF7E2
:104AA00083F910BD2DE9F04387B00446884691464E
:104AB0001D464F46B8F1000F07D1A06B40F00060D3
:104AC000A063012007B0BDE8F08394F8340001280A
:104AD00074D10020A0637919E06D814205D9A06BE3
:104AE00040F00070A0630120ECE7032084F834005C
:104AF00000202168C8622068C06B40F21A21084378
:104B00002168C8633848E16BC8633848E16BC86402
:104B10000020E16B0865606C012800D07F02012D48
:104B200007D9A02020633946206802F04DF80646D8
:104B300006E0902020633946206802F061F80646BE
:104B400066B12B4821688863A06B3043A0630120C5
:104B500084F83400002020630120B3E701202549B8
:104B600008604021E06B8160E06B0068006820F025
:104B7000C000E16B89680843E16B0968086069025D
:104B80008B08216801F180024146E06BFEF7A8FB2B
:104B9000A8B12068C06B40F21A2188432168C8631D
:104BA000134821688863A06B40F08040A063012017
:104BB00084F8340000202063012083E711E04FF0E7
:104BC000FF30019068020290902003900020049032
:104BD00005900120069001A9206801F025FE002023
:104BE00070E702206EE70000597100085570000858
:104BF000FF0540008C85254210B504460CB9012004
:104C000010BD606A38B96068B0F5827F00D105E0F8
:104C10000021E16102E00021216161610021A162C6
:104C200094F8510028B9002084F85000204600F084
:104C300047F8022084F851002068006820F0400006
:104C400021680860A08800F48270218901F4044181
:104C50000843A18901F400610843217C01F00201AD
:104C60000843217D01F001010843218B01F400710B
:104C70000843217F01F0380108432021095D01F03C
:104C800080010843218D01F4005108432168086028
:104C90000421A06901EA104094F8241001F01001E9
:104CA0000843216848602068C06920F400602168DA
:104CB000C86100206065012084F8510000209FE752
:104CC00010B586B00446142101A8FBF709FE294956
:104CD000206888424CD100BF002000902648006820
:104CE00040F48050244908600846006800F4805071
:104CF000009000BF00BF00BF002000901E48143885
:104D0000006840F001001C4914390860084600683A
:104D100000F00100009000BF00BF00BF0020009025
:104D20000846006840F0020008600846006800F08D
:104D30000200009000BF00BFC0200190022002903E
:104D400000200390032004900520059001A90B4842
:104D5000FEF798FB082001900220029000200390AB
:104D6000032004900520059001A90548FEF78AFB61
:104D700006B010BD0030014044380240000002403F
:104D8000000402407047704730B502460B4600BF32
:104D900092F83C00012801D1022030BD012082F8A8
:104DA0003C0000BF022082F83D0010684468106893
:104DB000816824F070041868044310684460184D3A
:104DC0001068A8421BD01068B0F1804F17D0154D65
:104DD0001068A84213D0144D1068A8420FD0134D8C
:104DE0001068A8420BD0124D1068A84207D0114D90
:104DF0001068A84203D0104D1068A84205D121F0D8
:104E000080015868014310688160012082F83D00EC
:104E100000BF002082F83C0000BF00BFBDE70000DB
:104E2000000001400004004000080040000C004069
:104E300000040140004001400018004010B5044645
:104E40000CB9012010BD94F83D0028B9002084F869
:104E50003C00204600F026F8022084F83D00211D89
:104E6000206802F0F3FE012084F8460000BF84F8B9
:104E70003E0001213F2001554020015541200155B0
:104E800000BF00BF012084F84200432001554420A8
:104E900001554520015500BF012084F83D00002048
:104EA000D0E7000038B5044626492068884218D16A
:104EB00000BF002000902448006840F00200224912
:104EC00008600846006800F00200009000BF00BFC4
:104ED000002205211D20FEF7DBFD1D20FEF7C4FD8D
:104EE0002FE01A49206888420FD100BF00200090AF
:104EF0001548006840F01000134908600846006833
:104F000000F01000009000BF1BE0114920688842AB
:104F100017D100BF002000900B48006840F480705B
:104F2000094908600846006800F48070009000BFDE
:104F300000BF002205212D20FEF7AAFD2D20FEF73F
:104F400093FD38BD0004004040380240001000408E
:104F500000200040014691F83D00012801D00120C9
:104F60007047022081F83D001A4B086898421BD018
:104F70000868B0F1804F17D0174B0868984213D0DB
:104F8000164B086898420FD0154B086898420BD012
:104F9000144B0868984207D0134B0868984203D016
:104FA000124B086898420CD10868806800F007022C
:104FB000062A0CD00868006840F001000B681860F1
:104FC00005E00868006840F001000B6818600020E8
:104FD000C6E7000000000140000400400008004057
:104FE000000C004000040140004001400018004057
:104FF000014691F83D00012801D0012070470220B0
:1050000081F83D000868C06840F001000B68D86076
:105010001A4B086898421BD00868B0F1804F17D02F
:10502000174B0868984213D0164B086898420FD067
:10503000154B086898420BD0144B0868984207D06B
:10504000134B0868984203D0124B086898420CD161
:105050000868806800F00702062A0CD0086800681B
:1050600040F001000B68186005E00868006840F037
:1050700001000B6818600020C0E70000000001403C
:105080000004004000080040000C00400004014003
:1050900000400140001800402DE9F04104460D4653
:1050A000002700BF94F83C00012802D10220BDE88F
:1050B000F081012084F83C0000BF022084F83D000C
:1050C0002068866826F0770626F47F46206886608A
:1050D0002868502833D00CDC202850D004DC00286D
:1050E0004BD0102851D149E0302849D040284CD12C
:1050F00039E060282DD0702807D0B0F5805F03D04C
:10510000B0F5005F41D10DE041E0D5E902136A68D6
:10511000206802F01CFE2068866846F0770620684A
:10512000866034E0D5E902136A68206802F00FFE59
:105130002068806840F480402168886027E0EA6841
:105140006968206802F0F4FE5021206802F00AFE2F
:105150001DE0EA686968206802F0FDFE60212068B1
:1051600002F000FE13E0EA686968206802F0E0FEE1
:105170004021206802F0F6FD09E000BF00BF00BF3B
:105180002968206802F0EEFD01E0012700BF00BFA2
:10519000012084F83D0000BF002084F83C0000BFDF
:1051A000384684E72DE9F04104460D4614B9012044
:1051B000BDE8F08194F83D0028B9002084F83C0057
:1051C000204600F053F8022084F83D0020688068F3
:1051D00044F20701884321688860211D206802F09D
:1051E00035FD2068D0F80880206886692068076A45
:1051F000286840EA080840F203308643A969A86895
:1052000040EA0120064340F60C4086434FF2F0008E
:105210008643E969E86840EA0120064328690001FD
:10522000296A40EA0130064327F0220727F0880761
:105230006969686840EA011007432068C0F808807F
:105240002068866120680762012084F8460084F89F
:105250003E0001213F200155012084F842004320F7
:105260000155012084F83D000020A1E710B586B06B
:105270000446142101A8FBF733FB1F49206888422C
:1052800037D100BF002000901C48006840F00200A9
:105290001A4908600846006800F00200009000BF4C
:1052A00000BF00BF0020009014481438006840F090
:1052B00004001249143908600846006800F0040030
:1052C000009000BF00BFC02001900220029001208A
:1052D0000390002004900320059001A90848FEF7E0
:1052E000D1F8002205212D20FEF7D2FB2D20FEF75C
:1052F000BBFB06B010BD0000000401404438024072
:10530000000802402DE9F04304460D4694F83E6043
:105310003F20075D94F84280432010F804906DB957
:10532000012E02D1B8F1010F02D00120BDE8F083B7
:10533000022084F83E0084F8420025E0042D0CD1C0
:10534000012F02D1B9F1010F01D00120EEE70221B6
:105350003F2001554320015516E0012E07D1012FB2
:1053600005D1B8F1010F02D1B9F1010F01D001202F
:10537000DCE7022084F83E0002213F200155022094
:1053800084F842004320015515B1042D0CD105E0ED
:1053900001220021206802F0C9FC10E00122042152
:1053A000206802F0C3FC0AE001220021206802F01C
:1053B000BDFC01220421206802F0B8FC00BF00BF40
:1053C0002068006840F00100216808600020ADE717
:1053D000704770B504462068C5682068066906F005
:1053E0000200022819D105F00200022815D1401F41
:1053F00021680861012020772068806900F003009F
:1054000018B12046FFF7E4FF05E0204600F0C6F89B
:10541000204600F091F90020207706F004000428CF
:1054200019D105F00400042815D1C0432168086192
:10543000022020772068806900F4407018B120466F
:10544000FFF7C6FF05E0204600F0A8F8204600F070
:1054500073F90020207706F00800082819D105F01C
:105460000800082815D1C04321680861042020776E
:105470002068C06900F0030018B12046FFF7A8FFBC
:1054800005E0204600F08AF8204600F055F900209B
:10549000207706F01000102819D105F01000102810
:1054A00015D1C04321680861082020772068C069B1
:1054B00000F4407018B12046FFF78AFF05E020464F
:1054C00000F06CF8204600F037F90020207706F055
:1054D000010048B105F0010030B16FF00100216812
:1054E0000861204600F0B0F906F08000802809D15C
:1054F00005F08000802805D1C0432168086120465E
:10550000FFF740FC06F04000402809D105F04000BC
:10551000402805D1C04321680861204600F076FA92
:1055200006F02000202809D105F02000202805D110
:10553000C043216808612046FFF725FC70BD0000CC
:1055400010B586B00446142101A8FBF7C9F92068FC
:10555000B0F1804F1CD100BF002000900D480068C2
:1055600040F001000B4908600846006800F00100A7
:10557000009000BF00BF0520019002200290002093
:10558000039004900120059001A90348FDF77AFFDC
:1055900006B010BD303802400000024070472DE9CF
:1055A000F04104460D461646002700BF94F83C0023
:1055B000012802D10220BDE8F081012084F83C00DE
:1055C00000BF36B1042E1BD0082E31D00C2E5ED178
:1055D00045E02946206802F0CFFB2068806940F052
:1055E0000800216888612068806920F00400216833
:1055F000886120688069296908432168886148E0DA
:105600002946206802F0F0FB2068806940F40060C1
:10561000216888612068806920F480602168886141
:1056200020688069296940EA01202168886130E0AA
:105630002946206802F016FC2068C06940F0080086
:105640002168C8612068C06920F004002168C86131
:105650002068C069296908432168C86119E02946A2
:10566000206802F03BFC2068C06940F400602168BB
:10567000C8612068C06920F480602168C861206822
:10568000C069296940EA01202168C86101E0012759
:1056900000BF00BF00BF002084F83C0000BF3846B8
:1056A00089E710B504460CB9012010BD94F83D00FF
:1056B00028B9002084F83C00204600F025F802209C
:1056C00084F83D00211D206802F0C0FA012084F812
:1056D000460000BF84F83E0001213F2001554020D4
:1056E00001554120015500BF00BF012084F8420050
:1056F00043200155442001554520015500BF01209C
:1057000084F83D000020D0E708B50168B1F1804F72
:105710000FD100BF002100910649096841F0010145
:10572000044A11601146096801F00101009100BFAF
:1057300000BF08BD403802407047000070B5044605
:105740000D4615B994F83E000BE0042D02D13F2020
:10575000005D06E0082D02D14020005D01E04120FF
:10576000005D012801D0012070BD1DB9022084F820
:105770003E000EE0042D03D102213F20015508E038
:10578000082D03D102214020015502E002214120D1
:10579000015501222946206802F0C8FA23492068F1
:1057A000884203D022492068884201D1012000E0CC
:1057B000002028B12068406C40F400402168486413
:1057C0001A49206888421BD02068B0F1804F17D05A
:1057D00018492068884213D01749206888420FD0A2
:1057E0001649206888420BD011492068884207D0AA
:1057F00013492068884203D01249206888420CD19E
:105800002068806800F00706062E0CD0206800682B
:1058100040F001002168086005E02068006840F061
:1058200001002168086000209EE7000000000140A0
:10583000000401400004004000080040000C00404B
:1058400000400140001800402DE9F047044665493A
:105850002068884201D1FEF759F8634920688842E0
:105860006CD16248007800287ED06148007800281A
:1058700065D0604800680830B0F5804F02D900203C
:105880005C4908605C4800685A490968415C5A48AC
:10589000026858480068401C105C41EA002007B2CA
:1058A0005548016853480068001D095C5248026869
:1058B00050480068401D105C41EA00200FFA80F853
:1058C0004D4801684B480068801D095C4A480268E1
:1058D00048480068C01D105C41EA002006B207F588
:1058E0000040C0F30F15454800886843642190FBD1
:1058F000F1F043490968C86340480088684364215F
:1059000090FBF1F03E490968486308F50040C0F398
:105910000F1906F50040C0F30F1A4B46002211463E
:105920003848FDF73FFA5346002210213548FDF76D
:1059300039FA3048006808302E4908604FE02D4A97
:105940001268B2F5804F02D300222A4B1A60294A0E
:105950001268921CB2F5804F02D90022254B1A60C2
:10596000254A1268234B00E026E01B68D35C224ADC
:105970001568204A1268521CAA5C43EA022211B23E
:1059800001F50042C2F30F101C4A128842436423FF
:1059900092FBF3F21A4B1B68DA63184A12884243EF
:1059A000642392FBF3F2164B1B685A63114A126888
:1059B000921C104B1A6012E013480088401C00B281
:1059C00011490880084600880A2801D10020088073
:1059D00000200B490968C863094909684863BDE8A4
:1059E000F087000000140040000400403000002058
:1059F00031000020240000201C00002000000020B6
:105A0000C0670020FC640020B2020020704710B57F
:105A100004460CB9012010BDA06900B100E000BF30
:105A200094F8410028B9002084F84000204600F096
:105A300029F8242084F841002068C06820F4005030
:105A40002168C860204602F09BFA2068006920F4B3
:105A50009040216808612068406920F02A00216890
:105A600048612068C06840F400502168C860002088
:105A70006064202084F8410084F8420000206063C4
:105A800000BFC8E710B586B00446142101A8FAF794
:105A900027FF1B492068884230D100BF00200090BA
:105AA0001848006840F01000164908600846006871
:105AB00000F01000009000BF00BF00BF0020009069
:105AC00010481438006840F001000E49143908608D
:105AD0000846006800F00100009000BF00BF4FF4CE
